{"contracts/PVMERC20Votes.sol":{"PVMERC20Votes":{"abi":[{"inputs":[{"internalType":"string","name":"name","type":"string"},{"internalType":"string","name":"symbol","type":"string"},{"internalType":"uint256","name":"totalSupply","type":"uint256"},{"internalType":"string","name":"name2","type":"string"},{"internalType":"string","name":"version","type":"string"}],"stateMutability":"nonpayable","type":"constructor"},{"inputs":[],"name":"CheckpointUnorderedInsertion","type":"error"},{"inputs":[],"name":"ECDSAInvalidSignature","type":"error"},{"inputs":[{"internalType":"uint256","name":"length","type":"uint256"}],"name":"ECDSAInvalidSignatureLength","type":"error"},{"inputs":[{"internalType":"bytes32","name":"s","type":"bytes32"}],"name":"ECDSAInvalidSignatureS","type":"error"},{"inputs":[{"internalType":"uint256","name":"increasedSupply","type":"uint256"},{"internalType":"uint256","name":"cap","type":"uint256"}],"name":"ERC20ExceededSafeSupply","type":"error"},{"inputs":[{"internalType":"address","name":"spender","type":"address"},{"internalType":"uint256","name":"allowance","type":"uint256"},{"internalType":"uint256","name":"needed","type":"uint256"}],"name":"ERC20InsufficientAllowance","type":"error"},{"inputs":[{"internalType":"address","name":"sender","type":"address"},{"internalType":"uint256","name":"balance","type":"uint256"},{"internalType":"uint256","name":"needed","type":"uint256"}],"name":"ERC20InsufficientBalance","type":"error"},{"inputs":[{"internalType":"address","name":"approver","type":"address"}],"name":"ERC20InvalidApprover","type":"error"},{"inputs":[{"internalType":"address","name":"receiver","type":"address"}],"name":"ERC20InvalidReceiver","type":"error"},{"inputs":[{"internalType":"address","name":"sender","type":"address"}],"name":"ERC20InvalidSender","type":"error"},{"inputs":[{"internalType":"address","name":"spender","type":"address"}],"name":"ERC20InvalidSpender","type":"error"},{"inputs":[{"internalType":"uint256","name":"timepoint","type":"uint256"},{"internalType":"uint48","name":"clock","type":"uint48"}],"name":"ERC5805FutureLookup","type":"error"},{"inputs":[],"name":"ERC6372InconsistentClock","type":"error"},{"inputs":[{"internalType":"address","name":"account","type":"address"},{"internalType":"uint256","name":"currentNonce","type":"uint256"}],"name":"InvalidAccountNonce","type":"error"},{"inputs":[],"name":"InvalidShortString","type":"error"},{"inputs":[{"internalType":"uint8","name":"bits","type":"uint8"},{"internalType":"uint256","name":"value","type":"uint256"}],"name":"SafeCastOverflowedUintDowncast","type":"error"},{"inputs":[{"internalType":"string","name":"str","type":"string"}],"name":"StringTooLong","type":"error"},{"inputs":[{"internalType":"uint256","name":"expiry","type":"uint256"}],"name":"VotesExpiredSignature","type":"error"},{"anonymous":false,"inputs":[{"indexed":true,"internalType":"address","name":"owner","type":"address"},{"indexed":true,"internalType":"address","name":"spender","type":"address"},{"indexed":false,"internalType":"uint256","name":"value","type":"uint256"}],"name":"Approval","type":"event"},{"anonymous":false,"inputs":[{"indexed":true,"internalType":"address","name":"delegator","type":"address"},{"indexed":true,"internalType":"address","name":"fromDelegate","type":"address"},{"indexed":true,"internalType":"address","name":"toDelegate","type":"address"}],"name":"DelegateChanged","type":"event"},{"anonymous":false,"inputs":[{"indexed":true,"internalType":"address","name":"delegate","type":"address"},{"indexed":false,"internalType":"uint256","name":"previousVotes","type":"uint256"},{"indexed":false,"internalType":"uint256","name":"newVotes","type":"uint256"}],"name":"DelegateVotesChanged","type":"event"},{"anonymous":false,"inputs":[],"name":"EIP712DomainChanged","type":"event"},{"anonymous":false,"inputs":[{"indexed":true,"internalType":"address","name":"from","type":"address"},{"indexed":true,"internalType":"address","name":"to","type":"address"},{"indexed":false,"internalType":"uint256","name":"value","type":"uint256"}],"name":"Transfer","type":"event"},{"inputs":[],"name":"CLOCK_MODE","outputs":[{"internalType":"string","name":"","type":"string"}],"stateMutability":"view","type":"function"},{"inputs":[{"internalType":"address","name":"owner","type":"address"},{"internalType":"address","name":"spender","type":"address"}],"name":"allowance","outputs":[{"internalType":"uint256","name":"","type":"uint256"}],"stateMutability":"view","type":"function"},{"inputs":[{"internalType":"address","name":"spender","type":"address"},{"internalType":"uint256","name":"value","type":"uint256"}],"name":"approve","outputs":[{"internalType":"bool","name":"","type":"bool"}],"stateMutability":"nonpayable","type":"function"},{"inputs":[{"internalType":"address","name":"account","type":"address"}],"name":"balanceOf","outputs":[{"internalType":"uint256","name":"","type":"uint256"}],"stateMutability":"view","type":"function"},{"inputs":[{"internalType":"address","name":"account","type":"address"},{"internalType":"uint32","name":"pos","type":"uint32"}],"name":"checkpoints","outputs":[{"components":[{"internalType":"uint48","name":"_key","type":"uint48"},{"internalType":"uint208","name":"_value","type":"uint208"}],"internalType":"struct Checkpoints.Checkpoint208","name":"","type":"tuple"}],"stateMutability":"view","type":"function"},{"inputs":[],"name":"clock","outputs":[{"internalType":"uint48","name":"","type":"uint48"}],"stateMutability":"view","type":"function"},{"inputs":[],"name":"decimals","outputs":[{"internalType":"uint8","name":"","type":"uint8"}],"stateMutability":"view","type":"function"},{"inputs":[{"internalType":"address","name":"delegatee","type":"address"}],"name":"delegate","outputs":[],"stateMutability":"nonpayable","type":"function"},{"inputs":[{"internalType":"address","name":"delegatee","type":"address"},{"internalType":"uint256","name":"nonce","type":"uint256"},{"internalType":"uint256","name":"expiry","type":"uint256"},{"internalType":"uint8","name":"v","type":"uint8"},{"internalType":"bytes32","name":"r","type":"bytes32"},{"internalType":"bytes32","name":"s","type":"bytes32"}],"name":"delegateBySig","outputs":[],"stateMutability":"nonpayable","type":"function"},{"inputs":[{"internalType":"address","name":"account","type":"address"}],"name":"delegates","outputs":[{"internalType":"address","name":"","type":"address"}],"stateMutability":"view","type":"function"},{"inputs":[],"name":"eip712Domain","outputs":[{"internalType":"bytes1","name":"fields","type":"bytes1"},{"internalType":"string","name":"name","type":"string"},{"internalType":"string","name":"version","type":"string"},{"internalType":"uint256","name":"chainId","type":"uint256"},{"internalType":"address","name":"verifyingContract","type":"address"},{"internalType":"bytes32","name":"salt","type":"bytes32"},{"internalType":"uint256[]","name":"extensions","type":"uint256[]"}],"stateMutability":"view","type":"function"},{"inputs":[{"internalType":"uint256","name":"timepoint","type":"uint256"}],"name":"getPastTotalSupply","outputs":[{"internalType":"uint256","name":"","type":"uint256"}],"stateMutability":"view","type":"function"},{"inputs":[{"internalType":"address","name":"account","type":"address"},{"internalType":"uint256","name":"timepoint","type":"uint256"}],"name":"getPastVotes","outputs":[{"internalType":"uint256","name":"","type":"uint256"}],"stateMutability":"view","type":"function"},{"inputs":[{"internalType":"address","name":"account","type":"address"}],"name":"getVotes","outputs":[{"internalType":"uint256","name":"","type":"uint256"}],"stateMutability":"view","type":"function"},{"inputs":[],"name":"name","outputs":[{"internalType":"string","name":"","type":"string"}],"stateMutability":"view","type":"function"},{"inputs":[{"internalType":"address","name":"owner","type":"address"}],"name":"nonces","outputs":[{"internalType":"uint256","name":"","type":"uint256"}],"stateMutability":"view","type":"function"},{"inputs":[{"internalType":"address","name":"account","type":"address"}],"name":"numCheckpoints","outputs":[{"internalType":"uint32","name":"","type":"uint32"}],"stateMutability":"view","type":"function"},{"inputs":[],"name":"symbol","outputs":[{"internalType":"string","name":"","type":"string"}],"stateMutability":"view","type":"function"},{"inputs":[],"name":"totalSupply","outputs":[{"internalType":"uint256","name":"","type":"uint256"}],"stateMutability":"view","type":"function"},{"inputs":[{"internalType":"address","name":"to","type":"address"},{"internalType":"uint256","name":"value","type":"uint256"}],"name":"transfer","outputs":[{"internalType":"bool","name":"","type":"bool"}],"stateMutability":"nonpayable","type":"function"},{"inputs":[{"internalType":"address","name":"from","type":"address"},{"internalType":"address","name":"to","type":"address"},{"internalType":"uint256","name":"value","type":"uint256"}],"name":"transferFrom","outputs":[{"internalType":"bool","name":"","type":"bool"}],"stateMutability":"nonpayable","type":"function"}],"evm":{"assembly":"// RO data = 0/0 bytes\n// RW data = 332/66144 bytes\n// Stack size = 32768 bytes\n\n// Instructions = 19373\n// Code size = 66745 bytes\n\n      : @0 (gas: 1)\n     0: jump @14 if a0 == a1\n      : @1 (gas: 9)\n     3: a3 = a1 << 0x20\n     6: a3 = a3 >> 0x20\n     9: a4 = a0 << 0x20\n    12: a4 = a4 >> 0x20\n    15: a4 = a4 + a2\n    18: a3 = a3 - a4\n    21: a4 = a2 << 0x1\n    24: a4 = -a4\n    26: jump @7 if a4 >=u a3\n      : @2 (gas: 1)\n    29: jump @11 if a0 >=u a1\n      : @3 (gas: 1)\n    32: jump @14 if a2 == 0\n      : @4 (gas: 3)\n    35: a2 = a2 + a0\n    38: a3 = a0\n    40: fallthrough\n      : @5 (gas: 6)\n    41: a4 = u8 [a1]\n    43: a1 = a1 + 0x1\n    46: a5 = a3 + 0x1\n    49: u8 [a3] = a4\n    51: a3 = a5\n    53: jump @5 if a5 != a2\n      : @6 (gas: 1)\n    56: jump @14\n      : @7 (gas: 1)\n    58: jump @14 if a2 == 0\n      : @8 (gas: 3)\n    61: a2 = a2 + a0\n    64: a3 = a0\n    66: fallthrough\n      : @9 (gas: 6)\n    67: a4 = u8 [a1]\n    69: a1 = a1 + 0x1\n    72: a5 = a3 + 0x1\n    75: u8 [a3] = a4\n    77: a3 = a5\n    79: jump @9 if a5 != a2\n      : @10 (gas: 1)\n    82: jump @14\n      : @11 (gas: 1)\n    84: jump @14 if a2 == 0\n      : @12 (gas: 2)\n    87: i32 a3 = a2 + 0xffffffffffffffff\n    90: fallthrough\n      : @13 (gas: 7)\n    91: a4 = a1 + a3\n    94: a4 = u8 [a4]\n    96: a2 = a2 + 0xffffffffffffffff\n    99: a5 = a0 + a3\n   102: u8 [a5] = a4\n   104: i32 a3 = a3 + 0xffffffffffffffff\n   107: jump @13 if a2 != 0\n      : @14 (gas: 1)\n   110: ret\n      : @15 (gas: 7)\n   112: sp = sp + 0xffffffffffffffe8\n   115: u64 [sp + 0x10] = ra\n   118: u64 [sp + 0x8] = s0\n   121: u64 [sp] = s1\n   123: s1 = 0x20148\n   128: s0 = i32 [0x20148]\n   133: jump @18 if s0 == 0\n      : @16 (gas: 5)\n   136: a0 = 0x30180\n   141: i32 a0 = a0 + 0\n   143: i32 a1 = s1 + 0\n   145: ecalli 9 // 'get_immutable_data'\n   147: fallthrough\n      : @17 (gas: 3)\n   148: a0 = i32 [0x20148]\n   153: u32 [0x20148] = 0\n   158: jump @19 if a0 <u s0\n      : @18 (gas: 5)\n   161: ra = u64 [sp + 0x10]\n   164: s0 = u64 [sp + 0x8]\n   167: s1 = u64 [sp]\n   169: sp = sp + 0x18\n   172: ret\n      : @19 (gas: 1)\n   174: trap\n      : @20 (gas: 2)\n   175: a1 = i32 [0x20148]\n   180: jump @91 if a1 == 0\n      : @21 (gas: 4)\n   184: a0 = 0x30180\n   189: i32 a0 = a0 + 0\n   191: ecalli 17 // 'set_immutable_data'\n   193: jump @91\n      : @22 (gas: 8)\n   196: sp = sp + 0xfffffffffffffff0\n   199: u64 [sp + 0x8] = ra\n   202: u64 [sp] = s0\n   204: a2 = a1\n   206: s0 = a0\n   208: a1 = 0x20\n   211: a0 = a2\n   213: ra = 2, jump @37\n      : @23 [@dyn 1] (gas: 100)\n   218: a1 = u8 [a0 + 0x1]\n   221: a2 = u8 [a0]\n   223: a3 = u8 [a0 + 0x2]\n   226: a4 = u8 [a0 + 0x3]\n   229: a1 = a1 << 0x8\n   232: a1 = a1 | a2\n   235: a3 = a3 << 0x10\n   238: a4 = a4 << 0x18\n   241: a3 = a3 | a4\n   244: a1 = a1 | a3\n   247: a2 = u8 [a0 + 0x5]\n   250: a3 = u8 [a0 + 0x4]\n   253: a4 = u8 [a0 + 0x6]\n   256: a5 = u8 [a0 + 0x7]\n   259: a2 = a2 << 0x8\n   262: a2 = a2 | a3\n   265: a4 = a4 << 0x10\n   268: a5 = a5 << 0x18\n   271: a4 = a4 | a5\n   274: a2 = a2 | a4\n   277: a2 = a2 << 0x20\n   280: t0 = a2 | a1\n   283: a2 = u8 [a0 + 0x9]\n   286: a3 = u8 [a0 + 0x8]\n   289: a4 = u8 [a0 + 0xa]\n   292: a5 = u8 [a0 + 0xb]\n   295: a2 = a2 << 0x8\n   298: a2 = a2 | a3\n   301: a4 = a4 << 0x10\n   304: a5 = a5 << 0x18\n   307: a4 = a4 | a5\n   310: a2 = a2 | a4\n   313: a3 = u8 [a0 + 0xd]\n   316: a4 = u8 [a0 + 0xc]\n   319: a5 = u8 [a0 + 0xe]\n   322: a1 = u8 [a0 + 0xf]\n   325: a3 = a3 << 0x8\n   328: a3 = a3 | a4\n   331: a5 = a5 << 0x10\n   334: a1 = a1 << 0x18\n   337: a1 = a1 | a5\n   340: a1 = a1 | a3\n   343: a1 = a1 << 0x20\n   346: t1 = a1 | a2\n   349: a1 = u8 [a0 + 0x11]\n   352: a3 = u8 [a0 + 0x10]\n   355: a4 = u8 [a0 + 0x12]\n   358: a5 = u8 [a0 + 0x13]\n   361: a1 = a1 << 0x8\n   364: a1 = a1 | a3\n   367: a4 = a4 << 0x10\n   370: a5 = a5 << 0x18\n   373: a4 = a4 | a5\n   376: a1 = a1 | a4\n   379: a3 = u8 [a0 + 0x15]\n   382: a4 = u8 [a0 + 0x14]\n   385: a5 = u8 [a0 + 0x16]\n   388: a2 = u8 [a0 + 0x17]\n   391: a3 = a3 << 0x8\n   394: a3 = a3 | a4\n   397: a5 = a5 << 0x10\n   400: a2 = a2 << 0x18\n   403: a2 = a2 | a5\n   406: a2 = a2 | a3\n   409: a2 = a2 << 0x20\n   412: a3 = a2 | a1\n   415: a1 = u8 [a0 + 0x19]\n   418: a2 = u8 [a0 + 0x18]\n   421: a4 = u8 [a0 + 0x1a]\n   424: a5 = u8 [a0 + 0x1b]\n   427: a1 = a1 << 0x8\n   430: a1 = a1 | a2\n   433: a4 = a4 << 0x10\n   436: a5 = a5 << 0x18\n   439: a4 = a4 | a5\n   442: a1 = a1 | a4\n   445: a2 = u8 [a0 + 0x1d]\n   448: a4 = u8 [a0 + 0x1c]\n   451: a5 = u8 [a0 + 0x1e]\n   454: a0 = u8 [a0 + 0x1f]\n   457: a2 = a2 << 0x8\n   460: a2 = a2 | a4\n   463: a5 = a5 << 0x10\n   466: a0 = a0 << 0x18\n   469: a0 = a0 | a5\n   472: a0 = a0 | a2\n   475: a0 = a0 << 0x20\n   478: a0 = a0 | a1\n   481: a0 = reverse a0\n   483: a1 = reverse a3\n   485: a2 = reverse t1\n   487: a3 = reverse t0\n   489: u64 [s0 + 0x18] = a3\n   492: u64 [s0 + 0x10] = a2\n   495: u64 [s0 + 0x8] = a1\n   498: u64 [s0] = a0\n   500: ra = u64 [sp + 0x8]\n   503: s0 = u64 [sp]\n   505: sp = sp + 0x10\n   508: ret\n      : @24 (gas: 12)\n   510: sp = sp + 0xffffffffffffffd8\n   513: u64 [sp + 0x20] = ra\n   516: u64 [sp + 0x18] = s0\n   519: u64 [sp + 0x10] = s1\n   522: a2 = u64 [a1]\n   524: u64 [sp + 0x8] = a2\n   527: a2 = u64 [a1 + 0x8]\n   530: u64 [sp] = a2\n   532: s0 = u64 [a1 + 0x10]\n   535: s1 = u64 [a1 + 0x18]\n   538: a1 = 0x20\n   541: ra = 4, jump @37\n      : @25 [@dyn 2] (gas: 71)\n   546: a1 = reverse s1\n   548: a2 = reverse s0\n   550: a3 = u64 [sp]\n   552: a3 = reverse a3\n   554: a4 = u64 [sp + 0x8]\n   557: a4 = reverse a4\n   559: u8 [a0 + 0x18] = a4\n   562: u8 [a0 + 0x10] = a3\n   565: u8 [a0 + 0x8] = a2\n   568: u8 [a0] = a1\n   570: a5 = a4 >> 0x38\n   573: u8 [a0 + 0x1f] = a5\n   576: a5 = a4 >> 0x30\n   579: u8 [a0 + 0x1e] = a5\n   582: a5 = a4 >> 0x28\n   585: u8 [a0 + 0x1d] = a5\n   588: a5 = a4 >> 0x20\n   591: u8 [a0 + 0x1c] = a5\n   594: a5 = a4 >> 0x18\n   597: u8 [a0 + 0x1b] = a5\n   600: a5 = a4 >> 0x10\n   603: u8 [a0 + 0x1a] = a5\n   606: a4 = a4 >> 0x8\n   609: u8 [a0 + 0x19] = a4\n   612: a4 = a3 >> 0x38\n   615: u8 [a0 + 0x17] = a4\n   618: a4 = a3 >> 0x30\n   621: u8 [a0 + 0x16] = a4\n   624: a4 = a3 >> 0x28\n   627: u8 [a0 + 0x15] = a4\n   630: a4 = a3 >> 0x20\n   633: u8 [a0 + 0x14] = a4\n   636: a4 = a3 >> 0x18\n   639: u8 [a0 + 0x13] = a4\n   642: a4 = a3 >> 0x10\n   645: u8 [a0 + 0x12] = a4\n   648: a3 = a3 >> 0x8\n   651: u8 [a0 + 0x11] = a3\n   654: a3 = a2 >> 0x38\n   657: u8 [a0 + 0xf] = a3\n   660: a3 = a2 >> 0x30\n   663: u8 [a0 + 0xe] = a3\n   666: a3 = a2 >> 0x28\n   669: u8 [a0 + 0xd] = a3\n   672: a3 = a2 >> 0x20\n   675: u8 [a0 + 0xc] = a3\n   678: a3 = a2 >> 0x18\n   681: u8 [a0 + 0xb] = a3\n   684: a3 = a2 >> 0x10\n   687: u8 [a0 + 0xa] = a3\n   690: a2 = a2 >> 0x8\n   693: u8 [a0 + 0x9] = a2\n   696: a2 = a1 >> 0x38\n   699: u8 [a0 + 0x7] = a2\n   702: a2 = a1 >> 0x30\n   705: u8 [a0 + 0x6] = a2\n   708: a2 = a1 >> 0x28\n   711: u8 [a0 + 0x5] = a2\n   714: a2 = a1 >> 0x20\n   717: u8 [a0 + 0x4] = a2\n   720: a2 = a1 >> 0x18\n   723: u8 [a0 + 0x3] = a2\n   726: a2 = a1 >> 0x10\n   729: u8 [a0 + 0x2] = a2\n   732: a1 = a1 >> 0x8\n   735: u8 [a0 + 0x1] = a1\n   738: ra = u64 [sp + 0x20]\n   741: s0 = u64 [sp + 0x18]\n   744: s1 = u64 [sp + 0x10]\n   747: sp = sp + 0x28\n   750: ret\n      : @26 [@dyn 3] (gas: 32)\n   752: a0 = reverse a0\n   754: a2 = reverse a2\n   756: a3 = reverse a3\n   758: a1 = reverse a1\n   760: u64 [sp + 0x18] = a1\n   763: u64 [sp + 0x10] = a3\n   766: u64 [sp + 0x8] = a2\n   769: u64 [sp] = a0\n   771: u64 [sp + 56] = 0\n   774: u64 [sp + 48] = 0\n   777: u64 [sp + 40] = 0\n   780: u64 [sp + 32] = 0\n   783: u32 [sp + 64] = 0x20\n   787: i32 a1 = sp + 0\n   789: i32 a3 = sp + 0x20\n   792: i32 a4 = sp + 0x40\n   795: a2 = 0xffffffffffffffff\n   798: a0 = 0\n   800: ecalli 10 // 'get_storage'\n   802: a0 = u64 [sp + 0x38]\n   805: a1 = u64 [sp + 0x30]\n   808: a2 = u64 [sp + 0x28]\n   811: a3 = u64 [sp + 0x20]\n   814: a0 = reverse a0\n   816: a1 = reverse a1\n   818: a2 = reverse a2\n   820: a3 = reverse a3\n   822: u64 [s1 + 0x18] = a3\n   825: u64 [s1 + 0x10] = a2\n   828: u64 [s1 + 0x8] = a1\n   831: u64 [s1] = a0\n   833: t0 = 8, jump @2229\n      : @27 [@dyn 4] (gas: 1)\n   839: ret\n      : @28 (gas: 40)\n   841: sp = sp + 0xffffffffffffffa0\n   844: u64 [sp + 0x58] = ra\n   847: u64 [sp + 0x50] = s0\n   850: s0 = sp + 0x60\n   853: sp = sp & 0xffffffffffffffe0\n   856: t0 = u64 [a0]\n   858: a3 = u64 [a0 + 0x8]\n   861: a4 = u64 [a0 + 0x10]\n   864: a0 = u64 [a0 + 0x18]\n   867: t1 = u64 [a1]\n   869: a2 = u64 [a1 + 0x8]\n   872: a5 = u64 [a1 + 0x10]\n   875: a1 = u64 [a1 + 0x18]\n   878: t2 = reverse a0\n   880: a4 = reverse a4\n   882: a3 = reverse a3\n   884: a0 = reverse t0\n   886: t0 = reverse a1\n   888: a5 = reverse a5\n   890: a2 = reverse a2\n   892: a1 = reverse t1\n   894: u64 [sp + 0x18] = a0\n   897: u64 [sp + 0x10] = a3\n   900: u64 [sp + 0x8] = a4\n   903: u64 [sp] = t2\n   905: u64 [sp + 0x38] = a1\n   908: u64 [sp + 0x30] = a2\n   911: u64 [sp + 0x28] = a5\n   914: u64 [sp + 0x20] = t0\n   917: i32 a1 = sp + 0\n   919: i32 a3 = sp + 0x20\n   922: a2 = 0xffffffffffffffff\n   925: a4 = 0x20\n   928: a0 = 0\n   930: ecalli 18 // 'set_storage'\n   932: sp = s0 + 0xffffffffffffffa0\n   935: ra = u64 [sp + 0x58]\n   938: s0 = u64 [sp + 0x50]\n   941: sp = sp + 0x60\n   944: ret\n      : @29 [@dyn 5] (gas: 18)\n   946: a4 = u64 [a3]\n   948: u64 [sp + 0x38] = a4\n   951: a4 = u64 [a3 + 0x8]\n   954: u64 [sp + 0x30] = a4\n   957: a4 = u64 [a3 + 0x10]\n   960: u64 [sp + 0x28] = a4\n   963: a3 = u64 [a3 + 0x18]\n   966: u64 [sp + 0x20] = a3\n   969: a3 = u64 [a2]\n   971: u64 [sp + 0x18] = a3\n   974: a3 = u64 [a2 + 0x8]\n   977: u64 [sp + 0x10] = a3\n   980: a3 = u64 [a2 + 0x10]\n   983: u64 [sp + 0x8] = a3\n   986: a2 = u64 [a2 + 0x18]\n   989: u64 [sp] = a2\n   991: s1 = a1\n   993: ra = 12, jump @37\n      : @30 [@dyn 6] (gas: 30)\n   998: a1 = u64 [sp]\n  1000: a1 = reverse a1\n  1002: a2 = u64 [sp + 0x8]\n  1005: a2 = reverse a2\n  1007: a3 = u64 [sp + 0x10]\n  1010: a3 = reverse a3\n  1012: a4 = u64 [sp + 0x18]\n  1015: a4 = reverse a4\n  1017: u64 [sp + 0x58] = a4\n  1020: u64 [sp + 0x50] = a3\n  1023: u64 [sp + 0x48] = a2\n  1026: u64 [sp + 0x40] = a1\n  1029: a1 = u64 [sp + 0x20]\n  1032: a1 = reverse a1\n  1034: a2 = u64 [sp + 0x28]\n  1037: a2 = reverse a2\n  1039: a3 = u64 [sp + 0x30]\n  1042: a3 = reverse a3\n  1044: a4 = u64 [sp + 0x38]\n  1047: a4 = reverse a4\n  1049: u64 [sp + 0x78] = a4\n  1052: u64 [sp + 0x70] = a3\n  1055: u64 [sp + 0x68] = a2\n  1058: u64 [sp + 0x60] = a1\n  1061: i32 a2 = a0 + 0\n  1063: i32 a3 = s1 + 0\n  1065: i32 a0 = sp + 0x40\n  1068: a1 = 0x2\n  1071: ecalli 8 // 'deposit_event'\n  1073: t0 = 14, jump @2309\n      : @31 [@dyn 7] (gas: 1)\n  1079: ret\n      : @32 (gas: 15)\n  1081: sp = sp + 0xffffffffffffff20\n  1085: u64 [sp + 0xd8] = ra\n  1089: u64 [sp + 0xd0] = s0\n  1093: u64 [sp + 0xc8] = s1\n  1097: s0 = sp + 0xe0\n  1101: sp = sp & 0xffffffffffffffe0\n  1104: a5 = u64 [a4]\n  1106: u64 [sp + 0x40] = a5\n  1109: a5 = u64 [a4 + 0x8]\n  1112: u64 [sp + 0x48] = a5\n  1115: a5 = u64 [a4 + 0x10]\n  1118: u64 [sp + 0x50] = a5\n  1121: a4 = u64 [a4 + 0x18]\n  1124: u64 [sp + 0x58] = a4\n  1127: t0 = 16, jump @2293\n      : @33 [@dyn 8] (gas: 2)\n  1133: u64 [sp + 0x38] = a1\n  1136: ra = 18, jump @37\n      : @34 [@dyn 9] (gas: 46)\n  1141: a1 = reverse s1\n  1143: u64 [sp + 0x78] = a1\n  1146: a1 = u64 [sp]\n  1148: a1 = reverse a1\n  1150: u64 [sp + 0x70] = a1\n  1153: a1 = u64 [sp + 0x8]\n  1156: a1 = reverse a1\n  1158: u64 [sp + 0x68] = a1\n  1161: a1 = u64 [sp + 0x10]\n  1164: a1 = reverse a1\n  1166: u64 [sp + 0x60] = a1\n  1169: a1 = u64 [sp + 0x18]\n  1172: a1 = reverse a1\n  1174: u64 [sp + 0x98] = a1\n  1178: a1 = u64 [sp + 0x20]\n  1181: a1 = reverse a1\n  1183: u64 [sp + 0x90] = a1\n  1187: a1 = u64 [sp + 0x28]\n  1190: a1 = reverse a1\n  1192: u64 [sp + 0x88] = a1\n  1196: a1 = u64 [sp + 0x30]\n  1199: a1 = reverse a1\n  1201: u64 [sp + 0x80] = a1\n  1205: a1 = u64 [sp + 0x40]\n  1208: a1 = reverse a1\n  1210: u64 [sp + 0xb8] = a1\n  1214: a1 = u64 [sp + 0x48]\n  1217: a1 = reverse a1\n  1219: u64 [sp + 0xb0] = a1\n  1223: a1 = u64 [sp + 0x50]\n  1226: a1 = reverse a1\n  1228: u64 [sp + 0xa8] = a1\n  1232: a1 = u64 [sp + 0x58]\n  1235: a1 = reverse a1\n  1237: u64 [sp + 0xa0] = a1\n  1241: i32 a2 = a0 + 0\n  1243: a3 = i32 [sp + 0x38]\n  1246: i32 a0 = sp + 0x60\n  1249: a1 = 0x3\n  1252: ecalli 8 // 'deposit_event'\n  1254: sp = s0 + 0xffffffffffffff20\n  1258: ra = u64 [sp + 0xd8]\n  1262: s0 = u64 [sp + 0xd0]\n  1266: s1 = u64 [sp + 0xc8]\n  1270: sp = sp + 0xe0\n  1274: ret\n      : @35 [@dyn 10] (gas: 2)\n  1276: u64 [sp + 0x58] = a1\n  1279: ra = 22, jump @37\n      : @36 [@dyn 11] (gas: 58)\n  1284: a1 = reverse s1\n  1286: u64 [sp + 0x98] = a1\n  1290: a1 = u64 [sp]\n  1292: a1 = reverse a1\n  1294: u64 [sp + 0x90] = a1\n  1298: a1 = u64 [sp + 0x8]\n  1301: a1 = reverse a1\n  1303: u64 [sp + 0x88] = a1\n  1307: a1 = u64 [sp + 0x10]\n  1310: a1 = reverse a1\n  1312: u64 [sp + 0x80] = a1\n  1316: a1 = u64 [sp + 0x18]\n  1319: a1 = reverse a1\n  1321: u64 [sp + 0xb8] = a1\n  1325: a1 = u64 [sp + 0x20]\n  1328: a1 = reverse a1\n  1330: u64 [sp + 0xb0] = a1\n  1334: a1 = u64 [sp + 0x28]\n  1337: a1 = reverse a1\n  1339: u64 [sp + 0xa8] = a1\n  1343: a1 = u64 [sp + 0x30]\n  1346: a1 = reverse a1\n  1348: u64 [sp + 0xa0] = a1\n  1352: a1 = u64 [sp + 0x38]\n  1355: a1 = reverse a1\n  1357: u64 [sp + 0xd8] = a1\n  1361: a1 = u64 [sp + 0x40]\n  1364: a1 = reverse a1\n  1366: u64 [sp + 0xd0] = a1\n  1370: a1 = u64 [sp + 0x48]\n  1373: a1 = reverse a1\n  1375: u64 [sp + 0xc8] = a1\n  1379: a1 = u64 [sp + 0x50]\n  1382: a1 = reverse a1\n  1384: u64 [sp + 0xc0] = a1\n  1388: a1 = u64 [sp + 0x60]\n  1391: a1 = reverse a1\n  1393: u64 [sp + 0xf8] = a1\n  1397: a1 = u64 [sp + 0x68]\n  1400: a1 = reverse a1\n  1402: u64 [sp + 0xf0] = a1\n  1406: a1 = u64 [sp + 0x70]\n  1409: a1 = reverse a1\n  1411: u64 [sp + 0xe8] = a1\n  1415: a1 = u64 [sp + 0x78]\n  1418: a1 = reverse a1\n  1420: u64 [sp + 0xe0] = a1\n  1424: i32 a2 = a0 + 0\n  1426: a3 = i32 [sp + 0x58]\n  1429: i32 a0 = sp + 0x80\n  1433: a1 = 0x4\n  1436: ecalli 8 // 'deposit_event'\n  1438: sp = s0 + 0xfffffffffffffee0\n  1442: ra = u64 [sp + 0x118]\n  1446: s0 = u64 [sp + 0x110]\n  1450: s1 = u64 [sp + 0x108]\n  1454: sp = sp + 0x120\n  1458: ret\n      : @37 (gas: 2)\n  1460: i32 a2 = a0 >> 0x10\n  1463: jump @42 if a2 != 0\n      : @38 (gas: 4)\n  1466: a1 = a1 + a0\n  1469: i32 a1 = a1 + 0x1f\n  1472: a1 = a1 & 0xffffffffffffffe0\n  1475: jump @42 if a1 >u 65536\n      : @39 (gas: 3)\n  1481: a2 = 0x20150\n  1486: a3 = i32 [0x20150]\n  1491: jump @41 if a3 >=u a1\n      : @40 (gas: 2)\n  1494: u32 [0x20150] = a1\n  1499: fallthrough\n      : @41 (gas: 4)\n  1500: a1 = 0x20160\n  1505: i32 a0 = a0 + 0\n  1507: a0 = a0 + a1\n  1510: ret\n      : @42 (gas: 1)\n  1512: trap\n      : @43 (gas: 6)\n  1513: sp = sp + 0xfffffffffffffff0\n  1516: u64 [sp + 0x8] = ra\n  1519: u64 [sp] = s0\n  1521: s0 = a0 & 0x1\n  1524: ecalli 5 // 'call_data_size'\n  1526: fallthrough\n      : @44 (gas: 2)\n  1527: u32 [0x2014c] = a0\n  1532: jump @46 if s0 == 0\n      : @45 (gas: 1)\n  1535: ra = 24, jump @47\n      : @46 [@dyn 12] (gas: 14)\n  1539: ra = 0x1a\n  1542: sp = sp + 0xffffffffffffffa0\n  1545: u64 [sp + 0x58] = ra\n  1548: u64 [sp + 0x50] = s0\n  1551: s0 = sp + 0x60\n  1554: sp = sp & 0xffffffffffffffe0\n  1557: u64 [sp + 24] = 0\n  1560: u64 [sp + 16] = 0\n  1563: u64 [sp + 0] = 0x80\n  1567: a0 = 0x40\n  1570: a1 = sp\n  1572: u64 [sp + 8] = 0\n  1575: ra = 0x56\n  1578: jump @24\n      : @47 [@dyn 13] (gas: 15)\n  1581: sp = sp + 0xfffffffffffffb20\n  1585: a0 = sp + 0x400\n  1589: u64 [a0 + 0xd8] = ra\n  1593: u64 [a0 + 0xd0] = s0\n  1597: u64 [a0 + 0xc8] = s1\n  1601: s0 = sp + 0x4e0\n  1605: sp = sp & 0xffffffffffffffe0\n  1608: a2 = sp + 0x400\n  1612: u64 [a2 + 152] = 0\n  1616: u64 [a2 + 144] = 0\n  1620: u64 [a2 + 128] = 0x160\n  1626: a0 = 0x40\n  1629: a1 = sp + 0x480\n  1633: u64 [a2 + 136] = 0\n  1637: ra = 28, jump @24\n      : @48 [@dyn 14] (gas: 11)\n  1642: a0 = sp + 0x400\n  1646: u64 [a0 + 184] = 0\n  1650: u64 [a0 + 176] = 0\n  1654: u64 [a0 + 168] = 0\n  1658: u64 [a0 + 160] = 0\n  1662: i32 a0 = sp + 0x4a0\n  1666: ra = 0x1e\n  1669: ecalli 19 // 'value_transferred'\n  1671: a4 = sp + 0x400\n  1675: t0 = 0x20\n  1678: jump @2362\n      : @49 [@dyn 15] (gas: 2)\n  1682: a4 = sp + 0x400\n  1686: t0 = 32, jump @2362\n      : @50 [@dyn 16] (gas: 1)\n  1692: jump @76 if a0 != 0\n      : @51 (gas: 13)\n  1696: s1 = i32 [0x2014c]\n  1701: a0 = s1 << 0x20\n  1704: a1 = a0 >> 0x20\n  1707: a2 = sp + 0x400\n  1711: u64 [a2 + 120] = 0\n  1714: u64 [a2 + 112] = 0\n  1717: u64 [a2 + 104] = 0\n  1720: a0 = sp + 0x460\n  1724: u64 [sp + 0x98] = a1\n  1728: u64 [a2 + 0x60] = a1\n  1731: ra = 0x22\n  1734: t0 = 0x8e\n  1738: jump @2371\n      : @52 [@dyn 17] (gas: 3)\n  1742: a0 = 0x160\n  1746: a1 = s1\n  1748: ra = 36, jump @37\n      : @53 [@dyn 18] (gas: 5)\n  1753: i32 a0 = a0 + 0\n  1755: a1 = s1\n  1757: a2 = 0\n  1759: ecalli 3 // 'call_data_copy'\n  1761: fallthrough\n      : @54 (gas: 1)\n  1762: jump @77 if s1 <=u 159\n      : @55 (gas: 3)\n  1768: a0 = sp + 0x440\n  1772: a1 = 0x160\n  1776: ra = 38, jump @22\n      : @56 [@dyn 19] (gas: 8)\n  1781: a0 = sp + 0x400\n  1785: t0 = u64 [a0 + 0x58]\n  1788: a1 = u64 [a0 + 0x50]\n  1791: a2 = u64 [a0 + 0x48]\n  1794: a3 = a1 | t0\n  1797: a4 = a2 <u 0x1\n  1800: a4 = 0 if a3 != 0\n  1802: jump @78 if a4 == 0\n      : @57 (gas: 30)\n  1806: a4 = u64 [sp + 0x98]\n  1810: a0 = a4 + 0x160\n  1814: a3 = u64 [sp + 0x440]\n  1818: a4 = a0 <u a4\n  1821: s1 = a4\n  1823: s1 = 0 if a4 != 0\n  1825: t1 = a3 + 0x160\n  1829: a3 = t1 <u a3\n  1832: a5 = a2 + a3\n  1835: a2 = a5 <u a2\n  1838: a2 = a3 if a3 == 0\n  1841: a2 = a2 + a1\n  1844: a1 = a2 <u a1\n  1847: a3 = t0 + a1\n  1850: a1 = sp + 0x300\n  1854: u64 [a1 + 248] = 0\n  1858: u64 [sp + 0x98] = a0\n  1862: u64 [a1 + 0xe0] = a0\n  1866: u64 [sp + 0x90] = a4\n  1870: u64 [a1 + 0xe8] = a4\n  1874: a4 = sp + 0x400\n  1878: u64 [a4] = t1\n  1880: u64 [a1 + 0xf0] = s1\n  1884: u64 [a4 + 0x8] = a5\n  1887: u64 [a4 + 0x10] = a2\n  1890: a0 = sp + 0x420\n  1894: a1 = sp + 0x400\n  1898: a2 = sp + 0x3e0\n  1902: u64 [a4 + 0x18] = a3\n  1905: ra = 40, jump @159\n      : @58 [@dyn 20] (gas: 12)\n  1910: a1 = sp + 0x400\n  1914: a0 = u64 [a1 + 0x38]\n  1917: u64 [sp + 0x70] = a0\n  1920: a0 = u64 [a1 + 0x30]\n  1923: u64 [sp + 0x78] = a0\n  1926: a0 = u64 [a1 + 0x28]\n  1929: u64 [sp + 0x80] = a0\n  1933: a0 = u64 [a1 + 0x20]\n  1936: u64 [sp + 0x88] = a0\n  1940: a0 = sp + 0x3c0\n  1944: a1 = 0x180\n  1948: ra = 42, jump @22\n      : @59 [@dyn 21] (gas: 8)\n  1953: a3 = sp + 0x300\n  1957: a0 = u64 [a3 + 0xd8]\n  1961: a1 = u64 [a3 + 0xd0]\n  1965: a2 = u64 [a3 + 0xc8]\n  1969: a3 = a1 | a0\n  1972: a4 = a2 <u 0x1\n  1975: a4 = 0 if a3 != 0\n  1977: jump @79 if a4 == 0\n      : @60 (gas: 2)\n  1981: a3 = u64 [sp + 0x3c0]\n  1985: t0 = 44, jump @2237\n      : @61 [@dyn 22] (gas: 15)\n  1991: u64 [sp + 888] = 0\n  1995: a0 = u64 [sp + 0x98]\n  1999: u64 [sp + 0x360] = a0\n  2003: a0 = u64 [sp + 0x90]\n  2007: u64 [sp + 0x368] = a0\n  2011: u64 [sp + 0x380] = a4\n  2015: a4 = sp + 0x300\n  2019: u64 [a4 + 0x70] = s1\n  2022: u64 [a4 + 0x88] = a5\n  2026: u64 [a4 + 0x90] = a2\n  2030: a0 = sp + 0x3a0\n  2034: a1 = sp + 0x380\n  2038: a2 = sp + 0x360\n  2042: u64 [a4 + 0x98] = a3\n  2046: ra = 46, jump @159\n      : @62 [@dyn 23] (gas: 12)\n  2051: a1 = sp + 0x300\n  2055: a0 = u64 [a1 + 0xb8]\n  2059: u64 [sp + 0x50] = a0\n  2062: a0 = u64 [a1 + 0xb0]\n  2066: u64 [sp + 0x58] = a0\n  2069: a0 = u64 [a1 + 0xa8]\n  2073: u64 [sp + 0x60] = a0\n  2076: a0 = u64 [a1 + 0xa0]\n  2080: u64 [sp + 0x68] = a0\n  2083: a0 = sp + 0x340\n  2087: a1 = 0x1a0\n  2091: ra = 48, jump @22\n      : @63 [@dyn 24] (gas: 12)\n  2096: a1 = sp + 0x300\n  2100: a0 = u64 [a1 + 0x58]\n  2103: u64 [sp + 0x30] = a0\n  2106: a0 = u64 [a1 + 0x50]\n  2109: u64 [sp + 0x38] = a0\n  2112: a0 = u64 [a1 + 0x48]\n  2115: u64 [sp + 0x40] = a0\n  2118: a0 = u64 [a1 + 0x40]\n  2121: u64 [sp + 0x48] = a0\n  2124: a0 = sp + 0x320\n  2128: a1 = 0x1c0\n  2132: ra = 50, jump @22\n      : @64 [@dyn 25] (gas: 8)\n  2137: a3 = sp + 0x300\n  2141: a0 = u64 [a3 + 0x38]\n  2144: a1 = u64 [a3 + 0x30]\n  2147: a2 = u64 [a3 + 0x28]\n  2150: a3 = a1 | a0\n  2153: a4 = a2 <u 0x1\n  2156: a4 = 0 if a3 != 0\n  2158: jump @80 if a4 == 0\n      : @65 (gas: 2)\n  2162: a3 = u64 [sp + 0x320]\n  2166: t0 = 52, jump @2237\n      : @66 [@dyn 26] (gas: 15)\n  2172: u64 [sp + 728] = 0\n  2176: a0 = u64 [sp + 0x98]\n  2180: u64 [sp + 0x2c0] = a0\n  2184: a0 = u64 [sp + 0x90]\n  2188: u64 [sp + 0x2c8] = a0\n  2192: u64 [sp + 0x2e0] = a4\n  2196: a4 = sp + 0x200\n  2200: u64 [a4 + 0xd0] = s1\n  2204: u64 [a4 + 0xe8] = a5\n  2208: u64 [a4 + 0xf0] = a2\n  2212: a0 = sp + 0x300\n  2216: a1 = sp + 0x2e0\n  2220: a2 = sp + 0x2c0\n  2224: u64 [a4 + 0xf8] = a3\n  2228: ra = 54, jump @159\n      : @67 [@dyn 27] (gas: 12)\n  2233: a1 = sp + 0x300\n  2237: a0 = u64 [a1 + 0x18]\n  2240: u64 [sp + 0x10] = a0\n  2243: a0 = u64 [a1 + 0x10]\n  2246: u64 [sp + 0x18] = a0\n  2249: a0 = u64 [a1 + 0x8]\n  2252: u64 [sp + 0x20] = a0\n  2255: a0 = u64 [a1]\n  2257: u64 [sp + 0x28] = a0\n  2260: a0 = sp + 0x2a0\n  2264: a1 = 0x1e0\n  2268: ra = 56, jump @22\n      : @68 [@dyn 28] (gas: 8)\n  2273: a3 = sp + 0x200\n  2277: a0 = u64 [a3 + 0xb8]\n  2281: a1 = u64 [a3 + 0xb0]\n  2285: a2 = u64 [a3 + 0xa8]\n  2289: a3 = a1 | a0\n  2292: a4 = a2 <u 0x1\n  2295: a4 = 0 if a3 != 0\n  2297: jump @81 if a4 == 0\n      : @69 (gas: 2)\n  2301: a3 = u64 [sp + 0x2a0]\n  2305: t0 = 58, jump @2237\n      : @70 [@dyn 29] (gas: 15)\n  2311: u64 [sp + 600] = 0\n  2315: a0 = u64 [sp + 0x98]\n  2319: u64 [sp + 0x240] = a0\n  2323: a0 = u64 [sp + 0x90]\n  2327: u64 [sp + 0x248] = a0\n  2331: u64 [sp + 0x260] = a4\n  2335: a4 = sp + 0x200\n  2339: u64 [a4 + 0x50] = s1\n  2342: u64 [a4 + 0x68] = a5\n  2345: u64 [a4 + 0x70] = a2\n  2348: a0 = sp + 0x280\n  2352: a1 = sp + 0x260\n  2356: a2 = sp + 0x240\n  2360: u64 [a4 + 0x78] = a3\n  2363: ra = 60, jump @159\n      : @71 [@dyn 30] (gas: 47)\n  2368: s1 = sp + 0x200\n  2372: a0 = u64 [s1 + 0x80]\n  2376: a1 = u64 [s1 + 0x88]\n  2380: a2 = u64 [s1 + 0x90]\n  2384: a3 = u64 [s1 + 0x98]\n  2388: u64 [sp + 0x1b8] = a3\n  2392: u64 [sp + 0x1b0] = a2\n  2396: u64 [sp + 0x1a8] = a1\n  2400: u64 [sp + 0x1a0] = a0\n  2404: a0 = u64 [sp + 0x10]\n  2407: u64 [sp + 0x1d8] = a0\n  2411: a0 = u64 [sp + 0x18]\n  2414: u64 [sp + 0x1d0] = a0\n  2418: a0 = u64 [sp + 0x20]\n  2421: u64 [sp + 0x1c8] = a0\n  2425: a0 = u64 [sp + 0x28]\n  2428: u64 [sp + 0x1c0] = a0\n  2432: a0 = u64 [sp + 0x30]\n  2435: u64 [sp + 0x1f8] = a0\n  2439: a0 = u64 [sp + 0x38]\n  2442: u64 [sp + 0x1f0] = a0\n  2446: a0 = u64 [sp + 0x40]\n  2449: u64 [sp + 0x1e8] = a0\n  2453: a0 = u64 [sp + 0x48]\n  2456: u64 [sp + 0x1e0] = a0\n  2460: a0 = u64 [sp + 0x50]\n  2463: u64 [s1 + 0x18] = a0\n  2466: a0 = u64 [sp + 0x58]\n  2469: u64 [s1 + 0x10] = a0\n  2472: a0 = u64 [sp + 0x60]\n  2475: u64 [s1 + 0x8] = a0\n  2478: a0 = u64 [sp + 0x68]\n  2481: u64 [s1] = a0\n  2483: a0 = u64 [sp + 0x70]\n  2486: u64 [s1 + 0x38] = a0\n  2489: a0 = u64 [sp + 0x78]\n  2492: u64 [s1 + 0x30] = a0\n  2495: a0 = u64 [sp + 0x80]\n  2499: u64 [s1 + 0x28] = a0\n  2502: a0 = sp + 0x220\n  2506: a1 = sp + 0x200\n  2510: a2 = sp + 0x1e0\n  2514: a3 = sp + 0x1c0\n  2518: a4 = sp + 0x1a0\n  2522: a5 = u64 [sp + 0x88]\n  2526: u64 [s1 + 0x20] = a5\n  2529: ra = 62, jump @184\n      : @72 [@dyn 31] (gas: 3)\n  2534: a0 = sp + 0x180\n  2538: a1 = 0x40\n  2541: ra = 64, jump @22\n      : @73 [@dyn 32] (gas: 5)\n  2546: a0 = u64 [sp + 0x198]\n  2550: a1 = u64 [sp + 0x190]\n  2554: a2 = u64 [sp + 0x188]\n  2558: s1 = u64 [sp + 0x180]\n  2562: t0 = 66, jump @2243\n      : @74 [@dyn 33] (gas: 1)\n  2568: jump @82 if a0 == 0\n      : @75 (gas: 1)\n  2571: trap\n      : @76 (gas: 6)\n  2572: a1 = 0x20160\n  2577: i32 a1 = a1 + 0\n  2579: a0 = 0x1\n  2582: a2 = 0\n  2584: ecalli 16 // 'seal_return'\n  2586: jump @82\n      : @77 (gas: 6)\n  2588: a1 = 0x20160\n  2593: i32 a1 = a1 + 0\n  2595: a0 = 0x1\n  2598: a2 = 0\n  2600: ecalli 16 // 'seal_return'\n  2602: jump @82\n      : @78 (gas: 6)\n  2604: a1 = 0x20160\n  2609: i32 a1 = a1 + 0\n  2611: a0 = 0x1\n  2614: a2 = 0\n  2616: ecalli 16 // 'seal_return'\n  2618: jump @82\n      : @79 (gas: 6)\n  2620: a1 = 0x20160\n  2625: i32 a1 = a1 + 0\n  2627: a0 = 0x1\n  2630: a2 = 0\n  2632: ecalli 16 // 'seal_return'\n  2634: jump @82\n      : @80 (gas: 6)\n  2636: a1 = 0x20160\n  2641: i32 a1 = a1 + 0\n  2643: a0 = 0x1\n  2646: a2 = 0\n  2648: ecalli 16 // 'seal_return'\n  2650: jump @82\n      : @81 (gas: 6)\n  2652: a1 = 0x20160\n  2657: i32 a1 = a1 + 0\n  2659: a0 = 0x1\n  2662: a2 = 0\n  2664: ecalli 16 // 'seal_return'\n  2666: fallthrough\n      : @82 (gas: 3)\n  2667: a0 = s1\n  2669: a1 = 0\n  2671: ra = 68, jump @37\n      : @83 [@dyn 34] (gas: 7)\n  2676: i32 a0 = a0 + 0\n  2678: a1 = 0\n  2680: a2 = 0\n  2682: ecalli 3 // 'call_data_copy'\n  2684: a0 = sp + 0x160\n  2688: a1 = 0x80\n  2692: ra = 70, jump @22\n      : @84 [@dyn 35] (gas: 13)\n  2697: a0 = u64 [sp + 0x178]\n  2701: a4 = 0x30180\n  2706: u64 [sp + 0x98] = a4\n  2710: a1 = u64 [sp + 0x170]\n  2714: a2 = u64 [sp + 0x168]\n  2718: a3 = u64 [sp + 0x160]\n  2722: u64 [0x30198] = a0\n  2727: u64 [0x30190] = a1\n  2732: u64 [0x30188] = a2\n  2737: u64 [0x30180] = a3\n  2742: a0 = sp + 0x140\n  2746: a1 = 0xa0\n  2750: ra = 72, jump @22\n      : @85 [@dyn 36] (gas: 12)\n  2755: a0 = u64 [sp + 0x158]\n  2759: a1 = u64 [sp + 0x150]\n  2763: a2 = u64 [sp + 0x148]\n  2767: a3 = u64 [sp + 0x140]\n  2771: a4 = u64 [sp + 0x98]\n  2775: u64 [a4 + 0x38] = a0\n  2778: u64 [a4 + 0x30] = a1\n  2781: u64 [a4 + 0x28] = a2\n  2784: u64 [a4 + 0x20] = a3\n  2787: a0 = sp + 0x120\n  2791: a1 = 0xc0\n  2795: ra = 74, jump @22\n      : @86 [@dyn 37] (gas: 12)\n  2800: a0 = u64 [sp + 0x138]\n  2804: a1 = u64 [sp + 0x130]\n  2808: a2 = u64 [sp + 0x128]\n  2812: a3 = u64 [sp + 0x120]\n  2816: a4 = u64 [sp + 0x98]\n  2820: u64 [a4 + 0x58] = a0\n  2823: u64 [a4 + 0x50] = a1\n  2826: u64 [a4 + 0x48] = a2\n  2829: u64 [a4 + 0x40] = a3\n  2832: a0 = sp + 0x100\n  2836: a1 = 0xe0\n  2840: ra = 76, jump @22\n      : @87 [@dyn 38] (gas: 12)\n  2845: a0 = u64 [sp + 0x118]\n  2849: a1 = u64 [sp + 0x110]\n  2853: a2 = u64 [sp + 0x108]\n  2857: a3 = u64 [sp + 0x100]\n  2861: a4 = u64 [sp + 0x98]\n  2865: u64 [a4 + 0x78] = a0\n  2868: u64 [a4 + 0x70] = a1\n  2871: u64 [a4 + 0x68] = a2\n  2874: u64 [a4 + 0x60] = a3\n  2877: a0 = sp + 0xe0\n  2881: a1 = 0x100\n  2885: ra = 78, jump @22\n      : @88 [@dyn 39] (gas: 12)\n  2890: a0 = u64 [sp + 0xf8]\n  2894: a1 = u64 [sp + 0xf0]\n  2898: a2 = u64 [sp + 0xe8]\n  2902: a3 = u64 [sp + 0xe0]\n  2906: a4 = u64 [sp + 0x98]\n  2910: u64 [a4 + 0x98] = a0\n  2914: u64 [a4 + 0x90] = a1\n  2918: u64 [a4 + 0x88] = a2\n  2922: u64 [a4 + 0x80] = a3\n  2926: a0 = sp + 0xc0\n  2930: a1 = 0x120\n  2934: ra = 80, jump @22\n      : @89 [@dyn 40] (gas: 12)\n  2939: a0 = u64 [sp + 0xd8]\n  2943: a1 = u64 [sp + 0xd0]\n  2947: a2 = u64 [sp + 0xc8]\n  2951: a3 = u64 [sp + 0xc0]\n  2955: a4 = u64 [sp + 0x98]\n  2959: u64 [a4 + 0xb8] = a0\n  2963: u64 [a4 + 0xb0] = a1\n  2967: u64 [a4 + 0xa8] = a2\n  2971: u64 [a4 + 0xa0] = a3\n  2975: a0 = sp + 0xa0\n  2979: a1 = 0x140\n  2983: ra = 82, jump @22\n      : @90 [@dyn 41] (gas: 10)\n  2988: a0 = u64 [sp + 0xb8]\n  2992: a1 = u64 [sp + 0xb0]\n  2996: a2 = u64 [sp + 0xa8]\n  3000: a3 = u64 [sp + 0xa0]\n  3004: a4 = u64 [sp + 0x98]\n  3008: u64 [a4 + 0xd8] = a0\n  3012: u64 [a4 + 0xd0] = a1\n  3016: u64 [a4 + 0xc8] = a2\n  3020: u64 [a4 + 0xc0] = a3\n  3024: jump @20\n      : @91 (gas: 3)\n  3027: a0 = s1\n  3029: a1 = 0\n  3031: ra = 84, jump @37\n      : @92 [@dyn 42] (gas: 5)\n  3036: i32 a1 = a0 + 0\n  3038: a0 = 0\n  3040: a2 = 0\n  3042: ecalli 16 // 'seal_return'\n  3044: jump @82\n      : @93 [@dyn 43] (gas: 2)\n  3047: a0 = i32 [0x2014c]\n  3052: jump @137 if a0 <u 4\n      : @94 (gas: 5)\n  3057: i32 a0 = sp + 0x20\n  3060: a1 = 0\n  3062: ra = 0x58\n  3065: ecalli 4 // 'call_data_load'\n  3067: fallthrough\n      : @95 [@dyn 44] (gas: 2)\n  3068: a0 = i32 [sp + 0x3c]\n  3071: jump @129 if a0 == 2226133358\n      : @96 (gas: 2)\n  3079: a1 = 0xffffffff8e539e8c\n  3085: jump @136 if a0 == a1\n      : @97 (gas: 1)\n  3089: jump @133 if a0 == 2447224308\n      : @98 (gas: 2)\n  3097: a1 = 0xffffffff95d89b41\n  3103: jump @128 if a0 == a1\n      : @99 (gas: 2)\n  3107: a1 = 0xffffffff9ab24eb0\n  3113: jump @116 if a0 == a1\n      : @100 (gas: 1)\n  3117: jump @123 if a0 == 2835717307\n      : @101 (gas: 1)\n  3125: jump @117 if a0 == 3285034272\n      : @102 (gas: 1)\n  3133: jump @131 if a0 == 3714247998\n      : @103 (gas: 2)\n  3141: a1 = 0xfffffffff1127ed8\n  3147: jump @120 if a0 == a1\n      : @104 (gas: 2)\n  3151: a1 = 0x6fdde03\n  3157: jump @118 if a0 == a1\n      : @105 (gas: 2)\n  3161: a1 = 0x95ea7b3\n  3167: jump @134 if a0 == a1\n      : @106 (gas: 1)\n  3171: jump @121 if a0 == 404098525\n      : @107 (gas: 2)\n  3179: a1 = 0x23b872dd\n  3185: jump @135 if a0 == a1\n      : @108 (gas: 1)\n  3189: jump @125 if a0 == 826074471\n      : @109 (gas: 2)\n  3197: a1 = 0x3a46b1a8\n  3203: jump @132 if a0 == a1\n      : @110 (gas: 1)\n  3207: jump @130 if a0 == 1274402793\n      : @111 (gas: 2)\n  3215: a1 = 0x587cde1e\n  3221: jump @119 if a0 == a1\n      : @112 (gas: 1)\n  3224: jump @124 if a0 == 1545185628\n      : @113 (gas: 1)\n  3232: jump @122 if a0 == 1875902277\n      : @114 (gas: 1)\n  3240: jump @126 if a0 != 1889567281\n      : @115 (gas: 1)\n  3248: ra = 90, jump @1219\n      : @116 [@dyn 45] (gas: 1)\n  3253: ra = 92, jump @1429\n      : @117 [@dyn 46] (gas: 16)\n  3259: ra = 0x5e\n  3262: sp = sp + 0xfffffffffffffaa0\n  3266: a0 = sp + 0x500\n  3270: u64 [a0 + 0x58] = ra\n  3273: u64 [a0 + 0x50] = s0\n  3276: u64 [a0 + 0x48] = s1\n  3279: s0 = sp + 0x560\n  3283: sp = sp & 0xffffffffffffffe0\n  3286: s1 = sp\n  3288: u64 [s1 + 1272] = 0\n  3292: u64 [s1 + 1264] = 0\n  3296: u64 [s1 + 1256] = 0\n  3300: u64 [s1 + 1248] = 0\n  3304: i32 a0 = s1 + 0x4e0\n  3308: ecalli 19 // 'value_transferred'\n  3310: jump @1477\n      : @118 [@dyn 47] (gas: 3)\n  3314: ra = 0x60\n  3317: t0 = 0x442\n  3321: jump @2255\n      : @119 [@dyn 48] (gas: 3)\n  3325: ra = 0x62\n  3328: t0 = 0x590\n  3332: jump @2291\n      : @120 [@dyn 49] (gas: 11)\n  3336: ra = 0x64\n  3339: sp = sp + 0xfffffffffffffce0\n  3343: a0 = sp + 0x300\n  3347: u64 [a0 + 0x18] = ra\n  3350: u64 [a0 + 0x10] = s0\n  3353: u64 [a0 + 0x8] = s1\n  3356: s0 = sp + 0x320\n  3360: sp = sp & 0xffffffffffffffe0\n  3363: s1 = sp\n  3365: t0 = 0x770\n  3369: jump @2286\n      : @121 [@dyn 50] (gas: 1)\n  3373: ra = 102, jump @998\n      : @122 [@dyn 51] (gas: 15)\n  3378: ra = 0x68\n  3381: sp = sp + 0xfffffffffffffe40\n  3385: u64 [sp + 0x1b8] = ra\n  3389: u64 [sp + 0x1b0] = s0\n  3393: u64 [sp + 0x1a8] = s1\n  3397: s0 = sp + 0x1c0\n  3401: sp = sp & 0xffffffffffffffe0\n  3404: s1 = sp\n  3406: u64 [s1 + 376] = 0\n  3410: u64 [s1 + 368] = 0\n  3414: u64 [s1 + 360] = 0\n  3418: u64 [s1 + 352] = 0\n  3422: i32 a0 = s1 + 0x160\n  3426: ecalli 19 // 'value_transferred'\n  3428: jump @1190\n      : @123 [@dyn 52] (gas: 1)\n  3431: ra = 106, jump @1454\n      : @124 [@dyn 53] (gas: 1)\n  3437: ra = 108, jump @1180\n      : @125 [@dyn 54] (gas: 1)\n  3442: ra = 110, jump @1059\n      : @126 [@dyn 55] (gas: 2)\n  3447: a1 = 0x7ecebe00\n  3453: jump @137 if a0 != a1\n      : @127 (gas: 3)\n  3457: ra = 0x70\n  3460: t0 = 0x5e8\n  3464: jump @2291\n      : @128 [@dyn 56] (gas: 3)\n  3468: ra = 0x72\n  3471: t0 = 0x68a\n  3475: jump @2255\n      : @129 [@dyn 57] (gas: 1)\n  3479: ra = 116, jump @1262\n      : @130 [@dyn 58] (gas: 1)\n  3484: ra = 118, jump @1127\n      : @131 [@dyn 59] (gas: 15)\n  3489: ra = 0x78\n  3492: sp = sp + 0xfffffffffffffe20\n  3496: u64 [sp + 0x1d8] = ra\n  3500: u64 [sp + 0x1d0] = s0\n  3504: u64 [sp + 0x1c8] = s1\n  3508: s0 = sp + 0x1e0\n  3512: sp = sp & 0xffffffffffffffe0\n  3515: s1 = sp\n  3517: u64 [s1 + 408] = 0\n  3521: u64 [s1 + 400] = 0\n  3525: u64 [s1 + 392] = 0\n  3529: u64 [s1 + 384] = 0\n  3533: i32 a0 = s1 + 0x180\n  3537: ecalli 19 // 'value_transferred'\n  3539: jump @1532\n      : @132 [@dyn 60] (gas: 1)\n  3543: ra = 122, jump @1073\n      : @133 [@dyn 61] (gas: 1)\n  3548: ra = 124, jump @1361\n      : @134 [@dyn 62] (gas: 11)\n  3553: ra = 0x7e\n  3556: sp = sp + 0xfffffffffffffca0\n  3560: a0 = sp + 0x300\n  3564: u64 [a0 + 0x58] = ra\n  3567: u64 [a0 + 0x50] = s0\n  3570: u64 [a0 + 0x48] = s1\n  3573: s0 = sp + 0x360\n  3577: sp = sp & 0xffffffffffffffe0\n  3580: s1 = sp\n  3582: t0 = 0x4a4\n  3586: jump @2368\n      : @135 [@dyn 63] (gas: 3)\n  3590: ra = 0x80\n  3594: t0 = 0x4f0\n  3598: jump @2343\n      : @136 [@dyn 64] (gas: 3)\n  3602: ra = 0x82\n  3606: t0 = 0x640\n  3610: jump @2343\n      : @137 [@dyn 65] (gas: 8)\n  3614: a1 = 0x20160\n  3619: i32 a1 = a1 + 0\n  3621: a0 = 0x1\n  3624: a2 = 0\n  3626: ra = 0x84\n  3630: ecalli 16 // 'seal_return'\n  3632: t0 = 0x86\n  3636: jump @2232\n      : @138 [@dyn 66] (gas: 1)\n  3640: t0 = 134, jump @2232\n      : @139 [@dyn 67] (gas: 1)\n  3647: ra = 136, jump @24\n      : @140 [@dyn 68] (gas: 7)\n  3653: u64 [sp + 24] = 0\n  3656: u64 [sp + 16] = 0\n  3659: u64 [sp + 0] = 0x41\n  3662: a0 = 0x4\n  3665: a1 = sp\n  3667: u64 [sp + 8] = 0\n  3670: ra = 138, jump @24\n      : @141 [@dyn 69] (gas: 2)\n  3676: a1 = i32 [0x20150]\n  3681: jump @143 if a1 >u 63\n      : @142 (gas: 2)\n  3685: u32 [0x20150] = 0x40\n  3691: fallthrough\n      : @143 (gas: 8)\n  3692: a1 = 0x20160\n  3697: i32 a1 = a1 + 0\n  3699: a0 = 0x1\n  3702: a2 = 0x24\n  3705: ra = 0x8c\n  3709: ecalli 16 // 'seal_return'\n  3711: t0 = 0x8e\n  3715: jump @2371\n      : @144 [@dyn 70] (gas: 1)\n  3719: t0 = 142, jump @2371\n      : @145 [@dyn 71] (gas: 18)\n  3726: a1 = u64 [a0]\n  3728: a2 = u64 [a0 + 0x18]\n  3731: a3 = u64 [a0 + 0x8]\n  3734: a4 = u64 [a0 + 0x10]\n  3737: a5 = a1 + 0x1f\n  3740: a1 = a5 <u a1\n  3743: a0 = a3 + a1\n  3746: a3 = a0 <u a3\n  3749: a3 = a1 if a1 == 0\n  3752: a1 = a4 + a3\n  3755: a3 = a1 <u a4\n  3758: a2 = a2 + a3\n  3761: a3 = a5 & 0xffffffffffffffe0\n  3764: a4 = a1 | a2\n  3767: a5 = a3 <u 0xfffffffffffffea0\n  3771: a5 = 0 if a0 != 0\n  3773: a5 = 0 if a4 != 0\n  3775: jump @148 if a5 == 0\n      : @146 (gas: 15)\n  3778: a4 = a3 + 0x160\n  3782: a3 = a4 <u a3\n  3785: a5 = a0 + a3\n  3788: a0 = a5 <u a0\n  3791: a0 = a3 if a3 == 0\n  3794: a0 = a0 + a1\n  3797: a1 = a0 <u a1\n  3800: a2 = a2 + a1\n  3803: u64 [sp] = a4\n  3805: u64 [sp + 0x8] = a5\n  3808: u64 [sp + 0x10] = a0\n  3811: a0 = 0x40\n  3814: a1 = sp\n  3816: u64 [sp + 0x18] = a2\n  3819: ra = 144, jump @24\n      : @147 [@dyn 72] (gas: 5)\n  3825: sp = s0 + 0xffffffffffffffd0\n  3828: ra = u64 [sp + 0x28]\n  3831: s0 = u64 [sp + 0x20]\n  3834: sp = sp + 0x30\n  3837: ret\n      : @148 (gas: 3)\n  3839: ra = 0x92\n  3843: t0 = 0x86\n  3847: jump @2232\n      : @149 [@dyn 73] (gas: 46)\n  3851: sp = sp + 0xffffffffffffffb0\n  3854: u64 [sp + 0x48] = ra\n  3857: u64 [sp + 0x40] = s0\n  3860: u64 [sp + 0x38] = s1\n  3863: s0 = sp + 0x50\n  3866: sp = sp & 0xfffffffffffffff0\n  3869: t0 = a0\n  3871: a2 = u64 [a1]\n  3873: t2 = u64 [a0 + 0x8]\n  3876: a5 = u64 [a1 + 0x8]\n  3879: t1 = u64 [a0]\n  3881: a3 = a2 + 0x1f\n  3884: ra = a3 <u a2\n  3887: a2 = a5 + ra\n  3890: a3 = a3 & 0xffffffffffffffe0\n  3893: u64 [sp + 0x8] = t1\n  3896: t1 = t1 + a3\n  3899: a4 = t1 <u a3\n  3902: a3 = a2 + t2\n  3905: a3 = a3 + a4\n  3908: s1 = a3 ^ a2\n  3911: a0 = a3 <u a2\n  3914: a0 = a4 if s1 == 0\n  3917: a4 = u64 [t0 + 0x18]\n  3920: a5 = a2 <u a5\n  3923: s1 = u64 [a1 + 0x10]\n  3926: t0 = u64 [t0 + 0x10]\n  3929: a1 = u64 [a1 + 0x18]\n  3932: a5 = ra if ra == 0\n  3935: a5 = a5 + s1\n  3938: s1 = a5 <u s1\n  3941: a2 = a5 + t0\n  3944: a0 = a0 + a2\n  3947: a5 = a2 <u a5\n  3950: a2 = a0 <u a2\n  3953: a1 = a1 + a4\n  3956: a1 = a1 + s1\n  3959: a1 = a1 + a5\n  3962: a5 = a1 + a2\n  3965: a1 = a5 >u 0\n  3967: a2 = a0 >u 0\n  3969: a2 = a1 if a5 != 0\n  3972: a1 = a0 | a5\n  3975: s1 = a3 >u 0\n  3977: s1 = a2 if a1 != 0\n  3980: jump @153 if s1 != 0\n      : @150 (gas: 13)\n  3983: a1 = u64 [sp + 0x8]\n  3986: a1 = t1 <u a1\n  3989: a2 = a3 ^ t2\n  3992: s1 = a3 <u t2\n  3995: s1 = a1 if a2 == 0\n  3998: a1 = a0 <u t0\n  4001: a2 = a5 ^ a4\n  4004: a4 = a5 <u a4\n  4007: a4 = a1 if a2 == 0\n  4010: a1 = a0 ^ t0\n  4013: a1 = a1 | a2\n  4016: a4 = s1 if a1 == 0\n  4019: jump @153 if a4 != 0\n      : @151 (gas: 7)\n  4022: u64 [sp + 0x10] = t1\n  4025: u64 [sp + 0x18] = a3\n  4028: u64 [sp + 0x20] = a0\n  4031: a0 = 0x40\n  4034: a1 = sp + 0x10\n  4037: u64 [sp + 0x28] = a5\n  4040: ra = 148, jump @24\n      : @152 [@dyn 74] (gas: 6)\n  4046: sp = s0 + 0xffffffffffffffb0\n  4049: ra = u64 [sp + 0x48]\n  4052: s0 = u64 [sp + 0x40]\n  4055: s1 = u64 [sp + 0x38]\n  4058: sp = sp + 0x50\n  4061: ret\n      : @153 (gas: 3)\n  4063: ra = 0x96\n  4067: t0 = 0x86\n  4071: jump @2232\n      : @154 [@dyn 75] (gas: 1)\n  4075: t0 = 152, jump @2372\n      : @155 [@dyn 76] (gas: 4)\n  4082: s1 = a0\n  4084: a0 = sp + 0x60\n  4087: a1 = 0x40\n  4090: ra = 154, jump @22\n      : @156 [@dyn 77] (gas: 19)\n  4096: a2 = u64 [sp + 0x60]\n  4099: u64 [sp] = a2\n  4101: a0 = u64 [sp + 0x68]\n  4104: u64 [sp + 0x18] = a0\n  4107: a1 = u64 [sp + 0x70]\n  4110: u64 [sp + 0x10] = a1\n  4113: a3 = u64 [sp + 0x78]\n  4116: u64 [sp + 0x8] = a3\n  4119: u64 [sp + 56] = 0\n  4122: u64 [sp + 48] = 0\n  4125: u64 [sp + 40] = 0\n  4128: u64 [sp + 32] = 0x40\n  4132: u64 [sp + 0x58] = a3\n  4135: u64 [sp + 0x50] = a1\n  4138: u64 [sp + 0x48] = a0\n  4141: a0 = sp + 0x40\n  4144: a1 = sp + 0x20\n  4147: u64 [sp + 0x40] = a2\n  4150: ra = 156, jump @149\n      : @157 [@dyn 78] (gas: 9)\n  4156: a0 = u64 [sp + 0x8]\n  4159: u64 [s1 + 0x18] = a0\n  4162: a0 = u64 [sp + 0x10]\n  4165: u64 [s1 + 0x10] = a0\n  4168: a0 = u64 [sp + 0x18]\n  4171: u64 [s1 + 0x8] = a0\n  4174: a0 = u64 [sp]\n  4176: u64 [s1] = a0\n  4178: t0 = 158, jump @2309\n      : @158 [@dyn 79] (gas: 1)\n  4185: ret\n      : @159 (gas: 37)\n  4187: sp = sp + 0xfffffffffffffe90\n  4191: u64 [sp + 0x168] = ra\n  4195: u64 [sp + 0x160] = s0\n  4199: u64 [sp + 0x158] = s1\n  4203: s0 = sp + 0x170\n  4207: sp = sp & 0xfffffffffffffff0\n  4210: t2 = u64 [a1]\n  4212: a4 = u64 [a2 + 0x8]\n  4215: ra = u64 [a1 + 0x8]\n  4218: s1 = u64 [a2]\n  4220: a3 = t2 + 0x1f\n  4223: t0 = a3 <u t2\n  4226: a5 = ra + t0\n  4229: u64 [sp + 0x20] = s1\n  4232: t1 = a3 <u s1\n  4235: a3 = a5 ^ a4\n  4238: u64 [sp + 0x28] = a4\n  4241: a4 = a5 <u a4\n  4244: a4 = t1 if a3 == 0\n  4247: s1 = u64 [a1 + 0x10]\n  4250: a3 = a5 <u ra\n  4253: a3 = t0 if t0 == 0\n  4256: a5 = u64 [a2 + 0x18]\n  4259: t0 = u64 [a1 + 0x18]\n  4262: t1 = u64 [a2 + 0x10]\n  4265: a3 = a3 + s1\n  4268: a1 = a3 <u s1\n  4271: a1 = a1 + t0\n  4274: a2 = a1 ^ a5\n  4277: u64 [sp + 0x10] = a5\n  4280: a1 = a1 <s a5\n  4283: a5 = a3 <u t1\n  4286: a1 = a5 if a2 == 0\n  4289: a3 = a3 ^ t1\n  4292: a2 = a2 | a3\n  4295: a4 = a1 if a2 != 0\n  4298: jump @181 if a4 == 0\n      : @160 (gas: 13)\n  4302: u64 [sp + 0x8] = a0\n  4305: u64 [sp + 0x18] = t1\n  4308: a0 = t2 | s1\n  4311: u64 [sp + 0x38] = ra\n  4314: u64 [sp + 0x30] = t0\n  4317: a1 = ra | t0\n  4320: a0 = a0 | a1\n  4323: a0 = a0 >> 0x20\n  4326: u64 [sp + 0x50] = s1\n  4329: a1 = a1 | s1\n  4332: a1 = a1 << 0x20\n  4335: a0 = a0 | a1\n  4338: jump @179 if a0 != 0\n      : @161 (gas: 4)\n  4342: a0 = sp + 0x130\n  4346: u64 [sp + 0x48] = t2\n  4349: a1 = t2\n  4351: ra = 160, jump @22\n      : @162 [@dyn 80] (gas: 10)\n  4357: a0 = u64 [sp + 0x148]\n  4361: a1 = u64 [sp + 0x140]\n  4365: a2 = u64 [sp + 0x138]\n  4369: u64 [sp + 0x80] = a0\n  4373: u64 [sp + 0x78] = a1\n  4376: a0 = a0 | a1\n  4379: u64 [sp + 0x88] = a2\n  4383: a1 = a2 <u 0x1\n  4386: a1 = 0 if a0 != 0\n  4388: jump @180 if a1 == 0\n      : @163 (gas: 4)\n  4392: s1 = u64 [sp + 0x130]\n  4396: a0 = sp + 0x110\n  4400: a1 = 0x40\n  4403: ra = 162, jump @22\n      : @164 [@dyn 81] (gas: 31)\n  4409: t0 = u64 [sp + 0x128]\n  4413: a5 = u64 [sp + 0x120]\n  4417: u64 [sp + 0x68] = a5\n  4420: t2 = u64 [sp + 0x118]\n  4424: u64 [sp + 0x60] = t2\n  4427: t1 = u64 [sp + 0x110]\n  4431: u64 [sp + 0x70] = t1\n  4434: a0 = s1 + 0x1f\n  4437: u64 [sp + 0x40] = s1\n  4440: a1 = a0 <u s1\n  4443: a2 = u64 [sp + 0x88]\n  4447: a1 = a1 + a2\n  4450: a1 = a1 & 0x1\n  4453: a0 = a0 & 0xffffffffffffffe0\n  4456: a2 = a0 + 0x20\n  4459: a0 = a2 <u a0\n  4462: a3 = a1 + a0\n  4465: a4 = a3 <u a1\n  4468: a4 = a0 if a0 == 0\n  4471: u64 [sp + 232] = 0\n  4475: u64 [sp + 0xd0] = a2\n  4479: s1 = t0\n  4481: u64 [sp + 0x108] = t0\n  4485: u64 [sp + 0x100] = a5\n  4489: u64 [sp + 0xf8] = t2\n  4493: u64 [sp + 0xf0] = t1\n  4497: u64 [sp + 0xd8] = a3\n  4501: a0 = sp + 0xf0\n  4505: a1 = sp + 0xd0\n  4509: u64 [sp + 0xe0] = a4\n  4513: ra = 164, jump @149\n      : @165 [@dyn 82] (gas: 8)\n  4519: u64 [sp + 0x58] = s1\n  4522: a1 = u64 [sp + 0x60]\n  4525: a0 = a1 | s1\n  4528: a1 = u64 [sp + 0x70]\n  4531: a2 = a1\n  4533: a3 = u64 [sp + 0x68]\n  4536: a1 = a1 | a3\n  4539: t0 = 166, jump @2313\n      : @166 [@dyn 83] (gas: 1)\n  4546: jump @179 if a0 != 0\n      : @167 (gas: 11)\n  4550: s1 = u64 [sp + 0x40]\n  4553: u64 [sp + 0xb0] = s1\n  4557: a0 = u64 [sp + 0x88]\n  4561: u64 [sp + 0xb8] = a0\n  4565: a0 = u64 [sp + 0x78]\n  4568: u64 [sp + 0xc0] = a0\n  4572: a1 = sp + 0xb0\n  4576: a0 = u64 [sp + 0x80]\n  4580: u64 [sp + 0xc8] = a0\n  4584: a0 = a2\n  4586: ra = 168, jump @24\n      : @168 [@dyn 84] (gas: 46)\n  4592: a0 = u64 [sp + 0x48]\n  4595: a3 = a0 + s1\n  4598: a2 = a3 <u a0\n  4601: ra = u64 [sp + 0x38]\n  4604: a0 = u64 [sp + 0x88]\n  4608: a0 = a0 + ra\n  4611: a0 = a0 + a2\n  4614: a4 = a0 ^ ra\n  4617: a1 = a0 <u ra\n  4620: a1 = a2 if a4 == 0\n  4623: t1 = u64 [sp + 0x50]\n  4626: a2 = u64 [sp + 0x78]\n  4629: a2 = a2 + t1\n  4632: a5 = a3 + 0x20\n  4635: t0 = a5 <u a3\n  4638: a4 = a0 + t0\n  4641: a3 = u64 [sp + 0x20]\n  4644: a5 = a3 <u a5\n  4647: t2 = u64 [sp + 0x70]\n  4650: a3 = u64 [sp + 0x28]\n  4653: s1 = a4 ^ a3\n  4656: a3 = a3 <u a4\n  4659: a5 = a3 if s1 != 0\n  4662: a3 = a2 <u t1\n  4665: t1 = u64 [sp + 0x30]\n  4668: s1 = u64 [sp + 0x80]\n  4672: s1 = s1 + t1\n  4675: a3 = a3 + s1\n  4678: a1 = a1 + a2\n  4681: a2 = a1 <u a2\n  4684: a2 = a2 + a3\n  4687: a0 = a4 <u a0\n  4690: a0 = t0 if t0 == 0\n  4693: a0 = a0 + a1\n  4696: a1 = a0 <u a1\n  4699: a1 = a1 + a2\n  4702: a3 = u64 [sp + 0x10]\n  4705: a2 = a1 ^ a3\n  4708: a1 = a3 <u a1\n  4711: a4 = u64 [sp + 0x18]\n  4714: a3 = a4 <u a0\n  4717: a1 = a3 if a2 == 0\n  4720: a0 = a0 ^ a4\n  4723: a0 = a0 | a2\n  4726: a5 = a1 if a0 != 0\n  4729: jump @182 if a5 != 0\n      : @169 (gas: 9)\n  4733: a0 = u64 [sp + 0x68]\n  4736: a1 = u64 [sp + 0x58]\n  4739: a1 = a1 | a0\n  4742: a0 = 0xffffffe0\n  4752: a2 = t2 <u a0\n  4755: a3 = u64 [sp + 0x60]\n  4758: a2 = 0 if a3 != 0\n  4760: a2 = 0 if a1 != 0\n  4762: jump @179 if a2 == 0\n      : @170 (gas: 10)\n  4766: a1 = u64 [sp + 0x50]\n  4769: a1 = a1 | t1\n  4772: s1 = u64 [sp + 0x48]\n  4775: a0 = s1 <u a0\n  4778: a0 = 0 if ra != 0\n  4780: a0 = 0 if a1 != 0\n  4782: a2 = u64 [sp + 0x80]\n  4786: a3 = u64 [sp + 0x78]\n  4789: a4 = u64 [sp + 0x88]\n  4793: jump @179 if a0 == 0\n      : @171 (gas: 9)\n  4797: a1 = u64 [sp + 0x40]\n  4800: a0 = a1 | a3\n  4803: a5 = a4 | a2\n  4806: a0 = a0 | a5\n  4809: a0 = a0 >> 0x20\n  4812: a5 = a5 | a3\n  4815: a5 = a5 << 0x20\n  4818: a0 = a0 | a5\n  4821: jump @179 if a0 != 0\n      : @172 (gas: 5)\n  4825: i32 a0 = t2 + 0x20\n  4828: i32 a2 = s1 + 0x20\n  4831: u64 [sp + 0x50] = a2\n  4834: s1 = a1\n  4836: ra = 170, jump @37\n      : @173 [@dyn 85] (gas: 4)\n  4842: u64 [sp + 0x48] = a0\n  4845: a0 = u64 [sp + 0x50]\n  4848: a1 = s1\n  4850: ra = 172, jump @37\n      : @174 [@dyn 86] (gas: 4)\n  4856: a1 = a0\n  4858: a0 = u64 [sp + 0x48]\n  4861: a2 = s1\n  4863: ra = 174, jump @0\n      : @175 [@dyn 87] (gas: 22)\n  4869: a1 = u64 [sp + 0x70]\n  4872: a0 = a1 + s1\n  4875: a1 = a0 <u a1\n  4878: s1 = u64 [sp + 0x60]\n  4881: a2 = u64 [sp + 0x88]\n  4885: a2 = a2 + s1\n  4888: a2 = a2 + a1\n  4891: a3 = a2 ^ s1\n  4894: a4 = a2 <u s1\n  4897: a4 = a1 if a3 == 0\n  4900: a5 = u64 [sp + 0x68]\n  4903: a1 = u64 [sp + 0x78]\n  4906: a1 = a1 + a5\n  4909: a4 = a4 + a1\n  4912: t0 = a4 <u a1\n  4915: a1 = a1 <u a5\n  4918: a5 = u64 [sp + 0x80]\n  4922: a3 = u64 [sp + 0x58]\n  4925: a5 = a5 + a3\n  4928: a1 = a1 + a5\n  4931: a1 = a1 + t0\n  4934: t0 = 176, jump @2353\n      : @176 [@dyn 88] (gas: 1)\n  4941: jump @179 if a3 == 0\n      : @177 (gas: 7)\n  4944: i32 a0 = a0 + 0x20\n  4947: u64 [sp + 168] = 0\n  4951: u64 [sp + 160] = 0\n  4955: u64 [sp + 152] = 0\n  4959: a1 = sp + 0x90\n  4963: u64 [sp + 144] = 0\n  4967: ra = 178, jump @24\n      : @178 [@dyn 89] (gas: 14)\n  4973: a0 = u64 [sp + 0x8]\n  4976: a1 = u64 [sp + 0x58]\n  4979: u64 [a0 + 0x18] = a1\n  4982: a1 = u64 [sp + 0x68]\n  4985: u64 [a0 + 0x10] = a1\n  4988: u64 [a0 + 0x8] = s1\n  4991: a1 = u64 [sp + 0x70]\n  4994: u64 [a0] = a1\n  4996: sp = s0 + 0xfffffffffffffe90\n  5000: ra = u64 [sp + 0x168]\n  5004: s0 = u64 [sp + 0x160]\n  5008: s1 = u64 [sp + 0x158]\n  5012: sp = sp + 0x170\n  5016: ret\n      : @179 (gas: 1)\n  5018: trap\n      : @180 (gas: 3)\n  5019: ra = 0xb4\n  5023: t0 = 0x86\n  5027: jump @2232\n      : @181 [@dyn 90] (gas: 2)\n  5031: a1 = 0x20160\n  5036: jump @183\n      : @182 (gas: 2)\n  5038: a1 = 0x20160\n  5043: fallthrough\n      : @183 (gas: 6)\n  5044: i32 a1 = a1 + 0\n  5046: a0 = 0x1\n  5049: a2 = 0\n  5051: ra = 0xb6\n  5055: ecalli 16 // 'seal_return'\n  5057: fallthrough\n      : @184 [@dyn 91] (gas: 23)\n  5058: sp = sp + 0xfffffffffffffa40\n  5062: a5 = sp + 0x500\n  5066: u64 [a5 + 0xb8] = ra\n  5070: u64 [a5 + 0xb0] = s0\n  5074: u64 [a5 + 0xa8] = s1\n  5078: s0 = sp + 0x5c0\n  5082: sp = sp & 0xffffffffffffffe0\n  5085: s1 = sp\n  5087: t1 = u64 [a0 + 0x10]\n  5090: t2 = u64 [a0 + 0x18]\n  5093: a5 = u64 [a0 + 0x8]\n  5096: t0 = u64 [a0]\n  5098: u64 [s1 + 0xc8] = a5\n  5102: u64 [s1 + 0xb8] = t2\n  5106: a0 = a5 | t2\n  5109: a5 = t0 | t1\n  5112: a5 = a5 | a0\n  5115: a5 = a5 >> 0x20\n  5118: u64 [s1 + 0xc0] = t1\n  5122: a0 = a0 | t1\n  5125: a0 = a0 << 0x20\n  5128: a0 = a0 | a5\n  5131: jump @253 if a0 != 0\n      : @185 (gas: 36)\n  5135: a0 = u64 [a4 + 0x18]\n  5138: u64 [s1 + 0x58] = a0\n  5141: a0 = u64 [a4 + 0x10]\n  5144: u64 [s1 + 0x50] = a0\n  5147: a0 = u64 [a4 + 0x8]\n  5150: u64 [s1 + 0x60] = a0\n  5153: a0 = u64 [a4]\n  5155: u64 [s1 + 0x68] = a0\n  5158: a0 = u64 [a3 + 0x18]\n  5161: u64 [s1 + 0x78] = a0\n  5164: a0 = u64 [a3 + 0x10]\n  5167: u64 [s1 + 0x70] = a0\n  5170: a0 = u64 [a3 + 0x8]\n  5173: u64 [s1 + 0x80] = a0\n  5177: a0 = u64 [a3]\n  5179: u64 [s1 + 0x88] = a0\n  5183: a0 = u64 [a2 + 0x18]\n  5186: u64 [s1 + 0x10] = a0\n  5189: a0 = u64 [a2 + 0x10]\n  5192: u64 [s1 + 0x18] = a0\n  5195: a0 = u64 [a2 + 0x8]\n  5198: u64 [s1 + 0x20] = a0\n  5201: a0 = u64 [a2]\n  5203: u64 [s1 + 0x28] = a0\n  5206: a0 = u64 [a1 + 0x18]\n  5209: u64 [s1 + 0x48] = a0\n  5212: a0 = u64 [a1 + 0x10]\n  5215: u64 [s1 + 0x40] = a0\n  5218: a0 = u64 [a1 + 0x8]\n  5221: u64 [s1 + 0x38] = a0\n  5224: a0 = u64 [a1]\n  5226: u64 [s1 + 0x30] = a0\n  5229: a0 = s1 + 0x480\n  5233: u64 [s1 + 0xd0] = t0\n  5237: a1 = t0\n  5239: ra = 184, jump @22\n      : @186 [@dyn 92] (gas: 12)\n  5245: a3 = s1 + 0x400\n  5249: a1 = u64 [a3 + 0x98]\n  5253: a0 = u64 [a3 + 0x90]\n  5257: a2 = u64 [a3 + 0x88]\n  5261: u64 [s1 + 0x98] = a0\n  5265: u64 [s1 + 0x90] = a1\n  5269: a1 = a1 | a0\n  5272: u64 [s1 + 0xa0] = a2\n  5276: a0 = a2 <u 0x1\n  5279: u64 [s1 + 0x138] = a1\n  5283: a0 = 0 if a1 != 0\n  5285: jump @254 if a0 == 0\n      : @187 (gas: 11)\n  5289: a0 = u64 [s1 + 0x480]\n  5293: u64 [s1 + 0xa8] = a0\n  5297: u64 [s1 + 1208] = 0\n  5301: u64 [s1 + 1200] = 0\n  5305: u64 [s1 + 1192] = 0\n  5309: u64 [s1 + 1184] = 0x3\n  5314: a0 = s1 + 0x460\n  5318: a1 = s1 + 0x4a0\n  5322: ra = 0xba\n  5326: t0 = 0x6\n  5329: jump @2259\n      : @188 [@dyn 93] (gas: 11)\n  5333: a2 = u64 [s1 + 0x460]\n  5337: a0 = u64 [s1 + 0x468]\n  5341: a1 = u64 [s1 + 0x470]\n  5345: a3 = u64 [s1 + 0x478]\n  5349: u64 [s1 + 0x438] = a3\n  5353: u64 [s1 + 0x430] = a1\n  5357: u64 [s1 + 0x428] = a0\n  5361: a0 = s1 + 0x440\n  5365: a1 = s1 + 0x420\n  5369: u64 [s1 + 0x420] = a2\n  5373: ra = 188, jump @255\n      : @189 [@dyn 94] (gas: 22)\n  5379: a5 = s1 + 0x400\n  5383: a2 = u64 [a5 + 0x40]\n  5386: a0 = u64 [a5 + 0x48]\n  5389: a1 = u64 [a5 + 0x50]\n  5392: a3 = u64 [a5 + 0x58]\n  5395: a4 = u64 [s1 + 0x90]\n  5399: u64 [s1 + 0x3f8] = a4\n  5403: a4 = u64 [s1 + 0x98]\n  5407: u64 [s1 + 0x3f0] = a4\n  5411: a4 = u64 [s1 + 0xa0]\n  5415: u64 [s1 + 0x3e8] = a4\n  5419: a4 = u64 [s1 + 0xa8]\n  5423: u64 [s1 + 0x3e0] = a4\n  5427: u64 [a5 + 0x18] = a3\n  5430: u64 [a5 + 0x10] = a1\n  5433: u64 [a5 + 0x8] = a0\n  5436: a0 = s1 + 0x400\n  5440: a1 = s1 + 0x3e0\n  5444: u64 [a5] = a2\n  5446: ra = 0xbe\n  5450: t0 = 0x12c\n  5454: jump @2331\n      : @190 [@dyn 95] (gas: 4)\n  5458: a5 = u64 [s1 + 0x98]\n  5462: a3 = u64 [s1 + 0xa8]\n  5466: a4 = u64 [s1 + 0xa0]\n  5470: t0 = 192, jump @2357\n      : @191 [@dyn 96] (gas: 6)\n  5477: t1 = u64 [s1 + 0x90]\n  5481: a2 = t1 >u 0\n  5483: a2 = a0 if t1 == 0\n  5486: a0 = u64 [s1 + 0x138]\n  5490: a2 = a1 if a0 == 0\n  5493: jump @200 if a2 == 0\n      : @192 (gas: 8)\n  5497: a3 = a3 & 0xffffffffffffffe0\n  5500: u64 [s1 + 0xb0] = a3\n  5504: a0 = sp + 0xffffffffffffffe0\n  5507: a0 = a0 & 0xffffffffffffffe0\n  5510: u64 [s1 + 0x120] = a0\n  5514: sp = a0\n  5516: a0 = s1 + 0x3a0\n  5520: ra = 194, jump @263\n      : @193 [@dyn 97] (gas: 24)\n  5526: ra = 0\n  5528: u64 [s1 + 312] = 0\n  5532: u64 [s1 + 304] = 0\n  5536: t0 = 0\n  5538: u64 [s1 + 296] = 0\n  5542: a4 = s1 + 0x300\n  5546: a3 = u64 [a4 + 0xb0]\n  5550: a0 = u64 [a4 + 0xb8]\n  5554: a1 = u64 [a4 + 0xa0]\n  5558: a2 = u64 [a4 + 0xa8]\n  5562: u64 [s1 + 0xf0] = a3\n  5566: a5 = u64 [s1 + 0x120]\n  5570: u64 [a5 + 0x10] = a3\n  5573: t1 = a0\n  5575: u64 [a5 + 0x18] = a0\n  5578: u64 [s1 + 0x118] = a1\n  5582: u64 [a5] = a1\n  5584: a0 = a5\n  5586: a5 = a2\n  5588: u64 [a0 + 0x8] = a2\n  5591: a2 = 0\n  5593: a4 = 0\n  5595: t2 = 0x20\n  5598: fallthrough\n      : @194 (gas: 23)\n  5599: u64 [s1 + 0x110] = a5\n  5603: a0 = u64 [s1 + 0xb0]\n  5607: u64 [s1 + 0x100] = a4\n  5611: a0 = a4 <u a0\n  5614: a4 = a0 ^ 0x1\n  5617: u64 [s1 + 0xf8] = t0\n  5621: a4 = 0x1 if t0 != 0\n  5624: a0 = u64 [s1 + 0x128]\n  5628: u64 [s1 + 0x108] = a2\n  5632: a0 = a0 | a2\n  5635: a4 = 0x1 if a0 != 0\n  5638: a1 = u64 [s1 + 0xd0]\n  5642: a1 = a1 + t2\n  5645: a3 = u64 [s1 + 0xc8]\n  5649: a3 = a3 + ra\n  5652: a2 = u64 [s1 + 0xc0]\n  5656: a0 = u64 [s1 + 0x138]\n  5660: a2 = a2 + a0\n  5663: a0 = u64 [s1 + 0xb8]\n  5667: a5 = u64 [s1 + 0x130]\n  5671: a0 = a0 + a5\n  5674: a5 = t2\n  5676: jump @204 if a4 != 0\n      : @195 (gas: 14)\n  5680: a4 = a1 <u a5\n  5683: a3 = a3 + a4\n  5686: u64 [s1 + 0xd8] = a5\n  5690: t0 = a3 ^ ra\n  5693: u64 [s1 + 0xe0] = ra\n  5697: a5 = a3 <u ra\n  5700: a5 = a4 if t0 == 0\n  5703: a5 = a5 + a2\n  5706: t0 = a5 <u a2\n  5709: a4 = u64 [s1 + 0x138]\n  5713: a2 = a2 <u a4\n  5716: a0 = a0 + a2\n  5719: a0 = a0 + t0\n  5722: t0 = 196, jump @2240\n      : @196 [@dyn 98] (gas: 2)\n  5729: u64 [s1 + 0xe8] = t1\n  5733: jump @253 if a0 != 0\n      : @197 (gas: 2)\n  5737: a0 = s1 + 0x140\n  5741: ra = 198, jump @22\n      : @198 [@dyn 99] (gas: 12)\n  5747: a0 = u64 [s1 + 0x158]\n  5751: a1 = u64 [s1 + 0x150]\n  5755: a2 = u64 [s1 + 0x148]\n  5759: a3 = u64 [s1 + 0x140]\n  5763: a4 = s1 + 0x400\n  5767: u64 [a4 + 0xd8] = a0\n  5771: u64 [a4 + 0xd0] = a1\n  5775: u64 [a4 + 0xc8] = a2\n  5779: u64 [a4 + 0xc0] = a3\n  5783: a1 = s1 + 0x4c0\n  5787: a0 = u64 [s1 + 0x120]\n  5791: ra = 200, jump @28\n      : @199 [@dyn 100] (gas: 55)\n  5797: t0 = u64 [s1 + 0x118]\n  5801: t0 = t0 + 0x1\n  5804: a0 = t0 <u 0x1\n  5807: t1 = u64 [s1 + 0x110]\n  5811: t1 = t1 + a0\n  5814: a0 = t0 | t1\n  5817: a0 = a0 <u 0x1\n  5820: a1 = u64 [s1 + 0xf0]\n  5824: a0 = a0 + a1\n  5827: a1 = a0 <u a1\n  5830: t2 = u64 [s1 + 0xe8]\n  5834: t2 = t2 + a1\n  5837: a1 = u64 [s1 + 0xd8]\n  5841: a2 = a1 + 0x20\n  5844: u64 [s1 + 0x110] = a2\n  5848: a3 = a2 <u a1\n  5851: a1 = u64 [s1 + 0xe0]\n  5855: a2 = a1 + a3\n  5858: u64 [s1 + 0xe8] = a2\n  5862: a4 = a2 <u a1\n  5865: a4 = a3 if a3 == 0\n  5868: a1 = u64 [s1 + 0x138]\n  5872: ra = a1 + a4\n  5875: a4 = ra <u a1\n  5878: a1 = u64 [s1 + 0x130]\n  5882: a1 = a1 + a4\n  5885: u64 [s1 + 0x130] = a1\n  5889: a1 = u64 [s1 + 0x100]\n  5893: a4 = a1 + 0x20\n  5896: a5 = a4 <u a1\n  5899: a2 = u64 [s1 + 0xf8]\n  5903: a1 = a2 + a5\n  5906: a2 = a1 <u a2\n  5909: a2 = a5 if a5 == 0\n  5912: a3 = u64 [s1 + 0x108]\n  5916: a2 = a2 + a3\n  5919: a5 = a2 <u a3\n  5922: a3 = u64 [s1 + 0x128]\n  5926: a3 = a3 + a5\n  5929: u64 [s1 + 0x128] = a3\n  5933: a5 = t1\n  5935: a3 = u64 [s1 + 0x120]\n  5939: u64 [a3 + 0x8] = t1\n  5942: u64 [s1 + 0x118] = t0\n  5946: u64 [a3] = t0\n  5948: u64 [a3 + 0x10] = a0\n  5951: t1 = t2\n  5953: u64 [a3 + 0x18] = t2\n  5956: u64 [s1 + 0xf0] = a0\n  5960: t2 = u64 [s1 + 0x110]\n  5964: a0 = u64 [s1 + 0xe8]\n  5968: u64 [s1 + 0x138] = ra\n  5972: ra = a0\n  5974: t0 = a1\n  5976: jump @194\n      : @200 (gas: 5)\n  5979: a0 = a3 | a5\n  5982: a1 = a4 | t1\n  5985: a0 = a0 | a1\n  5988: t0 = u64 [s1 + 0xd0]\n  5992: jump @214 if a0 == 0\n      : @201 (gas: 9)\n  5996: a0 = u64 [s1 + 0xc0]\n  6000: a1 = u64 [s1 + 0xb8]\n  6004: a0 = a0 | a1\n  6007: a1 = 0xffffffe0\n  6017: a1 = t0 <u a1\n  6020: a2 = u64 [s1 + 0xc8]\n  6024: a1 = 0 if a2 != 0\n  6026: a1 = 0 if a0 != 0\n  6028: jump @253 if a1 == 0\n      : @202 (gas: 3)\n  6032: i32 a1 = t0 + 0x20\n  6035: a0 = s1 + 0x3c0\n  6039: ra = 202, jump @22\n      : @203 [@dyn 101] (gas: 15)\n  6045: a1 = s1 + 0x300\n  6049: a0 = u64 [a1 + 0xd8]\n  6053: a2 = s1 + 0x100\n  6057: u64 [a2 + 0x30] = a0\n  6060: a0 = u64 [a1 + 0xd0]\n  6064: u64 [a2 + 0x28] = a0\n  6067: a0 = u64 [a1 + 0xc8]\n  6071: u64 [a2 + 0x18] = a0\n  6074: a0 = u64 [a1 + 0xc0]\n  6078: u64 [a2 + 0x20] = a0\n  6081: a3 = u64 [s1 + 0xa8]\n  6085: a4 = u64 [s1 + 0xa0]\n  6089: a2 = u64 [s1 + 0x98]\n  6093: t1 = u64 [s1 + 0x90]\n  6097: jump @215\n      : @204 (gas: 12)\n  6100: t2 = ra\n  6102: ra = a5\n  6104: t0 = u64 [s1 + 0xa8]\n  6108: a4 = u64 [s1 + 0xb0]\n  6112: a4 = a4 ^ t0\n  6115: a5 = u64 [s1 + 0x98]\n  6119: t1 = a4 | a5\n  6122: a5 = u64 [s1 + 0xa0]\n  6126: a4 = u64 [s1 + 0x90]\n  6130: a5 = a5 | a4\n  6133: a4 = t1 | a5\n  6136: jump @213 if a4 == 0\n      : @205 (gas: 12)\n  6140: a4 = a1 <u ra\n  6143: a3 = a3 + a4\n  6146: t0 = a3 ^ t2\n  6149: a5 = a3 <u t2\n  6152: a5 = a4 if t0 == 0\n  6155: a5 = a5 + a2\n  6158: t0 = a5 <u a2\n  6161: a4 = u64 [s1 + 0x138]\n  6165: a2 = a2 <u a4\n  6168: a0 = a0 + a2\n  6171: a0 = a0 + t0\n  6174: t0 = 204, jump @2240\n      : @206 [@dyn 102] (gas: 1)\n  6181: jump @253 if a0 != 0\n      : @207 (gas: 2)\n  6185: a0 = s1 + 0x380\n  6189: ra = 206, jump @22\n      : @208 [@dyn 103] (gas: 17)\n  6195: a1 = s1 + 0x300\n  6199: a0 = u64 [a1 + 0x98]\n  6203: u64 [s1 + 0x130] = a0\n  6207: a0 = u64 [a1 + 0x90]\n  6211: u64 [s1 + 0x128] = a0\n  6215: a0 = u64 [a1 + 0x88]\n  6219: u64 [s1 + 0x118] = a0\n  6223: a0 = u64 [a1 + 0x80]\n  6227: u64 [s1 + 0x110] = a0\n  6231: a0 = u64 [s1 + 0xa8]\n  6235: a0 = a0 << 0x3b\n  6238: a1 = a0 >> 0x38\n  6241: u64 [s1 + 0x138] = a1\n  6245: a2 = 0x80 - a1\n  6249: a0 = 0xffffffffffffffff\n  6252: a1 = 0xffffffffffffffff\n  6255: ra = 208, jump @2379\n      : @209 [@dyn 104] (gas: 6)\n  6262: u64 [s1 + 0x108] = a0\n  6266: u64 [s1 + 0xf0] = a1\n  6270: a0 = 0xffffffffffffffff\n  6273: a1 = 0xffffffffffffffff\n  6276: a2 = u64 [s1 + 0x138]\n  6280: ra = 210, jump @2374\n      : @210 [@dyn 105] (gas: 10)\n  6287: u64 [s1 + 0xf8] = a0\n  6291: u64 [s1 + 0x100] = a1\n  6295: a0 = u64 [s1 + 0xf0]\n  6299: a0 = a0 | a1\n  6302: u64 [s1 + 0xf0] = a0\n  6306: a0 = u64 [s1 + 0x138]\n  6310: a2 = a0 + 0xffffffffffffff80\n  6313: a0 = 0xffffffffffffffff\n  6316: a1 = 0xffffffffffffffff\n  6319: ra = 212, jump @2374\n      : @211 [@dyn 106] (gas: 29)\n  6326: a4 = u64 [s1 + 0x138]\n  6330: a2 = a4 <u 0x80\n  6334: a3 = u64 [s1 + 0xf0]\n  6338: a1 = a3 if a2 != 0\n  6341: a5 = u64 [s1 + 0xf8]\n  6345: a3 = u64 [s1 + 0x108]\n  6349: a3 = a3 | a5\n  6352: a3 = a0 if a2 == 0\n  6355: a1 = 0xffffffffffffffff if a4 == 0\n  6358: a3 = 0xffffffffffffffff if a4 == 0\n  6361: a4 = u64 [s1 + 0x100]\n  6365: a4 = 0 if a2 == 0\n  6367: a5 = 0 if a2 == 0\n  6369: a0 = u64 [s1 + 0x110]\n  6373: a0 = a0 & ~a3\n  6376: a2 = u64 [s1 + 0x118]\n  6380: a1 = a2 & ~a1\n  6383: a2 = u64 [s1 + 0x128]\n  6387: a2 = a2 & ~a5\n  6390: a3 = u64 [s1 + 0x130]\n  6394: a3 = a3 & ~a4\n  6397: a4 = s1 + 0x400\n  6401: u64 [a4 + 0xf8] = a3\n  6405: u64 [a4 + 0xf0] = a2\n  6409: u64 [a4 + 0xe8] = a1\n  6413: u64 [a4 + 0xe0] = a0\n  6417: a1 = s1 + 0x4e0\n  6421: a0 = u64 [s1 + 0x120]\n  6425: ra = 214, jump @28\n      : @212 [@dyn 107] (gas: 2)\n  6431: t0 = u64 [s1 + 0xa8]\n  6435: fallthrough\n      : @213 (gas: 27)\n  6436: a2 = u64 [s1 + 0x98]\n  6440: a0 = a2 >> 0x3f\n  6443: a1 = u64 [s1 + 0x90]\n  6447: a1 = a1 << 0x1\n  6450: a0 = a0 | a1\n  6453: a3 = u64 [s1 + 0xa0]\n  6457: a1 = a3 >> 0x3f\n  6460: a2 = a2 << 0x1\n  6463: a1 = a1 | a2\n  6466: a2 = t0 >> 0x3f\n  6469: a3 = a3 << 0x1\n  6472: a2 = a2 | a3\n  6475: a3 = t0 << 0x1\n  6478: a3 = a3 + 0x1\n  6481: u64 [s1 + 1304] = 0\n  6485: u64 [s1 + 1296] = 0\n  6489: u64 [s1 + 1288] = 0\n  6493: a5 = s1 + 0x500\n  6497: u64 [a5 + 0] = 0x3\n  6500: u64 [a5 + 0x20] = a3\n  6503: u64 [a5 + 0x28] = a2\n  6506: u64 [a5 + 0x30] = a1\n  6509: u64 [a5 + 0x38] = a0\n  6512: a0 = s1 + 0x500\n  6516: a1 = s1 + 0x520\n  6520: ra = 0xe0\n  6524: jump @28\n      : @214 (gas: 6)\n  6527: a2 = a5\n  6529: u64 [s1 + 288] = 0\n  6533: u64 [s1 + 280] = 0\n  6537: u64 [s1 + 296] = 0\n  6541: u64 [s1 + 304] = 0\n  6545: fallthrough\n      : @215 (gas: 20)\n  6546: a0 = a4 >> 0x3f\n  6549: a1 = a2 << 0x1\n  6552: a0 = a0 | a1\n  6555: u64 [s1 + 0x110] = a0\n  6559: a0 = a2 >> 0x3f\n  6562: a1 = t1 << 0x1\n  6565: a0 = a0 | a1\n  6568: u64 [s1 + 0x108] = a0\n  6572: a0 = a3 >> 0x3f\n  6575: a1 = a4 << 0x1\n  6578: a0 = a0 | a1\n  6581: u64 [s1 + 0x100] = a0\n  6585: a0 = a3 << 0x1\n  6588: u64 [s1 + 0xf8] = a0\n  6592: a1 = a3 << 0x3\n  6595: u64 [s1 + 0x138] = a1\n  6599: i32 a2 = 0x80 - a1\n  6603: a0 = 0xffffffffffffffff\n  6606: a1 = 0xffffffffffffffff\n  6609: ra = 216, jump @2379\n      : @216 [@dyn 108] (gas: 7)\n  6616: u64 [s1 + 0xd8] = a0\n  6620: u64 [s1 + 0xf0] = a1\n  6624: a0 = u64 [s1 + 0xa8]\n  6628: i32 a2 = a0 << 0x3\n  6631: a0 = 0xffffffffffffffff\n  6634: a1 = 0xffffffffffffffff\n  6637: ra = 218, jump @2374\n      : @217 [@dyn 109] (gas: 10)\n  6644: u64 [s1 + 0xe8] = a0\n  6648: u64 [s1 + 0xe0] = a1\n  6652: a1 = u64 [s1 + 0xd8]\n  6656: a0 = a0 | a1\n  6659: u64 [s1 + 0xd8] = a0\n  6663: a0 = u64 [s1 + 0x138]\n  6667: i32 a2 = a0 + 0xffffffffffffff80\n  6670: a0 = 0xffffffffffffffff\n  6673: a1 = 0xffffffffffffffff\n  6676: ra = 220, jump @2374\n      : @218 [@dyn 110] (gas: 7)\n  6683: a4 = u64 [s1 + 0x138]\n  6687: a2 = a4 <u 0x80\n  6691: a3 = u64 [s1 + 0xd8]\n  6695: a0 = a3 if a2 != 0\n  6698: a5 = u64 [s1 + 0xe0]\n  6702: a3 = u64 [s1 + 0xf0]\n  6706: t0 = 222, jump @2361\n      : @219 [@dyn 111] (gas: 31)\n  6713: a4 = u64 [s1 + 0xe8]\n  6717: a4 = 0 if a2 == 0\n  6719: a1 = u64 [s1 + 0x118]\n  6723: a1 = a1 & ~a3\n  6726: a2 = u64 [s1 + 0x120]\n  6730: a0 = a2 & ~a0\n  6733: a2 = u64 [s1 + 0x128]\n  6737: a2 = a2 & ~a4\n  6740: a3 = u64 [s1 + 0x130]\n  6744: a3 = a3 & ~a5\n  6747: a4 = u64 [s1 + 0xf8]\n  6751: a0 = a0 | a4\n  6754: a5 = s1 + 0x100\n  6758: a4 = u64 [a5]\n  6760: a1 = a1 | a4\n  6763: a4 = u64 [a5 + 0x8]\n  6766: a3 = a3 | a4\n  6769: a4 = u64 [a5 + 0x10]\n  6772: a2 = a2 | a4\n  6775: a5 = s1 + 0x500\n  6779: u64 [a5 + 64] = 0x3\n  6783: u64 [a5 + 0x70] = a2\n  6786: u64 [a5 + 0x78] = a3\n  6789: u64 [a5 + 0x68] = a1\n  6792: u64 [a5 + 0x60] = a0\n  6795: u64 [s1 + 1368] = 0\n  6799: u64 [s1 + 1360] = 0\n  6803: u64 [s1 + 1352] = 0\n  6807: a0 = s1 + 0x540\n  6811: a1 = s1 + 0x560\n  6815: ra = 224, jump @28\n      : @220 [@dyn 112] (gas: 10)\n  6821: a0 = u64 [s1 + 0x30]\n  6824: u64 [s1 + 0x360] = a0\n  6828: a0 = u64 [s1 + 0x38]\n  6831: u64 [s1 + 0x368] = a0\n  6835: a0 = u64 [s1 + 0x40]\n  6838: u64 [s1 + 0x370] = a0\n  6842: a0 = s1 + 0x360\n  6846: a1 = u64 [s1 + 0x48]\n  6849: u64 [s1 + 0x378] = a1\n  6853: ra = 226, jump @303\n      : @221 [@dyn 113] (gas: 13)\n  6859: a0 = u64 [s1 + 0x78]\n  6862: u64 [s1 + 0x338] = a0\n  6866: a0 = u64 [s1 + 0x70]\n  6869: u64 [s1 + 0x330] = a0\n  6873: a0 = u64 [s1 + 0x80]\n  6877: u64 [s1 + 0x328] = a0\n  6881: a0 = s1 + 0x340\n  6885: a1 = s1 + 0x320\n  6889: a2 = u64 [s1 + 0x88]\n  6893: u64 [s1 + 0x320] = a2\n  6897: ra = 0xe4\n  6901: t0 = 0x1ae\n  6905: jump @2235\n      : @222 [@dyn 114] (gas: 12)\n  6909: a4 = s1 + 0x300\n  6913: a2 = u64 [a4 + 0x40]\n  6916: a0 = u64 [a4 + 0x48]\n  6919: a1 = u64 [a4 + 0x50]\n  6922: a3 = u64 [a4 + 0x58]\n  6925: u64 [a4 + 0x18] = a3\n  6928: u64 [a4 + 0x10] = a1\n  6931: u64 [a4 + 0x8] = a0\n  6934: a0 = 0x120\n  6938: a1 = s1 + 0x300\n  6942: u64 [a4] = a2\n  6944: ra = 230, jump @24\n      : @223 [@dyn 115] (gas: 13)\n  6950: a0 = u64 [s1 + 0x58]\n  6953: u64 [s1 + 0x2d8] = a0\n  6957: a0 = u64 [s1 + 0x50]\n  6960: u64 [s1 + 0x2d0] = a0\n  6964: a0 = u64 [s1 + 0x60]\n  6967: u64 [s1 + 0x2c8] = a0\n  6971: a0 = s1 + 0x2e0\n  6975: a1 = s1 + 0x2c0\n  6979: a2 = u64 [s1 + 0x68]\n  6982: u64 [s1 + 0x2c0] = a2\n  6986: ra = 0xe8\n  6990: t0 = 0x1f0\n  6994: jump @2235\n      : @224 [@dyn 116] (gas: 12)\n  6998: a4 = s1 + 0x200\n  7002: a2 = u64 [a4 + 0xe0]\n  7006: a0 = u64 [a4 + 0xe8]\n  7010: a1 = u64 [a4 + 0xf0]\n  7014: a3 = u64 [a4 + 0xf8]\n  7018: u64 [a4 + 0xb8] = a3\n  7022: u64 [a4 + 0xb0] = a1\n  7026: u64 [a4 + 0xa8] = a0\n  7030: a0 = 0x140\n  7034: a1 = s1 + 0x2a0\n  7038: u64 [a4 + 0xa0] = a2\n  7042: ra = 234, jump @24\n      : @225 [@dyn 117] (gas: 12)\n  7048: a1 = u64 [s1 + 0x88]\n  7052: a3 = u64 [s1 + 0x70]\n  7055: a0 = a1 | a3\n  7058: a2 = u64 [s1 + 0x78]\n  7061: a4 = u64 [s1 + 0x80]\n  7065: a2 = a2 | a4\n  7068: a0 = a0 | a2\n  7071: a0 = a0 >> 0x20\n  7074: a2 = a2 | a3\n  7077: a2 = a2 << 0x20\n  7080: a0 = a0 | a2\n  7083: jump @253 if a0 != 0\n      : @226 (gas: 2)\n  7087: a0 = s1 + 0x280\n  7091: ra = 236, jump @22\n      : @227 [@dyn 118] (gas: 10)\n  7097: a4 = u64 [s1 + 0x88]\n  7101: a0 = u64 [s1 + 0x78]\n  7104: a1 = u64 [s1 + 0x70]\n  7107: a0 = a0 | a1\n  7110: a1 = 0xffffffe0\n  7120: a1 = a4 <u a1\n  7123: a2 = u64 [s1 + 0x80]\n  7127: a1 = 0 if a2 != 0\n  7129: a1 = 0 if a0 != 0\n  7131: jump @253 if a1 == 0\n      : @228 (gas: 13)\n  7135: a3 = s1 + 0x200\n  7139: a0 = u64 [a3 + 0x98]\n  7143: a5 = u64 [a3 + 0x90]\n  7147: a1 = u64 [a3 + 0x80]\n  7151: a2 = u64 [a3 + 0x88]\n  7155: a3 = a1 | a5\n  7158: a0 = a0 | a2\n  7161: a3 = a3 | a0\n  7164: a3 = a3 >> 0x20\n  7167: a0 = a0 | a5\n  7170: a0 = a0 << 0x20\n  7173: a0 = a0 | a3\n  7176: jump @253 if a0 != 0\n      : @229 (gas: 3)\n  7180: i32 a0 = a4 + 0x20\n  7183: u64 [s1 + 0x138] = a1\n  7187: ra = 238, jump @37\n      : @230 [@dyn 119] (gas: 1)\n  7193: t0 = 240, jump @2342\n      : @231 [@dyn 120] (gas: 5)\n  7200: ra = 0xf2\n  7204: ecalli 11 // 'hash_keccak_256'\n  7206: a3 = u64 [s1 + 0x130]\n  7210: t0 = 0xf4\n  7214: jump @2224\n      : @232 [@dyn 121] (gas: 2)\n  7218: a3 = u64 [s1 + 0x130]\n  7222: t0 = 244, jump @2224\n      : @233 [@dyn 122] (gas: 8)\n  7229: a3 = s1 + 0x200\n  7233: u64 [a3 + 0x78] = a2\n  7236: u64 [a3 + 0x70] = a1\n  7239: u64 [a3 + 0x68] = a0\n  7242: a0 = 0xe0\n  7246: a1 = s1 + 0x260\n  7250: u64 [a3 + 0x60] = a4\n  7253: ra = 246, jump @24\n      : @234 [@dyn 123] (gas: 12)\n  7259: a1 = u64 [s1 + 0x68]\n  7262: a3 = u64 [s1 + 0x50]\n  7265: a0 = a1 | a3\n  7268: a2 = u64 [s1 + 0x60]\n  7271: a4 = u64 [s1 + 0x58]\n  7274: a2 = a2 | a4\n  7277: a0 = a0 | a2\n  7280: a0 = a0 >> 0x20\n  7283: a2 = a2 | a3\n  7286: a2 = a2 << 0x20\n  7289: a0 = a0 | a2\n  7292: jump @253 if a0 != 0\n      : @235 (gas: 2)\n  7296: a0 = s1 + 0x240\n  7300: ra = 248, jump @22\n      : @236 [@dyn 124] (gas: 10)\n  7306: a4 = u64 [s1 + 0x68]\n  7309: a0 = u64 [s1 + 0x50]\n  7312: a1 = u64 [s1 + 0x58]\n  7315: a0 = a0 | a1\n  7318: a1 = 0xffffffe0\n  7328: a1 = a4 <u a1\n  7331: a2 = u64 [s1 + 0x60]\n  7334: a1 = 0 if a2 != 0\n  7336: a1 = 0 if a0 != 0\n  7338: jump @253 if a1 == 0\n      : @237 (gas: 13)\n  7342: a3 = s1 + 0x200\n  7346: a0 = u64 [a3 + 0x58]\n  7349: a5 = u64 [a3 + 0x50]\n  7352: a1 = u64 [a3 + 0x40]\n  7355: a2 = u64 [a3 + 0x48]\n  7358: a3 = a1 | a5\n  7361: a0 = a0 | a2\n  7364: a3 = a3 | a0\n  7367: a3 = a3 >> 0x20\n  7370: a0 = a0 | a5\n  7373: a0 = a0 << 0x20\n  7376: a0 = a0 | a3\n  7379: jump @253 if a0 != 0\n      : @238 (gas: 3)\n  7383: i32 a0 = a4 + 0x20\n  7386: u64 [s1 + 0x138] = a1\n  7390: ra = 250, jump @37\n      : @239 [@dyn 125] (gas: 1)\n  7396: t0 = 252, jump @2342\n      : @240 [@dyn 126] (gas: 5)\n  7403: ra = 0xfe\n  7407: ecalli 11 // 'hash_keccak_256'\n  7409: a3 = u64 [s1 + 0x130]\n  7413: t0 = 0x100\n  7417: jump @2224\n      : @241 [@dyn 127] (gas: 2)\n  7421: a3 = u64 [s1 + 0x130]\n  7425: t0 = 256, jump @2224\n      : @242 [@dyn 128] (gas: 7)\n  7432: u64 [s1 + 0x238] = a2\n  7436: u64 [s1 + 0x230] = a1\n  7440: u64 [s1 + 0x228] = a0\n  7444: a0 = 0x100\n  7448: a1 = s1 + 0x220\n  7452: u64 [s1 + 0x220] = a4\n  7456: ra = 258, jump @24\n      : @243 [@dyn 129] (gas: 15)\n  7462: i32 a0 = s1 + 0x580\n  7466: ecalli 7 // 'chain_id'\n  7468: a4 = s1 + 0x500\n  7472: a2 = u64 [a4 + 0x80]\n  7476: a0 = u64 [a4 + 0x88]\n  7480: a1 = u64 [a4 + 0x90]\n  7484: a3 = u64 [a4 + 0x98]\n  7488: a4 = s1 + 0x200\n  7492: u64 [a4 + 0x18] = a3\n  7495: u64 [a4 + 0x10] = a1\n  7498: u64 [a4 + 0x8] = a0\n  7501: a0 = 0xa0\n  7505: a1 = s1 + 0x200\n  7509: u64 [a4] = a2\n  7511: ra = 260, jump @24\n      : @244 [@dyn 130] (gas: 2)\n  7517: a0 = s1 + 0x1e0\n  7521: ra = 262, jump @477\n      : @245 [@dyn 131] (gas: 11)\n  7527: a2 = u64 [s1 + 0x1e0]\n  7531: a0 = u64 [s1 + 0x1e8]\n  7535: a1 = u64 [s1 + 0x1f0]\n  7539: a3 = u64 [s1 + 0x1f8]\n  7543: u64 [s1 + 0x1d8] = a3\n  7547: u64 [s1 + 0x1d0] = a1\n  7551: u64 [s1 + 0x1c8] = a0\n  7555: a0 = 0x80\n  7559: a1 = s1 + 0x1c0\n  7563: u64 [s1 + 0x1c0] = a2\n  7567: ra = 264, jump @24\n      : @246 [@dyn 132] (gas: 9)\n  7573: a0 = 0x30160\n  7578: u64 [s1 + 0x138] = a0\n  7582: i32 a0 = a0 + 0\n  7584: u64 [s1 + 0x130] = a0\n  7588: ra = 0x10a\n  7592: ecalli 0 // 'address'\n  7593: a2 = u64 [s1 + 0x138]\n  7597: t0 = 0x10c\n  7601: jump @2242\n      : @247 [@dyn 133] (gas: 2)\n  7605: a2 = u64 [s1 + 0x138]\n  7609: t0 = 268, jump @2242\n      : @248 [@dyn 134] (gas: 4)\n  7616: a0 = 0xc0\n  7620: a1 = s1 + 0x1a0\n  7624: u64 [s1 + 0x1a0] = a3\n  7628: ra = 270, jump @24\n      : @249 [@dyn 135] (gas: 4)\n  7634: a0 = u64 [s1 + 0x130]\n  7638: ra = 0x110\n  7642: ecalli 6 // 'caller'\n  7644: fallthrough\n      : @250 [@dyn 136] (gas: 3)\n  7645: a4 = s1 + 0x100\n  7649: a2 = u64 [a4 + 0x38]\n  7652: t0 = 274, jump @2231\n      : @251 [@dyn 137] (gas: 15)\n  7659: a2 = u64 [s1 + 0x10]\n  7662: u64 [a4 + 0x78] = a2\n  7665: a2 = u64 [s1 + 0x18]\n  7668: u64 [a4 + 0x70] = a2\n  7671: a2 = u64 [s1 + 0x20]\n  7674: u64 [a4 + 0x68] = a2\n  7677: a2 = u64 [s1 + 0x28]\n  7680: u64 [a4 + 0x60] = a2\n  7683: u64 [s1 + 408] = 0\n  7687: u64 [a4 + 0x90] = a1\n  7691: u64 [a4 + 0x88] = a0\n  7695: a0 = s1 + 0x180\n  7699: a1 = s1 + 0x160\n  7703: u64 [a4 + 0x80] = a3\n  7707: ra = 276, jump @347\n      : @252 [@dyn 138] (gas: 7)\n  7713: sp = s0 + 0xfffffffffffffa40\n  7717: a0 = sp + 0x500\n  7721: ra = u64 [a0 + 0xb8]\n  7725: s0 = u64 [a0 + 0xb0]\n  7729: s1 = u64 [a0 + 0xa8]\n  7733: sp = sp + 0x5c0\n  7737: ret\n      : @253 (gas: 1)\n  7739: trap\n      : @254 (gas: 3)\n  7740: ra = 0x116\n  7744: t0 = 0x86\n  7748: jump @2232\n      : @255 [@dyn 139] (gas: 33)\n  7752: sp = sp + 0xffffffffffffffa0\n  7755: u64 [sp + 0x58] = ra\n  7758: u64 [sp + 0x50] = s0\n  7761: u64 [sp + 0x48] = s1\n  7764: s0 = sp + 0x60\n  7767: sp = sp & 0xfffffffffffffff0\n  7770: a2 = u64 [a1 + 0x10]\n  7773: a5 = u64 [a1 + 0x8]\n  7776: a4 = u64 [a1]\n  7778: a1 = u64 [a1 + 0x18]\n  7781: t0 = a2 << 0x3f\n  7784: a3 = a5 >> 0x1\n  7787: t0 = a3 | t0\n  7790: a3 = a1 << 0x3f\n  7793: a2 = a2 >> 0x1\n  7796: a3 = a3 | a2\n  7799: a5 = a5 << 0x3f\n  7802: a2 = a4 >> 0x1\n  7805: a5 = a5 | a2\n  7808: t1 = a1 >> 0x1\n  7811: a4 = a4 & 0x1\n  7814: a1 = -a4\n  7816: s1 = a4 <u 0x1\n  7819: a2 = a5 & 0x7f\n  7822: t2 = a1 & a3\n  7825: a3 = a1 & t0\n  7828: a2 = a5 if a4 != 0\n  7831: a4 = a1 & t1\n  7834: a1 = a2 <u 0x20\n  7837: a1 = 0 if a3 != 0\n  7839: a5 = t2 | a4\n  7842: a1 = 0 if a5 != 0\n  7844: jump @258 if s1 != a1\n      : @256 (gas: 5)\n  7847: u64 [a0] = a2\n  7849: u64 [a0 + 0x8] = a3\n  7852: u64 [a0 + 0x10] = t2\n  7855: u64 [a0 + 0x18] = a4\n  7858: t0 = 280, jump @2229\n      : @257 [@dyn 140] (gas: 1)\n  7865: ret\n      : @258 (gas: 8)\n  7867: u64 [sp + 48] = 0\n  7870: u64 [sp + 40] = 0\n  7873: u64 [sp + 32] = 0\n  7876: a0 = 0x4e487b7100000000\n  7886: a1 = sp + 0x20\n  7889: u64 [sp + 0x38] = a0\n  7892: a0 = 0\n  7894: ra = 282, jump @24\n      : @259 [@dyn 141] (gas: 7)\n  7900: u64 [sp + 24] = 0\n  7903: u64 [sp + 16] = 0\n  7906: u64 [sp + 0] = 0x22\n  7909: a0 = 0x4\n  7912: a1 = sp\n  7914: u64 [sp + 8] = 0\n  7917: ra = 284, jump @24\n      : @260 [@dyn 142] (gas: 2)\n  7923: a1 = i32 [0x20150]\n  7928: jump @262 if a1 >u 63\n      : @261 (gas: 2)\n  7932: u32 [0x20150] = 0x40\n  7938: fallthrough\n      : @262 (gas: 7)\n  7939: a1 = 0x20160\n  7944: i32 a1 = a1 + 0\n  7946: a0 = 0x1\n  7949: a2 = 0x24\n  7952: ra = 0x11e\n  7956: ecalli 16 // 'seal_return'\n  7958: fallthrough\n      : @263 [@dyn 143] (gas: 15)\n  7959: sp = sp + 0xffffffffffffffa0\n  7962: u64 [sp + 0x58] = ra\n  7965: u64 [sp + 0x50] = s0\n  7968: u64 [sp + 0x48] = s1\n  7971: s0 = sp + 0x60\n  7974: sp = sp & 0xffffffffffffffe0\n  7977: s1 = sp\n  7979: u64 [s1 + 0x18] = a0\n  7982: u64 [s1 + 56] = 0\n  7985: u64 [s1 + 48] = 0\n  7988: u64 [s1 + 40] = 0\n  7991: a1 = s1 + 0x20\n  7994: u64 [s1 + 32] = 0x3\n  7998: a0 = 0\n  8000: ra = 288, jump @24\n      : @264 [@dyn 144] (gas: 2)\n  8006: a1 = i32 [0x20150]\n  8011: jump @266 if a1 >u 31\n      : @265 (gas: 4)\n  8015: a1 = 0x20\n  8018: u32 [0x20150] = a1\n  8023: t0 = 0x122\n  8027: jump @2260\n      : @266 (gas: 1)\n  8031: t0 = 290, jump @2260\n      : @267 [@dyn 145] (gas: 20)\n  8038: a0 = 0x20160\n  8043: i32 a0 = a0 + 0\n  8045: i32 a2 = a2 + 0\n  8047: a1 = 0x20\n  8050: ecalli 11 // 'hash_keccak_256'\n  8052: a3 = u64 [s1 + 0x10]\n  8055: a0 = u64 [a3 + 0x18]\n  8058: a1 = u64 [a3 + 0x10]\n  8061: a2 = u64 [a3 + 0x8]\n  8064: a3 = u64 [a3]\n  8066: a0 = reverse a0\n  8068: a1 = reverse a1\n  8070: a2 = reverse a2\n  8072: a3 = reverse a3\n  8074: a4 = u64 [s1 + 0x18]\n  8077: u64 [a4 + 0x18] = a3\n  8080: u64 [a4 + 0x10] = a2\n  8083: u64 [a4 + 0x8] = a1\n  8086: u64 [a4] = a0\n  8088: t0 = 292, jump @2229\n      : @268 [@dyn 146] (gas: 1)\n  8095: ret\n      : @269 (gas: 19)\n  8097: sp = sp + 0xffffffffffffffa0\n  8100: u64 [sp + 0x58] = ra\n  8103: u64 [sp + 0x50] = s0\n  8106: u64 [sp + 0x48] = s1\n  8109: s0 = sp + 0x60\n  8112: sp = sp & 0xffffffffffffffe0\n  8115: s1 = sp\n  8117: a2 = u64 [a1]\n  8119: a3 = u64 [a1 + 0x8]\n  8122: a4 = u64 [a1 + 0x10]\n  8125: a1 = u64 [a1 + 0x18]\n  8128: u64 [s1 + 0x18] = a0\n  8131: u64 [s1 + 0x38] = a1\n  8134: u64 [s1 + 0x30] = a4\n  8137: u64 [s1 + 0x28] = a3\n  8140: a1 = s1 + 0x20\n  8143: u64 [s1 + 0x20] = a2\n  8146: a0 = 0\n  8148: ra = 294, jump @24\n      : @270 [@dyn 147] (gas: 2)\n  8154: a1 = i32 [0x20150]\n  8159: jump @272 if a1 >u 31\n      : @271 (gas: 4)\n  8163: a1 = 0x20\n  8166: u32 [0x20150] = a1\n  8171: t0 = 0x128\n  8175: jump @2260\n      : @272 (gas: 1)\n  8179: t0 = 296, jump @2260\n      : @273 [@dyn 148] (gas: 20)\n  8186: a0 = 0x20160\n  8191: i32 a0 = a0 + 0\n  8193: i32 a2 = a2 + 0\n  8195: a1 = 0x20\n  8198: ecalli 11 // 'hash_keccak_256'\n  8200: a3 = u64 [s1 + 0x10]\n  8203: a0 = u64 [a3 + 0x18]\n  8206: a1 = u64 [a3 + 0x10]\n  8209: a2 = u64 [a3 + 0x8]\n  8212: a3 = u64 [a3]\n  8214: a0 = reverse a0\n  8216: a1 = reverse a1\n  8218: a2 = reverse a2\n  8220: a3 = reverse a3\n  8222: a4 = u64 [s1 + 0x18]\n  8225: u64 [a4 + 0x18] = a3\n  8228: u64 [a4 + 0x10] = a2\n  8231: u64 [a4 + 0x8] = a1\n  8234: u64 [a4] = a0\n  8236: t0 = 298, jump @2229\n      : @274 [@dyn 149] (gas: 1)\n  8243: ret\n      : @275 [@dyn 150] (gas: 9)\n  8245: t0 = u64 [a0 + 0x18]\n  8248: a4 = u64 [a0 + 0x10]\n  8251: a3 = u64 [a0]\n  8253: a5 = u64 [a0 + 0x8]\n  8256: a0 = a4 | t0\n  8259: a2 = a3 <u 0x20\n  8262: a2 = 0 if a5 != 0\n  8264: a2 = 0 if a0 != 0\n  8266: jump @287 if a2 != 0\n      : @276 (gas: 19)\n  8270: u64 [s1 + 0x30] = a3\n  8273: u64 [s1 + 0x38] = a5\n  8276: u64 [s1 + 0x48] = a4\n  8279: u64 [s1 + 0x20] = t0\n  8282: a0 = u64 [a1 + 0x18]\n  8285: u64 [s1 + 0x40] = a0\n  8288: a0 = u64 [a1 + 0x10]\n  8291: u64 [s1 + 0x18] = a0\n  8294: a0 = u64 [a1 + 0x8]\n  8297: u64 [s1 + 0x58] = a0\n  8300: a0 = u64 [a1]\n  8302: u64 [s1 + 0x50] = a0\n  8305: u64 [s1 + 120] = 0\n  8308: u64 [s1 + 112] = 0\n  8311: u64 [s1 + 104] = 0\n  8314: a1 = s1 + 0x60\n  8317: u64 [s1 + 96] = 0x3\n  8321: a0 = 0\n  8323: ra = 302, jump @24\n      : @277 [@dyn 151] (gas: 2)\n  8329: a1 = i32 [0x20150]\n  8334: jump @279 if a1 >u 31\n      : @278 (gas: 4)\n  8338: a1 = 0x20\n  8341: u32 [0x20150] = a1\n  8346: t0 = 0x130\n  8350: jump @2356\n      : @279 (gas: 1)\n  8354: t0 = 304, jump @2356\n      : @280 [@dyn 152] (gas: 8)\n  8361: a0 = 0x20160\n  8366: i32 a0 = a0 + 0\n  8368: i32 a2 = a2 + 0\n  8370: a1 = 0x20\n  8373: ra = 0x132\n  8377: ecalli 11 // 'hash_keccak_256'\n  8379: t0 = 0x134\n  8383: jump @2314\n      : @281 [@dyn 153] (gas: 1)\n  8387: t0 = 308, jump @2314\n      : @282 [@dyn 154] (gas: 71)\n  8394: t0 = u64 [s1 + 0x18]\n  8397: a2 = a2 + t0\n  8400: u64 [s1 + 0x10] = a2\n  8403: a2 = a2 << 0x3b\n  8406: a4 = a3 >> 0x5\n  8409: a2 = a2 | a4\n  8412: a3 = a3 << 0x3b\n  8415: a1 = a1 >> 0x5\n  8418: a0 = a1 | a3\n  8421: a1 = t1 <u 0x20\n  8424: a1 = 0 if a5 != 0\n  8426: a4 = u64 [s1 + 0x28]\n  8429: t1 = u64 [a4 + 0x18]\n  8432: a5 = u64 [a4 + 0x10]\n  8435: a3 = u64 [s1 + 0x40]\n  8438: a4 = t0 | a3\n  8441: a1 = 0 if a4 != 0\n  8443: ra = reverse t1\n  8445: a3 = reverse a5\n  8447: a2 = 0 if a1 != 0\n  8449: a0 = 0 if a1 != 0\n  8451: a0 = a0 + ra\n  8454: u64 [s1 + 0x58] = a0\n  8457: a0 = a0 <u ra\n  8460: a5 = a3 + a0\n  8463: a2 = a2 + a5\n  8466: u64 [s1 + 0x50] = a2\n  8469: a5 = a2 ^ a3\n  8472: a2 = a2 <u a3\n  8475: a2 = a0 if a5 == 0\n  8478: u64 [s1 + 0x8] = a2\n  8481: a0 = u64 [s1 + 0x30]\n  8484: t2 = a0 + 0x1f\n  8487: a2 = t2 <u a0\n  8490: a0 = u64 [s1 + 0x38]\n  8493: a4 = a0 + a2\n  8496: a5 = a4 <u a0\n  8499: a5 = a2 if a2 == 0\n  8502: t1 = u64 [s1 + 0x48]\n  8505: t1 = t1 + a5\n  8508: a2 = t1 << 0x3b\n  8511: a0 = a4 >> 0x5\n  8514: a0 = a0 | a2\n  8517: a4 = a4 << 0x3b\n  8520: a2 = t2 >> 0x5\n  8523: a2 = a2 | a4\n  8526: a2 = a2 + ra\n  8529: u64 [s1 + 0x38] = a2\n  8532: a2 = a2 <u ra\n  8535: a4 = a3 + a2\n  8538: a4 = a4 + a0\n  8541: a0 = a4 ^ a3\n  8544: u64 [s1 + 0x30] = a4\n  8547: a3 = a4 <u a3\n  8550: a3 = a2 if a0 == 0\n  8553: a2 = u64 [s1 + 0x10]\n  8556: a0 = a2 <u t0\n  8559: a4 = u64 [s1 + 0x40]\n  8562: a0 = a0 + a4\n  8565: a2 = a2 >> 0x5\n  8568: a4 = a0 << 0x3b\n  8571: a2 = a2 | a4\n  8574: a4 = u64 [s1 + 0x28]\n  8577: t0 = u64 [a4]\n  8579: a4 = u64 [a4 + 0x8]\n  8582: a0 = a0 >> 0x5\n  8585: a2 = 0 if a1 != 0\n  8587: a0 = 0 if a1 != 0\n  8589: a1 = reverse a4\n  8591: a4 = reverse t0\n  8593: t0 = 310, jump @2355\n      : @283 [@dyn 155] (gas: 25)\n  8600: t0 = a0 + a2\n  8603: a0 = u64 [s1 + 0x48]\n  8606: a0 = t1 <u a0\n  8609: a2 = u64 [s1 + 0x20]\n  8612: a0 = a0 + a2\n  8615: a2 = t1 >> 0x5\n  8618: a5 = a0 << 0x3b\n  8621: a2 = a2 | a5\n  8624: ra = u64 [s1 + 0x58]\n  8627: a0 = a0 >> 0x5\n  8630: a0 = a0 + a4\n  8633: a4 = u64 [s1 + 0x50]\n  8636: a2 = a2 + a1\n  8639: a1 = a2 <u a1\n  8642: a0 = a0 + a1\n  8645: a3 = a3 + a2\n  8648: u64 [s1 + 0x28] = a3\n  8651: a1 = a3 <u a2\n  8654: a0 = a0 + a1\n  8657: u64 [s1 + 0x20] = a0\n  8660: a0 = sp + 0xffffffffffffffe0\n  8663: a5 = a0 & 0xffffffffffffffe0\n  8666: sp = a5\n  8668: u64 [s1 + 0x18] = a5\n  8671: fallthrough\n      : @284 (gas: 20)\n  8672: a0 = u64 [s1 + 0x38]\n  8675: a0 = ra <u a0\n  8678: a2 = u64 [s1 + 0x30]\n  8681: a1 = a4 ^ a2\n  8684: a2 = a4 <u a2\n  8687: a2 = a0 if a1 == 0\n  8690: a0 = u64 [s1 + 0x28]\n  8693: t1 = t2 <u a0\n  8696: a3 = u64 [s1 + 0x20]\n  8699: a1 = t0 ^ a3\n  8702: a3 = t0 <u a3\n  8705: a3 = t1 if a1 == 0\n  8708: a0 = t2 ^ a0\n  8711: a0 = a0 | a1\n  8714: a3 = a2 if a0 == 0\n  8717: u64 [a5] = ra\n  8719: u64 [a5 + 0x8] = a4\n  8722: u64 [a5 + 0x10] = t2\n  8725: u64 [a5 + 0x18] = t0\n  8728: jump @287 if a3 == 0\n      : @285 (gas: 11)\n  8731: u64 [s1 + 152] = 0\n  8735: u64 [s1 + 144] = 0\n  8739: u64 [s1 + 136] = 0\n  8743: u64 [s1 + 128] = 0\n  8747: a1 = s1 + 0x80\n  8751: a0 = a5\n  8753: u64 [s1 + 0x58] = ra\n  8756: u64 [s1 + 0x50] = a4\n  8759: u64 [s1 + 0x48] = t0\n  8762: u64 [s1 + 0x40] = t2\n  8765: ra = 312, jump @28\n      : @286 [@dyn 156] (gas: 15)\n  8771: a5 = u64 [s1 + 0x18]\n  8774: t0 = u64 [s1 + 0x48]\n  8777: a4 = u64 [s1 + 0x50]\n  8780: ra = u64 [s1 + 0x58]\n  8783: ra = ra + 0x1\n  8786: a0 = ra <u 0x1\n  8789: a4 = a4 + a0\n  8792: a0 = ra | a4\n  8795: a0 = a0 <u 0x1\n  8798: a1 = u64 [s1 + 0x40]\n  8801: a0 = a0 + a1\n  8804: a1 = a0 <u a1\n  8807: t0 = t0 + a1\n  8810: t2 = a0\n  8812: jump @284\n      : @287 (gas: 1)\n  8815: t0 = 314, jump @2350\n      : @288 [@dyn 157] (gas: 1)\n  8822: ret\n      : @289 [@dyn 158] (gas: 9)\n  8824: t0 = u64 [a1 + 0x18]\n  8827: t1 = u64 [a1 + 0x10]\n  8830: a5 = u64 [a1]\n  8832: a4 = u64 [a1 + 0x8]\n  8835: a1 = t1 | t0\n  8838: a3 = a5 <u 0x20\n  8841: a3 = 0 if a4 != 0\n  8843: a3 = 0 if a1 != 0\n  8845: jump @301 if a3 != 0\n      : @290 (gas: 23)\n  8849: u64 [s1 + 0x30] = a5\n  8852: u64 [s1 + 0x38] = a4\n  8855: u64 [s1 + 0x48] = t1\n  8858: u64 [s1 + 0x20] = t0\n  8861: a1 = u64 [a2 + 0x18]\n  8864: u64 [s1 + 0x40] = a1\n  8867: a1 = u64 [a2 + 0x10]\n  8870: u64 [s1 + 0x18] = a1\n  8873: a1 = u64 [a2 + 0x8]\n  8876: u64 [s1 + 0x58] = a1\n  8879: a1 = u64 [a2]\n  8881: u64 [s1 + 0x50] = a1\n  8884: a2 = u64 [a0 + 0x18]\n  8887: a1 = u64 [a0 + 0x10]\n  8890: a3 = u64 [a0 + 0x8]\n  8893: a0 = u64 [a0]\n  8895: u64 [s1 + 0x60] = a0\n  8898: u64 [s1 + 0x68] = a3\n  8901: u64 [s1 + 0x70] = a1\n  8904: a1 = s1 + 0x60\n  8907: u64 [s1 + 0x78] = a2\n  8910: a0 = 0\n  8912: ra = 318, jump @24\n      : @291 [@dyn 159] (gas: 2)\n  8918: a1 = i32 [0x20150]\n  8923: jump @293 if a1 >u 31\n      : @292 (gas: 4)\n  8927: a1 = 0x20\n  8930: u32 [0x20150] = a1\n  8935: t0 = 0x140\n  8939: jump @2356\n      : @293 (gas: 1)\n  8943: t0 = 320, jump @2356\n      : @294 [@dyn 160] (gas: 8)\n  8950: a0 = 0x20160\n  8955: i32 a0 = a0 + 0\n  8957: i32 a2 = a2 + 0\n  8959: a1 = 0x20\n  8962: ra = 0x142\n  8966: ecalli 11 // 'hash_keccak_256'\n  8968: t0 = 0x144\n  8972: jump @2314\n      : @295 [@dyn 161] (gas: 1)\n  8976: t0 = 324, jump @2314\n      : @296 [@dyn 162] (gas: 71)\n  8983: t0 = u64 [s1 + 0x18]\n  8986: a2 = a2 + t0\n  8989: u64 [s1 + 0x10] = a2\n  8992: a2 = a2 << 0x3b\n  8995: a4 = a3 >> 0x5\n  8998: a2 = a2 | a4\n  9001: a3 = a3 << 0x3b\n  9004: a1 = a1 >> 0x5\n  9007: a0 = a1 | a3\n  9010: a1 = t1 <u 0x20\n  9013: a1 = 0 if a5 != 0\n  9015: a4 = u64 [s1 + 0x28]\n  9018: t1 = u64 [a4 + 0x18]\n  9021: a5 = u64 [a4 + 0x10]\n  9024: a3 = u64 [s1 + 0x40]\n  9027: a4 = t0 | a3\n  9030: a1 = 0 if a4 != 0\n  9032: ra = reverse t1\n  9034: a3 = reverse a5\n  9036: a2 = 0 if a1 != 0\n  9038: a0 = 0 if a1 != 0\n  9040: a0 = a0 + ra\n  9043: u64 [s1 + 0x58] = a0\n  9046: a0 = a0 <u ra\n  9049: a5 = a3 + a0\n  9052: a2 = a2 + a5\n  9055: u64 [s1 + 0x50] = a2\n  9058: a5 = a2 ^ a3\n  9061: a2 = a2 <u a3\n  9064: a2 = a0 if a5 == 0\n  9067: u64 [s1 + 0x8] = a2\n  9070: a0 = u64 [s1 + 0x30]\n  9073: t2 = a0 + 0x1f\n  9076: a2 = t2 <u a0\n  9079: a0 = u64 [s1 + 0x38]\n  9082: a4 = a0 + a2\n  9085: a5 = a4 <u a0\n  9088: a5 = a2 if a2 == 0\n  9091: t1 = u64 [s1 + 0x48]\n  9094: t1 = t1 + a5\n  9097: a2 = t1 << 0x3b\n  9100: a0 = a4 >> 0x5\n  9103: a0 = a0 | a2\n  9106: a4 = a4 << 0x3b\n  9109: a2 = t2 >> 0x5\n  9112: a2 = a2 | a4\n  9115: a2 = a2 + ra\n  9118: u64 [s1 + 0x38] = a2\n  9121: a2 = a2 <u ra\n  9124: a4 = a3 + a2\n  9127: a4 = a4 + a0\n  9130: a0 = a4 ^ a3\n  9133: u64 [s1 + 0x30] = a4\n  9136: a3 = a4 <u a3\n  9139: a3 = a2 if a0 == 0\n  9142: a2 = u64 [s1 + 0x10]\n  9145: a0 = a2 <u t0\n  9148: a4 = u64 [s1 + 0x40]\n  9151: a0 = a0 + a4\n  9154: a2 = a2 >> 0x5\n  9157: a4 = a0 << 0x3b\n  9160: a2 = a2 | a4\n  9163: a4 = u64 [s1 + 0x28]\n  9166: t0 = u64 [a4]\n  9168: a4 = u64 [a4 + 0x8]\n  9171: a0 = a0 >> 0x5\n  9174: a2 = 0 if a1 != 0\n  9176: a0 = 0 if a1 != 0\n  9178: a1 = reverse a4\n  9180: a4 = reverse t0\n  9182: t0 = 326, jump @2355\n      : @297 [@dyn 163] (gas: 25)\n  9189: t0 = a0 + a2\n  9192: a0 = u64 [s1 + 0x48]\n  9195: a0 = t1 <u a0\n  9198: a2 = u64 [s1 + 0x20]\n  9201: a0 = a0 + a2\n  9204: a2 = t1 >> 0x5\n  9207: a5 = a0 << 0x3b\n  9210: a2 = a2 | a5\n  9213: ra = u64 [s1 + 0x58]\n  9216: a0 = a0 >> 0x5\n  9219: a0 = a0 + a4\n  9222: a4 = u64 [s1 + 0x50]\n  9225: a2 = a2 + a1\n  9228: a1 = a2 <u a1\n  9231: a0 = a0 + a1\n  9234: a3 = a3 + a2\n  9237: u64 [s1 + 0x28] = a3\n  9240: a1 = a3 <u a2\n  9243: a0 = a0 + a1\n  9246: u64 [s1 + 0x20] = a0\n  9249: a0 = sp + 0xffffffffffffffe0\n  9252: a5 = a0 & 0xffffffffffffffe0\n  9255: sp = a5\n  9257: u64 [s1 + 0x18] = a5\n  9260: fallthrough\n      : @298 (gas: 20)\n  9261: a0 = u64 [s1 + 0x38]\n  9264: a0 = ra <u a0\n  9267: a2 = u64 [s1 + 0x30]\n  9270: a1 = a4 ^ a2\n  9273: a2 = a4 <u a2\n  9276: a2 = a0 if a1 == 0\n  9279: a0 = u64 [s1 + 0x28]\n  9282: t1 = t2 <u a0\n  9285: a3 = u64 [s1 + 0x20]\n  9288: a1 = t0 ^ a3\n  9291: a3 = t0 <u a3\n  9294: a3 = t1 if a1 == 0\n  9297: a0 = t2 ^ a0\n  9300: a0 = a0 | a1\n  9303: a3 = a2 if a0 == 0\n  9306: u64 [a5] = ra\n  9308: u64 [a5 + 0x8] = a4\n  9311: u64 [a5 + 0x10] = t2\n  9314: u64 [a5 + 0x18] = t0\n  9317: jump @301 if a3 == 0\n      : @299 (gas: 11)\n  9320: u64 [s1 + 152] = 0\n  9324: u64 [s1 + 144] = 0\n  9328: u64 [s1 + 136] = 0\n  9332: u64 [s1 + 128] = 0\n  9336: a1 = s1 + 0x80\n  9340: a0 = a5\n  9342: u64 [s1 + 0x58] = ra\n  9345: u64 [s1 + 0x50] = a4\n  9348: u64 [s1 + 0x48] = t0\n  9351: u64 [s1 + 0x40] = t2\n  9354: ra = 328, jump @28\n      : @300 [@dyn 164] (gas: 15)\n  9360: a5 = u64 [s1 + 0x18]\n  9363: t0 = u64 [s1 + 0x48]\n  9366: a4 = u64 [s1 + 0x50]\n  9369: ra = u64 [s1 + 0x58]\n  9372: ra = ra + 0x1\n  9375: a0 = ra <u 0x1\n  9378: a4 = a4 + a0\n  9381: a0 = ra | a4\n  9384: a0 = a0 <u 0x1\n  9387: a1 = u64 [s1 + 0x40]\n  9390: a0 = a0 + a1\n  9393: a1 = a0 <u a1\n  9396: t0 = t0 + a1\n  9399: t2 = a0\n  9401: jump @298\n      : @301 (gas: 1)\n  9404: t0 = 330, jump @2350\n      : @302 [@dyn 165] (gas: 1)\n  9411: ret\n      : @303 (gas: 23)\n  9413: sp = sp + 0xfffffffffffffcc0\n  9417: a1 = sp + 0x300\n  9421: u64 [a1 + 0x38] = ra\n  9424: u64 [a1 + 0x30] = s0\n  9427: u64 [a1 + 0x28] = s1\n  9430: s0 = sp + 0x340\n  9434: sp = sp & 0xffffffffffffffe0\n  9437: s1 = sp\n  9439: a3 = u64 [a0 + 0x10]\n  9442: a4 = u64 [a0 + 0x18]\n  9445: a2 = u64 [a0 + 0x8]\n  9448: a1 = u64 [a0]\n  9450: u64 [s1 + 0x48] = a2\n  9453: u64 [s1 + 0x38] = a4\n  9456: a0 = a2 | a4\n  9459: a2 = a1 | a3\n  9462: a2 = a2 | a0\n  9465: a2 = a2 >> 0x20\n  9468: u64 [s1 + 0x40] = a3\n  9471: a0 = a0 | a3\n  9474: a0 = a0 << 0x20\n  9477: a0 = a0 | a2\n  9480: jump @345 if a0 != 0\n      : @304 (gas: 3)\n  9484: a0 = s1 + 0x220\n  9488: u64 [s1 + 0x50] = a1\n  9491: ra = 332, jump @22\n      : @305 [@dyn 166] (gas: 12)\n  9497: a3 = s1 + 0x200\n  9501: a1 = u64 [a3 + 0x38]\n  9504: a0 = u64 [a3 + 0x30]\n  9507: a2 = u64 [a3 + 0x28]\n  9510: u64 [s1 + 0x18] = a0\n  9513: u64 [s1 + 0x10] = a1\n  9516: a1 = a1 | a0\n  9519: u64 [s1 + 0x20] = a2\n  9522: a0 = a2 <u 0x1\n  9525: u64 [s1 + 0xb8] = a1\n  9529: a0 = 0 if a1 != 0\n  9531: jump @346 if a0 == 0\n      : @306 (gas: 11)\n  9535: a0 = u64 [s1 + 0x220]\n  9539: u64 [s1 + 0x28] = a0\n  9542: u64 [s1 + 600] = 0\n  9546: u64 [s1 + 592] = 0\n  9550: u64 [s1 + 584] = 0\n  9554: u64 [s1 + 576] = 0x4\n  9559: a0 = s1 + 0x200\n  9563: a1 = s1 + 0x240\n  9567: ra = 0x14e\n  9571: t0 = 0x6\n  9574: jump @2259\n      : @307 [@dyn 167] (gas: 12)\n  9578: a4 = s1 + 0x200\n  9582: a2 = u64 [a4]\n  9584: a0 = u64 [a4 + 0x8]\n  9587: a1 = u64 [a4 + 0x10]\n  9590: a3 = u64 [a4 + 0x18]\n  9593: u64 [s1 + 0x1d8] = a3\n  9597: u64 [s1 + 0x1d0] = a1\n  9601: u64 [s1 + 0x1c8] = a0\n  9605: a0 = s1 + 0x1e0\n  9609: a1 = s1 + 0x1c0\n  9613: u64 [s1 + 0x1c0] = a2\n  9617: ra = 336, jump @255\n      : @308 [@dyn 168] (gas: 28)\n  9623: a5 = s1 + 0x100\n  9627: a0 = u64 [a5 + 0xe0]\n  9631: a1 = u64 [a5 + 0xe8]\n  9635: a2 = u64 [a5 + 0xf0]\n  9639: a3 = u64 [a5 + 0xf8]\n  9643: a4 = u64 [s1 + 0x10]\n  9646: u64 [a5 + 0x78] = a4\n  9649: a4 = u64 [s1 + 0x18]\n  9652: u64 [a5 + 0x70] = a4\n  9655: a4 = u64 [s1 + 0x20]\n  9658: u64 [a5 + 0x68] = a4\n  9661: a4 = u64 [s1 + 0x28]\n  9664: u64 [a5 + 0x60] = a4\n  9667: u64 [a5 + 0x98] = a3\n  9671: u64 [a5 + 0x90] = a2\n  9675: u64 [a5 + 0x88] = a1\n  9679: u64 [a5 + 0x80] = a0\n  9683: u64 [s1 + 440] = 0\n  9687: u64 [s1 + 432] = 0\n  9691: u64 [s1 + 424] = 0\n  9695: a0 = s1 + 0x1a0\n  9699: a1 = s1 + 0x180\n  9703: a2 = s1 + 0x160\n  9707: a3 = 0x4\n  9710: u64 [a5 + 0xa0] = a3\n  9714: ra = 0x152\n  9718: t0 = 0x13c\n  9722: jump @2331\n      : @309 [@dyn 169] (gas: 4)\n  9726: a5 = u64 [s1 + 0x18]\n  9729: a3 = u64 [s1 + 0x28]\n  9732: a4 = u64 [s1 + 0x20]\n  9735: t0 = 340, jump @2357\n      : @310 [@dyn 170] (gas: 6)\n  9742: t0 = u64 [s1 + 0x10]\n  9745: a2 = t0 >u 0\n  9747: a2 = a0 if t0 == 0\n  9750: a0 = u64 [s1 + 0xb8]\n  9754: a2 = a1 if a0 == 0\n  9757: jump @321 if a2 == 0\n      : @311 (gas: 3)\n  9761: a3 = a3 & 0xffffffffffffffe0\n  9764: u64 [s1 + 0x30] = a3\n  9767: t0 = 342, jump @2303\n      : @312 [@dyn 171] (gas: 2)\n  9774: a0 = 0x4\n  9777: t0 = 344, jump @2334\n      : @313 [@dyn 172] (gas: 1)\n  9784: ra = 346, jump @269\n      : @314 [@dyn 173] (gas: 24)\n  9790: ra = 0\n  9792: u64 [s1 + 184] = 0\n  9796: u64 [s1 + 176] = 0\n  9800: t0 = 0\n  9802: u64 [s1 + 168] = 0\n  9806: a4 = s1 + 0x100\n  9810: a3 = u64 [a4 + 0x30]\n  9813: a0 = u64 [a4 + 0x38]\n  9816: a1 = u64 [a4 + 0x20]\n  9819: a2 = u64 [a4 + 0x28]\n  9822: u64 [s1 + 0x70] = a3\n  9825: a5 = u64 [s1 + 0xa0]\n  9829: u64 [a5 + 0x10] = a3\n  9832: t1 = a0\n  9834: u64 [a5 + 0x18] = a0\n  9837: u64 [s1 + 0x98] = a1\n  9841: u64 [a5] = a1\n  9843: a0 = a5\n  9845: a5 = a2\n  9847: u64 [a0 + 0x8] = a2\n  9850: a2 = 0\n  9852: a4 = 0\n  9854: t2 = 0x20\n  9857: fallthrough\n      : @315 (gas: 23)\n  9858: u64 [s1 + 0x90] = a5\n  9862: a0 = u64 [s1 + 0x30]\n  9865: u64 [s1 + 0x80] = a4\n  9869: a0 = a4 <u a0\n  9872: a4 = a0 ^ 0x1\n  9875: u64 [s1 + 0x78] = t0\n  9878: a4 = 0x1 if t0 != 0\n  9881: a0 = u64 [s1 + 0xa8]\n  9885: u64 [s1 + 0x88] = a2\n  9889: a0 = a0 | a2\n  9892: a4 = 0x1 if a0 != 0\n  9895: a1 = u64 [s1 + 0x50]\n  9898: a1 = a1 + t2\n  9901: a3 = u64 [s1 + 0x48]\n  9904: a3 = a3 + ra\n  9907: a2 = u64 [s1 + 0x40]\n  9910: a0 = u64 [s1 + 0xb8]\n  9914: a2 = a2 + a0\n  9917: a0 = u64 [s1 + 0x38]\n  9920: a5 = u64 [s1 + 0xb0]\n  9924: a0 = a0 + a5\n  9927: a5 = t2\n  9929: jump @325 if a4 != 0\n      : @316 (gas: 14)\n  9933: a4 = a1 <u a5\n  9936: a3 = a3 + a4\n  9939: u64 [s1 + 0x58] = a5\n  9942: t0 = a3 ^ ra\n  9945: u64 [s1 + 0x60] = ra\n  9948: a5 = a3 <u ra\n  9951: a5 = a4 if t0 == 0\n  9954: a5 = a5 + a2\n  9957: t0 = a5 <u a2\n  9960: a4 = u64 [s1 + 0xb8]\n  9964: a2 = a2 <u a4\n  9967: a0 = a0 + a2\n  9970: a0 = a0 + t0\n  9973: t0 = 348, jump @2240\n      : @317 [@dyn 174] (gas: 2)\n  9980: u64 [s1 + 0x68] = t1\n  9983: jump @345 if a0 != 0\n      : @318 (gas: 2)\n  9987: a0 = s1 + 0xc0\n  9991: ra = 350, jump @22\n      : @319 [@dyn 175] (gas: 12)\n  9997: a0 = u64 [s1 + 0xd8]\n 10001: a1 = u64 [s1 + 0xd0]\n 10005: a2 = u64 [s1 + 0xc8]\n 10009: a3 = u64 [s1 + 0xc0]\n 10013: a4 = s1 + 0x200\n 10017: u64 [a4 + 0x78] = a0\n 10020: u64 [a4 + 0x70] = a1\n 10023: u64 [a4 + 0x68] = a2\n 10026: u64 [a4 + 0x60] = a3\n 10029: a1 = s1 + 0x260\n 10033: a0 = u64 [s1 + 0xa0]\n 10037: ra = 352, jump @28\n      : @320 [@dyn 176] (gas: 55)\n 10043: t0 = u64 [s1 + 0x98]\n 10047: t0 = t0 + 0x1\n 10050: a0 = t0 <u 0x1\n 10053: t1 = u64 [s1 + 0x90]\n 10057: t1 = t1 + a0\n 10060: a0 = t0 | t1\n 10063: a0 = a0 <u 0x1\n 10066: a1 = u64 [s1 + 0x70]\n 10069: a0 = a0 + a1\n 10072: a1 = a0 <u a1\n 10075: t2 = u64 [s1 + 0x68]\n 10078: t2 = t2 + a1\n 10081: a1 = u64 [s1 + 0x58]\n 10084: a2 = a1 + 0x20\n 10087: u64 [s1 + 0x90] = a2\n 10091: a3 = a2 <u a1\n 10094: a1 = u64 [s1 + 0x60]\n 10097: a2 = a1 + a3\n 10100: u64 [s1 + 0x68] = a2\n 10103: a4 = a2 <u a1\n 10106: a4 = a3 if a3 == 0\n 10109: a1 = u64 [s1 + 0xb8]\n 10113: ra = a1 + a4\n 10116: a4 = ra <u a1\n 10119: a1 = u64 [s1 + 0xb0]\n 10123: a1 = a1 + a4\n 10126: u64 [s1 + 0xb0] = a1\n 10130: a1 = u64 [s1 + 0x80]\n 10134: a4 = a1 + 0x20\n 10137: a5 = a4 <u a1\n 10140: a2 = u64 [s1 + 0x78]\n 10143: a1 = a2 + a5\n 10146: a2 = a1 <u a2\n 10149: a2 = a5 if a5 == 0\n 10152: a3 = u64 [s1 + 0x88]\n 10156: a2 = a2 + a3\n 10159: a5 = a2 <u a3\n 10162: a3 = u64 [s1 + 0xa8]\n 10166: a3 = a3 + a5\n 10169: u64 [s1 + 0xa8] = a3\n 10173: a5 = t1\n 10175: a3 = u64 [s1 + 0xa0]\n 10179: u64 [a3 + 0x8] = t1\n 10182: u64 [s1 + 0x98] = t0\n 10186: u64 [a3] = t0\n 10188: u64 [a3 + 0x10] = a0\n 10191: t1 = t2\n 10193: u64 [a3 + 0x18] = t2\n 10196: u64 [s1 + 0x70] = a0\n 10199: t2 = u64 [s1 + 0x90]\n 10203: a0 = u64 [s1 + 0x68]\n 10206: u64 [s1 + 0xb8] = ra\n 10210: ra = a0\n 10212: t0 = a1\n 10214: jump @315\n      : @321 (gas: 4)\n 10217: a0 = a3 | a5\n 10220: a1 = a4 | t0\n 10223: a0 = a0 | a1\n 10226: jump @337 if a0 == 0\n      : @322 (gas: 10)\n 10230: a0 = u64 [s1 + 0x40]\n 10233: a1 = u64 [s1 + 0x38]\n 10236: a0 = a0 | a1\n 10239: a1 = 0xffffffe0\n 10249: a2 = u64 [s1 + 0x50]\n 10252: a1 = a2 <u a1\n 10255: a3 = u64 [s1 + 0x48]\n 10258: a1 = 0 if a3 != 0\n 10260: a1 = 0 if a0 != 0\n 10262: jump @345 if a1 == 0\n      : @323 (gas: 3)\n 10266: i32 a1 = a2 + 0x20\n 10269: a0 = s1 + 0x140\n 10273: ra = 354, jump @22\n      : @324 [@dyn 177] (gas: 14)\n 10279: a1 = s1 + 0x100\n 10283: a0 = u64 [a1 + 0x58]\n 10286: u64 [s1 + 0xb0] = a0\n 10290: a0 = u64 [a1 + 0x50]\n 10293: u64 [s1 + 0xa8] = a0\n 10297: a0 = u64 [a1 + 0x48]\n 10300: u64 [s1 + 0x98] = a0\n 10304: a0 = u64 [a1 + 0x40]\n 10307: u64 [s1 + 0xa0] = a0\n 10311: a3 = u64 [s1 + 0x28]\n 10314: a4 = u64 [s1 + 0x20]\n 10317: a2 = u64 [s1 + 0x18]\n 10320: t0 = u64 [s1 + 0x10]\n 10323: jump @338\n      : @325 (gas: 12)\n 10326: t2 = ra\n 10328: ra = a5\n 10330: t0 = u64 [s1 + 0x28]\n 10333: a4 = u64 [s1 + 0x30]\n 10336: a4 = a4 ^ t0\n 10339: a5 = u64 [s1 + 0x18]\n 10342: t1 = a4 | a5\n 10345: a5 = u64 [s1 + 0x20]\n 10348: a4 = u64 [s1 + 0x10]\n 10351: a5 = a5 | a4\n 10354: a4 = t1 | a5\n 10357: jump @336 if a4 == 0\n      : @326 (gas: 12)\n 10361: a4 = a1 <u ra\n 10364: a3 = a3 + a4\n 10367: t0 = a3 ^ t2\n 10370: a5 = a3 <u t2\n 10373: a5 = a4 if t0 == 0\n 10376: a5 = a5 + a2\n 10379: t0 = a5 <u a2\n 10382: a4 = u64 [s1 + 0xb8]\n 10386: a2 = a2 <u a4\n 10389: a0 = a0 + a2\n 10392: a0 = a0 + t0\n 10395: t0 = 356, jump @2240\n      : @327 [@dyn 178] (gas: 1)\n 10402: jump @345 if a0 != 0\n      : @328 (gas: 2)\n 10406: a0 = s1 + 0xe0\n 10410: ra = 358, jump @22\n      : @329 [@dyn 179] (gas: 1)\n 10416: t0 = 360, jump @2227\n      : @330 [@dyn 180] (gas: 1)\n 10423: ra = 362, jump @2379\n      : @331 [@dyn 181] (gas: 6)\n 10430: u64 [s1 + 0x88] = a0\n 10434: u64 [s1 + 0x70] = a1\n 10437: a0 = 0xffffffffffffffff\n 10440: a1 = 0xffffffffffffffff\n 10443: a2 = u64 [s1 + 0xb8]\n 10447: ra = 364, jump @2374\n      : @332 [@dyn 182] (gas: 1)\n 10454: t0 = 366, jump @2285\n      : @333 [@dyn 183] (gas: 1)\n 10461: ra = 368, jump @2374\n      : @334 [@dyn 184] (gas: 29)\n 10468: a4 = u64 [s1 + 0xb8]\n 10472: a2 = a4 <u 0x80\n 10476: a3 = u64 [s1 + 0x70]\n 10479: a1 = a3 if a2 != 0\n 10482: a5 = u64 [s1 + 0x78]\n 10485: a3 = u64 [s1 + 0x88]\n 10489: a3 = a3 | a5\n 10492: a3 = a0 if a2 == 0\n 10495: a1 = 0xffffffffffffffff if a4 == 0\n 10498: a3 = 0xffffffffffffffff if a4 == 0\n 10501: a4 = u64 [s1 + 0x80]\n 10505: a4 = 0 if a2 == 0\n 10507: a5 = 0 if a2 == 0\n 10509: a0 = u64 [s1 + 0x90]\n 10513: a0 = a0 & ~a3\n 10516: a2 = u64 [s1 + 0x98]\n 10520: a1 = a2 & ~a1\n 10523: a2 = u64 [s1 + 0xa8]\n 10527: a2 = a2 & ~a5\n 10530: a3 = u64 [s1 + 0xb0]\n 10534: a3 = a3 & ~a4\n 10537: a4 = s1 + 0x200\n 10541: u64 [a4 + 0x98] = a3\n 10545: u64 [a4 + 0x90] = a2\n 10549: u64 [a4 + 0x88] = a1\n 10553: u64 [a4 + 0x80] = a0\n 10557: a1 = s1 + 0x280\n 10561: a0 = u64 [s1 + 0xa0]\n 10565: ra = 370, jump @28\n      : @335 [@dyn 185] (gas: 2)\n 10571: t0 = u64 [s1 + 0x28]\n 10574: fallthrough\n      : @336 (gas: 27)\n 10575: a2 = u64 [s1 + 0x18]\n 10578: a0 = a2 >> 0x3f\n 10581: a1 = u64 [s1 + 0x10]\n 10584: a1 = a1 << 0x1\n 10587: a0 = a0 | a1\n 10590: a3 = u64 [s1 + 0x20]\n 10593: a1 = a3 >> 0x3f\n 10596: a2 = a2 << 0x1\n 10599: a1 = a1 | a2\n 10602: a2 = t0 >> 0x3f\n 10605: a3 = a3 << 0x1\n 10608: a2 = a2 | a3\n 10611: a3 = t0 << 0x1\n 10614: a3 = a3 + 0x1\n 10617: u64 [s1 + 696] = 0\n 10621: u64 [s1 + 688] = 0\n 10625: u64 [s1 + 680] = 0\n 10629: a5 = s1 + 0x200\n 10633: u64 [a5 + 160] = 0x4\n 10638: u64 [a5 + 0xc0] = a3\n 10642: u64 [a5 + 0xc8] = a2\n 10646: u64 [a5 + 0xd0] = a1\n 10650: u64 [a5 + 0xd8] = a0\n 10654: a0 = s1 + 0x2a0\n 10658: a1 = s1 + 0x2c0\n 10662: ra = 0x17e\n 10666: jump @28\n      : @337 (gas: 6)\n 10669: a2 = a5\n 10671: u64 [s1 + 160] = 0\n 10675: u64 [s1 + 152] = 0\n 10679: u64 [s1 + 168] = 0\n 10683: u64 [s1 + 176] = 0\n 10687: fallthrough\n      : @338 (gas: 20)\n 10688: a0 = a4 >> 0x3f\n 10691: a1 = a2 << 0x1\n 10694: a0 = a0 | a1\n 10697: u64 [s1 + 0x90] = a0\n 10701: a0 = a2 >> 0x3f\n 10704: a1 = t0 << 0x1\n 10707: a0 = a0 | a1\n 10710: u64 [s1 + 0x88] = a0\n 10714: a0 = a3 >> 0x3f\n 10717: a1 = a4 << 0x1\n 10720: a0 = a0 | a1\n 10723: u64 [s1 + 0x80] = a0\n 10727: a0 = a3 << 0x1\n 10730: u64 [s1 + 0x78] = a0\n 10733: a1 = a3 << 0x3\n 10736: u64 [s1 + 0xb8] = a1\n 10740: i32 a2 = 0x80 - a1\n 10744: a0 = 0xffffffffffffffff\n 10747: a1 = 0xffffffffffffffff\n 10750: ra = 372, jump @2379\n      : @339 [@dyn 186] (gas: 7)\n 10757: u64 [s1 + 0x58] = a0\n 10760: u64 [s1 + 0x70] = a1\n 10763: a0 = u64 [s1 + 0x28]\n 10766: i32 a2 = a0 << 0x3\n 10769: a0 = 0xffffffffffffffff\n 10772: a1 = 0xffffffffffffffff\n 10775: ra = 374, jump @2374\n      : @340 [@dyn 187] (gas: 10)\n 10782: u64 [s1 + 0x68] = a0\n 10785: u64 [s1 + 0x60] = a1\n 10788: a1 = u64 [s1 + 0x58]\n 10791: a0 = a0 | a1\n 10794: u64 [s1 + 0x58] = a0\n 10797: a0 = u64 [s1 + 0xb8]\n 10801: i32 a2 = a0 + 0xffffffffffffff80\n 10804: a0 = 0xffffffffffffffff\n 10807: a1 = 0xffffffffffffffff\n 10810: ra = 376, jump @2374\n      : @341 [@dyn 188] (gas: 7)\n 10817: a4 = u64 [s1 + 0xb8]\n 10821: a2 = a4 <u 0x80\n 10825: a3 = u64 [s1 + 0x58]\n 10828: a0 = a3 if a2 != 0\n 10831: a5 = u64 [s1 + 0x60]\n 10834: a3 = u64 [s1 + 0x70]\n 10837: t0 = 378, jump @2361\n      : @342 [@dyn 189] (gas: 25)\n 10844: a4 = u64 [s1 + 0x68]\n 10847: a4 = 0 if a2 == 0\n 10849: a1 = u64 [s1 + 0x98]\n 10853: a1 = a1 & ~a3\n 10856: a2 = u64 [s1 + 0xa0]\n 10860: a0 = a2 & ~a0\n 10863: a2 = u64 [s1 + 0xa8]\n 10867: a2 = a2 & ~a4\n 10870: a3 = u64 [s1 + 0xb0]\n 10874: a3 = a3 & ~a5\n 10877: a4 = u64 [s1 + 0x78]\n 10880: a0 = a0 | a4\n 10883: a4 = u64 [s1 + 0x80]\n 10887: a1 = a1 | a4\n 10890: a4 = u64 [s1 + 0x88]\n 10894: a3 = a3 | a4\n 10897: a4 = u64 [s1 + 0x90]\n 10901: a2 = a2 | a4\n 10904: u64 [s1 + 736] = 0x4\n 10909: a4 = s1 + 0x300\n 10913: u64 [a4 + 0x10] = a2\n 10916: u64 [a4 + 0x18] = a3\n 10919: u64 [a4 + 0x8] = a1\n 10922: u64 [a4] = a0\n 10924: t0 = 380, jump @2368\n      : @343 [@dyn 190] (gas: 3)\n 10931: a0 = s1 + 0x2e0\n 10935: a1 = s1 + 0x300\n 10939: ra = 382, jump @28\n      : @344 [@dyn 191] (gas: 7)\n 10945: sp = s0 + 0xfffffffffffffcc0\n 10949: a0 = sp + 0x300\n 10953: ra = u64 [a0 + 0x38]\n 10956: s0 = u64 [a0 + 0x30]\n 10959: s1 = u64 [a0 + 0x28]\n 10962: sp = sp + 0x340\n 10966: ret\n      : @345 (gas: 1)\n 10968: trap\n      : @346 (gas: 3)\n 10969: ra = 0x180\n 10973: t0 = 0x86\n 10977: jump @2232\n      : @347 [@dyn 192] (gas: 20)\n 10981: sp = sp + 0xfffffffffffffc40\n 10985: a2 = sp + 0x300\n 10989: u64 [a2 + 0xb8] = ra\n 10993: u64 [a2 + 0xb0] = s0\n 10997: u64 [a2 + 0xa8] = s1\n 11001: s0 = sp + 0x3c0\n 11005: sp = sp & 0xffffffffffffffe0\n 11008: s1 = sp\n 11010: a2 = u64 [a0 + 0x10]\n 11013: a3 = u64 [a0 + 0x8]\n 11016: a4 = u64 [a0]\n 11018: u64 [s1 + 0x40] = a2\n 11021: a2 = a2 << 0x20\n 11024: a5 = a2 >> 0x20\n 11027: u64 [s1 + 0x78] = a3\n 11030: u64 [s1 + 0x70] = a4\n 11033: a2 = a4 | a3\n 11036: u64 [s1 + 0x60] = a5\n 11039: a2 = a2 | a5\n 11042: jump @373 if a2 == 0\n      : @348 (gas: 19)\n 11046: a2 = u64 [a1 + 0x18]\n 11049: u64 [s1 + 0x98] = a2\n 11053: a2 = u64 [a1 + 0x10]\n 11056: u64 [s1 + 0x90] = a2\n 11060: a2 = u64 [a1 + 0x8]\n 11063: u64 [s1 + 0x88] = a2\n 11067: a1 = u64 [a1]\n 11069: u64 [s1 + 0x80] = a1\n 11073: a0 = u64 [a0 + 0x18]\n 11076: u64 [s1 + 0x38] = a0\n 11079: u64 [s1 + 824] = 0\n 11083: u64 [s1 + 816] = 0\n 11087: u64 [s1 + 808] = 0\n 11091: u64 [s1 + 800] = 0x2\n 11096: a0 = s1 + 0x300\n 11100: a1 = s1 + 0x320\n 11104: ra = 0x182\n 11108: t0 = 0x6\n 11111: jump @2259\n      : @349 [@dyn 193] (gas: 38)\n 11115: t2 = u64 [s1 + 0x318]\n 11119: a1 = s1 + 0x300\n 11123: a0 = u64 [a1 + 0x10]\n 11126: a4 = u64 [a1]\n 11128: a5 = u64 [a1 + 0x8]\n 11131: a1 = sp + 0xffffffffffffffe0\n 11134: a1 = a1 & 0xffffffffffffffe0\n 11137: sp = a1\n 11139: a3 = u64 [s1 + 0x88]\n 11143: a3 = a3 + a5\n 11146: t0 = u64 [s1 + 0x80]\n 11150: t0 = t0 + a4\n 11153: a4 = t0 <u a4\n 11156: a3 = a3 + a4\n 11159: t1 = a3 ^ a5\n 11162: a2 = a3 <u a5\n 11165: a2 = a4 if t1 == 0\n 11168: a4 = u64 [s1 + 0x90]\n 11172: a4 = a4 + a0\n 11175: a5 = a4 + a2\n 11178: t1 = a5 <u a4\n 11181: ra = u64 [s1 + 0x98]\n 11185: ra = ra + t2\n 11188: a4 = a4 <u a0\n 11191: a4 = a4 + ra\n 11194: ra = a4 + t1\n 11197: t1 = a5 <u a0\n 11200: a4 = t2 ^ ra\n 11203: t2 = ra <u t2\n 11206: t2 = t1 if a4 == 0\n 11209: a0 = a0 ^ a5\n 11212: a0 = a0 | a4\n 11215: t2 = a2 if a0 == 0\n 11218: u64 [a1 + 0x10] = a5\n 11221: u64 [a1 + 0x8] = a3\n 11224: u64 [a1] = t0\n 11226: u64 [a1 + 0x18] = ra\n 11229: jump @372 if t2 != 0\n      : @350 (gas: 6)\n 11233: u64 [s1 + 856] = 0\n 11237: u64 [s1 + 848] = 0\n 11241: u64 [s1 + 840] = 0\n 11245: u64 [s1 + 832] = 0x2\n 11250: a0 = s1 + 0x340\n 11254: ra = 388, jump @28\n      : @351 [@dyn 194] (gas: 15)\n 11260: a0 = sp + 0xffffffffffffffe0\n 11263: a0 = a0 & 0xffffffffffffffe0\n 11266: u64 [s1 + 0x68] = a0\n 11269: sp = a0\n 11271: u64 [s1 + 760] = 0\n 11275: a0 = u64 [s1 + 0x60]\n 11278: a2 = s1 + 0x200\n 11282: u64 [a2 + 0xf0] = a0\n 11286: a0 = u64 [s1 + 0x78]\n 11289: u64 [a2 + 0xe8] = a0\n 11293: a1 = s1 + 0x2e0\n 11297: a0 = u64 [s1 + 0x70]\n 11300: u64 [a2 + 0xe0] = a0\n 11304: a0 = 0\n 11306: ra = 390, jump @24\n      : @352 [@dyn 195] (gas: 1)\n 11312: t0 = 392, jump @2286\n      : @353 [@dyn 196] (gas: 4)\n 11319: a0 = 0x20\n 11322: a1 = s1 + 0x2c0\n 11326: u64 [s1 + 704] = 0\n 11330: ra = 394, jump @24\n      : @354 [@dyn 197] (gas: 3)\n 11336: a2 = 0x20150\n 11341: a0 = i32 [0x20150]\n 11346: jump @356 if a0 >u 63\n      : @355 (gas: 2)\n 11350: u32 [0x20150] = 0x40\n 11356: fallthrough\n      : @356 (gas: 29)\n 11357: u64 [s1 + 0x20] = a2\n 11360: a0 = sp + 0xffffffffffffffe0\n 11363: a2 = a0 & 0xffffffffffffffe0\n 11366: u64 [s1 + 0x58] = a2\n 11369: sp = a2\n 11371: a0 = 0x20160\n 11376: i32 a0 = a0 + 0\n 11378: i32 a2 = a2 + 0\n 11380: a1 = 0x40\n 11383: u64 [s1 + 0x18] = a0\n 11386: ecalli 11 // 'hash_keccak_256'\n 11388: a3 = u64 [s1 + 0x58]\n 11391: a0 = u64 [a3 + 0x18]\n 11394: a1 = u64 [a3 + 0x10]\n 11397: a2 = u64 [a3 + 0x8]\n 11400: a3 = u64 [a3]\n 11402: a0 = reverse a0\n 11404: a4 = reverse a1\n 11406: a2 = reverse a2\n 11408: a3 = reverse a3\n 11410: a1 = u64 [s1 + 0x68]\n 11413: u64 [a1 + 0x18] = a3\n 11416: u64 [a1 + 0x10] = a2\n 11419: u64 [a1 + 0x8] = a4\n 11422: u64 [a1] = a0\n 11424: a0 = s1 + 0x2a0\n 11428: ra = 0x18c\n 11432: t0 = 0x6\n 11435: jump @2259\n      : @357 [@dyn 198] (gas: 30)\n 11439: a0 = u64 [s1 + 0x2a8]\n 11443: a1 = u64 [s1 + 0x2a0]\n 11447: t0 = u64 [s1 + 0x2b8]\n 11451: a3 = u64 [s1 + 0x2b0]\n 11455: a4 = u64 [s1 + 0x88]\n 11459: a4 = a4 + a0\n 11462: a5 = u64 [s1 + 0x80]\n 11466: a5 = a5 + a1\n 11469: a1 = a5 <u a1\n 11472: a4 = a4 + a1\n 11475: a2 = a4 ^ a0\n 11478: a0 = a4 <u a0\n 11481: a0 = a1 if a2 == 0\n 11484: a1 = u64 [s1 + 0x90]\n 11488: a1 = a1 + a3\n 11491: a2 = u64 [s1 + 0x98]\n 11495: t0 = t0 + a2\n 11498: a2 = a1 <u a3\n 11501: a2 = a2 + t0\n 11504: a0 = a0 + a1\n 11507: a1 = a0 <u a1\n 11510: a1 = a1 + a2\n 11513: a2 = s1 + 0x300\n 11517: u64 [a2 + 0x60] = a5\n 11520: u64 [a2 + 0x68] = a4\n 11523: u64 [a2 + 0x70] = a0\n 11526: u64 [a2 + 0x78] = a1\n 11529: a1 = s1 + 0x360\n 11533: a0 = u64 [s1 + 0x68]\n 11536: ra = 398, jump @28\n      : @358 [@dyn 199] (gas: 3)\n 11542: a0 = s1 + 0x280\n 11546: a1 = 0x40\n 11549: ra = 400, jump @22\n      : @359 [@dyn 200] (gas: 25)\n 11555: a5 = s1 + 0x200\n 11559: a2 = u64 [a5 + 0x98]\n 11563: u64 [s1 + 0x58] = a2\n 11566: a1 = u64 [a5 + 0x90]\n 11570: u64 [s1 + 0x50] = a1\n 11573: a3 = u64 [a5 + 0x88]\n 11577: u64 [s1 + 0x48] = a3\n 11580: a4 = u64 [a5 + 0x80]\n 11584: u64 [s1 + 0x68] = a4\n 11587: a0 = u64 [s1 + 0x98]\n 11591: u64 [a5 + 0x38] = a0\n 11594: a0 = u64 [s1 + 0x90]\n 11598: u64 [a5 + 0x30] = a0\n 11601: a0 = u64 [s1 + 0x88]\n 11605: u64 [a5 + 0x28] = a0\n 11608: a0 = u64 [s1 + 0x80]\n 11612: u64 [a5 + 0x20] = a0\n 11615: u64 [a5 + 0x58] = a2\n 11618: u64 [a5 + 0x50] = a1\n 11621: u64 [a5 + 0x48] = a3\n 11624: a0 = s1 + 0x260\n 11628: a1 = s1 + 0x240\n 11632: a2 = s1 + 0x220\n 11636: u64 [a5 + 0x40] = a4\n 11639: ra = 402, jump @558\n      : @360 [@dyn 201] (gas: 7)\n 11645: a2 = u64 [s1 + 0x48]\n 11648: a0 = u64 [s1 + 0x58]\n 11651: a0 = a0 | a2\n 11654: a3 = u64 [s1 + 0x50]\n 11657: a1 = u64 [s1 + 0x68]\n 11660: a1 = a1 | a3\n 11663: t0 = 404, jump @2313\n      : @361 [@dyn 202] (gas: 1)\n 11670: jump @371 if a0 != 0\n      : @362 (gas: 27)\n 11674: ra = a3\n 11676: a4 = s1 + 0x200\n 11680: a0 = u64 [a4 + 0x68]\n 11683: a1 = u64 [a4 + 0x78]\n 11686: u64 [s1 + 0x30] = a1\n 11689: t1 = u64 [s1 + 0x260]\n 11693: a3 = u64 [a4 + 0x70]\n 11696: a4 = a0 ^ a2\n 11699: a5 = a0 <u a2\n 11702: t0 = u64 [s1 + 0x68]\n 11705: a1 = t1 <u t0\n 11708: a5 = a1 if a4 == 0\n 11711: a4 = a3 - ra\n 11714: t2 = a4 - a5\n 11717: a4 = a4 <u a5\n 11720: u64 [s1 + 0x28] = a4\n 11723: a3 = a3 <u ra\n 11726: a5 = u64 [s1 + 0x58]\n 11729: a4 = u64 [s1 + 0x30]\n 11732: a5 = a4 - a5\n 11735: a5 = a5 - a3\n 11738: a3 = u64 [s1 + 0x28]\n 11741: a5 = a5 - a3\n 11744: a0 = a0 - a2\n 11747: a0 = a0 - a1\n 11750: a1 = t1 - t0\n 11753: t0 = 406, jump @2220\n      : @363 [@dyn 203] (gas: 3)\n 11760: a5 = u64 [s1 + 0x78]\n 11763: t0 = u64 [s1 + 0x70]\n 11766: jump @371 if a0 != 0\n      : @364 (gas: 3)\n 11770: u64 [s1 + 472] = 0\n 11774: u64 [s1 + 0x1c0] = t0\n 11778: t0 = 408, jump @2359\n      : @365 [@dyn 204] (gas: 18)\n 11785: u64 [s1 + 480] = 0\n 11789: u64 [s1 + 0x1c8] = a5\n 11793: a0 = u64 [0x20000]\n 11798: a2 = u64 [0x20008]\n 11803: a3 = u64 [0x20010]\n 11808: a4 = u64 [0x20018]\n 11813: a5 = s1 + 0x200\n 11817: u64 [a5 + 0x18] = a0\n 11820: u64 [a5 + 0x10] = a2\n 11823: u64 [a5 + 0x8] = a3\n 11826: u64 [a5] = a4\n 11828: a2 = s1 + 0x200\n 11832: a3 = s1 + 0x1e0\n 11836: a4 = s1 + 0x1c0\n 11840: a0 = u64 [s1 + 0x60]\n 11843: u64 [s1 + 0x1d0] = a0\n 11847: a0 = u64 [s1 + 0x68]\n 11850: ra = 410, jump @32\n      : @366 [@dyn 205] (gas: 1)\n 11856: t0 = 412, jump @2358\n      : @367 [@dyn 206] (gas: 6)\n 11863: u64 [s1 + 896] = 0x2\n 11868: a0 = s1 + 0x1a0\n 11872: a1 = s1 + 0x380\n 11876: ra = 0x19e\n 11880: t0 = 0x6\n 11883: jump @2259\n      : @368 [@dyn 207] (gas: 9)\n 11887: a3 = u64 [s1 + 0x1b8]\n 11891: a2 = u64 [s1 + 0x1b0]\n 11895: a4 = 0xffff\n 11900: a0 = a3 ^ a4\n 11903: a0 = a0 | ~a2\n 11906: a1 = a3 >> 0x10\n 11909: a1 = a1 >u 0\n 11911: a1 = 0 if a0 == 0\n 11913: jump @378 if a1 != 0\n      : @369 (gas: 51)\n 11917: a0 = u64 [s1 + 0x80]\n 11921: a3 = s1 + 0x100\n 11925: u64 [a3 + 0x60] = a0\n 11928: a0 = u64 [s1 + 0x70]\n 11931: u64 [a3 + 0x80] = a0\n 11935: a0 = u64 [s1 + 0x88]\n 11939: u64 [a3 + 0x68] = a0\n 11942: a0 = u64 [s1 + 0x78]\n 11945: u64 [a3 + 0x88] = a0\n 11949: a0 = u64 [s1 + 0x90]\n 11953: u64 [a3 + 0x70] = a0\n 11956: a0 = u64 [s1 + 0x40]\n 11959: u64 [a3 + 0x90] = a0\n 11963: a0 = u64 [s1 + 0x98]\n 11967: u64 [a3 + 0x78] = a0\n 11970: a0 = s1 + 0x180\n 11974: a1 = s1 + 0x160\n 11978: a2 = u64 [s1 + 0x38]\n 11981: u64 [a3 + 0x98] = a2\n 11985: ra = 0x1a0\n 11989: sp = sp + 0xfffffffffffffaa0\n 11993: a2 = sp + 0x500\n 11997: u64 [a2 + 0x58] = ra\n 12000: u64 [a2 + 0x50] = s0\n 12003: u64 [a2 + 0x48] = s1\n 12006: s0 = sp + 0x560\n 12010: sp = sp & 0xffffffffffffffe0\n 12013: s1 = sp\n 12015: a2 = u64 [a0 + 0x10]\n 12018: u64 [s1 + 0x48] = a2\n 12021: a2 = u64 [a0 + 0x8]\n 12024: u64 [s1 + 0x50] = a2\n 12027: a0 = u64 [a0]\n 12029: u64 [s1 + 0x58] = a0\n 12032: a2 = u64 [a1]\n 12034: a0 = u64 [a1 + 0x8]\n 12037: a3 = u64 [a1 + 0x10]\n 12040: a1 = u64 [a1 + 0x18]\n 12043: u64 [s1 + 0x60] = a1\n 12046: u64 [s1 + 0x438] = a1\n 12050: u64 [s1 + 0x68] = a3\n 12053: u64 [s1 + 0x430] = a3\n 12057: u64 [s1 + 0x70] = a0\n 12060: u64 [s1 + 0x428] = a0\n 12064: a0 = s1 + 0x440\n 12068: a1 = s1 + 0x420\n 12072: u64 [s1 + 0x78] = a2\n 12075: u64 [s1 + 0x420] = a2\n 12079: ra = 0x29a\n 12083: t0 = 0x2e4\n 12087: jump @2372\n      : @370 [@dyn 208] (gas: 7)\n 12091: sp = s0 + 0xfffffffffffffc40\n 12095: a0 = sp + 0x300\n 12099: ra = u64 [a0 + 0xb8]\n 12103: s0 = u64 [a0 + 0xb0]\n 12107: s1 = u64 [a0 + 0xa8]\n 12111: sp = sp + 0x3c0\n 12115: ret\n      : @371 (gas: 1)\n 12117: trap\n      : @372 (gas: 3)\n 12118: ra = 0x1a2\n 12122: t0 = 0x28e\n 12126: jump @2232\n      : @373 [@dyn 209] (gas: 8)\n 12130: u64 [s1 + 208] = 0\n 12134: u64 [s1 + 200] = 0\n 12138: u64 [s1 + 192] = 0\n 12142: a0 = 0xec442f0500000000\n 12152: a1 = s1 + 0xc0\n 12156: u64 [s1 + 0xd8] = a0\n 12160: a0 = 0\n 12162: ra = 420, jump @24\n      : @374 [@dyn 210] (gas: 7)\n 12168: u64 [s1 + 184] = 0\n 12172: u64 [s1 + 176] = 0\n 12176: u64 [s1 + 168] = 0\n 12180: a0 = 0x4\n 12183: a1 = s1 + 0xa0\n 12187: u64 [s1 + 160] = 0\n 12191: ra = 422, jump @24\n      : @375 [@dyn 211] (gas: 2)\n 12197: a1 = i32 [0x20150]\n 12202: jump @377 if a1 >u 63\n      : @376 (gas: 2)\n 12206: u32 [0x20150] = 0x40\n 12212: fallthrough\n      : @377 (gas: 6)\n 12213: a1 = 0x20160\n 12218: i32 a1 = a1 + 0\n 12220: a0 = 0x1\n 12223: a2 = 0x24\n 12226: ecalli 16 // 'seal_return'\n 12228: fallthrough\n      : @378 (gas: 15)\n 12229: a0 = u64 [s1 + 0x1a8]\n 12233: u64 [s1 + 0x90] = a0\n 12237: a0 = u64 [s1 + 0x1a0]\n 12241: u64 [s1 + 0x98] = a0\n 12245: u64 [s1 + 336] = 0\n 12249: u64 [s1 + 328] = 0\n 12253: u64 [s1 + 320] = 0\n 12257: a0 = 0x1cb15d2600000000\n 12267: a1 = s1 + 0x140\n 12271: u64 [s1 + 0x158] = a0\n 12275: a0 = 0\n 12277: u64 [s1 + 0x88] = a2\n 12281: u64 [s1 + 0x80] = a3\n 12285: u64 [s1 + 0x78] = a4\n 12288: ra = 424, jump @24\n      : @379 [@dyn 212] (gas: 20)\n 12294: a0 = u64 [s1 + 0x78]\n 12297: u64 [s1 + 0xf8] = a0\n 12301: u64 [s1 + 240] = 0xffffffffffffffff\n 12306: u64 [s1 + 232] = 0xffffffffffffffff\n 12311: u64 [s1 + 224] = 0xffffffffffffffff\n 12316: a0 = u64 [s1 + 0x80]\n 12320: a4 = s1 + 0x100\n 12324: u64 [a4 + 0x18] = a0\n 12327: a0 = u64 [s1 + 0x88]\n 12331: u64 [a4 + 0x10] = a0\n 12334: a0 = u64 [s1 + 0x90]\n 12338: u64 [a4 + 0x8] = a0\n 12341: a0 = s1 + 0x120\n 12345: a1 = s1 + 0x100\n 12349: a2 = s1 + 0xe0\n 12353: a3 = u64 [s1 + 0x98]\n 12357: u64 [a4] = a3\n 12359: ra = 0x1aa\n 12363: t0 = 0x280\n 12367: jump @2367\n      : @380 [@dyn 213] (gas: 3)\n 12371: a0 = u64 [s1 + 0x20]\n 12374: a0 = i32 [a0]\n 12376: jump @382 if a0 >u 95\n      : @381 (gas: 3)\n 12380: a1 = u64 [s1 + 0x20]\n 12383: u32 [a1 + 0] = 0x60\n 12386: fallthrough\n      : @382 (gas: 7)\n 12387: a0 = 0x1\n 12390: a2 = 0x44\n 12393: a1 = u64 [s1 + 0x18]\n 12396: ra = 0x1ac\n 12400: ecalli 16 // 'seal_return'\n 12402: t0 = 0x1ae\n 12406: jump @2235\n      : @383 [@dyn 214] (gas: 1)\n 12410: t0 = 430, jump @2235\n      : @384 [@dyn 215] (gas: 1)\n 12417: jump @428 if a2 != 0\n      : @385 (gas: 3)\n 12421: a0 = s1 + 0x240\n 12425: u64 [s1 + 0x38] = a1\n 12428: ra = 432, jump @22\n      : @386 [@dyn 216] (gas: 1)\n 12434: t0 = 434, jump @2295\n      : @387 [@dyn 217] (gas: 1)\n 12441: jump @406 if a1 != 0\n      : @388 (gas: 7)\n 12445: u64 [s1 + 0x8] = a5\n 12448: u64 [s1 + 0x10] = a4\n 12451: u64 [s1 + 0x28] = a2\n 12454: a1 = a3 <u 0x1\n 12457: a1 = 0 if a0 != 0\n 12459: u64 [s1 + 0x18] = a3\n 12462: jump @429 if a1 == 0\n      : @389 (gas: 9)\n 12466: u64 [s1 + 632] = 0\n 12470: u64 [s1 + 624] = 0\n 12474: u64 [s1 + 616] = 0\n 12478: u64 [s1 + 608] = 0x5\n 12483: a0 = s1 + 0x1e0\n 12487: a1 = s1 + 0x260\n 12491: ra = 0x1b4\n 12495: t0 = 0x6\n 12498: jump @2259\n      : @390 [@dyn 218] (gas: 1)\n 12502: t0 = 438, jump @2261\n      : @391 [@dyn 219] (gas: 1)\n 12509: ra = 440, jump @255\n      : @392 [@dyn 220] (gas: 1)\n 12515: t0 = 442, jump @2218\n      : @393 [@dyn 221] (gas: 5)\n 12522: a3 = 0x5\n 12525: u64 [s1 + 0x180] = a3\n 12529: ra = 0x1bc\n 12533: t0 = 0x13c\n 12537: jump @2331\n      : @394 [@dyn 222] (gas: 4)\n 12541: a0 = u64 [s1 + 0x28]\n 12544: a0 = a0 & 0xffffffffffffffe0\n 12547: u64 [s1 + 0x30] = a0\n 12550: t0 = 446, jump @2303\n      : @395 [@dyn 223] (gas: 2)\n 12557: a0 = 0x5\n 12560: t0 = 448, jump @2334\n      : @396 [@dyn 224] (gas: 1)\n 12567: ra = 450, jump @269\n      : @397 [@dyn 225] (gas: 23)\n 12573: t2 = 0\n 12575: u64 [s1 + 184] = 0\n 12579: u64 [s1 + 176] = 0\n 12583: a4 = 0\n 12585: a5 = 0\n 12587: t0 = 0\n 12589: u64 [s1 + 168] = 0\n 12593: a0 = s1 + 0x100\n 12597: a3 = u64 [a0 + 0x30]\n 12600: t1 = u64 [s1 + 0x138]\n 12604: a1 = u64 [a0 + 0x20]\n 12607: a2 = u64 [a0 + 0x28]\n 12610: u64 [s1 + 0x68] = a3\n 12613: a0 = u64 [s1 + 0xa0]\n 12617: u64 [a0 + 0x10] = a3\n 12620: a3 = t1\n 12622: u64 [a0 + 0x18] = t1\n 12625: u64 [s1 + 0x88] = a1\n 12629: u64 [a0] = a1\n 12631: u64 [s1 + 0x80] = a2\n 12635: u64 [a0 + 0x8] = a2\n 12638: t1 = 0x20\n 12641: fallthrough\n      : @398 (gas: 23)\n 12642: ra = a3\n 12644: a0 = u64 [s1 + 0x30]\n 12647: u64 [s1 + 0x78] = a4\n 12650: a0 = a4 <u a0\n 12653: a4 = a0 ^ 0x1\n 12656: u64 [s1 + 0x70] = a5\n 12659: a4 = 0x1 if a5 != 0\n 12662: a0 = u64 [s1 + 0xa8]\n 12666: a0 = t0 | a0\n 12669: a4 = 0x1 if a0 != 0\n 12672: a1 = u64 [s1 + 0x38]\n 12675: a1 = a1 + t1\n 12678: a3 = u64 [s1 + 0x40]\n 12681: a3 = a3 + t2\n 12684: a2 = u64 [s1 + 0x48]\n 12687: a0 = u64 [s1 + 0xb8]\n 12691: a2 = a2 + a0\n 12694: a0 = u64 [s1 + 0x50]\n 12697: a5 = u64 [s1 + 0xb0]\n 12701: a0 = a0 + a5\n 12704: u64 [s1 + 0x98] = t2\n 12708: u64 [s1 + 0x90] = t1\n 12712: jump @410 if a4 != 0\n      : @399 (gas: 13)\n 12716: u64 [s1 + 0x58] = t0\n 12719: a4 = a1 <u t1\n 12722: a3 = a3 + a4\n 12725: t0 = a3 ^ t2\n 12728: a5 = a3 <u t2\n 12731: a5 = a4 if t0 == 0\n 12734: a5 = a5 + a2\n 12737: t0 = a5 <u a2\n 12740: a4 = u64 [s1 + 0xb8]\n 12744: a2 = a2 <u a4\n 12747: a0 = a0 + a2\n 12750: a0 = a0 + t0\n 12753: t0 = 452, jump @2352\n      : @400 [@dyn 226] (gas: 1)\n 12760: jump @428 if a0 != 0\n      : @401 (gas: 2)\n 12764: a0 = s1 + 0xc0\n 12768: ra = 454, jump @22\n      : @402 [@dyn 227] (gas: 1)\n 12774: t0 = 456, jump @2316\n      : @403 [@dyn 228] (gas: 1)\n 12781: ra = 458, jump @28\n      : @404 [@dyn 229] (gas: 46)\n 12787: t0 = u64 [s1 + 0x88]\n 12791: t0 = t0 + 0x1\n 12794: a0 = t0 <u 0x1\n 12797: t1 = u64 [s1 + 0x80]\n 12801: t1 = t1 + a0\n 12804: a0 = t0 | t1\n 12807: a0 = a0 <u 0x1\n 12810: a1 = u64 [s1 + 0x68]\n 12813: a0 = a0 + a1\n 12816: a1 = a0 <u a1\n 12819: t2 = u64 [s1 + 0x60]\n 12822: t2 = t2 + a1\n 12825: a1 = u64 [s1 + 0x90]\n 12829: a2 = a1 + 0x20\n 12832: u64 [s1 + 0x60] = a2\n 12835: a3 = a2 <u a1\n 12838: a1 = u64 [s1 + 0x98]\n 12842: a2 = a1 + a3\n 12845: u64 [s1 + 0x90] = a2\n 12849: a4 = a2 <u a1\n 12852: a4 = a3 if a3 == 0\n 12855: a1 = u64 [s1 + 0xb8]\n 12859: ra = a1 + a4\n 12862: a4 = ra <u a1\n 12865: a1 = u64 [s1 + 0xb0]\n 12869: a1 = a1 + a4\n 12872: u64 [s1 + 0xb0] = a1\n 12876: a1 = u64 [s1 + 0x78]\n 12879: a4 = a1 + 0x20\n 12882: a5 = a4 <u a1\n 12885: a2 = u64 [s1 + 0x70]\n 12888: a1 = a2 + a5\n 12891: a2 = a1 <u a2\n 12894: a2 = a5 if a5 == 0\n 12897: a3 = u64 [s1 + 0x58]\n 12900: a2 = a2 + a3\n 12903: a5 = a2 <u a3\n 12906: a3 = u64 [s1 + 0xa8]\n 12910: a3 = a3 + a5\n 12913: u64 [s1 + 0xa8] = a3\n 12917: a3 = t1\n 12919: u64 [s1 + 0x80] = a3\n 12923: a5 = u64 [s1 + 0xa0]\n 12927: u64 [a5 + 0x8] = a3\n 12930: a3 = t0\n 12932: t0 = 460, jump @2299\n      : @405 [@dyn 230] (gas: 2)\n 12939: t0 = a2\n 12941: jump @398\n      : @406 (gas: 1)\n 12944: t0 = 462, jump @2288\n      : @407 [@dyn 231] (gas: 1)\n 12951: ra = 464, jump @506\n      : @408 [@dyn 232] (gas: 1)\n 12957: t0 = 466, jump @2344\n      : @409 [@dyn 233] (gas: 1)\n 12964: jump @426\n      : @410 (gas: 10)\n 12967: t0 = u64 [s1 + 0x28]\n 12970: a4 = u64 [s1 + 0x30]\n 12973: a4 = a4 ^ t0\n 12976: t2 = u64 [s1 + 0x10]\n 12979: a4 = a4 | t2\n 12982: t1 = u64 [s1 + 0x18]\n 12985: ra = u64 [s1 + 0x8]\n 12988: a5 = t1 | ra\n 12991: a4 = a4 | a5\n 12994: jump @422 if a4 == 0\n      : @411 (gas: 14)\n 12998: a4 = u64 [s1 + 0x90]\n 13002: a4 = a1 <u a4\n 13005: a3 = a3 + a4\n 13008: a5 = u64 [s1 + 0x98]\n 13012: t0 = a3 ^ a5\n 13015: a5 = a3 <u a5\n 13018: a5 = a4 if t0 == 0\n 13021: a5 = a5 + a2\n 13024: t0 = a5 <u a2\n 13027: a4 = u64 [s1 + 0xb8]\n 13031: a2 = a2 <u a4\n 13034: a0 = a0 + a2\n 13037: a0 = a0 + t0\n 13040: t0 = 468, jump @2240\n      : @412 [@dyn 234] (gas: 1)\n 13047: jump @428 if a0 != 0\n      : @413 (gas: 2)\n 13051: a0 = s1 + 0xe0\n 13055: ra = 470, jump @22\n      : @414 [@dyn 235] (gas: 1)\n 13061: t0 = 472, jump @2227\n      : @415 [@dyn 236] (gas: 1)\n 13068: ra = 474, jump @2379\n      : @416 [@dyn 237] (gas: 6)\n 13075: u64 [s1 + 0x88] = a0\n 13079: u64 [s1 + 0x70] = a1\n 13082: a0 = 0xffffffffffffffff\n 13085: a1 = 0xffffffffffffffff\n 13088: a2 = u64 [s1 + 0xb8]\n 13092: ra = 476, jump @2374\n      : @417 [@dyn 238] (gas: 1)\n 13099: t0 = 478, jump @2285\n      : @418 [@dyn 239] (gas: 1)\n 13106: ra = 480, jump @2374\n      : @419 [@dyn 240] (gas: 1)\n 13113: t0 = 482, jump @2216\n      : @420 [@dyn 241] (gas: 1)\n 13120: ra = 484, jump @28\n      : @421 [@dyn 242] (gas: 5)\n 13126: t0 = u64 [s1 + 0x28]\n 13129: t1 = u64 [s1 + 0x18]\n 13132: t2 = u64 [s1 + 0x10]\n 13135: ra = u64 [s1 + 0x8]\n 13138: fallthrough\n      : @422 (gas: 12)\n 13139: a0 = t2 >> 0x3f\n 13142: a1 = ra << 0x1\n 13145: a0 = a0 | a1\n 13148: a1 = t1 >> 0x3f\n 13151: a2 = t2 << 0x1\n 13154: a1 = a1 | a2\n 13157: a2 = t0 >> 0x3f\n 13160: a3 = t1 << 0x1\n 13163: a2 = a2 | a3\n 13166: a3 = t0 << 0x1\n 13169: a3 = a3 + 0x1\n 13172: t0 = 486, jump @2286\n      : @423 [@dyn 243] (gas: 2)\n 13179: a4 = 0x5\n 13182: t0 = 488, jump @2345\n      : @424 [@dyn 244] (gas: 1)\n 13189: ra = 490, jump @28\n      : @425 [@dyn 245] (gas: 7)\n 13195: a1 = u64 [s1 + 0x20]\n 13198: u64 [a1 + 24] = 0\n 13201: u64 [a1 + 16] = 0\n 13204: u64 [a1 + 8] = 0\n 13207: u64 [a1 + 0] = 0xff\n 13211: t0 = 0x1ec\n 13215: jump @2263\n      : @426 (gas: 1)\n 13219: t0 = 492, jump @2263\n      : @427 [@dyn 246] (gas: 1)\n 13226: ret\n      : @428 (gas: 1)\n 13228: trap\n      : @429 (gas: 3)\n 13229: ra = 0x1ee\n 13233: t0 = 0x86\n 13237: jump @2232\n      : @430 [@dyn 247] (gas: 1)\n 13241: t0 = 496, jump @2235\n      : @431 [@dyn 248] (gas: 1)\n 13248: jump @475 if a2 != 0\n      : @432 (gas: 3)\n 13252: a0 = s1 + 0x240\n 13256: u64 [s1 + 0x38] = a1\n 13259: ra = 498, jump @22\n      : @433 [@dyn 249] (gas: 1)\n 13265: t0 = 500, jump @2295\n      : @434 [@dyn 250] (gas: 1)\n 13272: jump @453 if a1 != 0\n      : @435 (gas: 7)\n 13276: u64 [s1 + 0x8] = a5\n 13279: u64 [s1 + 0x10] = a4\n 13282: u64 [s1 + 0x28] = a2\n 13285: a1 = a3 <u 0x1\n 13288: a1 = 0 if a0 != 0\n 13290: u64 [s1 + 0x18] = a3\n 13293: jump @476 if a1 == 0\n      : @436 (gas: 9)\n 13297: u64 [s1 + 632] = 0\n 13301: u64 [s1 + 624] = 0\n 13305: u64 [s1 + 616] = 0\n 13309: u64 [s1 + 608] = 0x6\n 13314: a0 = s1 + 0x1e0\n 13318: a1 = s1 + 0x260\n 13322: ra = 0x1f6\n 13326: t0 = 0x6\n 13329: jump @2259\n      : @437 [@dyn 251] (gas: 1)\n 13333: t0 = 504, jump @2261\n      : @438 [@dyn 252] (gas: 1)\n 13340: ra = 506, jump @255\n      : @439 [@dyn 253] (gas: 1)\n 13346: t0 = 508, jump @2218\n      : @440 [@dyn 254] (gas: 5)\n 13353: a3 = 0x6\n 13356: u64 [s1 + 0x180] = a3\n 13360: ra = 0x1fe\n 13364: t0 = 0x13c\n 13368: jump @2331\n      : @441 [@dyn 255] (gas: 4)\n 13372: a0 = u64 [s1 + 0x28]\n 13375: a0 = a0 & 0xffffffffffffffe0\n 13378: u64 [s1 + 0x30] = a0\n 13381: t0 = 512, jump @2303\n      : @442 [@dyn 256] (gas: 2)\n 13388: a0 = 0x6\n 13391: t0 = 514, jump @2334\n      : @443 [@dyn 257] (gas: 1)\n 13398: ra = 516, jump @269\n      : @444 [@dyn 258] (gas: 23)\n 13404: t2 = 0\n 13406: u64 [s1 + 184] = 0\n 13410: u64 [s1 + 176] = 0\n 13414: a4 = 0\n 13416: a5 = 0\n 13418: t0 = 0\n 13420: u64 [s1 + 168] = 0\n 13424: a0 = s1 + 0x100\n 13428: a3 = u64 [a0 + 0x30]\n 13431: t1 = u64 [s1 + 0x138]\n 13435: a1 = u64 [a0 + 0x20]\n 13438: a2 = u64 [a0 + 0x28]\n 13441: u64 [s1 + 0x68] = a3\n 13444: a0 = u64 [s1 + 0xa0]\n 13448: u64 [a0 + 0x10] = a3\n 13451: a3 = t1\n 13453: u64 [a0 + 0x18] = t1\n 13456: u64 [s1 + 0x88] = a1\n 13460: u64 [a0] = a1\n 13462: u64 [s1 + 0x80] = a2\n 13466: u64 [a0 + 0x8] = a2\n 13469: t1 = 0x20\n 13472: fallthrough\n      : @445 (gas: 23)\n 13473: ra = a3\n 13475: a0 = u64 [s1 + 0x30]\n 13478: u64 [s1 + 0x78] = a4\n 13481: a0 = a4 <u a0\n 13484: a4 = a0 ^ 0x1\n 13487: u64 [s1 + 0x70] = a5\n 13490: a4 = 0x1 if a5 != 0\n 13493: a0 = u64 [s1 + 0xa8]\n 13497: a0 = t0 | a0\n 13500: a4 = 0x1 if a0 != 0\n 13503: a1 = u64 [s1 + 0x38]\n 13506: a1 = a1 + t1\n 13509: a3 = u64 [s1 + 0x40]\n 13512: a3 = a3 + t2\n 13515: a2 = u64 [s1 + 0x48]\n 13518: a0 = u64 [s1 + 0xb8]\n 13522: a2 = a2 + a0\n 13525: a0 = u64 [s1 + 0x50]\n 13528: a5 = u64 [s1 + 0xb0]\n 13532: a0 = a0 + a5\n 13535: u64 [s1 + 0x98] = t2\n 13539: u64 [s1 + 0x90] = t1\n 13543: jump @457 if a4 != 0\n      : @446 (gas: 13)\n 13547: u64 [s1 + 0x58] = t0\n 13550: a4 = a1 <u t1\n 13553: a3 = a3 + a4\n 13556: t0 = a3 ^ t2\n 13559: a5 = a3 <u t2\n 13562: a5 = a4 if t0 == 0\n 13565: a5 = a5 + a2\n 13568: t0 = a5 <u a2\n 13571: a4 = u64 [s1 + 0xb8]\n 13575: a2 = a2 <u a4\n 13578: a0 = a0 + a2\n 13581: a0 = a0 + t0\n 13584: t0 = 518, jump @2352\n      : @447 [@dyn 259] (gas: 1)\n 13591: jump @475 if a0 != 0\n      : @448 (gas: 2)\n 13595: a0 = s1 + 0xc0\n 13599: ra = 520, jump @22\n      : @449 [@dyn 260] (gas: 1)\n 13605: t0 = 522, jump @2316\n      : @450 [@dyn 261] (gas: 1)\n 13612: ra = 524, jump @28\n      : @451 [@dyn 262] (gas: 46)\n 13618: t0 = u64 [s1 + 0x88]\n 13622: t0 = t0 + 0x1\n 13625: a0 = t0 <u 0x1\n 13628: t1 = u64 [s1 + 0x80]\n 13632: t1 = t1 + a0\n 13635: a0 = t0 | t1\n 13638: a0 = a0 <u 0x1\n 13641: a1 = u64 [s1 + 0x68]\n 13644: a0 = a0 + a1\n 13647: a1 = a0 <u a1\n 13650: t2 = u64 [s1 + 0x60]\n 13653: t2 = t2 + a1\n 13656: a1 = u64 [s1 + 0x90]\n 13660: a2 = a1 + 0x20\n 13663: u64 [s1 + 0x60] = a2\n 13666: a3 = a2 <u a1\n 13669: a1 = u64 [s1 + 0x98]\n 13673: a2 = a1 + a3\n 13676: u64 [s1 + 0x90] = a2\n 13680: a4 = a2 <u a1\n 13683: a4 = a3 if a3 == 0\n 13686: a1 = u64 [s1 + 0xb8]\n 13690: ra = a1 + a4\n 13693: a4 = ra <u a1\n 13696: a1 = u64 [s1 + 0xb0]\n 13700: a1 = a1 + a4\n 13703: u64 [s1 + 0xb0] = a1\n 13707: a1 = u64 [s1 + 0x78]\n 13710: a4 = a1 + 0x20\n 13713: a5 = a4 <u a1\n 13716: a2 = u64 [s1 + 0x70]\n 13719: a1 = a2 + a5\n 13722: a2 = a1 <u a2\n 13725: a2 = a5 if a5 == 0\n 13728: a3 = u64 [s1 + 0x58]\n 13731: a2 = a2 + a3\n 13734: a5 = a2 <u a3\n 13737: a3 = u64 [s1 + 0xa8]\n 13741: a3 = a3 + a5\n 13744: u64 [s1 + 0xa8] = a3\n 13748: a3 = t1\n 13750: u64 [s1 + 0x80] = a3\n 13754: a5 = u64 [s1 + 0xa0]\n 13758: u64 [a5 + 0x8] = a3\n 13761: a3 = t0\n 13763: t0 = 526, jump @2299\n      : @452 [@dyn 263] (gas: 2)\n 13770: t0 = a2\n 13772: jump @445\n      : @453 (gas: 1)\n 13775: t0 = 528, jump @2288\n      : @454 [@dyn 264] (gas: 1)\n 13782: ra = 530, jump @506\n      : @455 [@dyn 265] (gas: 1)\n 13788: t0 = 532, jump @2344\n      : @456 [@dyn 266] (gas: 1)\n 13795: jump @473\n      : @457 (gas: 10)\n 13798: t0 = u64 [s1 + 0x28]\n 13801: a4 = u64 [s1 + 0x30]\n 13804: a4 = a4 ^ t0\n 13807: t2 = u64 [s1 + 0x10]\n 13810: a4 = a4 | t2\n 13813: t1 = u64 [s1 + 0x18]\n 13816: ra = u64 [s1 + 0x8]\n 13819: a5 = t1 | ra\n 13822: a4 = a4 | a5\n 13825: jump @469 if a4 == 0\n      : @458 (gas: 14)\n 13829: a4 = u64 [s1 + 0x90]\n 13833: a4 = a1 <u a4\n 13836: a3 = a3 + a4\n 13839: a5 = u64 [s1 + 0x98]\n 13843: t0 = a3 ^ a5\n 13846: a5 = a3 <u a5\n 13849: a5 = a4 if t0 == 0\n 13852: a5 = a5 + a2\n 13855: t0 = a5 <u a2\n 13858: a4 = u64 [s1 + 0xb8]\n 13862: a2 = a2 <u a4\n 13865: a0 = a0 + a2\n 13868: a0 = a0 + t0\n 13871: t0 = 534, jump @2240\n      : @459 [@dyn 267] (gas: 1)\n 13878: jump @475 if a0 != 0\n      : @460 (gas: 2)\n 13882: a0 = s1 + 0xe0\n 13886: ra = 536, jump @22\n      : @461 [@dyn 268] (gas: 1)\n 13892: t0 = 538, jump @2227\n      : @462 [@dyn 269] (gas: 1)\n 13899: ra = 540, jump @2379\n      : @463 [@dyn 270] (gas: 6)\n 13906: u64 [s1 + 0x88] = a0\n 13910: u64 [s1 + 0x70] = a1\n 13913: a0 = 0xffffffffffffffff\n 13916: a1 = 0xffffffffffffffff\n 13919: a2 = u64 [s1 + 0xb8]\n 13923: ra = 542, jump @2374\n      : @464 [@dyn 271] (gas: 1)\n 13930: t0 = 544, jump @2285\n      : @465 [@dyn 272] (gas: 1)\n 13937: ra = 546, jump @2374\n      : @466 [@dyn 273] (gas: 1)\n 13944: t0 = 548, jump @2216\n      : @467 [@dyn 274] (gas: 1)\n 13951: ra = 550, jump @28\n      : @468 [@dyn 275] (gas: 5)\n 13957: t0 = u64 [s1 + 0x28]\n 13960: t1 = u64 [s1 + 0x18]\n 13963: t2 = u64 [s1 + 0x10]\n 13966: ra = u64 [s1 + 0x8]\n 13969: fallthrough\n      : @469 (gas: 12)\n 13970: a0 = t2 >> 0x3f\n 13973: a1 = ra << 0x1\n 13976: a0 = a0 | a1\n 13979: a1 = t1 >> 0x3f\n 13982: a2 = t2 << 0x1\n 13985: a1 = a1 | a2\n 13988: a2 = t0 >> 0x3f\n 13991: a3 = t1 << 0x1\n 13994: a2 = a2 | a3\n 13997: a3 = t0 << 0x1\n 14000: a3 = a3 + 0x1\n 14003: t0 = 552, jump @2286\n      : @470 [@dyn 276] (gas: 2)\n 14010: a4 = 0x6\n 14013: t0 = 554, jump @2345\n      : @471 [@dyn 277] (gas: 1)\n 14020: ra = 556, jump @28\n      : @472 [@dyn 278] (gas: 7)\n 14026: a1 = u64 [s1 + 0x20]\n 14029: u64 [a1 + 24] = 0\n 14032: u64 [a1 + 16] = 0\n 14035: u64 [a1 + 8] = 0\n 14038: u64 [a1 + 0] = 0xff\n 14042: t0 = 0x22e\n 14046: jump @2263\n      : @473 (gas: 1)\n 14050: t0 = 558, jump @2263\n      : @474 [@dyn 279] (gas: 1)\n 14057: ret\n      : @475 (gas: 1)\n 14059: trap\n      : @476 (gas: 3)\n 14060: ra = 0x230\n 14064: t0 = 0x86\n 14068: jump @2232\n      : @477 [@dyn 280] (gas: 12)\n 14072: sp = sp + 0xfffffffffffffdc0\n 14076: a1 = sp + 0x200\n 14080: u64 [a1 + 0x38] = ra\n 14083: u64 [a1 + 0x30] = s0\n 14086: u64 [a1 + 0x28] = s1\n 14089: s0 = sp + 0x240\n 14093: sp = sp & 0xffffffffffffffe0\n 14096: s1 = sp\n 14098: u64 [s1 + 0x18] = a0\n 14101: a0 = s1 + 0x1e0\n 14105: a1 = 0xe0\n 14109: ra = 562, jump @22\n      : @478 [@dyn 281] (gas: 11)\n 14115: a0 = u64 [s1 + 0x1f8]\n 14119: u64 [s1 + 0x58] = a0\n 14122: a0 = u64 [s1 + 0x1f0]\n 14126: u64 [s1 + 0x50] = a0\n 14129: a0 = u64 [s1 + 0x1e8]\n 14133: u64 [s1 + 0x48] = a0\n 14136: a0 = u64 [s1 + 0x1e0]\n 14140: u64 [s1 + 0x40] = a0\n 14143: a0 = s1 + 0x1c0\n 14147: a1 = 0x100\n 14151: ra = 564, jump @22\n      : @479 [@dyn 282] (gas: 11)\n 14157: a0 = u64 [s1 + 0x1d8]\n 14161: u64 [s1 + 0x38] = a0\n 14164: a0 = u64 [s1 + 0x1d0]\n 14168: u64 [s1 + 0x30] = a0\n 14171: a0 = u64 [s1 + 0x1c8]\n 14175: u64 [s1 + 0x28] = a0\n 14178: a0 = u64 [s1 + 0x1c0]\n 14182: u64 [s1 + 0x20] = a0\n 14185: a0 = s1 + 0x1a0\n 14189: a1 = 0x40\n 14192: ra = 566, jump @22\n      : @480 [@dyn 283] (gas: 25)\n 14198: a1 = s1 + 0x100\n 14202: a0 = u64 [a1 + 0xa0]\n 14206: a3 = u64 [a1 + 0xb8]\n 14210: a2 = u64 [a1 + 0xa8]\n 14214: a5 = u64 [a1 + 0xb0]\n 14218: a4 = a0 + 0x20\n 14221: u64 [s1 + 0x78] = a0\n 14224: a0 = a4 <u a0\n 14227: a1 = a2 + a0\n 14230: u64 [s1 + 0x70] = a2\n 14233: a2 = a1 <u a2\n 14236: a2 = a0 if a0 == 0\n 14239: a2 = a2 + a5\n 14242: u64 [s1 + 0x60] = a5\n 14245: a0 = a2 <u a5\n 14248: u64 [s1 + 0x68] = a3\n 14251: a0 = a0 + a3\n 14254: a3 = a4 | a2\n 14257: a0 = a0 | a1\n 14260: a3 = a3 | a0\n 14263: a3 = a3 >> 0x20\n 14266: a0 = a0 | a2\n 14269: a0 = a0 << 0x20\n 14272: a0 = a0 | a3\n 14275: jump @505 if a0 != 0\n      : @481 (gas: 13)\n 14279: a0 = u64 [0x20020]\n 14284: a3 = s1 + 0x100\n 14288: u64 [a3 + 0x98] = a0\n 14292: a0 = u64 [0x20028]\n 14297: a1 = u64 [0x20030]\n 14302: a2 = u64 [0x20038]\n 14307: u64 [a3 + 0x90] = a0\n 14311: u64 [a3 + 0x88] = a1\n 14315: a1 = s1 + 0x180\n 14319: u64 [a3 + 0x80] = a2\n 14323: u64 [s1 + 0x10] = a4\n 14326: a0 = a4\n 14328: ra = 568, jump @24\n      : @482 [@dyn 284] (gas: 3)\n 14334: a1 = u64 [s1 + 0x78]\n 14337: a0 = a1 + 0x40\n 14340: t0 = 570, jump @2210\n      : @483 [@dyn 285] (gas: 1)\n 14347: jump @505 if a1 != 0\n      : @484 (gas: 11)\n 14351: a1 = u64 [s1 + 0x40]\n 14354: a3 = s1 + 0x100\n 14358: u64 [a3 + 0x60] = a1\n 14361: a1 = u64 [s1 + 0x48]\n 14364: u64 [a3 + 0x68] = a1\n 14367: a1 = u64 [s1 + 0x50]\n 14370: u64 [a3 + 0x70] = a1\n 14373: a1 = s1 + 0x160\n 14377: a2 = u64 [s1 + 0x58]\n 14380: u64 [a3 + 0x78] = a2\n 14383: ra = 572, jump @24\n      : @485 [@dyn 286] (gas: 3)\n 14389: a1 = u64 [s1 + 0x78]\n 14392: a0 = a1 + 0x60\n 14395: t0 = 574, jump @2210\n      : @486 [@dyn 287] (gas: 1)\n 14402: jump @505 if a1 != 0\n      : @487 (gas: 11)\n 14406: a1 = u64 [s1 + 0x20]\n 14409: a3 = s1 + 0x100\n 14413: u64 [a3 + 0x40] = a1\n 14416: a1 = u64 [s1 + 0x28]\n 14419: u64 [a3 + 0x48] = a1\n 14422: a1 = u64 [s1 + 0x30]\n 14425: u64 [a3 + 0x50] = a1\n 14428: a1 = s1 + 0x140\n 14432: a2 = u64 [s1 + 0x38]\n 14435: u64 [a3 + 0x58] = a2\n 14438: ra = 576, jump @24\n      : @488 [@dyn 288] (gas: 4)\n 14444: i32 a0 = s1 + 0x200\n 14448: ra = 0x242\n 14452: ecalli 7 // 'chain_id'\n 14454: fallthrough\n      : @489 [@dyn 289] (gas: 3)\n 14455: a1 = u64 [s1 + 0x78]\n 14458: a0 = a1 + 0x80\n 14462: t0 = 580, jump @2210\n      : @490 [@dyn 290] (gas: 1)\n 14469: jump @505 if a1 != 0\n      : @491 (gas: 12)\n 14473: a5 = s1 + 0x200\n 14477: a2 = u64 [a5]\n 14479: a1 = u64 [a5 + 0x8]\n 14482: a3 = u64 [a5 + 0x10]\n 14485: a4 = u64 [a5 + 0x18]\n 14488: a5 = s1 + 0x100\n 14492: u64 [a5 + 0x38] = a4\n 14495: u64 [a5 + 0x30] = a3\n 14498: u64 [a5 + 0x28] = a1\n 14501: a1 = s1 + 0x120\n 14505: u64 [a5 + 0x20] = a2\n 14508: ra = 582, jump @24\n      : @492 [@dyn 291] (gas: 6)\n 14514: a0 = 0x30160\n 14519: u64 [s1 + 0x58] = a0\n 14522: i32 a0 = a0 + 0\n 14524: ra = 0x248\n 14528: ecalli 0 // 'address'\n 14529: fallthrough\n      : @493 [@dyn 292] (gas: 3)\n 14530: a1 = u64 [s1 + 0x78]\n 14533: a0 = a1 + 0xa0\n 14537: t0 = 586, jump @2210\n      : @494 [@dyn 293] (gas: 1)\n 14544: jump @505 if a1 != 0\n      : @495 (gas: 2)\n 14548: a3 = u64 [s1 + 0x58]\n 14551: t0 = 588, jump @2273\n      : @496 [@dyn 294] (gas: 7)\n 14558: u64 [s1 + 280] = 0\n 14562: a4 = s1 + 0x100\n 14566: u64 [a4 + 0x10] = a3\n 14569: u64 [a4 + 0x8] = a1\n 14572: a1 = s1 + 0x100\n 14576: u64 [a4] = a2\n 14578: ra = 590, jump @24\n      : @497 [@dyn 295] (gas: 12)\n 14584: a0 = u64 [s1 + 0x78]\n 14587: a3 = u64 [s1 + 0x60]\n 14590: a0 = a0 | a3\n 14593: a1 = u64 [s1 + 0x70]\n 14596: a2 = u64 [s1 + 0x68]\n 14599: a1 = a1 | a2\n 14602: a0 = a0 | a1\n 14605: a0 = a0 >> 0x20\n 14608: a1 = a1 | a3\n 14611: a1 = a1 << 0x20\n 14614: a0 = a0 | a1\n 14617: jump @505 if a0 != 0\n      : @498 (gas: 7)\n 14621: u64 [s1 + 248] = 0\n 14625: u64 [s1 + 240] = 0\n 14629: u64 [s1 + 232] = 0\n 14633: a1 = s1 + 0xe0\n 14637: u64 [s1 + 224] = 0xa0\n 14643: a0 = u64 [s1 + 0x78]\n 14646: ra = 592, jump @24\n      : @499 [@dyn 296] (gas: 15)\n 14652: u64 [s1 + 184] = 0\n 14656: u64 [s1 + 176] = 0\n 14660: u64 [s1 + 168] = 0\n 14664: u64 [s1 + 160] = 0xc0\n 14670: a0 = u64 [s1 + 0x68]\n 14673: u64 [s1 + 0xd8] = a0\n 14677: a0 = u64 [s1 + 0x60]\n 14680: u64 [s1 + 0xd0] = a0\n 14684: a0 = u64 [s1 + 0x70]\n 14687: u64 [s1 + 0xc8] = a0\n 14691: a0 = s1 + 0xc0\n 14695: a1 = s1 + 0xa0\n 14699: a2 = u64 [s1 + 0x78]\n 14702: u64 [s1 + 0xc0] = a2\n 14706: ra = 594, jump @149\n      : @500 [@dyn 297] (gas: 3)\n 14712: a0 = s1 + 0x80\n 14716: a1 = u64 [s1 + 0x78]\n 14719: ra = 596, jump @22\n      : @501 [@dyn 298] (gas: 5)\n 14725: a0 = u64 [s1 + 0x98]\n 14729: a3 = u64 [s1 + 0x90]\n 14733: a2 = u64 [s1 + 0x88]\n 14737: a1 = u64 [s1 + 0x80]\n 14741: t0 = 598, jump @2333\n      : @502 [@dyn 299] (gas: 1)\n 14748: jump @505 if a0 != 0\n      : @503 (gas: 3)\n 14751: a0 = u64 [s1 + 0x10]\n 14754: u64 [s1 + 0x78] = a1\n 14757: ra = 600, jump @37\n      : @504 [@dyn 300] (gas: 29)\n 14763: a1 = sp + 0xffffffffffffffe0\n 14766: a2 = a1 & 0xffffffffffffffe0\n 14769: u64 [s1 + 0x70] = a2\n 14772: sp = a2\n 14774: i32 a0 = a0 + 0\n 14776: a1 = i32 [s1 + 0x78]\n 14779: i32 a2 = a2 + 0\n 14781: ecalli 11 // 'hash_keccak_256'\n 14783: a3 = u64 [s1 + 0x70]\n 14786: a0 = u64 [a3 + 0x18]\n 14789: a1 = u64 [a3 + 0x10]\n 14792: a2 = u64 [a3 + 0x8]\n 14795: a3 = u64 [a3]\n 14797: a0 = reverse a0\n 14799: a1 = reverse a1\n 14801: a2 = reverse a2\n 14803: a3 = reverse a3\n 14805: a4 = u64 [s1 + 0x18]\n 14808: u64 [a4 + 0x18] = a3\n 14811: u64 [a4 + 0x10] = a2\n 14814: u64 [a4 + 0x8] = a1\n 14817: u64 [a4] = a0\n 14819: sp = s0 + 0xfffffffffffffdc0\n 14823: a0 = sp + 0x200\n 14827: ra = u64 [a0 + 0x38]\n 14830: s0 = u64 [a0 + 0x30]\n 14833: s1 = u64 [a0 + 0x28]\n 14836: sp = sp + 0x240\n 14840: ret\n      : @505 (gas: 1)\n 14842: trap\n      : @506 (gas: 22)\n 14843: sp = sp + 0xfffffffffffffe30\n 14847: u64 [sp + 0x1c8] = ra\n 14851: u64 [sp + 0x1c0] = s0\n 14855: u64 [sp + 0x1b8] = s1\n 14859: s0 = sp + 0x1d0\n 14863: sp = sp & 0xfffffffffffffff0\n 14866: a3 = u64 [a1 + 0x10]\n 14869: a4 = u64 [a1 + 0x18]\n 14872: a2 = u64 [a1 + 0x8]\n 14875: s1 = u64 [a1]\n 14877: u64 [sp + 0x88] = a2\n 14881: u64 [sp + 0x78] = a4\n 14884: a1 = a2 | a4\n 14887: a2 = s1 | a3\n 14890: a2 = a2 | a1\n 14893: a2 = a2 >> 0x20\n 14896: u64 [sp + 0x80] = a3\n 14900: a1 = a1 | a3\n 14903: a1 = a1 << 0x20\n 14906: a1 = a1 | a2\n 14909: u64 [sp + 0x68] = a0\n 14912: jump @538 if a1 != 0\n      : @507 (gas: 3)\n 14916: a0 = sp + 0x190\n 14920: a1 = s1\n 14922: ra = 602, jump @22\n      : @508 [@dyn 301] (gas: 9)\n 14928: a0 = u64 [sp + 0x1a8]\n 14932: a1 = u64 [sp + 0x1a0]\n 14936: a2 = u64 [sp + 0x190]\n 14940: a3 = u64 [sp + 0x198]\n 14944: a0 = a0 | a1\n 14947: a1 = a2 <u 0x20\n 14950: a1 = 0 if a3 != 0\n 14952: a1 = 0 if a0 != 0\n 14954: jump @520 if a1 == 0\n      : @509 (gas: 3)\n 14958: a0 = sp + 0x170\n 14962: a1 = s1\n 14964: ra = 604, jump @22\n      : @510 [@dyn 302] (gas: 3)\n 14970: a0 = u64 [sp + 0x80]\n 14974: a1 = u64 [sp + 0x78]\n 14977: t0 = 606, jump @2349\n      : @511 [@dyn 303] (gas: 4)\n 14984: a2 = u64 [sp + 0x88]\n 14988: a1 = 0 if a2 != 0\n 14990: a1 = 0 if a0 != 0\n 14992: jump @538 if a1 == 0\n      : @512 (gas: 11)\n 14996: a0 = u64 [sp + 0x188]\n 15000: u64 [sp + 0x70] = a0\n 15003: a0 = u64 [sp + 0x180]\n 15007: u64 [sp + 0x78] = a0\n 15010: a0 = u64 [sp + 0x178]\n 15014: u64 [sp + 0x80] = a0\n 15018: a0 = u64 [sp + 0x170]\n 15022: u64 [sp + 0x88] = a0\n 15026: i32 a1 = s1 + 0x20\n 15029: a0 = sp + 0x150\n 15033: ra = 608, jump @22\n      : @513 [@dyn 304] (gas: 19)\n 15039: a3 = u64 [sp + 0x70]\n 15042: s1 = u64 [sp + 0x78]\n 15045: a5 = u64 [sp + 0x80]\n 15049: t0 = u64 [sp + 0x88]\n 15053: a0 = u64 [sp + 0x168]\n 15057: u64 [sp + 0x60] = a0\n 15060: ra = u64 [sp + 0x160]\n 15064: t2 = u64 [sp + 0x158]\n 15068: t1 = u64 [sp + 0x150]\n 15072: a0 = a5 >u 0\n 15074: a1 = t0 <u 0x20\n 15077: a1 = a1 ^ 0x1\n 15080: a1 = a0 if a5 != 0\n 15083: a0 = s1 >u 0\n 15085: a2 = a3 >u 0\n 15087: a2 = a0 if a3 == 0\n 15090: a0 = s1 | a3\n 15093: a2 = a1 if a0 == 0\n 15096: jump @518 if a2 != 0\n      : @514 (gas: 13)\n 15100: a0 = t0 | s1\n 15103: a1 = a5 | a3\n 15106: a0 = a0 | a1\n 15109: u64 [sp + 0x48] = a0\n 15112: a0 = t0 << 0x3\n 15115: u64 [sp] = a0\n 15117: i32 a2 = 0x100 - a0\n 15121: a0 = 0xffffffffffffffff\n 15124: a1 = 0xffffffffffffffff\n 15127: u64 [sp + 0x58] = t1\n 15130: u64 [sp + 0x50] = t2\n 15133: u64 [sp + 0x30] = ra\n 15136: ra = 610, jump @2379\n      : @515 [@dyn 305] (gas: 17)\n 15143: u64 [sp + 0x28] = a0\n 15146: u64 [sp + 0x8] = a1\n 15149: s1 = u64 [sp]\n 15151: a4 = 0x100 - s1\n 15155: u64 [sp + 0x20] = a4\n 15158: a3 = a4 <u 0x80\n 15162: u64 [sp + 0x18] = a3\n 15165: a2 = a1\n 15167: a2 = 0 if a3 == 0\n 15169: u64 [sp + 0x40] = a2\n 15172: a2 = a0\n 15174: a2 = 0 if a3 == 0\n 15176: u64 [sp + 0x38] = a2\n 15179: i32 a2 = 0x80 - a4\n 15183: a0 = 0xffffffffffffffff\n 15186: a1 = 0xffffffffffffffff\n 15189: ra = 612, jump @2374\n      : @516 [@dyn 306] (gas: 8)\n 15196: u64 [sp + 0x10] = a0\n 15199: a0 = u64 [sp + 0x8]\n 15202: a0 = a0 | a1\n 15205: u64 [sp + 0x8] = a0\n 15208: i32 a2 = 0x80 - s1\n 15212: a0 = 0xffffffffffffffff\n 15215: a1 = 0xffffffffffffffff\n 15218: ra = 614, jump @2379\n      : @517 [@dyn 307] (gas: 31)\n 15225: t2 = u64 [sp + 0x50]\n 15228: t1 = u64 [sp + 0x58]\n 15231: a3 = u64 [sp + 0x70]\n 15234: s1 = u64 [sp + 0x78]\n 15237: a5 = u64 [sp + 0x80]\n 15241: t0 = u64 [sp + 0x88]\n 15245: ra = u64 [sp + 0x18]\n 15248: a2 = u64 [sp + 0x8]\n 15251: a1 = a2 if ra != 0\n 15254: a2 = u64 [sp + 0x28]\n 15257: a4 = u64 [sp + 0x10]\n 15260: a2 = a2 | a4\n 15263: a2 = a0 if ra == 0\n 15266: a4 = u64 [sp + 0x20]\n 15269: a1 = 0xffffffffffffffff if a4 == 0\n 15272: a2 = 0xffffffffffffffff if a4 == 0\n 15275: a0 = u64 [sp + 0x48]\n 15278: a2 = 0 if a0 == 0\n 15280: a1 = 0 if a0 == 0\n 15282: ra = u64 [sp + 0x38]\n 15285: ra = 0 if a0 == 0\n 15287: a4 = u64 [sp + 0x40]\n 15290: a4 = 0 if a0 == 0\n 15292: t2 = t2 & a4\n 15295: t1 = t1 & ra\n 15298: a0 = u64 [sp + 0x60]\n 15301: a0 = a0 & a1\n 15304: ra = u64 [sp + 0x30]\n 15307: ra = ra & a2\n 15310: a4 = u64 [sp + 0x68]\n 15313: jump @519\n      : @518 (gas: 3)\n 15315: a4 = u64 [sp + 0x68]\n 15318: a0 = u64 [sp + 0x60]\n 15321: fallthrough\n      : @519 (gas: 14)\n 15322: a0 = a0 | a3\n 15325: a1 = ra | s1\n 15328: a2 = t2 | a5\n 15331: a3 = t1 | t0\n 15334: u64 [a4] = a3\n 15336: u64 [a4 + 0x8] = a2\n 15339: u64 [a4 + 0x10] = a1\n 15342: u64 [a4 + 0x18] = a0\n 15345: sp = s0 + 0xfffffffffffffe30\n 15349: ra = u64 [sp + 0x1c8]\n 15353: s0 = u64 [sp + 0x1c0]\n 15357: s1 = u64 [sp + 0x1b8]\n 15361: sp = sp + 0x1d0\n 15365: ret\n      : @520 (gas: 4)\n 15367: u64 [sp + 0x50] = s1\n 15370: a0 = sp + 0x130\n 15374: a1 = 0x40\n 15377: ra = 616, jump @22\n      : @521 [@dyn 308] (gas: 16)\n 15383: a0 = u64 [sp + 0x148]\n 15387: a2 = u64 [sp + 0x140]\n 15391: a3 = u64 [sp + 0x138]\n 15395: a1 = u64 [sp + 0x130]\n 15399: u64 [sp + 0x60] = a0\n 15402: u64 [sp + 0x68] = a3\n 15405: a0 = a0 | a3\n 15408: u64 [sp + 0x70] = a1\n 15411: a1 = a1 | a2\n 15414: a1 = a1 | a0\n 15417: a1 = a1 >> 0x20\n 15420: u64 [sp + 0x58] = a2\n 15423: a0 = a0 | a2\n 15426: a0 = a0 << 0x20\n 15429: a0 = a0 | a1\n 15432: jump @538 if a0 != 0\n      : @522 (gas: 8)\n 15436: u64 [sp + 288] = 0\n 15440: u64 [sp + 280] = 0\n 15444: u64 [sp + 272] = 0\n 15448: a0 = 0x305a27a900000000\n 15458: a1 = sp + 0x110\n 15462: u64 [sp + 0x128] = a0\n 15466: a0 = u64 [sp + 0x70]\n 15469: ra = 618, jump @24\n      : @523 [@dyn 309] (gas: 12)\n 15475: a0 = u64 [sp + 0x60]\n 15478: a1 = u64 [sp + 0x58]\n 15481: a2 = a1 | a0\n 15484: s1 = 0x100000000\n 15494: a0 = 0xfffffffc\n 15504: a1 = u64 [sp + 0x70]\n 15507: a0 = a1 <u a0\n 15510: a1 = u64 [sp + 0x68]\n 15513: a0 = 0 if a1 != 0\n 15515: u64 [sp + 0x48] = a2\n 15518: a0 = 0 if a2 != 0\n 15520: jump @538 if a0 == 0\n      : @524 (gas: 8)\n 15524: a0 = u64 [sp + 0x70]\n 15527: i32 a0 = a0 + 0x4\n 15530: u64 [sp + 264] = 0\n 15534: u64 [sp + 256] = 0\n 15538: u64 [sp + 240] = 0x20\n 15543: a1 = sp + 0xf0\n 15547: u64 [sp + 248] = 0\n 15551: ra = 620, jump @24\n      : @525 [@dyn 310] (gas: 3)\n 15557: a0 = sp + 0xd0\n 15561: a1 = u64 [sp + 0x50]\n 15564: ra = 622, jump @22\n      : @526 [@dyn 311] (gas: 8)\n 15570: a0 = s1 + 0xffffffffffffffdc\n 15573: a1 = u64 [sp + 0x70]\n 15576: a0 = a1 <u a0\n 15579: a1 = u64 [sp + 0x68]\n 15582: a0 = 0 if a1 != 0\n 15584: a1 = u64 [sp + 0x48]\n 15587: a0 = 0 if a1 != 0\n 15589: jump @538 if a0 == 0\n      : @527 (gas: 16)\n 15593: a2 = u64 [sp + 0xe8]\n 15597: a3 = u64 [sp + 0xe0]\n 15601: a4 = u64 [sp + 0xd8]\n 15605: a1 = u64 [sp + 0xd0]\n 15609: s1 = u64 [sp + 0x70]\n 15612: i32 a0 = s1 + 0x24\n 15615: u64 [sp + 0x40] = a1\n 15618: u64 [sp + 0xb0] = a1\n 15622: u64 [sp + 0x28] = a4\n 15625: u64 [sp + 0xb8] = a4\n 15629: u64 [sp + 0x30] = a3\n 15632: u64 [sp + 0xc0] = a3\n 15636: a1 = sp + 0xb0\n 15640: u64 [sp + 0x38] = a2\n 15643: u64 [sp + 0xc8] = a2\n 15647: ra = 624, jump @24\n      : @528 [@dyn 312] (gas: 7)\n 15653: a1 = 0xffffffbc\n 15663: a1 = s1 <u a1\n 15666: a2 = u64 [sp + 0x68]\n 15669: a1 = 0 if a2 != 0\n 15671: a2 = u64 [sp + 0x48]\n 15674: a1 = 0 if a2 != 0\n 15676: jump @538 if a1 == 0\n      : @529 (gas: 10)\n 15680: a1 = u64 [sp + 0x80]\n 15684: a2 = u64 [sp + 0x78]\n 15687: a1 = a1 | a2\n 15690: a0 = 0xffffffe0\n 15700: a2 = u64 [sp + 0x50]\n 15703: a0 = a2 <u a0\n 15706: a2 = u64 [sp + 0x88]\n 15710: a0 = 0 if a2 != 0\n 15712: a0 = 0 if a1 != 0\n 15714: jump @538 if a0 == 0\n      : @530 (gas: 12)\n 15718: a0 = u64 [sp + 0x40]\n 15721: a2 = u64 [sp + 0x30]\n 15724: a0 = a0 | a2\n 15727: a1 = u64 [sp + 0x38]\n 15730: a3 = u64 [sp + 0x28]\n 15733: a1 = a1 | a3\n 15736: a0 = a0 | a1\n 15739: a0 = a0 >> 0x20\n 15742: a1 = a1 | a2\n 15745: a1 = a1 << 0x20\n 15748: a0 = a0 | a1\n 15751: jump @538 if a0 != 0\n      : @531 (gas: 8)\n 15755: a0 = u64 [sp + 0x70]\n 15758: i32 a0 = a0 + 0x44\n 15761: a1 = u64 [sp + 0x50]\n 15764: i32 a1 = a1 + 0x20\n 15767: u64 [sp + 0x88] = a1\n 15771: s1 = u64 [sp + 0x40]\n 15774: a1 = s1\n 15776: ra = 626, jump @37\n      : @532 [@dyn 313] (gas: 4)\n 15782: u64 [sp + 0x80] = a0\n 15786: a0 = u64 [sp + 0x88]\n 15790: a1 = s1\n 15792: ra = 628, jump @37\n      : @533 [@dyn 314] (gas: 4)\n 15798: a1 = a0\n 15800: a0 = u64 [sp + 0x80]\n 15804: a2 = s1\n 15806: ra = 630, jump @0\n      : @534 [@dyn 315] (gas: 6)\n 15812: a0 = u64 [sp + 0x70]\n 15815: a0 = a0 + s1\n 15818: a1 = a0 <u s1\n 15821: a2 = u64 [sp + 0x68]\n 15824: a4 = u64 [sp + 0x28]\n 15827: t0 = 632, jump @2324\n      : @535 [@dyn 316] (gas: 17)\n 15834: a1 = u64 [sp + 0x58]\n 15837: a5 = u64 [sp + 0x30]\n 15840: a1 = a1 + a5\n 15843: a4 = a4 + a1\n 15846: a3 = a4 <u a1\n 15849: a1 = a1 <u a5\n 15852: a5 = u64 [sp + 0x60]\n 15855: s1 = u64 [sp + 0x38]\n 15858: a5 = a5 + s1\n 15861: a1 = a1 + a5\n 15864: a1 = a1 + a3\n 15867: a1 = a1 | a4\n 15870: s1 = 0xffffffbc\n 15880: a3 = a0 <u s1\n 15883: a3 = 0 if a2 != 0\n 15885: a3 = 0 if a1 != 0\n 15887: jump @538 if a3 == 0\n      : @536 (gas: 7)\n 15890: i32 a0 = a0 + 0x44\n 15893: u64 [sp + 168] = 0\n 15897: u64 [sp + 160] = 0\n 15901: u64 [sp + 152] = 0\n 15905: a1 = sp + 0x90\n 15909: u64 [sp + 144] = 0\n 15913: ra = 634, jump @24\n      : @537 [@dyn 317] (gas: 5)\n 15919: a0 = u64 [sp + 0x40]\n 15922: a0 = a0 + 0x1f\n 15925: a1 = 0x1ffffffe0\n 15935: a0 = a0 & a1\n 15938: jump @539 if a0 <u s1\n      : @538 (gas: 1)\n 15941: trap\n      : @539 (gas: 4)\n 15942: i32 s1 = a0 + 0x44\n 15945: a0 = u64 [sp + 0x70]\n 15948: a1 = s1\n 15950: ra = 636, jump @37\n      : @540 [@dyn 318] (gas: 7)\n 15956: i32 a1 = a0 + 0\n 15958: a0 = 0x1\n 15961: a2 = s1\n 15963: ra = 0x27e\n 15967: ecalli 16 // 'seal_return'\n 15969: t0 = 0x280\n 15973: jump @2367\n      : @541 [@dyn 319] (gas: 1)\n 15977: t0 = 640, jump @2367\n      : @542 [@dyn 320] (gas: 20)\n 15984: a3 = u64 [a2]\n 15986: u64 [sp + 0x18] = a3\n 15989: a3 = u64 [a2 + 0x8]\n 15992: u64 [sp + 0x10] = a3\n 15995: a3 = u64 [a2 + 0x10]\n 15998: u64 [sp + 0x8] = a3\n 16001: a2 = u64 [a2 + 0x18]\n 16004: u64 [sp] = a2\n 16006: a2 = u64 [a1]\n 16008: a3 = u64 [a1 + 0x8]\n 16011: a4 = u64 [a1 + 0x10]\n 16014: a1 = u64 [a1 + 0x18]\n 16017: s1 = a0\n 16019: u64 [sp + 0x58] = a1\n 16022: u64 [sp + 0x50] = a4\n 16025: u64 [sp + 0x48] = a3\n 16028: a0 = 0x4\n 16031: a1 = sp + 0x40\n 16034: u64 [sp + 0x40] = a2\n 16037: ra = 642, jump @24\n      : @543 [@dyn 321] (gas: 5)\n 16043: a0 = u64 [sp]\n 16045: u64 [sp + 0x38] = a0\n 16048: a0 = u64 [sp + 0x8]\n 16051: u64 [sp + 0x30] = a0\n 16054: t0 = 644, jump @2360\n      : @544 [@dyn 322] (gas: 1)\n 16061: ra = 646, jump @24\n      : @545 [@dyn 323] (gas: 6)\n 16067: u64 [s1 + 24] = 0\n 16070: u64 [s1 + 16] = 0\n 16073: u64 [s1 + 8] = 0\n 16076: a0 = 0x44\n 16079: u64 [s1] = a0\n 16081: t0 = 648, jump @2307\n      : @546 [@dyn 324] (gas: 1)\n 16088: ret\n      : @547 (gas: 22)\n 16090: sp = sp + 0xffffffffffffff50\n 16094: u64 [sp + 0xa8] = ra\n 16098: u64 [sp + 0xa0] = s0\n 16102: u64 [sp + 0x98] = s1\n 16106: s0 = sp + 0xb0\n 16110: sp = sp & 0xfffffffffffffff0\n 16113: a5 = u64 [a1 + 0x10]\n 16116: a4 = u64 [a1 + 0x18]\n 16119: s1 = u64 [a1 + 0x8]\n 16122: t0 = u64 [a1]\n 16124: u64 [sp + 0x40] = a4\n 16127: u64 [sp + 0x38] = s1\n 16130: a1 = s1 | a4\n 16133: a4 = t0 | a5\n 16136: a4 = a4 | a1\n 16139: a4 = a4 >> 0x20\n 16142: u64 [sp + 0x48] = a5\n 16145: a1 = a1 | a5\n 16148: a1 = a1 << 0x20\n 16151: a1 = a1 | a4\n 16154: u64 [sp + 0x30] = a0\n 16157: jump @552 if a1 != 0\n      : @548 (gas: 20)\n 16161: s1 = t0\n 16163: a0 = u64 [a3 + 0x18]\n 16166: u64 [sp + 0x28] = a0\n 16169: a0 = u64 [a3 + 0x10]\n 16172: u64 [sp + 0x20] = a0\n 16175: a0 = u64 [a3 + 0x8]\n 16178: u64 [sp + 0x18] = a0\n 16181: a0 = u64 [a3]\n 16183: u64 [sp + 0x10] = a0\n 16186: a0 = u64 [a2 + 0x18]\n 16189: a1 = u64 [a2 + 0x10]\n 16192: a3 = u64 [a2 + 0x8]\n 16195: a2 = u64 [a2]\n 16197: u64 [sp + 0x70] = a2\n 16200: u64 [sp + 0x78] = a3\n 16203: u64 [sp + 0x80] = a1\n 16207: a1 = sp + 0x70\n 16210: u64 [sp + 0x88] = a0\n 16214: a0 = t0\n 16216: ra = 650, jump @24\n      : @549 [@dyn 325] (gas: 9)\n 16222: a2 = u64 [sp + 0x48]\n 16225: a3 = u64 [sp + 0x40]\n 16228: a0 = a2 | a3\n 16231: a1 = 0xffffffe0\n 16241: a1 = s1 <u a1\n 16244: a4 = u64 [sp + 0x38]\n 16247: a1 = 0 if a4 != 0\n 16249: a1 = 0 if a0 != 0\n 16251: jump @552 if a1 == 0\n      : @550 (gas: 23)\n 16254: a0 = s1 + 0x40\n 16257: u64 [sp + 0x8] = a0\n 16260: a0 = a0 <u s1\n 16263: a1 = a4 + a0\n 16266: u64 [sp] = a1\n 16268: a1 = a1 <u a4\n 16271: a1 = a0 if a0 == 0\n 16274: a1 = a1 + a2\n 16277: u64 [sp + 0x38] = a1\n 16280: a0 = a1 <u a2\n 16283: a0 = a0 + a3\n 16286: u64 [sp + 0x48] = a0\n 16289: i32 a0 = s1 + 0x20\n 16292: a1 = u64 [sp + 0x10]\n 16295: u64 [sp + 0x50] = a1\n 16298: a1 = u64 [sp + 0x18]\n 16301: u64 [sp + 0x58] = a1\n 16304: a1 = u64 [sp + 0x20]\n 16307: u64 [sp + 0x60] = a1\n 16310: a1 = sp + 0x50\n 16313: a2 = u64 [sp + 0x28]\n 16316: u64 [sp + 0x68] = a2\n 16319: ra = 652, jump @24\n      : @551 [@dyn 326] (gas: 15)\n 16325: a0 = u64 [sp + 0x30]\n 16328: a1 = u64 [sp + 0x38]\n 16331: u64 [a0 + 0x10] = a1\n 16334: a1 = u64 [sp]\n 16336: u64 [a0 + 0x8] = a1\n 16339: a1 = u64 [sp + 0x8]\n 16342: u64 [a0] = a1\n 16344: a1 = u64 [sp + 0x48]\n 16347: u64 [a0 + 0x18] = a1\n 16350: sp = s0 + 0xffffffffffffff50\n 16354: ra = u64 [sp + 0xa8]\n 16358: s0 = u64 [sp + 0xa0]\n 16362: s1 = u64 [sp + 0x98]\n 16366: sp = sp + 0xb0\n 16370: ret\n      : @552 (gas: 1)\n 16372: trap\n      : @553 [@dyn 327] (gas: 1)\n 16373: ra = 656, jump @24\n      : @554 [@dyn 328] (gas: 7)\n 16379: u64 [sp + 24] = 0\n 16382: u64 [sp + 16] = 0\n 16385: u64 [sp + 0] = 0x11\n 16388: a0 = 0x4\n 16391: a1 = sp\n 16393: u64 [sp + 8] = 0\n 16396: ra = 658, jump @24\n      : @555 [@dyn 329] (gas: 2)\n 16402: a1 = i32 [0x20150]\n 16407: jump @557 if a1 >u 63\n      : @556 (gas: 2)\n 16411: u32 [0x20150] = 0x40\n 16417: fallthrough\n      : @557 (gas: 7)\n 16418: a1 = 0x20160\n 16423: i32 a1 = a1 + 0\n 16425: a0 = 0x1\n 16428: a2 = 0x24\n 16431: ra = 0x294\n 16435: ecalli 16 // 'seal_return'\n 16437: fallthrough\n      : @558 [@dyn 330] (gas: 12)\n 16438: a4 = u64 [a1 + 0x10]\n 16441: t0 = u64 [a1 + 0x18]\n 16444: a5 = u64 [a1 + 0x8]\n 16447: t1 = u64 [a1]\n 16449: a1 = a5 | t0\n 16452: a3 = t1 | a4\n 16455: a3 = a3 | a1\n 16458: a3 = a3 >> 0x20\n 16461: a1 = a1 | a4\n 16464: a1 = a1 << 0x20\n 16467: a1 = a1 | a3\n 16470: jump @562 if a1 != 0\n      : @559 (gas: 30)\n 16473: sp = sp + 0xffffffffffffffa0\n 16476: u64 [sp + 0x58] = ra\n 16479: u64 [sp + 0x50] = s0\n 16482: u64 [sp + 0x48] = s1\n 16485: s0 = sp + 0x60\n 16488: sp = sp & 0xfffffffffffffff0\n 16491: s1 = a0\n 16493: t2 = u64 [a2 + 0x18]\n 16496: ra = u64 [a2 + 0x10]\n 16499: a3 = u64 [a2 + 0x8]\n 16502: a2 = u64 [a2]\n 16504: a0 = t1 + 0x20\n 16507: u64 [sp + 0x18] = a0\n 16510: a0 = a0 <u t1\n 16513: a1 = a5 + a0\n 16516: u64 [sp + 0x10] = a1\n 16519: a5 = a1 <u a5\n 16522: a5 = a0 if a0 == 0\n 16525: a5 = a5 + a4\n 16528: u64 [sp] = a5\n 16530: a0 = a5 <u a4\n 16533: a0 = a0 + t0\n 16536: u64 [sp + 0x8] = a0\n 16539: u64 [sp + 0x20] = a2\n 16542: u64 [sp + 0x28] = a3\n 16545: u64 [sp + 0x30] = ra\n 16548: a1 = sp + 0x20\n 16551: u64 [sp + 0x38] = t2\n 16554: a0 = t1\n 16556: ra = 662, jump @24\n      : @560 [@dyn 331] (gas: 9)\n 16562: a0 = u64 [sp]\n 16564: u64 [s1 + 0x10] = a0\n 16567: a0 = u64 [sp + 0x10]\n 16570: u64 [s1 + 0x8] = a0\n 16573: a0 = u64 [sp + 0x18]\n 16576: u64 [s1] = a0\n 16578: a0 = u64 [sp + 0x8]\n 16581: u64 [s1 + 0x18] = a0\n 16584: t0 = 664, jump @2229\n      : @561 [@dyn 332] (gas: 1)\n 16591: ret\n      : @562 (gas: 1)\n 16593: trap\n      : @563 [@dyn 333] (gas: 4)\n 16594: i32 a0 = s1 + 0x460\n 16598: ra = 0x29c\n 16602: ecalli 1 // 'block_number'\n 16604: fallthrough\n      : @564 [@dyn 334] (gas: 6)\n 16605: a4 = s1 + 0x400\n 16609: a0 = u64 [a4 + 0x78]\n 16612: a1 = u64 [a4 + 0x68]\n 16615: a2 = u16 [s1 + 0x466]\n 16619: a3 = u64 [a4 + 0x70]\n 16622: t0 = 670, jump @2268\n      : @565 [@dyn 335] (gas: 1)\n 16629: jump @605 if a0 != 0\n      : @566 (gas: 9)\n 16633: u64 [s1 + 1208] = 0\n 16637: u64 [s1 + 1200] = 0\n 16641: u64 [s1 + 1192] = 0\n 16645: u64 [s1 + 1184] = 0xa\n 16650: a0 = s1 + 0x400\n 16654: a1 = s1 + 0x4a0\n 16658: ra = 0x2a0\n 16662: t0 = 0x6\n 16665: jump @2259\n      : @567 [@dyn 336] (gas: 9)\n 16669: a0 = s1 + 0x400\n 16673: a3 = u64 [a0 + 0x18]\n 16676: a2 = u64 [a0 + 0x10]\n 16679: a4 = u64 [a0 + 0x8]\n 16682: a5 = u64 [a0]\n 16684: a0 = a4 | a3\n 16687: a1 = a5 | a2\n 16690: a0 = a0 | a1\n 16693: jump @576 if a0 == 0\n      : @568 (gas: 11)\n 16697: u64 [s1 + 0x28] = a5\n 16700: u64 [s1 + 0x30] = a4\n 16703: u64 [s1 + 0x38] = a3\n 16706: u64 [s1 + 0x40] = a2\n 16709: u64 [s1 + 1016] = 0\n 16713: u64 [s1 + 1008] = 0\n 16717: u64 [s1 + 1000] = 0\n 16721: a1 = s1 + 0x3e0\n 16725: u64 [s1 + 992] = 0xa\n 16730: a0 = 0\n 16732: ra = 674, jump @24\n      : @569 [@dyn 337] (gas: 2)\n 16738: a1 = i32 [0x20150]\n 16743: jump @571 if a1 >u 31\n      : @570 (gas: 2)\n 16747: u32 [0x20150] = 0x20\n 16753: fallthrough\n      : @571 (gas: 11)\n 16754: a0 = sp + 0xffffffffffffffe0\n 16757: a2 = a0 & 0xffffffffffffffe0\n 16760: u64 [s1 + 0x20] = a2\n 16763: sp = a2\n 16765: a0 = 0x20160\n 16770: i32 a0 = a0 + 0\n 16772: i32 a2 = a2 + 0\n 16774: a1 = 0x20\n 16777: ra = 0x2a4\n 16781: ecalli 11 // 'hash_keccak_256'\n 16783: fallthrough\n      : @572 [@dyn 338] (gas: 27)\n 16784: a3 = u64 [s1 + 0x20]\n 16787: a0 = u64 [a3]\n 16789: a1 = u64 [a3 + 0x8]\n 16792: a2 = u64 [a3 + 0x18]\n 16795: a3 = u64 [a3 + 0x10]\n 16798: t0 = reverse a0\n 16800: a1 = reverse a1\n 16802: a0 = reverse a2\n 16804: a2 = reverse a3\n 16806: a4 = u64 [s1 + 0x30]\n 16809: a2 = a2 + a4\n 16812: a3 = u64 [s1 + 0x28]\n 16815: a0 = a0 + a3\n 16818: a3 = a0 <u a3\n 16821: a2 = a2 + a3\n 16824: a5 = a2 ^ a4\n 16827: a4 = a2 <u a4\n 16830: a4 = a3 if a5 == 0\n 16833: a5 = u64 [s1 + 0x40]\n 16836: a1 = a1 + a5\n 16839: a4 = a4 + a1\n 16842: t1 = a4 <u a1\n 16845: a3 = u64 [s1 + 0x38]\n 16848: t0 = t0 + a3\n 16851: a1 = a1 <u a5\n 16854: a1 = a1 + t0\n 16857: t0 = 678, jump @2248\n      : @573 [@dyn 339] (gas: 10)\n 16864: a3 = s1 + 0x400\n 16868: u64 [a3 + 0xc0] = a0\n 16872: u64 [a3 + 0xc8] = a2\n 16876: u64 [a3 + 0xd0] = a4\n 16880: u64 [a3 + 0xd8] = a1\n 16884: a0 = s1 + 0x3c0\n 16888: a1 = s1 + 0x4c0\n 16892: ra = 0x2a8\n 16896: t0 = 0x6\n 16899: jump @2259\n      : @574 [@dyn 340] (gas: 6)\n 16903: a0 = s1 + 0x300\n 16907: a4 = u64 [a0 + 0xd8]\n 16911: a1 = u64 [a0 + 0xd0]\n 16915: a2 = u16 [s1 + 0x3c6]\n 16919: a3 = u64 [a0 + 0xc8]\n 16923: t0 = 682, jump @2234\n      : @575 [@dyn 341] (gas: 1)\n 16930: jump @577\n      : @576 (gas: 4)\n 16932: a2 = 0\n 16934: a1 = 0\n 16936: a4 = 0\n 16938: fallthrough\n      : @577 (gas: 4)\n 16939: a3 = u64 [s1 + 0x78]\n 16942: u64 [s1 + 0x340] = a3\n 16946: u64 [s1 + 0x360] = a2\n 16950: t0 = 684, jump @2358\n      : @578 [@dyn 342] (gas: 15)\n 16957: u64 [s1 + 896] = 0x1\n 16962: a2 = u64 [s1 + 0x70]\n 16965: u64 [s1 + 0x348] = a2\n 16969: u64 [s1 + 0x368] = a1\n 16973: a1 = u64 [s1 + 0x68]\n 16976: u64 [s1 + 0x350] = a1\n 16980: u64 [s1 + 0x370] = a0\n 16984: a0 = u64 [s1 + 0x60]\n 16987: u64 [s1 + 0x358] = a0\n 16991: a0 = s1 + 0x3a0\n 16995: a1 = s1 + 0x380\n 16999: a2 = s1 + 0x360\n 17003: a3 = s1 + 0x340\n 17007: u64 [s1 + 0x378] = a4\n 17011: ra = 686, jump @842\n      : @579 [@dyn 343] (gas: 13)\n 17017: a1 = s1 + 0x300\n 17021: a0 = u64 [a1 + 0xa0]\n 17025: u64 [s1 + 0x40] = a0\n 17028: a0 = u64 [a1 + 0xa8]\n 17032: u64 [s1 + 0x38] = a0\n 17035: a0 = u64 [a1 + 0xb0]\n 17039: u64 [s1 + 0x30] = a0\n 17042: a0 = u64 [a1 + 0xb8]\n 17046: u64 [s1 + 0x28] = a0\n 17049: i32 a0 = s1 + 0x4e0\n 17053: ra = 0x2b0\n 17057: ecalli 1 // 'block_number'\n 17059: fallthrough\n      : @580 [@dyn 344] (gas: 13)\n 17060: a0 = u64 [s1 + 0x4e0]\n 17064: a0 = a0 << 0x10\n 17067: a4 = a0 >> 0x10\n 17070: a0 = u64 [s1 + 0x28]\n 17073: a5 = s1 + 0x200\n 17077: u64 [a5 + 0xb8] = a0\n 17081: a0 = u64 [s1 + 0x30]\n 17084: u64 [a5 + 0xb0] = a0\n 17088: a0 = u64 [s1 + 0x38]\n 17091: u64 [a5 + 0xa8] = a0\n 17095: a0 = u64 [s1 + 0x40]\n 17098: u64 [a5 + 0xa0] = a0\n 17102: t0 = 690, jump @2286\n      : @581 [@dyn 345] (gas: 1)\n 17109: t0 = 692, jump @2368\n      : @582 [@dyn 346] (gas: 9)\n 17116: u64 [a5 + 224] = 0xa\n 17121: a0 = s1 + 0x300\n 17125: a1 = s1 + 0x2e0\n 17129: a2 = s1 + 0x2c0\n 17133: a3 = s1 + 0x2a0\n 17137: u64 [a5 + 0xc0] = a4\n 17141: ra = 0x2b6\n 17145: t0 = 0x3ec\n 17149: jump @2212\n      : @583 [@dyn 347] (gas: 9)\n 17153: a0 = u64 [s1 + 0x48]\n 17156: a0 = a0 << 0x20\n 17159: a2 = a0 >> 0x20\n 17162: a0 = u64 [s1 + 0x58]\n 17165: a1 = u64 [s1 + 0x50]\n 17168: a0 = a0 | a1\n 17171: u64 [s1 + 0x40] = a2\n 17174: a0 = a0 | a2\n 17177: jump @586 if a0 != 0\n      : @584 (gas: 13)\n 17180: a0 = u64 [s1 + 0x78]\n 17183: u64 [s1 + 0x260] = a0\n 17187: a0 = u64 [s1 + 0x70]\n 17190: u64 [s1 + 0x268] = a0\n 17194: a0 = u64 [s1 + 0x68]\n 17197: u64 [s1 + 0x270] = a0\n 17201: a0 = s1 + 0x280\n 17205: a1 = s1 + 0x260\n 17209: a2 = u64 [s1 + 0x60]\n 17212: u64 [s1 + 0x278] = a2\n 17216: ra = 0x2b8\n 17220: t0 = 0x2e4\n 17224: jump @2372\n      : @585 [@dyn 348] (gas: 12)\n 17228: a0 = u64 [s1 + 0x60]\n 17231: a3 = s1 + 0x200\n 17235: u64 [a3 + 0x18] = a0\n 17238: a0 = u64 [s1 + 0x68]\n 17241: u64 [a3 + 0x10] = a0\n 17244: a0 = u64 [s1 + 0x70]\n 17247: u64 [a3 + 0x8] = a0\n 17250: a0 = s1 + 0x220\n 17254: a1 = s1 + 0x200\n 17258: a2 = u64 [s1 + 0x78]\n 17261: u64 [a3] = a2\n 17263: ra = 698, jump @625\n      : @586 [@dyn 349] (gas: 1)\n 17269: t0 = 700, jump @2359\n      : @587 [@dyn 350] (gas: 4)\n 17276: a1 = s1 + 0x1e0\n 17280: u64 [s1 + 480] = 0\n 17284: a0 = 0\n 17286: ra = 702, jump @24\n      : @588 [@dyn 351] (gas: 7)\n 17292: u64 [s1 + 472] = 0\n 17296: u64 [s1 + 464] = 0\n 17300: u64 [s1 + 456] = 0\n 17304: a0 = 0x20\n 17307: a1 = s1 + 0x1c0\n 17311: u64 [s1 + 448] = 0x8\n 17316: ra = 704, jump @24\n      : @589 [@dyn 352] (gas: 3)\n 17322: a1 = 0x20150\n 17327: a0 = i32 [0x20150]\n 17332: jump @591 if a0 >u 63\n      : @590 (gas: 2)\n 17336: u32 [0x20150] = 0x40\n 17342: fallthrough\n      : @591 (gas: 3)\n 17343: a0 = 0xffffffff\n 17353: u64 [s1 + 0x48] = a0\n 17356: t0 = 706, jump @2356\n      : @592 [@dyn 353] (gas: 10)\n 17363: a0 = 0x20160\n 17368: i32 a0 = a0 + 0\n 17370: i32 a2 = a2 + 0\n 17372: u64 [s1 + 0x38] = a1\n 17375: a1 = 0x40\n 17378: u64 [s1 + 0x30] = a0\n 17381: ra = 0x2c4\n 17385: ecalli 11 // 'hash_keccak_256'\n 17387: t0 = 0x2c6\n 17391: jump @2317\n      : @593 [@dyn 354] (gas: 1)\n 17395: t0 = 710, jump @2317\n      : @594 [@dyn 355] (gas: 10)\n 17402: a4 = s1 + 0x500\n 17406: u64 [a4 + 0x18] = a3\n 17409: u64 [a4 + 0x10] = a2\n 17412: u64 [a4 + 0x8] = a1\n 17415: u64 [a4] = a0\n 17417: a0 = s1 + 0x1a0\n 17421: a1 = s1 + 0x500\n 17425: ra = 0x2c8\n 17429: t0 = 0x6\n 17432: jump @2259\n      : @595 [@dyn 356] (gas: 16)\n 17436: a0 = u64 [s1 + 0x1b0]\n 17440: u64 [s1 + 0x28] = a0\n 17443: a0 = u64 [s1 + 0x1a8]\n 17447: u64 [s1 + 0x20] = a0\n 17450: a0 = u64 [s1 + 0x1a0]\n 17454: u64 [s1 + 0x18] = a0\n 17457: u64 [s1 + 408] = 0\n 17461: a0 = u64 [s1 + 0x40]\n 17464: u64 [s1 + 0x190] = a0\n 17468: a0 = u64 [s1 + 0x50]\n 17471: u64 [s1 + 0x188] = a0\n 17475: a1 = s1 + 0x180\n 17479: a0 = u64 [s1 + 0x58]\n 17482: u64 [s1 + 0x180] = a0\n 17486: a0 = 0\n 17488: ra = 714, jump @24\n      : @596 [@dyn 357] (gas: 7)\n 17494: u64 [s1 + 376] = 0\n 17498: u64 [s1 + 368] = 0\n 17502: u64 [s1 + 352] = 0x8\n 17507: a0 = 0x20\n 17510: a1 = s1 + 0x160\n 17514: u64 [s1 + 360] = 0\n 17518: ra = 716, jump @24\n      : @597 [@dyn 358] (gas: 3)\n 17524: a1 = u64 [s1 + 0x38]\n 17527: a0 = i32 [a1]\n 17529: jump @599 if a0 >u 63\n      : @598 (gas: 2)\n 17533: u32 [a1 + 0] = 0x40\n 17536: fallthrough\n      : @599 (gas: 8)\n 17537: a0 = u64 [s1 + 0x18]\n 17540: a0 = a0 & 0xffffffffffffffff\n 17543: u64 [s1 + 0x58] = a0\n 17546: a0 = u64 [s1 + 0x20]\n 17549: a0 = a0 & 0xffffffffffffffff\n 17552: u64 [s1 + 0x50] = a0\n 17555: a0 = u64 [s1 + 0x48]\n 17558: t0 = 718, jump @2310\n      : @600 [@dyn 359] (gas: 4)\n 17565: ra = 0x2d0\n 17569: ecalli 11 // 'hash_keccak_256'\n 17571: t0 = 0x2d2\n 17575: jump @2249\n      : @601 [@dyn 360] (gas: 1)\n 17579: t0 = 722, jump @2249\n      : @602 [@dyn 361] (gas: 10)\n 17586: a4 = s1 + 0x500\n 17590: u64 [a4 + 0x38] = a3\n 17593: u64 [a4 + 0x30] = a2\n 17596: u64 [a4 + 0x28] = a1\n 17599: u64 [a4 + 0x20] = a0\n 17602: a0 = s1 + 0x140\n 17606: a1 = s1 + 0x520\n 17610: ra = 0x2d4\n 17614: t0 = 0x6\n 17617: jump @2259\n      : @603 [@dyn 362] (gas: 33)\n 17621: a4 = s1 + 0x100\n 17625: a0 = u64 [a4 + 0x40]\n 17628: a1 = u64 [a4 + 0x48]\n 17631: a2 = u64 [a4 + 0x50]\n 17634: a0 = a0 & 0xffffffffffffffff\n 17637: a1 = a1 & 0xffffffffffffffff\n 17640: a3 = u64 [s1 + 0x48]\n 17643: a2 = a2 & a3\n 17646: a3 = u64 [s1 + 0x60]\n 17649: u64 [s1 + 0xf8] = a3\n 17653: a3 = u64 [s1 + 0x68]\n 17656: u64 [s1 + 0xf0] = a3\n 17660: a3 = u64 [s1 + 0x70]\n 17663: u64 [s1 + 0xe8] = a3\n 17667: a3 = u64 [s1 + 0x78]\n 17670: u64 [s1 + 0xe0] = a3\n 17674: u64 [s1 + 280] = 0\n 17678: u64 [a4 + 0x10] = a2\n 17681: u64 [a4 + 0x8] = a1\n 17684: u64 [a4] = a0\n 17686: u64 [s1 + 312] = 0\n 17690: a0 = u64 [s1 + 0x40]\n 17693: u64 [a4 + 0x30] = a0\n 17696: a0 = u64 [s1 + 0x50]\n 17699: u64 [a4 + 0x28] = a0\n 17702: a0 = s1 + 0x120\n 17706: a1 = s1 + 0x100\n 17710: a2 = s1 + 0xe0\n 17714: a3 = u64 [s1 + 0x58]\n 17717: u64 [a4 + 0x20] = a3\n 17720: ra = 0x2d6\n 17724: t0 = 0x384\n 17728: jump @2275\n      : @604 [@dyn 363] (gas: 7)\n 17732: sp = s0 + 0xfffffffffffffaa0\n 17736: a0 = sp + 0x500\n 17740: ra = u64 [a0 + 0x58]\n 17743: s0 = u64 [a0 + 0x50]\n 17746: s1 = u64 [a0 + 0x48]\n 17749: sp = sp + 0x560\n 17753: ret\n      : @605 (gas: 1)\n 17755: t0 = 728, jump @2236\n      : @606 [@dyn 364] (gas: 1)\n 17762: ra = 730, jump @24\n      : @607 [@dyn 365] (gas: 1)\n 17768: t0 = 732, jump @2283\n      : @608 [@dyn 366] (gas: 1)\n 17775: ra = 734, jump @24\n      : @609 [@dyn 367] (gas: 14)\n 17781: i32 a0 = s1 + 0x480\n 17785: ecalli 1 // 'block_number'\n 17787: a4 = s1 + 0x400\n 17791: a2 = u64 [a4 + 0x80]\n 17795: a0 = u64 [a4 + 0x88]\n 17799: a1 = u64 [a4 + 0x90]\n 17803: a3 = u64 [a4 + 0x98]\n 17807: u64 [s1 + 0x98] = a3\n 17811: u64 [s1 + 0x90] = a1\n 17815: u64 [s1 + 0x88] = a0\n 17819: a0 = 0x24\n 17822: a1 = s1 + 0x80\n 17826: u64 [s1 + 0x80] = a2\n 17830: ra = 736, jump @24\n      : @610 [@dyn 368] (gas: 2)\n 17836: a1 = i32 [0x20150]\n 17841: jump @612 if a1 >u 95\n      : @611 (gas: 2)\n 17845: u32 [0x20150] = 0x60\n 17851: fallthrough\n      : @612 (gas: 8)\n 17852: a1 = 0x20160\n 17857: i32 a1 = a1 + 0\n 17859: a0 = 0x1\n 17862: a2 = 0x44\n 17865: ra = 0x2e2\n 17869: ecalli 16 // 'seal_return'\n 17871: t0 = 0x2e4\n 17875: jump @2372\n      : @613 [@dyn 369] (gas: 1)\n 17879: t0 = 740, jump @2372\n      : @614 [@dyn 370] (gas: 10)\n 17886: a4 = u64 [a1 + 0x8]\n 17889: s1 = u64 [a1 + 0x18]\n 17892: a5 = u64 [a1 + 0x10]\n 17895: a3 = u64 [a1]\n 17897: a1 = s1 ^ 0x10000\n 17902: a1 = a1 | a5\n 17905: a2 = s1 >> 0x10\n 17908: a2 = a2 <u 0x1\n 17911: a2 = 0 if a1 == 0\n 17913: jump @617 if a2 == 0\n      : @615 (gas: 5)\n 17916: u64 [a0] = a3\n 17918: u64 [a0 + 0x8] = a4\n 17921: u64 [a0 + 0x10] = a5\n 17924: u64 [a0 + 0x18] = s1\n 17927: t0 = 742, jump @2309\n      : @616 [@dyn 371] (gas: 1)\n 17934: ret\n      : @617 (gas: 1)\n 17936: t0 = 744, jump @2323\n      : @618 [@dyn 372] (gas: 3)\n 17943: u64 [sp + 0x10] = a4\n 17946: u64 [sp + 0x8] = a5\n 17949: ra = 746, jump @24\n      : @619 [@dyn 373] (gas: 7)\n 17955: u64 [sp + 88] = 0\n 17958: u64 [sp + 80] = 0\n 17961: u64 [sp + 64] = 0xd0\n 17966: a0 = 0x4\n 17969: a1 = sp + 0x40\n 17972: u64 [sp + 72] = 0\n 17975: ra = 748, jump @24\n      : @620 [@dyn 374] (gas: 4)\n 17981: u64 [sp + 0x38] = s1\n 17984: a0 = u64 [sp + 0x8]\n 17987: u64 [sp + 0x30] = a0\n 17990: t0 = 750, jump @2360\n      : @621 [@dyn 375] (gas: 1)\n 17997: ra = 752, jump @24\n      : @622 [@dyn 376] (gas: 2)\n 18003: a1 = i32 [0x20150]\n 18008: jump @624 if a1 >u 95\n      : @623 (gas: 2)\n 18012: u32 [0x20150] = 0x60\n 18018: fallthrough\n      : @624 (gas: 7)\n 18019: a1 = 0x20160\n 18024: i32 a1 = a1 + 0\n 18026: a0 = 0x1\n 18029: a2 = 0x44\n 18032: ra = 0x2f2\n 18036: ecalli 16 // 'seal_return'\n 18038: fallthrough\n      : @625 [@dyn 377] (gas: 21)\n 18039: sp = sp + 0xfffffffffffffd00\n 18043: a2 = sp + 0x200\n 18047: u64 [a2 + 0xf8] = ra\n 18051: u64 [a2 + 0xf0] = s0\n 18055: u64 [a2 + 0xe8] = s1\n 18059: s0 = sp + 0x300\n 18063: sp = sp & 0xffffffffffffffe0\n 18066: s1 = sp\n 18068: a2 = u64 [a1 + 0x18]\n 18071: u64 [s1 + 0x50] = a2\n 18074: a2 = u64 [a1 + 0x10]\n 18077: u64 [s1 + 0x48] = a2\n 18080: a2 = u64 [a1 + 0x8]\n 18083: u64 [s1 + 0x40] = a2\n 18086: a1 = u64 [a1]\n 18088: u64 [s1 + 0x38] = a1\n 18091: u64 [s1 + 0x58] = a0\n 18094: i32 a0 = s1 + 0x240\n 18098: ra = 0x2f4\n 18102: ecalli 1 // 'block_number'\n 18104: fallthrough\n      : @626 [@dyn 378] (gas: 6)\n 18105: a4 = s1 + 0x200\n 18109: a0 = u64 [a4 + 0x58]\n 18112: a1 = u64 [a4 + 0x48]\n 18115: a2 = u16 [s1 + 0x246]\n 18119: a3 = u64 [a4 + 0x50]\n 18122: t0 = 758, jump @2268\n      : @627 [@dyn 379] (gas: 1)\n 18129: jump @643 if a0 != 0\n      : @628 (gas: 9)\n 18133: u64 [s1 + 664] = 0\n 18137: u64 [s1 + 656] = 0\n 18141: u64 [s1 + 648] = 0\n 18145: u64 [s1 + 640] = 0xa\n 18150: a0 = s1 + 0x220\n 18154: a1 = s1 + 0x280\n 18158: ra = 0x2f8\n 18162: t0 = 0x6\n 18165: jump @2259\n      : @629 [@dyn 380] (gas: 9)\n 18169: a0 = s1 + 0x200\n 18173: a3 = u64 [a0 + 0x38]\n 18176: a2 = u64 [a0 + 0x30]\n 18179: a4 = u64 [a0 + 0x28]\n 18182: a5 = u64 [a0 + 0x20]\n 18185: a0 = a4 | a3\n 18188: a1 = a5 | a2\n 18191: a0 = a0 | a1\n 18194: jump @639 if a0 == 0\n      : @630 (gas: 11)\n 18198: u64 [s1 + 0x18] = a5\n 18201: u64 [s1 + 0x20] = a4\n 18204: u64 [s1 + 0x28] = a3\n 18207: u64 [s1 + 0x30] = a2\n 18210: u64 [s1 + 536] = 0\n 18214: u64 [s1 + 528] = 0\n 18218: u64 [s1 + 520] = 0\n 18222: a1 = s1 + 0x200\n 18226: u64 [s1 + 512] = 0xa\n 18231: a0 = 0\n 18233: ra = 762, jump @24\n      : @631 [@dyn 381] (gas: 2)\n 18239: a1 = i32 [0x20150]\n 18244: jump @633 if a1 >u 31\n      : @632 (gas: 4)\n 18248: a1 = 0x20\n 18251: u32 [0x20150] = a1\n 18256: t0 = 0x2fc\n 18260: jump @2260\n      : @633 (gas: 1)\n 18264: t0 = 764, jump @2260\n      : @634 [@dyn 382] (gas: 7)\n 18271: a0 = 0x20160\n 18276: i32 a0 = a0 + 0\n 18278: i32 a2 = a2 + 0\n 18280: a1 = 0x20\n 18283: ra = 0x2fe\n 18287: ecalli 11 // 'hash_keccak_256'\n 18289: fallthrough\n      : @635 [@dyn 383] (gas: 27)\n 18290: a3 = u64 [s1 + 0x10]\n 18293: a0 = u64 [a3]\n 18295: a1 = u64 [a3 + 0x8]\n 18298: a2 = u64 [a3 + 0x18]\n 18301: a3 = u64 [a3 + 0x10]\n 18304: t0 = reverse a0\n 18306: a1 = reverse a1\n 18308: a0 = reverse a2\n 18310: a2 = reverse a3\n 18312: a4 = u64 [s1 + 0x20]\n 18315: a2 = a2 + a4\n 18318: a3 = u64 [s1 + 0x18]\n 18321: a0 = a0 + a3\n 18324: a3 = a0 <u a3\n 18327: a2 = a2 + a3\n 18330: a5 = a2 ^ a4\n 18333: a4 = a2 <u a4\n 18336: a4 = a3 if a5 == 0\n 18339: a5 = u64 [s1 + 0x30]\n 18342: a1 = a1 + a5\n 18345: a4 = a4 + a1\n 18348: t1 = a4 <u a1\n 18351: a3 = u64 [s1 + 0x28]\n 18354: t0 = t0 + a3\n 18357: a1 = a1 <u a5\n 18360: a1 = a1 + t0\n 18363: t0 = 768, jump @2248\n      : @636 [@dyn 384] (gas: 10)\n 18370: a3 = s1 + 0x200\n 18374: u64 [a3 + 0xa0] = a0\n 18378: u64 [a3 + 0xa8] = a2\n 18382: u64 [a3 + 0xb0] = a4\n 18386: u64 [a3 + 0xb8] = a1\n 18390: a0 = s1 + 0x1e0\n 18394: a1 = s1 + 0x2a0\n 18398: ra = 0x302\n 18402: t0 = 0x6\n 18405: jump @2259\n      : @637 [@dyn 385] (gas: 6)\n 18409: a0 = s1 + 0x100\n 18413: a4 = u64 [a0 + 0xf8]\n 18417: a1 = u64 [a0 + 0xf0]\n 18421: a2 = u16 [s1 + 0x1e6]\n 18425: a3 = u64 [a0 + 0xe8]\n 18429: t0 = 772, jump @2234\n      : @638 [@dyn 386] (gas: 1)\n 18436: jump @640\n      : @639 (gas: 4)\n 18438: a2 = 0\n 18440: a1 = 0\n 18442: a4 = 0\n 18444: fallthrough\n      : @640 (gas: 21)\n 18445: a3 = u64 [s1 + 0x38]\n 18448: u64 [s1 + 0x160] = a3\n 18452: u64 [s1 + 0x180] = a2\n 18456: u64 [s1 + 440] = 0\n 18460: u64 [s1 + 432] = 0\n 18464: u64 [s1 + 424] = 0\n 18468: u64 [s1 + 416] = 0x2\n 18473: a2 = u64 [s1 + 0x40]\n 18476: u64 [s1 + 0x168] = a2\n 18480: u64 [s1 + 0x188] = a1\n 18484: a1 = u64 [s1 + 0x48]\n 18487: u64 [s1 + 0x170] = a1\n 18491: u64 [s1 + 0x190] = a0\n 18495: a0 = u64 [s1 + 0x50]\n 18498: u64 [s1 + 0x178] = a0\n 18502: a0 = s1 + 0x1c0\n 18506: a1 = s1 + 0x1a0\n 18510: a2 = s1 + 0x180\n 18514: a3 = s1 + 0x160\n 18518: u64 [s1 + 0x198] = a4\n 18522: ra = 774, jump @842\n      : @641 [@dyn 387] (gas: 36)\n 18528: a0 = u64 [s1 + 0x1c0]\n 18532: u64 [s1 + 0x50] = a0\n 18535: a0 = u64 [s1 + 0x1c8]\n 18539: u64 [s1 + 0x48] = a0\n 18542: a0 = u64 [s1 + 0x1d0]\n 18546: u64 [s1 + 0x40] = a0\n 18549: a0 = u64 [s1 + 0x1d8]\n 18553: u64 [s1 + 0x38] = a0\n 18556: i32 a0 = s1 + 0x2c0\n 18560: ecalli 1 // 'block_number'\n 18562: a0 = u64 [s1 + 0x2c0]\n 18566: a0 = a0 << 0x10\n 18569: a4 = a0 >> 0x10\n 18572: a0 = u64 [s1 + 0x38]\n 18575: u64 [s1 + 0xd8] = a0\n 18579: a0 = u64 [s1 + 0x40]\n 18582: u64 [s1 + 0xd0] = a0\n 18586: a0 = u64 [s1 + 0x48]\n 18589: u64 [s1 + 0xc8] = a0\n 18593: a0 = u64 [s1 + 0x50]\n 18596: u64 [s1 + 0xc0] = a0\n 18600: u64 [s1 + 248] = 0\n 18604: u64 [s1 + 240] = 0\n 18608: u64 [s1 + 232] = 0\n 18612: u64 [s1 + 280] = 0\n 18616: u64 [s1 + 272] = 0\n 18620: u64 [s1 + 264] = 0\n 18624: u64 [s1 + 256] = 0xa\n 18629: a0 = s1 + 0x120\n 18633: a1 = s1 + 0x100\n 18637: a2 = s1 + 0xe0\n 18641: a3 = s1 + 0xc0\n 18645: u64 [s1 + 0xe0] = a4\n 18649: ra = 0x308\n 18653: t0 = 0x3ec\n 18657: jump @2212\n      : @642 [@dyn 388] (gas: 25)\n 18661: t0 = u64 [s1 + 0x128]\n 18665: t1 = u64 [s1 + 0x120]\n 18669: t2 = u64 [s1 + 0x138]\n 18673: a2 = s1 + 0x100\n 18677: a3 = u64 [a2 + 0x30]\n 18680: a4 = u64 [a2 + 0x50]\n 18683: a5 = u64 [a2 + 0x58]\n 18686: a0 = u64 [a2 + 0x40]\n 18689: a1 = u64 [a2 + 0x48]\n 18692: a2 = u64 [s1 + 0x58]\n 18695: u64 [a2 + 0x30] = a4\n 18698: u64 [a2 + 0x38] = a5\n 18701: u64 [a2 + 0x20] = a0\n 18704: u64 [a2 + 0x28] = a1\n 18707: u64 [a2 + 0x10] = a3\n 18710: u64 [a2 + 0x18] = t2\n 18713: u64 [a2] = t1\n 18715: u64 [a2 + 0x8] = t0\n 18718: sp = s0 + 0xfffffffffffffd00\n 18722: a0 = sp + 0x200\n 18726: ra = u64 [a0 + 0xf8]\n 18730: s0 = u64 [a0 + 0xf0]\n 18734: s1 = u64 [a0 + 0xe8]\n 18738: sp = sp + 0x300\n 18742: ret\n      : @643 (gas: 1)\n 18744: t0 = 778, jump @2347\n      : @644 [@dyn 389] (gas: 5)\n 18751: a0 = 0x6dfcc65000000000\n 18761: a1 = s1 + 0xa0\n 18765: u64 [s1 + 0xb8] = a0\n 18769: a0 = 0\n 18771: ra = 780, jump @24\n      : @645 [@dyn 390] (gas: 7)\n 18777: u64 [s1 + 152] = 0\n 18781: u64 [s1 + 144] = 0\n 18785: u64 [s1 + 128] = 0x30\n 18790: a0 = 0x4\n 18793: a1 = s1 + 0x80\n 18797: u64 [s1 + 136] = 0\n 18801: ra = 782, jump @24\n      : @646 [@dyn 391] (gas: 14)\n 18807: i32 a0 = s1 + 0x260\n 18811: ecalli 1 // 'block_number'\n 18813: a4 = s1 + 0x200\n 18817: a2 = u64 [a4 + 0x60]\n 18820: a0 = u64 [a4 + 0x68]\n 18823: a1 = u64 [a4 + 0x70]\n 18826: a3 = u64 [a4 + 0x78]\n 18829: u64 [s1 + 0x78] = a3\n 18832: u64 [s1 + 0x70] = a1\n 18835: u64 [s1 + 0x68] = a0\n 18838: a0 = 0x24\n 18841: a1 = s1 + 0x60\n 18844: u64 [s1 + 0x60] = a2\n 18847: ra = 784, jump @24\n      : @647 [@dyn 392] (gas: 2)\n 18853: a1 = i32 [0x20150]\n 18858: jump @649 if a1 >u 95\n      : @648 (gas: 2)\n 18862: u32 [0x20150] = 0x60\n 18868: fallthrough\n      : @649 (gas: 8)\n 18869: a1 = 0x20160\n 18874: i32 a1 = a1 + 0\n 18876: a0 = 0x1\n 18879: a2 = 0x44\n 18882: ra = 0x312\n 18886: ecalli 16 // 'seal_return'\n 18888: t0 = 0x314\n 18892: jump @2221\n      : @650 [@dyn 393] (gas: 1)\n 18896: t0 = 788, jump @2221\n      : @651 [@dyn 394] (gas: 3)\n 18903: ra = 0x316\n 18907: ecalli 1 // 'block_number'\n 18909: fallthrough\n      : @652 [@dyn 395] (gas: 6)\n 18910: a4 = s1 + 0x200\n 18914: a0 = u64 [a4 + 0x98]\n 18918: a1 = u64 [a4 + 0x88]\n 18922: a2 = u16 [s1 + 0x286]\n 18926: a3 = u64 [a4 + 0x90]\n 18930: t0 = 792, jump @2268\n      : @653 [@dyn 396] (gas: 1)\n 18937: jump @677 if a0 != 0\n      : @654 (gas: 5)\n 18941: a0 = s1 + 0x240\n 18945: a1 = s1 + 0x260\n 18949: ra = 0x31a\n 18953: t0 = 0x6\n 18956: jump @2259\n      : @655 [@dyn 397] (gas: 1)\n 18960: t0 = 796, jump @2335\n      : @656 [@dyn 398] (gas: 1)\n 18967: jump @667 if a0 == 0\n      : @657 (gas: 1)\n 18971: t0 = 798, jump @2278\n      : @658 [@dyn 399] (gas: 1)\n 18978: ra = 800, jump @24\n      : @659 [@dyn 400] (gas: 2)\n 18984: a1 = i32 [0x20150]\n 18989: jump @661 if a1 >u 31\n      : @660 (gas: 4)\n 18993: a1 = 0x20\n 18996: u32 [0x20150] = a1\n 19001: t0 = 0x322\n 19005: jump @2260\n      : @661 (gas: 1)\n 19009: t0 = 802, jump @2260\n      : @662 [@dyn 401] (gas: 7)\n 19016: a0 = 0x20160\n 19021: i32 a0 = a0 + 0\n 19023: i32 a2 = a2 + 0\n 19025: a1 = 0x20\n 19028: ra = 0x324\n 19032: ecalli 11 // 'hash_keccak_256'\n 19034: fallthrough\n      : @663 [@dyn 402] (gas: 27)\n 19035: a3 = u64 [s1 + 0x10]\n 19038: a0 = u64 [a3]\n 19040: a1 = u64 [a3 + 0x8]\n 19043: a2 = u64 [a3 + 0x18]\n 19046: a3 = u64 [a3 + 0x10]\n 19049: t0 = reverse a0\n 19051: a1 = reverse a1\n 19053: a0 = reverse a2\n 19055: a2 = reverse a3\n 19057: a4 = u64 [s1 + 0x20]\n 19060: a2 = a2 + a4\n 19063: a3 = u64 [s1 + 0x18]\n 19066: a0 = a0 + a3\n 19069: a3 = a0 <u a3\n 19072: a2 = a2 + a3\n 19075: a5 = a2 ^ a4\n 19078: a4 = a2 <u a4\n 19081: a4 = a3 if a5 == 0\n 19084: a5 = u64 [s1 + 0x30]\n 19087: a1 = a1 + a5\n 19090: a4 = a4 + a1\n 19093: t1 = a4 <u a1\n 19096: a3 = u64 [s1 + 0x28]\n 19099: t0 = t0 + a3\n 19102: a1 = a1 <u a5\n 19105: a1 = a1 + t0\n 19108: t0 = 806, jump @2238\n      : @664 [@dyn 403] (gas: 3)\n 19115: ra = 0x328\n 19119: t0 = 0x6\n 19122: jump @2259\n      : @665 [@dyn 404] (gas: 6)\n 19126: a0 = s1 + 0x200\n 19130: a4 = u64 [a0 + 0x18]\n 19133: a1 = u64 [a0 + 0x10]\n 19136: a2 = u16 [s1 + 0x206]\n 19140: a3 = u64 [a0 + 0x8]\n 19143: t0 = 810, jump @2234\n      : @666 [@dyn 405] (gas: 1)\n 19150: jump @668\n      : @667 (gas: 5)\n 19152: a2 = 0\n 19154: a1 = 0\n 19156: a4 = 0\n 19158: t0 = 0x32c\n 19162: jump @2339\n      : @668 (gas: 1)\n 19166: t0 = 812, jump @2339\n      : @669 [@dyn 406] (gas: 2)\n 19173: a2 = 0x2\n 19176: t0 = 814, jump @2239\n      : @670 [@dyn 407] (gas: 1)\n 19183: ra = 816, jump @842\n      : @671 [@dyn 408] (gas: 1)\n 19189: t0 = 818, jump @2297\n      : @672 [@dyn 409] (gas: 4)\n 19196: ra = 0x334\n 19200: ecalli 1 // 'block_number'\n 19202: t0 = 0x336\n 19206: jump @2217\n      : @673 [@dyn 410] (gas: 1)\n 19210: t0 = 822, jump @2217\n      : @674 [@dyn 411] (gas: 3)\n 19217: ra = 0x338\n 19221: t0 = 0x3ec\n 19225: jump @2212\n      : @675 [@dyn 412] (gas: 19)\n 19229: t0 = u64 [s1 + 0x148]\n 19233: t1 = u64 [s1 + 0x140]\n 19237: t2 = u64 [s1 + 0x158]\n 19241: a2 = s1 + 0x100\n 19245: a3 = u64 [a2 + 0x50]\n 19248: a4 = u64 [a2 + 0x70]\n 19251: a5 = u64 [a2 + 0x78]\n 19254: a0 = u64 [a2 + 0x60]\n 19257: a1 = u64 [a2 + 0x68]\n 19260: a2 = u64 [s1 + 0x58]\n 19263: u64 [a2 + 0x30] = a4\n 19266: u64 [a2 + 0x38] = a5\n 19269: u64 [a2 + 0x20] = a0\n 19272: u64 [a2 + 0x28] = a1\n 19275: u64 [a2 + 0x10] = a3\n 19278: u64 [a2 + 0x18] = t2\n 19281: u64 [a2] = t1\n 19283: u64 [a2 + 0x8] = t0\n 19286: t0 = 826, jump @2263\n      : @676 [@dyn 413] (gas: 1)\n 19293: ret\n      : @677 (gas: 1)\n 19295: t0 = 828, jump @2236\n      : @678 [@dyn 414] (gas: 1)\n 19302: ra = 830, jump @24\n      : @679 [@dyn 415] (gas: 1)\n 19308: t0 = 832, jump @2283\n      : @680 [@dyn 416] (gas: 1)\n 19315: ra = 834, jump @24\n      : @681 [@dyn 417] (gas: 5)\n 19321: i32 a0 = s1 + 0x2a0\n 19325: ra = 0x344\n 19329: ecalli 1 // 'block_number'\n 19331: t0 = 0x346\n 19335: jump @2308\n      : @682 [@dyn 418] (gas: 1)\n 19339: t0 = 838, jump @2308\n      : @683 [@dyn 419] (gas: 1)\n 19346: ra = 840, jump @24\n      : @684 [@dyn 420] (gas: 2)\n 19352: a1 = i32 [0x20150]\n 19357: jump @686 if a1 >u 95\n      : @685 (gas: 2)\n 19361: u32 [0x20150] = 0x60\n 19367: fallthrough\n      : @686 (gas: 8)\n 19368: a1 = 0x20160\n 19373: i32 a1 = a1 + 0\n 19375: a0 = 0x1\n 19378: a2 = 0x44\n 19381: ra = 0x34a\n 19385: ecalli 16 // 'seal_return'\n 19387: t0 = 0x34c\n 19391: jump @2221\n      : @687 [@dyn 421] (gas: 1)\n 19395: t0 = 844, jump @2221\n      : @688 [@dyn 422] (gas: 3)\n 19402: ra = 0x34e\n 19406: ecalli 1 // 'block_number'\n 19408: fallthrough\n      : @689 [@dyn 423] (gas: 6)\n 19409: a4 = s1 + 0x200\n 19413: a0 = u64 [a4 + 0x98]\n 19417: a1 = u64 [a4 + 0x88]\n 19421: a2 = u16 [s1 + 0x286]\n 19425: a3 = u64 [a4 + 0x90]\n 19429: t0 = 848, jump @2268\n      : @690 [@dyn 424] (gas: 1)\n 19436: jump @714 if a0 != 0\n      : @691 (gas: 5)\n 19440: a0 = s1 + 0x240\n 19444: a1 = s1 + 0x260\n 19448: ra = 0x352\n 19452: t0 = 0x6\n 19455: jump @2259\n      : @692 [@dyn 425] (gas: 1)\n 19459: t0 = 852, jump @2335\n      : @693 [@dyn 426] (gas: 1)\n 19466: jump @704 if a0 == 0\n      : @694 (gas: 1)\n 19470: t0 = 854, jump @2278\n      : @695 [@dyn 427] (gas: 1)\n 19477: ra = 856, jump @24\n      : @696 [@dyn 428] (gas: 2)\n 19483: a1 = i32 [0x20150]\n 19488: jump @698 if a1 >u 31\n      : @697 (gas: 4)\n 19492: a1 = 0x20\n 19495: u32 [0x20150] = a1\n 19500: t0 = 0x35a\n 19504: jump @2260\n      : @698 (gas: 1)\n 19508: t0 = 858, jump @2260\n      : @699 [@dyn 429] (gas: 7)\n 19515: a0 = 0x20160\n 19520: i32 a0 = a0 + 0\n 19522: i32 a2 = a2 + 0\n 19524: a1 = 0x20\n 19527: ra = 0x35c\n 19531: ecalli 11 // 'hash_keccak_256'\n 19533: fallthrough\n      : @700 [@dyn 430] (gas: 27)\n 19534: a3 = u64 [s1 + 0x10]\n 19537: a0 = u64 [a3]\n 19539: a1 = u64 [a3 + 0x8]\n 19542: a2 = u64 [a3 + 0x18]\n 19545: a3 = u64 [a3 + 0x10]\n 19548: t0 = reverse a0\n 19550: a1 = reverse a1\n 19552: a0 = reverse a2\n 19554: a2 = reverse a3\n 19556: a4 = u64 [s1 + 0x20]\n 19559: a2 = a2 + a4\n 19562: a3 = u64 [s1 + 0x18]\n 19565: a0 = a0 + a3\n 19568: a3 = a0 <u a3\n 19571: a2 = a2 + a3\n 19574: a5 = a2 ^ a4\n 19577: a4 = a2 <u a4\n 19580: a4 = a3 if a5 == 0\n 19583: a5 = u64 [s1 + 0x30]\n 19586: a1 = a1 + a5\n 19589: a4 = a4 + a1\n 19592: t1 = a4 <u a1\n 19595: a3 = u64 [s1 + 0x28]\n 19598: t0 = t0 + a3\n 19601: a1 = a1 <u a5\n 19604: a1 = a1 + t0\n 19607: t0 = 862, jump @2238\n      : @701 [@dyn 431] (gas: 3)\n 19614: ra = 0x360\n 19618: t0 = 0x6\n 19621: jump @2259\n      : @702 [@dyn 432] (gas: 6)\n 19625: a0 = s1 + 0x200\n 19629: a4 = u64 [a0 + 0x18]\n 19632: a1 = u64 [a0 + 0x10]\n 19635: a2 = u16 [s1 + 0x206]\n 19639: a3 = u64 [a0 + 0x8]\n 19642: t0 = 866, jump @2234\n      : @703 [@dyn 433] (gas: 1)\n 19649: jump @705\n      : @704 (gas: 5)\n 19651: a2 = 0\n 19653: a1 = 0\n 19655: a4 = 0\n 19657: t0 = 0x364\n 19661: jump @2339\n      : @705 (gas: 1)\n 19665: t0 = 868, jump @2339\n      : @706 [@dyn 434] (gas: 2)\n 19672: a2 = 0x1\n 19675: t0 = 870, jump @2239\n      : @707 [@dyn 435] (gas: 1)\n 19682: ra = 872, jump @842\n      : @708 [@dyn 436] (gas: 1)\n 19688: t0 = 874, jump @2297\n      : @709 [@dyn 437] (gas: 4)\n 19695: ra = 0x36c\n 19699: ecalli 1 // 'block_number'\n 19701: t0 = 0x36e\n 19705: jump @2217\n      : @710 [@dyn 438] (gas: 1)\n 19709: t0 = 878, jump @2217\n      : @711 [@dyn 439] (gas: 3)\n 19716: ra = 0x370\n 19720: t0 = 0x3ec\n 19724: jump @2212\n      : @712 [@dyn 440] (gas: 19)\n 19728: t0 = u64 [s1 + 0x148]\n 19732: t1 = u64 [s1 + 0x140]\n 19736: t2 = u64 [s1 + 0x158]\n 19740: a2 = s1 + 0x100\n 19744: a3 = u64 [a2 + 0x50]\n 19747: a4 = u64 [a2 + 0x70]\n 19750: a5 = u64 [a2 + 0x78]\n 19753: a0 = u64 [a2 + 0x60]\n 19756: a1 = u64 [a2 + 0x68]\n 19759: a2 = u64 [s1 + 0x58]\n 19762: u64 [a2 + 0x30] = a4\n 19765: u64 [a2 + 0x38] = a5\n 19768: u64 [a2 + 0x20] = a0\n 19771: u64 [a2 + 0x28] = a1\n 19774: u64 [a2 + 0x10] = a3\n 19777: u64 [a2 + 0x18] = t2\n 19780: u64 [a2] = t1\n 19782: u64 [a2 + 0x8] = t0\n 19785: t0 = 882, jump @2263\n      : @713 [@dyn 441] (gas: 1)\n 19792: ret\n      : @714 (gas: 1)\n 19794: t0 = 884, jump @2236\n      : @715 [@dyn 442] (gas: 1)\n 19801: ra = 886, jump @24\n      : @716 [@dyn 443] (gas: 1)\n 19807: t0 = 888, jump @2283\n      : @717 [@dyn 444] (gas: 1)\n 19814: ra = 890, jump @24\n      : @718 [@dyn 445] (gas: 5)\n 19820: i32 a0 = s1 + 0x2a0\n 19824: ra = 0x37c\n 19828: ecalli 1 // 'block_number'\n 19830: t0 = 0x37e\n 19834: jump @2308\n      : @719 [@dyn 446] (gas: 1)\n 19838: t0 = 894, jump @2308\n      : @720 [@dyn 447] (gas: 1)\n 19845: ra = 896, jump @24\n      : @721 [@dyn 448] (gas: 2)\n 19851: a1 = i32 [0x20150]\n 19856: jump @723 if a1 >u 95\n      : @722 (gas: 2)\n 19860: u32 [0x20150] = 0x60\n 19866: fallthrough\n      : @723 (gas: 8)\n 19867: a1 = 0x20160\n 19872: i32 a1 = a1 + 0\n 19874: a0 = 0x1\n 19877: a2 = 0x44\n 19880: ra = 0x382\n 19884: ecalli 16 // 'seal_return'\n 19886: t0 = 0x384\n 19890: jump @2275\n      : @724 [@dyn 449] (gas: 1)\n 19894: t0 = 900, jump @2275\n      : @725 [@dyn 450] (gas: 16)\n 19901: t0 = u64 [a0 + 0x10]\n 19904: a3 = u64 [a1 + 0x10]\n 19907: u64 [sp + 0xb8] = a4\n 19911: a4 = a4 ^ t2\n 19914: u64 [sp + 0xb0] = a5\n 19918: a5 = a5 ^ t1\n 19921: a4 = a4 | a5\n 19924: u64 [sp + 0xa0] = a3\n 19928: a5 = a3 << 0x20\n 19931: ra = a5 >> 0x20\n 19934: a5 = t0 << 0x20\n 19937: a5 = a5 >> 0x20\n 19940: u64 [sp + 0xc0] = a5\n 19944: a5 = a5 ^ ra\n 19947: a4 = a4 | a5\n 19950: jump @761 if a4 == 0\n      : @726 (gas: 12)\n 19954: a3 = u64 [a2 + 0x18]\n 19957: a5 = u64 [a2 + 0x10]\n 19960: a4 = u64 [a2]\n 19962: s1 = u64 [a2 + 0x8]\n 19965: u64 [sp + 0xa8] = a4\n 19969: u64 [sp + 0xd8] = a5\n 19973: a2 = a4 | a5\n 19976: u64 [sp + 0xd0] = a3\n 19980: u64 [sp + 0xc8] = s1\n 19984: a4 = s1 | a3\n 19987: a2 = a2 | a4\n 19990: jump @761 if a2 == 0\n      : @727 (gas: 15)\n 19994: a3 = u64 [a1 + 0x18]\n 19997: u64 [sp + 144] = 0xffff\n 20004: a1 = u64 [sp + 0xc0]\n 20008: a4 = u64 [sp + 0xb8]\n 20012: a1 = a1 | a4\n 20015: a5 = u64 [sp + 0xb0]\n 20019: a1 = a1 | a5\n 20022: u64 [sp + 0x58] = a2\n 20025: u64 [sp + 0x60] = a2\n 20028: u64 [sp + 0x68] = a2\n 20031: u64 [sp + 0x70] = a2\n 20034: u64 [sp + 0x88] = ra\n 20038: u64 [sp + 0x80] = t1\n 20042: u64 [sp + 0x78] = t2\n 20045: jump @745 if a1 == 0\n      : @728 (gas: 12)\n 20049: u64 [sp + 0x8] = a3\n 20052: a0 = u64 [a0 + 0x18]\n 20055: a2 = sp + 0x400\n 20059: u64 [a2 + 0x60] = a4\n 20062: u64 [a2 + 0x70] = t0\n 20065: u64 [a2 + 0x78] = a0\n 20068: a0 = sp + 0x480\n 20072: a1 = sp + 0x460\n 20076: u64 [a2 + 0x68] = a5\n 20079: ra = 0x386\n 20083: t0 = 0x7b8\n 20087: jump @2257\n      : @729 [@dyn 451] (gas: 1)\n 20091: t0 = 904, jump @2250\n      : @730 [@dyn 452] (gas: 3)\n 20098: ra = 0x38a\n 20102: t0 = 0x2e4\n 20106: jump @2372\n      : @731 [@dyn 453] (gas: 1)\n 20110: t0 = 908, jump @2264\n      : @732 [@dyn 454] (gas: 3)\n 20117: ra = 0x38e\n 20121: t0 = 0x314\n 20125: jump @2221\n      : @733 [@dyn 455] (gas: 1)\n 20129: t0 = 912, jump @2256\n      : @734 [@dyn 456] (gas: 1)\n 20136: ra = 914, jump @22\n      : @735 [@dyn 457] (gas: 1)\n 20142: t0 = 916, jump @2269\n      : @736 [@dyn 458] (gas: 14)\n 20149: t0 = a4 & a1\n 20152: a4 = u64 [sp + 0x98]\n 20156: a4 = a4 & a0\n 20159: u64 [sp + 0x30] = a4\n 20162: a4 = u64 [sp + 0x380]\n 20166: u64 [sp + 0x98] = a4\n 20170: a4 = u64 [sp + 0x38]\n 20173: ra = a4 & a0\n 20176: a4 = u64 [sp + 0x40]\n 20179: a0 = a0 & a4\n 20182: a4 = u64 [sp + 0x48]\n 20185: a4 = a4 & a1\n 20188: u64 [sp + 0x318] = t0\n 20192: t0 = 918, jump @2247\n      : @737 [@dyn 459] (gas: 1)\n 20199: ra = 920, jump @547\n      : @738 [@dyn 460] (gas: 6)\n 20205: ra = u64 [sp + 0x18]\n 20208: a2 = u64 [sp + 0x10]\n 20211: a0 = a2 | ra\n 20214: a3 = u64 [sp + 0x50]\n 20217: a1 = s1 | a3\n 20220: t0 = 922, jump @2313\n      : @739 [@dyn 461] (gas: 1)\n 20227: jump @763 if a0 != 0\n      : @740 (gas: 1)\n 20231: t0 = 924, jump @2337\n      : @741 [@dyn 462] (gas: 23)\n 20238: t0 = u64 [sp + 0x98]\n 20242: a1 = t2 <u t0\n 20245: a5 = a1 if a4 == 0\n 20248: t1 = u64 [sp + 0x50]\n 20251: a4 = a3 - t1\n 20254: s1 = a4 - a5\n 20257: a4 = a4 <u a5\n 20260: a3 = a3 <u t1\n 20263: a5 = u64 [sp + 0x48]\n 20266: a5 = a5 - ra\n 20269: a5 = a5 - a3\n 20272: a5 = a5 - a4\n 20275: a0 = a0 - a2\n 20278: a0 = a0 - a1\n 20281: a1 = t2 - t0\n 20284: a0 = a0 | a5\n 20287: a2 = a1 | s1\n 20290: a2 = a2 | a0\n 20293: a0 = a0 | s1\n 20296: a2 = a2 >> 0x20\n 20299: a0 = a0 << 0x20\n 20302: a0 = a0 | a2\n 20305: jump @763 if a0 != 0\n      : @742 (gas: 7)\n 20309: a5 = sp + 0x200\n 20313: u64 [a5 + 216] = 0\n 20317: a0 = u64 [sp + 0xb8]\n 20321: u64 [a5 + 0xc0] = a0\n 20325: a0 = u64 [sp + 0xb0]\n 20329: u64 [a5 + 0xc8] = a0\n 20333: t0 = 926, jump @2327\n      : @743 [@dyn 463] (gas: 12)\n 20340: u64 [a5 + 0xf8] = a0\n 20344: u64 [a5 + 0xf0] = a2\n 20348: u64 [a5 + 0xe8] = a3\n 20352: u64 [a5 + 0xe0] = a4\n 20356: a2 = sp + 0x2e0\n 20360: a3 = sp + 0x2c0\n 20364: a0 = u64 [sp + 0xc0]\n 20368: u64 [a5 + 0xd0] = a0\n 20372: a0 = u64 [sp + 0x98]\n 20376: ra = 0x3a0\n 20380: t0 = 0xa\n 20383: jump @2373\n      : @744 [@dyn 464] (gas: 5)\n 20387: ra = u64 [sp + 0x88]\n 20391: t1 = u64 [sp + 0x80]\n 20395: t2 = u64 [sp + 0x78]\n 20398: a3 = u64 [sp + 0x8]\n 20401: fallthrough\n      : @745 (gas: 3)\n 20402: a0 = t2 | ra\n 20405: a0 = a0 | t1\n 20408: jump @761 if a0 == 0\n      : @746 (gas: 1)\n 20412: t0 = 930, jump @2354\n      : @747 [@dyn 465] (gas: 3)\n 20419: ra = 0x3a4\n 20423: t0 = 0x7b8\n 20427: jump @2257\n      : @748 [@dyn 466] (gas: 1)\n 20431: t0 = 934, jump @2266\n      : @749 [@dyn 467] (gas: 3)\n 20438: ra = 0x3a8\n 20442: t0 = 0x2e4\n 20446: jump @2372\n      : @750 [@dyn 468] (gas: 1)\n 20450: t0 = 938, jump @2271\n      : @751 [@dyn 469] (gas: 3)\n 20457: ra = 0x3ac\n 20461: t0 = 0x34c\n 20465: jump @2221\n      : @752 [@dyn 470] (gas: 1)\n 20469: t0 = 942, jump @2265\n      : @753 [@dyn 471] (gas: 1)\n 20476: ra = 944, jump @22\n      : @754 [@dyn 472] (gas: 44)\n 20482: t0 = u64 [sp + 0x1b8]\n 20486: u64 [sp + 0x98] = t0\n 20490: s1 = s1 & 0xffffffffffffffff\n 20493: u64 [sp + 0xa8] = s1\n 20497: a1 = u64 [sp + 0xa0]\n 20501: t2 = a1 & 0xffffffffffffffff\n 20504: a1 = u64 [sp + 0xb0]\n 20508: t1 = a1 & 0xffffffffffffffff\n 20511: s1 = u64 [sp + 0xb8]\n 20515: s1 = s1 & 0xffffffffffffffff\n 20518: a1 = u64 [sp + 0xd8]\n 20522: ra = a1 & 0xffffffffffffffff\n 20525: a2 = u64 [sp + 0x1b0]\n 20529: u64 [sp + 0xb8] = a2\n 20533: a1 = u64 [sp + 0x1a8]\n 20537: u64 [sp + 0xb0] = a1\n 20541: a3 = u64 [sp + 0x1a0]\n 20545: u64 [sp + 0xd8] = a3\n 20549: a5 = u64 [sp + 0xc8]\n 20553: a5 = a5 & 0xffffffffffffffff\n 20556: a4 = u64 [sp + 0x90]\n 20560: a0 = u64 [sp + 0xc0]\n 20564: a0 = a0 & a4\n 20567: a3 = u64 [sp + 0xd0]\n 20571: a3 = a3 & a4\n 20574: u64 [sp + 0x138] = a0\n 20578: u64 [sp + 0x130] = t1\n 20582: u64 [sp + 0x128] = t2\n 20586: a0 = u64 [sp + 0xa8]\n 20590: u64 [sp + 0x120] = a0\n 20594: u64 [sp + 0x158] = a3\n 20598: u64 [sp + 0x150] = a5\n 20602: u64 [sp + 0x148] = ra\n 20606: u64 [sp + 0x140] = s1\n 20610: u64 [sp + 0x178] = t0\n 20614: u64 [sp + 0x170] = a2\n 20618: u64 [sp + 0x168] = a1\n 20622: a0 = sp + 0x180\n 20626: a1 = sp + 0x160\n 20630: a2 = sp + 0x140\n 20634: a3 = sp + 0x120\n 20638: s1 = u64 [sp + 0xd8]\n 20642: u64 [sp + 0x160] = s1\n 20646: ra = 946, jump @547\n      : @755 [@dyn 473] (gas: 1)\n 20652: t0 = 948, jump @2318\n      : @756 [@dyn 474] (gas: 1)\n 20659: jump @763 if a0 != 0\n      : @757 (gas: 22)\n 20663: a0 = u64 [sp + 0x188]\n 20667: a1 = u64 [sp + 0x198]\n 20671: u64 [sp + 0xd0] = a1\n 20675: t1 = u64 [sp + 0x180]\n 20679: a3 = u64 [sp + 0x190]\n 20683: a4 = a0 ^ a2\n 20686: a5 = a0 <u a2\n 20689: t0 = u64 [sp + 0xd8]\n 20693: a1 = t1 <u t0\n 20696: a5 = a1 if a4 == 0\n 20699: a4 = a3 - s1\n 20702: t2 = a4 - a5\n 20705: a4 = a4 <u a5\n 20708: a3 = a3 <u s1\n 20711: a5 = u64 [sp + 0xd0]\n 20715: a5 = a5 - ra\n 20718: a5 = a5 - a3\n 20721: a5 = a5 - a4\n 20724: a0 = a0 - a2\n 20727: a0 = a0 - a1\n 20730: a1 = t1 - t0\n 20733: t0 = 950, jump @2220\n      : @758 [@dyn 475] (gas: 1)\n 20740: jump @763 if a0 != 0\n      : @759 (gas: 6)\n 20743: u64 [sp + 248] = 0\n 20747: a0 = u64 [sp + 0x78]\n 20750: u64 [sp + 0xe0] = a0\n 20754: a0 = u64 [sp + 0x80]\n 20758: u64 [sp + 0xe8] = a0\n 20762: t0 = 952, jump @2327\n      : @760 [@dyn 476] (gas: 12)\n 20769: u64 [sp + 0x118] = a0\n 20773: u64 [sp + 0x110] = a2\n 20777: u64 [sp + 0x108] = a3\n 20781: u64 [sp + 0x100] = a4\n 20785: a2 = sp + 0x100\n 20789: a3 = sp + 0xe0\n 20793: a0 = u64 [sp + 0x88]\n 20797: u64 [sp + 0xf0] = a0\n 20801: a0 = u64 [sp + 0xd8]\n 20805: ra = 0x3ba\n 20809: t0 = 0xa\n 20812: jump @2373\n      : @761 [@dyn 477] (gas: 1)\n 20816: t0 = 956, jump @2364\n      : @762 [@dyn 478] (gas: 1)\n 20823: ret\n      : @763 (gas: 1)\n 20825: trap\n      : @764 (gas: 8)\n 20826: a2 = u64 [a1 + 0x10]\n 20829: t1 = u64 [a1 + 0x18]\n 20832: a3 = u64 [a1 + 0x8]\n 20835: a5 = u64 [a1]\n 20837: t0 = a3 | t1\n 20840: a1 = a5 | a2\n 20843: a1 = a1 | t0\n 20846: jump @766 if a1 == 0\n      : @765 (gas: 13)\n 20849: a1 = a5 | a3\n 20852: a1 = a1 <u 0x1\n 20855: a4 = a2 <u a1\n 20858: a4 = t1 - a4\n 20861: a2 = a2 - a1\n 20864: a1 = a5 <u 0x1\n 20867: a3 = a3 - a1\n 20870: a5 = a5 + 0xffffffffffffffff\n 20873: u64 [a0] = a5\n 20875: u64 [a0 + 0x8] = a3\n 20878: u64 [a0 + 0x10] = a2\n 20881: u64 [a0 + 0x18] = a4\n 20884: ret\n      : @766 (gas: 3)\n 20886: ra = 0x3be\n 20890: t0 = 0x28e\n 20894: jump @2232\n      : @767 [@dyn 479] (gas: 18)\n 20898: a2 = u64 [a1 + 0x8]\n 20901: a3 = u16 [a1 + 0x6]\n 20904: a4 = u64 [a1 + 0x10]\n 20907: a1 = u64 [a1 + 0x18]\n 20910: a5 = a2 << 0x10\n 20913: a3 = a3 | a5\n 20916: a5 = a4 << 0x10\n 20919: a2 = a2 >> 0x30\n 20922: a2 = a2 | a5\n 20925: a5 = a1 << 0x10\n 20928: a4 = a4 >> 0x30\n 20931: a4 = a4 | a5\n 20934: a1 = a1 >> 0x30\n 20937: u64 [a0 + 0x18] = a1\n 20940: u64 [a0 + 0x10] = a4\n 20943: u64 [a0 + 0x8] = a2\n 20946: u64 [a0] = a3\n 20948: ret\n      : @768 (gas: 27)\n 20950: sp = sp + 0xffffffffffffff80\n 20953: u64 [sp + 0x78] = ra\n 20956: u64 [sp + 0x70] = s0\n 20959: u64 [sp + 0x68] = s1\n 20962: s0 = sp + 0x80\n 20966: sp = sp & 0xffffffffffffffe0\n 20969: s1 = sp\n 20971: a3 = u64 [a2 + 0x18]\n 20974: u64 [s1 + 0x38] = a3\n 20977: a3 = u64 [a2 + 0x10]\n 20980: u64 [s1 + 0x28] = a3\n 20983: a3 = u64 [a2 + 0x8]\n 20986: u64 [s1 + 0x18] = a3\n 20989: a2 = u64 [a2]\n 20991: u64 [s1 + 0x20] = a2\n 20994: a2 = u64 [a1]\n 20996: a3 = u64 [a1 + 0x8]\n 20999: a4 = u64 [a1 + 0x10]\n 21002: a1 = u64 [a1 + 0x18]\n 21005: u64 [s1 + 0x30] = a0\n 21008: u64 [s1 + 0x58] = a1\n 21011: u64 [s1 + 0x50] = a4\n 21014: u64 [s1 + 0x48] = a3\n 21017: a1 = s1 + 0x40\n 21020: u64 [s1 + 0x40] = a2\n 21023: a0 = 0\n 21025: ra = 960, jump @24\n      : @769 [@dyn 480] (gas: 2)\n 21031: a1 = i32 [0x20150]\n 21036: jump @771 if a1 >u 31\n      : @770 (gas: 4)\n 21040: a1 = 0x20\n 21043: u32 [0x20150] = a1\n 21048: t0 = 0x3c2\n 21052: jump @2260\n      : @771 (gas: 1)\n 21056: t0 = 962, jump @2260\n      : @772 [@dyn 481] (gas: 38)\n 21063: a0 = 0x20160\n 21068: i32 a0 = a0 + 0\n 21070: i32 a2 = a2 + 0\n 21072: a1 = 0x20\n 21075: ecalli 11 // 'hash_keccak_256'\n 21077: a3 = u64 [s1 + 0x10]\n 21080: a0 = u64 [a3]\n 21082: a1 = u64 [a3 + 0x8]\n 21085: a2 = u64 [a3 + 0x18]\n 21088: a3 = u64 [a3 + 0x10]\n 21091: t0 = reverse a0\n 21093: a1 = reverse a1\n 21095: a2 = reverse a2\n 21097: a3 = reverse a3\n 21099: a4 = u64 [s1 + 0x18]\n 21102: a4 = a4 + a3\n 21105: a5 = u64 [s1 + 0x20]\n 21108: a5 = a5 + a2\n 21111: a2 = a5 <u a2\n 21114: a4 = a4 + a2\n 21117: a0 = a4 ^ a3\n 21120: a3 = a4 <u a3\n 21123: a3 = a2 if a0 == 0\n 21126: a0 = u64 [s1 + 0x28]\n 21129: a0 = a0 + a1\n 21132: a3 = a3 + a0\n 21135: t1 = a3 <u a0\n 21138: a2 = u64 [s1 + 0x38]\n 21141: t0 = t0 + a2\n 21144: a0 = a0 <u a1\n 21147: a0 = a0 + t0\n 21150: a0 = a0 + t1\n 21153: a1 = u64 [s1 + 0x30]\n 21156: u64 [a1] = a5\n 21158: u64 [a1 + 0x8] = a4\n 21161: u64 [a1 + 0x10] = a3\n 21164: u64 [a1 + 0x18] = a0\n 21167: t0 = 964, jump @2307\n      : @773 [@dyn 482] (gas: 1)\n 21174: ret\n      : @774 [@dyn 483] (gas: 1)\n 21176: jump @778 if a2 != 0\n      : @775 (gas: 1)\n 21179: t0 = 968, jump @2371\n      : @776 [@dyn 484] (gas: 9)\n 21186: a1 = u64 [a1]\n 21188: a1 = a1 << 0x10\n 21191: a1 = a1 >> 0x10\n 21194: u64 [sp + 24] = 0\n 21197: u64 [sp + 16] = 0\n 21200: u64 [sp] = a1\n 21202: a1 = sp\n 21204: u64 [sp + 8] = 0\n 21207: ra = 970, jump @24\n      : @777 [@dyn 485] (gas: 5)\n 21213: sp = s0 + 0xffffffffffffffd0\n 21216: ra = u64 [sp + 0x28]\n 21219: s0 = u64 [sp + 0x20]\n 21222: sp = sp + 0x30\n 21225: ret\n      : @778 (gas: 1)\n 21227: trap\n      : @779 [@dyn 486] (gas: 1)\n 21228: jump @783 if a2 != 0\n      : @780 (gas: 1)\n 21231: t0 = 974, jump @2371\n      : @781 [@dyn 487] (gas: 11)\n 21238: a2 = u64 [a1 + 0x18]\n 21241: a3 = u64 [a1 + 0x10]\n 21244: a4 = u64 [a1 + 0x8]\n 21247: a1 = u64 [a1]\n 21249: a2 = zext.h a2\n 21251: u64 [sp] = a1\n 21253: u64 [sp + 0x8] = a4\n 21256: u64 [sp + 0x10] = a3\n 21259: a1 = sp\n 21261: u64 [sp + 0x18] = a2\n 21264: ra = 976, jump @24\n      : @782 [@dyn 488] (gas: 5)\n 21270: sp = s0 + 0xffffffffffffffd0\n 21273: ra = u64 [sp + 0x28]\n 21276: s0 = u64 [sp + 0x20]\n 21279: sp = sp + 0x30\n 21282: ret\n      : @783 (gas: 1)\n 21284: trap\n      : @784 [@dyn 489] (gas: 20)\n 21285: a2 = u64 [a1 + 0x18]\n 21288: u64 [sp + 0x18] = a2\n 21291: a2 = u64 [a1 + 0x10]\n 21294: u64 [sp + 0x10] = a2\n 21297: s1 = u64 [a1 + 0x8]\n 21300: a1 = u64 [a1]\n 21302: u64 [sp + 0x8] = a1\n 21305: a1 = u64 [a0 + 0x18]\n 21308: a2 = u64 [a0 + 0x10]\n 21311: a3 = u64 [a0 + 0x8]\n 21314: a0 = u64 [a0]\n 21316: u64 [sp + 0x58] = a1\n 21319: u64 [sp + 0x50] = a2\n 21322: u64 [sp + 0x48] = a3\n 21325: u64 [sp + 0x40] = a0\n 21328: a0 = sp + 0x20\n 21331: a1 = sp + 0x40\n 21334: ra = 0x3d4\n 21338: t0 = 0x6\n 21341: jump @2259\n      : @785 [@dyn 490] (gas: 24)\n 21345: a0 = u64 [sp + 0x20]\n 21348: a5 = u64 [sp + 0x8]\n 21351: a1 = a5 >> 0x10\n 21354: a2 = s1 << 0x30\n 21357: a1 = a1 | a2\n 21360: s1 = s1 >> 0x10\n 21363: a3 = u64 [sp + 0x10]\n 21366: a2 = a3 << 0x30\n 21369: a2 = a2 | s1\n 21372: a3 = a3 >> 0x10\n 21375: a4 = u64 [sp + 0x18]\n 21378: a4 = a4 << 0x30\n 21381: a3 = a3 | a4\n 21384: a4 = a5 << 0x30\n 21387: a0 = a0 << 0x10\n 21390: a0 = a0 >> 0x10\n 21393: a0 = a0 | a4\n 21396: u64 [sp + 0x78] = a3\n 21399: u64 [sp + 0x70] = a2\n 21402: u64 [sp + 0x68] = a1\n 21405: u64 [sp + 0x60] = a0\n 21408: a0 = sp + 0x40\n 21411: a1 = sp + 0x60\n 21414: ra = 982, jump @28\n      : @786 [@dyn 491] (gas: 1)\n 21420: t0 = 984, jump @2309\n      : @787 [@dyn 492] (gas: 1)\n 21427: ret\n      : @788 (gas: 32)\n 21429: sp = sp + 0xfffffffffffffe60\n 21433: u64 [sp + 0x198] = ra\n 21437: u64 [sp + 0x190] = s0\n 21441: u64 [sp + 0x188] = s1\n 21445: s0 = sp + 0x1a0\n 21449: sp = sp & 0xffffffffffffffe0\n 21452: s1 = sp\n 21454: a2 = u64 [a1 + 0x18]\n 21457: u64 [s1 + 0x40] = a2\n 21460: a2 = u64 [a1 + 0x10]\n 21463: u64 [s1 + 0x38] = a2\n 21466: a2 = u64 [a1 + 0x8]\n 21469: u64 [s1 + 0x48] = a2\n 21472: a1 = u64 [a1]\n 21474: u64 [s1 + 0x50] = a1\n 21477: a3 = u64 [a0 + 0x18]\n 21480: a2 = u64 [a0 + 0x10]\n 21483: a1 = u64 [a0 + 0x8]\n 21486: a0 = u64 [a0]\n 21488: u64 [s1 + 0x20] = a3\n 21491: u64 [s1 + 0x158] = a3\n 21495: u64 [s1 + 0x28] = a2\n 21498: u64 [s1 + 0x150] = a2\n 21502: u64 [s1 + 0x30] = a1\n 21505: u64 [s1 + 0x148] = a1\n 21509: u64 [s1 + 0x58] = a0\n 21512: u64 [s1 + 0x140] = a0\n 21516: a0 = s1 + 0x120\n 21520: a1 = s1 + 0x140\n 21524: ra = 0x3da\n 21528: t0 = 0x6\n 21531: jump @2259\n      : @789 [@dyn 493] (gas: 8)\n 21535: a0 = s1 + 0x100\n 21539: a5 = u64 [a0 + 0x38]\n 21542: a4 = u64 [a0 + 0x30]\n 21545: a3 = u64 [a0 + 0x28]\n 21548: a0 = a4 | a5\n 21551: a1 = a3 <u 0x1\n 21554: a1 = 0 if a0 != 0\n 21556: jump @804 if a1 == 0\n      : @790 (gas: 22)\n 21560: a0 = u64 [s1 + 0x120]\n 21564: a1 = sp + 0xffffffffffffffe0\n 21567: a1 = a1 & 0xffffffffffffffe0\n 21570: sp = a1\n 21572: u64 [s1] = a0\n 21574: a0 = a0 + 0x1\n 21577: a2 = a0 <u 0x1\n 21580: u64 [s1 + 0x8] = a3\n 21583: a2 = a2 + a3\n 21586: a3 = a0 | a2\n 21589: a3 = a3 <u 0x1\n 21592: a3 = a3 + a4\n 21595: u64 [s1 + 0x18] = a4\n 21598: a4 = a3 <u a4\n 21601: u64 [s1 + 0x10] = a5\n 21604: a4 = a4 + a5\n 21607: u64 [a1 + 0x8] = a2\n 21610: u64 [a1] = a0\n 21612: u64 [a1 + 0x10] = a3\n 21615: u64 [a1 + 0x18] = a4\n 21618: a0 = s1 + 0x140\n 21622: ra = 988, jump @28\n      : @791 [@dyn 494] (gas: 12)\n 21628: a0 = u64 [s1 + 0x20]\n 21631: a2 = s1 + 0x100\n 21635: u64 [a2 + 0x18] = a0\n 21638: a0 = u64 [s1 + 0x28]\n 21641: u64 [a2 + 0x10] = a0\n 21644: a0 = u64 [s1 + 0x30]\n 21647: u64 [a2 + 0x8] = a0\n 21650: a1 = s1 + 0x100\n 21654: a0 = u64 [s1 + 0x58]\n 21657: u64 [a2] = a0\n 21659: a0 = 0\n 21661: ra = 990, jump @24\n      : @792 [@dyn 495] (gas: 6)\n 21667: a0 = sp + 0xffffffffffffffe0\n 21670: a0 = a0 & 0xffffffffffffffe0\n 21673: u64 [s1 + 0x58] = a0\n 21676: sp = a0\n 21678: a1 = i32 [0x20150]\n 21683: jump @794 if a1 >u 31\n      : @793 (gas: 2)\n 21687: u32 [0x20150] = 0x20\n 21693: fallthrough\n      : @794 (gas: 10)\n 21694: a0 = sp + 0xffffffffffffffe0\n 21697: a2 = a0 & 0xffffffffffffffe0\n 21700: u64 [s1 + 0x30] = a2\n 21703: sp = a2\n 21705: a0 = 0x20160\n 21710: i32 a0 = a0 + 0\n 21712: i32 a2 = a2 + 0\n 21714: a1 = 0x20\n 21717: ecalli 11 // 'hash_keccak_256'\n 21719: fallthrough\n      : @795 (gas: 50)\n 21720: a2 = u64 [s1 + 0x30]\n 21723: a0 = u64 [a2 + 0x18]\n 21726: a1 = u64 [a2 + 0x10]\n 21729: t0 = u64 [a2 + 0x8]\n 21732: a3 = u64 [a2]\n 21734: a0 = reverse a0\n 21736: a1 = reverse a1\n 21738: a4 = u64 [s1 + 0x8]\n 21741: a4 = a4 + a1\n 21744: t1 = u64 [s1]\n 21746: t1 = t1 + a0\n 21749: a0 = t1 <u a0\n 21752: a4 = a4 + a0\n 21755: a2 = a4 ^ a1\n 21758: a1 = a4 <u a1\n 21761: a1 = a0 if a2 == 0\n 21764: a0 = reverse a3\n 21766: a3 = u64 [s1 + 0x10]\n 21769: a0 = a0 + a3\n 21772: a2 = reverse t0\n 21774: a3 = u64 [s1 + 0x18]\n 21777: a3 = a3 + a2\n 21780: a5 = a3 + a1\n 21783: a1 = a3 <u a2\n 21786: a2 = a5 <u a3\n 21789: a0 = a0 + a1\n 21792: t0 = a0 + a2\n 21795: a1 = u64 [s1 + 0x50]\n 21798: a3 = u64 [s1 + 0x38]\n 21801: t2 = a1 | a3\n 21804: a2 = u64 [s1 + 0x48]\n 21807: a0 = u64 [s1 + 0x40]\n 21810: a2 = a2 | a0\n 21813: a0 = t2 | a2\n 21816: a0 = a0 >> 0x20\n 21819: a2 = a2 | a3\n 21822: a2 = a2 << 0x20\n 21825: a0 = a0 | a2\n 21828: a2 = u64 [s1 + 0x58]\n 21831: a3 = t1\n 21833: u64 [s1 + 0x30] = a3\n 21836: u64 [a2] = a3\n 21838: u64 [s1 + 0x28] = a4\n 21841: u64 [a2 + 0x8] = a4\n 21844: u64 [s1 + 0x20] = a5\n 21847: u64 [a2 + 0x10] = a5\n 21850: a3 = t0\n 21852: u64 [s1 + 0x18] = a3\n 21855: u64 [a2 + 0x18] = a3\n 21858: jump @803 if a0 != 0\n      : @796 (gas: 2)\n 21862: a0 = s1 + 0xe0\n 21866: ra = 992, jump @22\n      : @797 [@dyn 496] (gas: 9)\n 21872: a0 = u64 [s1 + 0xe0]\n 21876: a0 = a0 << 0x10\n 21879: a0 = a0 >> 0x10\n 21882: u64 [s1 + 0x10] = a0\n 21885: a0 = s1 + 0xc0\n 21889: a1 = u64 [s1 + 0x58]\n 21892: ra = 0x3e2\n 21896: t0 = 0x6\n 21899: jump @2259\n      : @798 [@dyn 497] (gas: 15)\n 21903: a0 = u16 [s1 + 0xc6]\n 21907: a0 = a0 << 0x30\n 21910: a1 = u64 [s1 + 0xd8]\n 21914: a2 = u64 [s1 + 0xd0]\n 21918: a3 = u64 [s1 + 0xc8]\n 21922: a4 = u64 [s1 + 0x10]\n 21925: a0 = a0 | a4\n 21928: a4 = s1 + 0x100\n 21932: u64 [a4 + 0x78] = a1\n 21935: u64 [a4 + 0x70] = a2\n 21938: u64 [a4 + 0x68] = a3\n 21941: u64 [a4 + 0x60] = a0\n 21944: a1 = s1 + 0x160\n 21948: a0 = u64 [s1 + 0x58]\n 21951: ra = 996, jump @28\n      : @799 [@dyn 498] (gas: 10)\n 21957: a2 = u64 [s1 + 0x50]\n 21960: a0 = u64 [s1 + 0x38]\n 21963: a1 = u64 [s1 + 0x40]\n 21966: a0 = a0 | a1\n 21969: a1 = 0xffffffe0\n 21979: a1 = a2 <u a1\n 21982: a3 = u64 [s1 + 0x48]\n 21985: a1 = 0 if a3 != 0\n 21987: a1 = 0 if a0 != 0\n 21989: jump @803 if a1 == 0\n      : @800 (gas: 3)\n 21992: i32 a1 = a2 + 0x20\n 21995: a0 = s1 + 0xa0\n 21999: ra = 998, jump @22\n      : @801 [@dyn 499] (gas: 21)\n 22005: a0 = u64 [s1 + 0xa0]\n 22009: a1 = u64 [s1 + 0xa8]\n 22013: a2 = u64 [s1 + 0xb0]\n 22017: a3 = u16 [s1 + 0xb8]\n 22021: u64 [s1 + 0x78] = a3\n 22024: u64 [s1 + 0x70] = a2\n 22027: u64 [s1 + 0x68] = a1\n 22030: u64 [s1 + 0x60] = a0\n 22033: a0 = u64 [s1 + 0x18]\n 22036: u64 [s1 + 0x98] = a0\n 22040: a0 = u64 [s1 + 0x20]\n 22043: u64 [s1 + 0x90] = a0\n 22047: a0 = u64 [s1 + 0x28]\n 22050: u64 [s1 + 0x88] = a0\n 22054: a0 = s1 + 0x80\n 22058: a1 = s1 + 0x60\n 22061: a2 = u64 [s1 + 0x30]\n 22064: u64 [s1 + 0x80] = a2\n 22068: ra = 0x3e8\n 22072: t0 = 0x3d2\n 22076: jump @2373\n      : @802 [@dyn 500] (gas: 6)\n 22080: sp = s0 + 0xfffffffffffffe60\n 22084: ra = u64 [sp + 0x198]\n 22088: s0 = u64 [sp + 0x190]\n 22092: s1 = u64 [sp + 0x188]\n 22096: sp = sp + 0x1a0\n 22100: ret\n      : @803 (gas: 1)\n 22102: trap\n      : @804 (gas: 3)\n 22103: ra = 0x3ea\n 22107: t0 = 0x86\n 22111: jump @2232\n      : @805 [@dyn 501] (gas: 1)\n 22115: t0 = 1004, jump @2212\n      : @806 [@dyn 502] (gas: 3)\n 22122: ra = 0x3ee\n 22126: t0 = 0x6\n 22129: jump @2259\n      : @807 [@dyn 503] (gas: 1)\n 22133: t0 = 1008, jump @2336\n      : @808 [@dyn 504] (gas: 1)\n 22140: jump @820 if a4 == 0\n      : @809 (gas: 1)\n 22144: t0 = 1010, jump @2279\n      : @810 [@dyn 505] (gas: 1)\n 22151: ra = 1012, jump @764\n      : @811 [@dyn 506] (gas: 1)\n 22157: t0 = 1014, jump @2226\n      : @812 [@dyn 507] (gas: 1)\n 22164: ra = 1016, jump @768\n      : @813 [@dyn 508] (gas: 1)\n 22170: t0 = 1018, jump @2276\n      : @814 [@dyn 509] (gas: 3)\n 22177: ra = 0x3fc\n 22181: t0 = 0x6\n 22184: jump @2259\n      : @815 [@dyn 510] (gas: 6)\n 22188: t1 = u64 [s1 + 0x2e0]\n 22192: a2 = 0xffffffffffff\n 22202: t0 = t1 & a2\n 22205: t2 = u64 [s1 + 0x78]\n 22208: a2 = t2 & a2\n 22211: jump @837 if a2 <u t0\n      : @816 (gas: 19)\n 22215: a0 = s1 + 0x200\n 22219: a3 = u64 [a0 + 0xf8]\n 22223: a1 = u64 [a0 + 0xf0]\n 22227: a5 = u64 [a0 + 0xe8]\n 22231: a0 = a3 << 0x10\n 22234: a4 = a1 >> 0x30\n 22237: a0 = a0 | a4\n 22240: u64 [s1 + 0x50] = a0\n 22243: a1 = a1 << 0x10\n 22246: a0 = a5 >> 0x30\n 22249: a0 = a0 | a1\n 22252: u64 [s1 + 0x48] = a0\n 22255: a5 = a5 << 0x10\n 22258: a0 = t1 >> 0x30\n 22261: a0 = a0 | a5\n 22264: u64 [s1 + 0x38] = a0\n 22267: a3 = a3 >> 0x30\n 22270: u64 [s1 + 0x40] = a3\n 22273: jump @828 if t0 != a2\n      : @817 (gas: 1)\n 22276: t0 = 1022, jump @2254\n      : @818 [@dyn 511] (gas: 3)\n 22283: ra = 0x400\n 22287: t0 = 0x3d2\n 22291: jump @2373\n      : @819 [@dyn 512] (gas: 1)\n 22295: jump @835\n      : @820 (gas: 4)\n 22298: a0 = s1 + 0x180\n 22302: ra = 0x402\n 22306: t0 = 0x98\n 22310: jump @2372\n      : @821 [@dyn 513] (gas: 1)\n 22314: t0 = 1028, jump @2223\n      : @822 [@dyn 514] (gas: 3)\n 22321: ra = 0x406\n 22325: t0 = 0x3c6\n 22329: jump @2328\n      : @823 [@dyn 515] (gas: 1)\n 22333: t0 = 1032, jump @2225\n      : @824 [@dyn 516] (gas: 3)\n 22340: ra = 0x40a\n 22344: t0 = 0x3cc\n 22348: jump @2328\n      : @825 [@dyn 517] (gas: 1)\n 22352: t0 = 1036, jump @2262\n      : @826 [@dyn 518] (gas: 1)\n 22359: ra = 1038, jump @788\n      : @827 [@dyn 519] (gas: 6)\n 22365: a5 = 0\n 22367: a3 = 0\n 22369: a2 = 0\n 22371: a4 = 0\n 22373: t0 = 0x41e\n 22377: jump @2252\n      : @828 (gas: 4)\n 22381: a0 = s1 + 0x2c0\n 22385: ra = 0x410\n 22389: t0 = 0x98\n 22393: jump @2372\n      : @829 [@dyn 520] (gas: 1)\n 22397: t0 = 1042, jump @2222\n      : @830 [@dyn 521] (gas: 3)\n 22404: ra = 0x414\n 22408: t0 = 0x3c6\n 22412: jump @2328\n      : @831 [@dyn 522] (gas: 1)\n 22416: t0 = 1046, jump @2214\n      : @832 [@dyn 523] (gas: 3)\n 22423: ra = 0x418\n 22427: t0 = 0x3cc\n 22431: jump @2328\n      : @833 [@dyn 524] (gas: 1)\n 22435: t0 = 1050, jump @2253\n      : @834 [@dyn 525] (gas: 1)\n 22442: ra = 1052, jump @788\n      : @835 [@dyn 526] (gas: 5)\n 22448: a2 = u64 [s1 + 0x50]\n 22451: a3 = u64 [s1 + 0x48]\n 22454: a4 = u64 [s1 + 0x40]\n 22457: a5 = u64 [s1 + 0x38]\n 22460: t0 = 1054, jump @2252\n      : @836 [@dyn 527] (gas: 1)\n 22467: ret\n      : @837 (gas: 1)\n 22469: t0 = 1056, jump @2292\n      : @838 [@dyn 528] (gas: 1)\n 22476: ra = 1058, jump @24\n      : @839 [@dyn 529] (gas: 2)\n 22482: a1 = i32 [0x20150]\n 22487: jump @841 if a1 >u 31\n      : @840 (gas: 2)\n 22491: u32 [0x20150] = 0x20\n 22497: fallthrough\n      : @841 (gas: 7)\n 22498: a1 = 0x20160\n 22503: i32 a1 = a1 + 0\n 22505: a0 = 0x1\n 22508: a2 = 0x4\n 22511: ra = 0x424\n 22515: ecalli 16 // 'seal_return'\n 22517: fallthrough\n      : @842 [@dyn 530] (gas: 25)\n 22518: sp = sp + 0xffffffffffffff70\n 22522: u64 [sp + 0x88] = ra\n 22526: u64 [sp + 0x80] = s0\n 22530: u64 [sp + 0x78] = s1\n 22533: s0 = sp + 0x90\n 22537: sp = sp & 0xfffffffffffffff0\n 22540: a4 = u64 [a3 + 0x18]\n 22543: u64 [sp + 0x28] = a4\n 22546: a4 = u64 [a3 + 0x10]\n 22549: u64 [sp + 0x20] = a4\n 22552: t1 = u64 [a3 + 0x8]\n 22555: a5 = u64 [a1 + 0x18]\n 22558: s1 = u64 [a1 + 0x8]\n 22561: t2 = u64 [a3]\n 22563: t0 = u64 [a2 + 0x18]\n 22566: a3 = u64 [a2 + 0x10]\n 22569: s1 = s1 | a5\n 22572: ra = u64 [a1]\n 22574: a1 = u64 [a1 + 0x10]\n 22577: a4 = u64 [a2 + 0x8]\n 22580: a5 = u64 [a2]\n 22582: a2 = ra ^ 0x1\n 22585: a2 = a2 | a1\n 22588: a2 = a2 | s1\n 22591: jump @845 if a2 != 0\n      : @843 (gas: 24)\n 22594: s1 = u16 [sp + 0x28]\n 22597: t0 = zext.h t0\n 22599: a5 = a5 + t2\n 22602: a1 = a5 <u t2\n 22605: t2 = a5\n 22607: a5 = t1 + a4\n 22610: a5 = a5 + a1\n 22613: a2 = a5 ^ t1\n 22616: a4 = a5 <u t1\n 22619: a4 = a1 if a2 == 0\n 22622: a1 = u64 [sp + 0x20]\n 22625: t1 = a1 + a3\n 22628: ra = t1 + a4\n 22631: a3 = ra <u t1\n 22634: a4 = t1 <u a1\n 22637: a2 = s1 + t0\n 22640: a2 = a2 + a4\n 22643: s1 = a2 + a3\n 22646: a3 = s1 ^ 0x10000\n 22651: a3 = ra | a3\n 22654: a4 = s1 >> 0x10\n 22657: a4 = a4 <u 0x1\n 22660: a4 = 0 if a3 == 0\n 22662: jump @848 if a4 != 0\n      : @844 (gas: 1)\n 22665: jump @849\n      : @845 (gas: 8)\n 22668: u64 [sp + 0x8] = t1\n 22671: u64 [sp + 0x10] = t2\n 22674: u64 [sp + 0x18] = t0\n 22677: t0 = u64 [sp + 0x20]\n 22680: a2 = ra ^ 0x2\n 22683: a1 = a1 | a2\n 22686: a1 = a1 | s1\n 22689: jump @850 if a1 != 0\n      : @846 (gas: 24)\n 22693: t2 = a5\n 22695: t1 = u64 [sp + 0x10]\n 22698: s1 = a5 <u t1\n 22701: a5 = a4\n 22703: a4 = u64 [sp + 0x8]\n 22706: a1 = a5 ^ a4\n 22709: a2 = a5 <u a4\n 22712: u64 [sp] = s1\n 22714: a2 = s1 if a1 == 0\n 22717: a1 = a3 - t0\n 22720: ra = a1 - a2\n 22723: s1 = a1 <u a2\n 22726: t0 = a3 <u t0\n 22729: a2 = u16 [sp + 0x28]\n 22732: a1 = u16 [sp + 0x18]\n 22735: a1 = a1 - a2\n 22738: a1 = a1 - t0\n 22741: s1 = a1 - s1\n 22744: a1 = s1 ^ 0x10000\n 22749: a1 = ra | a1\n 22752: a2 = s1 >> 0x10\n 22755: a2 = a2 <u 0x1\n 22758: a2 = 0 if a1 == 0\n 22760: jump @849 if a2 == 0\n      : @847 (gas: 5)\n 22763: a5 = a5 - a4\n 22766: a1 = u64 [sp]\n 22768: a5 = a5 - a1\n 22771: t2 = t2 - t1\n 22774: fallthrough\n      : @848 (gas: 10)\n 22775: u64 [a0] = t2\n 22777: u64 [a0 + 0x8] = a5\n 22780: u64 [a0 + 0x10] = ra\n 22783: u64 [a0 + 0x18] = s1\n 22786: sp = s0 + 0xffffffffffffff70\n 22790: ra = u64 [sp + 0x88]\n 22794: s0 = u64 [sp + 0x80]\n 22798: s1 = u64 [sp + 0x78]\n 22801: sp = sp + 0x90\n 22805: ret\n      : @849 (gas: 3)\n 22807: ra = 0x426\n 22811: t0 = 0x28e\n 22815: jump @2232\n      : @850 [@dyn 531] (gas: 8)\n 22819: u64 [sp + 96] = 0\n 22822: u64 [sp + 88] = 0\n 22825: u64 [sp + 80] = 0\n 22828: a0 = 0x4e487b7100000000\n 22838: a1 = sp + 0x50\n 22841: u64 [sp + 0x68] = a0\n 22844: a0 = 0\n 22846: ra = 1064, jump @24\n      : @851 [@dyn 532] (gas: 7)\n 22852: u64 [sp + 72] = 0\n 22855: u64 [sp + 64] = 0\n 22858: u64 [sp + 48] = 0x51\n 22862: a0 = 0x4\n 22865: a1 = sp + 0x30\n 22868: u64 [sp + 56] = 0\n 22871: ra = 1066, jump @24\n      : @852 [@dyn 533] (gas: 2)\n 22877: a1 = i32 [0x20150]\n 22882: jump @854 if a1 >u 63\n      : @853 (gas: 2)\n 22886: u32 [0x20150] = 0x40\n 22892: fallthrough\n      : @854 (gas: 7)\n 22893: a1 = 0x20160\n 22898: i32 a1 = a1 + 0\n 22900: a0 = 0x1\n 22903: a2 = 0x24\n 22906: ra = 0x42c\n 22910: ecalli 16 // 'seal_return'\n 22912: fallthrough\n      : @855 [@dyn 534] (gas: 21)\n 22913: sp = sp + 0xffffffffffffff10\n 22917: u64 [sp + 0xe8] = ra\n 22921: u64 [sp + 0xe0] = s0\n 22925: u64 [sp + 0xd8] = s1\n 22929: s0 = sp + 0xf0\n 22933: sp = sp & 0xfffffffffffffff0\n 22936: a5 = u64 [a1 + 0x10]\n 22939: a4 = u64 [a1 + 0x18]\n 22942: a3 = u64 [a1 + 0x8]\n 22945: a1 = u64 [a1]\n 22947: u64 [sp + 0x28] = a3\n 22950: u64 [sp + 0x18] = a4\n 22953: a4 = a4 | a3\n 22956: a3 = a1 | a5\n 22959: a3 = a3 | a4\n 22962: a3 = a3 >> 0x20\n 22965: u64 [sp + 0x20] = a5\n 22968: a4 = a4 | a5\n 22971: a4 = a4 << 0x20\n 22974: a3 = a3 | a4\n 22977: jump @870 if a3 != 0\n      : @856 (gas: 11)\n 22981: u64 [sp + 0x8] = a0\n 22984: a0 = u64 [a2 + 0x18]\n 22987: u64 [sp + 0x68] = a0\n 22990: s1 = u64 [a2 + 0x10]\n 22993: a0 = u64 [a2 + 0x8]\n 22996: u64 [sp + 0x60] = a0\n 22999: a0 = u64 [a2]\n 23001: u64 [sp + 0x58] = a0\n 23004: a0 = sp + 0xb0\n 23008: u64 [sp + 0x10] = a1\n 23011: ra = 1070, jump @22\n      : @857 [@dyn 535] (gas: 12)\n 23017: a0 = u64 [sp + 0x58]\n 23020: a2 = a0 | s1\n 23023: a1 = u64 [sp + 0x68]\n 23026: a3 = u64 [sp + 0x60]\n 23029: a1 = a1 | a3\n 23032: a2 = a2 | a1\n 23035: a2 = a2 >> 0x20\n 23038: u64 [sp + 0x50] = s1\n 23041: a1 = a1 | s1\n 23044: a1 = a1 << 0x20\n 23047: a1 = a1 | a2\n 23050: jump @870 if a1 != 0\n      : @858 (gas: 15)\n 23054: a2 = u64 [sp + 0xc8]\n 23058: a3 = u64 [sp + 0xc0]\n 23062: a4 = u64 [sp + 0xb8]\n 23066: a1 = u64 [sp + 0xb0]\n 23070: u64 [sp + 0x30] = a1\n 23073: u64 [sp + 0x90] = a1\n 23077: u64 [sp + 0x38] = a4\n 23080: u64 [sp + 0x98] = a4\n 23084: u64 [sp + 0x40] = a3\n 23087: u64 [sp + 0xa0] = a3\n 23091: a1 = sp + 0x90\n 23095: u64 [sp + 0x48] = a2\n 23098: u64 [sp + 0xa8] = a2\n 23102: s1 = a0\n 23104: ra = 1072, jump @24\n      : @859 [@dyn 536] (gas: 9)\n 23110: a0 = u64 [sp + 0x68]\n 23113: a1 = u64 [sp + 0x50]\n 23116: a1 = a1 | a0\n 23119: a0 = 0xffffffe0\n 23129: a2 = s1 <u a0\n 23132: a3 = u64 [sp + 0x60]\n 23135: a2 = 0 if a3 != 0\n 23137: a2 = 0 if a1 != 0\n 23139: jump @870 if a2 == 0\n      : @860 (gas: 9)\n 23143: a1 = u64 [sp + 0x20]\n 23146: a2 = u64 [sp + 0x18]\n 23149: a1 = a1 | a2\n 23152: a2 = u64 [sp + 0x10]\n 23155: a0 = a2 <u a0\n 23158: a3 = u64 [sp + 0x28]\n 23161: a0 = 0 if a3 != 0\n 23163: a0 = 0 if a1 != 0\n 23165: jump @870 if a0 == 0\n      : @861 (gas: 13)\n 23169: a5 = s1\n 23171: s1 = u64 [sp + 0x30]\n 23174: a3 = u64 [sp + 0x40]\n 23177: a0 = s1 | a3\n 23180: a1 = u64 [sp + 0x48]\n 23183: a4 = u64 [sp + 0x38]\n 23186: a1 = a1 | a4\n 23189: a0 = a0 | a1\n 23192: a0 = a0 >> 0x20\n 23195: a1 = a1 | a3\n 23198: a1 = a1 << 0x20\n 23201: a0 = a0 | a1\n 23204: jump @870 if a0 != 0\n      : @862 (gas: 5)\n 23208: i32 a0 = a5 + 0x20\n 23211: i32 a1 = a2 + 0x20\n 23214: u64 [sp + 0x28] = a1\n 23217: a1 = s1\n 23219: ra = 1074, jump @37\n      : @863 [@dyn 537] (gas: 4)\n 23225: u64 [sp + 0x20] = a0\n 23228: a0 = u64 [sp + 0x28]\n 23231: a1 = s1\n 23233: ra = 1076, jump @37\n      : @864 [@dyn 538] (gas: 4)\n 23239: a1 = a0\n 23241: a0 = u64 [sp + 0x20]\n 23244: a2 = s1\n 23246: ra = 1078, jump @0\n      : @865 [@dyn 539] (gas: 6)\n 23252: a0 = u64 [sp + 0x58]\n 23255: a0 = a0 + s1\n 23258: a1 = a0 <u s1\n 23261: a2 = u64 [sp + 0x60]\n 23264: a4 = u64 [sp + 0x38]\n 23267: t0 = 1080, jump @2324\n      : @866 [@dyn 540] (gas: 12)\n 23274: a1 = u64 [sp + 0x50]\n 23277: a3 = u64 [sp + 0x40]\n 23280: a1 = a1 + a3\n 23283: a3 = a1 <u a3\n 23286: a5 = u64 [sp + 0x68]\n 23289: s1 = u64 [sp + 0x48]\n 23292: a5 = a5 + s1\n 23295: a3 = a3 + a5\n 23298: a4 = a4 + a1\n 23301: a1 = a4 <u a1\n 23304: a1 = a1 + a3\n 23307: t0 = 1082, jump @2353\n      : @867 [@dyn 541] (gas: 1)\n 23314: jump @870 if a3 == 0\n      : @868 (gas: 7)\n 23318: i32 a0 = a0 + 0x20\n 23321: u64 [sp + 136] = 0\n 23325: u64 [sp + 128] = 0\n 23329: u64 [sp + 120] = 0\n 23332: a1 = sp + 0x70\n 23335: u64 [sp + 112] = 0\n 23338: ra = 1084, jump @24\n      : @869 [@dyn 542] (gas: 35)\n 23344: s1 = u64 [sp + 0x30]\n 23347: s1 = s1 + 0x1f\n 23350: a0 = 0x1ffffffe0\n 23360: a0 = a0 & s1\n 23363: a1 = u64 [sp + 0x58]\n 23366: a0 = a0 + a1\n 23369: a1 = a0 <u a1\n 23372: a3 = u64 [sp + 0x60]\n 23375: a2 = a3 + a1\n 23378: a3 = a2 <u a3\n 23381: a3 = a1 if a1 == 0\n 23384: a1 = u64 [sp + 0x50]\n 23387: a3 = a3 + a1\n 23390: a1 = a3 <u a1\n 23393: a4 = u64 [sp + 0x68]\n 23396: a1 = a1 + a4\n 23399: a4 = a0 + 0x20\n 23402: a0 = a4 <u a0\n 23405: a5 = a2 + a0\n 23408: a2 = a5 <u a2\n 23411: a2 = a0 if a0 == 0\n 23414: a2 = a2 + a3\n 23417: a0 = a2 <u a3\n 23420: a0 = a0 + a1\n 23423: a1 = u64 [sp + 0x8]\n 23426: u64 [a1] = a4\n 23428: u64 [a1 + 0x8] = a5\n 23431: u64 [a1 + 0x10] = a2\n 23434: u64 [a1 + 0x18] = a0\n 23437: sp = s0 + 0xffffffffffffff10\n 23441: ra = u64 [sp + 0xe8]\n 23445: s0 = u64 [sp + 0xe0]\n 23449: s1 = u64 [sp + 0xd8]\n 23453: sp = sp + 0xf0\n 23457: ret\n      : @870 (gas: 1)\n 23459: trap\n      : @871 (gas: 22)\n 23460: sp = sp + 0xffffffffffffff20\n 23464: u64 [sp + 0xd8] = ra\n 23468: u64 [sp + 0xd0] = s0\n 23472: u64 [sp + 0xc8] = s1\n 23476: s0 = sp + 0xe0\n 23480: sp = sp & 0xfffffffffffffff0\n 23483: a4 = u64 [a1 + 0x10]\n 23486: a3 = u64 [a1 + 0x18]\n 23489: a5 = u64 [a1 + 0x8]\n 23492: s1 = u64 [a1]\n 23494: u64 [sp + 0x28] = a3\n 23497: u64 [sp + 0x20] = a5\n 23500: a1 = a5 | a3\n 23503: a3 = s1 | a4\n 23506: a3 = a3 | a1\n 23509: a3 = a3 >> 0x20\n 23512: u64 [sp + 0x30] = a4\n 23515: a1 = a1 | a4\n 23518: a1 = a1 << 0x20\n 23521: a1 = a1 | a3\n 23524: u64 [sp + 0x38] = a0\n 23527: jump @875 if a1 != 0\n      : @872 (gas: 15)\n 23531: a0 = u64 [a2 + 0x18]\n 23534: u64 [sp] = a0\n 23536: a0 = u64 [a2 + 0x10]\n 23539: u64 [sp + 0x8] = a0\n 23542: a0 = u64 [a2 + 0x8]\n 23545: u64 [sp + 0x10] = a0\n 23548: a0 = u64 [a2]\n 23550: u64 [sp + 0x18] = a0\n 23553: u64 [sp + 184] = 0\n 23557: u64 [sp + 176] = 0\n 23561: u64 [sp + 168] = 0\n 23565: a1 = sp + 0xa0\n 23569: u64 [sp + 160] = 0x20\n 23574: a0 = s1\n 23576: ra = 1086, jump @24\n      : @873 [@dyn 543] (gas: 27)\n 23582: a0 = s1 + 0x20\n 23585: a1 = a0 <u s1\n 23588: a3 = u64 [sp + 0x20]\n 23591: a2 = a3 + a1\n 23594: a3 = a2 <u a3\n 23597: a3 = a1 if a1 == 0\n 23600: a1 = u64 [sp + 0x30]\n 23603: a3 = a3 + a1\n 23606: a1 = a3 <u a1\n 23609: a4 = u64 [sp + 0x28]\n 23612: a4 = a4 + a1\n 23615: u64 [sp + 0x48] = a2\n 23618: u64 [sp + 0x40] = a0\n 23621: a0 = u64 [sp]\n 23623: u64 [sp + 0x78] = a0\n 23626: a0 = u64 [sp + 0x8]\n 23629: u64 [sp + 0x70] = a0\n 23632: a0 = u64 [sp + 0x10]\n 23635: u64 [sp + 0x68] = a0\n 23638: a0 = u64 [sp + 0x18]\n 23641: u64 [sp + 0x60] = a0\n 23644: u64 [sp + 0x50] = a3\n 23647: a0 = sp + 0x80\n 23651: a1 = sp + 0x60\n 23654: a2 = sp + 0x40\n 23657: u64 [sp + 0x58] = a4\n 23660: ra = 1088, jump @855\n      : @874 [@dyn 544] (gas: 15)\n 23666: a0 = u64 [sp + 0x90]\n 23670: a1 = u64 [sp + 0x98]\n 23674: a2 = u64 [sp + 0x80]\n 23678: a3 = u64 [sp + 0x88]\n 23682: a4 = u64 [sp + 0x38]\n 23685: u64 [a4 + 0x10] = a0\n 23688: u64 [a4 + 0x18] = a1\n 23691: u64 [a4] = a2\n 23693: u64 [a4 + 0x8] = a3\n 23696: sp = s0 + 0xffffffffffffff20\n 23700: ra = u64 [sp + 0xd8]\n 23704: s0 = u64 [sp + 0xd0]\n 23708: s1 = u64 [sp + 0xc8]\n 23712: sp = sp + 0xe0\n 23716: ret\n      : @875 (gas: 1)\n 23718: trap\n      : @876 [@dyn 545] (gas: 5)\n 23719: ra = 0x444\n 23723: ecalli 19 // 'value_transferred'\n 23725: a4 = s1 + 0x200\n 23729: t0 = 0x446\n 23733: jump @2362\n      : @877 [@dyn 546] (gas: 2)\n 23737: a4 = s1 + 0x200\n 23741: t0 = 1094, jump @2362\n      : @878 [@dyn 547] (gas: 1)\n 23748: jump @922 if a0 != 0\n      : @879 (gas: 2)\n 23752: a0 = i32 [0x2014c]\n 23757: jump @923 if a0 <=u 3\n      : @880 (gas: 3)\n 23762: a0 = s1 + 0x280\n 23766: a1 = 0x40\n 23769: ra = 1096, jump @22\n      : @881 [@dyn 548] (gas: 1)\n 23775: t0 = 1098, jump @2270\n      : @882 [@dyn 549] (gas: 6)\n 23782: u64 [s1 + 704] = 0x3\n 23787: a0 = s1 + 0x260\n 23791: a1 = s1 + 0x2c0\n 23795: ra = 0x44c\n 23799: t0 = 0x6\n 23802: jump @2259\n      : @883 [@dyn 550] (gas: 1)\n 23806: t0 = 1102, jump @2272\n      : @884 [@dyn 551] (gas: 1)\n 23813: ra = 1104, jump @255\n      : @885 [@dyn 552] (gas: 1)\n 23819: t0 = 1106, jump @2332\n      : @886 [@dyn 553] (gas: 1)\n 23826: jump @921 if a1 != 0\n      : @887 (gas: 1)\n 23830: t0 = 1108, jump @2287\n      : @888 [@dyn 554] (gas: 1)\n 23837: ra = 1110, jump @24\n      : @889 [@dyn 555] (gas: 3)\n 23843: a3 = u64 [s1 + 0xb8]\n 23847: a0 = a3 & 0x1\n 23850: jump @896 if a0 != 0\n      : @890 (gas: 1)\n 23853: t0 = 1112, jump @2302\n      : @891 [@dyn 556] (gas: 1)\n 23860: jump @921 if a1 == 0\n      : @892 (gas: 1)\n 23864: t0 = 1114, jump @2294\n      : @893 [@dyn 557] (gas: 1)\n 23871: ra = 1116, jump @24\n      : @894 [@dyn 558] (gas: 1)\n 23877: t0 = 1118, jump @2281\n      : @895 [@dyn 559] (gas: 1)\n 23884: jump @912\n      : @896 (gas: 1)\n 23887: t0 = 1120, jump @2359\n      : @897 [@dyn 560] (gas: 4)\n 23894: a1 = s1 + 0x1e0\n 23898: u64 [s1 + 480] = 0x3\n 23903: a0 = 0\n 23905: ra = 1122, jump @24\n      : @898 [@dyn 561] (gas: 6)\n 23911: a0 = sp + 0xffffffffffffffe0\n 23914: a0 = a0 & 0xffffffffffffffe0\n 23917: u64 [s1 + 0x58] = a0\n 23920: sp = a0\n 23922: a1 = i32 [0x20150]\n 23927: jump @900 if a1 >u 31\n      : @899 (gas: 2)\n 23931: u32 [0x20150] = 0x20\n 23937: fallthrough\n      : @900 (gas: 10)\n 23938: a0 = sp + 0xffffffffffffffe0\n 23941: a2 = a0 & 0xffffffffffffffe0\n 23944: u64 [s1 + 0xa8] = a2\n 23948: sp = a2\n 23950: a0 = 0x20160\n 23955: i32 a0 = a0 + 0\n 23957: i32 a2 = a2 + 0\n 23959: a1 = 0x20\n 23962: ecalli 11 // 'hash_keccak_256'\n 23964: t0 = 1124, jump @2230\n      : @901 [@dyn 562] (gas: 18)\n 23971: t0 = u64 [s1 + 0x58]\n 23974: a3 = a2\n 23976: a5 = t0\n 23978: u64 [a5 + 0x18] = a2\n 23981: u64 [s1 + 0x80] = ra\n 23985: u64 [t0 + 0x10] = ra\n 23988: ra = a1\n 23990: u64 [a5 + 0x8] = a1\n 23993: a2 = a0\n 23995: u64 [a5] = a0\n 23997: a0 = u64 [s1 + 0x20]\n 24000: a4 = a4 + a0\n 24003: u64 [s1 + 0x40] = a4\n 24006: a0 = a4 <u a0\n 24009: a1 = u64 [s1 + 0x18]\n 24012: a0 = a0 + a1\n 24015: u64 [s1 + 0x38] = a0\n 24018: fallthrough\n      : @902 (gas: 21)\n 24019: u64 [s1 + 0x88] = a3\n 24023: u64 [s1 + 0x90] = ra\n 24027: u64 [s1 + 0x98] = a2\n 24031: a0 = u64 [s1 + 0x60]\n 24034: a1 = u64 [s1 + 0xb8]\n 24038: a0 = a1 <u a0\n 24041: a2 = u64 [s1 + 0x70]\n 24044: a1 = t2 ^ a2\n 24047: a2 = t2 <u a2\n 24050: a2 = a0 if a1 == 0\n 24053: a4 = u64 [s1 + 0x68]\n 24056: a0 = t1 <u a4\n 24059: a3 = u64 [s1 + 0x78]\n 24062: a1 = u64 [s1 + 0xb0]\n 24066: a5 = a1 ^ a3\n 24069: a3 = a1 <u a3\n 24072: a3 = a0 if a5 == 0\n 24075: a0 = t1 ^ a4\n 24078: a0 = a0 | a5\n 24081: a3 = a2 if a0 == 0\n 24084: jump @911 if a3 == 0\n      : @903 (gas: 7)\n 24088: a0 = s1 + 0x1c0\n 24092: a1 = t0\n 24094: u64 [s1 + 0xa8] = t1\n 24098: u64 [s1 + 0xa0] = t2\n 24102: ra = 0x466\n 24106: t0 = 0x6\n 24109: jump @2259\n      : @904 [@dyn 563] (gas: 1)\n 24113: t0 = 1128, jump @2245\n      : @905 [@dyn 564] (gas: 6)\n 24120: t0 = a1 <u a5\n 24123: a5 = u64 [s1 + 0xb0]\n 24127: a3 = u64 [s1 + 0x38]\n 24130: a5 = a5 + a3\n 24133: a5 = a5 + t0\n 24136: t0 = 1130, jump @2322\n      : @906 [@dyn 565] (gas: 1)\n 24143: jump @921 if a1 != 0\n      : @907 (gas: 1)\n 24147: t0 = 1132, jump @2304\n      : @908 [@dyn 566] (gas: 1)\n 24154: ra = 1134, jump @24\n      : @909 [@dyn 567] (gas: 31)\n 24160: t0 = u64 [s1 + 0x98]\n 24164: t0 = t0 + 0x1\n 24167: a0 = t0 <u 0x1\n 24170: a3 = u64 [s1 + 0x90]\n 24174: a3 = a3 + a0\n 24177: a0 = t0 | a3\n 24180: a0 = a0 <u 0x1\n 24183: a1 = u64 [s1 + 0x80]\n 24187: t2 = a1 + a0\n 24190: a1 = t2 <u a1\n 24193: a0 = u64 [s1 + 0x88]\n 24197: a0 = a0 + a1\n 24200: a1 = u64 [s1 + 0xb8]\n 24204: t1 = a1 + 0x20\n 24207: a2 = t1 <u a1\n 24210: a4 = u64 [s1 + 0xa0]\n 24214: a1 = a4 + a2\n 24217: a4 = a1 <u a4\n 24220: a4 = a2 if a2 == 0\n 24223: a2 = u64 [s1 + 0xa8]\n 24227: a4 = a4 + a2\n 24230: a2 = a4 <u a2\n 24233: a5 = u64 [s1 + 0xb0]\n 24237: a5 = a5 + a2\n 24240: u64 [s1 + 0xb0] = a5\n 24244: ra = a3\n 24246: a5 = u64 [s1 + 0x58]\n 24249: u64 [a5 + 0x8] = a3\n 24252: a2 = t0\n 24254: u64 [a5] = t0\n 24256: t0 = 1136, jump @2351\n      : @910 [@dyn 568] (gas: 2)\n 24263: t0 = a5\n 24265: jump @902\n      : @911 (gas: 3)\n 24268: a5 = u64 [s1 + 0x30]\n 24271: t0 = 0x472\n 24275: jump @2219\n      : @912 (gas: 1)\n 24279: t0 = 1138, jump @2219\n      : @913 [@dyn 569] (gas: 1)\n 24286: ra = 1140, jump @149\n      : @914 [@dyn 570] (gas: 3)\n 24292: a0 = s1 + 0x120\n 24296: a1 = 0x40\n 24299: ra = 1142, jump @22\n      : @915 [@dyn 571] (gas: 1)\n 24305: t0 = 1144, jump @2233\n      : @916 [@dyn 572] (gas: 1)\n 24312: ra = 1146, jump @871\n      : @917 [@dyn 573] (gas: 7)\n 24318: a4 = u64 [s1 + 0xa8]\n 24322: a2 = u64 [s1 + 0xa0]\n 24326: a0 = u64 [s1 + 0xb8]\n 24330: a0 = a0 | a4\n 24333: a3 = u64 [s1 + 0xb0]\n 24337: a1 = a2 | a3\n 24340: t0 = 1148, jump @2313\n      : @918 [@dyn 574] (gas: 1)\n 24347: jump @921 if a0 != 0\n      : @919 (gas: 26)\n 24350: t0 = a3\n 24352: a5 = s1 + 0x100\n 24356: a0 = u64 [a5 + 0x8]\n 24359: a1 = u64 [a5 + 0x18]\n 24362: u64 [s1 + 0x98] = a1\n 24366: t1 = u64 [s1 + 0x100]\n 24370: a3 = u64 [a5 + 0x10]\n 24373: t2 = a0 ^ a4\n 24376: a5 = a0 <u a4\n 24379: ra = t1 <u a2\n 24382: a5 = ra if t2 == 0\n 24385: a1 = a3 - t0\n 24388: t2 = a1 - a5\n 24391: a1 = a1 <u a5\n 24394: u64 [s1 + 0x90] = a1\n 24398: a3 = a3 <u t0\n 24401: a5 = u64 [s1 + 0xb8]\n 24405: a1 = u64 [s1 + 0x98]\n 24409: a5 = a1 - a5\n 24412: a5 = a5 - a3\n 24415: a1 = u64 [s1 + 0x90]\n 24419: a5 = a5 - a1\n 24422: a0 = a0 - a4\n 24425: a0 = a0 - ra\n 24428: a1 = t1 - a2\n 24431: t0 = 1150, jump @2220\n      : @920 [@dyn 575] (gas: 1)\n 24438: jump @925 if a0 == 0\n      : @921 (gas: 1)\n 24441: trap\n      : @922 (gas: 2)\n 24442: a1 = 0x20160\n 24447: jump @924\n      : @923 (gas: 2)\n 24449: a1 = 0x20160\n 24454: fallthrough\n      : @924 (gas: 5)\n 24455: i32 a1 = a1 + 0\n 24457: a0 = 0x1\n 24460: a2 = 0\n 24462: ecalli 16 // 'seal_return'\n 24464: fallthrough\n      : @925 (gas: 3)\n 24465: a0 = a2\n 24467: u64 [s1 + 0xb8] = a1\n 24471: ra = 1152, jump @37\n      : @926 [@dyn 576] (gas: 7)\n 24477: i32 a1 = a0 + 0\n 24479: a2 = i32 [s1 + 0xb8]\n 24483: a0 = 0\n 24485: ra = 0x482\n 24489: ecalli 16 // 'seal_return'\n 24491: t0 = 0x484\n 24495: jump @2251\n      : @927 [@dyn 577] (gas: 1)\n 24499: t0 = 1156, jump @2251\n      : @928 [@dyn 578] (gas: 5)\n 24506: a1 = 0x4\n 24509: ra = 0x486\n 24513: ecalli 4 // 'call_data_load'\n 24515: t0 = 0x488\n 24519: jump @2305\n      : @929 [@dyn 579] (gas: 1)\n 24523: t0 = 1160, jump @2305\n      : @930 [@dyn 580] (gas: 1)\n 24530: jump @933 if a3 == 0\n      : @931 (gas: 1)\n 24533: t0 = 1162, jump @2330\n      : @932 [@dyn 581] (gas: 1)\n 24540: ret\n      : @933 (gas: 8)\n 24542: a1 = 0x20160\n 24547: i32 a1 = a1 + 0\n 24549: a0 = 0x1\n 24552: a2 = 0\n 24554: ra = 0x48c\n 24558: ecalli 16 // 'seal_return'\n 24560: t0 = 0x48e\n 24564: jump @2329\n      : @934 [@dyn 582] (gas: 1)\n 24568: t0 = 1166, jump @2329\n      : @935 [@dyn 583] (gas: 4)\n 24575: ra = 0x490\n 24579: ecalli 4 // 'call_data_load'\n 24581: t0 = 0x492\n 24585: jump @2305\n      : @936 [@dyn 584] (gas: 1)\n 24589: t0 = 1170, jump @2305\n      : @937 [@dyn 585] (gas: 1)\n 24596: jump @940 if a3 == 0\n      : @938 (gas: 1)\n 24599: t0 = 1172, jump @2330\n      : @939 [@dyn 586] (gas: 1)\n 24606: ret\n      : @940 (gas: 8)\n 24608: a1 = 0x20160\n 24613: i32 a1 = a1 + 0\n 24615: a0 = 0x1\n 24618: a2 = 0\n 24620: ra = 0x496\n 24624: ecalli 16 // 'seal_return'\n 24626: t0 = 0x498\n 24630: jump @2329\n      : @941 [@dyn 587] (gas: 1)\n 24634: t0 = 1176, jump @2329\n      : @942 [@dyn 588] (gas: 2)\n 24641: ecalli 4 // 'call_data_load'\n 24643: t0 = 1178, jump @2228\n      : @943 [@dyn 589] (gas: 1)\n 24650: ret\n      : @944 [@dyn 590] (gas: 3)\n 24652: a1 = 0x44\n 24655: ecalli 4 // 'call_data_load'\n 24657: t0 = 1182, jump @2228\n      : @945 [@dyn 591] (gas: 1)\n 24664: ret\n      : @946 (gas: 12)\n 24666: a3 = u64 [a1 + 0x10]\n 24669: t0 = u64 [a1 + 0x18]\n 24672: a5 = u64 [a1 + 0x8]\n 24675: a4 = u64 [a1]\n 24677: a1 = a5 | t0\n 24680: a2 = a4 | a3\n 24683: a2 = a2 | a1\n 24686: a2 = a2 >> 0x20\n 24689: a1 = a1 | a3\n 24692: a1 = a1 << 0x20\n 24695: a1 = a1 | a2\n 24698: jump @950 if a1 != 0\n      : @947 (gas: 26)\n 24701: sp = sp + 0xffffffffffffffa0\n 24704: u64 [sp + 0x58] = ra\n 24707: u64 [sp + 0x50] = s0\n 24710: u64 [sp + 0x48] = s1\n 24713: s0 = sp + 0x60\n 24716: sp = sp & 0xfffffffffffffff0\n 24719: s1 = a0\n 24721: a0 = a4 + 0x20\n 24724: u64 [sp + 0x18] = a0\n 24727: a0 = a0 <u a4\n 24730: a1 = a5 + a0\n 24733: u64 [sp + 0x10] = a1\n 24736: a1 = a1 <u a5\n 24739: a1 = a0 if a0 == 0\n 24742: a1 = a1 + a3\n 24745: u64 [sp] = a1\n 24747: a0 = a1 <u a3\n 24750: a0 = a0 + t0\n 24753: u64 [sp + 0x8] = a0\n 24756: u64 [sp + 56] = 0\n 24759: u64 [sp + 48] = 0\n 24762: u64 [sp + 32] = 0x1\n 24766: a1 = sp + 0x20\n 24769: u64 [sp + 40] = 0\n 24772: a0 = a4\n 24774: ra = 1184, jump @24\n      : @948 [@dyn 592] (gas: 9)\n 24780: a0 = u64 [sp + 0x10]\n 24783: u64 [s1 + 0x8] = a0\n 24786: a0 = u64 [sp + 0x18]\n 24789: u64 [s1] = a0\n 24791: a0 = u64 [sp]\n 24793: u64 [s1 + 0x10] = a0\n 24796: a0 = u64 [sp + 0x8]\n 24799: u64 [s1 + 0x18] = a0\n 24802: t0 = 1186, jump @2229\n      : @949 [@dyn 593] (gas: 1)\n 24809: ret\n      : @950 (gas: 1)\n 24811: trap\n      : @951 [@dyn 594] (gas: 4)\n 24812: u64 [s1 + 736] = 0\n 24816: i32 a0 = s1 + 0x2e0\n 24820: ecalli 19 // 'value_transferred'\n 24822: fallthrough\n      : @952 (gas: 9)\n 24823: a4 = s1 + 0x200\n 24827: a0 = u64 [a4 + 0xf0]\n 24831: a1 = u64 [a4 + 0xf8]\n 24835: a2 = u64 [a4 + 0xe8]\n 24839: a3 = u64 [a4 + 0xe0]\n 24843: a1 = a1 | a2\n 24846: a0 = a0 | a3\n 24849: a0 = a0 | a1\n 24852: jump @978 if a0 != 0\n      : @953 (gas: 3)\n 24856: a0 = i32 [0x2014c]\n 24861: a1 = 0x43\n 24864: jump @979 if a1 >=u a0\n      : @954 (gas: 4)\n 24868: a0 = s1 + 0x2c0\n 24872: ra = 0x4a6\n 24876: t0 = 0x484\n 24880: jump @2251\n      : @955 [@dyn 595] (gas: 37)\n 24884: a1 = s1 + 0x200\n 24888: a0 = u64 [a1 + 0xd8]\n 24892: u64 [s1 + 0x48] = a0\n 24895: a0 = u64 [a1 + 0xd0]\n 24899: u64 [s1 + 0x68] = a0\n 24902: a0 = u64 [a1 + 0xc8]\n 24906: u64 [s1 + 0x60] = a0\n 24909: a0 = u64 [a1 + 0xc0]\n 24913: u64 [s1 + 0x58] = a0\n 24916: a0 = sp + 0xffffffffffffffe0\n 24919: a0 = a0 & 0xffffffffffffffe0\n 24922: u64 [s1 + 0x70] = a0\n 24925: sp = a0\n 24927: i32 a0 = s1 + 0x300\n 24931: a1 = 0x24\n 24934: ecalli 4 // 'call_data_load'\n 24936: a4 = s1 + 0x300\n 24940: a3 = u64 [a4 + 0x18]\n 24943: a2 = u64 [a4 + 0x10]\n 24946: a1 = u64 [a4 + 0x8]\n 24949: a0 = u64 [a4]\n 24951: u64 [s1 + 0x20] = a3\n 24954: a4 = u64 [s1 + 0x70]\n 24957: u64 [a4 + 0x18] = a3\n 24960: u64 [s1 + 0x28] = a2\n 24963: u64 [a4 + 0x10] = a2\n 24966: u64 [s1 + 0x30] = a1\n 24969: u64 [a4 + 0x8] = a1\n 24972: u64 [s1 + 0x38] = a0\n 24975: u64 [a4] = a0\n 24977: a0 = 0x30160\n 24982: u64 [s1 + 0x78] = a0\n 24985: i32 a0 = a0 + 0\n 24987: u64 [s1 + 0x50] = a0\n 24990: ra = 0x4a8\n 24994: ecalli 6 // 'caller'\n 24996: fallthrough\n      : @956 [@dyn 596] (gas: 7)\n 24997: a2 = u64 [s1 + 0x78]\n 25000: a0 = u32 [a2 + 0x10]\n 25003: a1 = u64 [a2]\n 25005: a2 = u64 [a2 + 0x8]\n 25008: a0 = a0 | a1\n 25011: a0 = a0 | a2\n 25014: jump @981 if a0 == 0\n      : @957 (gas: 9)\n 25018: a0 = u64 [s1 + 0x68]\n 25021: a0 = a0 << 0x20\n 25024: a1 = a0 >> 0x20\n 25027: a0 = u64 [s1 + 0x60]\n 25030: a2 = u64 [s1 + 0x58]\n 25033: a0 = a0 | a2\n 25036: u64 [s1 + 0x18] = a1\n 25039: a0 = a0 | a1\n 25042: jump @987 if a0 == 0\n      : @958 (gas: 6)\n 25046: a0 = u64 [s1 + 0x50]\n 25049: ra = 0x4aa\n 25053: ecalli 6 // 'caller'\n 25055: a2 = u64 [s1 + 0x78]\n 25058: t0 = 0x4ac\n 25062: jump @2231\n      : @959 [@dyn 597] (gas: 2)\n 25066: a2 = u64 [s1 + 0x78]\n 25069: t0 = 1196, jump @2231\n      : @960 [@dyn 598] (gas: 7)\n 25076: u64 [s1 + 696] = 0\n 25080: u64 [s1 + 0x2b0] = a1\n 25084: u64 [s1 + 0x2a8] = a0\n 25088: a1 = s1 + 0x2a0\n 25092: u64 [s1 + 0x2a0] = a3\n 25096: a0 = 0\n 25098: ra = 1198, jump @24\n      : @961 [@dyn 599] (gas: 7)\n 25104: u64 [s1 + 664] = 0\n 25108: u64 [s1 + 656] = 0\n 25112: u64 [s1 + 640] = 0x1\n 25117: a0 = 0x20\n 25120: a1 = s1 + 0x280\n 25124: u64 [s1 + 648] = 0\n 25128: ra = 1200, jump @24\n      : @962 [@dyn 600] (gas: 2)\n 25134: a1 = i32 [0x20150]\n 25139: jump @964 if a1 >u 63\n      : @963 (gas: 2)\n 25143: u32 [0x20150] = 0x40\n 25149: fallthrough\n      : @964 (gas: 13)\n 25150: a0 = sp + 0xffffffffffffffe0\n 25153: a2 = a0 & 0xffffffffffffffe0\n 25156: u64 [s1 + 0x40] = a2\n 25159: sp = a2\n 25161: a0 = 0x20160\n 25166: i32 a0 = a0 + 0\n 25168: i32 a2 = a2 + 0\n 25170: a1 = 0x40\n 25173: ra = 0x4b2\n 25177: ecalli 11 // 'hash_keccak_256'\n 25179: a3 = u64 [s1 + 0x40]\n 25182: t0 = 0x4b4\n 25186: jump @2224\n      : @965 [@dyn 601] (gas: 2)\n 25190: a3 = u64 [s1 + 0x40]\n 25193: t0 = 1204, jump @2224\n      : @966 [@dyn 602] (gas: 8)\n 25200: a3 = u64 [s1 + 0x48]\n 25203: u64 [s1 + 0x238] = a3\n 25207: a3 = u64 [s1 + 0x68]\n 25210: u64 [s1 + 0x230] = a3\n 25214: a3 = u64 [s1 + 0x60]\n 25217: u64 [s1 + 0x228] = a3\n 25221: a3 = u64 [s1 + 0x58]\n 25224: t0 = 1206, jump @2306\n      : @967 [@dyn 603] (gas: 4)\n 25231: u64 [s1 + 0x240] = a4\n 25235: ra = 0x4b8\n 25239: t0 = 0x7c2\n 25243: jump @2373\n      : @968 [@dyn 604] (gas: 12)\n 25247: a0 = u64 [s1 + 0x278]\n 25251: a1 = u64 [s1 + 0x270]\n 25255: a2 = u64 [s1 + 0x268]\n 25259: a3 = u64 [s1 + 0x260]\n 25263: a4 = s1 + 0x300\n 25267: u64 [a4 + 0x38] = a0\n 25270: u64 [a4 + 0x30] = a1\n 25273: u64 [a4 + 0x28] = a2\n 25276: u64 [a4 + 0x20] = a3\n 25279: a0 = s1 + 0x320\n 25283: a1 = u64 [s1 + 0x70]\n 25286: ra = 1210, jump @28\n      : @969 [@dyn 605] (gas: 3)\n 25292: a0 = s1 + 0x200\n 25296: a1 = 0x40\n 25299: ra = 1212, jump @22\n      : @970 [@dyn 606] (gas: 39)\n 25305: a1 = s1 + 0x200\n 25309: a0 = u64 [a1 + 0x18]\n 25312: u64 [s1 + 0x68] = a0\n 25315: a0 = u64 [a1 + 0x10]\n 25318: u64 [s1 + 0x48] = a0\n 25321: a0 = u64 [a1 + 0x8]\n 25324: u64 [s1 + 0x40] = a0\n 25327: a0 = u64 [a1]\n 25329: u64 [s1 + 0x70] = a0\n 25332: a0 = u64 [s1 + 0x50]\n 25335: ecalli 6 // 'caller'\n 25337: a0 = u64 [s1 + 0x78]\n 25340: a1 = i32 [a0 + 0x10]\n 25343: u64 [s1 + 0x50] = a1\n 25346: a1 = u64 [a0]\n 25348: u64 [s1 + 0x10] = a1\n 25351: a0 = u64 [a0 + 0x8]\n 25354: u64 [s1 + 0x78] = a0\n 25357: a0 = u64 [s1 + 0x20]\n 25360: a4 = s1 + 0x100\n 25364: u64 [a4 + 0xb8] = a0\n 25368: a0 = u64 [s1 + 0x28]\n 25371: u64 [a4 + 0xb0] = a0\n 25375: a0 = u64 [s1 + 0x30]\n 25378: u64 [a4 + 0xa8] = a0\n 25382: a0 = u64 [s1 + 0x38]\n 25385: u64 [a4 + 0xa0] = a0\n 25389: a0 = u64 [s1 + 0x68]\n 25392: u64 [a4 + 0xd8] = a0\n 25396: a0 = u64 [s1 + 0x48]\n 25399: u64 [a4 + 0xd0] = a0\n 25403: a0 = u64 [s1 + 0x40]\n 25406: u64 [a4 + 0xc8] = a0\n 25410: a0 = s1 + 0x1e0\n 25414: a1 = s1 + 0x1c0\n 25418: a2 = s1 + 0x1a0\n 25422: a3 = u64 [s1 + 0x70]\n 25425: u64 [a4 + 0xc0] = a3\n 25429: ra = 1214, jump @558\n      : @971 [@dyn 607] (gas: 7)\n 25435: a4 = u64 [s1 + 0x40]\n 25438: a0 = u64 [s1 + 0x68]\n 25441: a0 = a0 | a4\n 25444: a3 = u64 [s1 + 0x48]\n 25447: a1 = u64 [s1 + 0x70]\n 25450: a1 = a1 | a3\n 25453: t0 = 1216, jump @2313\n      : @972 [@dyn 608] (gas: 1)\n 25460: jump @977 if a0 != 0\n      : @973 (gas: 34)\n 25464: t2 = a3\n 25466: a2 = s1 + 0x100\n 25470: a0 = u64 [a2 + 0xe8]\n 25474: a1 = u64 [a2 + 0xf8]\n 25478: u64 [s1 + 0x38] = a1\n 25481: t1 = u64 [s1 + 0x1e0]\n 25485: a3 = u64 [a2 + 0xf0]\n 25489: ra = a0 ^ a4\n 25492: a5 = a0 <u a4\n 25495: t0 = u64 [s1 + 0x70]\n 25498: a1 = t1 <u t0\n 25501: a5 = a1 if ra == 0\n 25504: a2 = a3 - t2\n 25507: ra = a2 - a5\n 25510: a2 = a2 <u a5\n 25513: u64 [s1 + 0x30] = a2\n 25516: a3 = a3 <u t2\n 25519: a5 = u64 [s1 + 0x68]\n 25522: a2 = u64 [s1 + 0x38]\n 25525: a5 = a2 - a5\n 25528: a5 = a5 - a3\n 25531: a2 = u64 [s1 + 0x30]\n 25534: a5 = a5 - a2\n 25537: a0 = a0 - a4\n 25540: a0 = a0 - a1\n 25543: a1 = t1 - t0\n 25546: a0 = a0 | a5\n 25549: a3 = a1 | ra\n 25552: a3 = a3 | a0\n 25555: a0 = a0 | ra\n 25558: a3 = a3 >> 0x20\n 25561: a0 = a0 << 0x20\n 25564: a0 = a0 | a3\n 25567: jump @977 if a0 != 0\n      : @974 (gas: 37)\n 25571: a0 = u64 [s1 + 0x78]\n 25574: a0 = reverse a0\n 25576: a2 = a0 >> 0x20\n 25579: a3 = u64 [s1 + 0x10]\n 25582: a3 = reverse a3\n 25584: a4 = a3 << 0x20\n 25587: a2 = a2 | a4\n 25590: a0 = a0 << 0x20\n 25593: a4 = u64 [s1 + 0x50]\n 25596: a4 = reverse a4\n 25598: a4 = a4 >> 0x20\n 25601: a4 = a4 | a0\n 25604: a0 = a3 >> 0x20\n 25607: u64 [s1 + 344] = 0\n 25611: a3 = u64 [s1 + 0x58]\n 25614: u64 [s1 + 0x140] = a3\n 25618: u64 [s1 + 376] = 0\n 25622: u64 [s1 + 0x160] = a4\n 25626: a3 = u64 [s1 + 0x60]\n 25629: u64 [s1 + 0x148] = a3\n 25633: u64 [s1 + 0x168] = a2\n 25637: a2 = u64 [0x20060]\n 25642: a3 = u64 [0x20068]\n 25647: a4 = u64 [0x20070]\n 25652: a5 = u64 [0x20078]\n 25657: u64 [s1 + 0x198] = a2\n 25661: u64 [s1 + 0x190] = a3\n 25665: u64 [s1 + 0x188] = a4\n 25669: u64 [s1 + 0x180] = a5\n 25673: a2 = u64 [s1 + 0x18]\n 25676: u64 [s1 + 0x150] = a2\n 25680: a2 = s1 + 0x180\n 25684: a3 = s1 + 0x160\n 25688: a4 = s1 + 0x140\n 25692: u64 [s1 + 0x170] = a0\n 25696: a0 = u64 [s1 + 0x70]\n 25699: ra = 1218, jump @32\n      : @975 [@dyn 609] (gas: 3)\n 25705: a0 = s1 + 0x120\n 25709: a1 = 0x40\n 25712: ra = 1220, jump @22\n      : @976 [@dyn 610] (gas: 13)\n 25718: a4 = s1 + 0x100\n 25722: a3 = u64 [a4 + 0x38]\n 25725: a1 = u64 [a4 + 0x30]\n 25728: a2 = u64 [a4 + 0x28]\n 25731: a0 = u64 [a4 + 0x20]\n 25734: a3 = a3 | a2\n 25737: a2 = a0 | a1\n 25740: a2 = a2 | a3\n 25743: a2 = a2 >> 0x20\n 25746: a1 = a1 | a3\n 25749: a1 = a1 << 0x20\n 25752: a1 = a1 | a2\n 25755: jump @993 if a1 == 0\n      : @977 (gas: 1)\n 25759: trap\n      : @978 (gas: 2)\n 25760: a1 = 0x20160\n 25765: jump @980\n      : @979 (gas: 2)\n 25767: a1 = 0x20160\n 25772: fallthrough\n      : @980 (gas: 7)\n 25773: i32 a1 = a1 + 0\n 25775: a0 = 0x1\n 25778: a2 = 0\n 25780: ra = 0x4c6\n 25784: ecalli 16 // 'seal_return'\n 25786: t0 = 0x4c8\n 25790: jump @2347\n      : @981 [@dyn 611] (gas: 1)\n 25794: t0 = 1224, jump @2347\n      : @982 [@dyn 612] (gas: 5)\n 25801: a0 = 0xe602df0500000000\n 25811: a1 = s1 + 0xa0\n 25815: u64 [s1 + 0xb8] = a0\n 25819: a0 = 0\n 25821: ra = 1226, jump @24\n      : @983 [@dyn 613] (gas: 7)\n 25827: u64 [s1 + 152] = 0\n 25831: u64 [s1 + 144] = 0\n 25835: u64 [s1 + 136] = 0\n 25839: a0 = 0x4\n 25842: a1 = s1 + 0x80\n 25846: u64 [s1 + 128] = 0\n 25850: ra = 1228, jump @24\n      : @984 [@dyn 614] (gas: 2)\n 25856: a1 = i32 [0x20150]\n 25861: jump @986 if a1 >u 63\n      : @985 (gas: 3)\n 25865: u32 [0x20150] = 0x40\n 25871: a1 = 0x20160\n 25876: jump @992\n      : @986 (gas: 2)\n 25878: a1 = 0x20160\n 25883: jump @992\n      : @987 (gas: 8)\n 25885: u64 [s1 + 240] = 0\n 25889: u64 [s1 + 232] = 0\n 25893: u64 [s1 + 224] = 0\n 25897: a0 = 0x94280d6200000000\n 25907: a1 = s1 + 0xe0\n 25911: u64 [s1 + 0xf8] = a0\n 25915: a0 = 0\n 25917: ra = 1230, jump @24\n      : @988 [@dyn 615] (gas: 7)\n 25923: u64 [s1 + 216] = 0\n 25927: u64 [s1 + 208] = 0\n 25931: u64 [s1 + 200] = 0\n 25935: a0 = 0x4\n 25938: a1 = s1 + 0xc0\n 25942: u64 [s1 + 192] = 0\n 25946: ra = 1232, jump @24\n      : @989 [@dyn 616] (gas: 2)\n 25952: a1 = i32 [0x20150]\n 25957: jump @991 if a1 >u 63\n      : @990 (gas: 3)\n 25961: u32 [0x20150] = 0x40\n 25967: a1 = 0x20160\n 25972: jump @992\n      : @991 (gas: 2)\n 25974: a1 = 0x20160\n 25979: fallthrough\n      : @992 (gas: 7)\n 25980: i32 a1 = a1 + 0\n 25982: a0 = 0x1\n 25985: a2 = 0x24\n 25988: ra = 0x4d2\n 25992: ecalli 16 // 'seal_return'\n 25994: t0 = 0x4d4\n 25998: jump @2370\n      : @993 [@dyn 617] (gas: 1)\n 26002: t0 = 1236, jump @2370\n      : @994 [@dyn 618] (gas: 4)\n 26009: a1 = s1 + 0x100\n 26013: u64 [s1 + 256] = 0x1\n 26018: u64 [s1 + 0x78] = a0\n 26021: ra = 1238, jump @24\n      : @995 [@dyn 619] (gas: 3)\n 26027: a1 = 0x20\n 26030: a0 = u64 [s1 + 0x78]\n 26033: ra = 1240, jump @37\n      : @996 [@dyn 620] (gas: 1)\n 26039: t0 = 1242, jump @2280\n      : @997 [@dyn 621] (gas: 3)\n 26046: ra = 0x4dc\n 26050: ecalli 16 // 'seal_return'\n 26052: fallthrough\n      : @998 [@dyn 622] (gas: 13)\n 26053: sp = sp + 0xffffffffffffff20\n 26057: u64 [sp + 0xd8] = ra\n 26061: u64 [sp + 0xd0] = s0\n 26065: u64 [sp + 0xc8] = s1\n 26069: s0 = sp + 0xe0\n 26073: sp = sp & 0xffffffffffffffe0\n 26076: u64 [sp + 152] = 0\n 26080: u64 [sp + 144] = 0\n 26084: u64 [sp + 136] = 0\n 26088: u64 [sp + 128] = 0\n 26092: i32 a0 = sp + 0x80\n 26096: ecalli 19 // 'value_transferred'\n 26098: fallthrough\n      : @999 (gas: 8)\n 26099: a0 = u64 [sp + 0x90]\n 26103: a1 = u64 [sp + 0x98]\n 26107: a2 = u64 [sp + 0x88]\n 26111: a3 = u64 [sp + 0x80]\n 26115: a1 = a1 | a2\n 26118: a0 = a0 | a3\n 26121: a0 = a0 | a1\n 26124: jump @1006 if a0 != 0\n      : @1000 (gas: 2)\n 26127: a0 = i32 [0x2014c]\n 26132: jump @1007 if a0 <=u 3\n      : @1001 (gas: 9)\n 26136: u64 [sp + 184] = 0\n 26140: u64 [sp + 176] = 0\n 26144: u64 [sp + 168] = 0\n 26148: u64 [sp + 160] = 0x2\n 26153: a0 = sp + 0x60\n 26156: a1 = sp + 0xa0\n 26160: ra = 0x4de\n 26164: t0 = 0x6\n 26167: jump @2259\n      : @1002 [@dyn 623] (gas: 11)\n 26171: a0 = u64 [sp + 0x78]\n 26174: u64 [sp + 0x18] = a0\n 26177: a0 = u64 [sp + 0x70]\n 26180: u64 [sp + 0x10] = a0\n 26183: a0 = u64 [sp + 0x68]\n 26186: u64 [sp + 0x8] = a0\n 26189: a0 = u64 [sp + 0x60]\n 26192: u64 [sp] = a0\n 26194: a0 = sp + 0x40\n 26197: a1 = 0x40\n 26200: ra = 1248, jump @22\n      : @1003 [@dyn 624] (gas: 5)\n 26206: a0 = u64 [sp + 0x58]\n 26209: a1 = u64 [sp + 0x50]\n 26212: a2 = u64 [sp + 0x48]\n 26215: s1 = u64 [sp + 0x40]\n 26218: t0 = 1250, jump @2243\n      : @1004 [@dyn 625] (gas: 1)\n 26225: jump @1009 if a0 == 0\n      : @1005 (gas: 1)\n 26228: trap\n      : @1006 (gas: 2)\n 26229: a1 = 0x20160\n 26234: jump @1008\n      : @1007 (gas: 2)\n 26236: a1 = 0x20160\n 26241: fallthrough\n      : @1008 (gas: 7)\n 26242: i32 a1 = a1 + 0\n 26244: a0 = 0x1\n 26247: a2 = 0\n 26249: ra = 0x4e4\n 26253: ecalli 16 // 'seal_return'\n 26255: t0 = 0x4e6\n 26259: jump @2284\n      : @1009 [@dyn 626] (gas: 1)\n 26263: t0 = 1254, jump @2284\n      : @1010 [@dyn 627] (gas: 1)\n 26270: ra = 1256, jump @24\n      : @1011 [@dyn 628] (gas: 3)\n 26276: a1 = 0x20\n 26279: a0 = s1\n 26281: ra = 1258, jump @37\n      : @1012 [@dyn 629] (gas: 1)\n 26287: t0 = 1260, jump @2280\n      : @1013 [@dyn 630] (gas: 4)\n 26294: ra = 0x4ee\n 26298: ecalli 16 // 'seal_return'\n 26300: t0 = 0x4f0\n 26304: jump @2343\n      : @1014 [@dyn 631] (gas: 1)\n 26308: t0 = 1264, jump @2343\n      : @1015 [@dyn 632] (gas: 7)\n 26315: u64 [s1 + 888] = 0\n 26319: u64 [s1 + 880] = 0\n 26323: u64 [s1 + 872] = 0\n 26327: u64 [s1 + 864] = 0\n 26331: i32 a0 = s1 + 0x360\n 26335: ecalli 19 // 'value_transferred'\n 26337: fallthrough\n      : @1016 (gas: 9)\n 26338: a4 = s1 + 0x300\n 26342: a0 = u64 [a4 + 0x70]\n 26345: a1 = u64 [a4 + 0x78]\n 26348: a2 = u64 [a4 + 0x68]\n 26351: a3 = u64 [a4 + 0x60]\n 26354: a1 = a1 | a2\n 26357: a0 = a0 | a3\n 26360: a0 = a0 | a1\n 26363: jump @1045 if a0 != 0\n      : @1017 (gas: 3)\n 26367: a0 = i32 [0x2014c]\n 26372: a1 = 0x63\n 26375: jump @1046 if a1 >=u a0\n      : @1018 (gas: 4)\n 26379: a0 = s1 + 0x340\n 26383: ra = 0x4f2\n 26387: t0 = 0x484\n 26391: jump @2251\n      : @1019 [@dyn 633] (gas: 12)\n 26395: a0 = u64 [s1 + 0x358]\n 26399: u64 [s1 + 0x60] = a0\n 26402: a0 = u64 [s1 + 0x350]\n 26406: u64 [s1 + 0x98] = a0\n 26410: a0 = u64 [s1 + 0x348]\n 26414: u64 [s1 + 0x90] = a0\n 26418: a0 = u64 [s1 + 0x340]\n 26422: u64 [s1 + 0x88] = a0\n 26426: a0 = s1 + 0x320\n 26430: ra = 0x4f4\n 26434: t0 = 0x48e\n 26438: jump @2329\n      : @1020 [@dyn 634] (gas: 12)\n 26442: a0 = u64 [s1 + 0x338]\n 26446: u64 [s1 + 0x50] = a0\n 26449: a0 = u64 [s1 + 0x330]\n 26453: u64 [s1 + 0x48] = a0\n 26456: a0 = u64 [s1 + 0x328]\n 26460: u64 [s1 + 0x40] = a0\n 26463: a0 = u64 [s1 + 0x320]\n 26467: u64 [s1 + 0x38] = a0\n 26470: a0 = s1 + 0x300\n 26474: ra = 0x4f6\n 26478: t0 = 0x49c\n 26482: jump @2251\n      : @1021 [@dyn 635] (gas: 21)\n 26486: a1 = s1 + 0x300\n 26490: a0 = u64 [a1 + 0x18]\n 26493: u64 [s1 + 0x80] = a0\n 26497: a0 = u64 [a1 + 0x10]\n 26500: u64 [s1 + 0x78] = a0\n 26503: a0 = u64 [a1 + 0x8]\n 26506: u64 [s1 + 0x68] = a0\n 26509: a0 = u64 [a1]\n 26511: u64 [s1 + 0x70] = a0\n 26514: a0 = u64 [s1 + 0x98]\n 26518: a0 = a0 << 0x20\n 26521: a0 = a0 >> 0x20\n 26524: u64 [s1 + 760] = 0\n 26528: u64 [s1 + 0x2f0] = a0\n 26532: a0 = u64 [s1 + 0x90]\n 26536: u64 [s1 + 0x2e8] = a0\n 26540: a1 = s1 + 0x2e0\n 26544: a0 = u64 [s1 + 0x88]\n 26548: u64 [s1 + 0x2e0] = a0\n 26552: a0 = 0\n 26554: ra = 1272, jump @24\n      : @1022 [@dyn 636] (gas: 7)\n 26560: u64 [s1 + 728] = 0\n 26564: u64 [s1 + 720] = 0\n 26568: u64 [s1 + 704] = 0x1\n 26573: a0 = 0x20\n 26576: a1 = s1 + 0x2c0\n 26580: u64 [s1 + 712] = 0\n 26584: ra = 1274, jump @24\n      : @1023 [@dyn 637] (gas: 9)\n 26590: a0 = 0x30160\n 26595: u64 [s1 + 0x58] = a0\n 26598: i32 a0 = a0 + 0\n 26600: u64 [s1 + 0x10] = a0\n 26603: ra = 0x4fc\n 26607: ecalli 6 // 'caller'\n 26609: a2 = u64 [s1 + 0x58]\n 26612: t0 = 0x4fe\n 26616: jump @2338\n      : @1024 [@dyn 638] (gas: 2)\n 26620: a2 = u64 [s1 + 0x58]\n 26623: t0 = 1278, jump @2338\n      : @1025 [@dyn 639] (gas: 12)\n 26630: a5 = 0x20150\n 26635: a3 = a3 | a4\n 26638: u64 [s1 + 0x30] = a3\n 26641: a0 = a0 << 0x20\n 26644: a2 = reverse a2\n 26646: a3 = i32 [0x20150]\n 26651: a2 = a2 >> 0x20\n 26654: a0 = a0 | a2\n 26657: u64 [s1 + 0x28] = a0\n 26660: a1 = a1 >> 0x20\n 26663: u64 [s1 + 0x20] = a1\n 26666: jump @1027 if a3 >u 63\n      : @1026 (gas: 4)\n 26670: u32 [0x20150] = 0x40\n 26676: u64 [s1 + 0x8] = a5\n 26679: t0 = 0x500\n 26683: jump @2282\n      : @1027 (gas: 2)\n 26687: u64 [s1 + 0x8] = a5\n 26690: t0 = 1280, jump @2282\n      : @1028 [@dyn 640] (gas: 10)\n 26697: a0 = 0x20160\n 26702: i32 a0 = a0 + 0\n 26704: i32 a2 = a2 + 0\n 26706: a1 = 0x40\n 26709: u64 [s1] = a0\n 26711: ra = 0x502\n 26715: ecalli 11 // 'hash_keccak_256'\n 26717: a3 = u64 [s1 + 0x18]\n 26720: t0 = 0x504\n 26724: jump @2224\n      : @1029 [@dyn 641] (gas: 2)\n 26728: a3 = u64 [s1 + 0x18]\n 26731: t0 = 1284, jump @2224\n      : @1030 [@dyn 642] (gas: 17)\n 26738: u64 [s1 + 632] = 0\n 26742: a3 = u64 [s1 + 0x20]\n 26745: u64 [s1 + 0x270] = a3\n 26749: a3 = u64 [s1 + 0x30]\n 26752: u64 [s1 + 0x268] = a3\n 26756: a3 = u64 [s1 + 0x28]\n 26759: u64 [s1 + 0x260] = a3\n 26763: u64 [s1 + 0x298] = a2\n 26767: u64 [s1 + 0x290] = a1\n 26771: u64 [s1 + 0x288] = a0\n 26775: a0 = s1 + 0x2a0\n 26779: a1 = s1 + 0x280\n 26783: a2 = s1 + 0x260\n 26787: u64 [s1 + 0x280] = a4\n 26791: ra = 0x506\n 26795: t0 = 0x7c2\n 26799: jump @2373\n      : @1031 [@dyn 643] (gas: 14)\n 26803: a0 = u64 [s1 + 0x2b8]\n 26807: a1 = u64 [s1 + 0x2b0]\n 26811: a2 = u64 [s1 + 0x2a8]\n 26815: a3 = u64 [s1 + 0x2a0]\n 26819: a4 = s1 + 0x300\n 26823: u64 [a4 + 0x98] = a0\n 26827: u64 [a4 + 0x90] = a1\n 26831: u64 [a4 + 0x88] = a2\n 26835: u64 [a4 + 0x80] = a3\n 26839: a0 = s1 + 0x240\n 26843: a1 = s1 + 0x380\n 26847: ra = 0x508\n 26851: t0 = 0x6\n 26854: jump @2259\n      : @1032 [@dyn 644] (gas: 9)\n 26858: a0 = s1 + 0x200\n 26862: a4 = u64 [a0 + 0x58]\n 26865: a5 = u64 [a0 + 0x50]\n 26868: a3 = u64 [a0 + 0x48]\n 26871: a2 = u64 [a0 + 0x40]\n 26874: a0 = a3 & a4\n 26877: a1 = a2 & a5\n 26880: a0 = a0 & a1\n 26883: jump @1037 if a0 == 4294967295\n      : @1033 (gas: 20)\n 26888: t2 = u64 [s1 + 0x70]\n 26891: u64 [s1 + 0x30] = a2\n 26894: t0 = a2 <u t2\n 26897: ra = u64 [s1 + 0x68]\n 26900: a2 = a3 ^ ra\n 26903: u64 [s1 + 0x28] = a3\n 26906: a1 = a3 <u ra\n 26909: a1 = t0 if a2 == 0\n 26912: a2 = u64 [s1 + 0x78]\n 26915: a0 = a5 <u a2\n 26918: t1 = u64 [s1 + 0x80]\n 26922: a3 = a4 ^ t1\n 26925: u64 [s1 + 0x20] = a4\n 26928: a4 = a4 <u t1\n 26931: a4 = a0 if a3 == 0\n 26934: u64 [s1 + 0x18] = a5\n 26937: a5 = a5 ^ a2\n 26940: a3 = a3 | a5\n 26943: a4 = a1 if a3 == 0\n 26946: jump @1048 if a4 != 0\n      : @1034 (gas: 23)\n 26950: a3 = u64 [s1 + 0x18]\n 26953: a3 = a3 - a2\n 26956: a2 = u64 [s1 + 0x20]\n 26959: a4 = a2 - t1\n 26962: a4 = a4 - a0\n 26965: a2 = a3 <u a1\n 26968: a4 = a4 - a2\n 26971: u64 [s1 + 0x20] = a4\n 26974: a3 = a3 - a1\n 26977: u64 [s1 + 0x18] = a3\n 26980: a0 = u64 [s1 + 0x28]\n 26983: a1 = a0 - ra\n 26986: a0 = a1 - t0\n 26989: u64 [s1 + 0x28] = a0\n 26992: a0 = u64 [s1 + 0x30]\n 26995: a0 = a0 - t2\n 26998: u64 [s1 + 0x30] = a0\n 27001: a0 = u64 [s1 + 0x10]\n 27004: ra = 0x50a\n 27008: ecalli 6 // 'caller'\n 27010: a2 = u64 [s1 + 0x58]\n 27013: t0 = 0x50c\n 27017: jump @2231\n      : @1035 [@dyn 645] (gas: 2)\n 27021: a2 = u64 [s1 + 0x58]\n 27024: t0 = 1292, jump @2231\n      : @1036 [@dyn 646] (gas: 26)\n 27031: a2 = u64 [s1 + 0x18]\n 27034: a4 = s1 + 0x100\n 27038: u64 [a4 + 0xf0] = a2\n 27042: a2 = u64 [s1 + 0x28]\n 27045: u64 [a4 + 0xe8] = a2\n 27049: a2 = u64 [s1 + 0x30]\n 27052: u64 [a4 + 0xe0] = a2\n 27056: u64 [s1 + 536] = 0\n 27060: a2 = u64 [s1 + 0x60]\n 27063: a5 = s1 + 0x200\n 27067: u64 [a5 + 0x38] = a2\n 27070: a2 = u64 [s1 + 0x98]\n 27074: u64 [a5 + 0x30] = a2\n 27077: a2 = u64 [s1 + 0x90]\n 27081: u64 [a5 + 0x28] = a2\n 27084: a2 = u64 [s1 + 0x88]\n 27088: u64 [a5 + 0x20] = a2\n 27091: u64 [a5 + 0x10] = a1\n 27094: a1 = u64 [s1 + 0x20]\n 27097: u64 [a4 + 0xf8] = a1\n 27101: u64 [a5 + 0x8] = a0\n 27104: a0 = s1 + 0x220\n 27108: a1 = s1 + 0x200\n 27112: a2 = s1 + 0x1e0\n 27116: u64 [a5] = a3\n 27118: ra = 1294, jump @1773\n      : @1037 [@dyn 647] (gas: 29)\n 27124: a0 = u64 [s1 + 0x70]\n 27127: a4 = s1 + 0x100\n 27131: u64 [a4] = a0\n 27133: a0 = u64 [s1 + 0x38]\n 27136: u64 [a4 + 0x20] = a0\n 27139: a0 = u64 [s1 + 0x88]\n 27143: u64 [a4 + 0x40] = a0\n 27146: a0 = u64 [s1 + 0x68]\n 27149: u64 [a4 + 0x8] = a0\n 27152: a0 = u64 [s1 + 0x40]\n 27155: u64 [a4 + 0x28] = a0\n 27158: a0 = u64 [s1 + 0x90]\n 27162: u64 [a4 + 0x48] = a0\n 27165: a0 = u64 [s1 + 0x78]\n 27168: u64 [a4 + 0x10] = a0\n 27171: a0 = u64 [s1 + 0x48]\n 27174: u64 [a4 + 0x30] = a0\n 27177: a0 = u64 [s1 + 0x98]\n 27181: u64 [a4 + 0x50] = a0\n 27184: a0 = u64 [s1 + 0x80]\n 27188: u64 [a4 + 0x18] = a0\n 27191: a0 = u64 [s1 + 0x50]\n 27194: u64 [a4 + 0x38] = a0\n 27197: a0 = s1 + 0x140\n 27201: a1 = s1 + 0x120\n 27205: a2 = s1 + 0x100\n 27209: a3 = u64 [s1 + 0x60]\n 27212: u64 [a4 + 0x58] = a3\n 27215: ra = 1296, jump @1669\n      : @1038 [@dyn 648] (gas: 3)\n 27221: a0 = s1 + 0xe0\n 27225: a1 = 0x40\n 27228: ra = 1298, jump @22\n      : @1039 [@dyn 649] (gas: 15)\n 27234: a1 = u64 [s1 + 0xf8]\n 27238: u64 [s1 + 0x98] = a1\n 27242: a0 = u64 [s1 + 0xf0]\n 27246: u64 [s1 + 0x90] = a0\n 27250: a2 = u64 [s1 + 0xe8]\n 27254: u64 [s1 + 0x88] = a2\n 27258: a3 = u64 [s1 + 0xe0]\n 27262: u64 [s1 + 0x80] = a3\n 27266: u64 [s1 + 0xb8] = a1\n 27270: u64 [s1 + 0xb0] = a0\n 27274: u64 [s1 + 0xa8] = a2\n 27278: a0 = s1 + 0xc0\n 27282: a1 = s1 + 0xa0\n 27286: u64 [s1 + 0xa0] = a3\n 27290: ra = 1300, jump @946\n      : @1040 [@dyn 650] (gas: 7)\n 27296: a4 = u64 [s1 + 0x88]\n 27300: a2 = u64 [s1 + 0x80]\n 27304: a0 = u64 [s1 + 0x98]\n 27308: a0 = a0 | a4\n 27311: a3 = u64 [s1 + 0x90]\n 27315: a1 = a2 | a3\n 27318: t0 = 1302, jump @2313\n      : @1041 [@dyn 651] (gas: 1)\n 27325: jump @1044 if a0 != 0\n      : @1042 (gas: 25)\n 27328: t0 = a3\n 27330: a0 = u64 [s1 + 0xc8]\n 27334: a1 = u64 [s1 + 0xd8]\n 27338: u64 [s1 + 0x78] = a1\n 27341: t1 = u64 [s1 + 0xc0]\n 27345: a3 = u64 [s1 + 0xd0]\n 27349: t2 = a0 ^ a4\n 27352: a5 = a0 <u a4\n 27355: ra = t1 <u a2\n 27358: a5 = ra if t2 == 0\n 27361: a1 = a3 - t0\n 27364: t2 = a1 - a5\n 27367: a1 = a1 <u a5\n 27370: u64 [s1 + 0x70] = a1\n 27373: a3 = a3 <u t0\n 27376: a5 = u64 [s1 + 0x98]\n 27380: a1 = u64 [s1 + 0x78]\n 27383: a5 = a1 - a5\n 27386: a5 = a5 - a3\n 27389: a1 = u64 [s1 + 0x70]\n 27392: a5 = a5 - a1\n 27395: a0 = a0 - a4\n 27398: a0 = a0 - ra\n 27401: a1 = t1 - a2\n 27404: t0 = 1304, jump @2220\n      : @1043 [@dyn 652] (gas: 1)\n 27411: jump @1057 if a0 == 0\n      : @1044 (gas: 1)\n 27415: trap\n      : @1045 (gas: 2)\n 27416: a1 = 0x20160\n 27421: jump @1047\n      : @1046 (gas: 2)\n 27423: a1 = 0x20160\n 27428: fallthrough\n      : @1047 (gas: 5)\n 27429: i32 a1 = a1 + 0\n 27431: a0 = 0x1\n 27434: a2 = 0\n 27436: ecalli 16 // 'seal_return'\n 27438: fallthrough\n      : @1048 (gas: 8)\n 27439: u64 [s1 + 464] = 0\n 27443: u64 [s1 + 456] = 0\n 27447: u64 [s1 + 448] = 0\n 27451: a0 = 0xfb8f41b200000000\n 27461: a1 = s1 + 0x1c0\n 27465: u64 [s1 + 0x1d8] = a0\n 27469: a0 = 0\n 27471: ra = 1306, jump @24\n      : @1049 [@dyn 653] (gas: 6)\n 27477: a0 = u64 [s1 + 0x10]\n 27480: ra = 0x51c\n 27484: ecalli 6 // 'caller'\n 27486: a2 = u64 [s1 + 0x58]\n 27489: t0 = 0x51e\n 27493: jump @2242\n      : @1050 [@dyn 654] (gas: 2)\n 27497: a2 = u64 [s1 + 0x58]\n 27500: t0 = 1310, jump @2242\n      : @1051 [@dyn 655] (gas: 4)\n 27507: a0 = 0x4\n 27510: a1 = s1 + 0x1a0\n 27514: u64 [s1 + 0x1a0] = a3\n 27518: ra = 1312, jump @24\n      : @1052 [@dyn 656] (gas: 11)\n 27524: a0 = u64 [s1 + 0x20]\n 27527: u64 [s1 + 0x198] = a0\n 27531: a0 = u64 [s1 + 0x18]\n 27534: u64 [s1 + 0x190] = a0\n 27538: a0 = u64 [s1 + 0x28]\n 27541: u64 [s1 + 0x188] = a0\n 27545: a0 = 0x24\n 27548: a1 = s1 + 0x180\n 27552: a2 = u64 [s1 + 0x30]\n 27555: u64 [s1 + 0x180] = a2\n 27559: ra = 1314, jump @24\n      : @1053 [@dyn 657] (gas: 12)\n 27565: a0 = u64 [s1 + 0x80]\n 27569: a3 = s1 + 0x100\n 27573: u64 [a3 + 0x78] = a0\n 27576: a0 = u64 [s1 + 0x78]\n 27579: u64 [a3 + 0x70] = a0\n 27582: a0 = u64 [s1 + 0x68]\n 27585: u64 [a3 + 0x68] = a0\n 27588: a0 = 0x44\n 27591: a1 = s1 + 0x160\n 27595: a2 = u64 [s1 + 0x70]\n 27598: u64 [a3 + 0x60] = a2\n 27601: ra = 1316, jump @24\n      : @1054 [@dyn 658] (gas: 3)\n 27607: a0 = u64 [s1 + 0x8]\n 27610: a0 = i32 [a0]\n 27612: jump @1056 if a0 >u 127\n      : @1055 (gas: 3)\n 27616: a1 = u64 [s1 + 0x8]\n 27619: u32 [a1 + 0] = 0x80\n 27623: fallthrough\n      : @1056 (gas: 5)\n 27624: a0 = 0x1\n 27627: a2 = 0x64\n 27630: a1 = u64 [s1]\n 27632: ecalli 16 // 'seal_return'\n 27634: fallthrough\n      : @1057 (gas: 3)\n 27635: a0 = a2\n 27637: u64 [s1 + 0x98] = a1\n 27641: ra = 1318, jump @37\n      : @1058 [@dyn 659] (gas: 6)\n 27647: i32 a1 = a0 + 0\n 27649: a2 = i32 [s1 + 0x98]\n 27653: a0 = 0\n 27655: ra = 0x528\n 27659: ecalli 16 // 'seal_return'\n 27661: fallthrough\n      : @1059 [@dyn 660] (gas: 13)\n 27662: sp = sp + 0xffffffffffffff80\n 27665: u64 [sp + 0x78] = ra\n 27668: u64 [sp + 0x70] = s0\n 27671: u64 [sp + 0x68] = s1\n 27674: s0 = sp + 0x80\n 27678: sp = sp & 0xffffffffffffffe0\n 27681: u64 [sp + 88] = 0\n 27684: u64 [sp + 80] = 0\n 27687: u64 [sp + 72] = 0\n 27690: u64 [sp + 64] = 0\n 27693: i32 a0 = sp + 0x40\n 27696: ecalli 19 // 'value_transferred'\n 27698: fallthrough\n      : @1060 (gas: 8)\n 27699: a0 = u64 [sp + 0x50]\n 27702: a1 = u64 [sp + 0x58]\n 27705: a2 = u64 [sp + 0x48]\n 27708: a3 = u64 [sp + 0x40]\n 27711: a1 = a1 | a2\n 27714: a0 = a0 | a3\n 27717: a0 = a0 | a1\n 27720: jump @1066 if a0 != 0\n      : @1061 (gas: 2)\n 27723: a0 = i32 [0x2014c]\n 27728: jump @1067 if a0 <=u 3\n      : @1062 (gas: 3)\n 27732: a0 = sp + 0x20\n 27735: a1 = 0x40\n 27738: ra = 1322, jump @22\n      : @1063 [@dyn 661] (gas: 5)\n 27744: a0 = u64 [sp + 0x38]\n 27747: a1 = u64 [sp + 0x30]\n 27750: a2 = u64 [sp + 0x28]\n 27753: s1 = u64 [sp + 0x20]\n 27756: t0 = 1324, jump @2243\n      : @1064 [@dyn 662] (gas: 1)\n 27763: jump @1069 if a0 == 0\n      : @1065 (gas: 1)\n 27766: trap\n      : @1066 (gas: 2)\n 27767: a1 = 0x20160\n 27772: jump @1068\n      : @1067 (gas: 2)\n 27774: a1 = 0x20160\n 27779: fallthrough\n      : @1068 (gas: 5)\n 27780: i32 a1 = a1 + 0\n 27782: a0 = 0x1\n 27785: a2 = 0\n 27787: ecalli 16 // 'seal_return'\n 27789: fallthrough\n      : @1069 (gas: 7)\n 27790: u64 [sp + 24] = 0\n 27793: u64 [sp + 16] = 0\n 27796: u64 [sp + 8] = 0\n 27799: a1 = sp\n 27801: u64 [sp + 0] = 0x12\n 27804: a0 = s1\n 27806: ra = 1326, jump @24\n      : @1070 [@dyn 663] (gas: 3)\n 27812: a1 = 0x20\n 27815: a0 = s1\n 27817: ra = 1328, jump @37\n      : @1071 [@dyn 664] (gas: 1)\n 27823: t0 = 1330, jump @2280\n      : @1072 [@dyn 665] (gas: 3)\n 27830: ra = 0x534\n 27834: ecalli 16 // 'seal_return'\n 27836: fallthrough\n      : @1073 [@dyn 666] (gas: 9)\n 27837: sp = sp + 0xfffffffffffffc00\n 27841: a0 = sp + 0x300\n 27845: u64 [a0 + 0xf8] = ra\n 27849: u64 [a0 + 0xf0] = s0\n 27853: u64 [a0 + 0xe8] = s1\n 27857: s0 = sp + 0x400\n 27861: sp = sp & 0xffffffffffffffe0\n 27864: s1 = sp\n 27866: t0 = 1334, jump @2358\n      : @1074 [@dyn 667] (gas: 4)\n 27873: u64 [s1 + 896] = 0\n 27877: i32 a0 = s1 + 0x380\n 27881: ecalli 19 // 'value_transferred'\n 27883: fallthrough\n      : @1075 (gas: 9)\n 27884: a4 = s1 + 0x300\n 27888: a0 = u64 [a4 + 0x90]\n 27892: a1 = u64 [a4 + 0x98]\n 27896: a2 = u64 [a4 + 0x88]\n 27900: a3 = u64 [a4 + 0x80]\n 27904: a1 = a1 | a2\n 27907: a0 = a0 | a3\n 27910: a0 = a0 | a1\n 27913: jump @1120 if a0 != 0\n      : @1076 (gas: 3)\n 27917: a0 = i32 [0x2014c]\n 27922: a1 = 0x43\n 27925: jump @1121 if a1 >=u a0\n      : @1077 (gas: 4)\n 27929: a0 = s1 + 0x360\n 27933: ra = 0x538\n 27937: t0 = 0x484\n 27941: jump @2251\n      : @1078 [@dyn 668] (gas: 27)\n 27945: a0 = u64 [s1 + 0x360]\n 27949: u64 [s1 + 0x78] = a0\n 27952: a0 = u64 [s1 + 0x368]\n 27956: u64 [s1 + 0x70] = a0\n 27959: a0 = u32 [s1 + 0x370]\n 27963: u64 [s1 + 0x68] = a0\n 27966: i32 a0 = s1 + 0x3a0\n 27970: a1 = 0x24\n 27973: ecalli 4 // 'call_data_load'\n 27975: a0 = u64 [s1 + 0x3b8]\n 27979: u64 [s1 + 0x98] = a0\n 27983: a0 = u64 [s1 + 0x3b0]\n 27987: u64 [s1 + 0x90] = a0\n 27991: a0 = u64 [s1 + 0x3a8]\n 27995: u64 [s1 + 0x88] = a0\n 27999: a0 = u64 [s1 + 0x3a0]\n 28003: u64 [s1 + 0x80] = a0\n 28007: u64 [s1 + 856] = 0\n 28011: a0 = u64 [s1 + 0x68]\n 28014: u64 [s1 + 0x350] = a0\n 28018: a0 = u64 [s1 + 0x70]\n 28021: u64 [s1 + 0x348] = a0\n 28025: a1 = s1 + 0x340\n 28029: a0 = u64 [s1 + 0x78]\n 28032: u64 [s1 + 0x340] = a0\n 28036: a0 = 0\n 28038: ra = 1338, jump @24\n      : @1079 [@dyn 669] (gas: 7)\n 28044: u64 [s1 + 824] = 0\n 28048: u64 [s1 + 816] = 0\n 28052: u64 [s1 + 800] = 0x9\n 28057: a0 = 0x20\n 28060: a1 = s1 + 0x320\n 28064: u64 [s1 + 808] = 0\n 28068: ra = 1340, jump @24\n      : @1080 [@dyn 670] (gas: 7)\n 28074: a0 = sp + 0xffffffffffffffe0\n 28077: a0 = a0 & 0xffffffffffffffe0\n 28080: u64 [s1 + 0x78] = a0\n 28083: sp = a0\n 28085: a2 = 0x20150\n 28090: a0 = i32 [0x20150]\n 28095: jump @1082 if a0 >u 63\n      : @1081 (gas: 2)\n 28099: u32 [0x20150] = 0x40\n 28105: fallthrough\n      : @1082 (gas: 15)\n 28106: u64 [s1 + 0x48] = a2\n 28109: a0 = sp + 0xffffffffffffffe0\n 28112: a2 = a0 & 0xffffffffffffffe0\n 28115: u64 [s1 + 0x70] = a2\n 28118: sp = a2\n 28120: a0 = 0x20160\n 28125: i32 a0 = a0 + 0\n 28127: i32 a2 = a2 + 0\n 28129: a1 = 0x40\n 28132: u64 [s1 + 0x40] = a0\n 28135: ra = 0x53e\n 28139: ecalli 11 // 'hash_keccak_256'\n 28141: a3 = u64 [s1 + 0x70]\n 28144: t0 = 0x540\n 28148: jump @2213\n      : @1083 [@dyn 671] (gas: 2)\n 28151: a3 = u64 [s1 + 0x70]\n 28154: t0 = 1344, jump @2213\n      : @1084 [@dyn 672] (gas: 20)\n 28160: u64 [s1 + 0x50] = a3\n 28163: a4 = u64 [s1 + 0x78]\n 28166: u64 [a4 + 0x18] = a3\n 28169: u64 [s1 + 0x58] = a2\n 28172: u64 [a4 + 0x10] = a2\n 28175: u64 [s1 + 0x60] = a1\n 28178: u64 [a4 + 0x8] = a1\n 28181: u64 [s1 + 0x68] = a0\n 28184: u64 [a4] = a0\n 28186: a0 = u64 [s1 + 0x98]\n 28190: u64 [s1 + 0x2f8] = a0\n 28194: a0 = u64 [s1 + 0x90]\n 28198: u64 [s1 + 0x2f0] = a0\n 28202: a0 = u64 [s1 + 0x88]\n 28206: u64 [s1 + 0x2e8] = a0\n 28210: a0 = s1 + 0x300\n 28214: a1 = s1 + 0x2e0\n 28218: a2 = u64 [s1 + 0x80]\n 28222: u64 [s1 + 0x2e0] = a2\n 28226: ra = 1346, jump @1708\n      : @1085 [@dyn 673] (gas: 5)\n 28232: a0 = s1 + 0x2c0\n 28236: a1 = u64 [s1 + 0x78]\n 28239: ra = 0x544\n 28243: t0 = 0x6\n 28246: jump @2259\n      : @1086 [@dyn 674] (gas: 1)\n 28250: t0 = 1350, jump @2296\n      : @1087 [@dyn 675] (gas: 3)\n 28257: u64 [s1 + 0x78] = a2\n 28260: u64 [s1 + 0x70] = a3\n 28263: jump @1092 if a1 != 0\n      : @1088 (gas: 1)\n 28266: t0 = 1352, jump @2321\n      : @1089 [@dyn 676] (gas: 3)\n 28273: u64 [s1 + 0x30] = a4\n 28276: u64 [s1 + 0x28] = a5\n 28279: ra = 1354, jump @1835\n      : @1090 [@dyn 677] (gas: 20)\n 28285: ra = u64 [s1 + 0x2a8]\n 28289: a2 = u64 [s1 + 0x2b8]\n 28293: t0 = u64 [s1 + 0x2a0]\n 28297: a4 = u64 [s1 + 0x2b0]\n 28301: a1 = u64 [s1 + 0x78]\n 28304: a0 = a1 ^ ra\n 28307: a5 = a1 <u ra\n 28310: a1 = u64 [s1 + 0x70]\n 28313: t1 = a1 <u t0\n 28316: a5 = t1 if a0 == 0\n 28319: a1 = u64 [s1 + 0x28]\n 28322: t2 = a1 <u a4\n 28325: a0 = u64 [s1 + 0x30]\n 28328: a3 = a0 ^ a2\n 28331: a0 = a0 <u a2\n 28334: a0 = t2 if a3 == 0\n 28337: a1 = a1 ^ a4\n 28340: a1 = a1 | a3\n 28343: a0 = a5 if a1 == 0\n 28346: jump @1110 if a0 == 0\n      : @1091 (gas: 3)\n 28350: ra = 0x54c\n 28354: t0 = 0x28e\n 28358: jump @2232\n      : @1092 [@dyn 678] (gas: 5)\n 28362: a3 = 0\n 28364: a2 = 0\n 28366: t2 = 0\n 28368: u64 [s1 + 56] = 0\n 28371: fallthrough\n      : @1093 (gas: 5)\n 28372: a1 = u64 [s1 + 0x68]\n 28375: t0 = u64 [s1 + 0x60]\n 28378: t1 = u64 [s1 + 0x58]\n 28381: ra = u64 [s1 + 0x50]\n 28384: fallthrough\n      : @1094 (gas: 23)\n 28385: a0 = u64 [s1 + 0x70]\n 28388: u64 [s1 + 0x160] = a0\n 28392: u64 [s1 + 0x180] = a3\n 28396: a3 = u64 [s1 + 0x80]\n 28400: u64 [s1 + 0x1a0] = a3\n 28404: u64 [s1 + 0x1c0] = a1\n 28408: a3 = u64 [s1 + 0x78]\n 28411: u64 [s1 + 0x168] = a3\n 28415: u64 [s1 + 0x188] = a2\n 28419: a2 = u64 [s1 + 0x88]\n 28423: u64 [s1 + 0x1a8] = a2\n 28427: u64 [s1 + 0x1c8] = t0\n 28431: u64 [s1 + 0x170] = a5\n 28435: u64 [s1 + 0x190] = t2\n 28439: a1 = u64 [s1 + 0x90]\n 28443: u64 [s1 + 0x1b0] = a1\n 28447: u64 [s1 + 0x1d0] = t1\n 28451: u64 [s1 + 0x178] = a4\n 28455: a0 = u64 [s1 + 0x38]\n 28458: u64 [s1 + 0x198] = a0\n 28462: a0 = u64 [s1 + 0x98]\n 28466: u64 [s1 + 0x1b8] = a0\n 28470: t0 = 1358, jump @2363\n      : @1095 [@dyn 679] (gas: 2)\n 28477: u64 [s1 + 0x1d8] = ra\n 28481: ra = 1360, jump @1858\n      : @1096 [@dyn 680] (gas: 1)\n 28487: t0 = 1362, jump @2340\n      : @1097 [@dyn 681] (gas: 1)\n 28494: jump @1099 if a4 != 0\n      : @1098 (gas: 5)\n 28497: u64 [s1 + 128] = 0\n 28501: u64 [s1 + 136] = 0\n 28505: u64 [s1 + 152] = 0\n 28509: u64 [s1 + 144] = 0\n 28513: jump @1106\n      : @1099 (gas: 1)\n 28516: t0 = 1364, jump @2319\n      : @1100 [@dyn 682] (gas: 1)\n 28523: ra = 1366, jump @764\n      : @1101 [@dyn 683] (gas: 24)\n 28529: a2 = s1 + 0x100\n 28533: a0 = u64 [a2 + 0x58]\n 28536: u64 [s1 + 0x90] = a0\n 28540: a0 = u64 [a2 + 0x50]\n 28543: u64 [s1 + 0x88] = a0\n 28547: a0 = u64 [a2 + 0x48]\n 28550: u64 [s1 + 0x78] = a0\n 28553: a0 = u64 [a2 + 0x40]\n 28556: u64 [s1 + 0x80] = a0\n 28560: a0 = sp + 0xffffffffffffffe0\n 28563: a0 = a0 & 0xffffffffffffffe0\n 28566: u64 [s1 + 0x98] = a0\n 28570: sp = a0\n 28572: a0 = u64 [s1 + 0x50]\n 28575: u64 [a2 + 0x18] = a0\n 28578: a0 = u64 [s1 + 0x58]\n 28581: u64 [a2 + 0x10] = a0\n 28584: a0 = u64 [s1 + 0x60]\n 28587: u64 [a2 + 0x8] = a0\n 28590: a1 = s1 + 0x100\n 28594: a0 = u64 [s1 + 0x68]\n 28597: u64 [a2] = a0\n 28599: a0 = 0\n 28601: ra = 1368, jump @24\n      : @1102 [@dyn 684] (gas: 3)\n 28607: a2 = u64 [s1 + 0x48]\n 28610: a0 = i32 [a2]\n 28612: jump @1104 if a0 >u 31\n      : @1103 (gas: 2)\n 28616: u32 [a2 + 0] = 0x20\n 28619: fallthrough\n      : @1104 (gas: 44)\n 28620: a0 = sp + 0xffffffffffffffe0\n 28623: a0 = a0 & 0xffffffffffffffe0\n 28626: u64 [s1 + 0x70] = a0\n 28629: sp = a0\n 28631: i32 a2 = a0 + 0\n 28633: a1 = 0x20\n 28636: a0 = u64 [s1 + 0x40]\n 28639: ecalli 11 // 'hash_keccak_256'\n 28641: a3 = u64 [s1 + 0x70]\n 28644: a0 = u64 [a3]\n 28646: a1 = u64 [a3 + 0x8]\n 28649: a2 = u64 [a3 + 0x18]\n 28652: a3 = u64 [a3 + 0x10]\n 28655: t0 = reverse a0\n 28657: a1 = reverse a1\n 28659: a2 = reverse a2\n 28661: a3 = reverse a3\n 28663: a4 = u64 [s1 + 0x78]\n 28666: a4 = a4 + a3\n 28669: a5 = u64 [s1 + 0x80]\n 28673: a5 = a5 + a2\n 28676: a2 = a5 <u a2\n 28679: a4 = a4 + a2\n 28682: a0 = a4 ^ a3\n 28685: a3 = a4 <u a3\n 28688: a3 = a2 if a0 == 0\n 28691: a0 = u64 [s1 + 0x88]\n 28695: a0 = a0 + a1\n 28698: a3 = a3 + a0\n 28701: t1 = a3 <u a0\n 28704: a2 = u64 [s1 + 0x90]\n 28708: t0 = t0 + a2\n 28711: a0 = a0 <u a1\n 28714: a0 = a0 + t0\n 28717: a0 = a0 + t1\n 28720: a1 = u64 [s1 + 0x98]\n 28724: u64 [a1] = a5\n 28726: u64 [a1 + 0x8] = a4\n 28729: u64 [a1 + 0x10] = a3\n 28732: u64 [a1 + 0x18] = a0\n 28735: a0 = s1 + 0xe0\n 28739: ra = 0x55a\n 28743: t0 = 0x6\n 28746: jump @2259\n      : @1105 [@dyn 685] (gas: 18)\n 28750: a0 = u64 [s1 + 0xf8]\n 28754: a1 = u64 [s1 + 0xf0]\n 28758: a2 = u16 [s1 + 0xe6]\n 28762: a3 = u64 [s1 + 0xe8]\n 28766: a4 = a0 << 0x10\n 28769: a5 = a1 >> 0x30\n 28772: a4 = a4 | a5\n 28775: u64 [s1 + 0x98] = a4\n 28779: a1 = a1 << 0x10\n 28782: a4 = a3 >> 0x30\n 28785: a1 = a1 | a4\n 28788: u64 [s1 + 0x88] = a1\n 28792: a3 = a3 << 0x10\n 28795: a2 = a2 | a3\n 28798: u64 [s1 + 0x80] = a2\n 28802: a0 = a0 >> 0x30\n 28805: u64 [s1 + 0x90] = a0\n 28809: fallthrough\n      : @1106 (gas: 3)\n 28810: a0 = s1 + 0xc0\n 28814: a1 = 0x40\n 28817: ra = 1372, jump @22\n      : @1107 [@dyn 686] (gas: 5)\n 28823: a0 = u64 [s1 + 0xd8]\n 28827: a1 = u64 [s1 + 0xd0]\n 28831: a2 = u64 [s1 + 0xc8]\n 28835: a3 = u64 [s1 + 0xc0]\n 28839: t0 = 1374, jump @2244\n      : @1108 [@dyn 687] (gas: 1)\n 28846: jump @1123 if a0 == 0\n      : @1109 (gas: 1)\n 28850: trap\n      : @1110 (gas: 29)\n 28851: a0 = u64 [s1 + 0x28]\n 28854: a0 = a0 - a4\n 28857: a1 = a0 - a5\n 28860: u64 [s1 + 0x18] = a1\n 28863: a0 = a0 <u a5\n 28866: a1 = u64 [s1 + 0x30]\n 28869: a1 = a1 - a2\n 28872: a1 = a1 - t2\n 28875: a1 = a1 - a0\n 28878: u64 [s1 + 0x20] = a1\n 28881: a0 = u64 [s1 + 0x78]\n 28884: a0 = a0 - ra\n 28887: a0 = a0 - t1\n 28890: u64 [s1 + 0x10] = a0\n 28893: a0 = u64 [s1 + 0x70]\n 28896: a0 = a0 - t0\n 28899: u64 [s1 + 0x8] = a0\n 28902: a0 = u64 [s1 + 0x68]\n 28905: a2 = s1 + 0x200\n 28909: u64 [a2 + 0x60] = a0\n 28912: a0 = u64 [s1 + 0x60]\n 28915: u64 [a2 + 0x68] = a0\n 28918: a0 = u64 [s1 + 0x58]\n 28921: u64 [a2 + 0x70] = a0\n 28924: a1 = s1 + 0x260\n 28928: a0 = u64 [s1 + 0x50]\n 28931: u64 [a2 + 0x78] = a0\n 28934: a0 = 0\n 28936: ra = 1376, jump @24\n      : @1111 [@dyn 688] (gas: 3)\n 28942: a2 = u64 [s1 + 0x48]\n 28945: a0 = i32 [a2]\n 28947: jump @1113 if a0 >u 31\n      : @1112 (gas: 2)\n 28951: u32 [a2 + 0] = 0x20\n 28954: fallthrough\n      : @1113 (gas: 10)\n 28955: a0 = sp + 0xffffffffffffffe0\n 28958: a0 = a0 & 0xffffffffffffffe0\n 28961: u64 [s1 + 0x38] = a0\n 28964: sp = a0\n 28966: i32 a2 = a0 + 0\n 28968: a1 = 0x20\n 28971: a0 = u64 [s1 + 0x40]\n 28974: ra = 0x562\n 28978: ecalli 11 // 'hash_keccak_256'\n 28980: fallthrough\n      : @1114 [@dyn 689] (gas: 22)\n 28981: a2 = u64 [s1 + 0x38]\n 28984: a0 = u64 [a2 + 0x18]\n 28987: a1 = u64 [a2 + 0x10]\n 28990: t0 = u64 [a2 + 0x8]\n 28993: a3 = u64 [a2]\n 28995: a0 = reverse a0\n 28997: a1 = reverse a1\n 28999: a4 = u64 [s1 + 0x10]\n 29002: a4 = a4 + a1\n 29005: a5 = u64 [s1 + 0x8]\n 29008: a5 = a5 + a0\n 29011: a0 = a5 <u a0\n 29014: a4 = a4 + a0\n 29017: a2 = a4 ^ a1\n 29020: a1 = a4 <u a1\n 29023: a1 = a0 if a2 == 0\n 29026: t1 = reverse a3\n 29028: a2 = reverse t0\n 29030: a3 = u64 [s1 + 0x18]\n 29033: a3 = a3 + a2\n 29036: a0 = u64 [s1 + 0x20]\n 29039: t0 = 1380, jump @2366\n      : @1115 [@dyn 690] (gas: 9)\n 29046: u64 [a2 + 0xc0] = a5\n 29050: u64 [a2 + 0xc8] = a4\n 29054: u64 [a2 + 0xd0] = a1\n 29058: u64 [a2 + 0xd8] = a0\n 29062: a0 = s1 + 0x240\n 29066: a1 = s1 + 0x3c0\n 29070: ra = 0x566\n 29074: t0 = 0x6\n 29077: jump @2259\n      : @1116 [@dyn 691] (gas: 12)\n 29081: a0 = u64 [s1 + 0x240]\n 29085: a0 = a0 << 0x10\n 29088: a0 = a0 >> 0x10\n 29091: a1 = u64 [s1 + 0x98]\n 29095: a2 = u64 [s1 + 0x90]\n 29099: a1 = a1 | a2\n 29102: a2 = u64 [s1 + 0x80]\n 29106: a0 = a2 <u a0\n 29109: a2 = u64 [s1 + 0x88]\n 29113: a0 = 0 if a2 != 0\n 29115: a0 = 0 if a1 != 0\n 29117: jump @1118 if a0 == 0\n      : @1117 (gas: 11)\n 29120: a3 = 0\n 29122: a2 = 0\n 29124: t2 = 0\n 29126: u64 [s1 + 56] = 0\n 29129: a0 = u64 [s1 + 0x8]\n 29132: u64 [s1 + 0x70] = a0\n 29135: a0 = u64 [s1 + 0x10]\n 29138: u64 [s1 + 0x78] = a0\n 29141: a5 = u64 [s1 + 0x18]\n 29144: a4 = u64 [s1 + 0x20]\n 29147: jump @1093\n      : @1118 (gas: 11)\n 29150: a0 = u64 [s1 + 0x8]\n 29153: u64 [s1 + 0x200] = a0\n 29157: a0 = u64 [s1 + 0x10]\n 29160: u64 [s1 + 0x208] = a0\n 29164: a0 = u64 [s1 + 0x18]\n 29167: u64 [s1 + 0x210] = a0\n 29171: a0 = s1 + 0x220\n 29175: a1 = s1 + 0x200\n 29179: a2 = u64 [s1 + 0x20]\n 29182: u64 [s1 + 0x218] = a2\n 29186: ra = 1384, jump @1718\n      : @1119 [@dyn 692] (gas: 13)\n 29192: a1 = s1 + 0x200\n 29196: a0 = u64 [a1 + 0x38]\n 29199: u64 [s1 + 0x38] = a0\n 29202: t2 = u64 [s1 + 0x230]\n 29206: a2 = u64 [a1 + 0x28]\n 29209: a3 = u64 [a1 + 0x20]\n 29212: a1 = u64 [s1 + 0x68]\n 29215: t0 = u64 [s1 + 0x60]\n 29218: t1 = u64 [s1 + 0x58]\n 29221: ra = u64 [s1 + 0x50]\n 29224: a4 = u64 [s1 + 0x30]\n 29227: a5 = u64 [s1 + 0x28]\n 29230: jump @1094\n      : @1120 (gas: 2)\n 29233: a1 = 0x20160\n 29238: jump @1122\n      : @1121 (gas: 2)\n 29240: a1 = 0x20160\n 29245: fallthrough\n      : @1122 (gas: 5)\n 29246: i32 a1 = a1 + 0\n 29248: a0 = 0x1\n 29251: a2 = 0\n 29253: ecalli 16 // 'seal_return'\n 29255: fallthrough\n      : @1123 (gas: 12)\n 29256: a0 = u64 [s1 + 0x80]\n 29260: u64 [s1 + 0xa0] = a0\n 29264: a0 = u64 [s1 + 0x88]\n 29268: u64 [s1 + 0xa8] = a0\n 29272: a0 = u64 [s1 + 0x98]\n 29276: u64 [s1 + 0xb0] = a0\n 29280: a1 = s1 + 0xa0\n 29284: a0 = u64 [s1 + 0x90]\n 29288: u64 [s1 + 0xb8] = a0\n 29292: a0 = a3\n 29294: u64 [s1 + 0x98] = a3\n 29298: ra = 1386, jump @24\n      : @1124 [@dyn 693] (gas: 3)\n 29304: a1 = 0x20\n 29307: a0 = u64 [s1 + 0x98]\n 29311: ra = 1388, jump @37\n      : @1125 [@dyn 694] (gas: 1)\n 29317: t0 = 1390, jump @2280\n      : @1126 [@dyn 695] (gas: 3)\n 29324: ra = 0x570\n 29328: ecalli 16 // 'seal_return'\n 29330: fallthrough\n      : @1127 [@dyn 696] (gas: 18)\n 29331: sp = sp + 0xfffffffffffffd60\n 29335: a0 = sp + 0x200\n 29339: u64 [a0 + 0x98] = ra\n 29343: u64 [a0 + 0x90] = s0\n 29347: u64 [a0 + 0x88] = s1\n 29351: s0 = sp + 0x2a0\n 29355: sp = sp & 0xffffffffffffffe0\n 29358: a0 = sp + 0x200\n 29362: u64 [a0 + 56] = 0\n 29365: u64 [a0 + 48] = 0\n 29368: u64 [a0 + 40] = 0\n 29371: u64 [a0 + 32] = 0\n 29374: i32 a0 = sp + 0x220\n 29378: ra = 0x572\n 29382: ecalli 19 // 'value_transferred'\n 29384: a4 = sp + 0x200\n 29388: t0 = 0x574\n 29392: jump @2348\n      : @1128 [@dyn 697] (gas: 2)\n 29396: a4 = sp + 0x200\n 29400: t0 = 1396, jump @2348\n      : @1129 [@dyn 698] (gas: 1)\n 29407: jump @1147 if a0 != 0\n      : @1130 (gas: 2)\n 29411: a0 = i32 [0x2014c]\n 29416: jump @1148 if a0 <=u 3\n      : @1131 (gas: 20)\n 29421: i32 a0 = sp + 0x240\n 29425: ecalli 1 // 'block_number'\n 29427: a4 = sp + 0x200\n 29431: a2 = u64 [a4 + 0x40]\n 29434: u64 [sp + 0x20] = a2\n 29437: a1 = u64 [a4 + 0x48]\n 29440: u64 [sp + 0x28] = a1\n 29443: a0 = u64 [a4 + 0x50]\n 29446: u64 [sp + 0x38] = a0\n 29449: a3 = u64 [a4 + 0x58]\n 29452: u64 [sp + 0x30] = a3\n 29455: u64 [sp + 0x1f8] = a3\n 29459: u64 [sp + 0x1f0] = a0\n 29463: u64 [sp + 0x1e8] = a1\n 29467: a0 = sp + 0x200\n 29471: a1 = sp + 0x1e0\n 29475: u64 [sp + 0x1e0] = a2\n 29479: ra = 0x576\n 29483: t0 = 0x884\n 29487: jump @2372\n      : @1132 [@dyn 699] (gas: 19)\n 29491: i32 a0 = sp + 0x260\n 29495: ecalli 1 // 'block_number'\n 29497: a3 = sp + 0x200\n 29501: a2 = u64 [a3 + 0x60]\n 29504: u64 [sp + 0x8] = a2\n 29507: a1 = u64 [a3 + 0x68]\n 29510: u64 [sp + 0x10] = a1\n 29513: a0 = u64 [a3 + 0x70]\n 29516: u64 [sp + 0x18] = a0\n 29519: s1 = u64 [a3 + 0x78]\n 29522: u64 [sp + 0x1b8] = s1\n 29526: u64 [sp + 0x1b0] = a0\n 29530: u64 [sp + 0x1a8] = a1\n 29534: a0 = sp + 0x1c0\n 29538: a1 = sp + 0x1a0\n 29542: u64 [sp + 0x1a0] = a2\n 29546: ra = 0x578\n 29550: t0 = 0x884\n 29554: jump @2372\n      : @1133 [@dyn 700] (gas: 15)\n 29558: a0 = u64 [sp + 0x30]\n 29561: a0 = a0 ^ s1\n 29564: a1 = u64 [sp + 0x28]\n 29567: a2 = u64 [sp + 0x10]\n 29570: a1 = a1 ^ a2\n 29573: a0 = a0 | a1\n 29576: a1 = u64 [sp + 0x38]\n 29579: a2 = u64 [sp + 0x18]\n 29582: a1 = a1 ^ a2\n 29585: a2 = u64 [sp + 0x20]\n 29588: a3 = u64 [sp + 0x8]\n 29591: a2 = a2 ^ a3\n 29594: a1 = a1 | a2\n 29597: a0 = a0 | a1\n 29600: jump @1150 if a0 != 0\n      : @1134 (gas: 3)\n 29604: a0 = sp + 0x160\n 29608: a1 = 0x40\n 29611: ra = 1402, jump @22\n      : @1135 [@dyn 701] (gas: 18)\n 29617: a0 = u64 [sp + 0x178]\n 29621: u64 [sp + 0x30] = a0\n 29624: a2 = u64 [sp + 0x170]\n 29628: u64 [sp + 0x38] = a2\n 29631: a1 = u64 [sp + 0x168]\n 29635: u64 [sp + 0x28] = a1\n 29638: s1 = u64 [sp + 0x160]\n 29642: u64 [sp + 312] = 0\n 29646: u64 [sp + 304] = 0\n 29650: u64 [sp + 296] = 0\n 29654: u64 [sp + 288] = 0x40\n 29659: u64 [sp + 0x158] = a0\n 29663: u64 [sp + 0x150] = a2\n 29667: u64 [sp + 0x148] = a1\n 29671: a0 = sp + 0x140\n 29675: a1 = sp + 0x120\n 29679: u64 [sp + 0x140] = s1\n 29683: ra = 1404, jump @149\n      : @1136 [@dyn 702] (gas: 12)\n 29689: a2 = u64 [sp + 0x38]\n 29692: a0 = u64 [sp + 0x30]\n 29695: a1 = u64 [sp + 0x28]\n 29698: a0 = a0 | a1\n 29701: u64 [sp + 0x20] = s1\n 29704: a1 = s1 | a2\n 29707: a1 = a1 | a0\n 29710: a1 = a1 >> 0x20\n 29713: a0 = a0 | a2\n 29716: a0 = a0 << 0x20\n 29719: a0 = a0 | a1\n 29722: jump @1146 if a0 != 0\n      : @1137 (gas: 8)\n 29726: u64 [sp + 280] = 0\n 29730: u64 [sp + 272] = 0\n 29734: u64 [sp + 264] = 0\n 29738: a1 = sp + 0x100\n 29742: u64 [sp + 256] = 0x1d\n 29747: s1 = u64 [sp + 0x20]\n 29750: a0 = s1\n 29752: ra = 1406, jump @24\n      : @1138 [@dyn 703] (gas: 3)\n 29758: a0 = u64 [sp + 0x38]\n 29761: a1 = u64 [sp + 0x30]\n 29764: t0 = 1408, jump @2349\n      : @1139 [@dyn 704] (gas: 4)\n 29771: s1 = u64 [sp + 0x28]\n 29774: a1 = 0 if s1 != 0\n 29776: a1 = 0 if a0 != 0\n 29778: jump @1146 if a1 == 0\n      : @1140 (gas: 12)\n 29782: a0 = u64 [sp + 0x20]\n 29785: i32 a0 = a0 + 0x20\n 29788: a1 = u64 [0x20080]\n 29793: a2 = u64 [0x20088]\n 29798: a3 = u64 [0x20090]\n 29803: u64 [sp + 0xf8] = a1\n 29807: u64 [sp + 0xf0] = a2\n 29811: u64 [sp + 0xe8] = a3\n 29815: a2 = 0x6661756c74000000\n 29825: a1 = sp + 0xe0\n 29829: u64 [sp + 0xe0] = a2\n 29833: ra = 1410, jump @24\n      : @1141 [@dyn 705] (gas: 3)\n 29839: a0 = sp + 0xc0\n 29843: a1 = 0x40\n 29846: ra = 1412, jump @22\n      : @1142 [@dyn 706] (gas: 12)\n 29852: a4 = u64 [sp + 0xd8]\n 29856: a5 = u64 [sp + 0xd0]\n 29860: a3 = u64 [sp + 0xc8]\n 29864: a0 = u64 [sp + 0xc0]\n 29868: a2 = a3 | a4\n 29871: a1 = a0 | a5\n 29874: a1 = a1 | a2\n 29877: a1 = a1 >> 0x20\n 29880: a2 = a2 | a5\n 29883: a2 = a2 << 0x20\n 29886: a1 = a1 | a2\n 29889: jump @1146 if a1 != 0\n      : @1143 (gas: 11)\n 29893: u64 [sp + 184] = 0\n 29897: u64 [sp + 176] = 0\n 29901: u64 [sp + 168] = 0\n 29905: a1 = sp + 0xa0\n 29909: u64 [sp + 160] = 0x20\n 29914: u64 [sp + 0x18] = a0\n 29917: u64 [sp + 0x8] = a3\n 29920: s1 = a4\n 29922: u64 [sp] = a4\n 29924: u64 [sp + 0x10] = a5\n 29927: ra = 1414, jump @24\n      : @1144 [@dyn 707] (gas: 28)\n 29933: a0 = u64 [sp + 0x18]\n 29936: a0 = a0 + 0x20\n 29939: a1 = u64 [sp + 0x18]\n 29942: a1 = a0 <u a1\n 29945: a3 = u64 [sp + 0x8]\n 29948: a2 = a3 + a1\n 29951: a3 = a2 <u a3\n 29954: a3 = a1 if a1 == 0\n 29957: a1 = u64 [sp + 0x10]\n 29960: a3 = a3 + a1\n 29963: a1 = a3 <u a1\n 29966: a4 = s1 + a1\n 29969: u64 [sp + 0x48] = a2\n 29972: u64 [sp + 0x40] = a0\n 29975: a0 = u64 [sp + 0x30]\n 29978: u64 [sp + 0x78] = a0\n 29981: a0 = u64 [sp + 0x38]\n 29984: u64 [sp + 0x70] = a0\n 29987: a0 = u64 [sp + 0x28]\n 29990: u64 [sp + 0x68] = a0\n 29993: a0 = u64 [sp + 0x20]\n 29996: u64 [sp + 0x60] = a0\n 29999: u64 [sp + 0x50] = a3\n 30002: a0 = sp + 0x80\n 30006: a1 = sp + 0x60\n 30009: a2 = sp + 0x40\n 30012: u64 [sp + 0x58] = a4\n 30015: ra = 1416, jump @855\n      : @1145 [@dyn 708] (gas: 33)\n 30021: a0 = u64 [sp + 0x88]\n 30025: t1 = u64 [sp + 0x98]\n 30029: a2 = u64 [sp + 0x80]\n 30033: a3 = u64 [sp + 0x90]\n 30037: s1 = u64 [sp + 0x8]\n 30040: a4 = a0 ^ s1\n 30043: a5 = a0 <u s1\n 30046: t0 = s1\n 30048: s1 = u64 [sp + 0x18]\n 30051: s1 = a2 <u s1\n 30054: a5 = s1 if a4 == 0\n 30057: a1 = u64 [sp + 0x10]\n 30060: a4 = a3 - a1\n 30063: a3 = a3 <u a1\n 30066: a1 = u64 [sp]\n 30068: a1 = t1 - a1\n 30071: a1 = a1 - a3\n 30074: a3 = a4 <u a5\n 30077: a1 = a1 - a3\n 30080: a4 = a4 - a5\n 30083: a0 = a0 - t0\n 30086: a3 = a0 - s1\n 30089: a0 = u64 [sp + 0x18]\n 30092: s1 = a2 - a0\n 30095: a0 = u64 [sp + 0x18]\n 30098: a3 = a3 | a1\n 30101: a1 = s1 | a4\n 30104: a1 = a1 | a3\n 30107: a3 = a3 | a4\n 30110: a1 = a1 >> 0x20\n 30113: a3 = a3 << 0x20\n 30116: a1 = a1 | a3\n 30119: jump @1154 if a1 == 0\n      : @1146 (gas: 1)\n 30122: trap\n      : @1147 (gas: 2)\n 30123: a1 = 0x20160\n 30128: jump @1149\n      : @1148 (gas: 2)\n 30130: a1 = 0x20160\n 30135: fallthrough\n      : @1149 (gas: 5)\n 30136: i32 a1 = a1 + 0\n 30138: a0 = 0x1\n 30141: a2 = 0\n 30143: ecalli 16 // 'seal_return'\n 30145: fallthrough\n      : @1150 (gas: 8)\n 30146: u64 [sp + 400] = 0\n 30150: u64 [sp + 392] = 0\n 30154: u64 [sp + 384] = 0\n 30158: a0 = 0x6ff0714000000000\n 30168: a1 = sp + 0x180\n 30172: u64 [sp + 0x198] = a0\n 30176: a0 = 0\n 30178: ra = 1418, jump @24\n      : @1151 [@dyn 709] (gas: 2)\n 30184: a1 = i32 [0x20150]\n 30189: jump @1153 if a1 >u 31\n      : @1152 (gas: 2)\n 30193: u32 [0x20150] = 0x20\n 30199: fallthrough\n      : @1153 (gas: 8)\n 30200: a1 = 0x20160\n 30205: i32 a1 = a1 + 0\n 30207: a0 = 0x1\n 30210: a2 = 0x4\n 30213: ecalli 16 // 'seal_return'\n 30215: a1 = s1\n 30217: ra = 0x58c\n 30221: jump @37\n      : @1154 (gas: 2)\n 30224: a1 = s1\n 30226: ra = 1420, jump @37\n      : @1155 [@dyn 710] (gas: 7)\n 30232: i32 a1 = a0 + 0\n 30234: i32 a2 = s1 + 0\n 30236: a0 = 0\n 30238: ra = 0x58e\n 30242: ecalli 16 // 'seal_return'\n 30244: t0 = 0x590\n 30248: jump @2291\n      : @1156 [@dyn 711] (gas: 1)\n 30252: t0 = 1424, jump @2291\n      : @1157 [@dyn 712] (gas: 2)\n 30259: ecalli 19 // 'value_transferred'\n 30261: fallthrough\n      : @1158 (gas: 8)\n 30262: a0 = u64 [s1 + 0xf0]\n 30266: a1 = u64 [s1 + 0xf8]\n 30270: a2 = u64 [s1 + 0xe8]\n 30274: a3 = u64 [s1 + 0xe0]\n 30278: a1 = a1 | a2\n 30281: a0 = a0 | a3\n 30284: a0 = a0 | a1\n 30287: jump @1173 if a0 != 0\n      : @1159 (gas: 3)\n 30291: a0 = i32 [0x2014c]\n 30296: a1 = 0x23\n 30299: jump @1174 if a1 >=u a0\n      : @1160 (gas: 4)\n 30303: a0 = s1 + 0xc0\n 30307: ra = 0x592\n 30311: t0 = 0x484\n 30315: jump @2251\n      : @1161 [@dyn 713] (gas: 1)\n 30318: t0 = 1428, jump @2320\n      : @1162 [@dyn 714] (gas: 1)\n 30325: ra = 1430, jump @24\n      : @1163 [@dyn 715] (gas: 7)\n 30331: u64 [s1 + 152] = 0\n 30335: u64 [s1 + 144] = 0\n 30339: u64 [s1 + 128] = 0x8\n 30344: a0 = 0x20\n 30347: a1 = s1 + 0x80\n 30351: u64 [s1 + 136] = 0\n 30355: ra = 1432, jump @24\n      : @1164 [@dyn 716] (gas: 2)\n 30361: a1 = i32 [0x20150]\n 30366: jump @1166 if a1 >u 63\n      : @1165 (gas: 4)\n 30370: a1 = 0x40\n 30373: u32 [0x20150] = a1\n 30378: t0 = 0x59a\n 30382: jump @2282\n      : @1166 (gas: 1)\n 30386: t0 = 1434, jump @2282\n      : @1167 [@dyn 717] (gas: 8)\n 30393: a0 = 0x20160\n 30398: i32 a0 = a0 + 0\n 30400: i32 a2 = a2 + 0\n 30402: a1 = 0x40\n 30405: ra = 0x59c\n 30409: ecalli 11 // 'hash_keccak_256'\n 30411: t0 = 0x59e\n 30415: jump @2246\n      : @1168 [@dyn 718] (gas: 1)\n 30418: t0 = 1438, jump @2246\n      : @1169 [@dyn 719] (gas: 3)\n 30424: ra = 0x5a0\n 30428: t0 = 0x6\n 30431: jump @2259\n      : @1170 [@dyn 720] (gas: 9)\n 30434: a0 = u64 [s1 + 0x70]\n 30437: u64 [s1 + 0x8] = a0\n 30440: a0 = u64 [s1 + 0x68]\n 30443: u64 [s1 + 0x10] = a0\n 30446: a0 = u64 [s1 + 0x60]\n 30449: u64 [s1 + 0x18] = a0\n 30452: a0 = s1 + 0x40\n 30455: a1 = 0x40\n 30458: ra = 1442, jump @22\n      : @1171 [@dyn 721] (gas: 12)\n 30464: a3 = u64 [s1 + 0x58]\n 30467: a1 = u64 [s1 + 0x50]\n 30470: a2 = u64 [s1 + 0x48]\n 30473: a0 = u64 [s1 + 0x40]\n 30476: a3 = a3 | a2\n 30479: a2 = a0 | a1\n 30482: a2 = a2 | a3\n 30485: a2 = a2 >> 0x20\n 30488: a1 = a1 | a3\n 30491: a1 = a1 << 0x20\n 30494: a1 = a1 | a2\n 30497: jump @1176 if a1 == 0\n      : @1172 (gas: 1)\n 30500: trap\n      : @1173 (gas: 2)\n 30501: a1 = 0x20160\n 30506: jump @1175\n      : @1174 (gas: 2)\n 30508: a1 = 0x20160\n 30513: fallthrough\n      : @1175 (gas: 5)\n 30514: i32 a1 = a1 + 0\n 30516: a0 = 0x1\n 30519: a2 = 0\n 30521: ecalli 16 // 'seal_return'\n 30523: fallthrough\n      : @1176 (gas: 14)\n 30524: a1 = 0xffffffff\n 30534: a2 = u64 [s1 + 0x8]\n 30537: a2 = a2 & a1\n 30540: a1 = u64 [s1 + 0x10]\n 30543: a1 = a1 & 0xffffffffffffffff\n 30546: a4 = u64 [s1 + 0x18]\n 30549: a3 = a4 & 0xffffffffffffffff\n 30552: u64 [s1 + 56] = 0\n 30555: u64 [s1 + 0x20] = a3\n 30558: u64 [s1 + 0x28] = a1\n 30561: a1 = s1 + 0x20\n 30564: u64 [s1 + 0x30] = a2\n 30567: u64 [s1 + 0x18] = a0\n 30570: ra = 1444, jump @24\n      : @1177 [@dyn 722] (gas: 3)\n 30576: a1 = 0x20\n 30579: a0 = u64 [s1 + 0x18]\n 30582: ra = 1446, jump @37\n      : @1178 [@dyn 723] (gas: 1)\n 30588: t0 = 1448, jump @2280\n      : @1179 [@dyn 724] (gas: 3)\n 30595: ra = 0x5aa\n 30599: ecalli 16 // 'seal_return'\n 30601: fallthrough\n      : @1180 [@dyn 725] (gas: 13)\n 30602: sp = sp + 0xffffffffffffff40\n 30606: u64 [sp + 0xb8] = ra\n 30610: u64 [sp + 0xb0] = s0\n 30614: u64 [sp + 0xa8] = s1\n 30618: s0 = sp + 0xc0\n 30622: sp = sp & 0xffffffffffffffe0\n 30625: u64 [sp + 152] = 0\n 30629: u64 [sp + 144] = 0\n 30633: u64 [sp + 136] = 0\n 30637: u64 [sp + 128] = 0\n 30641: i32 a0 = sp + 0x80\n 30645: ecalli 19 // 'value_transferred'\n 30647: fallthrough\n      : @1181 (gas: 8)\n 30648: a0 = u64 [sp + 0x90]\n 30652: a1 = u64 [sp + 0x98]\n 30656: a2 = u64 [sp + 0x88]\n 30660: a3 = u64 [sp + 0x80]\n 30664: a1 = a1 | a2\n 30667: a0 = a0 | a3\n 30670: a0 = a0 | a1\n 30673: jump @1183 if a0 == 0\n      : @1182 (gas: 6)\n 30676: a1 = 0x20160\n 30681: i32 a1 = a1 + 0\n 30683: a0 = 0x1\n 30686: a2 = 0\n 30688: ecalli 16 // 'seal_return'\n 30690: jump @1185\n      : @1183 (gas: 3)\n 30692: a0 = i32 [0x2014c]\n 30697: a1 = 0x23\n 30700: jump @1185 if a1 <u a0\n      : @1184 (gas: 6)\n 30703: a1 = 0x20160\n 30708: i32 a1 = a1 + 0\n 30710: a0 = 0x1\n 30713: a2 = 0\n 30715: ecalli 16 // 'seal_return'\n 30717: fallthrough\n      : @1185 (gas: 4)\n 30718: a0 = sp + 0x60\n 30721: ra = 0x5ac\n 30725: t0 = 0x484\n 30729: jump @2251\n      : @1186 [@dyn 726] (gas: 14)\n 30732: a0 = u64 [sp + 0x60]\n 30735: u64 [sp + 0x18] = a0\n 30738: a0 = u64 [sp + 0x68]\n 30741: u64 [sp + 0x10] = a0\n 30744: a0 = u64 [sp + 0x70]\n 30747: u64 [sp + 0x8] = a0\n 30750: a0 = u64 [sp + 0x78]\n 30753: u64 [sp] = a0\n 30755: s1 = 0x30160\n 30760: i32 a0 = s1 + 0\n 30762: ra = 0x5ae\n 30766: ecalli 6 // 'caller'\n 30768: t0 = 0x5b0\n 30772: jump @2267\n      : @1187 [@dyn 727] (gas: 1)\n 30775: t0 = 1456, jump @2267\n      : @1188 [@dyn 728] (gas: 14)\n 30781: u64 [sp + 0x38] = a2\n 30784: a2 = u64 [sp + 0x8]\n 30787: u64 [sp + 0x30] = a2\n 30790: a2 = u64 [sp + 0x10]\n 30793: u64 [sp + 0x28] = a2\n 30796: a2 = u64 [sp + 0x18]\n 30799: u64 [sp + 0x20] = a2\n 30802: u64 [sp + 88] = 0\n 30805: u64 [sp + 0x50] = a1\n 30808: u64 [sp + 0x48] = a0\n 30811: a0 = sp + 0x40\n 30814: a1 = sp + 0x20\n 30817: u64 [sp + 0x40] = a3\n 30820: ra = 1458, jump @1725\n      : @1189 [@dyn 729] (gas: 6)\n 30826: a1 = 0x20160\n 30831: i32 a1 = a1 + 0\n 30833: a0 = 0\n 30835: a2 = 0\n 30837: ecalli 16 // 'seal_return'\n 30839: jump @1185\n      : @1190 (gas: 9)\n 30841: a4 = s1 + 0x100\n 30845: a0 = u64 [a4 + 0x70]\n 30848: a1 = u64 [a4 + 0x78]\n 30851: a2 = u64 [a4 + 0x68]\n 30854: a3 = u64 [a4 + 0x60]\n 30857: a1 = a1 | a2\n 30860: a0 = a0 | a3\n 30863: a0 = a0 | a1\n 30866: jump @1206 if a0 != 0\n      : @1191 (gas: 3)\n 30870: a0 = i32 [0x2014c]\n 30875: a1 = 0x23\n 30878: jump @1207 if a1 >=u a0\n      : @1192 (gas: 4)\n 30882: a0 = s1 + 0x140\n 30886: ra = 0x5b4\n 30890: t0 = 0x484\n 30894: jump @2251\n      : @1193 [@dyn 730] (gas: 10)\n 30897: a0 = u64 [s1 + 0x140]\n 30901: a1 = u64 [s1 + 0x148]\n 30905: a2 = u32 [s1 + 0x150]\n 30909: u64 [s1 + 312] = 0\n 30913: u64 [s1 + 0x130] = a2\n 30917: u64 [s1 + 0x128] = a1\n 30921: a1 = s1 + 0x120\n 30925: u64 [s1 + 0x120] = a0\n 30929: a0 = 0\n 30931: ra = 1462, jump @24\n      : @1194 [@dyn 731] (gas: 4)\n 30937: u64 [s1 + 280] = 0\n 30941: u64 [s1 + 272] = 0\n 30945: a0 = 0x9\n 30948: t0 = 1464, jump @2289\n      : @1195 [@dyn 732] (gas: 1)\n 30955: ra = 1466, jump @24\n      : @1196 [@dyn 733] (gas: 3)\n 30961: a2 = 0x20150\n 30966: a0 = i32 [0x20150]\n 30971: jump @1198 if a0 >u 63\n      : @1197 (gas: 2)\n 30975: u32 [0x20150] = 0x40\n 30981: fallthrough\n      : @1198 (gas: 14)\n 30982: u64 [s1 + 0x30] = a2\n 30985: a0 = sp + 0xffffffffffffffe0\n 30988: a2 = a0 & 0xffffffffffffffe0\n 30991: u64 [s1 + 0x38] = a2\n 30994: sp = a2\n 30996: a0 = 0x20160\n 31001: i32 a0 = a0 + 0\n 31003: i32 a2 = a2 + 0\n 31005: a1 = 0x40\n 31008: u64 [s1 + 0x28] = a0\n 31011: ra = 0x5bc\n 31015: ecalli 11 // 'hash_keccak_256'\n 31017: t0 = 0x5be\n 31021: jump @2249\n      : @1199 [@dyn 734] (gas: 1)\n 31024: t0 = 1470, jump @2249\n      : @1200 [@dyn 735] (gas: 10)\n 31030: a4 = s1 + 0x100\n 31034: u64 [a4 + 0x98] = a3\n 31038: u64 [a4 + 0x90] = a2\n 31042: u64 [a4 + 0x88] = a1\n 31046: u64 [a4 + 0x80] = a0\n 31050: a0 = s1 + 0xe0\n 31054: a1 = s1 + 0x180\n 31058: ra = 0x5c0\n 31062: t0 = 0x6\n 31065: jump @2259\n      : @1201 [@dyn 736] (gas: 16)\n 31068: a0 = u64 [s1 + 0xf8]\n 31072: a2 = u64 [s1 + 0xf0]\n 31076: a3 = u64 [s1 + 0xe8]\n 31080: a1 = u64 [s1 + 0xe0]\n 31084: u64 [s1 + 0x38] = a0\n 31087: u64 [s1 + 0x10] = a3\n 31090: a0 = a0 | a3\n 31093: u64 [s1 + 0x20] = a1\n 31096: a1 = a1 | a2\n 31099: a1 = a1 | a0\n 31102: a1 = a1 >> 0x20\n 31105: u64 [s1 + 0x18] = a2\n 31108: a0 = a0 | a2\n 31111: a0 = a0 << 0x20\n 31114: a0 = a0 | a1\n 31117: jump @1209 if a0 != 0\n      : @1202 (gas: 3)\n 31120: a0 = s1 + 0xc0\n 31124: a1 = 0x40\n 31127: ra = 1474, jump @22\n      : @1203 [@dyn 737] (gas: 5)\n 31133: a0 = u64 [s1 + 0xd8]\n 31137: a1 = u64 [s1 + 0xd0]\n 31141: a2 = u64 [s1 + 0xc8]\n 31145: a3 = u64 [s1 + 0xc0]\n 31149: t0 = 1476, jump @2244\n      : @1204 [@dyn 738] (gas: 1)\n 31155: jump @1215 if a0 == 0\n      : @1205 (gas: 1)\n 31159: trap\n      : @1206 (gas: 2)\n 31160: a1 = 0x20160\n 31165: jump @1208\n      : @1207 (gas: 2)\n 31167: a1 = 0x20160\n 31172: fallthrough\n      : @1208 (gas: 5)\n 31173: i32 a1 = a1 + 0\n 31175: a0 = 0x1\n 31178: a2 = 0\n 31180: ecalli 16 // 'seal_return'\n 31182: fallthrough\n      : @1209 (gas: 8)\n 31183: u64 [s1 + 144] = 0\n 31187: u64 [s1 + 136] = 0\n 31191: u64 [s1 + 128] = 0\n 31195: a0 = 0x6dfcc65000000000\n 31205: a1 = s1 + 0x80\n 31209: u64 [s1 + 0x98] = a0\n 31213: a0 = 0\n 31215: ra = 1478, jump @24\n      : @1210 [@dyn 739] (gas: 7)\n 31221: u64 [s1 + 120] = 0\n 31224: u64 [s1 + 112] = 0\n 31227: u64 [s1 + 96] = 0x20\n 31231: a0 = 0x4\n 31234: a1 = s1 + 0x60\n 31237: u64 [s1 + 104] = 0\n 31240: ra = 1480, jump @24\n      : @1211 [@dyn 740] (gas: 11)\n 31246: a0 = u64 [s1 + 0x38]\n 31249: u64 [s1 + 0x58] = a0\n 31252: a0 = u64 [s1 + 0x18]\n 31255: u64 [s1 + 0x50] = a0\n 31258: a0 = u64 [s1 + 0x10]\n 31261: u64 [s1 + 0x48] = a0\n 31264: a0 = 0x24\n 31267: a1 = s1 + 0x40\n 31270: a2 = u64 [s1 + 0x20]\n 31273: u64 [s1 + 0x40] = a2\n 31276: ra = 1482, jump @24\n      : @1212 [@dyn 741] (gas: 3)\n 31282: a0 = u64 [s1 + 0x30]\n 31285: a0 = i32 [a0]\n 31287: jump @1214 if a0 >u 95\n      : @1213 (gas: 3)\n 31291: a1 = u64 [s1 + 0x30]\n 31294: u32 [a1 + 0] = 0x60\n 31297: fallthrough\n      : @1214 (gas: 5)\n 31298: a0 = 0x1\n 31301: a2 = 0x44\n 31304: a1 = u64 [s1 + 0x28]\n 31307: ecalli 16 // 'seal_return'\n 31309: fallthrough\n      : @1215 (gas: 12)\n 31310: a0 = u64 [s1 + 0x20]\n 31313: u64 [s1 + 0xa0] = a0\n 31317: a0 = u64 [s1 + 0x10]\n 31320: u64 [s1 + 0xa8] = a0\n 31324: a0 = u64 [s1 + 0x18]\n 31327: u64 [s1 + 0xb0] = a0\n 31331: a1 = s1 + 0xa0\n 31335: a0 = u64 [s1 + 0x38]\n 31338: u64 [s1 + 0xb8] = a0\n 31342: a0 = a3\n 31344: u64 [s1 + 0x38] = a3\n 31347: ra = 1484, jump @24\n      : @1216 [@dyn 742] (gas: 3)\n 31353: a1 = 0x20\n 31356: a0 = u64 [s1 + 0x38]\n 31359: ra = 1486, jump @37\n      : @1217 [@dyn 743] (gas: 1)\n 31365: t0 = 1488, jump @2280\n      : @1218 [@dyn 744] (gas: 3)\n 31371: ra = 0x5d2\n 31375: ecalli 16 // 'seal_return'\n 31377: fallthrough\n      : @1219 [@dyn 745] (gas: 13)\n 31378: sp = sp + 0xffffffffffffff00\n 31382: u64 [sp + 0xf8] = ra\n 31386: u64 [sp + 0xf0] = s0\n 31390: u64 [sp + 0xe8] = s1\n 31394: s0 = sp + 0x100\n 31398: sp = sp & 0xffffffffffffffe0\n 31401: u64 [sp + 216] = 0\n 31405: u64 [sp + 208] = 0\n 31409: u64 [sp + 200] = 0\n 31413: u64 [sp + 192] = 0\n 31417: i32 a0 = sp + 0xc0\n 31421: ecalli 19 // 'value_transferred'\n 31423: fallthrough\n      : @1220 (gas: 8)\n 31424: a0 = u64 [sp + 0xd0]\n 31428: a1 = u64 [sp + 0xd8]\n 31432: a2 = u64 [sp + 0xc8]\n 31436: a3 = u64 [sp + 0xc0]\n 31440: a1 = a1 | a2\n 31443: a0 = a0 | a3\n 31446: a0 = a0 | a1\n 31449: jump @1228 if a0 != 0\n      : @1221 (gas: 3)\n 31453: a0 = i32 [0x2014c]\n 31458: a1 = 0x23\n 31461: jump @1229 if a1 >=u a0\n      : @1222 (gas: 4)\n 31465: a0 = sp + 0xa0\n 31469: ra = 0x5d4\n 31473: t0 = 0x484\n 31477: jump @2251\n      : @1223 [@dyn 746] (gas: 13)\n 31480: a2 = u64 [sp + 0xa0]\n 31484: a0 = u64 [sp + 0xa8]\n 31488: a1 = u64 [sp + 0xb0]\n 31492: a3 = u64 [sp + 0xb8]\n 31496: u64 [sp + 0x78] = a3\n 31499: u64 [sp + 0x70] = a1\n 31502: u64 [sp + 0x68] = a0\n 31505: a0 = sp + 0x80\n 31509: a1 = sp + 0x60\n 31512: u64 [sp + 0x60] = a2\n 31515: ra = 0x5d6\n 31519: t0 = 0x7ce\n 31523: jump @2331\n      : @1224 [@dyn 747] (gas: 11)\n 31527: a0 = u64 [sp + 0x98]\n 31531: u64 [sp + 0x18] = a0\n 31534: a0 = u64 [sp + 0x90]\n 31538: u64 [sp + 0x10] = a0\n 31541: a0 = u64 [sp + 0x88]\n 31545: u64 [sp + 0x8] = a0\n 31548: a0 = u64 [sp + 0x80]\n 31552: u64 [sp] = a0\n 31554: a0 = sp + 0x40\n 31557: a1 = 0x40\n 31560: ra = 1496, jump @22\n      : @1225 [@dyn 748] (gas: 5)\n 31566: a0 = u64 [sp + 0x58]\n 31569: a1 = u64 [sp + 0x50]\n 31572: a2 = u64 [sp + 0x48]\n 31575: s1 = u64 [sp + 0x40]\n 31578: t0 = 1498, jump @2243\n      : @1226 [@dyn 749] (gas: 1)\n 31584: jump @1231 if a0 == 0\n      : @1227 (gas: 1)\n 31587: trap\n      : @1228 (gas: 2)\n 31588: a1 = 0x20160\n 31593: jump @1230\n      : @1229 (gas: 2)\n 31595: a1 = 0x20160\n 31600: fallthrough\n      : @1230 (gas: 7)\n 31601: i32 a1 = a1 + 0\n 31603: a0 = 0x1\n 31606: a2 = 0\n 31608: ra = 0x5dc\n 31612: ecalli 16 // 'seal_return'\n 31614: t0 = 0x5de\n 31618: jump @2284\n      : @1231 [@dyn 750] (gas: 1)\n 31621: t0 = 1502, jump @2284\n      : @1232 [@dyn 751] (gas: 1)\n 31627: ra = 1504, jump @24\n      : @1233 [@dyn 752] (gas: 3)\n 31633: a1 = 0x20\n 31636: a0 = s1\n 31638: ra = 1506, jump @37\n      : @1234 [@dyn 753] (gas: 1)\n 31644: t0 = 1508, jump @2280\n      : @1235 [@dyn 754] (gas: 4)\n 31650: ra = 0x5e6\n 31654: ecalli 16 // 'seal_return'\n 31656: t0 = 0x5e8\n 31660: jump @2291\n      : @1236 [@dyn 755] (gas: 1)\n 31663: t0 = 1512, jump @2291\n      : @1237 [@dyn 756] (gas: 2)\n 31669: ecalli 19 // 'value_transferred'\n 31671: fallthrough\n      : @1238 (gas: 8)\n 31672: a0 = u64 [s1 + 0xf0]\n 31676: a1 = u64 [s1 + 0xf8]\n 31680: a2 = u64 [s1 + 0xe8]\n 31684: a3 = u64 [s1 + 0xe0]\n 31688: a1 = a1 | a2\n 31691: a0 = a0 | a3\n 31694: a0 = a0 | a1\n 31697: jump @1254 if a0 != 0\n      : @1239 (gas: 3)\n 31701: a0 = i32 [0x2014c]\n 31706: a1 = 0x23\n 31709: jump @1255 if a1 >=u a0\n      : @1240 (gas: 4)\n 31713: a0 = s1 + 0xc0\n 31717: ra = 0x5ea\n 31721: t0 = 0x484\n 31725: jump @2251\n      : @1241 [@dyn 757] (gas: 1)\n 31728: t0 = 1516, jump @2320\n      : @1242 [@dyn 758] (gas: 1)\n 31735: ra = 1518, jump @24\n      : @1243 [@dyn 759] (gas: 7)\n 31741: u64 [s1 + 152] = 0\n 31745: u64 [s1 + 144] = 0\n 31749: u64 [s1 + 128] = 0x7\n 31754: a0 = 0x20\n 31757: a1 = s1 + 0x80\n 31761: u64 [s1 + 136] = 0\n 31765: ra = 1520, jump @24\n      : @1244 [@dyn 760] (gas: 2)\n 31771: a1 = i32 [0x20150]\n 31776: jump @1246 if a1 >u 63\n      : @1245 (gas: 4)\n 31780: a1 = 0x40\n 31783: u32 [0x20150] = a1\n 31788: t0 = 0x5f2\n 31792: jump @2282\n      : @1246 (gas: 1)\n 31795: t0 = 1522, jump @2282\n      : @1247 [@dyn 761] (gas: 8)\n 31801: a0 = 0x20160\n 31806: i32 a0 = a0 + 0\n 31808: i32 a2 = a2 + 0\n 31810: a1 = 0x40\n 31813: ra = 0x5f4\n 31817: ecalli 11 // 'hash_keccak_256'\n 31819: t0 = 0x5f6\n 31823: jump @2246\n      : @1248 [@dyn 762] (gas: 1)\n 31826: t0 = 1526, jump @2246\n      : @1249 [@dyn 763] (gas: 3)\n 31832: ra = 0x5f8\n 31836: t0 = 0x6\n 31839: jump @2259\n      : @1250 [@dyn 764] (gas: 11)\n 31842: a0 = u64 [s1 + 0x78]\n 31845: u64 [s1 + 0x18] = a0\n 31848: a0 = u64 [s1 + 0x70]\n 31851: u64 [s1 + 0x10] = a0\n 31854: a0 = u64 [s1 + 0x68]\n 31857: u64 [s1 + 0x8] = a0\n 31860: a0 = u64 [s1 + 0x60]\n 31863: u64 [s1] = a0\n 31865: a0 = s1 + 0x40\n 31868: a1 = 0x40\n 31871: ra = 1530, jump @22\n      : @1251 [@dyn 765] (gas: 5)\n 31877: a0 = u64 [s1 + 0x58]\n 31880: a1 = u64 [s1 + 0x50]\n 31883: a2 = u64 [s1 + 0x48]\n 31886: a3 = u64 [s1 + 0x40]\n 31889: t0 = 1532, jump @2244\n      : @1252 [@dyn 766] (gas: 1)\n 31895: jump @1257 if a0 == 0\n      : @1253 (gas: 1)\n 31898: trap\n      : @1254 (gas: 2)\n 31899: a1 = 0x20160\n 31904: jump @1256\n      : @1255 (gas: 2)\n 31906: a1 = 0x20160\n 31911: fallthrough\n      : @1256 (gas: 7)\n 31912: i32 a1 = a1 + 0\n 31914: a0 = 0x1\n 31917: a2 = 0\n 31919: ra = 0x5fe\n 31923: ecalli 16 // 'seal_return'\n 31925: t0 = 0x600\n 31929: jump @2325\n      : @1257 [@dyn 767] (gas: 1)\n 31933: t0 = 1536, jump @2325\n      : @1258 [@dyn 768] (gas: 1)\n 31940: ra = 1538, jump @24\n      : @1259 [@dyn 769] (gas: 3)\n 31946: a1 = 0x20\n 31949: a0 = u64 [s1 + 0x18]\n 31952: ra = 1540, jump @37\n      : @1260 [@dyn 770] (gas: 1)\n 31958: t0 = 1542, jump @2280\n      : @1261 [@dyn 771] (gas: 3)\n 31964: ra = 0x608\n 31968: ecalli 16 // 'seal_return'\n 31970: fallthrough\n      : @1262 [@dyn 772] (gas: 18)\n 31971: sp = sp + 0xfffffffffffffb80\n 31975: a0 = sp + 0x400\n 31979: u64 [a0 + 0x78] = ra\n 31982: u64 [a0 + 0x70] = s0\n 31985: u64 [a0 + 0x68] = s1\n 31988: s0 = sp + 0x480\n 31992: sp = sp & 0xffffffffffffffe0\n 31995: a0 = sp + 0x400\n 31999: u64 [a0 + 56] = 0\n 32002: u64 [a0 + 48] = 0\n 32005: u64 [a0 + 40] = 0\n 32008: u64 [a0 + 32] = 0\n 32011: i32 a0 = sp + 0x420\n 32015: ra = 0x60a\n 32019: ecalli 19 // 'value_transferred'\n 32021: a4 = sp + 0x400\n 32025: t0 = 0x60c\n 32029: jump @2348\n      : @1263 [@dyn 773] (gas: 2)\n 32033: a4 = sp + 0x400\n 32037: t0 = 1548, jump @2348\n      : @1264 [@dyn 774] (gas: 1)\n 32044: jump @1308 if a0 != 0\n      : @1265 (gas: 5)\n 32048: a0 = 0x2014c\n 32053: u64 [sp + 0xd8] = a0\n 32057: a0 = i32 [0x2014c]\n 32062: a1 = 0x3\n 32065: jump @1309 if a1 >=u a0\n      : @1266 (gas: 1)\n 32069: ra = 1550, jump @15\n      : @1267 [@dyn 775] (gas: 15)\n 32075: s1 = 0x30180\n 32080: a2 = u64 [0x30220]\n 32085: a0 = u64 [0x30228]\n 32090: a1 = u64 [0x30230]\n 32095: a3 = u64 [0x30238]\n 32100: a4 = sp + 0x300\n 32104: u64 [a4 + 0xf8] = a3\n 32108: u64 [a4 + 0xf0] = a1\n 32112: u64 [a4 + 0xe8] = a0\n 32116: a0 = sp + 0x400\n 32120: a1 = sp + 0x3e0\n 32124: u64 [a4 + 0xe0] = a2\n 32128: ra = 0x610\n 32132: t0 = 0x916\n 32136: jump @2258\n      : @1268 [@dyn 776] (gas: 10)\n 32139: a1 = sp + 0x400\n 32143: a0 = u64 [a1 + 0x18]\n 32146: u64 [sp + 0x90] = a0\n 32150: a0 = u64 [a1 + 0x10]\n 32153: u64 [sp + 0x98] = a0\n 32157: a0 = u64 [a1 + 0x8]\n 32160: u64 [sp + 0xb0] = a0\n 32164: a0 = u64 [a1]\n 32166: u64 [sp + 0xd0] = a0\n 32170: ra = 1554, jump @15\n      : @1269 [@dyn 777] (gas: 14)\n 32176: a2 = u64 [s1 + 0xc0]\n 32180: a0 = u64 [s1 + 0xc8]\n 32184: a1 = u64 [s1 + 0xd0]\n 32188: a3 = u64 [s1 + 0xd8]\n 32192: a4 = sp + 0x300\n 32196: u64 [a4 + 0xb8] = a3\n 32200: u64 [a4 + 0xb0] = a1\n 32204: u64 [a4 + 0xa8] = a0\n 32208: a0 = sp + 0x3c0\n 32212: a1 = sp + 0x3a0\n 32216: u64 [a4 + 0xa0] = a2\n 32220: ra = 0x614\n 32224: t0 = 0x93e\n 32228: jump @2258\n      : @1270 [@dyn 778] (gas: 12)\n 32231: a1 = sp + 0x300\n 32235: a0 = u64 [a1 + 0xd8]\n 32239: u64 [sp + 0x70] = a0\n 32242: a0 = u64 [a1 + 0xd0]\n 32246: u64 [sp + 0x78] = a0\n 32249: a0 = u64 [a1 + 0xc8]\n 32253: u64 [sp + 0x80] = a0\n 32257: a0 = u64 [a1 + 0xc0]\n 32261: u64 [sp + 0x88] = a0\n 32265: a0 = sp + 0x380\n 32269: a1 = 0x40\n 32272: ra = 1558, jump @22\n      : @1271 [@dyn 779] (gas: 19)\n 32278: a4 = sp + 0x300\n 32282: s1 = u64 [a4 + 0x98]\n 32286: a1 = u64 [a4 + 0x90]\n 32290: u64 [sp + 0xc8] = a1\n 32294: a3 = u64 [a4 + 0x88]\n 32298: u64 [sp + 0xc0] = a3\n 32302: a2 = u64 [a4 + 0x80]\n 32306: u64 [sp + 0xb8] = a2\n 32310: u64 [a4 + 88] = 0\n 32313: u64 [a4 + 80] = 0\n 32316: u64 [a4 + 72] = 0\n 32319: u64 [a4 + 64] = 0x20\n 32323: u64 [a4 + 0x78] = s1\n 32326: u64 [a4 + 0x70] = a1\n 32329: u64 [a4 + 0x68] = a3\n 32332: a0 = sp + 0x360\n 32336: a1 = sp + 0x340\n 32340: u64 [a4 + 0x60] = a2\n 32343: ra = 1560, jump @149\n      : @1272 [@dyn 780] (gas: 12)\n 32349: a2 = u64 [sp + 0xc8]\n 32353: a0 = u64 [sp + 0xc0]\n 32357: u64 [sp + 0xa8] = s1\n 32361: a0 = a0 | s1\n 32364: s1 = u64 [sp + 0xb8]\n 32368: a1 = s1 | a2\n 32371: a1 = a1 | a0\n 32374: a1 = a1 >> 0x20\n 32377: a0 = a0 | a2\n 32380: a0 = a0 << 0x20\n 32383: a0 = a0 | a1\n 32386: jump @1307 if a0 != 0\n      : @1273 (gas: 8)\n 32390: a0 = sp + 0x300\n 32394: u64 [a0 + 56] = 0\n 32397: u64 [a0 + 48] = 0\n 32400: u64 [a0 + 40] = 0\n 32403: a1 = sp + 0x320\n 32407: u64 [a0 + 32] = 0\n 32410: a0 = s1\n 32412: ra = 1562, jump @24\n      : @1274 [@dyn 781] (gas: 4)\n 32418: a2 = u64 [sp + 0xc0]\n 32422: a0 = u64 [sp + 0xc8]\n 32426: a1 = u64 [sp + 0xa8]\n 32430: t0 = 1564, jump @2349\n      : @1275 [@dyn 782] (gas: 3)\n 32437: a1 = 0 if a2 != 0\n 32439: a1 = 0 if a0 != 0\n 32441: jump @1307 if a1 == 0\n      : @1276 (gas: 7)\n 32445: a0 = s1\n 32447: a1 = u64 [sp + 0xd8]\n 32451: s1 = i32 [a1]\n 32453: a0 = a0 + 0x20\n 32456: u64 [sp + 0xa0] = a0\n 32460: a1 = 0\n 32462: ra = 1566, jump @37\n      : @1277 [@dyn 783] (gas: 7)\n 32468: i32 a0 = a0 + 0\n 32470: a1 = 0\n 32472: a2 = s1\n 32474: ecalli 3 // 'call_data_copy'\n 32476: a0 = sp + 0x300\n 32480: a1 = 0x40\n 32483: ra = 1568, jump @22\n      : @1278 [@dyn 784] (gas: 13)\n 32489: a1 = sp + 0x300\n 32493: s1 = u64 [a1 + 0x18]\n 32496: a4 = u64 [a1 + 0x10]\n 32499: a3 = u64 [a1 + 0x8]\n 32502: a0 = u64 [a1]\n 32504: a2 = a3 | s1\n 32507: a1 = a0 | a4\n 32510: a1 = a1 | a2\n 32513: a1 = a1 >> 0x20\n 32516: a2 = a2 | a4\n 32519: a2 = a2 << 0x20\n 32522: a1 = a1 | a2\n 32525: jump @1307 if a1 != 0\n      : @1279 (gas: 11)\n 32529: a5 = sp + 0x200\n 32533: u64 [a5 + 240] = 0\n 32537: u64 [a5 + 232] = 0\n 32541: u64 [a5 + 224] = 0\n 32545: a2 = 0xf00000000000000\n 32555: a1 = sp + 0x2e0\n 32559: u64 [a5 + 0xf8] = a2\n 32563: u64 [sp + 0x30] = a0\n 32566: u64 [sp + 0x28] = a3\n 32569: u64 [sp + 0x20] = a4\n 32572: ra = 1570, jump @24\n      : @1280 [@dyn 785] (gas: 11)\n 32578: a3 = u64 [sp + 0x20]\n 32581: a1 = u64 [sp + 0x30]\n 32584: a4 = a3 | s1\n 32587: a5 = s1\n 32589: s1 = 0x100000000\n 32599: a0 = 0xffffffe0\n 32609: a0 = a1 <u a0\n 32612: a2 = u64 [sp + 0x28]\n 32615: a0 = 0 if a2 != 0\n 32617: a0 = 0 if a4 != 0\n 32619: jump @1307 if a0 == 0\n      : @1281 (gas: 12)\n 32623: i32 a0 = a1 + 0x20\n 32626: a2 = sp + 0x200\n 32630: u64 [a2 + 216] = 0\n 32634: u64 [a2 + 208] = 0\n 32638: u64 [a2 + 192] = 0xe0\n 32644: a1 = sp + 0x2c0\n 32648: u64 [a2 + 200] = 0\n 32652: u64 [sp + 0xd8] = s1\n 32656: s1 = a3\n 32658: u64 [sp + 0x68] = a4\n 32661: u64 [sp + 0x18] = a5\n 32664: ra = 1572, jump @24\n      : @1282 [@dyn 786] (gas: 30)\n 32670: a0 = u64 [sp + 0x30]\n 32673: a0 = a0 + 0xe0\n 32677: a1 = u64 [sp + 0x30]\n 32680: a1 = a0 <u a1\n 32683: a2 = u64 [sp + 0x28]\n 32686: a2 = a2 + a1\n 32689: a3 = u64 [sp + 0x28]\n 32692: a3 = a2 <u a3\n 32695: a3 = a1 if a1 == 0\n 32698: a3 = a3 + s1\n 32701: a1 = a3 <u s1\n 32704: a4 = u64 [sp + 0x18]\n 32707: a4 = a4 + a1\n 32710: a5 = sp + 0x200\n 32714: u64 [a5 + 0x68] = a2\n 32717: u64 [a5 + 0x60] = a0\n 32720: a0 = u64 [sp + 0x90]\n 32724: u64 [a5 + 0x98] = a0\n 32728: a0 = u64 [sp + 0x98]\n 32732: u64 [a5 + 0x90] = a0\n 32736: a0 = u64 [sp + 0xb0]\n 32740: u64 [a5 + 0x88] = a0\n 32744: a0 = u64 [sp + 0xd0]\n 32748: u64 [a5 + 0x80] = a0\n 32752: u64 [a5 + 0x70] = a3\n 32755: a0 = sp + 0x2a0\n 32759: a1 = sp + 0x280\n 32763: a2 = sp + 0x260\n 32767: u64 [a5 + 0x78] = a4\n 32770: ra = 1574, jump @855\n      : @1283 [@dyn 787] (gas: 9)\n 32776: a2 = u64 [sp + 0x28]\n 32779: a1 = u64 [sp + 0x30]\n 32782: a0 = u64 [sp + 0xd8]\n 32786: a0 = a0 + 0xffffffffffffffc0\n 32789: a0 = a1 <u a0\n 32792: a0 = 0 if a2 != 0\n 32794: a3 = u64 [sp + 0x68]\n 32797: a0 = 0 if a3 != 0\n 32799: jump @1307 if a0 == 0\n      : @1284 (gas: 35)\n 32803: a3 = u64 [sp + 0x2a0]\n 32807: s1 = u64 [sp + 0x2a8]\n 32811: a5 = u64 [sp + 0x2b8]\n 32815: u64 [sp + 0xd0] = a5\n 32819: a4 = u64 [sp + 0x2b0]\n 32823: u64 [sp + 0xd8] = a4\n 32827: a0 = a3 <u a1\n 32830: t0 = a3\n 32832: u64 [sp + 0xb0] = a3\n 32836: a1 = s1 ^ a2\n 32839: a2 = s1 <u a2\n 32842: a2 = a0 if a1 == 0\n 32845: a3 = u64 [sp + 0x20]\n 32848: a1 = a4 - a3\n 32851: a3 = a4 <u a3\n 32854: a4 = u64 [sp + 0x18]\n 32857: a4 = a5 - a4\n 32860: a4 = a4 - a3\n 32863: a3 = a1 <u a2\n 32866: a4 = a4 - a3\n 32869: a1 = a1 - a2\n 32872: a2 = u64 [sp + 0x28]\n 32875: a2 = s1 - a2\n 32878: a2 = a2 - a0\n 32881: a0 = u64 [sp + 0x30]\n 32884: a3 = t0 - a0\n 32887: a0 = u64 [sp + 0x30]\n 32890: i32 a0 = a0 + 0x40\n 32893: a5 = sp + 0x200\n 32897: u64 [a5 + 0x40] = a3\n 32900: u64 [a5 + 0x48] = a2\n 32903: u64 [a5 + 0x50] = a1\n 32906: a1 = sp + 0x240\n 32910: u64 [a5 + 0x58] = a4\n 32913: ra = 1576, jump @24\n      : @1285 [@dyn 788] (gas: 20)\n 32919: a0 = u64 [sp + 0xd0]\n 32923: u64 [sp + 0x1f8] = a0\n 32927: a0 = u64 [sp + 0xd8]\n 32931: u64 [sp + 0x1f0] = a0\n 32935: u64 [sp + 0x1e8] = s1\n 32939: a0 = u64 [sp + 0xb0]\n 32943: u64 [sp + 0x1e0] = a0\n 32947: a0 = u64 [sp + 0x70]\n 32950: a4 = sp + 0x200\n 32954: u64 [a4 + 0x18] = a0\n 32957: a0 = u64 [sp + 0x78]\n 32960: u64 [a4 + 0x10] = a0\n 32963: a0 = u64 [sp + 0x80]\n 32967: u64 [a4 + 0x8] = a0\n 32970: a0 = sp + 0x220\n 32974: a1 = sp + 0x200\n 32978: a2 = sp + 0x1e0\n 32982: a3 = u64 [sp + 0x88]\n 32986: u64 [a4] = a3\n 32988: ra = 1578, jump @855\n      : @1286 [@dyn 789] (gas: 12)\n 32994: a1 = sp + 0x200\n 32998: a0 = u64 [a1 + 0x38]\n 33001: u64 [sp + 0xd0] = a0\n 33005: a0 = u64 [a1 + 0x30]\n 33008: u64 [sp + 0xd8] = a0\n 33012: a0 = u64 [a1 + 0x28]\n 33015: u64 [sp + 0x98] = a0\n 33019: a0 = u64 [a1 + 0x20]\n 33022: u64 [sp + 0x90] = a0\n 33026: i32 a0 = sp + 0x440\n 33030: ecalli 7 // 'chain_id'\n 33032: fallthrough\n      : @1287 (gas: 9)\n 33033: s1 = 0x100000000\n 33043: a0 = 0xffffffa0\n 33053: a1 = u64 [sp + 0x30]\n 33056: a0 = a1 <u a0\n 33059: a1 = u64 [sp + 0x28]\n 33062: a0 = 0 if a1 != 0\n 33064: a1 = u64 [sp + 0x68]\n 33067: a0 = 0 if a1 != 0\n 33069: jump @1307 if a0 == 0\n      : @1288 (gas: 13)\n 33073: a0 = sp + 0x400\n 33077: a2 = u64 [a0 + 0x40]\n 33080: a1 = u64 [a0 + 0x48]\n 33083: a3 = u64 [a0 + 0x50]\n 33086: a4 = u64 [a0 + 0x58]\n 33089: a0 = u64 [sp + 0x30]\n 33092: i32 a0 = a0 + 0x60\n 33095: u64 [sp + 0x1d8] = a4\n 33099: u64 [sp + 0x1d0] = a3\n 33103: u64 [sp + 0x1c8] = a1\n 33107: a1 = sp + 0x1c0\n 33111: u64 [sp + 0x1c0] = a2\n 33115: ra = 1580, jump @24\n      : @1289 [@dyn 790] (gas: 5)\n 33121: a0 = 0x30160\n 33126: u64 [sp + 0xb0] = a0\n 33130: i32 a0 = a0 + 0\n 33132: ecalli 0 // 'address'\n 33133: fallthrough\n      : @1290 (gas: 8)\n 33134: a0 = s1 + 0xffffffffffffff80\n 33137: a1 = u64 [sp + 0x30]\n 33140: a0 = a1 <u a0\n 33143: a1 = u64 [sp + 0x28]\n 33146: a0 = 0 if a1 != 0\n 33148: a1 = u64 [sp + 0x68]\n 33151: a0 = 0 if a1 != 0\n 33153: jump @1307 if a0 == 0\n      : @1291 (gas: 22)\n 33157: a2 = u64 [sp + 0xb0]\n 33161: a0 = u64 [a2 + 0x8]\n 33164: a1 = i32 [a2 + 0x10]\n 33167: a2 = u64 [a2]\n 33169: a0 = reverse a0\n 33171: a3 = a0 << 0x20\n 33174: a1 = reverse a1\n 33176: a1 = a1 >> 0x20\n 33179: a3 = a3 | a1\n 33182: a0 = a0 >> 0x20\n 33185: a1 = reverse a2\n 33187: a2 = a1 << 0x20\n 33190: a2 = a2 | a0\n 33193: a1 = a1 >> 0x20\n 33196: a0 = u64 [sp + 0x30]\n 33199: i32 a0 = a0 + 0x80\n 33203: u64 [sp + 440] = 0\n 33207: u64 [sp + 0x1b0] = a1\n 33211: u64 [sp + 0x1a8] = a2\n 33215: a1 = sp + 0x1a0\n 33219: u64 [sp + 0x1a0] = a3\n 33223: ra = 1582, jump @24\n      : @1292 [@dyn 791] (gas: 9)\n 33229: a3 = u64 [sp + 0x68]\n 33232: a1 = u64 [sp + 0x30]\n 33235: s1 = 0x100000000\n 33245: a0 = 0xffffff60\n 33255: a0 = a1 <u a0\n 33258: a2 = u64 [sp + 0x28]\n 33261: a0 = 0 if a2 != 0\n 33263: a0 = 0 if a3 != 0\n 33265: jump @1307 if a0 == 0\n      : @1293 (gas: 7)\n 33269: i32 a0 = a1 + 0xa0\n 33273: u64 [sp + 408] = 0\n 33277: u64 [sp + 400] = 0\n 33281: u64 [sp + 392] = 0\n 33285: a1 = sp + 0x180\n 33289: u64 [sp + 384] = 0\n 33293: ra = 1584, jump @24\n      : @1294 [@dyn 792] (gas: 8)\n 33300: a4 = u64 [sp + 0x28]\n 33303: a3 = u64 [sp + 0x30]\n 33306: a0 = s1 + 0xffffffffffffff40\n 33310: a0 = a3 <u a0\n 33313: a0 = 0 if a4 != 0\n 33315: a1 = u64 [sp + 0x68]\n 33318: a0 = 0 if a1 != 0\n 33320: jump @1307 if a0 == 0\n      : @1295 (gas: 31)\n 33324: a1 = u64 [sp + 0x90]\n 33328: t1 = a1 <u a3\n 33331: t0 = a1\n 33333: a5 = u64 [sp + 0x98]\n 33337: a1 = a5 ^ a4\n 33340: a2 = a5 <u a4\n 33343: t2 = a5\n 33345: a2 = t1 if a1 == 0\n 33348: s1 = u64 [sp + 0x20]\n 33351: a1 = u64 [sp + 0xd8]\n 33355: a0 = a1 - s1\n 33358: a5 = a3\n 33360: a3 = a1 <u s1\n 33363: s1 = a4\n 33365: a4 = u64 [sp + 0x18]\n 33368: a1 = u64 [sp + 0xd0]\n 33372: a4 = a1 - a4\n 33375: a4 = a4 - a3\n 33378: a3 = a0 <u a2\n 33381: a4 = a4 - a3\n 33384: a1 = a0 - a2\n 33387: a2 = t2 - s1\n 33390: a2 = a2 - t1\n 33393: a3 = t0 - a5\n 33396: i32 a0 = a5 + 0xc0\n 33400: u64 [sp + 0x160] = a3\n 33404: u64 [sp + 0x168] = a2\n 33408: u64 [sp + 0x170] = a1\n 33412: a1 = sp + 0x160\n 33416: u64 [sp + 0x178] = a4\n 33420: ra = 1586, jump @24\n      : @1296 [@dyn 793] (gas: 4)\n 33427: a0 = sp + 0x140\n 33431: s1 = u64 [sp + 0xb8]\n 33435: a1 = s1\n 33437: ra = 1588, jump @22\n      : @1297 [@dyn 794] (gas: 12)\n 33444: a3 = u64 [sp + 0xd8]\n 33448: a0 = u64 [sp + 0x90]\n 33452: a2 = a0 | a3\n 33455: a1 = u64 [sp + 0xd0]\n 33459: a4 = u64 [sp + 0x98]\n 33463: a1 = a1 | a4\n 33466: a2 = a2 | a1\n 33469: a2 = a2 >> 0x20\n 33472: a1 = a1 | a3\n 33475: a1 = a1 << 0x20\n 33478: a1 = a1 | a2\n 33481: jump @1307 if a1 != 0\n      : @1298 (gas: 28)\n 33485: a1 = u64 [sp + 0xa0]\n 33489: a2 = a1 <u s1\n 33492: a1 = u64 [sp + 0xc0]\n 33496: a3 = a1 + a2\n 33499: u64 [sp + 0xb8] = a3\n 33503: a1 = a3 <u a1\n 33506: a1 = a2 if a2 == 0\n 33509: a3 = u64 [sp + 0x158]\n 33513: a4 = u64 [sp + 0x150]\n 33517: a5 = u64 [sp + 0x148]\n 33521: s1 = u64 [sp + 0x140]\n 33525: a2 = u64 [sp + 0xc8]\n 33529: a1 = a1 + a2\n 33532: u64 [sp + 0xb0] = a1\n 33536: a2 = a1 <u a2\n 33539: a1 = u64 [sp + 0xa8]\n 33543: a1 = a1 + a2\n 33546: u64 [sp + 0xc0] = a1\n 33550: u64 [sp + 0x40] = s1\n 33553: u64 [sp + 0x120] = s1\n 33557: u64 [sp + 0x48] = a5\n 33560: u64 [sp + 0x128] = a5\n 33564: u64 [sp + 0x50] = a4\n 33567: u64 [sp + 0x130] = a4\n 33571: a1 = sp + 0x120\n 33575: u64 [sp + 0x58] = a3\n 33578: u64 [sp + 0x138] = a3\n 33582: ra = 1590, jump @24\n      : @1299 [@dyn 795] (gas: 9)\n 33589: t2 = u64 [sp + 0x90]\n 33593: a2 = 0\n 33595: u64 [sp + 200] = 0\n 33599: a5 = 0\n 33601: a4 = 0\n 33603: a0 = 0xffffffe0\n 33613: u64 [sp + 0x38] = a0\n 33616: s1 = u64 [sp + 0x98]\n 33620: fallthrough\n      : @1300 (gas: 32)\n 33621: ra = t2 + 0x20\n 33624: a0 = u64 [sp + 0x40]\n 33627: u64 [sp + 0x88] = a2\n 33631: t0 = a2 <u a0\n 33634: a2 = u64 [sp + 0x48]\n 33637: a3 = u64 [sp + 0xc8]\n 33641: a0 = a3 ^ a2\n 33644: a2 = a3 <u a2\n 33647: a2 = t0 if a0 == 0\n 33650: a0 = u64 [sp + 0x50]\n 33653: t0 = a5 <u a0\n 33656: a3 = u64 [sp + 0x58]\n 33659: t1 = a4 ^ a3\n 33662: u64 [sp + 0x80] = a4\n 33666: a3 = a4 <u a3\n 33669: a3 = t0 if t1 == 0\n 33672: u64 [sp + 0x78] = a5\n 33675: a0 = a0 ^ a5\n 33678: a0 = a0 | t1\n 33681: u64 [sp + 0xa8] = ra\n 33685: a4 = ra <u t2\n 33688: a3 = a2 if a0 == 0\n 33691: ra = s1 + a4\n 33694: u64 [sp + 0x98] = s1\n 33698: s1 = ra <u s1\n 33701: s1 = a4 if a4 == 0\n 33704: a2 = u64 [sp + 0xd8]\n 33708: s1 = s1 + a2\n 33711: a0 = s1 <u a2\n 33714: t0 = u64 [sp + 0xd0]\n 33718: a5 = t0 + a0\n 33721: jump @1306 if a3 == 0\n      : @1301 (gas: 13)\n 33725: t1 = a2\n 33727: a3 = u64 [sp + 0xb0]\n 33731: a1 = u64 [sp + 0xa0]\n 33735: a0 = a1 | a3\n 33738: a2 = u64 [sp + 0xb8]\n 33742: a4 = u64 [sp + 0xc0]\n 33746: a2 = a2 | a4\n 33749: a0 = a0 | a2\n 33752: a0 = a0 >> 0x20\n 33755: a2 = a2 | a3\n 33758: a2 = a2 << 0x20\n 33761: a0 = a0 | a2\n 33764: jump @1307 if a0 != 0\n      : @1302 (gas: 9)\n 33768: u64 [sp + 0x60] = a5\n 33771: u64 [sp + 0x68] = s1\n 33774: u64 [sp + 0x70] = ra\n 33777: a0 = sp + 0x100\n 33781: s1 = a1\n 33783: u64 [sp + 0x90] = t2\n 33787: u64 [sp + 0xd8] = t1\n 33791: u64 [sp + 0xd0] = t0\n 33795: ra = 1592, jump @22\n      : @1303 [@dyn 796] (gas: 10)\n 33802: a0 = u64 [sp + 0xd8]\n 33806: a1 = u64 [sp + 0xd0]\n 33810: a0 = a0 | a1\n 33813: a1 = u64 [sp + 0x38]\n 33816: a2 = u64 [sp + 0x90]\n 33820: a1 = a2 <u a1\n 33823: a2 = u64 [sp + 0x98]\n 33827: a1 = 0 if a2 != 0\n 33829: a1 = 0 if a0 != 0\n 33831: jump @1307 if a1 == 0\n      : @1304 (gas: 11)\n 33835: a0 = u64 [sp + 0x118]\n 33839: a1 = u64 [sp + 0x110]\n 33843: a2 = u64 [sp + 0x108]\n 33847: a3 = u64 [sp + 0x100]\n 33851: u64 [sp + 0xe0] = a3\n 33855: u64 [sp + 0xe8] = a2\n 33859: u64 [sp + 0xf0] = a1\n 33863: a1 = sp + 0xe0\n 33867: u64 [sp + 0xf8] = a0\n 33871: a0 = u64 [sp + 0xa8]\n 33875: ra = 1594, jump @24\n      : @1305 [@dyn 797] (gas: 35)\n 33882: a0 = s1 + 0x20\n 33885: a1 = a0 <u s1\n 33888: a3 = u64 [sp + 0xb8]\n 33892: t0 = a3 + a1\n 33895: a3 = t0 <u a3\n 33898: a3 = a1 if a1 == 0\n 33901: a1 = u64 [sp + 0xb0]\n 33905: a3 = a3 + a1\n 33908: a1 = a3 <u a1\n 33911: a2 = u64 [sp + 0xc0]\n 33915: a2 = a2 + a1\n 33918: u64 [sp + 0xc0] = a2\n 33922: a2 = u64 [sp + 0x88]\n 33926: a2 = a2 + 0x1\n 33929: a1 = a2 <u 0x1\n 33932: a4 = u64 [sp + 0xc8]\n 33936: a4 = a4 + a1\n 33939: u64 [sp + 0xc8] = a4\n 33943: a1 = a2 | a4\n 33946: a1 = a1 <u 0x1\n 33949: a4 = u64 [sp + 0x78]\n 33952: a5 = a4 + a1\n 33955: a4 = a5 <u a4\n 33958: a1 = u64 [sp + 0x80]\n 33962: a4 = a4 + a1\n 33965: t2 = u64 [sp + 0xa8]\n 33969: s1 = u64 [sp + 0x70]\n 33972: a1 = u64 [sp + 0x68]\n 33975: u64 [sp + 0xd8] = a1\n 33979: a1 = u64 [sp + 0x60]\n 33982: u64 [sp + 0xd0] = a1\n 33986: u64 [sp + 0xa0] = a0\n 33990: u64 [sp + 0xb8] = t0\n 33994: u64 [sp + 0xb0] = a3\n 33998: jump @1300\n      : @1306 (gas: 28)\n 34001: a0 = u64 [sp + 0x30]\n 34004: t1 = a5\n 34006: t2 = u64 [sp + 0xa8]\n 34010: t0 = t2 <u a0\n 34013: a4 = u64 [sp + 0x28]\n 34016: a1 = ra ^ a4\n 34019: a2 = ra <u a4\n 34022: a2 = t0 if a1 == 0\n 34025: a3 = u64 [sp + 0x20]\n 34028: a1 = s1 - a3\n 34031: a3 = s1 <u a3\n 34034: a5 = u64 [sp + 0x18]\n 34037: t1 = t1 - a5\n 34040: a5 = a1 <u a2\n 34043: a3 = a3 + a5\n 34046: a3 = t1 - a3\n 34049: a1 = a1 - a2\n 34052: a2 = ra - a4\n 34055: a2 = a2 - t0\n 34058: s1 = t2 - a0\n 34061: a2 = a2 | a3\n 34064: a3 = s1 | a1\n 34067: a3 = a3 | a2\n 34070: a1 = a1 | a2\n 34073: a3 = a3 >> 0x20\n 34076: a1 = a1 << 0x20\n 34079: a1 = a1 | a3\n 34082: jump @1311 if a1 == 0\n      : @1307 (gas: 1)\n 34085: trap\n      : @1308 (gas: 2)\n 34086: a1 = 0x20160\n 34091: jump @1310\n      : @1309 (gas: 2)\n 34093: a1 = 0x20160\n 34098: fallthrough\n      : @1310 (gas: 7)\n 34099: i32 a1 = a1 + 0\n 34101: a0 = 0x1\n 34104: a2 = 0\n 34106: ecalli 16 // 'seal_return'\n 34108: a1 = s1\n 34110: ra = 0x63c\n 34114: jump @37\n      : @1311 (gas: 2)\n 34117: a1 = s1\n 34119: ra = 1596, jump @37\n      : @1312 [@dyn 798] (gas: 7)\n 34125: i32 a1 = a0 + 0\n 34127: i32 a2 = s1 + 0\n 34129: a0 = 0\n 34131: ra = 0x63e\n 34135: ecalli 16 // 'seal_return'\n 34137: t0 = 0x640\n 34141: jump @2343\n      : @1313 [@dyn 799] (gas: 1)\n 34144: t0 = 1600, jump @2343\n      : @1314 [@dyn 800] (gas: 10)\n 34150: u64 [s1 + 824] = 0\n 34154: u64 [s1 + 816] = 0\n 34158: u64 [s1 + 808] = 0\n 34162: u64 [s1 + 800] = 0\n 34166: i32 a0 = s1 + 0x320\n 34170: ra = 0x642\n 34174: ecalli 19 // 'value_transferred'\n 34176: a4 = s1 + 0x300\n 34180: t0 = 0x644\n 34184: jump @2348\n      : @1315 [@dyn 801] (gas: 2)\n 34187: a4 = s1 + 0x300\n 34191: t0 = 1604, jump @2348\n      : @1316 [@dyn 802] (gas: 1)\n 34197: jump @1354 if a0 != 0\n      : @1317 (gas: 2)\n 34201: a0 = i32 [0x2014c]\n 34206: jump @1355 if a0 <=u 35\n      : @1318 (gas: 18)\n 34211: i32 a0 = s1 + 0x340\n 34215: a1 = 0x4\n 34218: ecalli 4 // 'call_data_load'\n 34220: a0 = u64 [s1 + 0x358]\n 34224: a1 = u64 [s1 + 0x350]\n 34228: a2 = u64 [s1 + 0x348]\n 34232: a3 = u64 [s1 + 0x340]\n 34236: u64 [s1 + 0x78] = a0\n 34239: u64 [s1 + 0x2f8] = a0\n 34243: u64 [s1 + 0x70] = a1\n 34246: u64 [s1 + 0x2f0] = a1\n 34250: u64 [s1 + 0x68] = a2\n 34253: u64 [s1 + 0x2e8] = a2\n 34257: a0 = s1 + 0x300\n 34261: a1 = s1 + 0x2e0\n 34265: u64 [s1 + 0x60] = a3\n 34268: u64 [s1 + 0x2e0] = a3\n 34272: ra = 1606, jump @1708\n      : @1319 [@dyn 803] (gas: 9)\n 34278: u64 [s1 + 888] = 0\n 34282: u64 [s1 + 880] = 0\n 34286: u64 [s1 + 872] = 0\n 34290: u64 [s1 + 864] = 0xa\n 34295: a0 = s1 + 0x2c0\n 34299: a1 = s1 + 0x360\n 34303: ra = 0x648\n 34307: t0 = 0x6\n 34310: jump @2259\n      : @1320 [@dyn 804] (gas: 1)\n 34313: t0 = 1610, jump @2296\n      : @1321 [@dyn 805] (gas: 1)\n 34319: jump @1326 if a1 != 0\n      : @1322 (gas: 1)\n 34322: t0 = 1612, jump @2321\n      : @1323 [@dyn 806] (gas: 5)\n 34328: u64 [s1 + 0x58] = a4\n 34331: u64 [s1 + 0x50] = a5\n 34334: u64 [s1 + 0x48] = a2\n 34337: u64 [s1 + 0x40] = a3\n 34340: ra = 1614, jump @1835\n      : @1324 [@dyn 807] (gas: 20)\n 34346: ra = u64 [s1 + 0x2a8]\n 34350: a2 = u64 [s1 + 0x2b8]\n 34354: t0 = u64 [s1 + 0x2a0]\n 34358: a4 = u64 [s1 + 0x2b0]\n 34362: a1 = u64 [s1 + 0x48]\n 34365: a0 = a1 ^ ra\n 34368: a5 = a1 <u ra\n 34371: a1 = u64 [s1 + 0x40]\n 34374: t1 = a1 <u t0\n 34377: a5 = t1 if a0 == 0\n 34380: a1 = u64 [s1 + 0x50]\n 34383: t2 = a1 <u a4\n 34386: a0 = u64 [s1 + 0x58]\n 34389: a3 = a0 ^ a2\n 34392: a0 = a0 <u a2\n 34395: a0 = t2 if a3 == 0\n 34398: a1 = a1 ^ a4\n 34401: a1 = a1 | a3\n 34404: a0 = a5 if a1 == 0\n 34407: jump @1343 if a0 == 0\n      : @1325 (gas: 3)\n 34411: ra = 0x650\n 34415: t0 = 0x28e\n 34419: jump @2232\n      : @1326 [@dyn 808] (gas: 5)\n 34422: a1 = 0\n 34424: a0 = 0\n 34426: t1 = 0\n 34428: t0 = 0\n 34430: fallthrough\n      : @1327 (gas: 19)\n 34431: u64 [s1 + 0x160] = a3\n 34435: u64 [s1 + 0x180] = a1\n 34439: a3 = u64 [s1 + 0x60]\n 34442: u64 [s1 + 0x1a0] = a3\n 34446: u64 [s1 + 448] = 0xa\n 34451: u64 [s1 + 472] = 0\n 34455: u64 [s1 + 464] = 0\n 34459: u64 [s1 + 456] = 0\n 34463: u64 [s1 + 0x168] = a2\n 34467: u64 [s1 + 0x188] = a0\n 34471: a2 = u64 [s1 + 0x68]\n 34474: u64 [s1 + 0x1a8] = a2\n 34478: u64 [s1 + 0x170] = a5\n 34482: u64 [s1 + 0x190] = t1\n 34486: a1 = u64 [s1 + 0x70]\n 34489: u64 [s1 + 0x1b0] = a1\n 34493: u64 [s1 + 0x178] = a4\n 34497: u64 [s1 + 0x198] = t0\n 34501: t0 = 1618, jump @2363\n      : @1328 [@dyn 809] (gas: 3)\n 34507: a5 = u64 [s1 + 0x78]\n 34510: u64 [s1 + 0x1b8] = a5\n 34514: ra = 1620, jump @1858\n      : @1329 [@dyn 810] (gas: 1)\n 34520: t0 = 1622, jump @2340\n      : @1330 [@dyn 811] (gas: 1)\n 34526: jump @1332 if a4 != 0\n      : @1331 (gas: 5)\n 34529: u64 [s1 + 96] = 0\n 34532: u64 [s1 + 104] = 0\n 34535: u64 [s1 + 112] = 0\n 34538: u64 [s1 + 120] = 0\n 34541: jump @1339\n      : @1332 (gas: 1)\n 34544: t0 = 1624, jump @2319\n      : @1333 [@dyn 812] (gas: 1)\n 34550: ra = 1626, jump @764\n      : @1334 [@dyn 813] (gas: 16)\n 34556: a2 = s1 + 0x100\n 34560: a0 = u64 [a2 + 0x58]\n 34563: u64 [s1 + 0x78] = a0\n 34566: a0 = u64 [a2 + 0x50]\n 34569: u64 [s1 + 0x70] = a0\n 34572: a0 = u64 [a2 + 0x48]\n 34575: u64 [s1 + 0x60] = a0\n 34578: a0 = u64 [a2 + 0x40]\n 34581: u64 [s1 + 0x68] = a0\n 34584: u64 [s1 + 280] = 0\n 34588: u64 [s1 + 272] = 0\n 34592: u64 [s1 + 264] = 0\n 34596: a1 = s1 + 0x100\n 34600: u64 [a2 + 0] = 0xa\n 34603: a0 = 0\n 34605: ra = 1628, jump @24\n      : @1335 [@dyn 814] (gas: 2)\n 34612: a1 = i32 [0x20150]\n 34617: jump @1337 if a1 >u 31\n      : @1336 (gas: 2)\n 34621: u32 [0x20150] = 0x20\n 34627: fallthrough\n      : @1337 (gas: 45)\n 34628: a0 = sp + 0xffffffffffffffe0\n 34631: a2 = a0 & 0xffffffffffffffe0\n 34634: u64 [s1 + 0x58] = a2\n 34637: sp = a2\n 34639: a0 = 0x20160\n 34644: i32 a0 = a0 + 0\n 34646: i32 a2 = a2 + 0\n 34648: a1 = 0x20\n 34651: ecalli 11 // 'hash_keccak_256'\n 34653: a3 = u64 [s1 + 0x58]\n 34656: a0 = u64 [a3]\n 34658: a1 = u64 [a3 + 0x8]\n 34661: a2 = u64 [a3 + 0x18]\n 34664: a3 = u64 [a3 + 0x10]\n 34667: t0 = reverse a0\n 34669: a1 = reverse a1\n 34671: a2 = reverse a2\n 34673: a3 = reverse a3\n 34675: a4 = u64 [s1 + 0x60]\n 34678: a4 = a4 + a3\n 34681: a5 = u64 [s1 + 0x68]\n 34684: a5 = a5 + a2\n 34687: a2 = a5 <u a2\n 34690: a4 = a4 + a2\n 34693: a0 = a4 ^ a3\n 34696: a3 = a4 <u a3\n 34699: a3 = a2 if a0 == 0\n 34702: a0 = u64 [s1 + 0x70]\n 34705: a0 = a0 + a1\n 34708: a3 = a3 + a0\n 34711: t1 = a3 <u a0\n 34714: a2 = u64 [s1 + 0x78]\n 34717: t0 = t0 + a2\n 34720: a0 = a0 <u a1\n 34723: a0 = a0 + t0\n 34726: a2 = a0 + t1\n 34729: u64 [s1 + 0xc0] = a5\n 34733: u64 [s1 + 0xc8] = a4\n 34737: u64 [s1 + 0xd0] = a3\n 34741: a0 = s1 + 0xe0\n 34745: a1 = s1 + 0xc0\n 34749: u64 [s1 + 0xd8] = a2\n 34753: ra = 0x65e\n 34757: t0 = 0x824\n 34761: jump @2259\n      : @1338 [@dyn 815] (gas: 9)\n 34764: a0 = u64 [s1 + 0xf8]\n 34768: u64 [s1 + 0x78] = a0\n 34771: a0 = u64 [s1 + 0xf0]\n 34775: u64 [s1 + 0x70] = a0\n 34778: a0 = u64 [s1 + 0xe8]\n 34782: u64 [s1 + 0x68] = a0\n 34785: a0 = u64 [s1 + 0xe0]\n 34789: u64 [s1 + 0x60] = a0\n 34792: fallthrough\n      : @1339 (gas: 3)\n 34793: a0 = s1 + 0xa0\n 34797: a1 = 0x40\n 34800: ra = 1632, jump @22\n      : @1340 [@dyn 816] (gas: 5)\n 34807: a0 = u64 [s1 + 0xb8]\n 34811: a1 = u64 [s1 + 0xb0]\n 34815: a2 = u64 [s1 + 0xa8]\n 34819: a3 = u64 [s1 + 0xa0]\n 34823: t0 = 1634, jump @2244\n      : @1341 [@dyn 817] (gas: 1)\n 34829: jump @1357 if a0 == 0\n      : @1342 (gas: 1)\n 34833: trap\n      : @1343 (gas: 24)\n 34834: a0 = u64 [s1 + 0x50]\n 34837: a0 = a0 - a4\n 34840: a1 = a0 - a5\n 34843: u64 [s1 + 0x30] = a1\n 34846: a0 = a0 <u a5\n 34849: a1 = u64 [s1 + 0x58]\n 34852: a1 = a1 - a2\n 34855: a1 = a1 - t2\n 34858: a1 = a1 - a0\n 34861: u64 [s1 + 0x38] = a1\n 34864: a0 = u64 [s1 + 0x48]\n 34867: a0 = a0 - ra\n 34870: a0 = a0 - t1\n 34873: u64 [s1 + 0x28] = a0\n 34876: a0 = u64 [s1 + 0x40]\n 34879: a0 = a0 - t0\n 34882: u64 [s1 + 0x20] = a0\n 34885: u64 [s1 + 632] = 0\n 34889: u64 [s1 + 624] = 0\n 34893: u64 [s1 + 616] = 0\n 34897: a1 = s1 + 0x260\n 34901: u64 [s1 + 608] = 0xa\n 34906: a0 = 0\n 34908: ra = 1636, jump @24\n      : @1344 [@dyn 818] (gas: 2)\n 34915: a1 = i32 [0x20150]\n 34920: jump @1346 if a1 >u 31\n      : @1345 (gas: 4)\n 34924: a1 = 0x20\n 34927: u32 [0x20150] = a1\n 34932: t0 = 0x666\n 34936: jump @2282\n      : @1346 (gas: 1)\n 34939: t0 = 1638, jump @2282\n      : @1347 [@dyn 819] (gas: 7)\n 34945: a0 = 0x20160\n 34950: i32 a0 = a0 + 0\n 34952: i32 a2 = a2 + 0\n 34954: a1 = 0x20\n 34957: ra = 0x668\n 34961: ecalli 11 // 'hash_keccak_256'\n 34963: fallthrough\n      : @1348 [@dyn 820] (gas: 22)\n 34964: a2 = u64 [s1 + 0x18]\n 34967: a0 = u64 [a2 + 0x18]\n 34970: a1 = u64 [a2 + 0x10]\n 34973: t0 = u64 [a2 + 0x8]\n 34976: a3 = u64 [a2]\n 34978: a0 = reverse a0\n 34980: a1 = reverse a1\n 34982: a4 = u64 [s1 + 0x28]\n 34985: a4 = a4 + a1\n 34988: a5 = u64 [s1 + 0x20]\n 34991: a5 = a5 + a0\n 34994: a0 = a5 <u a0\n 34997: a4 = a4 + a0\n 35000: a2 = a4 ^ a1\n 35003: a1 = a4 <u a1\n 35006: a1 = a0 if a2 == 0\n 35009: t1 = reverse a3\n 35011: a2 = reverse t0\n 35013: a3 = u64 [s1 + 0x30]\n 35016: a3 = a3 + a2\n 35019: a0 = u64 [s1 + 0x38]\n 35022: t0 = 1642, jump @2366\n      : @1349 [@dyn 821] (gas: 9)\n 35028: u64 [a2 + 0x80] = a5\n 35032: u64 [a2 + 0x88] = a4\n 35036: u64 [a2 + 0x90] = a1\n 35040: u64 [a2 + 0x98] = a0\n 35044: a0 = s1 + 0x240\n 35048: a1 = s1 + 0x380\n 35052: ra = 0x66c\n 35056: t0 = 0x6\n 35059: jump @2259\n      : @1350 [@dyn 822] (gas: 12)\n 35062: a0 = u64 [s1 + 0x240]\n 35066: a0 = a0 << 0x10\n 35069: a0 = a0 >> 0x10\n 35072: a1 = u64 [s1 + 0x78]\n 35075: a2 = u64 [s1 + 0x70]\n 35078: a1 = a1 | a2\n 35081: a2 = u64 [s1 + 0x60]\n 35084: a0 = a2 <u a0\n 35087: a2 = u64 [s1 + 0x68]\n 35090: a0 = 0 if a2 != 0\n 35092: a0 = 0 if a1 != 0\n 35094: jump @1352 if a0 == 0\n      : @1351 (gas: 9)\n 35097: a1 = 0\n 35099: a0 = 0\n 35101: t1 = 0\n 35103: t0 = 0\n 35105: a3 = u64 [s1 + 0x20]\n 35108: a2 = u64 [s1 + 0x28]\n 35111: a5 = u64 [s1 + 0x30]\n 35114: a4 = u64 [s1 + 0x38]\n 35117: jump @1327\n      : @1352 (gas: 11)\n 35120: a0 = u64 [s1 + 0x20]\n 35123: u64 [s1 + 0x200] = a0\n 35127: a0 = u64 [s1 + 0x28]\n 35130: u64 [s1 + 0x208] = a0\n 35134: a0 = u64 [s1 + 0x30]\n 35137: u64 [s1 + 0x210] = a0\n 35141: a0 = s1 + 0x220\n 35145: a1 = s1 + 0x200\n 35149: a2 = u64 [s1 + 0x38]\n 35152: u64 [s1 + 0x218] = a2\n 35156: ra = 1646, jump @1718\n      : @1353 [@dyn 823] (gas: 9)\n 35162: t0 = u64 [s1 + 0x238]\n 35166: t1 = u64 [s1 + 0x230]\n 35170: a0 = u64 [s1 + 0x228]\n 35174: a1 = u64 [s1 + 0x220]\n 35178: a4 = u64 [s1 + 0x58]\n 35181: a5 = u64 [s1 + 0x50]\n 35184: a2 = u64 [s1 + 0x48]\n 35187: a3 = u64 [s1 + 0x40]\n 35190: jump @1327\n      : @1354 (gas: 2)\n 35193: a1 = 0x20160\n 35198: jump @1356\n      : @1355 (gas: 2)\n 35200: a1 = 0x20160\n 35205: fallthrough\n      : @1356 (gas: 5)\n 35206: i32 a1 = a1 + 0\n 35208: a0 = 0x1\n 35211: a2 = 0\n 35213: ecalli 16 // 'seal_return'\n 35215: fallthrough\n      : @1357 (gas: 12)\n 35216: a0 = u64 [s1 + 0x60]\n 35219: u64 [s1 + 0x80] = a0\n 35223: a0 = u64 [s1 + 0x68]\n 35226: u64 [s1 + 0x88] = a0\n 35230: a0 = u64 [s1 + 0x70]\n 35233: u64 [s1 + 0x90] = a0\n 35237: a1 = s1 + 0x80\n 35241: a0 = u64 [s1 + 0x78]\n 35244: u64 [s1 + 0x98] = a0\n 35248: a0 = a3\n 35250: u64 [s1 + 0x78] = a3\n 35253: ra = 1648, jump @24\n      : @1358 [@dyn 824] (gas: 3)\n 35260: a1 = 0x20\n 35263: a0 = u64 [s1 + 0x78]\n 35266: ra = 1650, jump @37\n      : @1359 [@dyn 825] (gas: 1)\n 35273: t0 = 1652, jump @2280\n      : @1360 [@dyn 826] (gas: 3)\n 35279: ra = 0x676\n 35283: ecalli 16 // 'seal_return'\n 35285: fallthrough\n      : @1361 [@dyn 827] (gas: 13)\n 35286: sp = sp + 0xffffffffffffff00\n 35290: u64 [sp + 0xf8] = ra\n 35294: u64 [sp + 0xf0] = s0\n 35298: u64 [sp + 0xe8] = s1\n 35302: s0 = sp + 0x100\n 35306: sp = sp & 0xffffffffffffffe0\n 35309: u64 [sp + 184] = 0\n 35313: u64 [sp + 176] = 0\n 35317: u64 [sp + 168] = 0\n 35321: u64 [sp + 160] = 0\n 35325: i32 a0 = sp + 0xa0\n 35329: ecalli 19 // 'value_transferred'\n 35331: fallthrough\n      : @1362 (gas: 8)\n 35332: a0 = u64 [sp + 0xb0]\n 35336: a1 = u64 [sp + 0xb8]\n 35340: a2 = u64 [sp + 0xa8]\n 35344: a3 = u64 [sp + 0xa0]\n 35348: a1 = a1 | a2\n 35351: a0 = a0 | a3\n 35354: a0 = a0 | a1\n 35357: jump @1369 if a0 != 0\n      : @1363 (gas: 2)\n 35360: a0 = i32 [0x2014c]\n 35365: jump @1370 if a0 <=u 3\n      : @1364 (gas: 19)\n 35369: i32 a0 = sp + 0xc0\n 35373: ecalli 1 // 'block_number'\n 35375: a0 = u64 [sp + 0xd8]\n 35379: a1 = u64 [sp + 0xd0]\n 35383: a2 = u64 [sp + 0xc8]\n 35387: a3 = u64 [sp + 0xc0]\n 35391: u64 [sp + 0x18] = a0\n 35394: u64 [sp + 0x78] = a0\n 35397: u64 [sp + 0x10] = a1\n 35400: u64 [sp + 0x70] = a1\n 35403: u64 [sp + 0x8] = a2\n 35406: u64 [sp + 0x68] = a2\n 35409: a0 = sp + 0x80\n 35413: a1 = sp + 0x60\n 35416: u64 [sp] = a3\n 35418: u64 [sp + 0x60] = a3\n 35421: ra = 0x678\n 35425: t0 = 0x884\n 35429: jump @2372\n      : @1365 [@dyn 828] (gas: 3)\n 35432: a0 = sp + 0x40\n 35435: a1 = 0x40\n 35438: ra = 1658, jump @22\n      : @1366 [@dyn 829] (gas: 5)\n 35445: a0 = u64 [sp + 0x58]\n 35448: a1 = u64 [sp + 0x50]\n 35451: a2 = u64 [sp + 0x48]\n 35454: s1 = u64 [sp + 0x40]\n 35457: t0 = 1660, jump @2243\n      : @1367 [@dyn 830] (gas: 1)\n 35463: jump @1372 if a0 == 0\n      : @1368 (gas: 1)\n 35466: trap\n      : @1369 (gas: 2)\n 35467: a1 = 0x20160\n 35472: jump @1371\n      : @1370 (gas: 2)\n 35474: a1 = 0x20160\n 35479: fallthrough\n      : @1371 (gas: 7)\n 35480: i32 a1 = a1 + 0\n 35482: a0 = 0x1\n 35485: a2 = 0\n 35487: ra = 0x67e\n 35491: ecalli 16 // 'seal_return'\n 35493: t0 = 0x680\n 35497: jump @2284\n      : @1372 [@dyn 831] (gas: 1)\n 35500: t0 = 1664, jump @2284\n      : @1373 [@dyn 832] (gas: 1)\n 35506: ra = 1666, jump @24\n      : @1374 [@dyn 833] (gas: 3)\n 35513: a1 = 0x20\n 35516: a0 = s1\n 35518: ra = 1668, jump @37\n      : @1375 [@dyn 834] (gas: 1)\n 35525: t0 = 1670, jump @2280\n      : @1376 [@dyn 835] (gas: 4)\n 35531: ra = 0x688\n 35535: ecalli 16 // 'seal_return'\n 35537: t0 = 0x68a\n 35541: jump @2255\n      : @1377 [@dyn 836] (gas: 1)\n 35544: t0 = 1674, jump @2255\n      : @1378 [@dyn 837] (gas: 5)\n 35550: ra = 0x68c\n 35554: ecalli 19 // 'value_transferred'\n 35556: a4 = s1 + 0x200\n 35560: t0 = 0x68e\n 35564: jump @2362\n      : @1379 [@dyn 838] (gas: 2)\n 35567: a4 = s1 + 0x200\n 35571: t0 = 1678, jump @2362\n      : @1380 [@dyn 839] (gas: 1)\n 35577: jump @1424 if a0 != 0\n      : @1381 (gas: 2)\n 35581: a0 = i32 [0x2014c]\n 35586: jump @1425 if a0 <=u 3\n      : @1382 (gas: 3)\n 35591: a0 = s1 + 0x280\n 35595: a1 = 0x40\n 35598: ra = 1680, jump @22\n      : @1383 [@dyn 840] (gas: 1)\n 35605: t0 = 1682, jump @2270\n      : @1384 [@dyn 841] (gas: 6)\n 35611: u64 [s1 + 704] = 0x4\n 35616: a0 = s1 + 0x260\n 35620: a1 = s1 + 0x2c0\n 35624: ra = 0x694\n 35628: t0 = 0x6\n 35631: jump @2259\n      : @1385 [@dyn 842] (gas: 1)\n 35634: t0 = 1686, jump @2272\n      : @1386 [@dyn 843] (gas: 1)\n 35640: ra = 1688, jump @255\n      : @1387 [@dyn 844] (gas: 1)\n 35646: t0 = 1690, jump @2332\n      : @1388 [@dyn 845] (gas: 1)\n 35652: jump @1423 if a1 != 0\n      : @1389 (gas: 1)\n 35656: t0 = 1692, jump @2287\n      : @1390 [@dyn 846] (gas: 1)\n 35662: ra = 1694, jump @24\n      : @1391 [@dyn 847] (gas: 3)\n 35669: a3 = u64 [s1 + 0xb8]\n 35673: a0 = a3 & 0x1\n 35676: jump @1398 if a0 != 0\n      : @1392 (gas: 1)\n 35679: t0 = 1696, jump @2302\n      : @1393 [@dyn 848] (gas: 1)\n 35685: jump @1423 if a1 == 0\n      : @1394 (gas: 1)\n 35689: t0 = 1698, jump @2294\n      : @1395 [@dyn 849] (gas: 1)\n 35695: ra = 1700, jump @24\n      : @1396 [@dyn 850] (gas: 1)\n 35702: t0 = 1702, jump @2281\n      : @1397 [@dyn 851] (gas: 1)\n 35708: jump @1414\n      : @1398 (gas: 1)\n 35711: t0 = 1704, jump @2359\n      : @1399 [@dyn 852] (gas: 4)\n 35717: a1 = s1 + 0x1e0\n 35721: u64 [s1 + 480] = 0x4\n 35726: a0 = 0\n 35728: ra = 1706, jump @24\n      : @1400 [@dyn 853] (gas: 6)\n 35735: a0 = sp + 0xffffffffffffffe0\n 35738: a0 = a0 & 0xffffffffffffffe0\n 35741: u64 [s1 + 0x58] = a0\n 35744: sp = a0\n 35746: a1 = i32 [0x20150]\n 35751: jump @1402 if a1 >u 31\n      : @1401 (gas: 2)\n 35755: u32 [0x20150] = 0x20\n 35761: fallthrough\n      : @1402 (gas: 10)\n 35762: a0 = sp + 0xffffffffffffffe0\n 35765: a2 = a0 & 0xffffffffffffffe0\n 35768: u64 [s1 + 0xa8] = a2\n 35772: sp = a2\n 35774: a0 = 0x20160\n 35779: i32 a0 = a0 + 0\n 35781: i32 a2 = a2 + 0\n 35783: a1 = 0x20\n 35786: ecalli 11 // 'hash_keccak_256'\n 35788: t0 = 1708, jump @2230\n      : @1403 [@dyn 854] (gas: 18)\n 35794: t0 = u64 [s1 + 0x58]\n 35797: a3 = a2\n 35799: a5 = t0\n 35801: u64 [a5 + 0x18] = a2\n 35804: u64 [s1 + 0x80] = ra\n 35808: u64 [t0 + 0x10] = ra\n 35811: ra = a1\n 35813: u64 [a5 + 0x8] = a1\n 35816: a2 = a0\n 35818: u64 [a5] = a0\n 35820: a0 = u64 [s1 + 0x20]\n 35823: a4 = a4 + a0\n 35826: u64 [s1 + 0x40] = a4\n 35829: a0 = a4 <u a0\n 35832: a1 = u64 [s1 + 0x18]\n 35835: a0 = a0 + a1\n 35838: u64 [s1 + 0x38] = a0\n 35841: fallthrough\n      : @1404 (gas: 21)\n 35842: u64 [s1 + 0x88] = a3\n 35846: u64 [s1 + 0x90] = ra\n 35850: u64 [s1 + 0x98] = a2\n 35854: a0 = u64 [s1 + 0x60]\n 35857: a1 = u64 [s1 + 0xb8]\n 35861: a0 = a1 <u a0\n 35864: a2 = u64 [s1 + 0x70]\n 35867: a1 = t2 ^ a2\n 35870: a2 = t2 <u a2\n 35873: a2 = a0 if a1 == 0\n 35876: a4 = u64 [s1 + 0x68]\n 35879: a0 = t1 <u a4\n 35882: a3 = u64 [s1 + 0x78]\n 35885: a1 = u64 [s1 + 0xb0]\n 35889: a5 = a1 ^ a3\n 35892: a3 = a1 <u a3\n 35895: a3 = a0 if a5 == 0\n 35898: a0 = t1 ^ a4\n 35901: a0 = a0 | a5\n 35904: a3 = a2 if a0 == 0\n 35907: jump @1413 if a3 == 0\n      : @1405 (gas: 7)\n 35911: a0 = s1 + 0x1c0\n 35915: a1 = t0\n 35917: u64 [s1 + 0xa8] = t1\n 35921: u64 [s1 + 0xa0] = t2\n 35925: ra = 0x6ae\n 35929: t0 = 0x6\n 35932: jump @2259\n      : @1406 [@dyn 855] (gas: 1)\n 35935: t0 = 1712, jump @2245\n      : @1407 [@dyn 856] (gas: 6)\n 35941: t0 = a1 <u a5\n 35944: a5 = u64 [s1 + 0xb0]\n 35948: a3 = u64 [s1 + 0x38]\n 35951: a5 = a5 + a3\n 35954: a5 = a5 + t0\n 35957: t0 = 1714, jump @2322\n      : @1408 [@dyn 857] (gas: 1)\n 35963: jump @1423 if a1 != 0\n      : @1409 (gas: 1)\n 35967: t0 = 1716, jump @2304\n      : @1410 [@dyn 858] (gas: 1)\n 35973: ra = 1718, jump @24\n      : @1411 [@dyn 859] (gas: 31)\n 35980: t0 = u64 [s1 + 0x98]\n 35984: t0 = t0 + 0x1\n 35987: a0 = t0 <u 0x1\n 35990: a3 = u64 [s1 + 0x90]\n 35994: a3 = a3 + a0\n 35997: a0 = t0 | a3\n 36000: a0 = a0 <u 0x1\n 36003: a1 = u64 [s1 + 0x80]\n 36007: t2 = a1 + a0\n 36010: a1 = t2 <u a1\n 36013: a0 = u64 [s1 + 0x88]\n 36017: a0 = a0 + a1\n 36020: a1 = u64 [s1 + 0xb8]\n 36024: t1 = a1 + 0x20\n 36027: a2 = t1 <u a1\n 36030: a4 = u64 [s1 + 0xa0]\n 36034: a1 = a4 + a2\n 36037: a4 = a1 <u a4\n 36040: a4 = a2 if a2 == 0\n 36043: a2 = u64 [s1 + 0xa8]\n 36047: a4 = a4 + a2\n 36050: a2 = a4 <u a2\n 36053: a5 = u64 [s1 + 0xb0]\n 36057: a5 = a5 + a2\n 36060: u64 [s1 + 0xb0] = a5\n 36064: ra = a3\n 36066: a5 = u64 [s1 + 0x58]\n 36069: u64 [a5 + 0x8] = a3\n 36072: a2 = t0\n 36074: u64 [a5] = t0\n 36076: t0 = 1720, jump @2351\n      : @1412 [@dyn 860] (gas: 2)\n 36082: t0 = a5\n 36084: jump @1404\n      : @1413 (gas: 3)\n 36087: a5 = u64 [s1 + 0x30]\n 36090: t0 = 0x6ba\n 36094: jump @2219\n      : @1414 (gas: 1)\n 36097: t0 = 1722, jump @2219\n      : @1415 [@dyn 861] (gas: 1)\n 36103: ra = 1724, jump @149\n      : @1416 [@dyn 862] (gas: 3)\n 36109: a0 = s1 + 0x120\n 36113: a1 = 0x40\n 36116: ra = 1726, jump @22\n      : @1417 [@dyn 863] (gas: 1)\n 36123: t0 = 1728, jump @2233\n      : @1418 [@dyn 864] (gas: 1)\n 36129: ra = 1730, jump @871\n      : @1419 [@dyn 865] (gas: 7)\n 36135: a4 = u64 [s1 + 0xa8]\n 36139: a2 = u64 [s1 + 0xa0]\n 36143: a0 = u64 [s1 + 0xb8]\n 36147: a0 = a0 | a4\n 36150: a3 = u64 [s1 + 0xb0]\n 36154: a1 = a2 | a3\n 36157: t0 = 1732, jump @2313\n      : @1420 [@dyn 866] (gas: 1)\n 36163: jump @1423 if a0 != 0\n      : @1421 (gas: 26)\n 36166: t0 = a3\n 36168: a5 = s1 + 0x100\n 36172: a0 = u64 [a5 + 0x8]\n 36175: a1 = u64 [a5 + 0x18]\n 36178: u64 [s1 + 0x98] = a1\n 36182: t1 = u64 [s1 + 0x100]\n 36186: a3 = u64 [a5 + 0x10]\n 36189: t2 = a0 ^ a4\n 36192: a5 = a0 <u a4\n 36195: ra = t1 <u a2\n 36198: a5 = ra if t2 == 0\n 36201: a1 = a3 - t0\n 36204: t2 = a1 - a5\n 36207: a1 = a1 <u a5\n 36210: u64 [s1 + 0x90] = a1\n 36214: a3 = a3 <u t0\n 36217: a5 = u64 [s1 + 0xb8]\n 36221: a1 = u64 [s1 + 0x98]\n 36225: a5 = a1 - a5\n 36228: a5 = a5 - a3\n 36231: a1 = u64 [s1 + 0x90]\n 36235: a5 = a5 - a1\n 36238: a0 = a0 - a4\n 36241: a0 = a0 - ra\n 36244: a1 = t1 - a2\n 36247: t0 = 1734, jump @2220\n      : @1422 [@dyn 867] (gas: 1)\n 36253: jump @1427 if a0 == 0\n      : @1423 (gas: 1)\n 36256: trap\n      : @1424 (gas: 2)\n 36257: a1 = 0x20160\n 36262: jump @1426\n      : @1425 (gas: 2)\n 36264: a1 = 0x20160\n 36269: fallthrough\n      : @1426 (gas: 5)\n 36270: i32 a1 = a1 + 0\n 36272: a0 = 0x1\n 36275: a2 = 0\n 36277: ecalli 16 // 'seal_return'\n 36279: fallthrough\n      : @1427 (gas: 3)\n 36280: a0 = a2\n 36282: u64 [s1 + 0xb8] = a1\n 36286: ra = 1736, jump @37\n      : @1428 [@dyn 868] (gas: 6)\n 36293: i32 a1 = a0 + 0\n 36295: a2 = i32 [s1 + 0xb8]\n 36299: a0 = 0\n 36301: ra = 0x6ca\n 36305: ecalli 16 // 'seal_return'\n 36307: fallthrough\n      : @1429 [@dyn 869] (gas: 8)\n 36308: sp = sp + 0xfffffffffffffec0\n 36312: u64 [sp + 0x138] = ra\n 36316: u64 [sp + 0x130] = s0\n 36320: u64 [sp + 0x128] = s1\n 36324: s0 = sp + 0x140\n 36328: sp = sp & 0xffffffffffffffe0\n 36331: s1 = sp\n 36333: t0 = 1740, jump @2370\n      : @1430 [@dyn 870] (gas: 4)\n 36339: u64 [s1 + 256] = 0\n 36343: i32 a0 = s1 + 0x100\n 36347: ecalli 19 // 'value_transferred'\n 36349: fallthrough\n      : @1431 (gas: 9)\n 36350: a4 = s1 + 0x100\n 36354: a0 = u64 [a4 + 0x10]\n 36357: a1 = u64 [a4 + 0x18]\n 36360: a2 = u64 [a4 + 0x8]\n 36363: a3 = u64 [a4]\n 36365: a1 = a1 | a2\n 36368: a0 = a0 | a3\n 36371: a0 = a0 | a1\n 36374: jump @1446 if a0 != 0\n      : @1432 (gas: 3)\n 36378: a0 = i32 [0x2014c]\n 36383: a1 = 0x23\n 36386: jump @1447 if a1 >=u a0\n      : @1433 (gas: 4)\n 36390: a0 = s1 + 0xe0\n 36394: ra = 0x6ce\n 36398: t0 = 0x484\n 36402: jump @2251\n      : @1434 [@dyn 871] (gas: 10)\n 36405: a0 = u64 [s1 + 0xe0]\n 36409: a1 = u64 [s1 + 0xe8]\n 36413: a2 = u32 [s1 + 0xf0]\n 36417: u64 [s1 + 216] = 0\n 36421: u64 [s1 + 0xd0] = a2\n 36425: u64 [s1 + 0xc8] = a1\n 36429: a1 = s1 + 0xc0\n 36433: u64 [s1 + 0xc0] = a0\n 36437: a0 = 0\n 36439: ra = 1744, jump @24\n      : @1435 [@dyn 872] (gas: 7)\n 36446: u64 [s1 + 184] = 0\n 36450: u64 [s1 + 176] = 0\n 36454: u64 [s1 + 160] = 0x9\n 36459: a0 = 0x20\n 36462: a1 = s1 + 0xa0\n 36466: u64 [s1 + 168] = 0\n 36470: ra = 1746, jump @24\n      : @1436 [@dyn 873] (gas: 2)\n 36477: a1 = i32 [0x20150]\n 36482: jump @1438 if a1 >u 63\n      : @1437 (gas: 4)\n 36486: a1 = 0x40\n 36489: u32 [0x20150] = a1\n 36494: t0 = 0x6d4\n 36498: jump @2282\n      : @1438 (gas: 1)\n 36501: t0 = 1748, jump @2282\n      : @1439 [@dyn 874] (gas: 9)\n 36507: a0 = 0x20160\n 36512: i32 a0 = a0 + 0\n 36514: i32 a2 = a2 + 0\n 36516: a1 = 0x40\n 36519: ra = 0x6d6\n 36523: ecalli 11 // 'hash_keccak_256'\n 36525: a3 = u64 [s1 + 0x18]\n 36528: t0 = 0x6d8\n 36532: jump @2224\n      : @1440 [@dyn 875] (gas: 2)\n 36535: a3 = u64 [s1 + 0x18]\n 36538: t0 = 1752, jump @2224\n      : @1441 [@dyn 876] (gas: 7)\n 36544: u64 [s1 + 0x78] = a2\n 36547: u64 [s1 + 0x70] = a1\n 36550: u64 [s1 + 0x68] = a0\n 36553: a0 = s1 + 0x80\n 36557: a1 = s1 + 0x60\n 36560: u64 [s1 + 0x60] = a4\n 36563: ra = 1754, jump @1744\n      : @1442 [@dyn 877] (gas: 11)\n 36569: a0 = u64 [s1 + 0x98]\n 36573: u64 [s1 + 0x18] = a0\n 36576: a0 = u64 [s1 + 0x90]\n 36580: u64 [s1 + 0x10] = a0\n 36583: a0 = u64 [s1 + 0x88]\n 36587: u64 [s1 + 0x8] = a0\n 36590: a0 = u64 [s1 + 0x80]\n 36594: u64 [s1] = a0\n 36596: a0 = s1 + 0x40\n 36599: a1 = 0x40\n 36602: ra = 1756, jump @22\n      : @1443 [@dyn 878] (gas: 5)\n 36609: a0 = u64 [s1 + 0x58]\n 36612: a1 = u64 [s1 + 0x50]\n 36615: a2 = u64 [s1 + 0x48]\n 36618: a3 = u64 [s1 + 0x40]\n 36621: t0 = 1758, jump @2244\n      : @1444 [@dyn 879] (gas: 1)\n 36627: jump @1449 if a0 == 0\n      : @1445 (gas: 1)\n 36630: trap\n      : @1446 (gas: 2)\n 36631: a1 = 0x20160\n 36636: jump @1448\n      : @1447 (gas: 2)\n 36638: a1 = 0x20160\n 36643: fallthrough\n      : @1448 (gas: 7)\n 36644: i32 a1 = a1 + 0\n 36646: a0 = 0x1\n 36649: a2 = 0\n 36651: ra = 0x6e0\n 36655: ecalli 16 // 'seal_return'\n 36657: t0 = 0x6e2\n 36661: jump @2325\n      : @1449 [@dyn 880] (gas: 1)\n 36664: t0 = 1762, jump @2325\n      : @1450 [@dyn 881] (gas: 1)\n 36670: ra = 1764, jump @24\n      : @1451 [@dyn 882] (gas: 3)\n 36677: a1 = 0x20\n 36680: a0 = u64 [s1 + 0x18]\n 36683: ra = 1766, jump @37\n      : @1452 [@dyn 883] (gas: 1)\n 36690: t0 = 1768, jump @2280\n      : @1453 [@dyn 884] (gas: 3)\n 36696: ra = 0x6ea\n 36700: ecalli 16 // 'seal_return'\n 36702: fallthrough\n      : @1454 [@dyn 885] (gas: 13)\n 36703: sp = sp + 0xfffffffffffffea0\n 36707: u64 [sp + 0x158] = ra\n 36711: u64 [sp + 0x150] = s0\n 36715: u64 [sp + 0x148] = s1\n 36719: s0 = sp + 0x160\n 36723: sp = sp & 0xffffffffffffffe0\n 36726: u64 [sp + 280] = 0\n 36730: u64 [sp + 272] = 0\n 36734: u64 [sp + 264] = 0\n 36738: u64 [sp + 256] = 0\n 36742: i32 a0 = sp + 0x100\n 36746: ecalli 19 // 'value_transferred'\n 36748: fallthrough\n      : @1455 (gas: 8)\n 36749: a0 = u64 [sp + 0x110]\n 36753: a1 = u64 [sp + 0x118]\n 36757: a2 = u64 [sp + 0x108]\n 36761: a3 = u64 [sp + 0x100]\n 36765: a1 = a1 | a2\n 36768: a0 = a0 | a3\n 36771: a0 = a0 | a1\n 36774: jump @1465 if a0 != 0\n      : @1456 (gas: 3)\n 36778: a0 = i32 [0x2014c]\n 36783: a1 = 0x43\n 36786: jump @1466 if a1 >=u a0\n      : @1457 (gas: 4)\n 36790: a0 = sp + 0xe0\n 36794: ra = 0x6ec\n 36798: t0 = 0x484\n 36802: jump @2251\n      : @1458 [@dyn 886] (gas: 25)\n 36805: a0 = u64 [sp + 0xe0]\n 36809: u64 [sp + 0x38] = a0\n 36812: a0 = u64 [sp + 0xe8]\n 36816: u64 [sp + 0x30] = a0\n 36819: a0 = u64 [sp + 0xf0]\n 36823: u64 [sp + 0x28] = a0\n 36826: a0 = u64 [sp + 0xf8]\n 36830: u64 [sp + 0x20] = a0\n 36833: i32 a0 = sp + 0x120\n 36837: a1 = 0x24\n 36840: ecalli 4 // 'call_data_load'\n 36842: a0 = u64 [sp + 0x120]\n 36846: u64 [sp + 0x18] = a0\n 36849: a0 = u64 [sp + 0x128]\n 36853: u64 [sp + 0x10] = a0\n 36856: a0 = u64 [sp + 0x130]\n 36860: u64 [sp + 0x8] = a0\n 36863: a0 = u64 [sp + 0x138]\n 36867: u64 [sp] = a0\n 36869: s1 = 0x30160\n 36874: i32 a0 = s1 + 0\n 36876: ra = 0x6ee\n 36880: ecalli 6 // 'caller'\n 36882: t0 = 0x6f0\n 36886: jump @2267\n      : @1459 [@dyn 887] (gas: 1)\n 36889: t0 = 1776, jump @2267\n      : @1460 [@dyn 888] (gas: 23)\n 36895: u64 [sp + 0x98] = a2\n 36899: a2 = u64 [sp + 0x8]\n 36902: u64 [sp + 0x90] = a2\n 36906: a2 = u64 [sp + 0x10]\n 36909: u64 [sp + 0x88] = a2\n 36913: a2 = u64 [sp + 0x18]\n 36916: u64 [sp + 0x80] = a2\n 36920: a2 = u64 [sp + 0x20]\n 36923: u64 [sp + 0xb8] = a2\n 36927: a2 = u64 [sp + 0x28]\n 36930: u64 [sp + 0xb0] = a2\n 36934: a2 = u64 [sp + 0x30]\n 36937: u64 [sp + 0xa8] = a2\n 36941: a2 = u64 [sp + 0x38]\n 36944: u64 [sp + 0xa0] = a2\n 36948: u64 [sp + 216] = 0\n 36952: u64 [sp + 0xd0] = a1\n 36956: u64 [sp + 0xc8] = a0\n 36960: a0 = sp + 0xc0\n 36964: a1 = sp + 0xa0\n 36968: a2 = sp + 0x80\n 36972: u64 [sp + 0xc0] = a3\n 36976: ra = 1778, jump @1669\n      : @1461 [@dyn 889] (gas: 3)\n 36982: a0 = sp + 0x60\n 36985: a1 = 0x40\n 36988: ra = 1780, jump @22\n      : @1462 [@dyn 890] (gas: 5)\n 36995: a0 = u64 [sp + 0x78]\n 36998: a1 = u64 [sp + 0x70]\n 37001: a2 = u64 [sp + 0x68]\n 37004: s1 = u64 [sp + 0x60]\n 37007: t0 = 1782, jump @2243\n      : @1463 [@dyn 891] (gas: 1)\n 37013: jump @1468 if a0 == 0\n      : @1464 (gas: 1)\n 37016: trap\n      : @1465 (gas: 2)\n 37017: a1 = 0x20160\n 37022: jump @1467\n      : @1466 (gas: 2)\n 37024: a1 = 0x20160\n 37029: fallthrough\n      : @1467 (gas: 5)\n 37030: i32 a1 = a1 + 0\n 37032: a0 = 0x1\n 37035: a2 = 0\n 37037: ecalli 16 // 'seal_return'\n 37039: fallthrough\n      : @1468 (gas: 7)\n 37040: u64 [sp + 88] = 0\n 37043: u64 [sp + 80] = 0\n 37046: u64 [sp + 72] = 0\n 37049: a1 = sp + 0x40\n 37052: u64 [sp + 64] = 0x1\n 37056: a0 = s1\n 37058: ra = 1784, jump @24\n      : @1469 [@dyn 892] (gas: 3)\n 37065: a1 = 0x20\n 37068: a0 = s1\n 37070: ra = 1786, jump @37\n      : @1470 [@dyn 893] (gas: 1)\n 37077: t0 = 1788, jump @2280\n      : @1471 [@dyn 894] (gas: 4)\n 37083: ra = 0x6fe\n 37087: ecalli 16 // 'seal_return'\n 37089: t0 = 0x700\n 37093: jump @2251\n      : @1472 [@dyn 895] (gas: 1)\n 37096: t0 = 1792, jump @2251\n      : @1473 [@dyn 896] (gas: 3)\n 37102: a1 = 0x84\n 37106: ecalli 4 // 'call_data_load'\n 37108: t0 = 1794, jump @2228\n      : @1474 [@dyn 897] (gas: 1)\n 37114: ret\n      : @1475 [@dyn 898] (gas: 3)\n 37116: a1 = 0xa4\n 37120: ecalli 4 // 'call_data_load'\n 37122: t0 = 1798, jump @2228\n      : @1476 [@dyn 899] (gas: 1)\n 37128: ret\n      : @1477 (gas: 9)\n 37130: a4 = s1 + 0x400\n 37134: a0 = u64 [a4 + 0xf0]\n 37138: a1 = u64 [a4 + 0xf8]\n 37142: a2 = u64 [a4 + 0xe8]\n 37146: a3 = u64 [a4 + 0xe0]\n 37150: a1 = a1 | a2\n 37153: a0 = a0 | a3\n 37156: a0 = a0 | a1\n 37159: jump @1516 if a0 != 0\n      : @1478 (gas: 3)\n 37163: a0 = i32 [0x2014c]\n 37168: a1 = 0xc3\n 37172: jump @1517 if a1 >=u a0\n      : @1479 (gas: 4)\n 37176: a0 = s1 + 0x4c0\n 37180: ra = 0x708\n 37184: t0 = 0x484\n 37188: jump @2251\n      : @1480 [@dyn 900] (gas: 12)\n 37191: a0 = u64 [s1 + 0x4d8]\n 37195: u64 [s1 + 0xa0] = a0\n 37199: a0 = u64 [s1 + 0x4d0]\n 37203: u64 [s1 + 0xc8] = a0\n 37207: a0 = u64 [s1 + 0x4c8]\n 37211: u64 [s1 + 0xd0] = a0\n 37215: a0 = u64 [s1 + 0x4c0]\n 37219: u64 [s1 + 0xd8] = a0\n 37223: a0 = s1 + 0x4a0\n 37227: ra = 0x70a\n 37231: t0 = 0x498\n 37235: jump @2329\n      : @1481 [@dyn 901] (gas: 12)\n 37238: a0 = u64 [s1 + 0x4b8]\n 37242: u64 [s1 + 0xa8] = a0\n 37246: a0 = u64 [s1 + 0x4b0]\n 37250: u64 [s1 + 0xb0] = a0\n 37254: a0 = u64 [s1 + 0x4a8]\n 37258: u64 [s1 + 0xb8] = a0\n 37262: a0 = u64 [s1 + 0x4a0]\n 37266: u64 [s1 + 0xc0] = a0\n 37270: a0 = s1 + 0x480\n 37274: ra = 0x70c\n 37278: t0 = 0x49c\n 37282: jump @2251\n      : @1482 [@dyn 902] (gas: 14)\n 37285: a1 = s1 + 0x400\n 37289: a0 = u64 [a1 + 0x98]\n 37293: a2 = s1 + 0x100\n 37297: u64 [a2 + 0x18] = a0\n 37300: a0 = u64 [a1 + 0x90]\n 37304: u64 [a2 + 0x8] = a0\n 37307: a0 = u64 [a1 + 0x88]\n 37311: u64 [a2] = a0\n 37313: a0 = u64 [a1 + 0x80]\n 37317: u64 [a2 + 0x10] = a0\n 37320: i32 a0 = s1 + 0x500\n 37324: a1 = 0x64\n 37327: ecalli 4 // 'call_data_load'\n 37329: fallthrough\n      : @1483 (gas: 14)\n 37330: a4 = s1 + 0x500\n 37334: a2 = u64 [a4 + 0x18]\n 37337: a0 = u64 [a4 + 0x10]\n 37340: a1 = u64 [a4]\n 37342: a3 = u64 [a4 + 0x8]\n 37345: u64 [s1 + 0x90] = a0\n 37349: u64 [s1 + 0x88] = a2\n 37353: a0 = a0 | a2\n 37356: u64 [s1 + 0x98] = a1\n 37360: a1 = a1 <u 0x100\n 37364: u64 [s1 + 0x80] = a3\n 37368: a1 = 0 if a3 != 0\n 37370: a1 = 0 if a0 != 0\n 37372: jump @1518 if a1 == 0\n      : @1484 (gas: 4)\n 37376: a0 = s1 + 0x460\n 37380: ra = 0x70e\n 37384: t0 = 0x700\n 37388: jump @2251\n      : @1485 [@dyn 903] (gas: 12)\n 37391: a0 = u64 [s1 + 0x478]\n 37395: u64 [s1 + 0x60] = a0\n 37398: a0 = u64 [s1 + 0x470]\n 37402: u64 [s1 + 0x68] = a0\n 37405: a0 = u64 [s1 + 0x468]\n 37409: u64 [s1 + 0x70] = a0\n 37412: a0 = u64 [s1 + 0x460]\n 37416: u64 [s1 + 0x78] = a0\n 37419: a0 = s1 + 0x440\n 37423: ra = 0x710\n 37427: t0 = 0x704\n 37431: jump @2251\n      : @1486 [@dyn 904] (gas: 12)\n 37434: a1 = s1 + 0x400\n 37438: a0 = u64 [a1 + 0x58]\n 37441: u64 [s1 + 0x40] = a0\n 37444: a0 = u64 [a1 + 0x50]\n 37447: u64 [s1 + 0x48] = a0\n 37450: a0 = u64 [a1 + 0x48]\n 37453: u64 [s1 + 0x50] = a0\n 37456: a0 = u64 [a1 + 0x40]\n 37459: u64 [s1 + 0x58] = a0\n 37462: i32 a0 = s1 + 0x520\n 37466: ecalli 12 // 'now'\n 37468: fallthrough\n      : @1487 (gas: 21)\n 37469: a1 = s1 + 0x500\n 37473: a0 = u64 [a1 + 0x38]\n 37476: t0 = u64 [s1 + 0x520]\n 37480: a2 = u64 [a1 + 0x30]\n 37483: a3 = u64 [a1 + 0x28]\n 37486: a1 = u64 [s1 + 0x118]\n 37490: a4 = a0 ^ a1\n 37493: a1 = a1 <u a0\n 37496: a0 = u64 [s1 + 0x108]\n 37500: a5 = a0 <u a2\n 37503: a5 = a1 if a4 != 0\n 37506: a1 = u64 [s1 + 0x100]\n 37510: t1 = a3 ^ a1\n 37513: a3 = a1 <u a3\n 37516: a1 = u64 [s1 + 0x110]\n 37520: a1 = a1 <u t0\n 37523: a1 = a3 if t1 != 0\n 37526: a0 = a0 ^ a2\n 37529: a0 = a0 | a4\n 37532: a1 = a5 if a0 != 0\n 37535: jump @1519 if a1 != 0\n      : @1488 (gas: 3)\n 37539: a0 = s1 + 0x420\n 37543: a1 = 0x40\n 37546: ra = 1810, jump @22\n      : @1489 [@dyn 905] (gas: 20)\n 37553: t0 = u64 [s1 + 0x420]\n 37557: t1 = u64 [s1 + 0x438]\n 37561: t2 = u64 [s1 + 0x428]\n 37565: a5 = u64 [s1 + 0x430]\n 37569: a4 = t0 + 0x20\n 37572: a0 = a4 <u t0\n 37575: a1 = t2 + a0\n 37578: a2 = a1 <u t2\n 37581: a2 = a0 if a0 == 0\n 37584: a2 = a2 + a5\n 37587: a0 = a2 <u a5\n 37590: a0 = a0 + t1\n 37593: a3 = a4 | a2\n 37596: a0 = a0 | a1\n 37599: a3 = a3 | a0\n 37602: a3 = a3 >> 0x20\n 37605: a0 = a0 | a2\n 37608: a0 = a0 << 0x20\n 37611: a0 = a0 | a3\n 37614: jump @1515 if a0 != 0\n      : @1490 (gas: 17)\n 37618: a0 = u64 [0x20098]\n 37623: a3 = s1 + 0x400\n 37627: u64 [a3 + 0x18] = a0\n 37630: a0 = u64 [0x200a0]\n 37635: a1 = u64 [0x200a8]\n 37640: a2 = u64 [0x200b0]\n 37645: u64 [a3 + 0x10] = a0\n 37648: u64 [a3 + 0x8] = a1\n 37651: a1 = s1 + 0x400\n 37655: u64 [a3] = a2\n 37657: u64 [s1 + 0x38] = a4\n 37660: a0 = a4\n 37662: u64 [s1 + 0xf8] = t0\n 37666: u64 [s1 + 0xf0] = t2\n 37670: u64 [s1 + 0xe8] = t1\n 37674: u64 [s1 + 0xe0] = a5\n 37678: ra = 1812, jump @24\n      : @1491 [@dyn 906] (gas: 12)\n 37685: a4 = u64 [s1 + 0xe0]\n 37689: a3 = u64 [s1 + 0xf0]\n 37693: a1 = u64 [s1 + 0xf8]\n 37697: a0 = a1 + 0x40\n 37700: a1 = a0 <u a1\n 37703: a2 = a3 + a1\n 37706: a3 = a2 <u a3\n 37709: a3 = a1 if a1 == 0\n 37712: a3 = a3 + a4\n 37715: a1 = a3 <u a4\n 37718: a4 = u64 [s1 + 0xe8]\n 37722: t0 = 1814, jump @2211\n      : @1492 [@dyn 907] (gas: 1)\n 37728: jump @1515 if a1 != 0\n      : @1493 (gas: 12)\n 37732: a1 = u64 [s1 + 0xc8]\n 37736: a1 = a1 << 0x20\n 37739: a1 = a1 >> 0x20\n 37742: u64 [s1 + 1016] = 0\n 37746: a2 = u64 [s1 + 0xd8]\n 37750: a3 = s1 + 0x300\n 37754: u64 [a3 + 0xe0] = a2\n 37758: u64 [a3 + 0xf0] = a1\n 37762: a1 = s1 + 0x3e0\n 37766: a2 = u64 [s1 + 0xd0]\n 37770: u64 [a3 + 0xe8] = a2\n 37774: ra = 1816, jump @24\n      : @1494 [@dyn 908] (gas: 12)\n 37781: a4 = u64 [s1 + 0xe0]\n 37785: a3 = u64 [s1 + 0xf0]\n 37789: a1 = u64 [s1 + 0xf8]\n 37793: a0 = a1 + 0x60\n 37796: a1 = a0 <u a1\n 37799: a2 = a3 + a1\n 37802: a3 = a2 <u a3\n 37805: a3 = a1 if a1 == 0\n 37808: a3 = a3 + a4\n 37811: a1 = a3 <u a4\n 37814: a4 = u64 [s1 + 0xe8]\n 37818: t0 = 1818, jump @2211\n      : @1495 [@dyn 909] (gas: 1)\n 37824: jump @1515 if a1 != 0\n      : @1496 (gas: 11)\n 37828: a1 = u64 [s1 + 0xc0]\n 37832: a3 = s1 + 0x300\n 37836: u64 [a3 + 0xc0] = a1\n 37840: a1 = u64 [s1 + 0xb8]\n 37844: u64 [a3 + 0xc8] = a1\n 37848: a1 = u64 [s1 + 0xb0]\n 37852: u64 [a3 + 0xd0] = a1\n 37856: a1 = s1 + 0x3c0\n 37860: a2 = u64 [s1 + 0xa8]\n 37864: u64 [a3 + 0xd8] = a2\n 37868: ra = 1820, jump @24\n      : @1497 [@dyn 910] (gas: 12)\n 37875: a4 = u64 [s1 + 0xe0]\n 37879: a3 = u64 [s1 + 0xf0]\n 37883: a1 = u64 [s1 + 0xf8]\n 37887: a0 = a1 + 0x80\n 37891: a1 = a0 <u a1\n 37894: a2 = a3 + a1\n 37897: a3 = a2 <u a3\n 37900: a3 = a1 if a1 == 0\n 37903: a3 = a3 + a4\n 37906: a1 = a3 <u a4\n 37909: a4 = u64 [s1 + 0xe8]\n 37913: t0 = 1822, jump @2211\n      : @1498 [@dyn 911] (gas: 1)\n 37919: jump @1515 if a1 != 0\n      : @1499 (gas: 12)\n 37923: a3 = s1 + 0x100\n 37927: a1 = u64 [a3 + 0x10]\n 37930: a4 = s1 + 0x300\n 37934: u64 [a4 + 0xa0] = a1\n 37938: a1 = u64 [a3]\n 37940: u64 [a4 + 0xa8] = a1\n 37944: a1 = u64 [a3 + 0x8]\n 37947: u64 [a4 + 0xb0] = a1\n 37951: a1 = s1 + 0x3a0\n 37955: a2 = u64 [a3 + 0x18]\n 37958: u64 [a4 + 0xb8] = a2\n 37962: ra = 1824, jump @24\n      : @1500 [@dyn 912] (gas: 12)\n 37969: a5 = u64 [s1 + 0xe0]\n 37973: a4 = u64 [s1 + 0xe8]\n 37977: a3 = u64 [s1 + 0xf0]\n 37981: a0 = u64 [s1 + 0xf8]\n 37985: a2 = a0 | a5\n 37988: a1 = a3 | a4\n 37991: a2 = a2 | a1\n 37994: a2 = a2 >> 0x20\n 37997: a1 = a1 | a5\n 38000: a1 = a1 << 0x20\n 38003: a1 = a1 | a2\n 38006: jump @1515 if a1 != 0\n      : @1501 (gas: 1)\n 38010: t0 = 1826, jump @2358\n      : @1502 [@dyn 913] (gas: 3)\n 38016: a1 = s1 + 0x380\n 38020: u64 [s1 + 896] = 0x80\n 38026: ra = 1828, jump @24\n      : @1503 [@dyn 914] (gas: 15)\n 38033: u64 [s1 + 856] = 0\n 38037: u64 [s1 + 848] = 0\n 38041: u64 [s1 + 840] = 0\n 38045: u64 [s1 + 832] = 0xa0\n 38051: a0 = u64 [s1 + 0xe8]\n 38055: u64 [s1 + 0x378] = a0\n 38059: a0 = u64 [s1 + 0xe0]\n 38063: u64 [s1 + 0x370] = a0\n 38067: a0 = u64 [s1 + 0xf0]\n 38071: u64 [s1 + 0x368] = a0\n 38075: a0 = s1 + 0x360\n 38079: a1 = s1 + 0x340\n 38083: a2 = u64 [s1 + 0xf8]\n 38087: u64 [s1 + 0x360] = a2\n 38091: ra = 1830, jump @149\n      : @1504 [@dyn 915] (gas: 3)\n 38098: a0 = s1 + 0x320\n 38102: a1 = u64 [s1 + 0xf8]\n 38106: ra = 1832, jump @22\n      : @1505 [@dyn 916] (gas: 6)\n 38113: a4 = s1 + 0x300\n 38117: a0 = u64 [a4 + 0x38]\n 38120: a3 = u64 [a4 + 0x30]\n 38123: a2 = u64 [a4 + 0x28]\n 38126: a1 = u64 [a4 + 0x20]\n 38129: t0 = 1834, jump @2333\n      : @1506 [@dyn 917] (gas: 1)\n 38135: jump @1515 if a0 != 0\n      : @1507 (gas: 3)\n 38139: a0 = u64 [s1 + 0x38]\n 38142: u64 [s1 + 0x118] = a1\n 38146: ra = 1836, jump @37\n      : @1508 [@dyn 918] (gas: 19)\n 38153: a1 = sp + 0xffffffffffffffe0\n 38156: a2 = a1 & 0xffffffffffffffe0\n 38159: u64 [s1 + 0x110] = a2\n 38163: sp = a2\n 38165: i32 a0 = a0 + 0\n 38167: a1 = i32 [s1 + 0x118]\n 38171: i32 a2 = a2 + 0\n 38173: ecalli 11 // 'hash_keccak_256'\n 38175: a1 = u64 [s1 + 0x110]\n 38179: a0 = u64 [a1 + 0x18]\n 38182: u64 [s1 + 0x30] = a0\n 38185: a0 = u64 [a1 + 0x10]\n 38188: u64 [s1 + 0x38] = a0\n 38191: a0 = u64 [a1 + 0x8]\n 38194: u64 [s1 + 0xe0] = a0\n 38198: a0 = u64 [a1]\n 38200: u64 [s1 + 0xe8] = a0\n 38204: a0 = s1 + 0x300\n 38208: ra = 1838, jump @1970\n      : @1509 [@dyn 919] (gas: 12)\n 38214: a1 = s1 + 0x300\n 38218: a0 = u64 [a1 + 0x18]\n 38221: u64 [s1 + 0x110] = a0\n 38225: a0 = u64 [a1 + 0x10]\n 38228: u64 [s1 + 0x108] = a0\n 38232: a0 = u64 [a1 + 0x8]\n 38235: u64 [s1 + 0xf8] = a0\n 38239: a0 = u64 [a1]\n 38241: u64 [s1 + 0xf0] = a0\n 38245: a0 = s1 + 0x2e0\n 38249: a1 = 0x40\n 38252: ra = 1840, jump @22\n      : @1510 [@dyn 920] (gas: 13)\n 38259: a1 = s1 + 0x200\n 38263: a4 = u64 [a1 + 0xf8]\n 38267: a5 = u64 [a1 + 0xf0]\n 38271: a3 = u64 [a1 + 0xe8]\n 38275: a0 = u64 [a1 + 0xe0]\n 38279: a2 = a3 | a4\n 38282: a1 = a0 | a5\n 38285: a1 = a1 | a2\n 38288: a1 = a1 >> 0x20\n 38291: a2 = a2 | a5\n 38294: a2 = a2 << 0x20\n 38297: a1 = a1 | a2\n 38300: jump @1515 if a1 != 0\n      : @1511 (gas: 11)\n 38304: u64 [s1 + 720] = 0\n 38308: u64 [s1 + 712] = 0\n 38312: u64 [s1 + 704] = 0\n 38316: a2 = 0x1901000000000000\n 38326: a1 = s1 + 0x2c0\n 38330: u64 [s1 + 0x2d8] = a2\n 38334: u64 [s1 + 0x118] = a0\n 38338: u64 [s1 + 0x100] = a3\n 38342: u64 [s1 + 0x28] = a4\n 38345: u64 [s1 + 0x20] = a5\n 38348: ra = 1842, jump @24\n      : @1512 [@dyn 921] (gas: 11)\n 38355: a3 = u64 [s1 + 0x100]\n 38359: a1 = u64 [s1 + 0x118]\n 38363: a0 = u64 [s1 + 0x28]\n 38366: a2 = u64 [s1 + 0x20]\n 38369: a2 = a2 | a0\n 38372: a4 = 0x100000000\n 38382: a0 = 0xfffffffe\n 38392: a0 = a1 <u a0\n 38395: a0 = 0 if a3 != 0\n 38397: a0 = 0 if a2 != 0\n 38399: jump @1515 if a0 == 0\n      : @1513 (gas: 14)\n 38402: i32 a0 = a1 + 0x2\n 38405: a1 = u64 [s1 + 0xf0]\n 38409: a3 = s1 + 0x200\n 38413: u64 [a3 + 0xa0] = a1\n 38417: a1 = u64 [s1 + 0xf8]\n 38421: u64 [a3 + 0xa8] = a1\n 38425: a1 = u64 [s1 + 0x108]\n 38429: u64 [a3 + 0xb0] = a1\n 38433: a1 = s1 + 0x2a0\n 38437: u64 [s1 + 0x108] = a2\n 38441: a2 = u64 [s1 + 0x110]\n 38445: u64 [a3 + 0xb8] = a2\n 38449: u64 [s1 + 0x110] = a4\n 38453: ra = 1844, jump @24\n      : @1514 [@dyn 922] (gas: 10)\n 38460: a2 = s1 + 0x100\n 38464: a5 = u64 [a2 + 0x18]\n 38467: a0 = u64 [a2 + 0x10]\n 38470: a0 = a0 + 0xffffffffffffffde\n 38473: a0 = a5 <u a0\n 38476: a1 = u64 [a2]\n 38478: a0 = 0 if a1 != 0\n 38480: a1 = u64 [a2 + 0x8]\n 38483: a0 = 0 if a1 != 0\n 38485: jump @1524 if a0 != 0\n      : @1515 (gas: 1)\n 38489: trap\n      : @1516 (gas: 6)\n 38490: a1 = 0x20160\n 38495: i32 a1 = a1 + 0\n 38497: a0 = 0x1\n 38500: a2 = 0\n 38502: ecalli 16 // 'seal_return'\n 38504: jump @1519\n      : @1517 (gas: 6)\n 38506: a1 = 0x20160\n 38511: i32 a1 = a1 + 0\n 38513: a0 = 0x1\n 38516: a2 = 0\n 38518: ecalli 16 // 'seal_return'\n 38520: jump @1519\n      : @1518 (gas: 6)\n 38522: a1 = 0x20160\n 38527: i32 a1 = a1 + 0\n 38529: a0 = 0x1\n 38532: a2 = 0\n 38534: ecalli 16 // 'seal_return'\n 38536: fallthrough\n      : @1519 (gas: 8)\n 38537: u64 [s1 + 336] = 0\n 38541: u64 [s1 + 328] = 0\n 38545: u64 [s1 + 320] = 0\n 38549: a0 = 0x4683af0e00000000\n 38559: a1 = s1 + 0x140\n 38563: u64 [s1 + 0x158] = a0\n 38567: a0 = 0\n 38569: ra = 1846, jump @24\n      : @1520 [@dyn 923] (gas: 12)\n 38576: a3 = s1 + 0x100\n 38580: a0 = u64 [a3 + 0x18]\n 38583: u64 [a3 + 0x38] = a0\n 38586: a0 = u64 [a3 + 0x8]\n 38589: u64 [a3 + 0x30] = a0\n 38592: a0 = u64 [a3]\n 38594: u64 [a3 + 0x28] = a0\n 38597: a0 = 0x4\n 38600: a1 = s1 + 0x120\n 38604: a2 = u64 [a3 + 0x10]\n 38607: u64 [a3 + 0x20] = a2\n 38610: ra = 1848, jump @24\n      : @1521 [@dyn 924] (gas: 2)\n 38617: a1 = i32 [0x20150]\n 38622: jump @1523 if a1 >u 63\n      : @1522 (gas: 2)\n 38626: u32 [0x20150] = 0x40\n 38632: fallthrough\n      : @1523 (gas: 6)\n 38633: a1 = 0x20160\n 38638: i32 a1 = a1 + 0\n 38640: a0 = 0x1\n 38643: a2 = 0x24\n 38646: ecalli 16 // 'seal_return'\n 38648: fallthrough\n      : @1524 (gas: 15)\n 38649: a0 = u64 [s1 + 0x30]\n 38652: a2 = reverse a0\n 38654: a0 = u64 [s1 + 0x38]\n 38657: a1 = reverse a0\n 38659: a0 = u64 [s1 + 0xe0]\n 38663: a3 = reverse a0\n 38665: a0 = u64 [s1 + 0xe8]\n 38669: a4 = reverse a0\n 38671: i32 a0 = a5 + 0x22\n 38674: u64 [s1 + 0x298] = a4\n 38678: u64 [s1 + 0x290] = a3\n 38682: u64 [s1 + 0x288] = a1\n 38686: a1 = s1 + 0x280\n 38690: u64 [s1 + 0x280] = a2\n 38694: ra = 1850, jump @24\n      : @1525 [@dyn 925] (gas: 3)\n 38701: a1 = 0x42\n 38704: a0 = u64 [s1 + 0x118]\n 38708: ra = 1852, jump @37\n      : @1526 [@dyn 926] (gas: 10)\n 38715: a1 = sp + 0xffffffffffffffe0\n 38718: a1 = a1 & 0xffffffffffffffe0\n 38721: u64 [s1 + 0x118] = a1\n 38725: sp = a1\n 38727: i32 a0 = a0 + 0\n 38729: i32 a2 = a1 + 0\n 38731: a1 = 0x42\n 38734: ra = 0x73e\n 38738: ecalli 11 // 'hash_keccak_256'\n 38740: fallthrough\n      : @1527 [@dyn 927] (gas: 33)\n 38741: a3 = u64 [s1 + 0x118]\n 38745: a0 = u64 [a3 + 0x18]\n 38748: a1 = u64 [a3 + 0x10]\n 38751: a2 = u64 [a3 + 0x8]\n 38754: a3 = u64 [a3]\n 38756: a5 = reverse a0\n 38758: a0 = reverse a1\n 38760: a1 = reverse a2\n 38762: a2 = reverse a3\n 38764: a3 = u64 [s1 + 0x40]\n 38767: u64 [s1 + 0x1f8] = a3\n 38771: a3 = u64 [s1 + 0x48]\n 38774: u64 [s1 + 0x1f0] = a3\n 38778: a3 = u64 [s1 + 0x50]\n 38781: u64 [s1 + 0x1e8] = a3\n 38785: a3 = u64 [s1 + 0x58]\n 38788: u64 [s1 + 0x1e0] = a3\n 38792: a3 = u64 [s1 + 0x60]\n 38795: u64 [s1 + 0x218] = a3\n 38799: a3 = u64 [s1 + 0x68]\n 38802: u64 [s1 + 0x210] = a3\n 38806: a3 = u64 [s1 + 0x70]\n 38809: u64 [s1 + 0x208] = a3\n 38813: a3 = u64 [s1 + 0x78]\n 38816: u64 [s1 + 0x200] = a3\n 38820: a3 = u64 [s1 + 0x88]\n 38824: u64 [s1 + 0x238] = a3\n 38828: a3 = u64 [s1 + 0x90]\n 38832: u64 [s1 + 0x230] = a3\n 38836: a3 = u64 [s1 + 0x80]\n 38840: u64 [s1 + 0x228] = a3\n 38844: a3 = u64 [s1 + 0x98]\n 38848: t0 = 1856, jump @2306\n      : @1528 [@dyn 928] (gas: 64)\n 38854: a3 = s1 + 0x200\n 38858: a4 = s1 + 0x1e0\n 38862: u64 [s1 + 0x240] = a5\n 38866: ra = 0x742\n 38870: sp = sp + 0xfffffffffffffe80\n 38874: u64 [sp + 0x178] = ra\n 38878: u64 [sp + 0x170] = s0\n 38882: u64 [sp + 0x168] = s1\n 38886: s0 = sp + 0x180\n 38890: sp = sp & 0xfffffffffffffff0\n 38893: a5 = u64 [a1]\n 38895: u64 [sp + 0x38] = a5\n 38898: a5 = u64 [a1 + 0x8]\n 38901: u64 [sp + 0x30] = a5\n 38904: a5 = u64 [a1 + 0x10]\n 38907: u64 [sp + 0x28] = a5\n 38910: a1 = u64 [a1 + 0x18]\n 38913: u64 [sp + 0x20] = a1\n 38916: a1 = u64 [a2]\n 38918: u64 [sp + 0x18] = a1\n 38921: a1 = u64 [a2 + 0x8]\n 38924: u64 [sp + 0x10] = a1\n 38927: a1 = u64 [a2 + 0x10]\n 38930: u64 [sp + 0x8] = a1\n 38933: a2 = u64 [a2 + 0x18]\n 38936: t1 = u64 [a3]\n 38938: t2 = u64 [a3 + 0x8]\n 38941: ra = u64 [a3 + 0x10]\n 38944: a3 = u64 [a3 + 0x18]\n 38947: a5 = u64 [a4]\n 38949: a1 = u64 [a4 + 0x8]\n 38952: t0 = u64 [a4 + 0x10]\n 38955: a4 = u64 [a4 + 0x18]\n 38958: s1 = a0\n 38960: u64 [sp + 0x98] = a4\n 38964: u64 [sp + 0x90] = t0\n 38968: u64 [sp + 0x88] = a1\n 38972: u64 [sp + 0x80] = a5\n 38976: u64 [sp + 0xb8] = a3\n 38980: u64 [sp + 0xb0] = ra\n 38984: u64 [sp + 0xa8] = t2\n 38988: u64 [sp + 0xa0] = t1\n 38992: u64 [sp + 0xd8] = a2\n 38996: a0 = u64 [sp + 0x8]\n 38999: u64 [sp + 0xd0] = a0\n 39003: a0 = u64 [sp + 0x10]\n 39006: u64 [sp + 0xc8] = a0\n 39010: a0 = u64 [sp + 0x18]\n 39013: u64 [sp + 0xc0] = a0\n 39017: a0 = u64 [sp + 0x20]\n 39020: u64 [sp + 0xf8] = a0\n 39024: a0 = u64 [sp + 0x28]\n 39027: u64 [sp + 0xf0] = a0\n 39031: a0 = u64 [sp + 0x30]\n 39034: u64 [sp + 0xe8] = a0\n 39038: a0 = sp + 0x100\n 39042: a1 = sp + 0xe0\n 39046: a2 = sp + 0xc0\n 39050: a3 = sp + 0xa0\n 39054: a4 = sp + 0x80\n 39058: a5 = u64 [sp + 0x38]\n 39061: u64 [sp + 0xe0] = a5\n 39065: ra = 0x850\n 39069: jump @2009\n      : @1529 [@dyn 929] (gas: 53)\n 39072: a0 = s1 + 0x200\n 39076: a2 = u64 [a0 + 0x60]\n 39079: u64 [s1 + 0x118] = a2\n 39083: a1 = u64 [a0 + 0x68]\n 39086: u64 [s1 + 0x110] = a1\n 39090: a3 = u64 [a0 + 0x70]\n 39093: u64 [s1 + 0x108] = a3\n 39097: a4 = u64 [a0 + 0x78]\n 39100: u64 [s1 + 0x100] = a4\n 39104: a0 = u64 [s1 + 0xa8]\n 39108: u64 [s1 + 0x1b8] = a0\n 39112: a0 = u64 [s1 + 0xb0]\n 39116: u64 [s1 + 0x1b0] = a0\n 39120: a0 = u64 [s1 + 0xb8]\n 39124: u64 [s1 + 0x1a8] = a0\n 39128: a0 = u64 [s1 + 0xc0]\n 39132: u64 [s1 + 0x1a0] = a0\n 39136: u64 [s1 + 0x1d8] = a4\n 39140: u64 [s1 + 0x1d0] = a3\n 39144: u64 [s1 + 0x1c8] = a1\n 39148: a0 = s1 + 0x1c0\n 39152: a1 = s1 + 0x1a0\n 39156: u64 [s1 + 0x1c0] = a2\n 39160: ra = 0x744\n 39164: sp = sp + 0xfffffffffffffe60\n 39168: u64 [sp + 0x198] = ra\n 39172: u64 [sp + 0x190] = s0\n 39176: u64 [sp + 0x188] = s1\n 39180: s0 = sp + 0x1a0\n 39184: sp = sp & 0xffffffffffffffe0\n 39187: s1 = sp\n 39189: a2 = u64 [a1 + 0x18]\n 39192: u64 [s1 + 0x68] = a2\n 39195: a2 = u64 [a1 + 0x10]\n 39198: u64 [s1 + 0x78] = a2\n 39201: a2 = u64 [a1 + 0x8]\n 39204: u64 [s1 + 0x60] = a2\n 39207: a1 = u64 [a1]\n 39209: u64 [s1 + 0x70] = a1\n 39212: a2 = u64 [a0]\n 39214: a1 = u64 [a0 + 0x8]\n 39217: a0 = u32 [a0 + 0x10]\n 39220: u64 [s1 + 312] = 0\n 39224: u64 [s1 + 0x28] = a0\n 39227: u64 [s1 + 0x130] = a0\n 39231: u64 [s1 + 0x30] = a1\n 39234: u64 [s1 + 0x128] = a1\n 39238: a1 = s1 + 0x120\n 39242: u64 [s1 + 0x38] = a2\n 39245: u64 [s1 + 0x120] = a2\n 39249: a0 = 0\n 39251: ra = 0x854\n 39255: jump @24\n      : @1530 [@dyn 930] (gas: 20)\n 39259: a0 = u64 [s1 + 0xa0]\n 39263: a3 = s1 + 0x100\n 39267: u64 [a3 + 0x78] = a0\n 39270: a0 = u64 [s1 + 0xc8]\n 39274: u64 [a3 + 0x70] = a0\n 39277: a0 = u64 [s1 + 0xd0]\n 39281: u64 [a3 + 0x68] = a0\n 39284: a0 = u64 [s1 + 0xd8]\n 39288: u64 [a3 + 0x60] = a0\n 39291: a0 = u64 [a3]\n 39293: u64 [a3 + 0x98] = a0\n 39297: a0 = u64 [a3 + 0x8]\n 39300: u64 [a3 + 0x90] = a0\n 39304: a0 = u64 [a3 + 0x10]\n 39307: u64 [a3 + 0x88] = a0\n 39311: a0 = s1 + 0x180\n 39315: a1 = s1 + 0x160\n 39319: a2 = u64 [a3 + 0x18]\n 39322: u64 [a3 + 0x80] = a2\n 39326: ra = 1862, jump @1725\n      : @1531 [@dyn 931] (gas: 6)\n 39332: a1 = 0x20160\n 39337: i32 a1 = a1 + 0\n 39339: a0 = 0\n 39341: a2 = 0\n 39343: ecalli 16 // 'seal_return'\n 39345: jump @1519\n      : @1532 (gas: 9)\n 39348: a4 = s1 + 0x100\n 39352: a0 = u64 [a4 + 0x90]\n 39356: a1 = u64 [a4 + 0x98]\n 39360: a2 = u64 [a4 + 0x88]\n 39364: a3 = u64 [a4 + 0x80]\n 39368: a1 = a1 | a2\n 39371: a0 = a0 | a3\n 39374: a0 = a0 | a1\n 39377: jump @1550 if a0 != 0\n      : @1533 (gas: 3)\n 39381: a0 = i32 [0x2014c]\n 39386: a1 = 0x43\n 39389: jump @1551 if a1 >=u a0\n      : @1534 (gas: 4)\n 39393: a0 = s1 + 0x160\n 39397: ra = 0x748\n 39401: t0 = 0x484\n 39405: jump @2251\n      : @1535 [@dyn 932] (gas: 10)\n 39408: a0 = u64 [s1 + 0x160]\n 39412: u64 [s1 + 0x18] = a0\n 39415: a0 = u64 [s1 + 0x168]\n 39419: u64 [s1 + 0x10] = a0\n 39422: a0 = u32 [s1 + 0x170]\n 39426: u64 [s1 + 0x8] = a0\n 39429: a0 = s1 + 0x140\n 39433: ra = 0x74a\n 39437: t0 = 0x48e\n 39441: jump @2329\n      : @1536 [@dyn 933] (gas: 18)\n 39444: a0 = u64 [s1 + 0x158]\n 39448: u64 [s1 + 0x20] = a0\n 39451: a0 = u64 [s1 + 0x150]\n 39455: u64 [s1 + 0x28] = a0\n 39458: a0 = u64 [s1 + 0x148]\n 39462: u64 [s1 + 0x30] = a0\n 39465: a0 = u64 [s1 + 0x140]\n 39469: u64 [s1 + 0x38] = a0\n 39472: u64 [s1 + 312] = 0\n 39476: a0 = u64 [s1 + 0x8]\n 39479: u64 [s1 + 0x130] = a0\n 39483: a0 = u64 [s1 + 0x10]\n 39486: u64 [s1 + 0x128] = a0\n 39490: a1 = s1 + 0x120\n 39494: a0 = u64 [s1 + 0x18]\n 39497: u64 [s1 + 0x120] = a0\n 39501: a0 = 0\n 39503: ra = 1868, jump @24\n      : @1537 [@dyn 934] (gas: 4)\n 39510: u64 [s1 + 280] = 0\n 39514: u64 [s1 + 272] = 0\n 39518: a0 = 0x1\n 39521: t0 = 1870, jump @2289\n      : @1538 [@dyn 935] (gas: 1)\n 39527: ra = 1872, jump @24\n      : @1539 [@dyn 936] (gas: 2)\n 39534: a1 = i32 [0x20150]\n 39539: jump @1541 if a1 >u 63\n      : @1540 (gas: 4)\n 39543: a1 = 0x40\n 39546: u32 [0x20150] = a1\n 39551: t0 = 0x752\n 39555: jump @2282\n      : @1541 (gas: 1)\n 39558: t0 = 1874, jump @2282\n      : @1542 [@dyn 937] (gas: 8)\n 39564: a0 = 0x20160\n 39569: i32 a0 = a0 + 0\n 39571: i32 a2 = a2 + 0\n 39573: a1 = 0x40\n 39576: ra = 0x754\n 39580: ecalli 11 // 'hash_keccak_256'\n 39582: t0 = 0x756\n 39586: jump @2300\n      : @1543 [@dyn 938] (gas: 1)\n 39589: t0 = 1878, jump @2300\n      : @1544 [@dyn 939] (gas: 17)\n 39595: u64 [s1 + 0xb8] = a3\n 39599: a3 = u64 [s1 + 0x28]\n 39602: u64 [s1 + 0xb0] = a3\n 39606: a3 = u64 [s1 + 0x30]\n 39609: u64 [s1 + 0xa8] = a3\n 39613: a3 = u64 [s1 + 0x38]\n 39616: u64 [s1 + 0xa0] = a3\n 39620: u64 [s1 + 0xd8] = a2\n 39624: u64 [s1 + 0xd0] = a1\n 39628: u64 [s1 + 0xc8] = a0\n 39632: a0 = s1 + 0xe0\n 39636: a1 = s1 + 0xc0\n 39640: a2 = s1 + 0xa0\n 39644: u64 [s1 + 0xc0] = a4\n 39648: ra = 0x758\n 39652: t0 = 0x7c2\n 39656: jump @2373\n      : @1545 [@dyn 940] (gas: 14)\n 39659: a0 = u64 [s1 + 0xf8]\n 39663: a1 = u64 [s1 + 0xf0]\n 39667: a2 = u64 [s1 + 0xe8]\n 39671: a3 = u64 [s1 + 0xe0]\n 39675: a4 = s1 + 0x100\n 39679: u64 [a4 + 0xb8] = a0\n 39683: u64 [a4 + 0xb0] = a1\n 39687: u64 [a4 + 0xa8] = a2\n 39691: u64 [a4 + 0xa0] = a3\n 39695: a0 = s1 + 0x80\n 39699: a1 = s1 + 0x1a0\n 39703: ra = 0x75a\n 39707: t0 = 0x6\n 39710: jump @2259\n      : @1546 [@dyn 941] (gas: 11)\n 39713: a0 = u64 [s1 + 0x98]\n 39717: u64 [s1 + 0x38] = a0\n 39720: a0 = u64 [s1 + 0x90]\n 39724: u64 [s1 + 0x30] = a0\n 39727: a0 = u64 [s1 + 0x88]\n 39731: u64 [s1 + 0x28] = a0\n 39734: a0 = u64 [s1 + 0x80]\n 39738: u64 [s1 + 0x20] = a0\n 39741: a0 = s1 + 0x60\n 39744: a1 = 0x40\n 39747: ra = 1884, jump @22\n      : @1547 [@dyn 942] (gas: 5)\n 39754: a0 = u64 [s1 + 0x78]\n 39757: a1 = u64 [s1 + 0x70]\n 39760: a2 = u64 [s1 + 0x68]\n 39763: a3 = u64 [s1 + 0x60]\n 39766: t0 = 1886, jump @2244\n      : @1548 [@dyn 943] (gas: 1)\n 39772: jump @1553 if a0 == 0\n      : @1549 (gas: 1)\n 39775: trap\n      : @1550 (gas: 2)\n 39776: a1 = 0x20160\n 39781: jump @1552\n      : @1551 (gas: 2)\n 39783: a1 = 0x20160\n 39788: fallthrough\n      : @1552 (gas: 5)\n 39789: i32 a1 = a1 + 0\n 39791: a0 = 0x1\n 39794: a2 = 0\n 39796: ecalli 16 // 'seal_return'\n 39798: fallthrough\n      : @1553 (gas: 12)\n 39799: a0 = u64 [s1 + 0x20]\n 39802: u64 [s1 + 0x40] = a0\n 39805: a0 = u64 [s1 + 0x28]\n 39808: u64 [s1 + 0x48] = a0\n 39811: a0 = u64 [s1 + 0x30]\n 39814: u64 [s1 + 0x50] = a0\n 39817: a1 = s1 + 0x40\n 39820: a0 = u64 [s1 + 0x38]\n 39823: u64 [s1 + 0x58] = a0\n 39826: a0 = a3\n 39828: u64 [s1 + 0x38] = a3\n 39831: ra = 1888, jump @24\n      : @1554 [@dyn 944] (gas: 3)\n 39838: a1 = 0x20\n 39841: a0 = u64 [s1 + 0x38]\n 39844: ra = 1890, jump @37\n      : @1555 [@dyn 945] (gas: 1)\n 39851: t0 = 1892, jump @2280\n      : @1556 [@dyn 946] (gas: 3)\n 39857: ra = 0x766\n 39861: ecalli 16 // 'seal_return'\n 39863: fallthrough\n      : @1557 [@dyn 947] (gas: 21)\n 39864: sp = sp + 0xffffffffffffff10\n 39868: u64 [sp + 0xe8] = ra\n 39872: u64 [sp + 0xe0] = s0\n 39876: u64 [sp + 0xd8] = s1\n 39880: s0 = sp + 0xf0\n 39884: sp = sp & 0xfffffffffffffff0\n 39887: a5 = u64 [a2 + 0x10]\n 39890: s1 = u64 [a2 + 0x18]\n 39893: a3 = u64 [a2 + 0x8]\n 39896: a4 = u64 [a2]\n 39898: u64 [sp + 0x30] = a3\n 39901: u64 [sp + 0x20] = s1\n 39904: a2 = a3 | s1\n 39907: a3 = a4 | a5\n 39910: a3 = a3 | a2\n 39913: a3 = a3 >> 0x20\n 39916: u64 [sp + 0x28] = a5\n 39919: a2 = a2 | a5\n 39922: a2 = a2 << 0x20\n 39925: a2 = a2 | a3\n 39928: jump @1566 if a2 != 0\n      : @1558 (gas: 12)\n 39932: u64 [sp + 0x8] = a0\n 39935: a0 = u64 [a1 + 0x18]\n 39938: u64 [sp + 0x48] = a0\n 39941: s1 = u64 [a1 + 0x10]\n 39944: a0 = u64 [a1 + 0x8]\n 39947: u64 [sp + 0x38] = a0\n 39950: a0 = u64 [a1]\n 39952: u64 [sp + 0x40] = a0\n 39955: a0 = sp + 0xb0\n 39959: u64 [sp + 0x18] = a4\n 39962: a1 = a4\n 39964: ra = 1896, jump @22\n      : @1559 [@dyn 948] (gas: 12)\n 39971: a0 = u64 [sp + 0x40]\n 39974: a2 = a0 | s1\n 39977: a1 = u64 [sp + 0x48]\n 39980: a3 = u64 [sp + 0x38]\n 39983: a1 = a1 | a3\n 39986: a2 = a2 | a1\n 39989: a2 = a2 >> 0x20\n 39992: u64 [sp + 0x10] = s1\n 39995: a1 = a1 | s1\n 39998: a1 = a1 << 0x20\n 40001: a1 = a1 | a2\n 40004: jump @1566 if a1 != 0\n      : @1560 (gas: 9)\n 40008: a1 = u64 [sp + 0xb0]\n 40012: a1 = a1 << 0x10\n 40015: a2 = a1 >> 0x10\n 40018: u64 [sp + 168] = 0\n 40022: u64 [sp + 160] = 0\n 40026: u64 [sp + 152] = 0\n 40030: a1 = sp + 0x90\n 40034: u64 [sp + 0x90] = a2\n 40038: ra = 1898, jump @24\n      : @1561 [@dyn 949] (gas: 11)\n 40045: a0 = u64 [sp + 0x28]\n 40048: a1 = u64 [sp + 0x20]\n 40051: a0 = a0 | a1\n 40054: a1 = 0xffffffe0\n 40064: a2 = u64 [sp + 0x18]\n 40067: u64 [sp + 0x28] = a1\n 40070: a1 = a2 <u a1\n 40073: a3 = u64 [sp + 0x30]\n 40076: a1 = 0 if a3 != 0\n 40078: a1 = 0 if a0 != 0\n 40080: jump @1566 if a1 == 0\n      : @1562 (gas: 3)\n 40084: i32 a1 = a2 + 0x20\n 40087: a0 = sp + 0x70\n 40090: ra = 1900, jump @22\n      : @1563 [@dyn 950] (gas: 10)\n 40097: a4 = u64 [sp + 0x48]\n 40100: s1 = u64 [sp + 0x10]\n 40103: a0 = s1 | a4\n 40106: a2 = u64 [sp + 0x40]\n 40109: a1 = u64 [sp + 0x28]\n 40112: a1 = a2 <u a1\n 40115: a5 = u64 [sp + 0x38]\n 40118: a1 = 0 if a5 != 0\n 40120: a1 = 0 if a0 != 0\n 40122: jump @1566 if a1 == 0\n      : @1564 (gas: 24)\n 40125: a0 = u64 [sp + 0x88]\n 40129: t1 = u64 [sp + 0x80]\n 40133: t2 = u64 [sp + 0x78]\n 40136: a3 = u64 [sp + 0x70]\n 40139: t0 = zext.h a0\n 40141: a0 = a2 + 0x40\n 40144: u64 [sp + 0x30] = a0\n 40147: a0 = a0 <u a2\n 40150: a1 = a5 + a0\n 40153: u64 [sp + 0x28] = a1\n 40156: a5 = a1 <u a5\n 40159: a5 = a0 if a0 == 0\n 40162: a5 = a5 + s1\n 40165: a0 = a5 <u s1\n 40168: s1 = a5\n 40170: a0 = a0 + a4\n 40173: u64 [sp + 0x48] = a0\n 40176: i32 a0 = a2 + 0x20\n 40179: u64 [sp + 0x50] = a3\n 40182: u64 [sp + 0x58] = t2\n 40185: u64 [sp + 0x60] = t1\n 40188: a1 = sp + 0x50\n 40191: u64 [sp + 0x68] = t0\n 40194: ra = 1902, jump @24\n      : @1565 [@dyn 951] (gas: 14)\n 40201: a0 = u64 [sp + 0x8]\n 40204: u64 [a0 + 0x10] = s1\n 40207: a1 = u64 [sp + 0x28]\n 40210: u64 [a0 + 0x8] = a1\n 40213: a1 = u64 [sp + 0x30]\n 40216: u64 [a0] = a1\n 40218: a1 = u64 [sp + 0x48]\n 40221: u64 [a0 + 0x18] = a1\n 40224: sp = s0 + 0xffffffffffffff10\n 40228: ra = u64 [sp + 0xe8]\n 40232: s0 = u64 [sp + 0xe0]\n 40236: s1 = u64 [sp + 0xd8]\n 40240: sp = sp + 0xf0\n 40244: ret\n      : @1566 (gas: 1)\n 40246: trap\n      : @1567 [@dyn 952] (gas: 4)\n 40247: u64 [s1 + 704] = 0\n 40251: i32 a0 = s1 + 0x2c0\n 40255: ecalli 19 // 'value_transferred'\n 40257: fallthrough\n      : @1568 (gas: 9)\n 40258: a4 = s1 + 0x200\n 40262: a0 = u64 [a4 + 0xd0]\n 40266: a1 = u64 [a4 + 0xd8]\n 40270: a2 = u64 [a4 + 0xc8]\n 40274: a3 = u64 [a4 + 0xc0]\n 40278: a1 = a1 | a2\n 40281: a0 = a0 | a3\n 40284: a0 = a0 | a1\n 40287: jump @1596 if a0 != 0\n      : @1569 (gas: 3)\n 40291: a0 = i32 [0x2014c]\n 40296: a1 = 0x43\n 40299: jump @1597 if a1 >=u a0\n      : @1570 (gas: 4)\n 40303: a0 = s1 + 0x2a0\n 40307: ra = 0x772\n 40311: t0 = 0x484\n 40315: jump @2251\n      : @1571 [@dyn 953] (gas: 10)\n 40318: a0 = u64 [s1 + 0x2b0]\n 40322: u64 [s1 + 0x28] = a0\n 40325: a0 = u64 [s1 + 0x2a8]\n 40329: u64 [s1 + 0x30] = a0\n 40332: a0 = u64 [s1 + 0x2a0]\n 40336: u64 [s1 + 0x50] = a0\n 40339: i32 a0 = s1 + 0x2e0\n 40343: a1 = 0x24\n 40346: ecalli 4 // 'call_data_load'\n 40348: fallthrough\n      : @1572 (gas: 17)\n 40349: a4 = s1 + 0x200\n 40353: a3 = u64 [a4 + 0xf8]\n 40357: a2 = u64 [a4 + 0xf0]\n 40361: a0 = u64 [a4 + 0xe8]\n 40365: a1 = u64 [a4 + 0xe0]\n 40369: u64 [s1 + 0x48] = a0\n 40372: u64 [s1 + 0x38] = a3\n 40375: a0 = a0 | a3\n 40378: u64 [s1 + 0x58] = a1\n 40381: a1 = a1 | a2\n 40384: a1 = a1 | a0\n 40387: a1 = a1 >> 0x20\n 40390: u64 [s1 + 0x40] = a2\n 40393: a0 = a0 | a2\n 40396: a0 = a0 << 0x20\n 40399: a0 = a0 | a1\n 40402: jump @1598 if a0 != 0\n      : @1573 (gas: 2)\n 40406: a0 = s1 + 0x280\n 40410: ra = 1908, jump @1660\n      : @1574 [@dyn 954] (gas: 2)\n 40416: a0 = s1 + 0x260\n 40420: ra = 1910, jump @1660\n      : @1575 [@dyn 955] (gas: 12)\n 40426: a0 = u64 [s1 + 0x28]\n 40429: a0 = a0 << 0x20\n 40432: a0 = a0 >> 0x20\n 40435: u64 [s1 + 600] = 0\n 40439: u64 [s1 + 0x250] = a0\n 40443: a0 = u64 [s1 + 0x30]\n 40446: u64 [s1 + 0x248] = a0\n 40450: a1 = s1 + 0x240\n 40454: a0 = u64 [s1 + 0x50]\n 40457: u64 [s1 + 0x240] = a0\n 40461: a0 = 0\n 40463: ra = 1912, jump @24\n      : @1576 [@dyn 956] (gas: 7)\n 40470: u64 [s1 + 568] = 0\n 40474: u64 [s1 + 560] = 0\n 40478: u64 [s1 + 544] = 0x9\n 40483: a0 = 0x20\n 40486: a1 = s1 + 0x220\n 40490: u64 [s1 + 552] = 0\n 40494: ra = 1914, jump @24\n      : @1577 [@dyn 957] (gas: 2)\n 40501: a1 = i32 [0x20150]\n 40506: jump @1579 if a1 >u 63\n      : @1578 (gas: 2)\n 40510: u32 [0x20150] = 0x40\n 40516: fallthrough\n      : @1579 (gas: 24)\n 40517: a0 = sp + 0xffffffffffffffe0\n 40520: a2 = a0 & 0xffffffffffffffe0\n 40523: u64 [s1 + 0x50] = a2\n 40526: sp = a2\n 40528: a0 = 0x20160\n 40533: i32 a0 = a0 + 0\n 40535: i32 a2 = a2 + 0\n 40537: a1 = 0x40\n 40540: ecalli 11 // 'hash_keccak_256'\n 40542: a3 = u64 [s1 + 0x50]\n 40545: a0 = u64 [a3 + 0x18]\n 40548: a1 = u64 [a3 + 0x10]\n 40551: a2 = u64 [a3 + 0x8]\n 40554: a3 = u64 [a3]\n 40556: a0 = reverse a0\n 40558: u64 [s1 + 0x30] = a0\n 40561: a0 = reverse a1\n 40563: u64 [s1 + 0x28] = a0\n 40566: a0 = reverse a2\n 40568: u64 [s1 + 0x20] = a0\n 40571: a0 = reverse a3\n 40573: u64 [s1 + 0x18] = a0\n 40576: a0 = s1 + 0x200\n 40580: ra = 1916, jump @1660\n      : @1580 [@dyn 958] (gas: 24)\n 40586: a0 = sp + 0xffffffffffffffe0\n 40589: a0 = a0 & 0xffffffffffffffe0\n 40592: u64 [s1 + 0x50] = a0\n 40595: sp = a0\n 40597: a0 = u64 [s1 + 0x38]\n 40600: u64 [s1 + 0x198] = a0\n 40604: a0 = u64 [s1 + 0x40]\n 40607: u64 [s1 + 0x190] = a0\n 40611: a0 = u64 [s1 + 0x48]\n 40614: u64 [s1 + 0x188] = a0\n 40618: a0 = u64 [s1 + 0x58]\n 40621: u64 [s1 + 0x180] = a0\n 40625: a0 = u64 [s1 + 0x18]\n 40628: u64 [s1 + 0x1b8] = a0\n 40632: a0 = u64 [s1 + 0x20]\n 40635: u64 [s1 + 0x1b0] = a0\n 40639: a0 = u64 [s1 + 0x28]\n 40642: u64 [s1 + 0x1a8] = a0\n 40646: a0 = s1 + 0x1c0\n 40650: a1 = s1 + 0x1a0\n 40654: a2 = s1 + 0x180\n 40658: a3 = u64 [s1 + 0x30]\n 40661: u64 [s1 + 0x1a0] = a3\n 40665: ra = 1918, jump @2073\n      : @1581 [@dyn 959] (gas: 12)\n 40671: a0 = u64 [s1 + 0x1d0]\n 40675: a1 = u64 [s1 + 0x1d8]\n 40679: a2 = u64 [s1 + 0x1c0]\n 40683: a3 = u64 [s1 + 0x1c8]\n 40687: a4 = u64 [s1 + 0x50]\n 40690: u64 [a4 + 0x10] = a0\n 40693: u64 [a4 + 0x18] = a1\n 40696: u64 [a4] = a2\n 40698: u64 [a4 + 0x8] = a3\n 40701: a0 = s1 + 0x160\n 40705: a1 = 0x40\n 40708: ra = 1920, jump @22\n      : @1582 [@dyn 960] (gas: 17)\n 40715: a4 = s1 + 0x100\n 40719: a0 = u64 [a4 + 0x78]\n 40722: u64 [s1 + 0x38] = a0\n 40725: a1 = u64 [a4 + 0x70]\n 40728: u64 [s1 + 0x40] = a1\n 40731: a3 = u64 [a4 + 0x68]\n 40734: u64 [s1 + 0x48] = a3\n 40737: a2 = u64 [a4 + 0x60]\n 40740: u64 [s1 + 0x58] = a2\n 40743: u64 [a4 + 0x58] = a0\n 40746: u64 [a4 + 0x50] = a1\n 40749: u64 [a4 + 0x48] = a3\n 40752: a0 = s1 + 0x140\n 40756: u64 [a4 + 0x40] = a2\n 40759: ra = 0x782\n 40763: t0 = 0x7a8\n 40767: jump @2371\n      : @1583 [@dyn 961] (gas: 5)\n 40770: a0 = s1 + 0x120\n 40774: a1 = u64 [s1 + 0x50]\n 40777: ra = 0x784\n 40781: t0 = 0x6\n 40784: jump @2259\n      : @1584 [@dyn 962] (gas: 12)\n 40787: a0 = u64 [s1 + 0x38]\n 40790: a1 = u64 [s1 + 0x48]\n 40793: a0 = a0 | a1\n 40796: a2 = u64 [s1 + 0x40]\n 40799: a1 = u64 [s1 + 0x58]\n 40802: a1 = a1 | a2\n 40805: a1 = a1 | a0\n 40808: a1 = a1 >> 0x20\n 40811: a0 = a0 | a2\n 40814: a0 = a0 << 0x20\n 40817: a0 = a0 | a1\n 40820: jump @1595 if a0 != 0\n      : @1585 (gas: 12)\n 40824: a2 = s1 + 0x100\n 40828: a0 = u64 [a2 + 0x38]\n 40831: u64 [s1 + 0x50] = a0\n 40834: a0 = u64 [a2 + 0x20]\n 40837: a1 = u64 [a2 + 0x30]\n 40840: u64 [s1 + 0x20] = a1\n 40843: a1 = u64 [a2 + 0x28]\n 40846: u64 [s1 + 0x28] = a1\n 40849: u64 [s1 + 0x30] = a0\n 40852: a0 = a0 << 0x10\n 40855: a0 = a0 >> 0x10\n 40858: t0 = 1926, jump @2370\n      : @1586 [@dyn 963] (gas: 4)\n 40864: a1 = s1 + 0x100\n 40868: u64 [a2] = a0\n 40870: a0 = u64 [s1 + 0x58]\n 40873: ra = 1928, jump @24\n      : @1587 [@dyn 964] (gas: 10)\n 40880: a0 = u64 [s1 + 0x40]\n 40883: a1 = u64 [s1 + 0x38]\n 40886: a0 = a0 | a1\n 40889: a1 = 0xffffffe0\n 40899: a2 = u64 [s1 + 0x58]\n 40902: a1 = a2 <u a1\n 40905: a2 = u64 [s1 + 0x48]\n 40908: a1 = 0 if a2 != 0\n 40910: a1 = 0 if a0 != 0\n 40912: jump @1595 if a1 == 0\n      : @1588 (gas: 22)\n 40916: a5 = u64 [s1 + 0x20]\n 40919: a0 = a5 >> 0x30\n 40922: a4 = u64 [s1 + 0x50]\n 40925: a1 = a4 << 0x10\n 40928: a2 = a0 | a1\n 40931: a3 = u64 [s1 + 0x28]\n 40934: a0 = a3 >> 0x30\n 40937: a1 = a5 << 0x10\n 40940: a1 = a1 | a0\n 40943: a0 = u64 [s1 + 0x30]\n 40946: a0 = a0 >> 0x30\n 40949: a3 = a3 << 0x10\n 40952: a3 = a3 | a0\n 40955: a4 = a4 >> 0x30\n 40958: a0 = u64 [s1 + 0x58]\n 40961: i32 a0 = a0 + 0x20\n 40964: u64 [s1 + 0xe0] = a3\n 40968: u64 [s1 + 0xf8] = a4\n 40972: u64 [s1 + 0xe8] = a1\n 40976: a1 = s1 + 0xe0\n 40980: u64 [s1 + 0xf0] = a2\n 40984: ra = 1930, jump @24\n      : @1589 [@dyn 965] (gas: 3)\n 40991: a0 = s1 + 0xc0\n 40995: a1 = 0x40\n 40998: ra = 1932, jump @22\n      : @1590 [@dyn 966] (gas: 24)\n 41005: a2 = u64 [s1 + 0xd8]\n 41009: u64 [s1 + 0x50] = a2\n 41012: a1 = u64 [s1 + 0xd0]\n 41016: u64 [s1 + 0x30] = a1\n 41019: a3 = u64 [s1 + 0xc8]\n 41023: u64 [s1 + 0x28] = a3\n 41026: a4 = u64 [s1 + 0xc0]\n 41030: u64 [s1 + 0x20] = a4\n 41033: a0 = u64 [s1 + 0x38]\n 41036: u64 [s1 + 0x78] = a0\n 41039: a0 = u64 [s1 + 0x40]\n 41042: u64 [s1 + 0x70] = a0\n 41045: a0 = u64 [s1 + 0x48]\n 41048: u64 [s1 + 0x68] = a0\n 41051: a0 = u64 [s1 + 0x58]\n 41054: u64 [s1 + 0x60] = a0\n 41057: u64 [s1 + 0x98] = a2\n 41061: u64 [s1 + 0x90] = a1\n 41065: u64 [s1 + 0x88] = a3\n 41069: a0 = s1 + 0xa0\n 41073: a1 = s1 + 0x80\n 41077: a2 = s1 + 0x60\n 41080: u64 [s1 + 0x80] = a4\n 41084: ra = 1934, jump @1557\n      : @1591 [@dyn 967] (gas: 7)\n 41090: a4 = u64 [s1 + 0x28]\n 41093: a2 = u64 [s1 + 0x20]\n 41096: a0 = u64 [s1 + 0x50]\n 41099: a0 = a0 | a4\n 41102: a3 = u64 [s1 + 0x30]\n 41105: a1 = a2 | a3\n 41108: t0 = 1936, jump @2313\n      : @1592 [@dyn 968] (gas: 1)\n 41114: jump @1595 if a0 != 0\n      : @1593 (gas: 25)\n 41117: t0 = a3\n 41119: a0 = u64 [s1 + 0xa8]\n 41123: a1 = u64 [s1 + 0xb8]\n 41127: u64 [s1 + 0x58] = a1\n 41130: t1 = u64 [s1 + 0xa0]\n 41134: a3 = u64 [s1 + 0xb0]\n 41138: t2 = a0 ^ a4\n 41141: a5 = a0 <u a4\n 41144: ra = t1 <u a2\n 41147: a5 = ra if t2 == 0\n 41150: a1 = a3 - t0\n 41153: t2 = a1 - a5\n 41156: a1 = a1 <u a5\n 41159: u64 [s1 + 0x48] = a1\n 41162: a3 = a3 <u t0\n 41165: a5 = u64 [s1 + 0x50]\n 41168: a1 = u64 [s1 + 0x58]\n 41171: a5 = a1 - a5\n 41174: a5 = a5 - a3\n 41177: a1 = u64 [s1 + 0x48]\n 41180: a5 = a5 - a1\n 41183: a0 = a0 - a4\n 41186: a0 = a0 - ra\n 41189: a1 = t1 - a2\n 41192: t0 = 1938, jump @2220\n      : @1594 [@dyn 969] (gas: 1)\n 41198: jump @1600 if a0 == 0\n      : @1595 (gas: 1)\n 41201: trap\n      : @1596 (gas: 2)\n 41202: a1 = 0x20160\n 41207: jump @1599\n      : @1597 (gas: 2)\n 41209: a1 = 0x20160\n 41214: jump @1599\n      : @1598 (gas: 2)\n 41216: a1 = 0x20160\n 41221: fallthrough\n      : @1599 (gas: 5)\n 41222: i32 a1 = a1 + 0\n 41224: a0 = 0x1\n 41227: a2 = 0\n 41229: ecalli 16 // 'seal_return'\n 41231: fallthrough\n      : @1600 (gas: 3)\n 41232: a0 = a2\n 41234: u64 [s1 + 0x58] = a1\n 41237: ra = 1940, jump @37\n      : @1601 [@dyn 970] (gas: 6)\n 41244: i32 a1 = a0 + 0\n 41246: a2 = i32 [s1 + 0x58]\n 41249: a0 = 0\n 41251: ra = 0x796\n 41255: ecalli 16 // 'seal_return'\n 41257: fallthrough\n      : @1602 [@dyn 971] (gas: 33)\n 41258: sp = sp + 0xfffffffffffffe20\n 41262: u64 [sp + 0x1d8] = ra\n 41266: u64 [sp + 0x1d0] = s0\n 41270: u64 [sp + 0x1c8] = s1\n 41274: s0 = sp + 0x1e0\n 41278: sp = sp & 0xffffffffffffffe0\n 41281: s1 = sp\n 41283: u64 [s1 + 0x10] = a0\n 41286: a0 = u64 [a2 + 0x10]\n 41289: u64 [s1 + 0x98] = a0\n 41293: a0 = u64 [a2]\n 41295: u64 [s1 + 0x80] = a0\n 41299: a0 = u64 [a2 + 0x18]\n 41302: u64 [s1 + 0x90] = a0\n 41306: a0 = u64 [a2 + 0x8]\n 41309: u64 [s1 + 0x88] = a0\n 41313: a0 = u64 [a1 + 0x18]\n 41316: a2 = u64 [a1 + 0x10]\n 41319: a3 = u64 [a1 + 0x8]\n 41322: a1 = u64 [a1]\n 41324: u64 [s1 + 0x70] = a0\n 41327: u64 [s1 + 0x1b8] = a0\n 41331: u64 [s1 + 0x68] = a2\n 41334: u64 [s1 + 0x1b0] = a2\n 41338: u64 [s1 + 0x60] = a3\n 41341: u64 [s1 + 0x1a8] = a3\n 41345: u64 [s1 + 0x38] = a1\n 41348: u64 [s1 + 0x1a0] = a1\n 41352: a0 = s1 + 0x180\n 41356: a1 = s1 + 0x1a0\n 41360: ra = 0x798\n 41364: t0 = 0x6\n 41367: jump @2259\n      : @1603 [@dyn 972] (gas: 16)\n 41370: a4 = s1 + 0x100\n 41374: a0 = u64 [a4 + 0x98]\n 41378: a1 = u64 [a4 + 0x90]\n 41382: a2 = u64 [a4 + 0x88]\n 41386: a3 = u64 [a4 + 0x80]\n 41390: u64 [s1 + 0x30] = a0\n 41393: u64 [a4 + 0x58] = a0\n 41396: u64 [s1 + 0x28] = a1\n 41399: u64 [a4 + 0x50] = a1\n 41402: u64 [s1 + 0x20] = a2\n 41405: u64 [a4 + 0x48] = a2\n 41408: a0 = s1 + 0x160\n 41412: a1 = s1 + 0x140\n 41416: u64 [s1 + 0x78] = a3\n 41419: u64 [a4 + 0x40] = a3\n 41422: ra = 1946, jump @255\n      : @1604 [@dyn 973] (gas: 12)\n 41429: a0 = u64 [s1 + 0x80]\n 41433: a1 = u64 [s1 + 0x90]\n 41437: a2 = u64 [s1 + 0x88]\n 41441: a2 = a2 | a1\n 41444: a3 = u64 [s1 + 0x98]\n 41448: a1 = a0 | a3\n 41451: a1 = a1 | a2\n 41454: a1 = a1 >> 0x20\n 41457: a2 = a2 | a3\n 41460: a2 = a2 << 0x20\n 41463: a1 = a1 | a2\n 41466: jump @1622 if a1 != 0\n      : @1605 (gas: 15)\n 41470: a5 = s1 + 0x100\n 41474: a4 = u64 [a5 + 0x78]\n 41477: a2 = u64 [a5 + 0x70]\n 41480: a1 = u64 [a5 + 0x68]\n 41483: a3 = u64 [a5 + 0x60]\n 41486: u64 [s1 + 0x40] = a3\n 41489: u64 [a5 + 0x20] = a3\n 41492: u64 [s1 + 0x50] = a1\n 41495: u64 [a5 + 0x28] = a1\n 41498: u64 [s1 + 0x48] = a2\n 41501: u64 [a5 + 0x30] = a2\n 41504: a1 = s1 + 0x120\n 41508: u64 [s1 + 0x58] = a4\n 41511: u64 [a5 + 0x38] = a4\n 41514: ra = 1948, jump @24\n      : @1606 [@dyn 974] (gas: 3)\n 41521: a3 = u64 [s1 + 0x78]\n 41524: a0 = a3 & 0x1\n 41527: jump @1610 if a0 != 0\n      : @1607 (gas: 10)\n 41531: a0 = u64 [s1 + 0x90]\n 41535: a1 = u64 [s1 + 0x98]\n 41539: a0 = a0 | a1\n 41542: a1 = 0xffffffe0\n 41552: a4 = u64 [s1 + 0x80]\n 41556: a1 = a4 <u a1\n 41559: a2 = u64 [s1 + 0x88]\n 41563: a1 = 0 if a2 != 0\n 41565: a1 = 0 if a0 != 0\n 41567: jump @1622 if a1 == 0\n      : @1608 (gas: 11)\n 41571: a1 = a3 & 0xffffffffffffff00\n 41575: i32 a0 = a4 + 0x20\n 41578: a3 = u64 [s1 + 0x20]\n 41581: u64 [s1 + 0xa8] = a3\n 41585: u64 [s1 + 0xa0] = a1\n 41589: a1 = u64 [s1 + 0x28]\n 41592: u64 [s1 + 0xb0] = a1\n 41596: a1 = s1 + 0xa0\n 41600: a3 = u64 [s1 + 0x30]\n 41603: u64 [s1 + 0xb8] = a3\n 41607: ra = 1950, jump @24\n      : @1609 [@dyn 975] (gas: 26)\n 41614: ra = 0\n 41616: t1 = 0\n 41618: t0 = 0\n 41620: a0 = u64 [s1 + 0x48]\n 41623: a1 = u64 [s1 + 0x40]\n 41626: a0 = a0 | a1\n 41629: a1 = u64 [s1 + 0x58]\n 41632: a2 = u64 [s1 + 0x50]\n 41635: a1 = a1 | a2\n 41638: a0 = a0 | a1\n 41641: a1 = u64 [s1 + 0x80]\n 41645: a3 = a1 + 0x20\n 41648: a1 = a3 <u a1\n 41651: a2 = u64 [s1 + 0x88]\n 41655: a4 = a2 + a1\n 41658: a2 = a4 <u a2\n 41661: a2 = a1 if a1 == 0\n 41664: a1 = u64 [s1 + 0x98]\n 41668: a5 = a1 + a2\n 41671: a1 = a5 <u a1\n 41674: a2 = u64 [s1 + 0x90]\n 41678: a1 = a1 + a2\n 41681: u64 [s1 + 0x38] = a1\n 41684: a0 = a0 >u 0\n 41686: t2 = a0 << 0x5\n 41689: jump @1621\n      : @1610 (gas: 12)\n 41692: a0 = u64 [s1 + 0x38]\n 41695: a2 = s1 + 0x100\n 41699: u64 [a2] = a0\n 41701: a0 = u64 [s1 + 0x60]\n 41704: u64 [a2 + 0x8] = a0\n 41707: a0 = u64 [s1 + 0x68]\n 41710: u64 [a2 + 0x10] = a0\n 41713: a1 = s1 + 0x100\n 41717: a0 = u64 [s1 + 0x70]\n 41720: u64 [a2 + 0x18] = a0\n 41723: a0 = 0\n 41725: ra = 1952, jump @24\n      : @1611 [@dyn 976] (gas: 6)\n 41732: a0 = sp + 0xffffffffffffffe0\n 41735: a0 = a0 & 0xffffffffffffffe0\n 41738: u64 [s1 + 0x30] = a0\n 41741: sp = a0\n 41743: a1 = i32 [0x20150]\n 41748: jump @1613 if a1 >u 31\n      : @1612 (gas: 2)\n 41752: u32 [0x20150] = 0x20\n 41758: fallthrough\n      : @1613 (gas: 49)\n 41759: a0 = sp + 0xffffffffffffffe0\n 41762: a2 = a0 & 0xffffffffffffffe0\n 41765: u64 [s1 + 0x78] = a2\n 41768: sp = a2\n 41770: a0 = 0x20160\n 41775: i32 a0 = a0 + 0\n 41777: i32 a2 = a2 + 0\n 41779: a1 = 0x20\n 41782: ecalli 11 // 'hash_keccak_256'\n 41784: a5 = 0\n 41786: ra = 0\n 41788: t1 = 0\n 41790: t0 = 0\n 41792: a0 = u64 [s1 + 0x80]\n 41796: a1 = a0 + 0x20\n 41799: u64 [s1 + 0x28] = a1\n 41802: a0 = a1 <u a0\n 41805: a1 = u64 [s1 + 0x88]\n 41809: a2 = a1 + a0\n 41812: u64 [s1 + 0x20] = a2\n 41815: a1 = a2 <u a1\n 41818: a1 = a0 if a0 == 0\n 41821: a0 = u64 [s1 + 0x98]\n 41825: a1 = a1 + a0\n 41828: u64 [s1 + 0x18] = a1\n 41831: a0 = a1 <u a0\n 41834: a1 = u64 [s1 + 0x90]\n 41838: a0 = a0 + a1\n 41841: u64 [s1 + 0x38] = a0\n 41844: a3 = u64 [s1 + 0x78]\n 41847: a0 = u64 [a3 + 0x18]\n 41850: a1 = u64 [a3 + 0x10]\n 41853: a2 = u64 [a3 + 0x8]\n 41856: a3 = u64 [a3]\n 41858: a0 = reverse a0\n 41860: a4 = reverse a1\n 41862: t2 = reverse a2\n 41864: a2 = reverse a3\n 41866: a1 = u64 [s1 + 0x30]\n 41869: a3 = a2\n 41871: u64 [a1 + 0x18] = a2\n 41874: a2 = t2\n 41876: u64 [s1 + 0x60] = a2\n 41879: u64 [a1 + 0x10] = a2\n 41882: u64 [s1 + 0x70] = a4\n 41885: u64 [a1 + 0x8] = a4\n 41888: a2 = a0\n 41890: u64 [a1] = a0\n 41892: fallthrough\n      : @1614 (gas: 19)\n 41893: u64 [s1 + 0x68] = a3\n 41896: u64 [s1 + 0x78] = a2\n 41899: a0 = u64 [s1 + 0x40]\n 41902: a0 = a5 <u a0\n 41905: a2 = u64 [s1 + 0x50]\n 41908: a3 = ra ^ a2\n 41911: a2 = ra <u a2\n 41914: a2 = a0 if a3 == 0\n 41917: a4 = u64 [s1 + 0x48]\n 41920: a0 = t1 <u a4\n 41923: a3 = u64 [s1 + 0x58]\n 41926: t2 = a5\n 41928: a5 = t0 ^ a3\n 41931: a3 = t0 <u a3\n 41934: a3 = a0 if a5 == 0\n 41937: a0 = t1 ^ a4\n 41940: a0 = a0 | a5\n 41943: a3 = a2 if a0 == 0\n 41946: jump @1620 if a3 == 0\n      : @1615 (gas: 8)\n 41950: a0 = s1 + 0xe0\n 41954: u64 [s1 + 0x98] = t0\n 41958: u64 [s1 + 0x90] = t1\n 41962: u64 [s1 + 0x88] = ra\n 41966: u64 [s1 + 0x80] = t2\n 41970: ra = 0x7a2\n 41974: t0 = 0x6\n 41977: jump @2259\n      : @1616 [@dyn 977] (gas: 7)\n 41980: a1 = u64 [s1 + 0x28]\n 41983: a0 = u64 [s1 + 0x80]\n 41987: a0 = a0 + a1\n 41990: a1 = a0 <u a1\n 41993: a4 = u64 [s1 + 0x20]\n 41996: a2 = u64 [s1 + 0x88]\n 42000: t0 = 1956, jump @2324\n      : @1617 [@dyn 978] (gas: 19)\n 42006: a3 = u64 [s1 + 0x18]\n 42009: a1 = u64 [s1 + 0x90]\n 42013: a1 = a1 + a3\n 42016: t0 = a1 <u a3\n 42019: a5 = u64 [s1 + 0x38]\n 42022: a3 = u64 [s1 + 0x98]\n 42026: a5 = a5 + a3\n 42029: a3 = a5 + t0\n 42032: a4 = a4 + a1\n 42035: a1 = a4 <u a1\n 42038: a1 = a1 + a3\n 42041: a1 = a1 | a2\n 42044: a2 = a0 | a4\n 42047: a2 = a2 | a1\n 42050: a1 = a1 | a4\n 42053: a2 = a2 >> 0x20\n 42056: a1 = a1 << 0x20\n 42059: a1 = a1 | a2\n 42062: jump @1622 if a1 != 0\n      : @1618 (gas: 10)\n 42066: a2 = u64 [s1 + 0xf8]\n 42070: a1 = u64 [s1 + 0xf0]\n 42074: a3 = u64 [s1 + 0xe8]\n 42078: a4 = u64 [s1 + 0xe0]\n 42082: u64 [s1 + 0xc0] = a4\n 42086: u64 [s1 + 0xc8] = a3\n 42090: u64 [s1 + 0xd0] = a1\n 42094: a1 = s1 + 0xc0\n 42098: u64 [s1 + 0xd8] = a2\n 42102: ra = 1958, jump @24\n      : @1619 [@dyn 979] (gas: 37)\n 42109: a5 = u64 [s1 + 0x78]\n 42112: a5 = a5 + 0x1\n 42115: a0 = a5 <u 0x1\n 42118: a3 = u64 [s1 + 0x70]\n 42121: a3 = a3 + a0\n 42124: a0 = a5 | a3\n 42127: a0 = a0 <u 0x1\n 42130: a1 = u64 [s1 + 0x60]\n 42133: t1 = a1 + a0\n 42136: a1 = t1 <u a1\n 42139: a0 = u64 [s1 + 0x68]\n 42142: a0 = a0 + a1\n 42145: a1 = u64 [s1 + 0x80]\n 42149: t2 = a1 + 0x20\n 42152: a2 = t2 <u a1\n 42155: a1 = u64 [s1 + 0x88]\n 42159: ra = a1 + a2\n 42162: a4 = ra <u a1\n 42165: a4 = a2 if a2 == 0\n 42168: a1 = u64 [s1 + 0x90]\n 42172: a4 = a4 + a1\n 42175: a2 = a4 <u a1\n 42178: t0 = u64 [s1 + 0x98]\n 42182: t0 = t0 + a2\n 42185: u64 [s1 + 0x70] = a3\n 42188: a1 = u64 [s1 + 0x30]\n 42191: u64 [a1 + 0x8] = a3\n 42194: a2 = a5\n 42196: u64 [a1] = a5\n 42198: a5 = t1\n 42200: u64 [a1 + 0x10] = a5\n 42203: a3 = a0\n 42205: u64 [a1 + 0x18] = a0\n 42208: u64 [s1 + 0x60] = a5\n 42211: a5 = t2\n 42213: t1 = a4\n 42215: jump @1614\n      : @1620 (gas: 4)\n 42218: a3 = u64 [s1 + 0x28]\n 42221: a4 = u64 [s1 + 0x20]\n 42224: a5 = u64 [s1 + 0x18]\n 42227: fallthrough\n      : @1621 (gas: 26)\n 42228: a0 = a3 + t2\n 42231: a1 = a0 <u a3\n 42234: a2 = a4 + ra\n 42237: a2 = a2 + a1\n 42240: a3 = a2 ^ a4\n 42243: a4 = a2 <u a4\n 42246: a4 = a1 if a3 == 0\n 42249: a1 = a5 + t1\n 42252: a4 = a4 + a1\n 42255: a3 = a4 <u a1\n 42258: a1 = a1 <u a5\n 42261: a5 = u64 [s1 + 0x38]\n 42264: a5 = a5 + t0\n 42267: a1 = a1 + a5\n 42270: a1 = a1 + a3\n 42273: a3 = u64 [s1 + 0x10]\n 42276: u64 [a3] = a0\n 42278: u64 [a3 + 0x8] = a2\n 42281: u64 [a3 + 0x10] = a4\n 42284: u64 [a3 + 0x18] = a1\n 42287: sp = s0 + 0xfffffffffffffe20\n 42291: ra = u64 [sp + 0x1d8]\n 42295: s0 = u64 [sp + 0x1d0]\n 42299: s1 = u64 [sp + 0x1c8]\n 42303: sp = sp + 0x1e0\n 42307: ret\n      : @1622 (gas: 1)\n 42309: trap\n      : @1623 [@dyn 980] (gas: 9)\n 42310: a1 = u64 [a0 + 0x18]\n 42313: a2 = u64 [a0 + 0x10]\n 42316: a3 = u64 [a0]\n 42318: a0 = u64 [a0 + 0x8]\n 42321: a4 = a2 | a1\n 42324: a5 = a3 <u 0xffffffffffffffc0\n 42327: a5 = 0 if a0 != 0\n 42329: a5 = 0 if a4 != 0\n 42331: jump @1626 if a5 == 0\n      : @1624 (gas: 15)\n 42334: a4 = a3 + 0x40\n 42337: a3 = a4 <u a3\n 42340: a5 = a0 + a3\n 42343: a0 = a5 <u a0\n 42346: a0 = a3 if a3 == 0\n 42349: a0 = a0 + a2\n 42352: a2 = a0 <u a2\n 42355: a2 = a2 + a1\n 42358: u64 [sp] = a4\n 42360: u64 [sp + 0x8] = a5\n 42363: u64 [sp + 0x10] = a0\n 42366: a0 = 0x40\n 42369: a1 = sp\n 42371: u64 [sp + 0x18] = a2\n 42374: ra = 1962, jump @24\n      : @1625 [@dyn 981] (gas: 5)\n 42381: sp = s0 + 0xffffffffffffffd0\n 42384: ra = u64 [sp + 0x28]\n 42387: s0 = u64 [sp + 0x20]\n 42390: sp = sp + 0x30\n 42393: ret\n      : @1626 (gas: 3)\n 42395: ra = 0x7ac\n 42399: t0 = 0x86\n 42403: jump @2232\n      : @1627 [@dyn 982] (gas: 1)\n 42406: t0 = 1966, jump @2257\n      : @1628 [@dyn 983] (gas: 1)\n 42412: ra = 1968, jump @24\n      : @1629 [@dyn 984] (gas: 7)\n 42419: u64 [s1 + 56] = 0\n 42422: u64 [s1 + 48] = 0\n 42425: u64 [s1 + 40] = 0\n 42428: a0 = 0x20\n 42431: a1 = s1 + a0\n 42434: u64 [s1 + 32] = 0\n 42437: ra = 1970, jump @24\n      : @1630 [@dyn 985] (gas: 2)\n 42444: a1 = i32 [0x20150]\n 42449: jump @1632 if a1 >u 63\n      : @1631 (gas: 4)\n 42453: a1 = 0x40\n 42456: u32 [0x20150] = a1\n 42461: t0 = 0x7b4\n 42465: jump @2260\n      : @1632 (gas: 1)\n 42468: t0 = 1972, jump @2260\n      : @1633 [@dyn 986] (gas: 6)\n 42474: a0 = 0x20160\n 42479: i32 a0 = a0 + 0\n 42481: i32 a2 = a2 + 0\n 42483: a1 = 0x40\n 42486: ecalli 11 // 'hash_keccak_256'\n 42488: t0 = 1974, jump @2241\n      : @1634 [@dyn 987] (gas: 1)\n 42494: ret\n      : @1635 [@dyn 988] (gas: 1)\n 42496: ra = 1978, jump @24\n      : @1636 [@dyn 989] (gas: 7)\n 42503: u64 [s1 + 56] = 0\n 42506: u64 [s1 + 48] = 0\n 42509: u64 [s1 + 32] = 0x9\n 42513: a0 = 0x20\n 42516: a1 = s1 + a0\n 42519: u64 [s1 + 40] = 0\n 42522: ra = 1980, jump @24\n      : @1637 [@dyn 990] (gas: 2)\n 42529: a1 = i32 [0x20150]\n 42534: jump @1639 if a1 >u 63\n      : @1638 (gas: 4)\n 42538: a1 = 0x40\n 42541: u32 [0x20150] = a1\n 42546: t0 = 0x7be\n 42550: jump @2260\n      : @1639 (gas: 1)\n 42553: t0 = 1982, jump @2260\n      : @1640 [@dyn 991] (gas: 6)\n 42559: a0 = 0x20160\n 42564: i32 a0 = a0 + 0\n 42566: i32 a2 = a2 + 0\n 42568: a1 = 0x40\n 42571: ecalli 11 // 'hash_keccak_256'\n 42573: t0 = 1984, jump @2241\n      : @1641 [@dyn 992] (gas: 1)\n 42579: ret\n      : @1642 [@dyn 993] (gas: 20)\n 42581: s1 = sp\n 42583: a3 = u64 [a1]\n 42585: u64 [s1 + 0x30] = a3\n 42588: a3 = u64 [a1 + 0x8]\n 42591: u64 [s1 + 0x28] = a3\n 42594: a3 = u64 [a1 + 0x10]\n 42597: u64 [s1 + 0x20] = a3\n 42600: a1 = u64 [a1 + 0x18]\n 42603: u64 [s1 + 0x18] = a1\n 42606: a3 = u64 [a2]\n 42608: a1 = u64 [a2 + 0x8]\n 42611: a2 = u32 [a2 + 0x10]\n 42614: u64 [s1 + 0x38] = a0\n 42617: u64 [s1 + 120] = 0\n 42620: u64 [s1 + 0x70] = a2\n 42623: u64 [s1 + 0x68] = a1\n 42626: a1 = s1 + 0x60\n 42629: u64 [s1 + 0x60] = a3\n 42632: a0 = 0\n 42634: ra = 1988, jump @24\n      : @1643 [@dyn 994] (gas: 11)\n 42641: a0 = u64 [s1 + 0x18]\n 42644: u64 [s1 + 0x58] = a0\n 42647: a0 = u64 [s1 + 0x20]\n 42650: u64 [s1 + 0x50] = a0\n 42653: a0 = u64 [s1 + 0x28]\n 42656: u64 [s1 + 0x48] = a0\n 42659: a0 = 0x20\n 42662: a1 = s1 + 0x40\n 42665: a2 = u64 [s1 + 0x30]\n 42668: u64 [s1 + 0x40] = a2\n 42671: ra = 1990, jump @24\n      : @1644 [@dyn 995] (gas: 2)\n 42678: a1 = i32 [0x20150]\n 42683: jump @1646 if a1 >u 63\n      : @1645 (gas: 2)\n 42687: u32 [0x20150] = 0x40\n 42693: fallthrough\n      : @1646 (gas: 13)\n 42694: a0 = sp + 0xffffffffffffffe0\n 42697: a2 = a0 & 0xffffffffffffffe0\n 42700: u64 [s1 + 0x30] = a2\n 42703: sp = a2\n 42705: a0 = 0x20160\n 42710: i32 a0 = a0 + 0\n 42712: i32 a2 = a2 + 0\n 42714: a1 = 0x40\n 42717: ra = 0x7c8\n 42721: ecalli 11 // 'hash_keccak_256'\n 42723: a3 = u64 [s1 + 0x30]\n 42726: t0 = 0x7ca\n 42730: jump @2213\n      : @1647 [@dyn 996] (gas: 2)\n 42733: a3 = u64 [s1 + 0x30]\n 42736: t0 = 1994, jump @2213\n      : @1648 [@dyn 997] (gas: 6)\n 42742: a4 = u64 [s1 + 0x38]\n 42745: u64 [a4 + 0x18] = a3\n 42748: u64 [a4 + 0x10] = a2\n 42751: u64 [a4 + 0x8] = a1\n 42754: u64 [a4] = a0\n 42756: t0 = 1996, jump @2309\n      : @1649 [@dyn 998] (gas: 1)\n 42762: ret\n      : @1650 [@dyn 999] (gas: 11)\n 42764: a2 = u64 [a1]\n 42766: a3 = u64 [a1 + 0x8]\n 42769: a1 = u32 [a1 + 0x10]\n 42772: u64 [s1 + 0x18] = a0\n 42775: u64 [s1 + 120] = 0\n 42778: u64 [s1 + 0x70] = a1\n 42781: u64 [s1 + 0x68] = a3\n 42784: a1 = s1 + 0x60\n 42787: u64 [s1 + 0x60] = a2\n 42790: a0 = 0\n 42792: ra = 2000, jump @24\n      : @1651 [@dyn 1000] (gas: 7)\n 42799: u64 [s1 + 88] = 0\n 42802: u64 [s1 + 80] = 0\n 42805: u64 [s1 + 72] = 0\n 42808: a0 = 0x20\n 42811: a1 = s1 + 0x40\n 42814: u64 [s1 + 64] = 0\n 42817: ra = 2002, jump @24\n      : @1652 [@dyn 1001] (gas: 2)\n 42824: a1 = i32 [0x20150]\n 42829: jump @1654 if a1 >u 63\n      : @1653 (gas: 4)\n 42833: a1 = 0x40\n 42836: u32 [0x20150] = a1\n 42841: t0 = 0x7d4\n 42845: jump @2260\n      : @1654 (gas: 1)\n 42848: t0 = 2004, jump @2260\n      : @1655 [@dyn 1002] (gas: 9)\n 42854: a0 = 0x20160\n 42859: i32 a0 = a0 + 0\n 42861: i32 a2 = a2 + 0\n 42863: a1 = 0x40\n 42866: ra = 0x7d6\n 42870: ecalli 11 // 'hash_keccak_256'\n 42872: a3 = u64 [s1 + 0x10]\n 42875: t0 = 0x7d8\n 42879: jump @2213\n      : @1656 [@dyn 1003] (gas: 2)\n 42882: a3 = u64 [s1 + 0x10]\n 42885: t0 = 2008, jump @2213\n      : @1657 [@dyn 1004] (gas: 9)\n 42891: u64 [s1 + 0x98] = a3\n 42895: u64 [s1 + 0x90] = a2\n 42899: u64 [s1 + 0x88] = a1\n 42903: u64 [s1 + 0x80] = a0\n 42907: a0 = s1 + 0x20\n 42910: a1 = s1 + 0x80\n 42914: ra = 0x7da\n 42918: t0 = 0x6\n 42921: jump @2259\n      : @1658 [@dyn 1005] (gas: 10)\n 42924: a0 = u64 [s1 + 0x30]\n 42927: a1 = u64 [s1 + 0x38]\n 42930: a2 = u64 [s1 + 0x20]\n 42933: a3 = u64 [s1 + 0x28]\n 42936: a4 = u64 [s1 + 0x18]\n 42939: u64 [a4 + 0x10] = a0\n 42942: u64 [a4 + 0x18] = a1\n 42945: u64 [a4] = a2\n 42947: u64 [a4 + 0x8] = a3\n 42950: t0 = 2012, jump @2350\n      : @1659 [@dyn 1006] (gas: 1)\n 42956: ret\n      : @1660 (gas: 10)\n 42958: sp = sp + 0xffffffffffffff30\n 42962: u64 [sp + 0xc8] = ra\n 42966: u64 [sp + 0xc0] = s0\n 42970: u64 [sp + 0xb8] = s1\n 42974: s0 = sp + 0xd0\n 42978: sp = sp & 0xfffffffffffffff0\n 42981: u64 [sp + 0x8] = a0\n 42984: a0 = sp + 0x90\n 42988: a1 = 0x40\n 42991: ra = 2014, jump @22\n      : @1661 [@dyn 1007] (gas: 15)\n 42998: a0 = u64 [sp + 0xa8]\n 43002: u64 [sp + 0x18] = a0\n 43005: s1 = u64 [sp + 0xa0]\n 43009: a2 = u64 [sp + 0x98]\n 43013: u64 [sp + 0x28] = a2\n 43016: a1 = u64 [sp + 0x90]\n 43020: u64 [sp + 0x20] = a1\n 43023: u64 [sp + 0x88] = a0\n 43027: u64 [sp + 0x80] = s1\n 43031: u64 [sp + 0x78] = a2\n 43034: a0 = sp + 0x70\n 43037: u64 [sp + 0x70] = a1\n 43040: ra = 0x7e0\n 43044: t0 = 0x7a8\n 43048: jump @2371\n      : @1662 [@dyn 1008] (gas: 12)\n 43051: a0 = u64 [sp + 0x18]\n 43054: a1 = u64 [sp + 0x28]\n 43057: a0 = a0 | a1\n 43060: a1 = u64 [sp + 0x20]\n 43063: a1 = a1 | s1\n 43066: a1 = a1 | a0\n 43069: a1 = a1 >> 0x20\n 43072: u64 [sp + 0x10] = s1\n 43075: a0 = a0 | s1\n 43078: a0 = a0 << 0x20\n 43081: a0 = a0 | a1\n 43084: jump @1668 if a0 != 0\n      : @1663 (gas: 8)\n 43087: u64 [sp + 104] = 0\n 43090: u64 [sp + 96] = 0\n 43093: u64 [sp + 88] = 0\n 43096: a1 = sp + 0x50\n 43099: u64 [sp + 80] = 0\n 43102: s1 = u64 [sp + 0x20]\n 43105: a0 = s1\n 43107: ra = 2018, jump @24\n      : @1664 [@dyn 1009] (gas: 3)\n 43114: a0 = u64 [sp + 0x10]\n 43117: a1 = u64 [sp + 0x18]\n 43120: t0 = 2020, jump @2349\n      : @1665 [@dyn 1010] (gas: 4)\n 43126: a2 = u64 [sp + 0x28]\n 43129: a1 = 0 if a2 != 0\n 43131: a1 = 0 if a0 != 0\n 43133: jump @1668 if a1 == 0\n      : @1666 (gas: 8)\n 43136: s1 = u64 [sp + 0x20]\n 43139: i32 a0 = s1 + 0x20\n 43142: u64 [sp + 72] = 0\n 43145: u64 [sp + 64] = 0\n 43148: u64 [sp + 56] = 0\n 43151: a1 = sp + 0x30\n 43154: u64 [sp + 48] = 0\n 43157: ra = 2022, jump @24\n      : @1667 [@dyn 1011] (gas: 14)\n 43164: a0 = u64 [sp + 0x8]\n 43167: a1 = u64 [sp + 0x18]\n 43170: u64 [a0 + 0x18] = a1\n 43173: a1 = u64 [sp + 0x10]\n 43176: u64 [a0 + 0x10] = a1\n 43179: a1 = u64 [sp + 0x28]\n 43182: u64 [a0 + 0x8] = a1\n 43185: u64 [a0] = s1\n 43187: sp = s0 + 0xffffffffffffff30\n 43191: ra = u64 [sp + 0xc8]\n 43195: s0 = u64 [sp + 0xc0]\n 43199: s1 = u64 [sp + 0xb8]\n 43203: sp = sp + 0xd0\n 43207: ret\n      : @1668 (gas: 1)\n 43209: trap\n      : @1669 (gas: 18)\n 43210: sp = sp + 0xfffffffffffffb60\n 43214: a3 = sp + 0x400\n 43218: u64 [a3 + 0x98] = ra\n 43222: u64 [a3 + 0x90] = s0\n 43226: u64 [a3 + 0x88] = s1\n 43230: s0 = sp + 0x4a0\n 43234: sp = sp & 0xffffffffffffffe0\n 43237: s1 = sp\n 43239: a3 = u64 [a0 + 0x10]\n 43242: a5 = u64 [a0 + 0x8]\n 43245: t2 = u64 [a0]\n 43247: u64 [s1 + 0x90] = a3\n 43251: a3 = a3 << 0x20\n 43254: a4 = a3 >> 0x20\n 43257: u64 [s1 + 0x98] = a5\n 43261: a3 = t2 | a5\n 43264: a3 = a3 | a4\n 43267: jump @1689 if a3 == 0\n      : @1670 (gas: 17)\n 43271: u64 [s1 + 0x38] = a4\n 43274: t1 = u64 [a1 + 0x10]\n 43277: a3 = u64 [a1 + 0x8]\n 43280: a5 = u64 [a1]\n 43282: a4 = 0xffffffff\n 43292: u64 [s1 + 0x68] = a3\n 43295: t0 = a3 & 0xffffffffffffffff\n 43298: u64 [s1 + 0x70] = a5\n 43301: a5 = a5 & 0xffffffffffffffff\n 43304: u64 [s1 + 0x60] = t1\n 43307: a3 = t1 & a4\n 43310: u64 [s1 + 0x30] = a3\n 43313: u64 [s1 + 0x20] = a5\n 43316: a3 = a3 | a5\n 43319: u64 [s1 + 0x28] = t0\n 43322: a3 = a3 | t0\n 43325: jump @1694 if a3 == 0\n      : @1671 (gas: 24)\n 43329: a3 = u64 [a2 + 0x18]\n 43332: u64 [s1 + 0xb0] = a3\n 43336: a3 = u64 [a2 + 0x10]\n 43339: u64 [s1 + 0xa0] = a3\n 43343: a3 = u64 [a2 + 0x8]\n 43346: u64 [s1 + 0xa8] = a3\n 43350: a2 = u64 [a2]\n 43352: u64 [s1 + 0xb8] = a2\n 43356: a1 = u64 [a1 + 0x18]\n 43359: u64 [s1 + 0x50] = a1\n 43362: a2 = u64 [a0 + 0x18]\n 43365: u64 [s1 + 0x3c0] = t2\n 43369: a0 = u64 [s1 + 0x98]\n 43373: u64 [s1 + 0x3c8] = a0\n 43377: a0 = u64 [s1 + 0x90]\n 43381: u64 [s1 + 0x3d0] = a0\n 43385: a0 = s1 + 0x3e0\n 43389: a1 = s1 + 0x3c0\n 43393: u64 [s1 + 0x58] = a2\n 43396: u64 [s1 + 0x3d8] = a2\n 43400: u64 [s1 + 0x80] = t2\n 43404: ra = 0x7e8\n 43408: t0 = 0x7ae\n 43412: jump @2257\n      : @1672 [@dyn 1012] (gas: 14)\n 43415: a0 = u64 [s1 + 0x3f8]\n 43419: a1 = u64 [s1 + 0x3f0]\n 43423: a2 = u64 [s1 + 0x3e8]\n 43427: a3 = u64 [s1 + 0x3e0]\n 43431: a4 = s1 + 0x400\n 43435: u64 [a4 + 0x18] = a0\n 43438: u64 [a4 + 0x10] = a1\n 43441: u64 [a4 + 0x8] = a2\n 43444: u64 [a4] = a3\n 43446: a0 = s1 + 0x3a0\n 43450: a1 = s1 + 0x400\n 43454: ra = 0x7ea\n 43458: t0 = 0x6\n 43461: jump @2259\n      : @1673 [@dyn 1013] (gas: 25)\n 43464: a4 = u64 [s1 + 0xb0]\n 43468: t2 = u64 [s1 + 0xa0]\n 43472: t1 = u64 [s1 + 0xa8]\n 43476: a3 = s1 + 0x300\n 43480: a0 = u64 [a3 + 0xb8]\n 43484: t0 = u64 [s1 + 0x3b0]\n 43488: a2 = u64 [a3 + 0xa8]\n 43492: a1 = u64 [a3 + 0xa0]\n 43496: a3 = a0 ^ a4\n 43499: u64 [s1 + 0x48] = a0\n 43502: a4 = a0 <u a4\n 43505: a0 = t0 <u t2\n 43508: a4 = a0 if a3 == 0\n 43511: ra = a2 ^ t1\n 43514: u64 [s1 + 0x78] = a2\n 43517: a2 = a2 <u t1\n 43520: u64 [s1 + 0x88] = a1\n 43524: a5 = u64 [s1 + 0xb8]\n 43528: a1 = a1 <u a5\n 43531: a2 = a1 if ra == 0\n 43534: u64 [s1 + 0x40] = t0\n 43537: a5 = t0 ^ t2\n 43540: a3 = a3 | a5\n 43543: a4 = a2 if a3 == 0\n 43546: jump @1701 if a4 != 0\n      : @1674 (gas: 32)\n 43550: a3 = u64 [s1 + 0x40]\n 43553: a3 = a3 - t2\n 43556: a4 = u64 [s1 + 0x48]\n 43559: a5 = u64 [s1 + 0xb0]\n 43563: a4 = a4 - a5\n 43566: a4 = a4 - a0\n 43569: a0 = a3 <u a2\n 43572: a4 = a4 - a0\n 43575: u64 [s1 + 0x48] = a4\n 43578: a3 = a3 - a2\n 43581: u64 [s1 + 0x40] = a3\n 43584: a0 = u64 [s1 + 0x78]\n 43587: a0 = a0 - t1\n 43590: a0 = a0 - a1\n 43593: u64 [s1 + 0x78] = a0\n 43596: a0 = u64 [s1 + 0x88]\n 43600: a1 = u64 [s1 + 0xb8]\n 43604: a0 = a0 - a1\n 43607: u64 [s1 + 0x88] = a0\n 43611: a0 = u64 [s1 + 0x80]\n 43615: u64 [s1 + 0x360] = a0\n 43619: a0 = u64 [s1 + 0x98]\n 43623: u64 [s1 + 0x368] = a0\n 43627: a0 = u64 [s1 + 0x90]\n 43631: u64 [s1 + 0x370] = a0\n 43635: a0 = s1 + 0x380\n 43639: a1 = s1 + 0x360\n 43643: a2 = u64 [s1 + 0x58]\n 43646: u64 [s1 + 0x378] = a2\n 43650: ra = 0x7ec\n 43654: t0 = 0x7ae\n 43658: jump @2257\n      : @1675 [@dyn 1014] (gas: 19)\n 43661: a0 = u64 [s1 + 0x398]\n 43665: a1 = u64 [s1 + 0x390]\n 43669: a2 = u64 [s1 + 0x388]\n 43673: a3 = u64 [s1 + 0x380]\n 43677: u64 [s1 + 0x438] = a0\n 43681: u64 [s1 + 0x430] = a1\n 43685: u64 [s1 + 0x428] = a2\n 43689: u64 [s1 + 0x420] = a3\n 43693: a0 = u64 [s1 + 0x40]\n 43696: u64 [s1 + 0x450] = a0\n 43700: a0 = u64 [s1 + 0x78]\n 43703: u64 [s1 + 0x448] = a0\n 43707: a0 = u64 [s1 + 0x88]\n 43711: u64 [s1 + 0x440] = a0\n 43715: a0 = u64 [s1 + 0x48]\n 43718: u64 [s1 + 0x458] = a0\n 43722: a0 = s1 + 0x420\n 43726: a1 = s1 + 0x440\n 43730: ra = 2030, jump @28\n      : @1676 [@dyn 1015] (gas: 17)\n 43737: a0 = sp + 0xffffffffffffffe0\n 43740: a0 = a0 & 0xffffffffffffffe0\n 43743: u64 [s1 + 0x88] = a0\n 43747: sp = a0\n 43749: a0 = u64 [s1 + 0x50]\n 43752: u64 [s1 + 0x338] = a0\n 43756: a0 = u64 [s1 + 0x60]\n 43759: u64 [s1 + 0x330] = a0\n 43763: a0 = u64 [s1 + 0x68]\n 43766: u64 [s1 + 0x328] = a0\n 43770: a0 = s1 + 0x340\n 43774: a1 = s1 + 0x320\n 43778: a2 = u64 [s1 + 0x70]\n 43781: u64 [s1 + 0x320] = a2\n 43785: ra = 0x7f0\n 43789: t0 = 0x7ae\n 43793: jump @2257\n      : @1677 [@dyn 1016] (gas: 13)\n 43796: a0 = u64 [s1 + 0x350]\n 43800: a4 = u64 [s1 + 0x358]\n 43804: a2 = u64 [s1 + 0x340]\n 43808: a3 = u64 [s1 + 0x348]\n 43812: a1 = u64 [s1 + 0x88]\n 43816: u64 [a1 + 0x10] = a0\n 43819: u64 [a1 + 0x18] = a4\n 43822: u64 [a1] = a2\n 43824: u64 [a1 + 0x8] = a3\n 43827: a0 = s1 + 0x300\n 43831: ra = 0x7f2\n 43835: t0 = 0x6\n 43838: jump @2259\n      : @1678 [@dyn 1017] (gas: 31)\n 43841: a2 = s1 + 0x300\n 43845: a0 = u64 [a2 + 0x8]\n 43848: a1 = u64 [a2]\n 43850: t0 = u64 [s1 + 0x318]\n 43854: a3 = u64 [a2 + 0x10]\n 43857: a4 = u64 [s1 + 0xa8]\n 43861: a4 = a4 + a0\n 43864: a5 = u64 [s1 + 0xb8]\n 43868: a5 = a5 + a1\n 43871: a1 = a5 <u a1\n 43874: a4 = a4 + a1\n 43877: a2 = a4 ^ a0\n 43880: a0 = a4 <u a0\n 43883: a0 = a1 if a2 == 0\n 43886: a1 = u64 [s1 + 0xa0]\n 43890: a1 = a1 + a3\n 43893: a2 = u64 [s1 + 0xb0]\n 43897: t0 = t0 + a2\n 43900: a2 = a1 <u a3\n 43903: a2 = a2 + t0\n 43906: a0 = a0 + a1\n 43909: a1 = a0 <u a1\n 43912: a1 = a1 + a2\n 43915: a2 = s1 + 0x400\n 43919: u64 [a2 + 0x60] = a5\n 43922: u64 [a2 + 0x68] = a4\n 43925: u64 [a2 + 0x70] = a0\n 43928: u64 [a2 + 0x78] = a1\n 43931: a1 = s1 + 0x460\n 43935: a0 = u64 [s1 + 0x88]\n 43939: ra = 2036, jump @28\n      : @1679 [@dyn 1018] (gas: 3)\n 43946: a0 = s1 + 0x2e0\n 43950: a1 = 0x40\n 43953: ra = 2038, jump @22\n      : @1680 [@dyn 1019] (gas: 25)\n 43960: a5 = s1 + 0x200\n 43964: a2 = u64 [a5 + 0xf8]\n 43968: u64 [s1 + 0x78] = a2\n 43971: a1 = u64 [a5 + 0xf0]\n 43975: u64 [s1 + 0x48] = a1\n 43978: a3 = u64 [a5 + 0xe8]\n 43982: u64 [s1 + 0x40] = a3\n 43985: a4 = u64 [a5 + 0xe0]\n 43989: u64 [s1 + 0x88] = a4\n 43993: a0 = u64 [s1 + 0xb0]\n 43997: u64 [a5 + 0x98] = a0\n 44001: a0 = u64 [s1 + 0xa0]\n 44005: u64 [a5 + 0x90] = a0\n 44009: a0 = u64 [s1 + 0xa8]\n 44013: u64 [a5 + 0x88] = a0\n 44017: a0 = u64 [s1 + 0xb8]\n 44021: u64 [a5 + 0x80] = a0\n 44025: u64 [a5 + 0xb8] = a2\n 44029: u64 [a5 + 0xb0] = a1\n 44033: u64 [a5 + 0xa8] = a3\n 44037: a0 = s1 + 0x2c0\n 44041: a1 = s1 + 0x2a0\n 44045: a2 = s1 + 0x280\n 44049: u64 [a5 + 0xa0] = a4\n 44053: ra = 2040, jump @558\n      : @1681 [@dyn 1020] (gas: 7)\n 44059: a2 = u64 [s1 + 0x40]\n 44062: a0 = u64 [s1 + 0x78]\n 44065: a0 = a0 | a2\n 44068: a3 = u64 [s1 + 0x48]\n 44071: a1 = u64 [s1 + 0x88]\n 44075: a1 = a1 | a3\n 44078: t0 = 2042, jump @2313\n      : @1682 [@dyn 1021] (gas: 1)\n 44084: jump @1688 if a0 != 0\n      : @1683 (gas: 27)\n 44088: ra = a3\n 44090: a4 = s1 + 0x200\n 44094: a0 = u64 [a4 + 0xc8]\n 44098: a1 = u64 [a4 + 0xd8]\n 44102: u64 [s1 + 0x18] = a1\n 44105: t1 = u64 [s1 + 0x2c0]\n 44109: a3 = u64 [a4 + 0xd0]\n 44113: a4 = a0 ^ a2\n 44116: a5 = a0 <u a2\n 44119: t0 = u64 [s1 + 0x88]\n 44123: a1 = t1 <u t0\n 44126: a5 = a1 if a4 == 0\n 44129: a4 = a3 - ra\n 44132: t2 = a4 - a5\n 44135: a4 = a4 <u a5\n 44138: u64 [s1 + 0x10] = a4\n 44141: a3 = a3 <u ra\n 44144: a5 = u64 [s1 + 0x78]\n 44147: a4 = u64 [s1 + 0x18]\n 44150: a5 = a4 - a5\n 44153: a5 = a5 - a3\n 44156: a3 = u64 [s1 + 0x10]\n 44159: a5 = a5 - a3\n 44162: a0 = a0 - a2\n 44165: a0 = a0 - a1\n 44168: a1 = t1 - t0\n 44171: t0 = 2044, jump @2220\n      : @1684 [@dyn 1022] (gas: 1)\n 44177: jump @1688 if a0 != 0\n      : @1685 (gas: 27)\n 44181: u64 [s1 + 568] = 0\n 44185: a0 = u64 [s1 + 0x20]\n 44188: u64 [s1 + 0x220] = a0\n 44192: u64 [s1 + 600] = 0\n 44196: a0 = u64 [s1 + 0x80]\n 44200: u64 [s1 + 0x240] = a0\n 44204: a0 = u64 [s1 + 0x28]\n 44207: u64 [s1 + 0x228] = a0\n 44211: a0 = u64 [s1 + 0x98]\n 44215: u64 [s1 + 0x248] = a0\n 44219: a0 = u64 [0x200b8]\n 44224: a2 = u64 [0x200c0]\n 44229: a3 = u64 [0x200c8]\n 44234: a4 = u64 [0x200d0]\n 44239: u64 [s1 + 0x278] = a0\n 44243: u64 [s1 + 0x270] = a2\n 44247: u64 [s1 + 0x268] = a3\n 44251: u64 [s1 + 0x260] = a4\n 44255: a0 = u64 [s1 + 0x30]\n 44258: u64 [s1 + 0x230] = a0\n 44262: a2 = s1 + 0x260\n 44266: a3 = s1 + 0x240\n 44270: a4 = s1 + 0x220\n 44274: a0 = u64 [s1 + 0x38]\n 44277: u64 [s1 + 0x250] = a0\n 44281: a0 = u64 [s1 + 0x88]\n 44285: ra = 2046, jump @32\n      : @1686 [@dyn 1023] (gas: 30)\n 44292: a0 = u64 [s1 + 0xb0]\n 44296: a1 = s1 + 0x100\n 44300: u64 [a1 + 0xd8] = a0\n 44304: a0 = u64 [s1 + 0xa0]\n 44308: u64 [a1 + 0xd0] = a0\n 44312: a0 = u64 [s1 + 0xa8]\n 44316: u64 [a1 + 0xc8] = a0\n 44320: a0 = u64 [s1 + 0xb8]\n 44324: u64 [a1 + 0xc0] = a0\n 44328: a0 = u64 [s1 + 0x50]\n 44331: u64 [a1 + 0xf8] = a0\n 44335: a0 = u64 [s1 + 0x60]\n 44338: u64 [a1 + 0xf0] = a0\n 44342: a0 = u64 [s1 + 0x68]\n 44345: u64 [a1 + 0xe8] = a0\n 44349: a0 = u64 [s1 + 0x70]\n 44352: u64 [a1 + 0xe0] = a0\n 44356: a0 = u64 [s1 + 0x58]\n 44359: a4 = s1 + 0x200\n 44363: u64 [a4 + 0x18] = a0\n 44366: a0 = u64 [s1 + 0x90]\n 44370: u64 [a4 + 0x10] = a0\n 44373: a0 = u64 [s1 + 0x98]\n 44377: u64 [a4 + 0x8] = a0\n 44380: a0 = s1 + 0x200\n 44384: a1 = s1 + 0x1e0\n 44388: a2 = s1 + 0x1c0\n 44392: a3 = u64 [s1 + 0x80]\n 44396: u64 [a4] = a3\n 44398: ra = 2048, jump @2113\n      : @1687 [@dyn 1024] (gas: 7)\n 44404: sp = s0 + 0xfffffffffffffb60\n 44408: a0 = sp + 0x400\n 44412: ra = u64 [a0 + 0x98]\n 44416: s0 = u64 [a0 + 0x90]\n 44420: s1 = u64 [a0 + 0x88]\n 44424: sp = sp + 0x4a0\n 44428: ret\n      : @1688 (gas: 1)\n 44430: trap\n      : @1689 (gas: 8)\n 44431: u64 [s1 + 240] = 0\n 44435: u64 [s1 + 232] = 0\n 44439: u64 [s1 + 224] = 0\n 44443: a0 = 0x96c6fd1e00000000\n 44453: a1 = s1 + 0xe0\n 44457: u64 [s1 + 0xf8] = a0\n 44461: a0 = 0\n 44463: ra = 2050, jump @24\n      : @1690 [@dyn 1025] (gas: 7)\n 44470: u64 [s1 + 216] = 0\n 44474: u64 [s1 + 208] = 0\n 44478: u64 [s1 + 200] = 0\n 44482: a0 = 0x4\n 44485: a1 = s1 + 0xc0\n 44489: u64 [s1 + 192] = 0\n 44493: ra = 2052, jump @24\n      : @1691 [@dyn 1026] (gas: 2)\n 44500: a1 = i32 [0x20150]\n 44505: jump @1693 if a1 >u 63\n      : @1692 (gas: 3)\n 44509: u32 [0x20150] = 0x40\n 44515: a1 = 0x20160\n 44520: jump @1700\n      : @1693 (gas: 2)\n 44522: a1 = 0x20160\n 44527: jump @1700\n      : @1694 (gas: 8)\n 44529: u64 [s1 + 304] = 0\n 44533: u64 [s1 + 296] = 0\n 44537: u64 [s1 + 288] = 0\n 44541: a0 = 0xec442f0500000000\n 44551: a1 = s1 + 0x120\n 44555: u64 [s1 + 0x138] = a0\n 44559: a0 = 0\n 44561: ra = 2054, jump @24\n      : @1695 [@dyn 1027] (gas: 1)\n 44568: t0 = 2056, jump @2370\n      : @1696 [@dyn 1028] (gas: 4)\n 44574: a0 = 0x4\n 44577: a1 = s1 + 0x100\n 44581: u64 [s1 + 256] = 0\n 44585: ra = 2058, jump @24\n      : @1697 [@dyn 1029] (gas: 2)\n 44592: a1 = i32 [0x20150]\n 44597: jump @1699 if a1 >u 63\n      : @1698 (gas: 3)\n 44601: u32 [0x20150] = 0x40\n 44607: a1 = 0x20160\n 44612: jump @1700\n      : @1699 (gas: 2)\n 44614: a1 = 0x20160\n 44619: fallthrough\n      : @1700 (gas: 5)\n 44620: i32 a1 = a1 + 0\n 44622: a0 = 0x1\n 44625: a2 = 0x24\n 44628: ecalli 16 // 'seal_return'\n 44630: fallthrough\n      : @1701 (gas: 8)\n 44631: u64 [s1 + 432] = 0\n 44635: u64 [s1 + 424] = 0\n 44639: u64 [s1 + 416] = 0\n 44643: a0 = 0xe450d38c00000000\n 44653: a1 = s1 + 0x1a0\n 44657: u64 [s1 + 0x1b8] = a0\n 44661: a0 = 0\n 44663: ra = 2060, jump @24\n      : @1702 [@dyn 1030] (gas: 10)\n 44670: u64 [s1 + 408] = 0\n 44674: a0 = u64 [s1 + 0x38]\n 44677: u64 [s1 + 0x190] = a0\n 44681: a0 = u64 [s1 + 0x98]\n 44685: u64 [s1 + 0x188] = a0\n 44689: a0 = 0x4\n 44692: a1 = s1 + 0x180\n 44696: a2 = u64 [s1 + 0x80]\n 44700: u64 [s1 + 0x180] = a2\n 44704: ra = 2062, jump @24\n      : @1703 [@dyn 1031] (gas: 11)\n 44711: a0 = u64 [s1 + 0x48]\n 44714: u64 [s1 + 0x178] = a0\n 44718: a0 = u64 [s1 + 0x40]\n 44721: u64 [s1 + 0x170] = a0\n 44725: a0 = u64 [s1 + 0x78]\n 44728: u64 [s1 + 0x168] = a0\n 44732: a0 = 0x24\n 44735: a1 = s1 + 0x160\n 44739: a2 = u64 [s1 + 0x88]\n 44743: u64 [s1 + 0x160] = a2\n 44747: ra = 2064, jump @24\n      : @1704 [@dyn 1032] (gas: 12)\n 44754: a0 = u64 [s1 + 0xb0]\n 44758: a3 = s1 + 0x100\n 44762: u64 [a3 + 0x58] = a0\n 44765: a0 = u64 [s1 + 0xa0]\n 44769: u64 [a3 + 0x50] = a0\n 44772: a0 = u64 [s1 + 0xa8]\n 44776: u64 [a3 + 0x48] = a0\n 44779: a0 = 0x44\n 44782: a1 = s1 + 0x140\n 44786: a2 = u64 [s1 + 0xb8]\n 44790: u64 [a3 + 0x40] = a2\n 44793: ra = 2066, jump @24\n      : @1705 [@dyn 1033] (gas: 2)\n 44800: a1 = i32 [0x20150]\n 44805: jump @1707 if a1 >u 127\n      : @1706 (gas: 2)\n 44809: u32 [0x20150] = 0x80\n 44816: fallthrough\n      : @1707 (gas: 7)\n 44817: a1 = 0x20160\n 44822: i32 a1 = a1 + 0\n 44824: a0 = 0x1\n 44827: a2 = 0x64\n 44830: ra = 0x814\n 44834: ecalli 16 // 'seal_return'\n 44836: fallthrough\n      : @1708 [@dyn 1034] (gas: 33)\n 44837: sp = sp + 0xfffffffffffffe80\n 44841: u64 [sp + 0x178] = ra\n 44845: u64 [sp + 0x170] = s0\n 44849: u64 [sp + 0x168] = s1\n 44853: s0 = sp + 0x180\n 44857: sp = sp & 0xffffffffffffffe0\n 44860: a2 = u64 [a1]\n 44862: u64 [sp + 0x58] = a2\n 44865: a2 = u64 [a1 + 0x8]\n 44868: u64 [sp + 0x50] = a2\n 44871: a2 = u64 [a1 + 0x10]\n 44874: u64 [sp + 0x48] = a2\n 44877: a1 = u64 [a1 + 0x18]\n 44880: u64 [sp + 0x40] = a1\n 44883: u64 [sp + 0x28] = a0\n 44886: i32 a0 = sp + 0x140\n 44890: ecalli 1 // 'block_number'\n 44892: a0 = u64 [sp + 0x158]\n 44896: u64 [sp + 0x30] = a0\n 44899: a1 = u64 [sp + 0x150]\n 44903: u64 [sp + 0x38] = a1\n 44906: s1 = u64 [sp + 0x148]\n 44910: a2 = u64 [sp + 0x140]\n 44914: u64 [sp + 0x20] = a2\n 44917: u64 [sp + 0x118] = a0\n 44921: u64 [sp + 0x110] = a1\n 44925: u64 [sp + 0x108] = s1\n 44929: a0 = sp + 0x120\n 44933: a1 = sp + 0x100\n 44937: u64 [sp + 0x100] = a2\n 44941: ra = 0x816\n 44945: t0 = 0x884\n 44949: jump @2372\n      : @1709 [@dyn 1035] (gas: 20)\n 44952: a4 = u64 [sp + 0x40]\n 44955: a5 = u64 [sp + 0x30]\n 44958: a0 = a5 ^ a4\n 44961: a2 = u64 [sp + 0x50]\n 44964: a1 = s1 ^ a2\n 44967: u64 [sp + 0x18] = s1\n 44970: a2 = a2 <u s1\n 44973: s1 = u64 [sp + 0x20]\n 44976: a3 = u64 [sp + 0x58]\n 44979: a3 = a3 <u s1\n 44982: a3 = a2 if a1 != 0\n 44985: a1 = a4 <u a5\n 44988: a4 = u64 [sp + 0x48]\n 44991: a5 = u64 [sp + 0x38]\n 44994: a2 = a4 <u a5\n 44997: a2 = a1 if a0 != 0\n 45000: a1 = a5 ^ a4\n 45003: a0 = a0 | a1\n 45006: a3 = a2 if a0 != 0\n 45009: jump @1712 if a3 == 0\n      : @1710 (gas: 13)\n 45012: a0 = u64 [sp + 0x58]\n 45015: u64 [sp + 0x60] = a0\n 45018: a0 = u64 [sp + 0x50]\n 45021: u64 [sp + 0x68] = a0\n 45024: a0 = u64 [sp + 0x48]\n 45027: u64 [sp + 0x70] = a0\n 45030: a0 = sp + 0x80\n 45034: a1 = sp + 0x60\n 45037: s1 = u64 [sp + 0x40]\n 45040: u64 [sp + 0x78] = s1\n 45043: ra = 0x818\n 45047: t0 = 0x884\n 45051: jump @2372\n      : @1711 [@dyn 1036] (gas: 14)\n 45054: a0 = u64 [sp + 0x28]\n 45057: u64 [a0 + 0x18] = s1\n 45060: a1 = u64 [sp + 0x48]\n 45063: u64 [a0 + 0x10] = a1\n 45066: a1 = u64 [sp + 0x50]\n 45069: u64 [a0 + 0x8] = a1\n 45072: a1 = u64 [sp + 0x58]\n 45075: u64 [a0] = a1\n 45077: sp = s0 + 0xfffffffffffffe80\n 45081: ra = u64 [sp + 0x178]\n 45085: s0 = u64 [sp + 0x170]\n 45089: s1 = u64 [sp + 0x168]\n 45093: sp = sp + 0x180\n 45097: ret\n      : @1712 (gas: 8)\n 45099: u64 [sp + 240] = 0\n 45103: u64 [sp + 232] = 0\n 45107: u64 [sp + 224] = 0\n 45111: a0 = 0xecd3f81e00000000\n 45121: a1 = sp + 0xe0\n 45125: u64 [sp + 0xf8] = a0\n 45129: a0 = 0\n 45131: ra = 2074, jump @24\n      : @1713 [@dyn 1037] (gas: 11)\n 45138: a0 = u64 [sp + 0x40]\n 45141: u64 [sp + 0xd8] = a0\n 45145: a0 = u64 [sp + 0x48]\n 45148: u64 [sp + 0xd0] = a0\n 45152: a0 = u64 [sp + 0x50]\n 45155: u64 [sp + 0xc8] = a0\n 45159: a0 = 0x4\n 45162: a1 = sp + 0xc0\n 45166: a2 = u64 [sp + 0x58]\n 45169: u64 [sp + 0xc0] = a2\n 45173: ra = 2076, jump @24\n      : @1714 [@dyn 1038] (gas: 10)\n 45180: a0 = u64 [sp + 0x30]\n 45183: u64 [sp + 0xb8] = a0\n 45187: a0 = u64 [sp + 0x38]\n 45190: u64 [sp + 0xb0] = a0\n 45194: a0 = u64 [sp + 0x18]\n 45197: u64 [sp + 0xa8] = a0\n 45201: a0 = 0x24\n 45204: a1 = sp + 0xa0\n 45208: u64 [sp + 0xa0] = s1\n 45212: ra = 2078, jump @24\n      : @1715 [@dyn 1039] (gas: 2)\n 45219: a1 = i32 [0x20150]\n 45224: jump @1717 if a1 >u 95\n      : @1716 (gas: 2)\n 45228: u32 [0x20150] = 0x60\n 45234: fallthrough\n      : @1717 (gas: 7)\n 45235: a1 = 0x20160\n 45240: i32 a1 = a1 + 0\n 45242: a0 = 0x1\n 45245: a2 = 0x44\n 45248: ra = 0x820\n 45252: ecalli 16 // 'seal_return'\n 45254: fallthrough\n      : @1718 [@dyn 1040] (gas: 16)\n 45255: a2 = u64 [a1]\n 45257: t0 = u64 [a1 + 0x18]\n 45260: a3 = u64 [a1 + 0x8]\n 45263: a5 = u64 [a1 + 0x10]\n 45266: a4 = a2 + 0x1\n 45269: a2 = a4 <u 0x1\n 45272: a2 = a2 + a3\n 45275: a3 = a4 | a2\n 45278: a3 = a3 <u 0x1\n 45281: a3 = a3 + a5\n 45284: a5 = a3 <u a5\n 45287: a5 = a5 + t0\n 45290: t0 = a2 | a5\n 45293: a1 = a4 | a3\n 45296: a1 = a1 | t0\n 45299: jump @1720 if a1 == 0\n      : @1719 (gas: 5)\n 45302: u64 [a0] = a4\n 45304: u64 [a0 + 0x8] = a2\n 45307: u64 [a0 + 0x10] = a3\n 45310: u64 [a0 + 0x18] = a5\n 45313: ret\n      : @1720 (gas: 3)\n 45315: ra = 0x822\n 45319: t0 = 0x28e\n 45323: jump @2232\n      : @1721 [@dyn 1041] (gas: 1)\n 45326: t0 = 2084, jump @2259\n      : @1722 [@dyn 1042] (gas: 9)\n 45332: u64 [sp + 0x38] = a0\n 45335: u64 [sp + 0x30] = a2\n 45338: u64 [sp + 0x28] = a3\n 45341: u64 [sp + 0x20] = a1\n 45344: a0 = sp\n 45346: a1 = sp + 0x20\n 45349: ra = 0x826\n 45353: t0 = 0x6\n 45356: jump @2259\n      : @1723 [@dyn 1043] (gas: 18)\n 45359: a0 = u64 [sp + 0x10]\n 45362: a1 = u64 [sp + 0x8]\n 45365: a2 = u64 [sp + 0x18]\n 45368: a3 = u16 [sp + 0x6]\n 45371: a4 = a0 << 0x10\n 45374: a5 = a1 >> 0x30\n 45377: a4 = a4 | a5\n 45380: a1 = a1 << 0x10\n 45383: a1 = a1 | a3\n 45386: a3 = a2 << 0x10\n 45389: a0 = a0 >> 0x30\n 45392: a0 = a0 | a3\n 45395: a2 = a2 >> 0x30\n 45398: u64 [s1 + 0x18] = a2\n 45401: u64 [s1 + 0x10] = a0\n 45404: u64 [s1] = a1\n 45406: u64 [s1 + 0x8] = a4\n 45409: t0 = 2088, jump @2229\n      : @1724 [@dyn 1044] (gas: 1)\n 45415: ret\n      : @1725 (gas: 34)\n 45417: sp = sp + 0xfffffffffffffd40\n 45421: a2 = sp + 0x200\n 45425: u64 [a2 + 0xb8] = ra\n 45429: u64 [a2 + 0xb0] = s0\n 45433: u64 [a2 + 0xa8] = s1\n 45437: s0 = sp + 0x2c0\n 45441: sp = sp & 0xffffffffffffffe0\n 45444: s1 = sp\n 45446: a2 = u64 [a1 + 0x18]\n 45449: u64 [s1 + 0x10] = a2\n 45452: a2 = u64 [a1 + 0x10]\n 45455: u64 [s1 + 0x58] = a2\n 45458: a2 = u64 [a1 + 0x8]\n 45461: u64 [s1 + 0x60] = a2\n 45464: a1 = u64 [a1]\n 45466: u64 [s1 + 0x68] = a1\n 45469: a1 = u64 [a0 + 0x18]\n 45472: u64 [s1 + 0x8] = a1\n 45475: a2 = u64 [a0 + 0x10]\n 45478: a1 = u64 [a0]\n 45480: a3 = u64 [a0 + 0x8]\n 45483: u64 [s1] = a2\n 45485: a0 = a2 << 0x20\n 45488: a0 = a0 >> 0x20\n 45491: u64 [s1 + 600] = 0\n 45495: u64 [s1 + 0x70] = a3\n 45498: u64 [s1 + 0x248] = a3\n 45502: u64 [s1 + 0x78] = a1\n 45505: u64 [s1 + 0x240] = a1\n 45509: a1 = s1 + 0x240\n 45513: u64 [s1 + 0x50] = a0\n 45516: u64 [s1 + 0x250] = a0\n 45520: a0 = 0\n 45522: ra = 2090, jump @24\n      : @1726 [@dyn 1045] (gas: 7)\n 45529: u64 [s1 + 568] = 0\n 45533: u64 [s1 + 560] = 0\n 45537: u64 [s1 + 552] = 0\n 45541: a0 = 0x20\n 45544: a1 = s1 + 0x220\n 45548: u64 [s1 + 544] = 0x8\n 45553: ra = 2092, jump @24\n      : @1727 [@dyn 1046] (gas: 3)\n 45560: a1 = 0x20150\n 45565: a0 = i32 [0x20150]\n 45570: jump @1729 if a0 >u 63\n      : @1728 (gas: 2)\n 45574: u32 [0x20150] = 0x40\n 45580: fallthrough\n      : @1729 (gas: 17)\n 45581: a0 = 0xffffffff\n 45591: u64 [s1 + 0x30] = a0\n 45594: a0 = sp + 0xffffffffffffffe0\n 45597: a2 = a0 & 0xffffffffffffffe0\n 45600: u64 [s1 + 0x40] = a2\n 45603: sp = a2\n 45605: a0 = 0x20160\n 45610: i32 a0 = a0 + 0\n 45612: i32 a2 = a2 + 0\n 45614: u64 [s1 + 0x48] = a1\n 45617: a1 = 0x40\n 45620: u64 [s1 + 0x20] = a0\n 45623: ra = 0x82e\n 45627: ecalli 11 // 'hash_keccak_256'\n 45629: a3 = u64 [s1 + 0x40]\n 45632: t0 = 0x830\n 45636: jump @2213\n      : @1730 [@dyn 1047] (gas: 2)\n 45639: a3 = u64 [s1 + 0x40]\n 45642: t0 = 2096, jump @2213\n      : @1731 [@dyn 1048] (gas: 9)\n 45648: u64 [s1 + 0x278] = a3\n 45652: u64 [s1 + 0x270] = a2\n 45656: u64 [s1 + 0x268] = a1\n 45660: u64 [s1 + 0x260] = a0\n 45664: a0 = s1 + 0x200\n 45668: a1 = s1 + 0x260\n 45672: ra = 0x832\n 45676: t0 = 0x6\n 45679: jump @2259\n      : @1732 [@dyn 1049] (gas: 17)\n 45682: a1 = s1 + 0x200\n 45686: a0 = u64 [a1 + 0x10]\n 45689: u64 [s1 + 0x38] = a0\n 45692: a0 = u64 [a1 + 0x8]\n 45695: u64 [s1 + 0x40] = a0\n 45698: a0 = u64 [a1]\n 45700: u64 [s1 + 0x18] = a0\n 45703: u64 [s1 + 504] = 0\n 45707: a0 = u64 [s1 + 0x50]\n 45710: u64 [s1 + 0x1f0] = a0\n 45714: a0 = u64 [s1 + 0x70]\n 45717: u64 [s1 + 0x1e8] = a0\n 45721: a1 = s1 + 0x1e0\n 45725: a0 = u64 [s1 + 0x78]\n 45728: u64 [s1 + 0x1e0] = a0\n 45732: a0 = 0\n 45734: ra = 2100, jump @24\n      : @1733 [@dyn 1050] (gas: 7)\n 45741: u64 [s1 + 472] = 0\n 45745: u64 [s1 + 464] = 0\n 45749: u64 [s1 + 448] = 0x8\n 45754: a0 = 0x20\n 45757: a1 = s1 + 0x1c0\n 45761: u64 [s1 + 456] = 0\n 45765: ra = 2102, jump @24\n      : @1734 [@dyn 1051] (gas: 7)\n 45772: a1 = u64 [s1 + 0x48]\n 45775: a0 = sp + 0xffffffffffffffe0\n 45778: a0 = a0 & 0xffffffffffffffe0\n 45781: u64 [s1 + 0x28] = a0\n 45784: sp = a0\n 45786: a0 = i32 [a1]\n 45788: jump @1736 if a0 >u 63\n      : @1735 (gas: 2)\n 45792: u32 [a1 + 0] = 0x40\n 45795: fallthrough\n      : @1736 (gas: 22)\n 45796: a0 = u64 [s1 + 0x18]\n 45799: a0 = a0 & 0xffffffffffffffff\n 45802: u64 [s1 + 0x48] = a0\n 45805: a0 = u64 [s1 + 0x40]\n 45808: a0 = a0 & 0xffffffffffffffff\n 45811: u64 [s1 + 0x40] = a0\n 45814: a0 = u64 [s1 + 0x38]\n 45817: a1 = u64 [s1 + 0x30]\n 45820: a0 = a0 & a1\n 45823: u64 [s1 + 0x38] = a0\n 45826: a0 = sp + 0xffffffffffffffe0\n 45829: a0 = a0 & 0xffffffffffffffe0\n 45832: u64 [s1 + 0x18] = a0\n 45835: sp = a0\n 45837: i32 a2 = a0 + 0\n 45839: a1 = 0x40\n 45842: a0 = u64 [s1 + 0x20]\n 45845: ra = 0x838\n 45849: ecalli 11 // 'hash_keccak_256'\n 45851: a3 = u64 [s1 + 0x18]\n 45854: t0 = 0x83a\n 45858: jump @2213\n      : @1737 [@dyn 1052] (gas: 2)\n 45861: a3 = u64 [s1 + 0x18]\n 45864: t0 = 2106, jump @2213\n      : @1738 [@dyn 1053] (gas: 20)\n 45870: a4 = u64 [s1 + 0x28]\n 45873: u64 [a4 + 0x18] = a3\n 45876: u64 [a4 + 0x10] = a2\n 45879: u64 [a4 + 0x8] = a1\n 45882: u64 [a4] = a0\n 45884: a0 = u64 [s1 + 0x68]\n 45887: a0 = a0 & 0xffffffffffffffff\n 45890: u64 [s1 + 0x20] = a0\n 45893: a0 = u64 [s1 + 0x60]\n 45896: a0 = a0 & 0xffffffffffffffff\n 45899: u64 [s1 + 0x18] = a0\n 45902: a0 = u64 [s1 + 0x58]\n 45905: a1 = u64 [s1 + 0x30]\n 45908: a0 = a0 & a1\n 45911: u64 [s1 + 0x30] = a0\n 45914: a0 = s1 + 0x1a0\n 45918: a1 = a4\n 45920: ra = 0x83c\n 45924: t0 = 0x6\n 45927: jump @2259\n      : @1739 [@dyn 1054] (gas: 15)\n 45930: a0 = u32 [s1 + 0x1b4]\n 45934: a0 = a0 << 0x20\n 45937: a1 = u64 [s1 + 0x1b8]\n 45941: a2 = u64 [s1 + 0x30]\n 45944: a0 = a0 | a2\n 45947: a2 = u64 [s1 + 0x18]\n 45950: a3 = s1 + 0x200\n 45954: u64 [a3 + 0x88] = a2\n 45958: a2 = u64 [s1 + 0x20]\n 45961: u64 [a3 + 0x80] = a2\n 45965: u64 [a3 + 0x98] = a1\n 45969: u64 [a3 + 0x90] = a0\n 45973: a1 = s1 + 0x280\n 45977: a0 = u64 [s1 + 0x28]\n 45980: ra = 2110, jump @28\n      : @1740 [@dyn 1055] (gas: 60)\n 45987: u64 [s1 + 312] = 0\n 45991: a0 = u64 [s1 + 0x30]\n 45994: u64 [s1 + 0x130] = a0\n 45998: a0 = u64 [s1 + 0x18]\n 46001: u64 [s1 + 0x128] = a0\n 46005: a0 = u64 [s1 + 0x20]\n 46008: u64 [s1 + 0x120] = a0\n 46012: u64 [s1 + 344] = 0\n 46016: a0 = u64 [s1 + 0x38]\n 46019: u64 [s1 + 0x150] = a0\n 46023: a0 = u64 [s1 + 0x40]\n 46026: u64 [s1 + 0x148] = a0\n 46030: a0 = u64 [s1 + 0x48]\n 46033: u64 [s1 + 0x140] = a0\n 46037: u64 [s1 + 376] = 0\n 46041: a0 = u64 [s1 + 0x50]\n 46044: u64 [s1 + 0x170] = a0\n 46048: a0 = u64 [s1 + 0x70]\n 46051: u64 [s1 + 0x168] = a0\n 46055: a0 = u64 [0x200d8]\n 46060: a1 = u64 [0x200e0]\n 46065: a2 = u64 [0x200e8]\n 46070: a3 = u64 [s1 + 0x78]\n 46073: u64 [s1 + 0x160] = a3\n 46077: u64 [s1 + 0x198] = a0\n 46081: u64 [s1 + 0x190] = a1\n 46085: u64 [s1 + 0x188] = a2\n 46089: a0 = u64 [0x200f0]\n 46094: a2 = s1 + 0x180\n 46098: a3 = s1 + 0x160\n 46102: a4 = s1 + 0x140\n 46106: a5 = s1 + 0x120\n 46110: u64 [s1 + 0x180] = a0\n 46114: a0 = 0\n 46116: a1 = 0\n 46118: ra = 0x840\n 46122: sp = sp + 0xfffffffffffffee0\n 46126: u64 [sp + 0x118] = ra\n 46130: u64 [sp + 0x110] = s0\n 46134: u64 [sp + 0x108] = s1\n 46138: s0 = sp + 0x120\n 46142: sp = sp & 0xffffffffffffffe0\n 46145: s1 = u64 [a5]\n 46147: u64 [sp + 0x60] = s1\n 46150: s1 = u64 [a5 + 0x8]\n 46153: u64 [sp + 0x68] = s1\n 46156: s1 = u64 [a5 + 0x10]\n 46159: u64 [sp + 0x70] = s1\n 46162: a5 = u64 [a5 + 0x18]\n 46165: u64 [sp + 0x78] = a5\n 46168: a5 = u64 [a4]\n 46170: u64 [sp + 0x38] = a5\n 46173: a5 = u64 [a4 + 0x8]\n 46176: u64 [sp + 0x40] = a5\n 46179: a5 = u64 [a4 + 0x10]\n 46182: u64 [sp + 0x48] = a5\n 46185: a4 = u64 [a4 + 0x18]\n 46188: u64 [sp + 0x50] = a4\n 46191: t0 = 0x14\n 46194: jump @2293\n      : @1741 [@dyn 1056] (gas: 13)\n 46197: a0 = u64 [s1 + 0x8]\n 46200: u64 [s1 + 0xf8] = a0\n 46204: a0 = u64 [s1]\n 46206: u64 [s1 + 0xf0] = a0\n 46210: a0 = u64 [s1 + 0x70]\n 46213: u64 [s1 + 0xe8] = a0\n 46217: a0 = s1 + 0x100\n 46221: a1 = s1 + 0xe0\n 46225: a2 = u64 [s1 + 0x78]\n 46228: u64 [s1 + 0xe0] = a2\n 46232: ra = 0x842\n 46236: t0 = 0x7ce\n 46240: jump @2331\n      : @1742 [@dyn 1057] (gas: 30)\n 46243: a4 = s1 + 0x100\n 46247: a0 = u64 [a4]\n 46249: a1 = u64 [a4 + 0x8]\n 46252: a2 = u64 [a4 + 0x10]\n 46255: a3 = u64 [a4 + 0x18]\n 46258: u64 [s1 + 0x98] = a3\n 46262: u64 [s1 + 0x90] = a2\n 46266: u64 [s1 + 0x88] = a1\n 46270: u64 [s1 + 0x80] = a0\n 46274: a0 = u64 [s1 + 0x10]\n 46277: u64 [s1 + 0xb8] = a0\n 46281: a0 = u64 [s1 + 0x58]\n 46284: u64 [s1 + 0xb0] = a0\n 46288: a0 = u64 [s1 + 0x60]\n 46291: u64 [s1 + 0xa8] = a0\n 46295: a0 = u64 [s1 + 0x68]\n 46298: u64 [s1 + 0xa0] = a0\n 46302: a0 = u64 [s1 + 0x38]\n 46305: u64 [s1 + 0xd0] = a0\n 46309: a0 = u64 [s1 + 0x40]\n 46312: u64 [s1 + 0xc8] = a0\n 46316: a0 = u64 [s1 + 0x48]\n 46319: u64 [s1 + 0xc0] = a0\n 46323: a0 = s1 + 0xc0\n 46327: a1 = s1 + 0xa0\n 46331: a2 = s1 + 0x80\n 46335: u64 [s1 + 216] = 0\n 46339: ra = 0x844\n 46343: t0 = 0x8dc\n 46347: jump @2275\n      : @1743 [@dyn 1058] (gas: 7)\n 46350: sp = s0 + 0xfffffffffffffd40\n 46354: a0 = sp + 0x200\n 46358: ra = u64 [a0 + 0xb8]\n 46362: s0 = u64 [a0 + 0xb0]\n 46366: s1 = u64 [a0 + 0xa8]\n 46370: sp = sp + 0x2c0\n 46374: ret\n      : @1744 (gas: 25)\n 46376: sp = sp + 0xfffffffffffffee0\n 46380: u64 [sp + 0x118] = ra\n 46384: u64 [sp + 0x110] = s0\n 46388: u64 [sp + 0x108] = s1\n 46392: s0 = sp + 0x120\n 46396: sp = sp & 0xffffffffffffffe0\n 46399: s1 = sp\n 46401: u64 [s1 + 0x58] = a0\n 46404: a0 = u64 [a1 + 0x18]\n 46407: a2 = u64 [a1 + 0x10]\n 46410: a3 = u64 [a1 + 0x8]\n 46413: a1 = u64 [a1]\n 46415: u64 [s1 + 0x50] = a0\n 46418: u64 [s1 + 0xd8] = a0\n 46422: u64 [s1 + 0x48] = a2\n 46425: u64 [s1 + 0xd0] = a2\n 46429: u64 [s1 + 0x40] = a3\n 46432: u64 [s1 + 0xc8] = a3\n 46436: u64 [s1 + 0x38] = a1\n 46439: u64 [s1 + 0xc0] = a1\n 46443: a0 = s1 + 0xa0\n 46447: a1 = s1 + 0xc0\n 46451: ra = 0x846\n 46455: t0 = 0x6\n 46458: jump @2259\n      : @1745 [@dyn 1059] (gas: 8)\n 46461: a3 = u64 [s1 + 0xb8]\n 46465: a2 = u64 [s1 + 0xb0]\n 46469: a4 = u64 [s1 + 0xa8]\n 46473: a5 = u64 [s1 + 0xa0]\n 46477: a0 = a4 | a3\n 46480: a1 = a5 | a2\n 46483: a0 = a0 | a1\n 46486: jump @1753 if a0 == 0\n      : @1746 (gas: 15)\n 46490: u64 [s1 + 0x18] = a5\n 46493: u64 [s1 + 0x20] = a4\n 46496: u64 [s1 + 0x28] = a3\n 46499: u64 [s1 + 0x30] = a2\n 46502: a0 = u64 [s1 + 0x38]\n 46505: u64 [s1 + 0x80] = a0\n 46509: a0 = u64 [s1 + 0x40]\n 46512: u64 [s1 + 0x88] = a0\n 46516: a0 = u64 [s1 + 0x48]\n 46519: u64 [s1 + 0x90] = a0\n 46523: a1 = s1 + 0x80\n 46527: a0 = u64 [s1 + 0x50]\n 46530: u64 [s1 + 0x98] = a0\n 46534: a0 = 0\n 46536: ra = 2120, jump @24\n      : @1747 [@dyn 1060] (gas: 2)\n 46543: a1 = i32 [0x20150]\n 46548: jump @1749 if a1 >u 31\n      : @1748 (gas: 2)\n 46552: u32 [0x20150] = 0x20\n 46558: fallthrough\n      : @1749 (gas: 11)\n 46559: a0 = sp + 0xffffffffffffffe0\n 46562: a2 = a0 & 0xffffffffffffffe0\n 46565: u64 [s1 + 0x50] = a2\n 46568: sp = a2\n 46570: a0 = 0x20160\n 46575: i32 a0 = a0 + 0\n 46577: i32 a2 = a2 + 0\n 46579: a1 = 0x20\n 46582: ra = 0x84a\n 46586: ecalli 11 // 'hash_keccak_256'\n 46588: fallthrough\n      : @1750 [@dyn 1061] (gas: 27)\n 46589: a3 = u64 [s1 + 0x50]\n 46592: a0 = u64 [a3]\n 46594: a1 = u64 [a3 + 0x8]\n 46597: a2 = u64 [a3 + 0x18]\n 46600: a3 = u64 [a3 + 0x10]\n 46603: t0 = reverse a0\n 46605: a1 = reverse a1\n 46607: a0 = reverse a2\n 46609: a2 = reverse a3\n 46611: a4 = u64 [s1 + 0x20]\n 46614: a2 = a2 + a4\n 46617: a3 = u64 [s1 + 0x18]\n 46620: a0 = a0 + a3\n 46623: a3 = a0 <u a3\n 46626: a2 = a2 + a3\n 46629: a5 = a2 ^ a4\n 46632: a4 = a2 <u a4\n 46635: a4 = a3 if a5 == 0\n 46638: a5 = u64 [s1 + 0x30]\n 46641: a1 = a1 + a5\n 46644: a4 = a4 + a1\n 46647: t1 = a4 <u a1\n 46650: a3 = u64 [s1 + 0x28]\n 46653: t0 = t0 + a3\n 46656: a1 = a1 <u a5\n 46659: a1 = a1 + t0\n 46662: t0 = 2124, jump @2248\n      : @1751 [@dyn 1062] (gas: 9)\n 46668: u64 [s1 + 0xe0] = a0\n 46672: u64 [s1 + 0xe8] = a2\n 46676: u64 [s1 + 0xf0] = a4\n 46680: u64 [s1 + 0xf8] = a1\n 46684: a0 = s1 + 0x60\n 46687: a1 = s1 + 0xe0\n 46691: ra = 0x84e\n 46695: t0 = 0x6\n 46698: jump @2259\n      : @1752 [@dyn 1063] (gas: 14)\n 46701: a3 = u64 [s1 + 0x78]\n 46704: a1 = u64 [s1 + 0x70]\n 46707: a2 = u16 [s1 + 0x66]\n 46710: a4 = u64 [s1 + 0x68]\n 46713: a0 = a3 << 0x10\n 46716: a5 = a1 >> 0x30\n 46719: a0 = a0 | a5\n 46722: a1 = a1 << 0x10\n 46725: a5 = a4 >> 0x30\n 46728: a1 = a1 | a5\n 46731: a4 = a4 << 0x10\n 46734: a2 = a2 | a4\n 46737: a3 = a3 >> 0x30\n 46740: jump @1754\n      : @1753 (gas: 4)\n 46742: a2 = 0\n 46744: a1 = 0\n 46746: a3 = 0\n 46748: fallthrough\n      : @1754 (gas: 11)\n 46749: a4 = u64 [s1 + 0x58]\n 46752: u64 [a4] = a2\n 46754: u64 [a4 + 0x8] = a1\n 46757: u64 [a4 + 0x10] = a0\n 46760: u64 [a4 + 0x18] = a3\n 46763: sp = s0 + 0xfffffffffffffee0\n 46767: ra = u64 [sp + 0x118]\n 46771: s0 = u64 [sp + 0x110]\n 46775: s1 = u64 [sp + 0x108]\n 46779: sp = sp + 0x120\n 46783: ret\n      : @1755 [@dyn 1064] (gas: 27)\n 46785: a0 = u64 [sp + 0x100]\n 46789: u64 [sp + 0x38] = a0\n 46792: a0 = u64 [sp + 0x108]\n 46796: u64 [sp + 0x30] = a0\n 46799: a0 = u64 [sp + 0x110]\n 46803: u64 [sp + 0x28] = a0\n 46806: a0 = u64 [sp + 0x118]\n 46810: u64 [sp + 0x20] = a0\n 46813: t0 = u64 [sp + 0x120]\n 46817: t1 = u64 [sp + 0x128]\n 46821: a1 = u64 [sp + 0x130]\n 46825: a3 = u64 [sp + 0x138]\n 46829: a4 = u64 [sp + 0x140]\n 46833: a5 = u64 [sp + 0x148]\n 46837: a2 = u64 [sp + 0x150]\n 46841: a0 = u64 [sp + 0x158]\n 46845: u64 [sp + 0x58] = a0\n 46848: u64 [sp + 0x50] = a2\n 46851: u64 [sp + 0x48] = a5\n 46854: u64 [sp + 0x40] = a4\n 46857: u64 [sp + 0x78] = a3\n 46860: u64 [sp + 0x70] = a1\n 46863: u64 [sp + 0x68] = t1\n 46866: a0 = sp + 0x60\n 46869: a1 = sp + 0x40\n 46872: u64 [sp + 0x60] = t0\n 46875: ra = 2130, jump @2049\n      : @1756 [@dyn 1065] (gas: 14)\n 46881: a0 = u64 [sp + 0x20]\n 46884: u64 [s1 + 0x18] = a0\n 46887: a0 = u64 [sp + 0x28]\n 46890: u64 [s1 + 0x10] = a0\n 46893: a0 = u64 [sp + 0x30]\n 46896: u64 [s1 + 0x8] = a0\n 46899: a0 = u64 [sp + 0x38]\n 46902: u64 [s1] = a0\n 46904: sp = s0 + 0xfffffffffffffe80\n 46908: ra = u64 [sp + 0x178]\n 46912: s0 = u64 [sp + 0x170]\n 46916: s1 = u64 [sp + 0x168]\n 46920: sp = sp + 0x180\n 46924: ret\n      : @1757 [@dyn 1066] (gas: 4)\n 46926: u64 [s1 + 280] = 0\n 46930: u64 [s1 + 272] = 0\n 46934: a0 = 0x7\n 46937: t0 = 2134, jump @2289\n      : @1758 [@dyn 1067] (gas: 1)\n 46943: ra = 2136, jump @24\n      : @1759 [@dyn 1068] (gas: 3)\n 46950: a2 = 0x20150\n 46955: a0 = i32 [0x20150]\n 46960: jump @1761 if a0 >u 63\n      : @1760 (gas: 2)\n 46964: u32 [0x20150] = 0x40\n 46970: fallthrough\n      : @1761 (gas: 15)\n 46971: u64 [s1 + 0x20] = a2\n 46974: a0 = sp + 0xffffffffffffffe0\n 46977: a2 = a0 & 0xffffffffffffffe0\n 46980: u64 [s1 + 0x58] = a2\n 46983: sp = a2\n 46985: a0 = 0x20160\n 46990: i32 a0 = a0 + 0\n 46992: i32 a2 = a2 + 0\n 46994: a1 = 0x40\n 46997: u64 [s1 + 0x18] = a0\n 47000: ra = 0x85a\n 47004: ecalli 11 // 'hash_keccak_256'\n 47006: a3 = u64 [s1 + 0x58]\n 47009: t0 = 0x85c\n 47013: jump @2213\n      : @1762 [@dyn 1069] (gas: 2)\n 47016: a3 = u64 [s1 + 0x58]\n 47019: t0 = 2140, jump @2213\n      : @1763 [@dyn 1070] (gas: 9)\n 47025: u64 [s1 + 0x158] = a3\n 47029: u64 [s1 + 0x150] = a2\n 47033: u64 [s1 + 0x148] = a1\n 47037: u64 [s1 + 0x140] = a0\n 47041: a0 = s1 + 0xe0\n 47045: a1 = s1 + 0x140\n 47049: ra = 0x85e\n 47053: t0 = 0x6\n 47056: jump @2259\n      : @1764 [@dyn 1071] (gas: 24)\n 47059: a0 = u64 [s1 + 0xe0]\n 47063: u64 [s1 + 0x58] = a0\n 47066: a4 = u64 [s1 + 0xf8]\n 47070: u64 [s1 + 0x48] = a4\n 47073: a2 = u64 [s1 + 0xe8]\n 47077: u64 [s1 + 0x50] = a2\n 47080: a3 = u64 [s1 + 0xf0]\n 47084: u64 [s1 + 0x40] = a3\n 47087: a0 = a0 + 0x1\n 47090: a1 = a0 <u 0x1\n 47093: a1 = a1 + a2\n 47096: a2 = a0 | a1\n 47099: a2 = a2 <u 0x1\n 47102: a2 = a2 + a3\n 47105: a3 = a2 <u a3\n 47108: a3 = a3 + a4\n 47111: a4 = s1 + 0x100\n 47115: u64 [a4 + 0x60] = a0\n 47118: u64 [a4 + 0x68] = a1\n 47121: u64 [a4 + 0x70] = a2\n 47124: u64 [a4 + 0x78] = a3\n 47127: a0 = s1 + 0x140\n 47131: a1 = s1 + 0x160\n 47135: ra = 2144, jump @28\n      : @1765 [@dyn 1072] (gas: 16)\n 47142: a0 = u64 [s1 + 0x68]\n 47145: a1 = u64 [s1 + 0x48]\n 47148: a0 = a0 ^ a1\n 47151: a1 = u64 [s1 + 0x60]\n 47154: a2 = u64 [s1 + 0x50]\n 47157: a1 = a1 ^ a2\n 47160: a0 = a0 | a1\n 47163: a1 = u64 [s1 + 0x78]\n 47166: a2 = u64 [s1 + 0x40]\n 47169: a1 = a1 ^ a2\n 47172: a2 = u64 [s1 + 0x70]\n 47175: a3 = u64 [s1 + 0x58]\n 47178: a2 = a2 ^ a3\n 47181: a1 = a1 | a2\n 47184: a0 = a0 | a1\n 47187: jump @1767 if a0 != 0\n      : @1766 (gas: 6)\n 47190: sp = s0 + 0xfffffffffffffe60\n 47194: ra = u64 [sp + 0x198]\n 47198: s0 = u64 [sp + 0x190]\n 47202: s1 = u64 [sp + 0x188]\n 47206: sp = sp + 0x1a0\n 47210: ret\n      : @1767 (gas: 8)\n 47212: u64 [s1 + 208] = 0\n 47216: u64 [s1 + 200] = 0\n 47220: u64 [s1 + 192] = 0\n 47224: a0 = 0x752d88c000000000\n 47234: a1 = s1 + 0xc0\n 47238: u64 [s1 + 0xd8] = a0\n 47242: a0 = 0\n 47244: ra = 2146, jump @24\n      : @1768 [@dyn 1073] (gas: 10)\n 47251: u64 [s1 + 184] = 0\n 47255: a0 = u64 [s1 + 0x28]\n 47258: u64 [s1 + 0xb0] = a0\n 47262: a0 = u64 [s1 + 0x30]\n 47265: u64 [s1 + 0xa8] = a0\n 47269: a0 = 0x4\n 47272: a1 = s1 + 0xa0\n 47276: a2 = u64 [s1 + 0x38]\n 47279: u64 [s1 + 0xa0] = a2\n 47283: ra = 2148, jump @24\n      : @1769 [@dyn 1074] (gas: 11)\n 47290: a0 = u64 [s1 + 0x48]\n 47293: u64 [s1 + 0x98] = a0\n 47297: a0 = u64 [s1 + 0x40]\n 47300: u64 [s1 + 0x90] = a0\n 47304: a0 = u64 [s1 + 0x50]\n 47307: u64 [s1 + 0x88] = a0\n 47311: a0 = 0x24\n 47314: a1 = s1 + 0x80\n 47318: a2 = u64 [s1 + 0x58]\n 47321: u64 [s1 + 0x80] = a2\n 47325: ra = 2150, jump @24\n      : @1770 [@dyn 1075] (gas: 3)\n 47332: a0 = u64 [s1 + 0x20]\n 47335: a0 = i32 [a0]\n 47337: jump @1772 if a0 >u 95\n      : @1771 (gas: 3)\n 47341: a1 = u64 [s1 + 0x20]\n 47344: u32 [a1 + 0] = 0x60\n 47347: fallthrough\n      : @1772 (gas: 6)\n 47348: a0 = 0x1\n 47351: a2 = 0x44\n 47354: a1 = u64 [s1 + 0x18]\n 47357: ra = 0x868\n 47361: ecalli 16 // 'seal_return'\n 47363: fallthrough\n      : @1773 [@dyn 1076] (gas: 27)\n 47364: sp = sp + 0xfffffffffffffe40\n 47368: u64 [sp + 0x1b8] = ra\n 47372: u64 [sp + 0x1b0] = s0\n 47376: u64 [sp + 0x1a8] = s1\n 47380: s0 = sp + 0x1c0\n 47384: sp = sp & 0xffffffffffffffe0\n 47387: s1 = sp\n 47389: a3 = u64 [a1 + 0x18]\n 47392: u64 [s1 + 0x20] = a3\n 47395: ra = u64 [a1 + 0x10]\n 47398: t2 = u64 [a1 + 0x8]\n 47401: a1 = u64 [a1]\n 47403: t1 = u64 [a0 + 0x8]\n 47406: t0 = u32 [a0 + 0x10]\n 47409: a0 = u64 [a0]\n 47411: a4 = u64 [a2 + 0x18]\n 47414: a5 = u64 [a2 + 0x10]\n 47417: a3 = u64 [a2 + 0x8]\n 47420: a2 = u64 [a2]\n 47422: u64 [s1 + 0x178] = a4\n 47426: a4 = s1 + 0x100\n 47430: u64 [a4 + 0x70] = a5\n 47433: u64 [a4 + 0x68] = a3\n 47436: a3 = a0 | t0\n 47439: a3 = a3 | t1\n 47442: u64 [a4 + 0x60] = a2\n 47445: jump @1785 if a3 == 0\n      : @1774 (gas: 10)\n 47449: a3 = 0xffffffff\n 47459: u64 [s1 + 0x30] = t2\n 47462: a4 = t2 & 0xffffffffffffffff\n 47465: u64 [s1 + 0x38] = a1\n 47468: a2 = a1 & 0xffffffffffffffff\n 47471: u64 [s1 + 0x28] = ra\n 47474: a3 = ra & a3\n 47477: a2 = a2 | a3\n 47480: a2 = a2 | a4\n 47483: jump @1790 if a2 == 0\n      : @1775 (gas: 7)\n 47487: u64 [s1 + 344] = 0\n 47491: u64 [s1 + 0x140] = a0\n 47495: u64 [s1 + 0x148] = t1\n 47499: a1 = s1 + 0x140\n 47503: u64 [s1 + 0x150] = t0\n 47507: a0 = 0\n 47509: ra = 2154, jump @24\n      : @1776 [@dyn 1077] (gas: 7)\n 47516: u64 [s1 + 312] = 0\n 47520: u64 [s1 + 304] = 0\n 47524: u64 [s1 + 288] = 0x1\n 47529: a0 = 0x20\n 47532: a1 = s1 + 0x120\n 47536: u64 [s1 + 296] = 0\n 47540: ra = 2156, jump @24\n      : @1777 [@dyn 1078] (gas: 2)\n 47547: a1 = i32 [0x20150]\n 47552: jump @1779 if a1 >u 63\n      : @1778 (gas: 4)\n 47556: a1 = 0x40\n 47559: u32 [0x20150] = a1\n 47564: t0 = 0x86e\n 47568: jump @2282\n      : @1779 (gas: 1)\n 47571: t0 = 2158, jump @2282\n      : @1780 [@dyn 1079] (gas: 8)\n 47577: a0 = 0x20160\n 47582: i32 a0 = a0 + 0\n 47584: i32 a2 = a2 + 0\n 47586: a1 = 0x40\n 47589: ra = 0x870\n 47593: ecalli 11 // 'hash_keccak_256'\n 47595: t0 = 0x872\n 47599: jump @2300\n      : @1781 [@dyn 1080] (gas: 1)\n 47602: t0 = 2162, jump @2300\n      : @1782 [@dyn 1081] (gas: 17)\n 47608: u64 [s1 + 0xd8] = a3\n 47612: a3 = u64 [s1 + 0x28]\n 47615: u64 [s1 + 0xd0] = a3\n 47619: a3 = u64 [s1 + 0x30]\n 47622: u64 [s1 + 0xc8] = a3\n 47626: a3 = u64 [s1 + 0x38]\n 47629: u64 [s1 + 0xc0] = a3\n 47633: u64 [s1 + 0xf8] = a2\n 47637: u64 [s1 + 0xf0] = a1\n 47641: u64 [s1 + 0xe8] = a0\n 47645: a0 = s1 + 0x100\n 47649: a1 = s1 + 0xe0\n 47653: a2 = s1 + 0xc0\n 47657: u64 [s1 + 0xe0] = a4\n 47661: ra = 0x874\n 47665: t0 = 0x7c2\n 47669: jump @2373\n      : @1783 [@dyn 1082] (gas: 12)\n 47672: a4 = s1 + 0x100\n 47676: a0 = u64 [a4 + 0x18]\n 47679: a1 = u64 [a4 + 0x10]\n 47682: a2 = u64 [a4 + 0x8]\n 47685: a3 = u64 [a4]\n 47687: u64 [a4 + 0x98] = a0\n 47691: u64 [a4 + 0x90] = a1\n 47695: u64 [a4 + 0x88] = a2\n 47699: u64 [a4 + 0x80] = a3\n 47703: a0 = s1 + 0x180\n 47707: a1 = s1 + 0x160\n 47711: ra = 2166, jump @28\n      : @1784 [@dyn 1083] (gas: 6)\n 47718: sp = s0 + 0xfffffffffffffe40\n 47722: ra = u64 [sp + 0x1b8]\n 47726: s0 = u64 [sp + 0x1b0]\n 47730: s1 = u64 [sp + 0x1a8]\n 47734: sp = sp + 0x1c0\n 47738: ret\n      : @1785 (gas: 8)\n 47740: u64 [s1 + 112] = 0\n 47743: u64 [s1 + 104] = 0\n 47746: u64 [s1 + 96] = 0\n 47749: a0 = 0xe602df0500000000\n 47759: a1 = s1 + 0x60\n 47762: u64 [s1 + 0x78] = a0\n 47765: a0 = 0\n 47767: ra = 2168, jump @24\n      : @1786 [@dyn 1084] (gas: 7)\n 47774: u64 [s1 + 88] = 0\n 47777: u64 [s1 + 80] = 0\n 47780: u64 [s1 + 72] = 0\n 47783: a0 = 0x4\n 47786: a1 = s1 + 0x40\n 47789: u64 [s1 + 64] = 0\n 47792: ra = 2170, jump @24\n      : @1787 [@dyn 1085] (gas: 2)\n 47799: a1 = i32 [0x20150]\n 47804: jump @1789 if a1 >u 63\n      : @1788 (gas: 3)\n 47808: u32 [0x20150] = 0x40\n 47814: a1 = 0x20160\n 47819: jump @1796\n      : @1789 (gas: 2)\n 47821: a1 = 0x20160\n 47826: jump @1796\n      : @1790 (gas: 1)\n 47828: t0 = 2172, jump @2347\n      : @1791 [@dyn 1086] (gas: 5)\n 47834: a0 = 0x94280d6200000000\n 47844: a1 = s1 + 0xa0\n 47848: u64 [s1 + 0xb8] = a0\n 47852: a0 = 0\n 47854: ra = 2174, jump @24\n      : @1792 [@dyn 1087] (gas: 7)\n 47861: u64 [s1 + 152] = 0\n 47865: u64 [s1 + 144] = 0\n 47869: u64 [s1 + 136] = 0\n 47873: a0 = 0x4\n 47876: a1 = s1 + 0x80\n 47880: u64 [s1 + 128] = 0\n 47884: ra = 2176, jump @24\n      : @1793 [@dyn 1088] (gas: 2)\n 47891: a1 = i32 [0x20150]\n 47896: jump @1795 if a1 >u 63\n      : @1794 (gas: 3)\n 47900: u32 [0x20150] = 0x40\n 47906: a1 = 0x20160\n 47911: jump @1796\n      : @1795 (gas: 2)\n 47913: a1 = 0x20160\n 47918: fallthrough\n      : @1796 (gas: 7)\n 47919: i32 a1 = a1 + 0\n 47921: a0 = 0x1\n 47924: a2 = 0x24\n 47927: ra = 0x882\n 47931: ecalli 16 // 'seal_return'\n 47933: t0 = 0x884\n 47937: jump @2372\n      : @1797 [@dyn 1089] (gas: 1)\n 47940: t0 = 2180, jump @2372\n      : @1798 [@dyn 1090] (gas: 12)\n 47946: s1 = u64 [a1 + 0x10]\n 47949: a4 = u64 [a1 + 0x18]\n 47952: a5 = u64 [a1 + 0x8]\n 47955: a3 = u64 [a1]\n 47957: a1 = a5 | a4\n 47960: a2 = a3 | s1\n 47963: a2 = a2 | a1\n 47966: a2 = a2 >> 0x30\n 47969: a1 = a1 | s1\n 47972: a1 = a1 << 0x10\n 47975: a1 = a1 | a2\n 47978: jump @1801 if a1 != 0\n      : @1799 (gas: 5)\n 47981: u64 [a0] = a3\n 47983: u64 [a0 + 0x8] = a5\n 47986: u64 [a0 + 0x10] = s1\n 47989: u64 [a0 + 0x18] = a4\n 47992: t0 = 2182, jump @2309\n      : @1800 [@dyn 1091] (gas: 1)\n 47998: ret\n      : @1801 (gas: 1)\n 48000: t0 = 2184, jump @2323\n      : @1802 [@dyn 1092] (gas: 3)\n 48006: u64 [sp + 0x8] = a4\n 48009: u64 [sp + 0x10] = a5\n 48012: ra = 2186, jump @24\n      : @1803 [@dyn 1093] (gas: 7)\n 48019: u64 [sp + 88] = 0\n 48022: u64 [sp + 80] = 0\n 48025: u64 [sp + 64] = 0x30\n 48029: a0 = 0x4\n 48032: a1 = sp + 0x40\n 48035: u64 [sp + 72] = 0\n 48038: ra = 2188, jump @24\n      : @1804 [@dyn 1094] (gas: 4)\n 48045: a0 = u64 [sp + 0x8]\n 48048: u64 [sp + 0x38] = a0\n 48051: u64 [sp + 0x30] = s1\n 48054: t0 = 2190, jump @2360\n      : @1805 [@dyn 1095] (gas: 1)\n 48060: ra = 2192, jump @24\n      : @1806 [@dyn 1096] (gas: 2)\n 48067: a1 = i32 [0x20150]\n 48072: jump @1808 if a1 >u 95\n      : @1807 (gas: 2)\n 48076: u32 [0x20150] = 0x60\n 48082: fallthrough\n      : @1808 (gas: 7)\n 48083: a1 = 0x20160\n 48088: i32 a1 = a1 + 0\n 48090: a0 = 0x1\n 48093: a2 = 0x44\n 48096: ra = 0x892\n 48100: ecalli 16 // 'seal_return'\n 48102: fallthrough\n      : @1809 [@dyn 1097] (gas: 8)\n 48103: a2 = u64 [a1 + 0x18]\n 48106: a1 = u64 [a1 + 0x10]\n 48109: a3 = 0\n 48111: u64 [a0 + 24] = 0\n 48114: u64 [a0 + 16] = 0\n 48117: u64 [a0 + 0x8] = a2\n 48120: u64 [a0] = a1\n 48122: ret\n      : @1810 (gas: 16)\n 48124: sp = sp + 0xfffffffffffffef0\n 48128: u64 [sp + 0x108] = ra\n 48132: u64 [sp + 0x100] = s0\n 48136: u64 [sp + 0xf8] = s1\n 48140: s0 = sp + 0x110\n 48144: sp = sp & 0xfffffffffffffff0\n 48147: t1 = u64 [a2 + 0x10]\n 48150: a5 = u64 [a2 + 0x18]\n 48153: s1 = u64 [a2 + 0x8]\n 48156: a2 = u64 [a2]\n 48158: a4 = s1 | a5\n 48161: a3 = a2 | t1\n 48164: a3 = a3 | a4\n 48167: u64 [sp] = a0\n 48169: u64 [sp + 0xa8] = a3\n 48173: jump @1830 if a3 == 0\n      : @1811 (gas: 73)\n 48177: a0 = u64 [a1 + 0x18]\n 48180: ra = u64 [a1 + 0x10]\n 48183: t0 = u64 [a1 + 0x8]\n 48186: t2 = u64 [a1]\n 48188: u64 [sp + 0x60] = t2\n 48191: a1 = clz t1\n 48193: a1 = a1 + 0x40\n 48196: a4 = clz a5\n 48198: a4 = a1 if a5 == 0\n 48201: u64 [sp + 0x30] = a2\n 48204: a1 = clz a2\n 48206: a2 = a1 + 0x40\n 48209: a1 = clz s1\n 48211: u64 [sp + 0x38] = s1\n 48214: a1 = a2 if s1 == 0\n 48217: a2 = a1 + 0x80\n 48221: u64 [sp + 0x40] = a5\n 48224: u64 [sp + 0x48] = t1\n 48227: a3 = t1 | a5\n 48230: a4 = a2 if a3 == 0\n 48233: a2 = a2 <u a1\n 48236: a2 = 0 if a3 != 0\n 48238: a1 = clz ra\n 48240: a1 = a1 + 0x40\n 48243: a5 = clz a0\n 48245: a5 = a1 if a0 == 0\n 48248: a1 = clz t2\n 48250: a1 = a1 + 0x40\n 48253: a3 = clz t0\n 48255: a3 = a1 if t0 == 0\n 48258: a1 = a3 + 0x80\n 48262: s1 = ra | a0\n 48265: a5 = a1 if s1 == 0\n 48268: a1 = a1 <u a3\n 48271: a1 = 0 if s1 != 0\n 48273: t1 = a2 ^ a1\n 48276: s1 = a2 <u a1\n 48279: a3 = a4 <u a5\n 48282: s1 = a3 if t1 == 0\n 48285: a2 = a2 - a1\n 48288: t2 = s1 <u 0x1\n 48291: t2 = t2 + 0xffffffffffffffff\n 48294: a3 = a2 - a3\n 48297: t1 = -s1\n 48299: a1 = a4 - a5\n 48302: a2 = t1 >u 0\n 48304: a4 = t2 >u 0\n 48306: a4 = a2 if t2 == 0\n 48309: u64 [sp + 0xa0] = a1\n 48313: a2 = a1 <u 0x100\n 48317: a2 = a2 ^ 0x1\n 48320: a5 = a3 >u 0\n 48322: a2 = a5 if a3 != 0\n 48325: a2 = a4 if s1 != 0\n 48328: s1 = u64 [sp + 0x60]\n 48331: a4 = s1 | ra\n 48334: a5 = t0 | a0\n 48337: a4 = a4 | a5\n 48340: a1 = u64 [sp + 0xa8]\n 48344: a5 = a1 <u 0x1\n 48347: a4 = a4 <u 0x1\n 48350: a4 = a4 | a5\n 48353: a2 = a2 | a4\n 48356: u64 [sp + 0x68] = a0\n 48359: a1 = a0\n 48361: a1 = 0 if a2 != 0\n 48363: a4 = ra\n 48365: a4 = 0 if a2 != 0\n 48367: u64 [sp + 0x58] = t0\n 48370: a5 = t0\n 48372: a5 = 0 if a2 != 0\n 48374: s1 = 0 if a2 != 0\n 48376: jump @1828 if a2 != 0\n      : @1812 (gas: 7)\n 48380: a0 = u64 [sp + 0xa0]\n 48384: a2 = a0 ^ 0xff\n 48388: t0 = a2 | t1\n 48391: a2 = a3 | t2\n 48394: a2 = t0 | a2\n 48397: a0 = u64 [sp]\n 48399: jump @1829 if a2 == 0\n      : @1813 (gas: 18)\n 48403: a2 = u64 [sp + 0xa0]\n 48407: a1 = a2 + 0x1\n 48410: u64 [sp + 0xa8] = a1\n 48414: u64 [sp + 0x50] = ra\n 48417: a0 = a1 <u 0x1\n 48420: a0 = a0 + a3\n 48423: u64 [sp + 0x80] = a0\n 48427: a0 = a0 | a1\n 48430: a0 = a0 <u 0x1\n 48433: a0 = a0 + t1\n 48436: u64 [sp + 0x70] = a0\n 48439: a0 = a0 <u t1\n 48442: a0 = a0 + t2\n 48445: u64 [sp + 0x78] = a0\n 48448: t0 = 0x894\n 48452: s1 = 0xff - a2\n 48456: a2 = 0x80 - s1\n 48460: fallthrough\n      : @1814 [@dyn 1098] (gas: 4)\n 48461: u64 [sp + 0x28] = s1\n 48464: a0 = u64 [sp + 0x60]\n 48467: a1 = u64 [sp + 0x58]\n 48470: ra = 2198, jump @2374\n      : @1815 [@dyn 1099] (gas: 6)\n 48476: u64 [sp + 0x98] = a0\n 48480: u64 [sp + 0x90] = a1\n 48484: a0 = u64 [sp + 0x50]\n 48487: a1 = u64 [sp + 0x68]\n 48490: a2 = s1\n 48492: ra = 2200, jump @2379\n      : @1816 [@dyn 1100] (gas: 10)\n 48498: u64 [sp + 0x88] = a0\n 48502: a0 = u64 [sp + 0x90]\n 48506: a0 = a0 | a1\n 48509: u64 [sp + 0x90] = a0\n 48513: a1 = u64 [sp + 0xa0]\n 48517: a2 = 0x7f - a1\n 48520: a0 = u64 [sp + 0x60]\n 48523: s1 = u64 [sp + 0x58]\n 48526: a1 = s1\n 48528: ra = 2202, jump @2379\n      : @1817 [@dyn 1101] (gas: 18)\n 48534: a2 = u64 [sp + 0x28]\n 48537: a3 = a2 <u 0x80\n 48541: u64 [sp + 0xa0] = a3\n 48545: a4 = u64 [sp + 0x90]\n 48549: a1 = a4 if a3 != 0\n 48552: a4 = u64 [sp + 0x68]\n 48555: a1 = a4 if a2 == 0\n 48558: u64 [sp + 0x90] = a1\n 48562: a1 = u64 [sp + 0x98]\n 48566: a4 = u64 [sp + 0x88]\n 48570: a1 = a1 | a4\n 48573: a1 = a0 if a3 == 0\n 48576: a0 = u64 [sp + 0x50]\n 48579: a1 = a0 if a2 == 0\n 48582: u64 [sp + 0x98] = a1\n 48586: a0 = u64 [sp + 0x60]\n 48589: a1 = s1\n 48591: ra = 2204, jump @2379\n      : @1818 [@dyn 1102] (gas: 13)\n 48597: a5 = u64 [sp + 0x70]\n 48600: a2 = u64 [sp + 0x78]\n 48603: a3 = u64 [sp + 0x80]\n 48607: a3 = a3 | a2\n 48610: a2 = u64 [sp + 0xa8]\n 48614: a2 = a2 | a5\n 48617: a2 = a2 | a3\n 48620: a3 = u64 [sp + 0xa0]\n 48624: a1 = 0 if a3 == 0\n 48626: u64 [sp + 0x88] = a1\n 48630: a0 = 0 if a3 == 0\n 48632: u64 [sp + 0xa0] = a0\n 48636: jump @1826 if a2 == 0\n      : @1819 (gas: 5)\n 48640: s1 = u64 [sp + 0xa8]\n 48644: a2 = s1 + 0xffffffffffffff80\n 48647: a0 = u64 [sp + 0x50]\n 48650: a1 = u64 [sp + 0x68]\n 48653: ra = 2206, jump @2374\n      : @1820 [@dyn 1103] (gas: 6)\n 48659: u64 [sp + 0x28] = a0\n 48662: u64 [sp + 0x18] = a1\n 48665: a0 = u64 [sp + 0x60]\n 48668: a1 = u64 [sp + 0x58]\n 48671: a2 = s1\n 48673: ra = 2208, jump @2374\n      : @1821 [@dyn 1104] (gas: 6)\n 48679: u64 [sp + 0x10] = a0\n 48682: u64 [sp + 0x20] = a1\n 48685: a2 = 0x80 - s1\n 48689: a0 = u64 [sp + 0x50]\n 48692: a1 = u64 [sp + 0x68]\n 48695: ra = 2210, jump @2379\n      : @1822 [@dyn 1105] (gas: 20)\n 48701: a2 = u64 [sp + 0x20]\n 48704: a1 = a1 | a2\n 48707: a2 = s1 <u 0x80\n 48711: u64 [sp + 0x20] = a2\n 48714: a3 = u64 [sp + 0x18]\n 48717: a1 = a3 if a2 == 0\n 48720: a3 = u64 [sp + 0x58]\n 48723: a3 = a1 if s1 != 0\n 48726: u64 [sp + 0x58] = a3\n 48729: a1 = u64 [sp + 0x10]\n 48732: a0 = a0 | a1\n 48735: a1 = u64 [sp + 0x28]\n 48738: a0 = a1 if a2 == 0\n 48741: a1 = u64 [sp + 0x60]\n 48744: a1 = a0 if s1 != 0\n 48747: u64 [sp + 0x60] = a1\n 48750: a0 = u64 [sp + 0x50]\n 48753: a1 = u64 [sp + 0x68]\n 48756: a2 = s1\n 48758: ra = 2212, jump @2374\n      : @1823 [@dyn 1106] (gas: 24)\n 48764: t0 = u64 [sp + 0x58]\n 48767: t2 = 0\n 48769: a2 = u64 [sp + 0x20]\n 48772: a1 = 0 if a2 == 0\n 48774: a0 = 0 if a2 == 0\n 48776: u64 [sp + 0x68] = a0\n 48779: a3 = u64 [sp + 0x30]\n 48782: a0 = a3 <u 0x1\n 48785: a2 = u64 [sp + 0x38]\n 48788: a0 = a2 - a0\n 48791: u64 [sp + 0x20] = a0\n 48794: a0 = a3 | a2\n 48797: a0 = a0 <u 0x1\n 48800: a2 = u64 [sp + 0x48]\n 48803: a4 = a2 - a0\n 48806: u64 [sp + 0x18] = a4\n 48809: a0 = a2 <u a0\n 48812: a2 = u64 [sp + 0x40]\n 48815: a2 = a2 - a0\n 48818: u64 [sp + 0x10] = a2\n 48821: a3 = a3 + 0xffffffffffffffff\n 48824: u64 [sp + 0x8] = a3\n 48827: ra = u64 [sp + 0x60]\n 48830: fallthrough\n      : @1824 (gas: 103)\n 48831: u64 [sp + 40] = 0\n 48834: a4 = ra >> 0x3f\n 48837: a3 = t0 << 0x1\n 48840: s1 = t0\n 48842: t0 = a3 | a4\n 48845: a4 = ra << 0x1\n 48848: ra = u64 [sp + 0x90]\n 48852: a2 = ra >> 0x3f\n 48855: a2 = a2 | a4\n 48858: u64 [sp + 0x60] = a2\n 48861: a0 = u64 [sp + 0x20]\n 48864: t1 = a0 ^ t0\n 48867: a4 = a0 <u t0\n 48870: a0 = u64 [sp + 0x8]\n 48873: a5 = t2\n 48875: t2 = a0 <u a2\n 48878: t2 = a4 if t1 != 0\n 48881: a1 = a1 << 0x1\n 48884: a0 = u64 [sp + 0x68]\n 48887: a2 = a0 >> 0x3f\n 48890: a1 = a1 | a2\n 48893: u64 [sp + 0x58] = a1\n 48896: a2 = s1 >> 0x3f\n 48899: a0 = a0 << 0x1\n 48902: t1 = a0 | a2\n 48905: a0 = ra << 0x1\n 48908: a1 = u64 [sp + 0x98]\n 48912: a2 = a1 >> 0x3f\n 48915: a0 = a0 | a2\n 48918: a2 = a1 << 0x1\n 48921: a1 = u64 [sp + 0x88]\n 48925: a4 = a1 >> 0x3f\n 48928: a2 = a2 | a4\n 48931: a4 = a1 << 0x1\n 48934: s1 = u64 [sp + 0xa0]\n 48938: ra = s1 >> 0x3f\n 48941: a4 = a4 | ra\n 48944: s1 = s1 << 0x1\n 48947: a5 = a5 | s1\n 48950: u64 [sp + 0xa0] = a5\n 48954: a4 = a4 | 0\n 48956: u64 [sp + 0x88] = a4\n 48960: a1 = a2 | 0\n 48962: u64 [sp + 0x98] = a1\n 48966: a0 = a0 | 0\n 48968: u64 [sp + 0x90] = a0\n 48972: a2 = u64 [sp + 0x18]\n 48975: a0 = a2 - t1\n 48978: a0 = a0 <u t2\n 48981: a2 = a2 <u t1\n 48984: a4 = u64 [sp + 0x10]\n 48987: a3 = u64 [sp + 0x58]\n 48990: a4 = a4 - a3\n 48993: a4 = a4 - a2\n 48996: a4 = a4 - a0\n 48999: a4 = a4 >>a 0x3f\n 49002: a0 = u64 [sp + 0x30]\n 49005: a1 = a4 & a0\n 49008: u64 [sp + 0x50] = a1\n 49011: a5 = u64 [sp + 0x38]\n 49014: a5 = a5 & a4\n 49017: a0 = t0 ^ a5\n 49020: s1 = t0 <u a5\n 49023: t2 = u64 [sp + 0x60]\n 49026: ra = t2 <u a1\n 49029: s1 = ra if a0 == 0\n 49032: a2 = u64 [sp + 0x48]\n 49035: a2 = a2 & a4\n 49038: a1 = t1 - a2\n 49041: a0 = a1 - s1\n 49044: u64 [sp + 0x68] = a0\n 49047: a0 = a1 <u s1\n 49050: a2 = t1 <u a2\n 49053: s1 = u64 [sp + 0x40]\n 49056: s1 = s1 & a4\n 49059: a1 = a3 - s1\n 49062: a1 = a1 - a2\n 49065: a1 = a1 - a0\n 49068: a3 = t0 - a5\n 49071: t0 = a3 - ra\n 49074: a0 = u64 [sp + 0x50]\n 49077: ra = t2 - a0\n 49080: a5 = u64 [sp + 0xa8]\n 49084: s1 = u64 [sp + 0x80]\n 49088: a0 = a5 | s1\n 49091: a0 = a0 <u 0x1\n 49094: a3 = u64 [sp + 0x70]\n 49097: a2 = a3 <u a0\n 49100: a0 = a3 - a0\n 49103: a3 = a5 <u 0x1\n 49106: s1 = s1 - a3\n 49109: a3 = u64 [sp + 0x78]\n 49112: a3 = a3 - a2\n 49115: a5 = a5 + 0xffffffffffffffff\n 49118: u64 [sp + 0x80] = s1\n 49122: u64 [sp + 0x78] = a3\n 49125: a2 = s1 | a3\n 49128: u64 [sp + 0xa8] = a5\n 49132: a3 = a5 | a0\n 49135: a2 = a2 | a3\n 49138: t2 = a4 & 0x1\n 49141: u64 [sp + 0x70] = a0\n 49144: jump @1824 if a2 != 0\n      : @1825 (gas: 1)\n 49148: jump @1827\n      : @1826 (gas: 3)\n 49150: t2 = 0\n 49152: u64 [sp + 40] = 0\n 49155: fallthrough\n      : @1827 (gas: 21)\n 49156: a3 = u64 [sp + 0x98]\n 49160: a0 = a3 >> 0x3f\n 49163: a1 = u64 [sp + 0x90]\n 49167: a1 = a1 << 0x1\n 49170: a0 = a0 | a1\n 49173: a5 = u64 [sp + 0x88]\n 49177: a1 = a5 >> 0x3f\n 49180: a3 = a3 << 0x1\n 49183: a1 = a1 | a3\n 49186: a2 = u64 [sp + 0xa0]\n 49190: a3 = a2 >> 0x3f\n 49193: a5 = a5 << 0x1\n 49196: s1 = a2 << 0x1\n 49199: s1 = t2 | s1\n 49202: a2 = u64 [sp + 0x28]\n 49205: a3 = a3 | a2\n 49208: a5 = a5 | a3\n 49211: a4 = a2 | a1\n 49214: a1 = a2 | a0\n 49217: a0 = u64 [sp]\n 49219: jump @1829\n      : @1828 (gas: 2)\n 49221: a0 = u64 [sp]\n 49223: fallthrough\n      : @1829 (gas: 10)\n 49224: u64 [a0] = s1\n 49226: u64 [a0 + 0x8] = a5\n 49229: u64 [a0 + 0x10] = a4\n 49232: u64 [a0 + 0x18] = a1\n 49235: sp = s0 + 0xfffffffffffffef0\n 49239: ra = u64 [sp + 0x108]\n 49243: s0 = u64 [sp + 0x100]\n 49247: s1 = u64 [sp + 0xf8]\n 49251: sp = sp + 0x110\n 49255: ret\n      : @1830 (gas: 8)\n 49257: u64 [sp + 224] = 0\n 49261: u64 [sp + 216] = 0\n 49265: u64 [sp + 208] = 0\n 49269: a0 = 0x4e487b7100000000\n 49279: a1 = sp + 0xd0\n 49283: u64 [sp + 0xe8] = a0\n 49287: a0 = 0\n 49289: ra = 2214, jump @24\n      : @1831 [@dyn 1107] (gas: 7)\n 49296: u64 [sp + 200] = 0\n 49300: u64 [sp + 192] = 0\n 49304: u64 [sp + 176] = 0x12\n 49309: a0 = 0x4\n 49312: a1 = sp + 0xb0\n 49316: u64 [sp + 184] = 0\n 49320: ra = 2216, jump @24\n      : @1832 [@dyn 1108] (gas: 2)\n 49327: a1 = i32 [0x20150]\n 49332: jump @1834 if a1 >u 63\n      : @1833 (gas: 2)\n 49336: u32 [0x20150] = 0x40\n 49342: fallthrough\n      : @1834 (gas: 7)\n 49343: a1 = 0x20160\n 49348: i32 a1 = a1 + 0\n 49350: a0 = 0x1\n 49353: a2 = 0x24\n 49356: ra = 0x8aa\n 49360: ecalli 16 // 'seal_return'\n 49362: fallthrough\n      : @1835 [@dyn 1109] (gas: 21)\n 49363: sp = sp + 0xfffffffffffffcd0\n 49367: a2 = sp + 0x300\n 49371: u64 [a2 + 0x28] = ra\n 49374: u64 [a2 + 0x20] = s0\n 49377: u64 [a2 + 0x18] = s1\n 49380: s0 = sp + 0x330\n 49384: sp = sp & 0xfffffffffffffff0\n 49387: a3 = u64 [a1 + 0x18]\n 49390: a5 = u64 [a1 + 0x10]\n 49393: t0 = u64 [a1]\n 49395: a4 = u64 [a1 + 0x8]\n 49398: a1 = a3 >u 0\n 49400: s1 = a5 >u 0\n 49402: s1 = a1 if a3 != 0\n 49405: a1 = a4 >u 0\n 49407: a2 = t0 <u 0x2\n 49410: a2 = a2 ^ 0x1\n 49413: a2 = a1 if a4 != 0\n 49416: a1 = a5 | a3\n 49419: a2 = s1 if a1 != 0\n 49422: jump @1857 if a2 == 0\n      : @1836 (gas: 16)\n 49426: s1 = 0 if a1 == 0\n 49428: a1 = 0x1\n 49431: a1 = 0 if s1 == 0\n 49433: u64 [sp + 0x40] = a1\n 49436: a1 = s1 ^ 0x1\n 49439: u64 [sp + 0x30] = a1\n 49442: s1 = s1 << 0x7\n 49445: a2 = s1 ^ 0x80\n 49449: u64 [sp + 0x38] = a0\n 49452: a0 = a5\n 49454: a1 = a3\n 49456: u64 [sp + 0x68] = t0\n 49459: u64 [sp + 0x60] = a4\n 49462: u64 [sp + 0x58] = a5\n 49465: u64 [sp + 0x50] = a3\n 49468: ra = 2220, jump @2379\n      : @1837 [@dyn 1110] (gas: 6)\n 49474: u64 [sp + 0x28] = a0\n 49477: u64 [sp + 0x48] = a1\n 49480: a0 = u64 [sp + 0x68]\n 49483: a1 = u64 [sp + 0x60]\n 49486: a2 = s1\n 49488: ra = 2222, jump @2374\n      : @1838 [@dyn 1111] (gas: 8)\n 49494: u64 [sp + 0x20] = a1\n 49497: a1 = u64 [sp + 0x28]\n 49500: a0 = a0 | a1\n 49503: u64 [sp + 0x28] = a0\n 49506: a2 = s1 + 0xffffffffffffff80\n 49509: a0 = u64 [sp + 0x58]\n 49512: a1 = u64 [sp + 0x50]\n 49515: ra = 2224, jump @2374\n      : @1839 [@dyn 1112] (gas: 19)\n 49521: a3 = s1 <u 0x80\n 49525: u64 [sp + 0x18] = a3\n 49528: a2 = a0\n 49530: a0 = u64 [sp + 0x28]\n 49533: a2 = a0 if a3 != 0\n 49536: a0 = u64 [sp + 0x68]\n 49539: a2 = a0 if s1 == 0\n 49542: u64 [sp + 0x28] = a2\n 49545: a0 = u64 [sp + 0x48]\n 49548: a2 = u64 [sp + 0x20]\n 49551: a0 = a0 | a2\n 49554: a1 = a0 if a3 != 0\n 49557: a0 = u64 [sp + 0x60]\n 49560: a1 = a0 if s1 == 0\n 49563: u64 [sp + 0x48] = a1\n 49566: a0 = u64 [sp + 0x58]\n 49569: a1 = u64 [sp + 0x50]\n 49572: a2 = s1\n 49574: ra = 2226, jump @2374\n      : @1840 [@dyn 1113] (gas: 28)\n 49580: s1 = a0\n 49582: a0 = u64 [sp + 0x18]\n 49585: s1 = 0 if a0 == 0\n 49587: a1 = 0 if a0 == 0\n 49589: a0 = a1 >u 0\n 49591: a3 = s1 >u 0\n 49593: a3 = a0 if a1 != 0\n 49596: a0 = s1 | a1\n 49599: a4 = a1\n 49601: u64 [sp + 0x18] = a1\n 49604: a1 = u64 [sp + 0x48]\n 49607: a2 = a1 >u 0\n 49609: a2 = a3 if a0 != 0\n 49612: a0 = a2 << 0x5\n 49615: a1 = u64 [sp + 0x30]\n 49618: a1 = a1 << a0\n 49621: u64 [sp + 0x30] = a1\n 49624: a1 = u64 [sp + 0x40]\n 49627: a0 = a1 << a0\n 49630: u64 [sp + 0x20] = a0\n 49633: a2 = a2 << 0x6\n 49636: u64 [sp + 0x40] = a2\n 49639: a2 = a2 ^ 0x7f\n 49642: a0 = s1 >> 0x3f\n 49645: a1 = a4 << 0x1\n 49648: a1 = a1 | a0\n 49651: a0 = s1 << 0x1\n 49654: ra = 2228, jump @2379\n      : @1841 [@dyn 1114] (gas: 6)\n 49660: u64 [sp + 0x10] = a0\n 49663: u64 [sp + 0x8] = a1\n 49666: a0 = u64 [sp + 0x28]\n 49669: a1 = u64 [sp + 0x48]\n 49672: a2 = u64 [sp + 0x40]\n 49675: ra = 2230, jump @2374\n      : @1842 [@dyn 1115] (gas: 10)\n 49681: a2 = u64 [sp + 0x10]\n 49684: a0 = a0 | a2\n 49687: u64 [sp + 0x28] = a0\n 49690: a0 = u64 [sp + 0x8]\n 49693: a0 = a0 | a1\n 49696: u64 [sp + 0x10] = a0\n 49699: a0 = s1\n 49701: a1 = u64 [sp + 0x18]\n 49704: a2 = u64 [sp + 0x40]\n 49707: ra = 2232, jump @2374\n      : @1843 [@dyn 1116] (gas: 218)\n 49713: t1 = u64 [sp + 0x10]\n 49716: a2 = t1 | a1\n 49719: t0 = u64 [sp + 0x28]\n 49722: a3 = t0 | a0\n 49725: a3 = a3 | a2\n 49728: a3 = a3 >> 0x20\n 49731: a2 = a2 | a0\n 49734: a2 = a2 << 0x20\n 49737: a2 = a2 >> 0x20\n 49740: a2 = a2 | a3\n 49743: a2 = a2 >u 0\n 49745: a4 = a2 << 0x4\n 49748: a3 = u64 [sp + 0x20]\n 49751: a3 = a3 << a4\n 49754: u64 [sp + 0x40] = a3\n 49757: a3 = u64 [sp + 0x30]\n 49760: a3 = a3 << a4\n 49763: u64 [sp + 0x48] = a3\n 49766: a2 = a2 << 0x5\n 49769: t2 = t1 >> a2\n 49772: a3 = a2 ^ 0xffffffffffffffff\n 49775: a5 = a0 << 0x1\n 49778: a3 = a5 << a3\n 49781: ra = t2 | a3\n 49784: a0 = a0 >> a2\n 49787: s1 = a2 ^ 0x3f\n 49790: a5 = a1 << 0x1\n 49793: a5 = a5 << s1\n 49796: a5 = a5 | a0\n 49799: a4 = t0 >> a2\n 49802: a3 = t1 << 0x1\n 49805: a3 = a3 << s1\n 49808: a3 = a3 | a4\n 49811: s1 = a1 >> a2\n 49814: a1 = a3 | a5\n 49817: a2 = ra | s1\n 49820: a1 = a1 | a2\n 49823: a1 = a1 >> 0x10\n 49826: a2 = t2 | s1\n 49829: a0 = a0 | a2\n 49832: a0 = a0 << 0x30\n 49835: a0 = a0 | a1\n 49838: a1 = a0 >u 0\n 49840: a0 = a1 << 0x3\n 49843: a2 = u64 [sp + 0x48]\n 49846: a2 = a2 << a0\n 49849: u64 [sp + 0x48] = a2\n 49852: a2 = u64 [sp + 0x40]\n 49855: t2 = a2 << a0\n 49858: a0 = a1 << 0x4\n 49861: a1 = a5 >> a0\n 49864: a2 = a0 ^ 0x3f\n 49867: a4 = s1 << 0x1\n 49870: a4 = a4 << a2\n 49873: t1 = a1 | a4\n 49876: a3 = a3 >> a0\n 49879: a4 = ra << 0x1\n 49882: a4 = a4 << a2\n 49885: a4 = a4 | a3\n 49888: u64 [sp + 0x30] = a4\n 49891: a2 = ra >> a0\n 49894: a3 = a0 ^ 0xffffffffffffffff\n 49897: a5 = a5 << 0x1\n 49900: a3 = a5 << a3\n 49903: t0 = a2 | a3\n 49906: a1 = s1 >> a0\n 49909: a0 = t0 >u 0\n 49911: a3 = a4 <u 0x100\n 49915: a3 = a3 ^ 0x1\n 49918: a3 = a0 if t0 != 0\n 49921: a5 = t1 >u 0\n 49923: a0 = a1 >u 0\n 49925: a0 = a5 if a1 == 0\n 49928: a5 = t1 | a1\n 49931: a0 = a3 if a5 == 0\n 49934: a3 = a0 << 0x2\n 49937: a5 = a3 ^ 0xffffffffffffffff\n 49940: a4 = t2 >> 0x1\n 49943: a2 = a4 >> a5\n 49946: u64 [sp + 0x40] = a2\n 49949: a2 = u64 [sp + 0x48]\n 49952: a5 = a2 << a3\n 49955: ra = t2 << a3\n 49958: a3 = a0 << 0x3\n 49961: t2 = t1 >> a3\n 49964: a4 = a3 ^ 0x3f\n 49967: s1 = a1 << 0x1\n 49970: a0 = s1 << a4\n 49973: t2 = t2 | a0\n 49976: a0 = u64 [sp + 0x30]\n 49979: s1 = a0 >> a3\n 49982: a2 = t0 << 0x1\n 49985: a2 = a2 << a4\n 49988: s1 = s1 | a2\n 49991: u64 [sp + 0x30] = s1\n 49994: a2 = t0 >> a3\n 49997: a4 = a3 ^ 0xffffffffffffffff\n 50000: t1 = t1 << 0x1\n 50003: a4 = t1 << a4\n 50006: t1 = a2 | a4\n 50009: a4 = a1 >> a3\n 50012: a1 = t1 >u 0\n 50014: a2 = s1 <u 0x10\n 50017: a2 = a2 ^ 0x1\n 50020: a2 = a1 if t1 != 0\n 50023: a1 = t2 >u 0\n 50025: s1 = a4 >u 0\n 50027: s1 = a1 if a4 == 0\n 50030: a1 = t2 | a4\n 50033: s1 = a2 if a1 == 0\n 50036: a2 = s1 << 0x1\n 50039: a1 = a2 ^ 0x3f\n 50042: t0 = a5\n 50044: a5 = a5 >> 0x1\n 50047: a5 = a5 >> a1\n 50050: a0 = ra << a2\n 50053: a0 = a0 | a5\n 50056: u64 [sp + 0x48] = a0\n 50059: a0 = ra >> 0x1\n 50062: a5 = a2 ^ 0xffffffffffffffff\n 50065: a0 = a0 >> a5\n 50068: a3 = u64 [sp + 0x40]\n 50071: a5 = a3 << a2\n 50074: a5 = a5 | a0\n 50077: t0 = t0 << a2\n 50080: a0 = a3 >> 0x1\n 50083: ra = a0 >> a1\n 50086: s1 = s1 << 0x2\n 50089: a0 = s1 ^ 0x3f\n 50092: a3 = a4 << 0x1\n 50095: a3 = a3 << a0\n 50098: a1 = t2 >> s1\n 50101: a1 = a1 | a3\n 50104: a3 = t1 << 0x1\n 50107: a0 = a3 << a0\n 50110: a2 = u64 [sp + 0x30]\n 50113: a3 = a2 >> s1\n 50116: a0 = a0 | a3\n 50119: a3 = s1 ^ 0xffffffffffffffff\n 50122: t2 = t2 << 0x1\n 50125: a3 = t2 << a3\n 50128: a2 = t1 >> s1\n 50131: a2 = a2 | a3\n 50134: a3 = a4 >> s1\n 50137: a4 = a2 >u 0\n 50139: a0 = a0 <u 0x4\n 50142: a0 = a0 ^ 0x1\n 50145: a0 = a4 if a2 != 0\n 50148: a2 = a1 >u 0\n 50150: a4 = a3 >u 0\n 50152: a4 = a2 if a3 == 0\n 50155: a1 = a1 | a3\n 50158: a4 = a0 if a1 == 0\n 50161: a0 = ra << a4\n 50164: a1 = a4 ^ 0x3f\n 50167: a2 = a5 >> 0x1\n 50170: a3 = a2 >> a1\n 50173: a3 = a3 | a0\n 50176: a0 = a4 ^ 0xffffffffffffffff\n 50179: s1 = u64 [sp + 0x48]\n 50182: a2 = s1 >> 0x1\n 50185: a0 = a2 >> a0\n 50188: a2 = a5 << a4\n 50191: a2 = a2 | a0\n 50194: a0 = s1 << a4\n 50197: a5 = t0 >> 0x1\n 50200: a1 = a5 >> a1\n 50203: a5 = a0 | a1\n 50206: a1 = t0 << a4\n 50209: a0 = a5 << 0x1\n 50212: a4 = a0 + a5\n 50215: s1 = 0x3\n 50218: a0 = a1 mulhu s1\n 50221: a0 = a0 + a4\n 50224: a4 = a0 <u a4\n 50227: a5 = a5 mulhu s1\n 50230: a4 = a4 + a5\n 50233: a5 = a3 << 0x1\n 50236: a3 = a3 + a5\n 50239: a5 = a2 << 0x1\n 50242: a5 = a5 + a2\n 50245: a2 = a2 mulhu s1\n 50248: a5 = a5 + a4\n 50251: a4 = a5 <u a4\n 50254: a2 = a2 + a3\n 50257: a2 = a2 + a4\n 50260: a3 = a1 << 0x1\n 50263: a1 = a1 + a3\n 50266: a3 = a2 << 0x3f\n 50269: a4 = a5 >> 0x1\n 50272: a3 = a3 | a4\n 50275: u64 [sp + 0x30] = a3\n 50278: a5 = a5 << 0x3f\n 50281: s1 = a0 >> 0x1\n 50284: s1 = s1 | a5\n 50287: a0 = a0 << 0x3f\n 50290: a1 = a1 >> 0x1\n 50293: a1 = a1 | a0\n 50296: u64 [sp + 0x48] = a1\n 50299: a2 = a2 >> 0x1\n 50302: u64 [sp + 0x40] = a2\n 50305: a0 = u64 [sp + 0x68]\n 50308: a4 = sp + 0x200\n 50312: u64 [a4 + 0xd0] = a0\n 50316: a0 = u64 [sp + 0x60]\n 50319: u64 [a4 + 0xd8] = a0\n 50323: a0 = u64 [sp + 0x58]\n 50326: u64 [a4 + 0xe0] = a0\n 50330: a0 = u64 [sp + 0x50]\n 50333: u64 [a4 + 0xe8] = a0\n 50337: u64 [a4 + 0xb0] = a1\n 50341: u64 [a4 + 0xb8] = s1\n 50345: u64 [a4 + 0xc8] = a2\n 50349: a0 = sp + 0x2f0\n 50353: a1 = sp + 0x2d0\n 50357: a2 = sp + 0x2b0\n 50361: u64 [a4 + 0xc0] = a3\n 50365: ra = 2234, jump @1810\n      : @1844 [@dyn 1117] (gas: 5)\n 50371: a0 = u64 [sp + 0x300]\n 50375: a1 = u64 [sp + 0x2f0]\n 50379: a2 = u64 [sp + 0x308]\n 50383: a3 = u64 [sp + 0x2f8]\n 50387: t0 = 2236, jump @2215\n      : @1845 [@dyn 1118] (gas: 15)\n 50393: u64 [a3 + 0x88] = a0\n 50397: a0 = u64 [sp + 0x58]\n 50400: u64 [a3 + 0x80] = a0\n 50404: a0 = u64 [sp + 0x60]\n 50407: u64 [a3 + 0x78] = a0\n 50410: a0 = u64 [sp + 0x68]\n 50413: u64 [a3 + 0x70] = a0\n 50416: u64 [a3 + 0x50] = a1\n 50419: u64 [a3 + 0x58] = s1\n 50422: u64 [a3 + 0x68] = a2\n 50425: a0 = sp + 0x290\n 50429: a1 = sp + 0x270\n 50433: a2 = sp + 0x250\n 50437: u64 [a3 + 0x60] = a4\n 50440: ra = 2238, jump @1810\n      : @1846 [@dyn 1119] (gas: 5)\n 50446: a0 = u64 [sp + 0x2a0]\n 50450: a1 = u64 [sp + 0x290]\n 50454: a2 = u64 [sp + 0x2a8]\n 50458: a3 = u64 [sp + 0x298]\n 50462: t0 = 2240, jump @2215\n      : @1847 [@dyn 1120] (gas: 15)\n 50468: u64 [a3 + 0x28] = a0\n 50471: a0 = u64 [sp + 0x58]\n 50474: u64 [a3 + 0x20] = a0\n 50477: a0 = u64 [sp + 0x60]\n 50480: u64 [a3 + 0x18] = a0\n 50483: a0 = u64 [sp + 0x68]\n 50486: u64 [a3 + 0x10] = a0\n 50489: u64 [sp + 0x1f0] = a1\n 50493: u64 [sp + 0x1f8] = s1\n 50497: u64 [a3 + 0x8] = a2\n 50500: a0 = sp + 0x230\n 50504: a1 = sp + 0x210\n 50508: a2 = sp + 0x1f0\n 50512: u64 [a3] = a4\n 50514: ra = 2242, jump @1810\n      : @1848 [@dyn 1121] (gas: 6)\n 50520: a4 = sp + 0x200\n 50524: a0 = u64 [a4 + 0x40]\n 50527: a1 = u64 [a4 + 0x30]\n 50530: a2 = u64 [a4 + 0x48]\n 50533: a3 = u64 [a4 + 0x38]\n 50536: t0 = 2244, jump @2208\n      : @1849 [@dyn 1122] (gas: 15)\n 50542: u64 [sp + 0x1c8] = a0\n 50546: a0 = u64 [sp + 0x58]\n 50549: u64 [sp + 0x1c0] = a0\n 50553: a0 = u64 [sp + 0x60]\n 50556: u64 [sp + 0x1b8] = a0\n 50560: a0 = u64 [sp + 0x68]\n 50563: u64 [sp + 0x1b0] = a0\n 50567: u64 [sp + 0x190] = a1\n 50571: u64 [sp + 0x198] = s1\n 50575: u64 [sp + 0x1a8] = a2\n 50579: a0 = sp + 0x1d0\n 50583: a1 = sp + 0x1b0\n 50587: a2 = sp + 0x190\n 50591: u64 [sp + 0x1a0] = a4\n 50595: ra = 2246, jump @1810\n      : @1850 [@dyn 1123] (gas: 5)\n 50601: a0 = u64 [sp + 0x1e0]\n 50605: a1 = u64 [sp + 0x1d0]\n 50609: a2 = u64 [sp + 0x1e8]\n 50613: a3 = u64 [sp + 0x1d8]\n 50617: t0 = 2248, jump @2208\n      : @1851 [@dyn 1124] (gas: 15)\n 50623: u64 [sp + 0x168] = a0\n 50627: a0 = u64 [sp + 0x58]\n 50630: u64 [sp + 0x160] = a0\n 50634: a0 = u64 [sp + 0x60]\n 50637: u64 [sp + 0x158] = a0\n 50641: a0 = u64 [sp + 0x68]\n 50644: u64 [sp + 0x150] = a0\n 50648: u64 [sp + 0x130] = a1\n 50652: u64 [sp + 0x138] = s1\n 50656: u64 [sp + 0x148] = a2\n 50660: a0 = sp + 0x170\n 50664: a1 = sp + 0x150\n 50668: a2 = sp + 0x130\n 50672: u64 [sp + 0x140] = a4\n 50676: ra = 2250, jump @1810\n      : @1852 [@dyn 1125] (gas: 5)\n 50682: a0 = u64 [sp + 0x180]\n 50686: a1 = u64 [sp + 0x170]\n 50690: a2 = u64 [sp + 0x188]\n 50694: a3 = u64 [sp + 0x178]\n 50698: t0 = 2252, jump @2208\n      : @1853 [@dyn 1126] (gas: 15)\n 50704: u64 [sp + 0x108] = a0\n 50708: a0 = u64 [sp + 0x58]\n 50711: u64 [sp + 0x100] = a0\n 50715: a0 = u64 [sp + 0x60]\n 50718: u64 [sp + 0xf8] = a0\n 50722: a0 = u64 [sp + 0x68]\n 50725: u64 [sp + 0xf0] = a0\n 50729: u64 [sp + 0xd0] = a1\n 50733: u64 [sp + 0xd8] = s1\n 50737: u64 [sp + 0xe8] = a2\n 50741: a0 = sp + 0x110\n 50745: a1 = sp + 0xf0\n 50749: a2 = sp + 0xd0\n 50753: u64 [sp + 0xe0] = a4\n 50757: ra = 2254, jump @1810\n      : @1854 [@dyn 1127] (gas: 5)\n 50763: a0 = u64 [sp + 0x120]\n 50767: a1 = u64 [sp + 0x110]\n 50771: a2 = u64 [sp + 0x128]\n 50775: a3 = u64 [sp + 0x118]\n 50779: t0 = 2256, jump @2208\n      : @1855 [@dyn 1128] (gas: 15)\n 50785: u64 [sp + 0xa8] = a0\n 50789: a0 = u64 [sp + 0x58]\n 50792: u64 [sp + 0xa0] = a0\n 50796: a0 = u64 [sp + 0x60]\n 50799: u64 [sp + 0x98] = a0\n 50803: a0 = u64 [sp + 0x68]\n 50806: u64 [sp + 0x90] = a0\n 50810: u64 [sp + 0x70] = a1\n 50813: u64 [sp + 0x78] = s1\n 50816: u64 [sp + 0x88] = a2\n 50820: a0 = sp + 0xb0\n 50824: a1 = sp + 0x90\n 50828: a2 = sp + 0x70\n 50831: u64 [sp + 0x80] = a4\n 50835: ra = 2258, jump @1810\n      : @1856 [@dyn 1129] (gas: 29)\n 50841: a0 = u64 [sp + 0xc8]\n 50845: t0 = u64 [sp + 0xb0]\n 50849: a2 = u64 [sp + 0xc0]\n 50853: a3 = u64 [sp + 0xb8]\n 50857: a1 = u64 [sp + 0x40]\n 50860: a4 = a1 ^ a0\n 50863: a0 = a0 <u a1\n 50866: t1 = a1\n 50868: a1 = u64 [sp + 0x30]\n 50871: a5 = a2 <u a1\n 50874: a5 = a0 if a4 != 0\n 50877: a0 = a1 ^ a2\n 50880: a2 = a1\n 50882: t2 = a0 | a4\n 50885: a4 = s1 ^ a3\n 50888: a3 = a3 <u s1\n 50891: a0 = u64 [sp + 0x48]\n 50894: a1 = t0 <u a0\n 50897: a1 = a3 if a4 != 0\n 50900: a1 = a5 if t2 != 0\n 50903: t0 = a0 - a1\n 50906: a0 = a0 <u a1\n 50909: a4 = s1 - a0\n 50912: a0 = 0 if s1 != 0\n 50914: a5 = a2 - a0\n 50917: a0 = a2 <u a0\n 50920: a3 = t1 - a0\n 50923: a0 = u64 [sp + 0x38]\n 50926: fallthrough\n      : @1857 (gas: 11)\n 50927: u64 [a0] = t0\n 50929: u64 [a0 + 0x8] = a4\n 50932: u64 [a0 + 0x10] = a5\n 50935: u64 [a0 + 0x18] = a3\n 50938: sp = s0 + 0xfffffffffffffcd0\n 50942: a0 = sp + 0x300\n 50946: ra = u64 [a0 + 0x28]\n 50949: s0 = u64 [a0 + 0x20]\n 50952: s1 = u64 [a0 + 0x18]\n 50955: sp = sp + 0x330\n 50959: ret\n      : @1858 (gas: 34)\n 50961: sp = sp + 0xfffffffffffffea0\n 50965: u64 [sp + 0x158] = ra\n 50969: u64 [sp + 0x150] = s0\n 50973: u64 [sp + 0x148] = s1\n 50977: s0 = sp + 0x160\n 50981: sp = sp & 0xffffffffffffffe0\n 50984: s1 = sp\n 50986: u64 [s1 + 0x18] = a0\n 50989: t0 = u64 [a4 + 0x18]\n 50992: ra = u64 [a4 + 0x10]\n 50995: t2 = u64 [a4 + 0x8]\n 50998: a4 = u64 [a4]\n 51000: a0 = u64 [a3 + 0x18]\n 51003: u64 [s1 + 0x78] = a0\n 51006: a0 = u64 [a3 + 0x10]\n 51009: u64 [s1 + 0x90] = a0\n 51013: a0 = u64 [a3 + 0x8]\n 51016: u64 [s1 + 0x70] = a0\n 51019: a5 = u64 [a3]\n 51021: a0 = u64 [a2]\n 51023: a2 = u64 [a1 + 0x18]\n 51026: u64 [s1 + 0x60] = a2\n 51029: a2 = u64 [a1 + 0x10]\n 51032: u64 [s1 + 0x58] = a2\n 51035: a2 = u64 [a1 + 0x8]\n 51038: u64 [s1 + 0x50] = a2\n 51041: a1 = u64 [a1]\n 51043: u64 [s1 + 0x48] = a1\n 51046: a1 = 0xffffffffffff\n 51056: u64 [s1 + 0x40] = a1\n 51059: a0 = a0 << 0x10\n 51062: a0 = a0 >> 0x10\n 51065: u64 [s1 + 0x38] = a0\n 51068: fallthrough\n      : @1859 (gas: 6)\n 51069: a2 = a4\n 51071: a3 = t2\n 51073: a4 = t0\n 51075: t0 = u64 [s1 + 0x90]\n 51079: u64 [s1 + 0x68] = a5\n 51082: fallthrough\n      : @1860 (gas: 26)\n 51083: u64 [s1 + 0xb8] = ra\n 51087: t1 = a2\n 51089: a2 = a5\n 51091: t2 = a5 <u t1\n 51094: a1 = u64 [s1 + 0x70]\n 51097: a5 = a1 ^ a3\n 51100: a0 = a1 <u a3\n 51103: u64 [s1 + 0x98] = a5\n 51107: a0 = t2 if a5 == 0\n 51110: u64 [s1 + 0xb0] = a0\n 51114: t2 = u64 [s1 + 0x78]\n 51117: a0 = t0 <u ra\n 51120: u64 [s1 + 0xa8] = a0\n 51124: ra = a2\n 51126: a0 = t2 ^ a4\n 51129: a2 = t2 <u a4\n 51132: a5 = u64 [s1 + 0xa8]\n 51136: a2 = a5 if a0 == 0\n 51139: a5 = u64 [s1 + 0xb8]\n 51143: t0 = t0 ^ a5\n 51146: u64 [s1 + 0xa8] = a0\n 51150: u64 [s1 + 0xa0] = t0\n 51154: a0 = t0 | a0\n 51157: a5 = u64 [s1 + 0xb0]\n 51161: a2 = a5 if a0 == 0\n 51164: jump @1869 if a2 == 0\n      : @1861 (gas: 60)\n 51168: u64 [s1 + 0x30] = a4\n 51171: a0 = a4 & t2\n 51174: u64 [s1 + 0x88] = a0\n 51178: u64 [s1 + 0x28] = a3\n 51181: a1 = a1 & a3\n 51184: u64 [s1 + 0xb0] = a1\n 51188: t2 = t1 & ra\n 51191: u64 [s1 + 0x80] = t2\n 51195: u64 [s1 + 0x20] = t1\n 51198: a2 = t1 ^ ra\n 51201: a5 = u64 [s1 + 0x98]\n 51205: a0 = a5 >> 0x1\n 51208: t0 = u64 [s1 + 0xa0]\n 51212: a4 = t0 << 0x3f\n 51215: a0 = a0 | a4\n 51218: a2 = a2 >> 0x1\n 51221: a5 = a5 << 0x3f\n 51224: a2 = a2 | a5\n 51227: t2 = t2 + a2\n 51230: a3 = t2 <u a2\n 51233: a4 = u64 [s1 + 0xb0]\n 51237: a4 = a4 + a0\n 51240: a2 = a4 + a3\n 51243: a4 = a2 ^ a0\n 51246: a0 = a2 <u a0\n 51249: a0 = a3 if a4 == 0\n 51252: a1 = u64 [s1 + 0xb8]\n 51256: a3 = u64 [s1 + 0x90]\n 51260: ra = a1 & a3\n 51263: a3 = t0 >> 0x1\n 51266: a1 = u64 [s1 + 0xa8]\n 51270: a4 = a1 << 0x3f\n 51273: a3 = a3 | a4\n 51276: t1 = a1 >> 0x1\n 51279: a4 = a3 + ra\n 51282: a1 = a4 <u a3\n 51285: t0 = u64 [s1 + 0x88]\n 51289: a3 = t1 + t0\n 51292: a1 = a1 + a3\n 51295: a5 = a4 + a0\n 51298: a0 = a5 <u a4\n 51301: a4 = a1 + a0\n 51304: a1 = u64 [s1 + 0xb0]\n 51308: a0 = a1 ^ a2\n 51311: u64 [s1 + 0xa8] = a2\n 51315: a3 = a2 <u a1\n 51318: u64 [s1 + 0xb0] = t2\n 51322: a1 = u64 [s1 + 0x80]\n 51326: a2 = t2 <u a1\n 51329: a2 = a3 if a0 != 0\n 51332: a0 = a5 <u ra\n 51335: a1 = t0 ^ a4\n 51338: u64 [s1 + 0x98] = a4\n 51342: a3 = a4 <u t0\n 51345: a3 = a0 if a1 == 0\n 51348: u64 [s1 + 0xa0] = a5\n 51352: a0 = ra ^ a5\n 51355: a0 = a0 | a1\n 51358: a2 = a3 if a0 != 0\n 51361: jump @1870 if a2 != 0\n      : @1862 (gas: 12)\n 51365: a0 = u64 [s1 + 0x48]\n 51368: a2 = s1 + 0x100\n 51372: u64 [a2 + 0x20] = a0\n 51375: a0 = u64 [s1 + 0x50]\n 51378: u64 [a2 + 0x28] = a0\n 51381: a0 = u64 [s1 + 0x58]\n 51384: u64 [a2 + 0x30] = a0\n 51387: a1 = s1 + 0x120\n 51391: a0 = u64 [s1 + 0x60]\n 51394: u64 [a2 + 0x38] = a0\n 51397: a0 = 0\n 51399: ra = 2260, jump @24\n      : @1863 [@dyn 1130] (gas: 6)\n 51406: a0 = sp + 0xffffffffffffffe0\n 51409: a0 = a0 & 0xffffffffffffffe0\n 51412: u64 [s1 + 0x88] = a0\n 51416: sp = a0\n 51418: a1 = i32 [0x20150]\n 51423: jump @1865 if a1 >u 31\n      : @1864 (gas: 2)\n 51427: u32 [0x20150] = 0x20\n 51433: fallthrough\n      : @1865 (gas: 45)\n 51434: a0 = sp + 0xffffffffffffffe0\n 51437: a2 = a0 & 0xffffffffffffffe0\n 51440: u64 [s1 + 0x80] = a2\n 51444: sp = a2\n 51446: a0 = 0x20160\n 51451: i32 a0 = a0 + 0\n 51453: i32 a2 = a2 + 0\n 51455: a1 = 0x20\n 51458: ecalli 11 // 'hash_keccak_256'\n 51460: a2 = u64 [s1 + 0x80]\n 51464: a0 = u64 [a2 + 0x18]\n 51467: a1 = u64 [a2 + 0x10]\n 51470: t0 = u64 [a2 + 0x8]\n 51473: a3 = u64 [a2]\n 51475: a0 = reverse a0\n 51477: a1 = reverse a1\n 51479: a4 = u64 [s1 + 0xa8]\n 51483: a4 = a4 + a1\n 51486: t1 = u64 [s1 + 0xb0]\n 51490: t1 = t1 + a0\n 51493: a0 = t1 <u a0\n 51496: a4 = a4 + a0\n 51499: a2 = a4 ^ a1\n 51502: a1 = a4 <u a1\n 51505: a1 = a0 if a2 == 0\n 51508: a0 = reverse a3\n 51510: a2 = reverse t0\n 51512: a3 = u64 [s1 + 0xa0]\n 51516: a3 = a3 + a2\n 51519: a5 = u64 [s1 + 0x98]\n 51523: a0 = a0 + a5\n 51526: a2 = a3 <u a2\n 51529: a0 = a0 + a2\n 51532: a5 = a3 + a1\n 51535: a2 = a5 <u a3\n 51538: a0 = a0 + a2\n 51541: a1 = u64 [s1 + 0x88]\n 51545: u64 [a1] = t1\n 51547: u64 [a1 + 0x8] = a4\n 51550: u64 [a1 + 0x10] = a5\n 51553: u64 [a1 + 0x18] = a0\n 51556: a0 = s1 + 0x100\n 51560: ra = 0x8d6\n 51564: t0 = 0x6\n 51567: jump @2259\n      : @1866 [@dyn 1131] (gas: 11)\n 51570: a4 = u64 [s1 + 0x98]\n 51574: ra = u64 [s1 + 0xa0]\n 51578: a3 = u64 [s1 + 0xa8]\n 51582: a2 = u64 [s1 + 0xb0]\n 51586: a0 = u64 [s1 + 0x100]\n 51590: a1 = u64 [s1 + 0x40]\n 51593: a0 = a0 & a1\n 51596: t0 = u64 [s1 + 0x90]\n 51600: a1 = u64 [s1 + 0x38]\n 51603: a5 = u64 [s1 + 0x68]\n 51606: jump @1860 if a1 <u a0\n      : @1867 (gas: 7)\n 51610: u64 [s1 + 0xc0] = a2\n 51614: u64 [s1 + 0xc8] = a3\n 51618: u64 [s1 + 0xd0] = ra\n 51622: a0 = s1 + 0xe0\n 51626: a1 = s1 + 0xc0\n 51630: u64 [s1 + 0xd8] = a4\n 51634: ra = 2264, jump @1718\n      : @1868 [@dyn 1132] (gas: 12)\n 51640: a0 = u64 [s1 + 0xf8]\n 51644: u64 [s1 + 0x78] = a0\n 51647: a0 = u64 [s1 + 0xf0]\n 51651: u64 [s1 + 0x90] = a0\n 51655: a0 = u64 [s1 + 0xe8]\n 51659: u64 [s1 + 0x70] = a0\n 51662: a5 = u64 [s1 + 0xe0]\n 51666: t0 = u64 [s1 + 0x30]\n 51669: ra = u64 [s1 + 0xb8]\n 51673: t2 = u64 [s1 + 0x28]\n 51676: a4 = u64 [s1 + 0x20]\n 51679: jump @1859\n      : @1869 (gas: 12)\n 51682: a0 = u64 [s1 + 0x18]\n 51685: u64 [a0] = t1\n 51687: u64 [a0 + 0x8] = a3\n 51690: a1 = u64 [s1 + 0xb8]\n 51694: u64 [a0 + 0x10] = a1\n 51697: u64 [a0 + 0x18] = a4\n 51700: sp = s0 + 0xfffffffffffffea0\n 51704: ra = u64 [sp + 0x158]\n 51708: s0 = u64 [sp + 0x150]\n 51712: s1 = u64 [sp + 0x148]\n 51716: sp = sp + 0x160\n 51720: ret\n      : @1870 (gas: 3)\n 51722: ra = 0x8da\n 51726: t0 = 0x28e\n 51730: jump @2232\n      : @1871 [@dyn 1133] (gas: 1)\n 51733: t0 = 2268, jump @2275\n      : @1872 [@dyn 1134] (gas: 16)\n 51739: t0 = u64 [a0 + 0x10]\n 51742: a3 = u64 [a1 + 0x10]\n 51745: u64 [sp + 0xb8] = a4\n 51749: a4 = a4 ^ t2\n 51752: u64 [sp + 0xb0] = a5\n 51756: a5 = a5 ^ t1\n 51759: a4 = a4 | a5\n 51762: u64 [sp + 0xa0] = a3\n 51766: a5 = a3 << 0x20\n 51769: ra = a5 >> 0x20\n 51772: a5 = t0 << 0x20\n 51775: a5 = a5 >> 0x20\n 51778: u64 [sp + 0xc0] = a5\n 51782: a5 = a5 ^ ra\n 51785: a4 = a4 | a5\n 51788: jump @1908 if a4 == 0\n      : @1873 (gas: 12)\n 51792: a3 = u64 [a2 + 0x18]\n 51795: a5 = u64 [a2 + 0x10]\n 51798: a4 = u64 [a2]\n 51800: s1 = u64 [a2 + 0x8]\n 51803: u64 [sp + 0xa8] = a4\n 51807: u64 [sp + 0xd8] = a5\n 51811: a2 = a4 | a5\n 51814: u64 [sp + 0xd0] = a3\n 51818: u64 [sp + 0xc8] = s1\n 51822: a4 = s1 | a3\n 51825: a2 = a2 | a4\n 51828: jump @1908 if a2 == 0\n      : @1874 (gas: 15)\n 51832: a3 = u64 [a1 + 0x18]\n 51835: u64 [sp + 144] = 0xffff\n 51842: a1 = u64 [sp + 0xc0]\n 51846: a4 = u64 [sp + 0xb8]\n 51850: a1 = a1 | a4\n 51853: a5 = u64 [sp + 0xb0]\n 51857: a1 = a1 | a5\n 51860: u64 [sp + 0x58] = a2\n 51863: u64 [sp + 0x60] = a2\n 51866: u64 [sp + 0x68] = a2\n 51869: u64 [sp + 0x70] = a2\n 51872: u64 [sp + 0x88] = ra\n 51876: u64 [sp + 0x80] = t1\n 51880: u64 [sp + 0x78] = t2\n 51883: jump @1892 if a1 == 0\n      : @1875 (gas: 12)\n 51887: u64 [sp + 0x8] = a3\n 51890: a0 = u64 [a0 + 0x18]\n 51893: a2 = sp + 0x400\n 51897: u64 [a2 + 0x60] = a4\n 51900: u64 [a2 + 0x70] = t0\n 51903: u64 [a2 + 0x78] = a0\n 51906: a0 = sp + 0x480\n 51910: a1 = sp + 0x460\n 51914: u64 [a2 + 0x68] = a5\n 51917: ra = 0x8de\n 51921: t0 = 0x7b8\n 51925: jump @2257\n      : @1876 [@dyn 1135] (gas: 1)\n 51928: t0 = 2272, jump @2250\n      : @1877 [@dyn 1136] (gas: 3)\n 51934: ra = 0x8e2\n 51938: t0 = 0x2e4\n 51942: jump @2372\n      : @1878 [@dyn 1137] (gas: 1)\n 51945: t0 = 2276, jump @2264\n      : @1879 [@dyn 1138] (gas: 15)\n 51951: ra = 0x8e6\n 51955: sp = sp + 0xfffffffffffffe40\n 51959: u64 [sp + 0x1b8] = ra\n 51963: u64 [sp + 0x1b0] = s0\n 51967: u64 [sp + 0x1a8] = s1\n 51971: s0 = sp + 0x1c0\n 51975: sp = sp & 0xffffffffffffffe0\n 51978: a3 = u16 [a2 + 0x18]\n 51981: u64 [sp + 0x30] = a3\n 51984: a3 = u64 [a2 + 0x10]\n 51987: u64 [sp + 0x28] = a3\n 51990: a3 = u64 [a2]\n 51992: u64 [sp + 0x38] = a3\n 51995: t0 = 0x9d8\n 51999: jump @2311\n      : @1880 [@dyn 1139] (gas: 1)\n 52002: t0 = 2280, jump @2256\n      : @1881 [@dyn 1140] (gas: 1)\n 52008: ra = 2282, jump @22\n      : @1882 [@dyn 1141] (gas: 1)\n 52015: t0 = 2284, jump @2269\n      : @1883 [@dyn 1142] (gas: 14)\n 52021: t0 = a4 & a1\n 52024: a4 = u64 [sp + 0x98]\n 52028: a4 = a4 & a0\n 52031: u64 [sp + 0x30] = a4\n 52034: a4 = u64 [sp + 0x380]\n 52038: u64 [sp + 0x98] = a4\n 52042: a4 = u64 [sp + 0x38]\n 52045: ra = a4 & a0\n 52048: a4 = u64 [sp + 0x40]\n 52051: a0 = a0 & a4\n 52054: a4 = u64 [sp + 0x48]\n 52057: a4 = a4 & a1\n 52060: u64 [sp + 0x318] = t0\n 52064: t0 = 2286, jump @2247\n      : @1884 [@dyn 1143] (gas: 1)\n 52070: ra = 2288, jump @547\n      : @1885 [@dyn 1144] (gas: 6)\n 52077: ra = u64 [sp + 0x18]\n 52080: a2 = u64 [sp + 0x10]\n 52083: a0 = a2 | ra\n 52086: a3 = u64 [sp + 0x50]\n 52089: a1 = s1 | a3\n 52092: t0 = 2290, jump @2313\n      : @1886 [@dyn 1145] (gas: 1)\n 52098: jump @1910 if a0 != 0\n      : @1887 (gas: 1)\n 52102: t0 = 2292, jump @2337\n      : @1888 [@dyn 1146] (gas: 23)\n 52108: t0 = u64 [sp + 0x98]\n 52112: a1 = t2 <u t0\n 52115: a5 = a1 if a4 == 0\n 52118: t1 = u64 [sp + 0x50]\n 52121: a4 = a3 - t1\n 52124: s1 = a4 - a5\n 52127: a4 = a4 <u a5\n 52130: a3 = a3 <u t1\n 52133: a5 = u64 [sp + 0x48]\n 52136: a5 = a5 - ra\n 52139: a5 = a5 - a3\n 52142: a5 = a5 - a4\n 52145: a0 = a0 - a2\n 52148: a0 = a0 - a1\n 52151: a1 = t2 - t0\n 52154: a0 = a0 | a5\n 52157: a2 = a1 | s1\n 52160: a2 = a2 | a0\n 52163: a0 = a0 | s1\n 52166: a2 = a2 >> 0x20\n 52169: a0 = a0 << 0x20\n 52172: a0 = a0 | a2\n 52175: jump @1910 if a0 != 0\n      : @1889 (gas: 7)\n 52179: a5 = sp + 0x200\n 52183: u64 [a5 + 216] = 0\n 52187: a0 = u64 [sp + 0xb8]\n 52191: u64 [a5 + 0xc0] = a0\n 52195: a0 = u64 [sp + 0xb0]\n 52199: u64 [a5 + 0xc8] = a0\n 52203: t0 = 2294, jump @2326\n      : @1890 [@dyn 1147] (gas: 12)\n 52209: u64 [a5 + 0xf8] = a0\n 52213: u64 [a5 + 0xf0] = a2\n 52217: u64 [a5 + 0xe8] = a3\n 52221: u64 [a5 + 0xe0] = a4\n 52225: a2 = sp + 0x2e0\n 52229: a3 = sp + 0x2c0\n 52233: a0 = u64 [sp + 0xc0]\n 52237: u64 [a5 + 0xd0] = a0\n 52241: a0 = u64 [sp + 0x98]\n 52245: ra = 0x8f8\n 52249: t0 = 0xa\n 52252: jump @2373\n      : @1891 [@dyn 1148] (gas: 5)\n 52255: ra = u64 [sp + 0x88]\n 52259: t1 = u64 [sp + 0x80]\n 52263: t2 = u64 [sp + 0x78]\n 52266: a3 = u64 [sp + 0x8]\n 52269: fallthrough\n      : @1892 (gas: 3)\n 52270: a0 = t2 | ra\n 52273: a0 = a0 | t1\n 52276: jump @1908 if a0 == 0\n      : @1893 (gas: 1)\n 52280: t0 = 2298, jump @2354\n      : @1894 [@dyn 1149] (gas: 3)\n 52286: ra = 0x8fc\n 52290: t0 = 0x7b8\n 52294: jump @2257\n      : @1895 [@dyn 1150] (gas: 1)\n 52297: t0 = 2302, jump @2266\n      : @1896 [@dyn 1151] (gas: 3)\n 52303: ra = 0x900\n 52307: t0 = 0x2e4\n 52311: jump @2372\n      : @1897 [@dyn 1152] (gas: 1)\n 52314: t0 = 2306, jump @2271\n      : @1898 [@dyn 1153] (gas: 1)\n 52320: ra = 2308, jump @2096\n      : @1899 [@dyn 1154] (gas: 1)\n 52326: t0 = 2310, jump @2265\n      : @1900 [@dyn 1155] (gas: 1)\n 52332: ra = 2312, jump @22\n      : @1901 [@dyn 1156] (gas: 44)\n 52339: t0 = u64 [sp + 0x1b8]\n 52343: u64 [sp + 0x98] = t0\n 52347: s1 = s1 & 0xffffffffffffffff\n 52350: u64 [sp + 0xa8] = s1\n 52354: a1 = u64 [sp + 0xa0]\n 52358: t2 = a1 & 0xffffffffffffffff\n 52361: a1 = u64 [sp + 0xb0]\n 52365: t1 = a1 & 0xffffffffffffffff\n 52368: s1 = u64 [sp + 0xb8]\n 52372: s1 = s1 & 0xffffffffffffffff\n 52375: a1 = u64 [sp + 0xd8]\n 52379: ra = a1 & 0xffffffffffffffff\n 52382: a2 = u64 [sp + 0x1b0]\n 52386: u64 [sp + 0xb8] = a2\n 52390: a1 = u64 [sp + 0x1a8]\n 52394: u64 [sp + 0xb0] = a1\n 52398: a3 = u64 [sp + 0x1a0]\n 52402: u64 [sp + 0xd8] = a3\n 52406: a5 = u64 [sp + 0xc8]\n 52410: a5 = a5 & 0xffffffffffffffff\n 52413: a4 = u64 [sp + 0x90]\n 52417: a0 = u64 [sp + 0xc0]\n 52421: a0 = a0 & a4\n 52424: a3 = u64 [sp + 0xd0]\n 52428: a3 = a3 & a4\n 52431: u64 [sp + 0x138] = a0\n 52435: u64 [sp + 0x130] = t1\n 52439: u64 [sp + 0x128] = t2\n 52443: a0 = u64 [sp + 0xa8]\n 52447: u64 [sp + 0x120] = a0\n 52451: u64 [sp + 0x158] = a3\n 52455: u64 [sp + 0x150] = a5\n 52459: u64 [sp + 0x148] = ra\n 52463: u64 [sp + 0x140] = s1\n 52467: u64 [sp + 0x178] = t0\n 52471: u64 [sp + 0x170] = a2\n 52475: u64 [sp + 0x168] = a1\n 52479: a0 = sp + 0x180\n 52483: a1 = sp + 0x160\n 52487: a2 = sp + 0x140\n 52491: a3 = sp + 0x120\n 52495: s1 = u64 [sp + 0xd8]\n 52499: u64 [sp + 0x160] = s1\n 52503: ra = 2314, jump @547\n      : @1902 [@dyn 1157] (gas: 1)\n 52510: t0 = 2316, jump @2318\n      : @1903 [@dyn 1158] (gas: 1)\n 52516: jump @1910 if a0 != 0\n      : @1904 (gas: 22)\n 52520: a0 = u64 [sp + 0x188]\n 52524: a1 = u64 [sp + 0x198]\n 52528: u64 [sp + 0xd0] = a1\n 52532: t1 = u64 [sp + 0x180]\n 52536: a3 = u64 [sp + 0x190]\n 52540: a4 = a0 ^ a2\n 52543: a5 = a0 <u a2\n 52546: t0 = u64 [sp + 0xd8]\n 52550: a1 = t1 <u t0\n 52553: a5 = a1 if a4 == 0\n 52556: a4 = a3 - s1\n 52559: t2 = a4 - a5\n 52562: a4 = a4 <u a5\n 52565: a3 = a3 <u s1\n 52568: a5 = u64 [sp + 0xd0]\n 52572: a5 = a5 - ra\n 52575: a5 = a5 - a3\n 52578: a5 = a5 - a4\n 52581: a0 = a0 - a2\n 52584: a0 = a0 - a1\n 52587: a1 = t1 - t0\n 52590: t0 = 2318, jump @2220\n      : @1905 [@dyn 1159] (gas: 1)\n 52596: jump @1910 if a0 != 0\n      : @1906 (gas: 6)\n 52599: u64 [sp + 248] = 0\n 52603: a0 = u64 [sp + 0x78]\n 52606: u64 [sp + 0xe0] = a0\n 52610: a0 = u64 [sp + 0x80]\n 52614: u64 [sp + 0xe8] = a0\n 52618: t0 = 2320, jump @2326\n      : @1907 [@dyn 1160] (gas: 12)\n 52624: u64 [sp + 0x118] = a0\n 52628: u64 [sp + 0x110] = a2\n 52632: u64 [sp + 0x108] = a3\n 52636: u64 [sp + 0x100] = a4\n 52640: a2 = sp + 0x100\n 52644: a3 = sp + 0xe0\n 52648: a0 = u64 [sp + 0x88]\n 52652: u64 [sp + 0xf0] = a0\n 52656: a0 = u64 [sp + 0xd8]\n 52660: ra = 0x912\n 52664: t0 = 0xa\n 52667: jump @2373\n      : @1908 [@dyn 1161] (gas: 1)\n 52670: t0 = 2324, jump @2364\n      : @1909 [@dyn 1162] (gas: 1)\n 52676: ret\n      : @1910 (gas: 1)\n 52678: trap\n      : @1911 [@dyn 1163] (gas: 1)\n 52679: jump @1918 if a1 != 0\n      : @1912 (gas: 3)\n 52683: a0 = sp + 0x100\n 52687: a1 = 0x40\n 52690: ra = 2328, jump @22\n      : @1913 [@dyn 1164] (gas: 1)\n 52697: t0 = 2330, jump @2298\n      : @1914 [@dyn 1165] (gas: 6)\n 52703: u64 [sp + 192] = 0x5\n 52708: a0 = sp + 0xe0\n 52712: a1 = sp + 0xc0\n 52716: a2 = sp + 0xa0\n 52720: u64 [sp + 200] = 0\n 52724: ra = 2332, jump @1602\n      : @1915 [@dyn 1166] (gas: 1)\n 52730: t0 = 2334, jump @2290\n      : @1916 [@dyn 1167] (gas: 27)\n 52736: t0 = u64 [sp + 0x50]\n 52739: a4 = a3 - t0\n 52742: a3 = a3 <u t0\n 52745: a2 = u64 [sp + 0x48]\n 52748: s1 = u64 [sp + 0x30]\n 52751: s1 = s1 - a2\n 52754: s1 = s1 - a3\n 52757: a3 = a4 <u a5\n 52760: s1 = s1 - a3\n 52763: u64 [sp + 0x30] = s1\n 52766: a4 = a4 - a5\n 52769: a0 = a0 - t1\n 52772: a0 = a0 - a1\n 52775: a1 = t2 - ra\n 52778: u64 [sp + 0x60] = a1\n 52781: u64 [sp + 0x98] = a2\n 52785: s1 = t0\n 52787: u64 [sp + 0x90] = t0\n 52791: u64 [sp + 0x88] = t1\n 52795: u64 [sp + 0x80] = ra\n 52799: u64 [sp + 0x68] = a0\n 52802: u64 [sp + 0x70] = a4\n 52805: a0 = sp + 0x80\n 52809: a1 = sp + 0x60\n 52812: a2 = u64 [sp + 0x30]\n 52815: u64 [sp + 0x78] = a2\n 52818: ra = 2336, jump @149\n      : @1917 [@dyn 1168] (gas: 1)\n 52825: jump @1932\n      : @1918 (gas: 8)\n 52828: u64 [sp + 0x18] = s1\n 52831: u64 [sp + 0x20] = a5\n 52834: u64 [sp + 0x28] = a4\n 52837: u64 [sp + 0x30] = a3\n 52840: a0 = a3 & 0xff\n 52844: s1 = 0x1f\n 52847: u64 [sp + 0x10] = a0\n 52850: jump @1935 if s1 <u a0\n      : @1919 (gas: 4)\n 52854: a0 = sp + 0x1e0\n 52858: a1 = 0x40\n 52861: s1 = 0x40\n 52864: ra = 2338, jump @22\n      : @1920 [@dyn 1169] (gas: 1)\n 52871: t0 = 2340, jump @2274\n      : @1921 [@dyn 1170] (gas: 1)\n 52877: ra = 2342, jump @149\n      : @1922 [@dyn 1171] (gas: 1)\n 52884: t0 = 2344, jump @2341\n      : @1923 [@dyn 1172] (gas: 1)\n 52890: jump @1934 if a0 != 0\n      : @1924 (gas: 8)\n 52894: u64 [sp + 408] = 0\n 52898: u64 [sp + 400] = 0\n 52902: u64 [sp + 392] = 0\n 52906: a1 = sp + 0x180\n 52910: u64 [sp + 384] = 0x20\n 52915: s1 = u64 [sp + 0x58]\n 52918: a0 = s1\n 52920: ra = 2346, jump @24\n      : @1925 [@dyn 1173] (gas: 1)\n 52927: t0 = 2348, jump @2312\n      : @1926 [@dyn 1174] (gas: 1)\n 52933: jump @1934 if a1 == 0\n      : @1927 (gas: 7)\n 52936: a0 = i32 [0x2014c]\n 52941: u64 [sp] = a0\n 52943: s1 = u64 [sp + 0x58]\n 52946: i32 a0 = s1 + 0x20\n 52949: u64 [sp + 0x8] = a0\n 52952: a1 = 0x20\n 52955: ra = 2350, jump @37\n      : @1928 [@dyn 1175] (gas: 12)\n 52962: i32 a0 = a0 + 0\n 52964: a1 = 0x20\n 52967: a2 = u64 [sp]\n 52969: ecalli 3 // 'call_data_copy'\n 52971: u64 [sp + 376] = 0\n 52975: u64 [sp + 368] = 0\n 52979: u64 [sp + 360] = 0\n 52983: a1 = sp + 0x160\n 52987: a0 = u64 [sp + 0x10]\n 52990: u64 [sp + 0x160] = a0\n 52994: a0 = s1\n 52996: ra = 2352, jump @24\n      : @1929 [@dyn 1176] (gas: 1)\n 53003: t0 = 2354, jump @2369\n      : @1930 [@dyn 1177] (gas: 1)\n 53009: ra = 2356, jump @24\n      : @1931 [@dyn 1178] (gas: 3)\n 53016: s1 = u64 [sp + 0x50]\n 53019: t0 = 0x936\n 53023: jump @2277\n      : @1932 (gas: 1)\n 53026: t0 = 2358, jump @2277\n      : @1933 [@dyn 1179] (gas: 1)\n 53032: ret\n      : @1934 (gas: 1)\n 53034: trap\n      : @1935 (gas: 1)\n 53035: t0 = 2360, jump @2346\n      : @1936 [@dyn 1180] (gas: 1)\n 53041: ra = 2362, jump @24\n      : @1937 [@dyn 1181] (gas: 2)\n 53048: a1 = i32 [0x20150]\n 53053: jump @1939 if s1 <u a1\n      : @1938 (gas: 2)\n 53056: u32 [0x20150] = 0x20\n 53062: fallthrough\n      : @1939 (gas: 8)\n 53063: a1 = 0x20160\n 53068: i32 a1 = a1 + 0\n 53070: a0 = 0x1\n 53073: a2 = 0x4\n 53076: ra = 0x93c\n 53080: ecalli 16 // 'seal_return'\n 53082: t0 = 0x93e\n 53086: jump @2258\n      : @1940 [@dyn 1182] (gas: 1)\n 53089: t0 = 2366, jump @2258\n      : @1941 [@dyn 1183] (gas: 1)\n 53095: jump @1948 if a1 != 0\n      : @1942 (gas: 3)\n 53099: a0 = sp + 0x100\n 53103: a1 = 0x40\n 53106: ra = 2368, jump @22\n      : @1943 [@dyn 1184] (gas: 1)\n 53113: t0 = 2370, jump @2298\n      : @1944 [@dyn 1185] (gas: 6)\n 53119: u64 [sp + 192] = 0x6\n 53124: a0 = sp + 0xe0\n 53128: a1 = sp + 0xc0\n 53132: a2 = sp + 0xa0\n 53136: u64 [sp + 200] = 0\n 53140: ra = 2372, jump @1602\n      : @1945 [@dyn 1186] (gas: 1)\n 53146: t0 = 2374, jump @2290\n      : @1946 [@dyn 1187] (gas: 27)\n 53152: t0 = u64 [sp + 0x50]\n 53155: a4 = a3 - t0\n 53158: a3 = a3 <u t0\n 53161: a2 = u64 [sp + 0x48]\n 53164: s1 = u64 [sp + 0x30]\n 53167: s1 = s1 - a2\n 53170: s1 = s1 - a3\n 53173: a3 = a4 <u a5\n 53176: s1 = s1 - a3\n 53179: u64 [sp + 0x30] = s1\n 53182: a4 = a4 - a5\n 53185: a0 = a0 - t1\n 53188: a0 = a0 - a1\n 53191: a1 = t2 - ra\n 53194: u64 [sp + 0x60] = a1\n 53197: u64 [sp + 0x98] = a2\n 53201: s1 = t0\n 53203: u64 [sp + 0x90] = t0\n 53207: u64 [sp + 0x88] = t1\n 53211: u64 [sp + 0x80] = ra\n 53215: u64 [sp + 0x68] = a0\n 53218: u64 [sp + 0x70] = a4\n 53221: a0 = sp + 0x80\n 53225: a1 = sp + 0x60\n 53228: a2 = u64 [sp + 0x30]\n 53231: u64 [sp + 0x78] = a2\n 53234: ra = 2376, jump @149\n      : @1947 [@dyn 1188] (gas: 1)\n 53241: jump @1962\n      : @1948 (gas: 8)\n 53244: u64 [sp + 0x18] = s1\n 53247: u64 [sp + 0x20] = a5\n 53250: u64 [sp + 0x28] = a4\n 53253: u64 [sp + 0x30] = a3\n 53256: a0 = a3 & 0xff\n 53260: s1 = 0x1f\n 53263: u64 [sp + 0x10] = a0\n 53266: jump @1965 if s1 <u a0\n      : @1949 (gas: 4)\n 53270: a0 = sp + 0x1e0\n 53274: a1 = 0x40\n 53277: s1 = 0x40\n 53280: ra = 2378, jump @22\n      : @1950 [@dyn 1189] (gas: 1)\n 53287: t0 = 2380, jump @2274\n      : @1951 [@dyn 1190] (gas: 1)\n 53293: ra = 2382, jump @149\n      : @1952 [@dyn 1191] (gas: 1)\n 53300: t0 = 2384, jump @2341\n      : @1953 [@dyn 1192] (gas: 1)\n 53306: jump @1964 if a0 != 0\n      : @1954 (gas: 8)\n 53310: u64 [sp + 408] = 0\n 53314: u64 [sp + 400] = 0\n 53318: u64 [sp + 392] = 0\n 53322: a1 = sp + 0x180\n 53326: u64 [sp + 384] = 0x20\n 53331: s1 = u64 [sp + 0x58]\n 53334: a0 = s1\n 53336: ra = 2386, jump @24\n      : @1955 [@dyn 1193] (gas: 1)\n 53343: t0 = 2388, jump @2312\n      : @1956 [@dyn 1194] (gas: 1)\n 53349: jump @1964 if a1 == 0\n      : @1957 (gas: 7)\n 53352: a0 = i32 [0x2014c]\n 53357: u64 [sp] = a0\n 53359: s1 = u64 [sp + 0x58]\n 53362: i32 a0 = s1 + 0x20\n 53365: u64 [sp + 0x8] = a0\n 53368: a1 = 0x20\n 53371: ra = 2390, jump @37\n      : @1958 [@dyn 1195] (gas: 12)\n 53378: i32 a0 = a0 + 0\n 53380: a1 = 0x20\n 53383: a2 = u64 [sp]\n 53385: ecalli 3 // 'call_data_copy'\n 53387: u64 [sp + 376] = 0\n 53391: u64 [sp + 368] = 0\n 53395: u64 [sp + 360] = 0\n 53399: a1 = sp + 0x160\n 53403: a0 = u64 [sp + 0x10]\n 53406: u64 [sp + 0x160] = a0\n 53410: a0 = s1\n 53412: ra = 2392, jump @24\n      : @1959 [@dyn 1196] (gas: 1)\n 53419: t0 = 2394, jump @2369\n      : @1960 [@dyn 1197] (gas: 1)\n 53425: ra = 2396, jump @24\n      : @1961 [@dyn 1198] (gas: 3)\n 53432: s1 = u64 [sp + 0x50]\n 53435: t0 = 0x95e\n 53439: jump @2277\n      : @1962 (gas: 1)\n 53442: t0 = 2398, jump @2277\n      : @1963 [@dyn 1199] (gas: 1)\n 53448: ret\n      : @1964 (gas: 1)\n 53450: trap\n      : @1965 (gas: 1)\n 53451: t0 = 2400, jump @2346\n      : @1966 [@dyn 1200] (gas: 1)\n 53457: ra = 2402, jump @24\n      : @1967 [@dyn 1201] (gas: 2)\n 53464: a1 = i32 [0x20150]\n 53469: jump @1969 if s1 <u a1\n      : @1968 (gas: 2)\n 53472: u32 [0x20150] = 0x20\n 53478: fallthrough\n      : @1969 (gas: 7)\n 53479: a1 = 0x20160\n 53484: i32 a1 = a1 + 0\n 53486: a0 = 0x1\n 53489: a2 = 0x4\n 53492: ra = 0x964\n 53496: ecalli 16 // 'seal_return'\n 53498: fallthrough\n      : @1970 [@dyn 1202] (gas: 9)\n 53499: sp = sp + 0xfffffffffffffe00\n 53503: u64 [sp + 0x1f8] = ra\n 53507: u64 [sp + 0x1f0] = s0\n 53511: u64 [sp + 0x1e8] = s1\n 53515: s0 = sp + 0x200\n 53519: sp = sp & 0xffffffffffffffe0\n 53522: s1 = sp\n 53524: u64 [s1 + 0x28] = a0\n 53527: ra = 2406, jump @15\n      : @1971 [@dyn 1203] (gas: 17)\n 53534: a0 = 0x30180\n 53539: a1 = u64 [0x301c8]\n 53544: u64 [s1 + 0x58] = a1\n 53547: a1 = u64 [0x301c0]\n 53552: u64 [s1 + 0x50] = a1\n 53555: u64 [s1 + 0x38] = a0\n 53558: a0 = u32 [0x301d0]\n 53563: u64 [s1 + 0x48] = a0\n 53566: a0 = 0x30160\n 53571: u64 [s1 + 0x30] = a0\n 53574: i32 a0 = a0 + 0\n 53576: u64 [s1 + 0x20] = a0\n 53579: ra = 0x968\n 53583: ecalli 0 // 'address'\n 53584: a2 = u64 [s1 + 0x30]\n 53587: t0 = 0x96a\n 53591: jump @2338\n      : @1972 [@dyn 1204] (gas: 2)\n 53594: a2 = u64 [s1 + 0x30]\n 53597: t0 = 2410, jump @2338\n      : @1973 [@dyn 1205] (gas: 15)\n 53603: a3 = a3 | a4\n 53606: a0 = a0 << 0x20\n 53609: a2 = reverse a2\n 53611: a2 = a2 >> 0x20\n 53614: a0 = a0 | a2\n 53617: a1 = a1 >> 0x20\n 53620: a2 = u64 [s1 + 0x48]\n 53623: a1 = a1 ^ a2\n 53626: a2 = u64 [s1 + 0x50]\n 53629: a0 = a0 ^ a2\n 53632: a0 = a0 | a1\n 53635: a1 = u64 [s1 + 0x58]\n 53638: a1 = a1 ^ a3\n 53641: a0 = a0 | a1\n 53644: jump @1979 if a0 != 0\n      : @1974 (gas: 1)\n 53647: ra = 2412, jump @15\n      : @1975 [@dyn 1206] (gas: 12)\n 53654: a0 = u64 [s1 + 0x38]\n 53657: a1 = u64 [a0 + 0x20]\n 53660: u64 [s1 + 0x58] = a1\n 53663: a1 = u64 [a0 + 0x30]\n 53666: u64 [s1 + 0x50] = a1\n 53669: a1 = u64 [a0 + 0x28]\n 53672: u64 [s1 + 0x48] = a1\n 53675: a0 = u64 [a0 + 0x38]\n 53678: u64 [s1 + 0x40] = a0\n 53681: i32 a0 = s1 + 0x1a0\n 53685: ecalli 7 // 'chain_id'\n 53687: fallthrough\n      : @1976 (gas: 17)\n 53688: a4 = s1 + 0x100\n 53692: a0 = u64 [a4 + 0xb8]\n 53696: a1 = u64 [a4 + 0xa8]\n 53700: a2 = u64 [a4 + 0xa0]\n 53704: a3 = u64 [a4 + 0xb0]\n 53708: a4 = u64 [s1 + 0x40]\n 53711: a0 = a0 ^ a4\n 53714: a4 = u64 [s1 + 0x48]\n 53717: a1 = a1 ^ a4\n 53720: a0 = a0 | a1\n 53723: a1 = u64 [s1 + 0x50]\n 53726: a1 = a1 ^ a3\n 53729: a3 = u64 [s1 + 0x58]\n 53732: a2 = a2 ^ a3\n 53735: a1 = a1 | a2\n 53738: a0 = a0 | a1\n 53741: jump @1979 if a0 != 0\n      : @1977 (gas: 1)\n 53744: ra = 2414, jump @15\n      : @1978 [@dyn 1207] (gas: 6)\n 53751: a3 = u64 [s1 + 0x38]\n 53754: a0 = u64 [a3 + 0x18]\n 53757: a1 = u64 [a3 + 0x10]\n 53760: a2 = u64 [a3 + 0x8]\n 53763: a3 = u64 [a3]\n 53765: jump @2007\n      : @1979 (gas: 3)\n 53768: a0 = s1 + 0x180\n 53772: a1 = 0x40\n 53775: ra = 2416, jump @22\n      : @1980 [@dyn 1208] (gas: 25)\n 53782: a1 = s1 + 0x100\n 53786: a0 = u64 [a1 + 0x80]\n 53790: a3 = u64 [a1 + 0x98]\n 53794: a2 = u64 [a1 + 0x88]\n 53798: a5 = u64 [a1 + 0x90]\n 53802: a4 = a0 + 0x20\n 53805: u64 [s1 + 0x58] = a0\n 53808: a0 = a4 <u a0\n 53811: a1 = a2 + a0\n 53814: u64 [s1 + 0x50] = a2\n 53817: a2 = a1 <u a2\n 53820: a2 = a0 if a0 == 0\n 53823: a2 = a2 + a5\n 53826: u64 [s1 + 0x40] = a5\n 53829: a0 = a2 <u a5\n 53832: u64 [s1 + 0x48] = a3\n 53835: a0 = a0 + a3\n 53838: a3 = a4 | a2\n 53841: a0 = a0 | a1\n 53844: a3 = a3 | a0\n 53847: a3 = a3 >> 0x20\n 53850: a0 = a0 | a2\n 53853: a0 = a0 << 0x20\n 53856: a0 = a0 | a3\n 53859: jump @2008 if a0 != 0\n      : @1981 (gas: 13)\n 53863: a0 = u64 [0x20118]\n 53868: a3 = s1 + 0x100\n 53872: u64 [a3 + 0x78] = a0\n 53875: a0 = u64 [0x20120]\n 53880: a1 = u64 [0x20128]\n 53885: a2 = u64 [0x20130]\n 53890: u64 [a3 + 0x70] = a0\n 53893: u64 [a3 + 0x68] = a1\n 53896: a1 = s1 + 0x160\n 53900: u64 [a3 + 0x60] = a2\n 53903: u64 [s1 + 0x18] = a4\n 53906: a0 = a4\n 53908: ra = 2418, jump @24\n      : @1982 [@dyn 1209] (gas: 1)\n 53915: ra = 2420, jump @15\n      : @1983 [@dyn 1210] (gas: 3)\n 53922: a1 = u64 [s1 + 0x58]\n 53925: a0 = a1 + 0x40\n 53928: t0 = 2422, jump @2209\n      : @1984 [@dyn 1211] (gas: 1)\n 53934: jump @2008 if a1 != 0\n      : @1985 (gas: 12)\n 53938: a4 = u64 [s1 + 0x38]\n 53941: a2 = u64 [a4 + 0x60]\n 53944: a1 = u64 [a4 + 0x68]\n 53947: a3 = u64 [a4 + 0x70]\n 53950: a4 = u64 [a4 + 0x78]\n 53953: a5 = s1 + 0x100\n 53957: u64 [a5 + 0x58] = a4\n 53960: u64 [a5 + 0x50] = a3\n 53963: u64 [a5 + 0x48] = a1\n 53966: a1 = s1 + 0x140\n 53970: u64 [a5 + 0x40] = a2\n 53973: ra = 2424, jump @24\n      : @1986 [@dyn 1212] (gas: 1)\n 53980: ra = 2426, jump @15\n      : @1987 [@dyn 1213] (gas: 3)\n 53987: a1 = u64 [s1 + 0x58]\n 53990: a0 = a1 + 0x60\n 53993: t0 = 2428, jump @2209\n      : @1988 [@dyn 1214] (gas: 1)\n 53999: jump @2008 if a1 != 0\n      : @1989 (gas: 12)\n 54003: a4 = u64 [s1 + 0x38]\n 54006: a2 = u64 [a4 + 0x80]\n 54010: a1 = u64 [a4 + 0x88]\n 54014: a3 = u64 [a4 + 0x90]\n 54018: a4 = u64 [a4 + 0x98]\n 54022: a5 = s1 + 0x100\n 54026: u64 [a5 + 0x38] = a4\n 54029: u64 [a5 + 0x30] = a3\n 54032: u64 [a5 + 0x28] = a1\n 54035: a1 = s1 + 0x120\n 54039: u64 [a5 + 0x20] = a2\n 54042: ra = 2430, jump @24\n      : @1990 [@dyn 1215] (gas: 4)\n 54049: i32 a0 = s1 + 0x1c0\n 54053: ra = 0x980\n 54057: ecalli 7 // 'chain_id'\n 54059: fallthrough\n      : @1991 [@dyn 1216] (gas: 3)\n 54060: a1 = u64 [s1 + 0x58]\n 54063: a0 = a1 + 0x80\n 54067: t0 = 2434, jump @2209\n      : @1992 [@dyn 1217] (gas: 1)\n 54073: jump @2008 if a1 != 0\n      : @1993 (gas: 11)\n 54077: a5 = s1 + 0x100\n 54081: a2 = u64 [a5 + 0xc0]\n 54085: a1 = u64 [a5 + 0xc8]\n 54089: a3 = u64 [a5 + 0xd0]\n 54093: a4 = u64 [a5 + 0xd8]\n 54097: u64 [a5 + 0x18] = a4\n 54100: u64 [a5 + 0x10] = a3\n 54103: u64 [a5 + 0x8] = a1\n 54106: a1 = s1 + 0x100\n 54110: u64 [a5] = a2\n 54112: ra = 2436, jump @24\n      : @1994 [@dyn 1218] (gas: 4)\n 54119: a0 = u64 [s1 + 0x20]\n 54122: ra = 0x986\n 54126: ecalli 0 // 'address'\n 54127: fallthrough\n      : @1995 [@dyn 1219] (gas: 3)\n 54128: a1 = u64 [s1 + 0x58]\n 54131: a0 = a1 + 0xa0\n 54135: t0 = 2440, jump @2209\n      : @1996 [@dyn 1220] (gas: 1)\n 54141: jump @2008 if a1 != 0\n      : @1997 (gas: 2)\n 54145: a3 = u64 [s1 + 0x30]\n 54148: t0 = 2442, jump @2273\n      : @1998 [@dyn 1221] (gas: 6)\n 54154: u64 [s1 + 248] = 0\n 54158: u64 [s1 + 0xf0] = a3\n 54162: u64 [s1 + 0xe8] = a1\n 54166: a1 = s1 + 0xe0\n 54170: u64 [s1 + 0xe0] = a2\n 54174: ra = 2444, jump @24\n      : @1999 [@dyn 1222] (gas: 12)\n 54181: a0 = u64 [s1 + 0x58]\n 54184: a3 = u64 [s1 + 0x40]\n 54187: a0 = a0 | a3\n 54190: a1 = u64 [s1 + 0x50]\n 54193: a2 = u64 [s1 + 0x48]\n 54196: a1 = a1 | a2\n 54199: a0 = a0 | a1\n 54202: a0 = a0 >> 0x20\n 54205: a1 = a1 | a3\n 54208: a1 = a1 << 0x20\n 54211: a0 = a0 | a1\n 54214: jump @2008 if a0 != 0\n      : @2000 (gas: 7)\n 54218: u64 [s1 + 216] = 0\n 54222: u64 [s1 + 208] = 0\n 54226: u64 [s1 + 200] = 0\n 54230: a1 = s1 + 0xc0\n 54234: u64 [s1 + 192] = 0xa0\n 54240: a0 = u64 [s1 + 0x58]\n 54243: ra = 2446, jump @24\n      : @2001 [@dyn 1223] (gas: 15)\n 54250: u64 [s1 + 152] = 0\n 54254: u64 [s1 + 144] = 0\n 54258: u64 [s1 + 136] = 0\n 54262: u64 [s1 + 128] = 0xc0\n 54268: a0 = u64 [s1 + 0x48]\n 54271: u64 [s1 + 0xb8] = a0\n 54275: a0 = u64 [s1 + 0x40]\n 54278: u64 [s1 + 0xb0] = a0\n 54282: a0 = u64 [s1 + 0x50]\n 54285: u64 [s1 + 0xa8] = a0\n 54289: a0 = s1 + 0xa0\n 54293: a1 = s1 + 0x80\n 54297: a2 = u64 [s1 + 0x58]\n 54300: u64 [s1 + 0xa0] = a2\n 54304: ra = 2448, jump @149\n      : @2002 [@dyn 1224] (gas: 3)\n 54311: a0 = s1 + 0x60\n 54314: a1 = u64 [s1 + 0x58]\n 54317: ra = 2450, jump @22\n      : @2003 [@dyn 1225] (gas: 5)\n 54324: a0 = u64 [s1 + 0x78]\n 54327: a3 = u64 [s1 + 0x70]\n 54330: a2 = u64 [s1 + 0x68]\n 54333: a1 = u64 [s1 + 0x60]\n 54336: t0 = 2452, jump @2333\n      : @2004 [@dyn 1226] (gas: 1)\n 54342: jump @2008 if a0 != 0\n      : @2005 (gas: 3)\n 54345: a0 = u64 [s1 + 0x18]\n 54348: u64 [s1 + 0x58] = a1\n 54351: ra = 2454, jump @37\n      : @2006 [@dyn 1227] (gas: 18)\n 54358: a1 = sp + 0xffffffffffffffe0\n 54361: a2 = a1 & 0xffffffffffffffe0\n 54364: u64 [s1 + 0x50] = a2\n 54367: sp = a2\n 54369: i32 a0 = a0 + 0\n 54371: a1 = i32 [s1 + 0x58]\n 54374: i32 a2 = a2 + 0\n 54376: ecalli 11 // 'hash_keccak_256'\n 54378: a3 = u64 [s1 + 0x50]\n 54381: a0 = u64 [a3]\n 54383: a1 = u64 [a3 + 0x8]\n 54386: a2 = u64 [a3 + 0x10]\n 54389: a3 = u64 [a3 + 0x18]\n 54392: a0 = reverse a0\n 54394: a1 = reverse a1\n 54396: a2 = reverse a2\n 54398: a3 = reverse a3\n 54400: fallthrough\n      : @2007 (gas: 11)\n 54401: a4 = u64 [s1 + 0x28]\n 54404: u64 [a4] = a3\n 54406: u64 [a4 + 0x8] = a2\n 54409: u64 [a4 + 0x10] = a1\n 54412: u64 [a4 + 0x18] = a0\n 54415: sp = s0 + 0xfffffffffffffe00\n 54419: ra = u64 [sp + 0x1f8]\n 54423: s0 = u64 [sp + 0x1f0]\n 54427: s1 = u64 [sp + 0x1e8]\n 54431: sp = sp + 0x200\n 54435: ret\n      : @2008 (gas: 1)\n 54437: trap\n      : @2009 (gas: 26)\n 54438: sp = sp + 0xfffffffffffffde0\n 54442: a5 = sp + 0x200\n 54446: u64 [a5 + 0x18] = ra\n 54449: u64 [a5 + 0x10] = s0\n 54452: u64 [a5 + 0x8] = s1\n 54455: s0 = sp + 0x220\n 54459: sp = sp & 0xffffffffffffffe0\n 54462: t1 = u64 [a4 + 0x10]\n 54465: t0 = u64 [a4]\n 54467: ra = u64 [a4 + 0x8]\n 54470: a5 = u64 [0x20138]\n 54475: s1 = u64 [0x20140]\n 54480: t2 = u64 [a4 + 0x18]\n 54483: a4 = ra ^ a5\n 54486: a5 = ra <u a5\n 54489: u64 [sp + 0x90] = t0\n 54493: s1 = t0 <u s1\n 54496: s1 = a5 if a4 != 0\n 54499: a4 = 0x7fffffffffffffff\n 54509: a5 = t2 ^ a4\n 54512: t0 = t2 <u a4\n 54515: a4 = t1 <u 0xffffffffffffffff\n 54518: a4 = t0 if a5 != 0\n 54521: a5 = a5 | ~t1\n 54524: a4 = s1 if a5 == 0\n 54527: jump @2011 if a4 != 0\n      : @2010 (gas: 7)\n 54530: s1 = 0\n 54532: a1 = 0\n 54534: t0 = 0\n 54536: a2 = 0\n 54538: a5 = 0x3\n 54541: a3 = u64 [sp + 0x90]\n 54545: jump @2028\n      : @2011 (gas: 25)\n 54548: u64 [sp + 0x20] = ra\n 54551: u64 [sp + 0x28] = t2\n 54554: u64 [sp + 0x30] = t1\n 54557: u64 [sp + 0x18] = a0\n 54560: a0 = u64 [a3 + 0x18]\n 54563: u64 [sp + 0x50] = a0\n 54566: a0 = u64 [a3 + 0x10]\n 54569: u64 [sp + 0x48] = a0\n 54572: a0 = u64 [a3 + 0x8]\n 54575: u64 [sp + 0x40] = a0\n 54578: a0 = u64 [a3]\n 54580: u64 [sp + 0x38] = a0\n 54583: a0 = u64 [a2]\n 54585: u64 [sp + 0x58] = a0\n 54588: a0 = u64 [a1 + 0x18]\n 54591: u64 [sp + 0x80] = a0\n 54595: a0 = u64 [a1 + 0x10]\n 54598: u64 [sp + 0x78] = a0\n 54601: a0 = u64 [a1 + 0x8]\n 54604: u64 [sp + 0x68] = a0\n 54607: a0 = u64 [a1]\n 54609: u64 [sp + 0x60] = a0\n 54612: a0 = sp + 0x180\n 54616: a1 = 0x40\n 54619: ra = 2456, jump @22\n      : @2012 [@dyn 1228] (gas: 15)\n 54626: a2 = u64 [sp + 0x198]\n 54630: s1 = u64 [sp + 0x190]\n 54634: a0 = u64 [sp + 0x188]\n 54638: a1 = u64 [sp + 0x180]\n 54642: u64 [sp + 0x88] = a0\n 54646: u64 [sp + 0x70] = a2\n 54649: a0 = a0 | a2\n 54652: u64 [sp + 0x98] = a1\n 54656: a1 = a1 | s1\n 54659: a1 = a1 | a0\n 54662: a1 = a1 >> 0x20\n 54665: a0 = a0 | s1\n 54668: a0 = a0 << 0x20\n 54671: a0 = a0 | a1\n 54674: jump @2038 if a0 != 0\n      : @2013 (gas: 11)\n 54678: a0 = u64 [sp + 0x60]\n 54681: u64 [sp + 0x160] = a0\n 54685: a0 = u64 [sp + 0x68]\n 54688: u64 [sp + 0x168] = a0\n 54692: a0 = u64 [sp + 0x78]\n 54695: u64 [sp + 0x170] = a0\n 54699: a1 = sp + 0x160\n 54703: a0 = u64 [sp + 0x80]\n 54707: u64 [sp + 0x178] = a0\n 54711: a0 = u64 [sp + 0x98]\n 54715: ra = 2458, jump @24\n      : @2014 [@dyn 1229] (gas: 12)\n 54722: a2 = u64 [sp + 0x70]\n 54725: a2 = a2 | s1\n 54728: a0 = 0x100000000\n 54738: u64 [sp + 0x78] = a0\n 54741: a0 = 0xffffffe0\n 54751: a1 = u64 [sp + 0x98]\n 54755: a0 = a1 <u a0\n 54758: a1 = u64 [sp + 0x88]\n 54762: a0 = 0 if a1 != 0\n 54764: u64 [sp + 0x80] = a2\n 54768: a0 = 0 if a2 != 0\n 54770: jump @2038 if a0 == 0\n      : @2015 (gas: 9)\n 54774: a1 = u8 [sp + 0x58]\n 54777: s1 = u64 [sp + 0x98]\n 54781: i32 a0 = s1 + 0x20\n 54784: u64 [sp + 344] = 0\n 54788: u64 [sp + 336] = 0\n 54792: u64 [sp + 0x140] = a1\n 54796: a1 = sp + 0x140\n 54800: u64 [sp + 328] = 0\n 54804: ra = 2460, jump @24\n      : @2016 [@dyn 1230] (gas: 8)\n 54811: a0 = u64 [sp + 0x78]\n 54814: a0 = a0 + 0xffffffffffffffc0\n 54817: a0 = s1 <u a0\n 54820: a1 = u64 [sp + 0x88]\n 54824: a0 = 0 if a1 != 0\n 54826: a1 = u64 [sp + 0x80]\n 54830: a0 = 0 if a1 != 0\n 54832: jump @2038 if a0 == 0\n      : @2017 (gas: 12)\n 54836: s1 = u64 [sp + 0x98]\n 54840: i32 a0 = s1 + 0x40\n 54843: a1 = u64 [sp + 0x38]\n 54846: u64 [sp + 0x120] = a1\n 54850: a1 = u64 [sp + 0x40]\n 54853: u64 [sp + 0x128] = a1\n 54857: a1 = u64 [sp + 0x48]\n 54860: u64 [sp + 0x130] = a1\n 54864: a1 = sp + 0x120\n 54868: a2 = u64 [sp + 0x50]\n 54871: u64 [sp + 0x138] = a2\n 54875: ra = 2462, jump @24\n      : @2018 [@dyn 1231] (gas: 8)\n 54882: a0 = 0xffffffa0\n 54892: a0 = s1 <u a0\n 54895: a1 = u64 [sp + 0x88]\n 54899: a0 = 0 if a1 != 0\n 54901: a1 = u64 [sp + 0x80]\n 54905: a0 = 0 if a1 != 0\n 54907: a1 = u64 [sp + 0x90]\n 54911: jump @2038 if a0 == 0\n      : @2019 (gas: 11)\n 54915: a0 = u64 [sp + 0x98]\n 54919: i32 a0 = a0 + 0x60\n 54922: u64 [sp + 0x100] = a1\n 54926: a1 = u64 [sp + 0x20]\n 54929: u64 [sp + 0x108] = a1\n 54933: a1 = u64 [sp + 0x30]\n 54936: u64 [sp + 0x110] = a1\n 54940: a1 = sp + 0x100\n 54944: a2 = u64 [sp + 0x28]\n 54947: u64 [sp + 0x118] = a2\n 54951: ra = 2464, jump @24\n      : @2020 [@dyn 1232] (gas: 7)\n 54958: u64 [sp + 248] = 0\n 54962: u64 [sp + 240] = 0\n 54966: u64 [sp + 232] = 0\n 54970: a1 = sp + 0xe0\n 54974: u64 [sp + 224] = 0\n 54978: a0 = 0\n 54980: ra = 2466, jump @24\n      : @2021 [@dyn 1233] (gas: 12)\n 54987: ecalli 13 // 'ref_time_left'\n 54989: s1 = 0x30160\n 54994: u64 [0x30168] = 0\n 54999: u64 [0x30160] = 0\n 55004: u32 [0x30170] = 0x1000000\n 55013: u64 [sp + 440] = 0\n 55017: u64 [sp + 432] = 0\n 55021: u64 [sp + 424] = 0\n 55025: u64 [sp + 416] = 0\n 55029: a1 = 0x80\n 55033: a0 = u64 [sp + 0x98]\n 55037: ra = 2468, jump @37\n      : @2022 [@dyn 1234] (gas: 3)\n 55044: a3 = i32 [0x20150]\n 55049: a1 = a0\n 55051: jump @2024 if a3 >u 31\n      : @2023 (gas: 2)\n 55055: u32 [0x20150] = 0x20\n 55061: fallthrough\n      : @2024 (gas: 29)\n 55062: u32 [sp + 448] = 0x20\n 55067: u64 [sp + 504] = 0\n 55071: u64 [sp + 496] = 0\n 55075: u64 [sp + 488] = 0\n 55079: u64 [sp + 480] = 0\n 55083: s1 = s1 << 0x20\n 55086: s1 = s1 >> 0x20\n 55089: a0 = 0x1800000000\n 55099: a0 = a0 | s1\n 55102: a2 = sp + 0x1a0\n 55106: a2 = a2 << 0x20\n 55109: a2 = a2 >> 0x20\n 55112: a3 = sp + 0x1e0\n 55116: a3 = a3 << 0x20\n 55119: a3 = a3 | a2\n 55122: a1 = a1 << 0x20\n 55125: a1 = a1 >> 0x20\n 55128: a2 = 0x20160\n 55133: a4 = 0x8000000000\n 55143: a4 = a4 | a1\n 55146: a2 = a2 << 0x20\n 55149: a2 = a2 >> 0x20\n 55152: a1 = sp + 0x1c0\n 55156: a1 = a1 << 0x20\n 55159: a5 = a1 | a2\n 55162: a1 = 0xffffffffffffffff\n 55165: a2 = 0xffffffffffffffff\n 55168: ecalli 2 // 'call'\n 55170: fallthrough\n      : @2025 (gas: 1)\n 55171: jump @2029 if a0 != 0\n      : @2026 (gas: 3)\n 55175: a0 = sp + 0xa0\n 55179: a1 = 0\n 55181: ra = 2470, jump @22\n      : @2027 [@dyn 1235] (gas: 20)\n 55188: a2 = 0\n 55190: ra = 0\n 55192: t1 = 0\n 55194: t2 = 0\n 55196: a1 = u64 [sp + 0xb0]\n 55200: s1 = u64 [sp + 0xa8]\n 55204: a4 = u64 [sp + 0xa0]\n 55208: t0 = u64 [sp + 0xb8]\n 55212: a5 = a1 << 0x20\n 55215: a5 = a5 >> 0x20\n 55218: a3 = a4 | s1\n 55221: a3 = a3 | a5\n 55224: t0 = 0 if a3 == 0\n 55226: a1 = 0 if a3 == 0\n 55228: s1 = 0 if a3 == 0\n 55230: a4 = 0 if a3 == 0\n 55232: a5 = a3 <u 0x1\n 55235: a3 = 0\n 55237: a0 = u64 [sp + 0x18]\n 55240: fallthrough\n      : @2028 (gas: 19)\n 55241: u64 [a0 + 0x40] = a3\n 55244: u64 [a0 + 0x20] = a5\n 55247: u64 [a0] = a4\n 55249: u64 [a0 + 0x48] = ra\n 55252: u64 [a0 + 40] = 0\n 55255: u64 [a0 + 0x8] = s1\n 55258: u64 [a0 + 0x50] = t1\n 55261: u64 [a0 + 48] = 0\n 55264: u64 [a0 + 0x10] = a1\n 55267: u64 [a0 + 0x58] = t2\n 55270: u64 [a0 + 56] = 0\n 55273: u64 [a0 + 0x18] = t0\n 55276: sp = s0 + 0xfffffffffffffde0\n 55280: a0 = sp + 0x200\n 55284: ra = u64 [a0 + 0x18]\n 55287: s0 = u64 [a0 + 0x10]\n 55290: s1 = u64 [a0 + 0x8]\n 55293: sp = sp + 0x220\n 55297: ret\n      : @2029 (gas: 3)\n 55299: a0 = sp + 0xc0\n 55303: a1 = 0x40\n 55306: ra = 2472, jump @22\n      : @2030 [@dyn 1236] (gas: 9)\n 55313: a0 = u64 [sp + 0xd8]\n 55317: u64 [sp + 0x98] = a0\n 55321: a0 = u64 [sp + 0xd0]\n 55325: u64 [sp + 0x90] = a0\n 55329: a0 = u64 [sp + 0xc8]\n 55333: u64 [sp + 0x88] = a0\n 55337: s1 = u64 [sp + 0xc0]\n 55341: ecalli 15 // 'return_data_size'\n 55343: fallthrough\n      : @2031 (gas: 12)\n 55344: a1 = u64 [sp + 0x98]\n 55348: a2 = u64 [sp + 0x88]\n 55352: a1 = a1 | a2\n 55355: u64 [sp + 0x98] = s1\n 55359: a3 = u64 [sp + 0x90]\n 55363: a2 = s1 | a3\n 55366: a2 = a2 | a1\n 55369: a2 = a2 >> 0x20\n 55372: a1 = a1 | a3\n 55375: a1 = a1 << 0x20\n 55378: a1 = a1 | a2\n 55381: jump @2038 if a1 != 0\n      : @2032 (gas: 3)\n 55384: s1 = a0\n 55386: a0 = a0 >> 0x20\n 55389: jump @2038 if a0 != 0\n      : @2033 (gas: 5)\n 55392: i32 a0 = s1 + 0\n 55394: u64 [sp + 0x90] = a0\n 55398: a0 = u64 [sp + 0x98]\n 55402: a1 = s1\n 55404: ra = 2474, jump @37\n      : @2034 [@dyn 1237] (gas: 6)\n 55411: u32 [sp + 0x200] = s1\n 55415: i32 a0 = a0 + 0\n 55417: i32 a1 = sp + 0x200\n 55421: a2 = 0\n 55423: ecalli 14 // 'return_data_copy'\n 55425: fallthrough\n      : @2035 (gas: 3)\n 55426: a0 = i32 [sp + 0x200]\n 55430: a1 = u64 [sp + 0x90]\n 55434: jump @2038 if a0 <u a1\n      : @2036 (gas: 2)\n 55437: ecalli 15 // 'return_data_size'\n 55439: fallthrough\n      : @2037 (gas: 3)\n 55440: s1 = a0\n 55442: a0 = a0 >> 0x20\n 55445: jump @2039 if a0 == 0\n      : @2038 (gas: 1)\n 55448: trap\n      : @2039 (gas: 3)\n 55449: a0 = u64 [sp + 0x98]\n 55453: a1 = s1\n 55455: ra = 2476, jump @37\n      : @2040 [@dyn 1238] (gas: 6)\n 55462: i32 a1 = a0 + 0\n 55464: i32 a2 = s1 + 0\n 55466: a0 = 0x1\n 55469: ra = 0x9ae\n 55473: ecalli 16 // 'seal_return'\n 55475: fallthrough\n      : @2041 [@dyn 1239] (gas: 14)\n 55476: a1 = u64 [a0 + 0x18]\n 55479: a2 = u64 [a0 + 0x10]\n 55482: a3 = u64 [a0]\n 55484: a0 = u64 [a0 + 0x8]\n 55487: a4 = a1 >u 0\n 55489: a5 = a2 >u 0\n 55491: a5 = a4 if a1 != 0\n 55494: a4 = a0 >u 0\n 55496: a3 = a3 <u 0x4\n 55499: a3 = a3 ^ 0x1\n 55502: a3 = a4 if a0 != 0\n 55505: a1 = a1 | a2\n 55508: a3 = a5 if a1 != 0\n 55511: jump @2043 if a3 != 0\n      : @2042 (gas: 1)\n 55514: ret\n      : @2043 (gas: 1)\n 55516: t0 = 2480, jump @2232\n      : @2044 [@dyn 1240] (gas: 1)\n 55522: ra = 2482, jump @24\n      : @2045 [@dyn 1241] (gas: 7)\n 55529: u64 [sp + 24] = 0\n 55532: u64 [sp + 16] = 0\n 55535: u64 [sp + 0] = 0x21\n 55538: a0 = 0x4\n 55541: a1 = sp\n 55543: u64 [sp + 8] = 0\n 55546: ra = 2484, jump @24\n      : @2046 [@dyn 1242] (gas: 2)\n 55553: a1 = i32 [0x20150]\n 55558: jump @2048 if a1 >u 63\n      : @2047 (gas: 2)\n 55562: u32 [0x20150] = 0x40\n 55568: fallthrough\n      : @2048 (gas: 7)\n 55569: a1 = 0x20160\n 55574: i32 a1 = a1 + 0\n 55576: a0 = 0x1\n 55579: a2 = 0x24\n 55582: ra = 0x9b6\n 55586: ecalli 16 // 'seal_return'\n 55588: fallthrough\n      : @2049 [@dyn 1243] (gas: 27)\n 55589: sp = sp + 0xfffffffffffffe70\n 55593: u64 [sp + 0x188] = ra\n 55597: u64 [sp + 0x180] = s0\n 55601: u64 [sp + 0x178] = s1\n 55605: s0 = sp + 0x190\n 55609: sp = sp & 0xfffffffffffffff0\n 55612: a2 = u64 [a1 + 0x18]\n 55615: u64 [sp + 0x8] = a2\n 55618: a2 = u64 [a1 + 0x10]\n 55621: u64 [sp + 0x10] = a2\n 55624: a2 = u64 [a1 + 0x8]\n 55627: u64 [sp + 0x18] = a2\n 55630: a1 = u64 [a1]\n 55632: u64 [sp + 0x20] = a1\n 55635: a1 = u64 [a0]\n 55637: u64 [sp + 0x48] = a1\n 55640: a3 = u64 [a0 + 0x8]\n 55643: u64 [sp + 0x38] = a3\n 55646: a2 = u64 [a0 + 0x10]\n 55649: u64 [sp + 0x40] = a2\n 55652: s1 = u64 [a0 + 0x18]\n 55655: u64 [sp + 0x168] = s1\n 55659: u64 [sp + 0x160] = a2\n 55663: u64 [sp + 0x158] = a3\n 55667: a0 = sp + 0x150\n 55671: u64 [sp + 0x150] = a1\n 55675: ra = 2488, jump @2041\n      : @2050 [@dyn 1244] (gas: 9)\n 55681: u64 [sp + 0x30] = s1\n 55684: a1 = u64 [sp + 0x38]\n 55687: a1 = a1 | s1\n 55690: a2 = u64 [sp + 0x40]\n 55693: a0 = u64 [sp + 0x48]\n 55696: a0 = a0 | a2\n 55699: u64 [sp + 0x28] = a1\n 55702: a0 = a0 | a1\n 55705: jump @2057 if a0 == 0\n      : @2051 (gas: 10)\n 55709: a0 = u64 [sp + 0x48]\n 55712: u64 [sp + 0x130] = a0\n 55716: a0 = u64 [sp + 0x38]\n 55719: u64 [sp + 0x138] = a0\n 55723: s1 = u64 [sp + 0x40]\n 55726: u64 [sp + 0x140] = s1\n 55730: a0 = sp + 0x130\n 55734: a1 = u64 [sp + 0x30]\n 55737: u64 [sp + 0x148] = a1\n 55741: ra = 2490, jump @2041\n      : @2052 [@dyn 1245] (gas: 6)\n 55747: a0 = u64 [sp + 0x48]\n 55750: a0 = a0 ^ 0x1\n 55753: a0 = a0 | s1\n 55756: a1 = u64 [sp + 0x28]\n 55759: a0 = a0 | a1\n 55762: jump @2058 if a0 == 0\n      : @2053 (gas: 10)\n 55766: a0 = u64 [sp + 0x48]\n 55769: u64 [sp + 0x110] = a0\n 55773: a0 = u64 [sp + 0x38]\n 55776: u64 [sp + 0x118] = a0\n 55780: s1 = u64 [sp + 0x40]\n 55783: u64 [sp + 0x120] = s1\n 55787: a0 = sp + 0x110\n 55791: a1 = u64 [sp + 0x30]\n 55794: u64 [sp + 0x128] = a1\n 55798: ra = 2492, jump @2041\n      : @2054 [@dyn 1246] (gas: 6)\n 55804: a0 = u64 [sp + 0x48]\n 55807: a0 = a0 ^ 0x2\n 55810: a0 = a0 | s1\n 55813: a1 = u64 [sp + 0x28]\n 55816: a0 = a0 | a1\n 55819: jump @2062 if a0 == 0\n      : @2055 (gas: 10)\n 55823: a0 = u64 [sp + 0x48]\n 55826: u64 [sp + 0xf0] = a0\n 55830: a0 = u64 [sp + 0x38]\n 55833: u64 [sp + 0xf8] = a0\n 55837: s1 = u64 [sp + 0x40]\n 55840: u64 [sp + 0x100] = s1\n 55844: a0 = sp + 0xf0\n 55848: a1 = u64 [sp + 0x30]\n 55851: u64 [sp + 0x108] = a1\n 55855: ra = 2494, jump @2041\n      : @2056 [@dyn 1247] (gas: 6)\n 55861: a0 = u64 [sp + 0x48]\n 55864: a0 = a0 ^ 0x3\n 55867: a0 = a0 | s1\n 55870: a1 = u64 [sp + 0x28]\n 55873: a0 = a0 | a1\n 55876: jump @2067 if a0 == 0\n      : @2057 (gas: 6)\n 55880: sp = s0 + 0xfffffffffffffe70\n 55884: ra = u64 [sp + 0x188]\n 55888: s0 = u64 [sp + 0x180]\n 55892: s1 = u64 [sp + 0x178]\n 55896: sp = sp + 0x190\n 55900: ret\n      : @2058 (gas: 8)\n 55902: u64 [sp + 96] = 0\n 55905: u64 [sp + 88] = 0\n 55908: u64 [sp + 80] = 0\n 55911: a0 = 0xf645eedf00000000\n 55921: a1 = sp + 0x50\n 55924: u64 [sp + 0x68] = a0\n 55927: a0 = 0\n 55929: ra = 2496, jump @24\n      : @2059 [@dyn 1248] (gas: 2)\n 55936: a1 = i32 [0x20150]\n 55941: jump @2061 if a1 >u 31\n      : @2060 (gas: 2)\n 55945: u32 [0x20150] = 0x20\n 55951: fallthrough\n      : @2061 (gas: 6)\n 55952: a1 = 0x20160\n 55957: i32 a1 = a1 + 0\n 55959: a0 = 0x1\n 55962: a2 = 0x4\n 55965: ecalli 16 // 'seal_return'\n 55967: fallthrough\n      : @2062 (gas: 8)\n 55968: u64 [sp + 160] = 0\n 55972: u64 [sp + 152] = 0\n 55976: u64 [sp + 144] = 0\n 55980: a0 = 0xfce698f700000000\n 55990: a1 = sp + 0x90\n 55994: u64 [sp + 0xa8] = a0\n 55998: a0 = 0\n 56000: ra = 2498, jump @24\n      : @2063 [@dyn 1249] (gas: 11)\n 56007: a0 = u64 [sp + 0x8]\n 56010: u64 [sp + 0x88] = a0\n 56014: a0 = u64 [sp + 0x10]\n 56017: u64 [sp + 0x80] = a0\n 56021: a0 = u64 [sp + 0x18]\n 56024: u64 [sp + 0x78] = a0\n 56027: a0 = 0x4\n 56030: a1 = sp + 0x70\n 56033: a2 = u64 [sp + 0x20]\n 56036: u64 [sp + 0x70] = a2\n 56039: ra = 2500, jump @24\n      : @2064 [@dyn 1250] (gas: 2)\n 56046: a1 = i32 [0x20150]\n 56051: jump @2066 if a1 >u 63\n      : @2065 (gas: 3)\n 56055: u32 [0x20150] = 0x40\n 56061: a1 = 0x20160\n 56066: jump @2072\n      : @2066 (gas: 2)\n 56068: a1 = 0x20160\n 56073: jump @2072\n      : @2067 (gas: 8)\n 56075: u64 [sp + 224] = 0\n 56079: u64 [sp + 216] = 0\n 56083: u64 [sp + 208] = 0\n 56087: a0 = 0xd78bce0c00000000\n 56097: a1 = sp + 0xd0\n 56101: u64 [sp + 0xe8] = a0\n 56105: a0 = 0\n 56107: ra = 2502, jump @24\n      : @2068 [@dyn 1251] (gas: 11)\n 56114: a0 = u64 [sp + 0x8]\n 56117: u64 [sp + 0xc8] = a0\n 56121: a0 = u64 [sp + 0x10]\n 56124: u64 [sp + 0xc0] = a0\n 56128: a0 = u64 [sp + 0x18]\n 56131: u64 [sp + 0xb8] = a0\n 56135: a0 = 0x4\n 56138: a1 = sp + 0xb0\n 56142: a2 = u64 [sp + 0x20]\n 56145: u64 [sp + 0xb0] = a2\n 56149: ra = 2504, jump @24\n      : @2069 [@dyn 1252] (gas: 2)\n 56156: a1 = i32 [0x20150]\n 56161: jump @2071 if a1 >u 63\n      : @2070 (gas: 3)\n 56165: u32 [0x20150] = 0x40\n 56171: a1 = 0x20160\n 56176: jump @2072\n      : @2071 (gas: 2)\n 56178: a1 = 0x20160\n 56183: fallthrough\n      : @2072 (gas: 6)\n 56184: i32 a1 = a1 + 0\n 56186: a0 = 0x1\n 56189: a2 = 0x24\n 56192: ra = 0x9ca\n 56196: ecalli 16 // 'seal_return'\n 56198: fallthrough\n      : @2073 [@dyn 1253] (gas: 33)\n 56199: sp = sp + 0xfffffffffffffee0\n 56203: u64 [sp + 0x118] = ra\n 56207: u64 [sp + 0x110] = s0\n 56211: u64 [sp + 0x108] = s1\n 56215: s0 = sp + 0x120\n 56219: sp = sp & 0xffffffffffffffe0\n 56222: s1 = sp\n 56224: u64 [s1 + 0x38] = a0\n 56227: a0 = u64 [a2]\n 56229: u64 [s1 + 0x48] = a0\n 56232: a0 = u64 [a2 + 0x8]\n 56235: u64 [s1 + 0x40] = a0\n 56238: a0 = u64 [a2 + 0x10]\n 56241: u64 [s1 + 0x50] = a0\n 56244: a0 = u64 [a2 + 0x18]\n 56247: u64 [s1 + 0x58] = a0\n 56250: a0 = u64 [a1 + 0x18]\n 56253: a2 = u64 [a1 + 0x10]\n 56256: a3 = u64 [a1 + 0x8]\n 56259: a1 = u64 [a1]\n 56261: u64 [s1 + 0x30] = a0\n 56264: u64 [s1 + 0xf8] = a0\n 56268: u64 [s1 + 0x28] = a2\n 56271: u64 [s1 + 0xf0] = a2\n 56275: u64 [s1 + 0x20] = a3\n 56278: u64 [s1 + 0xe8] = a3\n 56282: u64 [s1 + 0x18] = a1\n 56285: u64 [s1 + 0xe0] = a1\n 56289: a0 = s1 + 0xc0\n 56293: a1 = s1 + 0xe0\n 56297: ra = 0x9cc\n 56301: t0 = 0x6\n 56304: jump @2259\n      : @2074 [@dyn 1254] (gas: 20)\n 56307: a0 = u64 [s1 + 0xd8]\n 56311: t0 = u64 [s1 + 0xc0]\n 56315: a2 = u64 [s1 + 0xd0]\n 56319: a3 = u64 [s1 + 0xc8]\n 56323: a1 = u64 [s1 + 0x58]\n 56326: a4 = a0 ^ a1\n 56329: a1 = a1 <u a0\n 56332: a0 = u64 [s1 + 0x50]\n 56335: a5 = a0 <u a2\n 56338: a5 = a1 if a4 != 0\n 56341: a1 = u64 [s1 + 0x40]\n 56344: t1 = a3 ^ a1\n 56347: a3 = a1 <u a3\n 56350: a1 = u64 [s1 + 0x48]\n 56353: a1 = a1 <u t0\n 56356: a1 = a3 if t1 != 0\n 56359: a0 = a0 ^ a2\n 56362: a0 = a0 | a4\n 56365: a1 = a5 if a0 != 0\n 56368: jump @2079 if a1 == 0\n      : @2075 (gas: 11)\n 56372: a0 = u64 [s1 + 0x18]\n 56375: u64 [s1 + 0x60] = a0\n 56378: a0 = u64 [s1 + 0x20]\n 56381: u64 [s1 + 0x68] = a0\n 56384: a0 = u64 [s1 + 0x28]\n 56387: u64 [s1 + 0x70] = a0\n 56390: a1 = s1 + 0x60\n 56393: a0 = u64 [s1 + 0x30]\n 56396: u64 [s1 + 0x78] = a0\n 56399: a0 = 0\n 56401: ra = 2510, jump @24\n      : @2076 [@dyn 1255] (gas: 2)\n 56408: a1 = i32 [0x20150]\n 56413: jump @2078 if a1 >u 31\n      : @2077 (gas: 2)\n 56417: u32 [0x20150] = 0x20\n 56423: fallthrough\n      : @2078 (gas: 52)\n 56424: a0 = sp + 0xffffffffffffffe0\n 56427: a2 = a0 & 0xffffffffffffffe0\n 56430: u64 [s1 + 0x30] = a2\n 56433: sp = a2\n 56435: a0 = 0x20160\n 56440: i32 a0 = a0 + 0\n 56442: i32 a2 = a2 + 0\n 56444: a1 = 0x20\n 56447: ecalli 11 // 'hash_keccak_256'\n 56449: a3 = u64 [s1 + 0x30]\n 56452: a0 = u64 [a3]\n 56454: a1 = u64 [a3 + 0x8]\n 56457: a2 = u64 [a3 + 0x18]\n 56460: a3 = u64 [a3 + 0x10]\n 56463: t0 = reverse a0\n 56465: a1 = reverse a1\n 56467: a2 = reverse a2\n 56469: a3 = reverse a3\n 56471: a4 = u64 [s1 + 0x40]\n 56474: a4 = a4 + a3\n 56477: t1 = u64 [s1 + 0x48]\n 56480: t1 = t1 + a2\n 56483: a2 = t1 <u a2\n 56486: a4 = a4 + a2\n 56489: a0 = a4 ^ a3\n 56492: a3 = a4 <u a3\n 56495: a3 = a2 if a0 == 0\n 56498: a0 = u64 [s1 + 0x50]\n 56501: a0 = a0 + a1\n 56504: a3 = a3 + a0\n 56507: a2 = a3 <u a0\n 56510: a5 = u64 [s1 + 0x58]\n 56513: t0 = t0 + a5\n 56516: a0 = a0 <u a1\n 56519: a0 = a0 + t0\n 56522: a0 = a0 + a2\n 56525: a1 = u64 [s1 + 0x38]\n 56528: a2 = 0\n 56530: u64 [a1 + 56] = 0\n 56533: u64 [a1 + 48] = 0\n 56536: u64 [a1 + 40] = 0\n 56539: u64 [a1 + 32] = 0\n 56542: u64 [a1] = t1\n 56544: u64 [a1 + 0x8] = a4\n 56547: u64 [a1 + 0x10] = a3\n 56550: u64 [a1 + 0x18] = a0\n 56553: sp = s0 + 0xfffffffffffffee0\n 56557: ra = u64 [sp + 0x118]\n 56561: s0 = u64 [sp + 0x110]\n 56565: s1 = u64 [sp + 0x108]\n 56569: sp = sp + 0x120\n 56573: ret\n      : @2079 (gas: 1)\n 56575: t0 = 2512, jump @2347\n      : @2080 [@dyn 1256] (gas: 5)\n 56581: a0 = 0x4e487b7100000000\n 56591: a1 = s1 + 0xa0\n 56595: u64 [s1 + 0xb8] = a0\n 56599: a0 = 0\n 56601: ra = 2514, jump @24\n      : @2081 [@dyn 1257] (gas: 7)\n 56608: u64 [s1 + 152] = 0\n 56612: u64 [s1 + 144] = 0\n 56616: u64 [s1 + 128] = 0x32\n 56621: a0 = 0x4\n 56624: a1 = s1 + 0x80\n 56628: u64 [s1 + 136] = 0\n 56632: ra = 2516, jump @24\n      : @2082 [@dyn 1258] (gas: 2)\n 56639: a1 = i32 [0x20150]\n 56644: jump @2084 if a1 >u 63\n      : @2083 (gas: 2)\n 56648: u32 [0x20150] = 0x40\n 56654: fallthrough\n      : @2084 (gas: 7)\n 56655: a1 = 0x20160\n 56660: i32 a1 = a1 + 0\n 56662: a0 = 0x1\n 56665: a2 = 0x24\n 56668: ra = 0x9d6\n 56672: ecalli 16 // 'seal_return'\n 56674: fallthrough\n      : @2085 [@dyn 1259] (gas: 14)\n 56675: a2 = u64 [a1 + 0x10]\n 56678: a3 = u64 [a1 + 0x18]\n 56681: a4 = u64 [a1 + 0x8]\n 56684: a1 = u64 [a1]\n 56686: a3 = a3 | a4\n 56689: a1 = a1 | a2\n 56692: a1 = a1 | a3\n 56695: a1 = a1 >u 0\n 56697: a2 = 0\n 56699: u64 [a0 + 24] = 0\n 56702: u64 [a0 + 16] = 0\n 56705: u64 [a0 + 8] = 0\n 56708: u64 [a0] = a1\n 56710: ret\n      : @2086 [@dyn 1260] (gas: 4)\n 56712: ra = 0x9da\n 56716: ecalli 1 // 'block_number'\n 56718: t0 = 0x9dc\n 56722: jump @2301\n      : @2087 [@dyn 1261] (gas: 1)\n 56725: t0 = 2524, jump @2301\n      : @2088 [@dyn 1262] (gas: 3)\n 56731: ra = 0x9de\n 56735: t0 = 0x884\n 56739: jump @2372\n      : @2089 [@dyn 1263] (gas: 1)\n 56742: t0 = 2528, jump @2365\n      : @2090 [@dyn 1264] (gas: 1)\n 56748: ra = 2530, jump @1744\n      : @2091 [@dyn 1265] (gas: 25)\n 56754: a1 = u64 [sp + 0x20]\n 56757: a2 = u64 [sp + 0x128]\n 56761: t0 = u64 [sp + 0x138]\n 56765: ra = u64 [sp + 0x120]\n 56769: a5 = u64 [sp + 0x130]\n 56773: a0 = a2 ^ a1\n 56776: a3 = a2 <u a1\n 56779: a4 = u64 [sp + 0x38]\n 56782: a4 = ra <u a4\n 56785: a3 = a4 if a0 == 0\n 56788: t2 = u64 [sp + 0x28]\n 56791: a0 = a5 - t2\n 56794: t1 = a0 - a3\n 56797: a0 = a0 <u a3\n 56800: a3 = a5 <u t2\n 56803: a5 = u64 [sp + 0x30]\n 56806: a5 = t0 - a5\n 56809: a3 = a5 - a3\n 56812: a3 = a3 - a0\n 56815: a0 = a3 ^ 0x10000\n 56820: a0 = t1 | a0\n 56823: a5 = a3 >> 0x10\n 56826: a5 = a5 <u 0x1\n 56829: a5 = 0 if a0 == 0\n 56831: jump @2095 if a5 == 0\n      : @2092 (gas: 16)\n 56835: a0 = a2 - a1\n 56838: a0 = a0 - a4\n 56841: a1 = u64 [sp + 0x38]\n 56844: a1 = ra - a1\n 56847: u64 [sp + 0x60] = a1\n 56850: a1 = u64 [sp]\n 56852: u64 [sp + 0x80] = a1\n 56856: a1 = u64 [sp + 0x40]\n 56859: u64 [sp + 0xa0] = a1\n 56863: u64 [sp + 0x68] = a0\n 56866: a0 = u64 [sp + 0x8]\n 56869: u64 [sp + 0x88] = a0\n 56873: a0 = u64 [sp + 0x48]\n 56876: u64 [sp + 0xa8] = a0\n 56880: u64 [sp + 0x70] = t1\n 56883: t0 = 2532, jump @2315\n      : @2093 [@dyn 1266] (gas: 3)\n 56889: ra = 0x9e6\n 56893: t0 = 0xa48\n 56897: jump @2212\n      : @2094 [@dyn 1267] (gas: 22)\n 56900: t0 = u64 [sp + 0xc8]\n 56904: t1 = u64 [sp + 0xc0]\n 56908: a2 = u64 [sp + 0xd8]\n 56912: a3 = u64 [sp + 0xd0]\n 56916: a4 = u64 [sp + 0xf0]\n 56920: a5 = u64 [sp + 0xf8]\n 56924: a0 = u64 [sp + 0xe0]\n 56928: a1 = u64 [sp + 0xe8]\n 56932: u64 [s1 + 0x30] = a4\n 56935: u64 [s1 + 0x38] = a5\n 56938: u64 [s1 + 0x20] = a0\n 56941: u64 [s1 + 0x28] = a1\n 56944: u64 [s1 + 0x10] = a3\n 56947: u64 [s1 + 0x18] = a2\n 56950: u64 [s1] = t1\n 56952: u64 [s1 + 0x8] = t0\n 56955: sp = s0 + 0xfffffffffffffe40\n 56959: ra = u64 [sp + 0x1b8]\n 56963: s0 = u64 [sp + 0x1b0]\n 56967: s1 = u64 [sp + 0x1a8]\n 56971: sp = sp + 0x1c0\n 56975: ret\n      : @2095 (gas: 3)\n 56977: ra = 0x9e8\n 56981: t0 = 0x28e\n 56985: jump @2232\n      : @2096 [@dyn 1268] (gas: 13)\n 56988: sp = sp + 0xfffffffffffffe40\n 56992: u64 [sp + 0x1b8] = ra\n 56996: u64 [sp + 0x1b0] = s0\n 57000: u64 [sp + 0x1a8] = s1\n 57004: s0 = sp + 0x1c0\n 57008: sp = sp & 0xffffffffffffffe0\n 57011: a3 = u16 [a2 + 0x18]\n 57014: u64 [sp + 0x38] = a3\n 57017: a3 = u64 [a2 + 0x10]\n 57020: u64 [sp + 0x30] = a3\n 57023: a3 = u64 [a2]\n 57025: u64 [sp + 0x28] = a3\n 57028: t0 = 2538, jump @2311\n      : @2097 [@dyn 1269] (gas: 4)\n 57034: ra = 0x9ec\n 57038: ecalli 1 // 'block_number'\n 57040: t0 = 0x9ee\n 57044: jump @2301\n      : @2098 [@dyn 1270] (gas: 1)\n 57047: t0 = 2542, jump @2301\n      : @2099 [@dyn 1271] (gas: 3)\n 57053: ra = 0x9f0\n 57057: t0 = 0x884\n 57061: jump @2372\n      : @2100 [@dyn 1272] (gas: 1)\n 57064: t0 = 2546, jump @2365\n      : @2101 [@dyn 1273] (gas: 1)\n 57070: ra = 2548, jump @1744\n      : @2102 [@dyn 1274] (gas: 28)\n 57076: a2 = u64 [sp + 0x128]\n 57080: a0 = u64 [sp + 0x120]\n 57084: t0 = u64 [sp + 0x138]\n 57088: a4 = u64 [sp + 0x130]\n 57092: a5 = u64 [sp + 0x20]\n 57095: a5 = a5 + a2\n 57098: t1 = u64 [sp + 0x28]\n 57101: t1 = t1 + a0\n 57104: a0 = t1 <u a0\n 57107: a5 = a5 + a0\n 57110: a3 = a5 ^ a2\n 57113: a2 = a5 <u a2\n 57116: a2 = a0 if a3 == 0\n 57119: a0 = u64 [sp + 0x30]\n 57122: a0 = a0 + a4\n 57125: a2 = a2 + a0\n 57128: a3 = a2 <u a0\n 57131: a1 = u64 [sp + 0x38]\n 57134: t0 = t0 + a1\n 57137: a0 = a0 <u a4\n 57140: a0 = a0 + t0\n 57143: a3 = a3 + a0\n 57146: a0 = a3 ^ 0x10000\n 57151: a0 = a0 | a2\n 57154: a4 = a3 >> 0x10\n 57157: a4 = a4 <u 0x1\n 57160: a4 = 0 if a0 == 0\n 57162: jump @2106 if a4 == 0\n      : @2103 (gas: 12)\n 57166: u64 [sp + 0x60] = t1\n 57169: a0 = u64 [sp]\n 57171: u64 [sp + 0x80] = a0\n 57175: a0 = u64 [sp + 0x40]\n 57178: u64 [sp + 0xa0] = a0\n 57182: u64 [sp + 0x68] = a5\n 57185: a0 = u64 [sp + 0x8]\n 57188: u64 [sp + 0x88] = a0\n 57192: a0 = u64 [sp + 0x48]\n 57195: u64 [sp + 0xa8] = a0\n 57199: u64 [sp + 0x70] = a2\n 57202: t0 = 2550, jump @2315\n      : @2104 [@dyn 1275] (gas: 3)\n 57208: ra = 0x9f8\n 57212: t0 = 0xa48\n 57216: jump @2212\n      : @2105 [@dyn 1276] (gas: 22)\n 57219: t0 = u64 [sp + 0xc8]\n 57223: t1 = u64 [sp + 0xc0]\n 57227: a2 = u64 [sp + 0xd8]\n 57231: a3 = u64 [sp + 0xd0]\n 57235: a4 = u64 [sp + 0xf0]\n 57239: a5 = u64 [sp + 0xf8]\n 57243: a0 = u64 [sp + 0xe0]\n 57247: a1 = u64 [sp + 0xe8]\n 57251: u64 [s1 + 0x30] = a4\n 57254: u64 [s1 + 0x38] = a5\n 57257: u64 [s1 + 0x20] = a0\n 57260: u64 [s1 + 0x28] = a1\n 57263: u64 [s1 + 0x10] = a3\n 57266: u64 [s1 + 0x18] = a2\n 57269: u64 [s1] = t1\n 57271: u64 [s1 + 0x8] = t0\n 57274: sp = s0 + 0xfffffffffffffe40\n 57278: ra = u64 [sp + 0x1b8]\n 57282: s0 = u64 [sp + 0x1b0]\n 57286: s1 = u64 [sp + 0x1a8]\n 57290: sp = sp + 0x1c0\n 57294: ret\n      : @2106 (gas: 3)\n 57296: ra = 0x9fa\n 57300: t0 = 0x28e\n 57304: jump @2232\n      : @2107 [@dyn 1277] (gas: 34)\n 57307: sp = sp + 0xfffffffffffffe60\n 57311: u64 [sp + 0x198] = ra\n 57315: u64 [sp + 0x190] = s0\n 57319: u64 [sp + 0x188] = s1\n 57323: s0 = sp + 0x1a0\n 57327: sp = sp & 0xffffffffffffffe0\n 57330: a2 = u16 [a1 + 0x18]\n 57333: u64 [sp + 0x30] = a2\n 57336: a2 = u64 [a1 + 0x10]\n 57339: u64 [sp + 0x28] = a2\n 57342: a2 = u64 [a1]\n 57344: u64 [sp + 0x38] = a2\n 57347: a1 = u64 [a1 + 0x8]\n 57350: u64 [sp + 0x20] = a1\n 57353: s1 = a0\n 57355: i32 a0 = sp + 0x160\n 57359: ecalli 1 // 'block_number'\n 57361: a0 = u64 [sp + 0x178]\n 57365: a1 = u64 [sp + 0x170]\n 57369: a2 = u64 [sp + 0x168]\n 57373: a3 = u64 [sp + 0x160]\n 57377: u64 [sp + 0x18] = a0\n 57380: u64 [sp + 0x138] = a0\n 57384: u64 [sp + 0x10] = a1\n 57387: u64 [sp + 0x130] = a1\n 57391: u64 [sp + 0x8] = a2\n 57394: u64 [sp + 0x128] = a2\n 57398: a0 = sp + 0x140\n 57402: a1 = sp + 0x120\n 57406: u64 [sp] = a3\n 57408: u64 [sp + 0x120] = a3\n 57412: ra = 0x9fc\n 57416: t0 = 0x884\n 57420: jump @2372\n      : @2108 [@dyn 1278] (gas: 7)\n 57423: u64 [sp + 248] = 0\n 57427: u64 [sp + 240] = 0\n 57431: u64 [sp + 232] = 0\n 57435: a0 = sp + 0x100\n 57439: a1 = sp + 0xe0\n 57443: u64 [sp + 224] = 0xa\n 57448: ra = 2558, jump @1744\n      : @2109 [@dyn 1279] (gas: 25)\n 57454: a2 = u64 [sp + 0x20]\n 57457: a3 = u64 [sp + 0x108]\n 57461: t0 = u64 [sp + 0x118]\n 57465: ra = u64 [sp + 0x100]\n 57469: a5 = u64 [sp + 0x110]\n 57473: a0 = a3 ^ a2\n 57476: a1 = a3 <u a2\n 57479: a4 = u64 [sp + 0x38]\n 57482: a4 = ra <u a4\n 57485: a1 = a4 if a0 == 0\n 57488: t2 = u64 [sp + 0x28]\n 57491: a0 = a5 - t2\n 57494: t1 = a0 - a1\n 57497: a0 = a0 <u a1\n 57500: a1 = a5 <u t2\n 57503: a5 = u64 [sp + 0x30]\n 57506: a5 = t0 - a5\n 57509: a1 = a5 - a1\n 57512: a1 = a1 - a0\n 57515: a0 = a1 ^ 0x10000\n 57520: a0 = t1 | a0\n 57523: a5 = a1 >> 0x10\n 57526: a5 = a5 <u 0x1\n 57529: a5 = 0 if a0 == 0\n 57531: jump @2112 if a5 == 0\n      : @2110 (gas: 27)\n 57535: a0 = a3 - a2\n 57538: a0 = a0 - a4\n 57541: a2 = u64 [sp + 0x38]\n 57544: a2 = ra - a2\n 57547: u64 [sp + 0x40] = a2\n 57550: a2 = u64 [sp]\n 57552: u64 [sp + 0x60] = a2\n 57555: u64 [sp + 152] = 0\n 57559: u64 [sp + 144] = 0\n 57563: u64 [sp + 136] = 0\n 57567: u64 [sp + 128] = 0xa\n 57572: u64 [sp + 0x48] = a0\n 57575: a0 = u64 [sp + 0x8]\n 57578: u64 [sp + 0x68] = a0\n 57581: u64 [sp + 0x50] = t1\n 57584: a0 = u64 [sp + 0x10]\n 57587: u64 [sp + 0x70] = a0\n 57590: u64 [sp + 0x58] = a1\n 57593: a0 = sp + 0xa0\n 57597: a1 = sp + 0x80\n 57601: a2 = sp + 0x60\n 57604: a3 = sp + 0x40\n 57607: a4 = u64 [sp + 0x18]\n 57610: u64 [sp + 0x78] = a4\n 57613: ra = 0xa00\n 57617: t0 = 0xa48\n 57621: jump @2212\n      : @2111 [@dyn 1280] (gas: 22)\n 57624: t0 = u64 [sp + 0xa8]\n 57628: t1 = u64 [sp + 0xa0]\n 57632: a2 = u64 [sp + 0xb8]\n 57636: a3 = u64 [sp + 0xb0]\n 57640: a4 = u64 [sp + 0xd0]\n 57644: a5 = u64 [sp + 0xd8]\n 57648: a0 = u64 [sp + 0xc0]\n 57652: a1 = u64 [sp + 0xc8]\n 57656: u64 [s1 + 0x30] = a4\n 57659: u64 [s1 + 0x38] = a5\n 57662: u64 [s1 + 0x20] = a0\n 57665: u64 [s1 + 0x28] = a1\n 57668: u64 [s1 + 0x10] = a3\n 57671: u64 [s1 + 0x18] = a2\n 57674: u64 [s1] = t1\n 57676: u64 [s1 + 0x8] = t0\n 57679: sp = s0 + 0xfffffffffffffe60\n 57683: ra = u64 [sp + 0x198]\n 57687: s0 = u64 [sp + 0x190]\n 57691: s1 = u64 [sp + 0x188]\n 57695: sp = sp + 0x1a0\n 57699: ret\n      : @2112 (gas: 3)\n 57701: ra = 0xa02\n 57705: t0 = 0x28e\n 57709: jump @2232\n      : @2113 [@dyn 1281] (gas: 25)\n 57712: sp = sp + 0xfffffffffffffbe0\n 57716: a3 = sp + 0x400\n 57720: u64 [a3 + 0x18] = ra\n 57723: u64 [a3 + 0x10] = s0\n 57726: u64 [a3 + 0x8] = s1\n 57729: s0 = sp + 0x420\n 57733: sp = sp & 0xffffffffffffffe0\n 57736: s1 = sp\n 57738: a3 = u64 [a2 + 0x18]\n 57741: u64 [s1 + 0x60] = a3\n 57744: a3 = u64 [a2 + 0x10]\n 57747: u64 [s1 + 0x68] = a3\n 57750: a3 = u64 [a2 + 0x8]\n 57753: u64 [s1 + 0x70] = a3\n 57756: a2 = u64 [a2]\n 57758: u64 [s1 + 0x78] = a2\n 57761: t0 = u64 [a1 + 0x10]\n 57764: t1 = u32 [a0 + 0x10]\n 57767: a3 = u64 [a0]\n 57769: a4 = u64 [a0 + 0x8]\n 57772: a2 = u64 [a1 + 0x8]\n 57775: a5 = u64 [a1]\n 57777: a0 = a3 | t1\n 57780: a0 = a0 | a4\n 57783: jump @2121 if a0 != 0\n      : @2114 (gas: 19)\n 57787: u64 [s1 + 0x48] = a2\n 57790: u64 [s1 + 0x50] = a5\n 57793: u64 [s1 + 0x58] = t0\n 57796: u64 [s1 + 0x28] = a4\n 57799: u64 [s1 + 0x30] = a3\n 57802: u64 [s1 + 0x38] = t1\n 57805: a0 = u64 [s1 + 0x78]\n 57808: u64 [s1 + 0x360] = a0\n 57812: a0 = u64 [s1 + 0x70]\n 57815: u64 [s1 + 0x368] = a0\n 57819: a0 = u64 [s1 + 0x68]\n 57822: u64 [s1 + 0x370] = a0\n 57826: a0 = s1 + 0x380\n 57830: a1 = s1 + 0x360\n 57834: a2 = u64 [s1 + 0x60]\n 57837: u64 [s1 + 0x378] = a2\n 57841: ra = 0xa04\n 57845: t0 = 0x2e4\n 57849: jump @2372\n      : @2115 [@dyn 1282] (gas: 19)\n 57852: i32 a0 = s1 + 0x3a0\n 57856: ecalli 1 // 'block_number'\n 57858: a0 = u64 [s1 + 0x3b8]\n 57862: a1 = u64 [s1 + 0x3b0]\n 57866: a2 = u64 [s1 + 0x3a8]\n 57870: a3 = u64 [s1 + 0x3a0]\n 57874: u64 [s1 + 0x40] = a0\n 57877: u64 [s1 + 0x338] = a0\n 57881: u64 [s1 + 0x20] = a1\n 57884: u64 [s1 + 0x330] = a1\n 57888: u64 [s1 + 0x18] = a2\n 57891: u64 [s1 + 0x328] = a2\n 57895: a0 = s1 + 0x340\n 57899: a1 = s1 + 0x320\n 57903: u64 [s1 + 0x10] = a3\n 57906: u64 [s1 + 0x320] = a3\n 57910: ra = 0xa06\n 57914: t0 = 0x884\n 57918: jump @2372\n      : @2116 [@dyn 1283] (gas: 1)\n 57921: t0 = 2568, jump @2368\n      : @2117 [@dyn 1284] (gas: 4)\n 57927: a0 = s1 + 0x300\n 57931: a1 = s1 + 0x2e0\n 57935: u64 [s1 + 736] = 0xa\n 57940: ra = 2570, jump @1744\n      : @2118 [@dyn 1285] (gas: 28)\n 57946: a2 = u64 [s1 + 0x308]\n 57950: a0 = u64 [s1 + 0x300]\n 57954: a3 = u64 [s1 + 0x310]\n 57958: a4 = u64 [s1 + 0x70]\n 57961: a4 = a4 + a2\n 57964: t0 = u64 [s1 + 0x78]\n 57967: t0 = t0 + a0\n 57970: a5 = t0 <u a0\n 57973: a0 = a4 + a5\n 57976: a4 = a0 ^ a2\n 57979: a2 = a0 <u a2\n 57982: a2 = a5 if a4 == 0\n 57985: a1 = u64 [s1 + 0x318]\n 57989: a5 = u64 [s1 + 0x68]\n 57992: a5 = a5 + a3\n 57995: a2 = a2 + a5\n 57998: a3 = a5 <u a3\n 58001: a5 = a2 <u a5\n 58004: a4 = u64 [s1 + 0x60]\n 58007: a4 = a4 + a1\n 58010: a3 = a3 + a4\n 58013: a3 = a3 + a5\n 58016: a4 = a3 ^ 0xffff\n 58021: a4 = a4 | ~a2\n 58024: a5 = a3 >> 0x10\n 58027: a5 = a5 >u 0\n 58029: a5 = 0 if a4 == 0\n 58031: jump @2144 if a5 != 0\n      : @2119 (gas: 24)\n 58035: u64 [s1 + 0x240] = t0\n 58039: a1 = u64 [s1 + 0x10]\n 58042: a5 = s1 + 0x200\n 58046: u64 [a5 + 0x60] = a1\n 58049: u64 [s1 + 664] = 0\n 58053: u64 [s1 + 656] = 0\n 58057: u64 [s1 + 648] = 0\n 58061: u64 [a5 + 128] = 0xa\n 58066: u64 [a5 + 0x48] = a0\n 58069: a0 = u64 [s1 + 0x18]\n 58072: u64 [a5 + 0x68] = a0\n 58075: u64 [a5 + 0x50] = a2\n 58078: a0 = u64 [s1 + 0x20]\n 58081: u64 [a5 + 0x70] = a0\n 58084: u64 [a5 + 0x58] = a3\n 58087: a0 = s1 + 0x2a0\n 58091: a1 = s1 + 0x280\n 58095: a2 = s1 + 0x260\n 58099: a3 = s1 + 0x240\n 58103: a4 = u64 [s1 + 0x40]\n 58106: u64 [a5 + 0x78] = a4\n 58109: ra = 0xa0c\n 58113: t0 = 0xa48\n 58117: jump @2212\n      : @2120 [@dyn 1286] (gas: 7)\n 58120: t1 = u64 [s1 + 0x38]\n 58123: a3 = u64 [s1 + 0x30]\n 58126: a4 = u64 [s1 + 0x28]\n 58129: t0 = u64 [s1 + 0x58]\n 58132: a5 = u64 [s1 + 0x50]\n 58135: a2 = u64 [s1 + 0x48]\n 58138: fallthrough\n      : @2121 (gas: 11)\n 58139: a1 = 0xffffffff\n 58149: a2 = a2 & 0xffffffffffffffff\n 58152: a0 = a5 & 0xffffffffffffffff\n 58155: u64 [s1 + 0x58] = a1\n 58158: a1 = t0 & a1\n 58161: u64 [s1 + 0x50] = a0\n 58164: u64 [s1 + 0x40] = a1\n 58167: a0 = a0 | a1\n 58170: u64 [s1 + 0x48] = a2\n 58173: a0 = a0 | a2\n 58176: jump @2125 if a0 != 0\n      : @2122 (gas: 17)\n 58179: a0 = u64 [s1 + 0x78]\n 58182: a5 = s1 + 0x200\n 58186: u64 [a5] = a0\n 58188: a0 = u64 [s1 + 0x70]\n 58191: u64 [a5 + 0x8] = a0\n 58194: a0 = u64 [s1 + 0x68]\n 58197: u64 [a5 + 0x10] = a0\n 58200: a0 = s1 + 0x220\n 58204: a1 = s1 + 0x200\n 58208: a2 = u64 [s1 + 0x60]\n 58211: u64 [a5 + 0x18] = a2\n 58214: u64 [s1 + 0x38] = t1\n 58217: u64 [s1 + 0x30] = a3\n 58220: u64 [s1 + 0x28] = a4\n 58223: ra = 0xa0e\n 58227: t0 = 0x2e4\n 58231: jump @2372\n      : @2123 [@dyn 1287] (gas: 12)\n 58234: a0 = u64 [s1 + 0x60]\n 58237: a3 = s1 + 0x100\n 58241: u64 [a3 + 0xb8] = a0\n 58245: a0 = u64 [s1 + 0x68]\n 58248: u64 [a3 + 0xb0] = a0\n 58252: a0 = u64 [s1 + 0x70]\n 58255: u64 [a3 + 0xa8] = a0\n 58259: a0 = s1 + 0x1c0\n 58263: a1 = s1 + 0x1a0\n 58267: a2 = u64 [s1 + 0x78]\n 58270: u64 [a3 + 0xa0] = a2\n 58274: ra = 2576, jump @2107\n      : @2124 [@dyn 1288] (gas: 4)\n 58280: a4 = u64 [s1 + 0x28]\n 58283: a3 = u64 [s1 + 0x30]\n 58286: t1 = u64 [s1 + 0x38]\n 58289: fallthrough\n      : @2125 (gas: 7)\n 58290: u64 [s1 + 408] = 0\n 58294: u64 [s1 + 0x180] = a3\n 58298: u64 [s1 + 0x188] = a4\n 58302: a1 = s1 + 0x180\n 58306: u64 [s1 + 0x190] = t1\n 58310: a0 = 0\n 58312: ra = 2578, jump @24\n      : @2126 [@dyn 1289] (gas: 7)\n 58319: u64 [s1 + 376] = 0\n 58323: u64 [s1 + 368] = 0\n 58327: u64 [s1 + 360] = 0\n 58331: a0 = 0x20\n 58334: a1 = s1 + 0x160\n 58338: u64 [s1 + 352] = 0x8\n 58343: ra = 2580, jump @24\n      : @2127 [@dyn 1290] (gas: 3)\n 58350: a1 = 0x20150\n 58355: a0 = i32 [0x20150]\n 58360: jump @2129 if a0 >u 63\n      : @2128 (gas: 3)\n 58364: u32 [0x20150] = 0x40\n 58370: t0 = 0xa16\n 58374: jump @2356\n      : @2129 (gas: 1)\n 58377: t0 = 2582, jump @2356\n      : @2130 [@dyn 1291] (gas: 10)\n 58383: a0 = 0x20160\n 58388: i32 a0 = a0 + 0\n 58390: i32 a2 = a2 + 0\n 58392: u64 [s1 + 0x38] = a1\n 58395: a1 = 0x40\n 58398: u64 [s1 + 0x30] = a0\n 58401: ra = 0xa18\n 58405: ecalli 11 // 'hash_keccak_256'\n 58407: t0 = 0xa1a\n 58411: jump @2317\n      : @2131 [@dyn 1292] (gas: 1)\n 58414: t0 = 2586, jump @2317\n      : @2132 [@dyn 1293] (gas: 10)\n 58420: a4 = s1 + 0x300\n 58424: u64 [a4 + 0xd8] = a3\n 58428: u64 [a4 + 0xd0] = a2\n 58432: u64 [a4 + 0xc8] = a1\n 58436: u64 [a4 + 0xc0] = a0\n 58440: a0 = s1 + 0x140\n 58444: a1 = s1 + 0x3c0\n 58448: ra = 0xa1c\n 58452: t0 = 0x6\n 58455: jump @2259\n      : @2133 [@dyn 1294] (gas: 16)\n 58458: a0 = u64 [s1 + 0x150]\n 58462: u64 [s1 + 0x28] = a0\n 58465: a0 = u64 [s1 + 0x148]\n 58469: u64 [s1 + 0x20] = a0\n 58472: a0 = u64 [s1 + 0x140]\n 58476: u64 [s1 + 0x18] = a0\n 58479: u64 [s1 + 312] = 0\n 58483: a0 = u64 [s1 + 0x40]\n 58486: u64 [s1 + 0x130] = a0\n 58490: a0 = u64 [s1 + 0x48]\n 58493: u64 [s1 + 0x128] = a0\n 58497: a1 = s1 + 0x120\n 58501: a0 = u64 [s1 + 0x50]\n 58504: u64 [s1 + 0x120] = a0\n 58508: a0 = 0\n 58510: ra = 2590, jump @24\n      : @2134 [@dyn 1295] (gas: 4)\n 58517: u64 [s1 + 280] = 0\n 58521: u64 [s1 + 272] = 0\n 58525: a0 = 0x8\n 58528: t0 = 2592, jump @2289\n      : @2135 [@dyn 1296] (gas: 1)\n 58534: ra = 2594, jump @24\n      : @2136 [@dyn 1297] (gas: 3)\n 58541: a1 = u64 [s1 + 0x38]\n 58544: a0 = i32 [a1]\n 58546: jump @2138 if a0 >u 63\n      : @2137 (gas: 2)\n 58550: u32 [a1 + 0] = 0x40\n 58553: fallthrough\n      : @2138 (gas: 8)\n 58554: a0 = u64 [s1 + 0x18]\n 58557: a0 = a0 & 0xffffffffffffffff\n 58560: u64 [s1 + 0x50] = a0\n 58563: a0 = u64 [s1 + 0x20]\n 58566: a0 = a0 & 0xffffffffffffffff\n 58569: u64 [s1 + 0x48] = a0\n 58572: a0 = u64 [s1 + 0x58]\n 58575: t0 = 2596, jump @2310\n      : @2139 [@dyn 1298] (gas: 4)\n 58581: ra = 0xa26\n 58585: ecalli 11 // 'hash_keccak_256'\n 58587: t0 = 0xa28\n 58591: jump @2249\n      : @2140 [@dyn 1299] (gas: 1)\n 58594: t0 = 2600, jump @2249\n      : @2141 [@dyn 1300] (gas: 10)\n 58600: a4 = s1 + 0x300\n 58604: u64 [a4 + 0xf8] = a3\n 58608: u64 [a4 + 0xf0] = a2\n 58612: u64 [a4 + 0xe8] = a1\n 58616: u64 [a4 + 0xe0] = a0\n 58620: a0 = s1 + 0xe0\n 58624: a1 = s1 + 0x3e0\n 58628: ra = 0xa2a\n 58632: t0 = 0x6\n 58635: jump @2259\n      : @2142 [@dyn 1301] (gas: 32)\n 58638: a0 = u64 [s1 + 0xe0]\n 58642: a1 = u64 [s1 + 0xe8]\n 58646: a2 = u64 [s1 + 0xf0]\n 58650: a0 = a0 & 0xffffffffffffffff\n 58653: a1 = a1 & 0xffffffffffffffff\n 58656: a3 = u64 [s1 + 0x58]\n 58659: a2 = a2 & a3\n 58662: a3 = u64 [s1 + 0x60]\n 58665: u64 [s1 + 0x98] = a3\n 58669: a3 = u64 [s1 + 0x68]\n 58672: u64 [s1 + 0x90] = a3\n 58676: a3 = u64 [s1 + 0x70]\n 58679: u64 [s1 + 0x88] = a3\n 58683: a3 = u64 [s1 + 0x78]\n 58686: u64 [s1 + 0x80] = a3\n 58690: u64 [s1 + 184] = 0\n 58694: u64 [s1 + 0xb0] = a2\n 58698: u64 [s1 + 0xa8] = a1\n 58702: u64 [s1 + 0xa0] = a0\n 58706: u64 [s1 + 216] = 0\n 58710: a0 = u64 [s1 + 0x40]\n 58713: u64 [s1 + 0xd0] = a0\n 58717: a0 = u64 [s1 + 0x48]\n 58720: u64 [s1 + 0xc8] = a0\n 58724: a0 = s1 + 0xc0\n 58728: a1 = s1 + 0xa0\n 58732: a2 = s1 + 0x80\n 58736: a3 = u64 [s1 + 0x50]\n 58739: u64 [s1 + 0xc0] = a3\n 58743: ra = 0xa2c\n 58747: t0 = 0x8dc\n 58751: jump @2275\n      : @2143 [@dyn 1302] (gas: 7)\n 58754: sp = s0 + 0xfffffffffffffbe0\n 58758: a0 = sp + 0x400\n 58762: ra = u64 [a0 + 0x18]\n 58765: s0 = u64 [a0 + 0x10]\n 58768: s1 = u64 [a0 + 0x8]\n 58771: sp = sp + 0x420\n 58775: ret\n      : @2144 (gas: 3)\n 58777: ra = 0xa2e\n 58781: t0 = 0x28e\n 58785: jump @2232\n      : @2145 [@dyn 1303] (gas: 34)\n 58788: sp = sp + 0xfffffffffffffd80\n 58792: a2 = sp + 0x200\n 58796: u64 [a2 + 0x78] = ra\n 58799: u64 [a2 + 0x70] = s0\n 58802: u64 [a2 + 0x68] = s1\n 58805: s0 = sp + 0x280\n 58809: sp = sp & 0xffffffffffffffe0\n 58812: s1 = sp\n 58814: a2 = u64 [a1 + 0x18]\n 58817: u64 [s1 + 0x60] = a2\n 58820: a2 = u64 [a1 + 0x10]\n 58823: u64 [s1 + 0x58] = a2\n 58826: a2 = u64 [a1 + 0x8]\n 58829: u64 [s1 + 0x68] = a2\n 58832: a1 = u64 [a1]\n 58834: u64 [s1 + 0x70] = a1\n 58837: a3 = u64 [a0 + 0x18]\n 58840: a2 = u64 [a0 + 0x10]\n 58843: a1 = u64 [a0 + 0x8]\n 58846: a0 = u64 [a0]\n 58848: u64 [s1 + 0x38] = a3\n 58851: a4 = s1 + 0x200\n 58855: u64 [a4 + 0x18] = a3\n 58858: u64 [s1 + 0x40] = a2\n 58861: u64 [a4 + 0x10] = a2\n 58864: u64 [s1 + 0x48] = a1\n 58867: u64 [a4 + 0x8] = a1\n 58870: u64 [s1 + 0x50] = a0\n 58873: u64 [a4] = a0\n 58875: a0 = s1 + 0x1e0\n 58879: a1 = s1 + 0x200\n 58883: ra = 0xa30\n 58887: t0 = 0x6\n 58890: jump @2259\n      : @2146 [@dyn 1304] (gas: 8)\n 58893: a0 = s1 + 0x100\n 58897: a4 = u64 [a0 + 0xf8]\n 58901: a3 = u64 [a0 + 0xf0]\n 58905: a2 = u64 [a0 + 0xe8]\n 58909: a0 = a3 | a4\n 58912: a1 = a2 <u 0x1\n 58915: a1 = 0 if a0 != 0\n 58917: jump @2159 if a1 == 0\n      : @2147 (gas: 21)\n 58921: a0 = u64 [s1 + 0x1e0]\n 58925: u64 [s1 + 0x30] = a0\n 58928: a0 = a0 + 0x1\n 58931: a1 = a0 <u 0x1\n 58934: a1 = a1 + a2\n 58937: u64 [s1 + 0x28] = a2\n 58940: a2 = a0 | a1\n 58943: a2 = a2 <u 0x1\n 58946: a2 = a2 + a3\n 58949: u64 [s1 + 0x20] = a3\n 58952: a3 = a2 <u a3\n 58955: a3 = a3 + a4\n 58958: a5 = s1 + 0x200\n 58962: u64 [a5 + 0x20] = a0\n 58965: u64 [a5 + 0x28] = a1\n 58968: u64 [a5 + 0x30] = a2\n 58971: u64 [a5 + 0x38] = a3\n 58974: a0 = s1 + 0x200\n 58978: a1 = s1 + 0x220\n 58982: u64 [s1 + 0x18] = a4\n 58985: ra = 2610, jump @28\n      : @2148 [@dyn 1305] (gas: 24)\n 58992: a0 = sp + 0xffffffffffffffe0\n 58995: a0 = a0 & 0xffffffffffffffe0\n 58998: u64 [s1 + 0x78] = a0\n 59001: sp = a0\n 59003: a0 = u64 [s1 + 0x18]\n 59006: u64 [s1 + 0x178] = a0\n 59010: a0 = u64 [s1 + 0x20]\n 59013: u64 [s1 + 0x170] = a0\n 59017: a0 = u64 [s1 + 0x28]\n 59020: u64 [s1 + 0x168] = a0\n 59024: a0 = u64 [s1 + 0x30]\n 59027: u64 [s1 + 0x160] = a0\n 59031: a0 = u64 [s1 + 0x38]\n 59034: u64 [s1 + 0x198] = a0\n 59038: a0 = u64 [s1 + 0x40]\n 59041: u64 [s1 + 0x190] = a0\n 59045: a0 = u64 [s1 + 0x48]\n 59048: u64 [s1 + 0x188] = a0\n 59052: a0 = s1 + 0x1a0\n 59056: a1 = s1 + 0x180\n 59060: a2 = s1 + 0x160\n 59064: a3 = u64 [s1 + 0x50]\n 59067: u64 [s1 + 0x180] = a3\n 59071: ra = 2612, jump @2073\n      : @2149 [@dyn 1306] (gas: 18)\n 59077: t0 = u64 [s1 + 0x1d0]\n 59081: t1 = u64 [s1 + 0x1c0]\n 59085: t2 = u64 [s1 + 0x1d8]\n 59089: a2 = s1 + 0x100\n 59093: a0 = u64 [a2 + 0xc8]\n 59097: a5 = u64 [a2 + 0xb0]\n 59101: a3 = u64 [a2 + 0xb8]\n 59105: a4 = u64 [a2 + 0xa0]\n 59109: a1 = u64 [a2 + 0xa8]\n 59113: a2 = u64 [s1 + 0x78]\n 59116: u64 [a2 + 0x10] = a5\n 59119: u64 [a2 + 0x18] = a3\n 59122: u64 [a2] = a4\n 59124: t2 = a0 | t2\n 59127: a0 = t1 | t0\n 59130: a0 = a0 | t2\n 59133: u64 [a2 + 0x8] = a1\n 59136: jump @2160 if a0 != 0\n      : @2150 (gas: 16)\n 59140: u64 [s1 + 0x38] = a3\n 59143: u64 [s1 + 0x40] = a1\n 59146: u64 [s1 + 0x48] = a5\n 59149: u64 [s1 + 0x50] = a4\n 59152: a1 = u64 [s1 + 0x70]\n 59155: a3 = u64 [s1 + 0x58]\n 59158: a0 = a1 | a3\n 59161: a2 = u64 [s1 + 0x68]\n 59164: a4 = u64 [s1 + 0x60]\n 59167: a2 = a2 | a4\n 59170: a0 = a0 | a2\n 59173: a0 = a0 >> 0x20\n 59176: a2 = a2 | a3\n 59179: a2 = a2 << 0x20\n 59182: a0 = a0 | a2\n 59185: jump @2158 if a0 != 0\n      : @2151 (gas: 2)\n 59189: a0 = s1 + 0x100\n 59193: ra = 2614, jump @22\n      : @2152 [@dyn 1307] (gas: 9)\n 59200: a0 = u64 [s1 + 0x100]\n 59204: a0 = a0 << 0x10\n 59207: a0 = a0 >> 0x10\n 59210: u64 [s1 + 0x30] = a0\n 59213: a0 = s1 + 0xe0\n 59217: a1 = u64 [s1 + 0x78]\n 59220: ra = 0xa38\n 59224: t0 = 0x6\n 59227: jump @2259\n      : @2153 [@dyn 1308] (gas: 15)\n 59230: a0 = u16 [s1 + 0xe6]\n 59234: a0 = a0 << 0x30\n 59237: a1 = u64 [s1 + 0xf8]\n 59241: a2 = u64 [s1 + 0xf0]\n 59245: a3 = u64 [s1 + 0xe8]\n 59249: a4 = u64 [s1 + 0x30]\n 59252: a0 = a0 | a4\n 59255: a4 = s1 + 0x200\n 59259: u64 [a4 + 0x58] = a1\n 59262: u64 [a4 + 0x50] = a2\n 59265: u64 [a4 + 0x48] = a3\n 59268: u64 [a4 + 0x40] = a0\n 59271: a1 = s1 + 0x240\n 59275: a0 = u64 [s1 + 0x78]\n 59278: ra = 2618, jump @28\n      : @2154 [@dyn 1309] (gas: 10)\n 59285: a2 = u64 [s1 + 0x70]\n 59288: a0 = u64 [s1 + 0x58]\n 59291: a1 = u64 [s1 + 0x60]\n 59294: a0 = a0 | a1\n 59297: a1 = 0xffffffe0\n 59307: a1 = a2 <u a1\n 59310: a3 = u64 [s1 + 0x68]\n 59313: a1 = 0 if a3 != 0\n 59315: a1 = 0 if a0 != 0\n 59317: jump @2158 if a1 == 0\n      : @2155 (gas: 3)\n 59320: i32 a1 = a2 + 0x20\n 59323: a0 = s1 + 0xc0\n 59327: ra = 2620, jump @22\n      : @2156 [@dyn 1310] (gas: 21)\n 59334: a0 = u64 [s1 + 0xc0]\n 59338: a1 = u64 [s1 + 0xc8]\n 59342: a2 = u64 [s1 + 0xd0]\n 59346: a3 = u16 [s1 + 0xd8]\n 59350: u64 [s1 + 0x98] = a3\n 59354: u64 [s1 + 0x90] = a2\n 59358: u64 [s1 + 0x88] = a1\n 59362: u64 [s1 + 0x80] = a0\n 59366: a0 = u64 [s1 + 0x38]\n 59369: u64 [s1 + 0xb8] = a0\n 59373: a0 = u64 [s1 + 0x48]\n 59376: u64 [s1 + 0xb0] = a0\n 59380: a0 = u64 [s1 + 0x40]\n 59383: u64 [s1 + 0xa8] = a0\n 59387: a0 = s1 + 0xa0\n 59391: a1 = s1 + 0x80\n 59395: a2 = u64 [s1 + 0x50]\n 59398: u64 [s1 + 0xa0] = a2\n 59402: ra = 0xa3e\n 59406: t0 = 0x3d2\n 59410: jump @2373\n      : @2157 [@dyn 1311] (gas: 7)\n 59413: sp = s0 + 0xfffffffffffffd80\n 59417: a0 = sp + 0x200\n 59421: ra = u64 [a0 + 0x78]\n 59424: s0 = u64 [a0 + 0x70]\n 59427: s1 = u64 [a0 + 0x68]\n 59430: sp = sp + 0x280\n 59434: ret\n      : @2158 (gas: 1)\n 59436: trap\n      : @2159 (gas: 3)\n 59437: ra = 0xa40\n 59441: t0 = 0x86\n 59445: jump @2232\n      : @2160 [@dyn 1312] (gas: 8)\n 59448: u64 [s1 + 336] = 0\n 59452: u64 [s1 + 328] = 0\n 59456: u64 [s1 + 320] = 0\n 59460: a0 = 0x4e487b7100000000\n 59470: a1 = s1 + 0x140\n 59474: u64 [s1 + 0x158] = a0\n 59478: a0 = 0\n 59480: ra = 2626, jump @24\n      : @2161 [@dyn 1313] (gas: 7)\n 59487: u64 [s1 + 312] = 0\n 59491: u64 [s1 + 304] = 0\n 59495: u64 [s1 + 296] = 0\n 59499: a0 = 0x4\n 59502: a1 = s1 + 0x120\n 59506: u64 [s1 + 288] = 0\n 59510: ra = 2628, jump @24\n      : @2162 [@dyn 1314] (gas: 2)\n 59517: a1 = i32 [0x20150]\n 59522: jump @2164 if a1 >u 63\n      : @2163 (gas: 2)\n 59526: u32 [0x20150] = 0x40\n 59532: fallthrough\n      : @2164 (gas: 8)\n 59533: a1 = 0x20160\n 59538: i32 a1 = a1 + 0\n 59540: a0 = 0x1\n 59543: a2 = 0x24\n 59546: ra = 0xa46\n 59550: ecalli 16 // 'seal_return'\n 59552: t0 = 0xa48\n 59556: jump @2212\n      : @2165 [@dyn 1315] (gas: 1)\n 59559: t0 = 2632, jump @2212\n      : @2166 [@dyn 1316] (gas: 3)\n 59565: ra = 0xa4a\n 59569: t0 = 0x6\n 59572: jump @2259\n      : @2167 [@dyn 1317] (gas: 1)\n 59575: t0 = 2636, jump @2336\n      : @2168 [@dyn 1318] (gas: 1)\n 59581: jump @2180 if a4 == 0\n      : @2169 (gas: 1)\n 59585: t0 = 2638, jump @2279\n      : @2170 [@dyn 1319] (gas: 1)\n 59591: ra = 2640, jump @764\n      : @2171 [@dyn 1320] (gas: 1)\n 59598: t0 = 2642, jump @2226\n      : @2172 [@dyn 1321] (gas: 1)\n 59604: ra = 2644, jump @768\n      : @2173 [@dyn 1322] (gas: 1)\n 59611: t0 = 2646, jump @2276\n      : @2174 [@dyn 1323] (gas: 3)\n 59617: ra = 0xa58\n 59621: t0 = 0x6\n 59624: jump @2259\n      : @2175 [@dyn 1324] (gas: 6)\n 59627: t1 = u64 [s1 + 0x2e0]\n 59631: a2 = 0xffffffffffff\n 59641: t0 = t1 & a2\n 59644: t2 = u64 [s1 + 0x78]\n 59647: a2 = t2 & a2\n 59650: jump @2197 if a2 <u t0\n      : @2176 (gas: 19)\n 59654: a0 = s1 + 0x200\n 59658: a3 = u64 [a0 + 0xf8]\n 59662: a1 = u64 [a0 + 0xf0]\n 59666: a5 = u64 [a0 + 0xe8]\n 59670: a0 = a3 << 0x10\n 59673: a4 = a1 >> 0x30\n 59676: a0 = a0 | a4\n 59679: u64 [s1 + 0x50] = a0\n 59682: a1 = a1 << 0x10\n 59685: a0 = a5 >> 0x30\n 59688: a0 = a0 | a1\n 59691: u64 [s1 + 0x48] = a0\n 59694: a5 = a5 << 0x10\n 59697: a0 = t1 >> 0x30\n 59700: a0 = a0 | a5\n 59703: u64 [s1 + 0x38] = a0\n 59706: a3 = a3 >> 0x30\n 59709: u64 [s1 + 0x40] = a3\n 59712: jump @2188 if t0 != a2\n      : @2177 (gas: 1)\n 59715: t0 = 2650, jump @2254\n      : @2178 [@dyn 1325] (gas: 3)\n 59721: ra = 0xa5c\n 59725: t0 = 0x3d2\n 59729: jump @2373\n      : @2179 [@dyn 1326] (gas: 1)\n 59732: jump @2195\n      : @2180 (gas: 4)\n 59735: a0 = s1 + 0x180\n 59739: ra = 0xa5e\n 59743: t0 = 0x98\n 59747: jump @2372\n      : @2181 [@dyn 1327] (gas: 1)\n 59750: t0 = 2656, jump @2223\n      : @2182 [@dyn 1328] (gas: 3)\n 59756: ra = 0xa62\n 59760: t0 = 0x3c6\n 59764: jump @2328\n      : @2183 [@dyn 1329] (gas: 1)\n 59767: t0 = 2660, jump @2225\n      : @2184 [@dyn 1330] (gas: 3)\n 59773: ra = 0xa66\n 59777: t0 = 0x3cc\n 59781: jump @2328\n      : @2185 [@dyn 1331] (gas: 1)\n 59784: t0 = 2664, jump @2262\n      : @2186 [@dyn 1332] (gas: 1)\n 59790: ra = 2666, jump @2145\n      : @2187 [@dyn 1333] (gas: 6)\n 59796: a5 = 0\n 59798: a3 = 0\n 59800: a2 = 0\n 59802: a4 = 0\n 59804: t0 = 0xa7a\n 59808: jump @2252\n      : @2188 (gas: 4)\n 59811: a0 = s1 + 0x2c0\n 59815: ra = 0xa6c\n 59819: t0 = 0x98\n 59823: jump @2372\n      : @2189 [@dyn 1334] (gas: 1)\n 59826: t0 = 2670, jump @2222\n      : @2190 [@dyn 1335] (gas: 3)\n 59832: ra = 0xa70\n 59836: t0 = 0x3c6\n 59840: jump @2328\n      : @2191 [@dyn 1336] (gas: 1)\n 59843: t0 = 2674, jump @2214\n      : @2192 [@dyn 1337] (gas: 3)\n 59849: ra = 0xa74\n 59853: t0 = 0x3cc\n 59857: jump @2328\n      : @2193 [@dyn 1338] (gas: 1)\n 59860: t0 = 2678, jump @2253\n      : @2194 [@dyn 1339] (gas: 1)\n 59866: ra = 2680, jump @2145\n      : @2195 [@dyn 1340] (gas: 5)\n 59872: a2 = u64 [s1 + 0x50]\n 59875: a3 = u64 [s1 + 0x48]\n 59878: a4 = u64 [s1 + 0x40]\n 59881: a5 = u64 [s1 + 0x38]\n 59884: t0 = 2682, jump @2252\n      : @2196 [@dyn 1341] (gas: 1)\n 59890: ret\n      : @2197 (gas: 1)\n 59892: t0 = 2684, jump @2292\n      : @2198 [@dyn 1342] (gas: 1)\n 59898: ra = 2686, jump @24\n      : @2199 [@dyn 1343] (gas: 2)\n 59905: a1 = i32 [0x20150]\n 59910: jump @2201 if a1 >u 31\n      : @2200 (gas: 2)\n 59914: u32 [0x20150] = 0x20\n 59920: fallthrough\n      : @2201 (gas: 8)\n 59921: a1 = 0x20160\n 59926: i32 a1 = a1 + 0\n 59928: a0 = 0x1\n 59931: a2 = 0x4\n 59934: ecalli 16 // 'seal_return'\n 59936: a0 = 0\n 59938: ra = 0xa80\n 59942: jump @43\n      : @2202 [export #0: 'call'] (gas: 2)\n 59946: a0 = 0\n 59948: ra = 2688, jump @43\n      : @2203 [@dyn 1344] [export #1: 'deploy'] (gas: 2)\n 59955: a0 = 0x1\n 59958: ra = 2690, jump @43\n      : @2204 [@dyn 1345] (gas: 1)\n 59965: t0 = 2692, jump @2367\n      : @2205 [@dyn 1346] (gas: 21)\n 59971: t0 = u64 [a1]\n 59973: t1 = u64 [a1 + 0x8]\n 59976: t2 = u64 [a1 + 0x10]\n 59979: a1 = u64 [a1 + 0x18]\n 59982: a3 = u64 [a2]\n 59984: a4 = u64 [a2 + 0x8]\n 59987: a5 = u64 [a2 + 0x10]\n 59990: a2 = u64 [a2 + 0x18]\n 59993: s1 = a0\n 59995: u64 [sp + 0x18] = a2\n 59998: u64 [sp + 0x10] = a5\n 60001: u64 [sp + 0x8] = a4\n 60004: u64 [sp] = a3\n 60006: u64 [sp + 0x38] = a1\n 60009: u64 [sp + 0x30] = t2\n 60012: u64 [sp + 0x28] = t1\n 60015: a0 = sp + 0x40\n 60018: a1 = sp + 0x20\n 60021: a2 = sp\n 60023: u64 [sp + 0x20] = t0\n 60026: ra = 2694, jump @768\n      : @2206 [@dyn 1347] (gas: 9)\n 60033: a0 = u64 [sp + 0x50]\n 60036: a1 = u64 [sp + 0x58]\n 60039: a2 = u64 [sp + 0x40]\n 60042: a3 = u64 [sp + 0x48]\n 60045: u64 [s1 + 0x10] = a0\n 60048: u64 [s1 + 0x18] = a1\n 60051: u64 [s1] = a2\n 60053: u64 [s1 + 0x8] = a3\n 60056: t0 = 2696, jump @2307\n      : @2207 [@dyn 1348] (gas: 1)\n 60062: ret\n      : @2208 (gas: 32)\n 60064: a4 = u64 [sp + 0x30]\n 60067: a0 = a0 + a4\n 60070: a4 = a0 <u a4\n 60073: a5 = u64 [sp + 0x40]\n 60076: a2 = a2 + a5\n 60079: a2 = a2 + a4\n 60082: a4 = u64 [sp + 0x48]\n 60085: a1 = a1 + a4\n 60088: a4 = a1 <u a4\n 60091: a3 = a3 + a4\n 60094: a3 = a3 + s1\n 60097: a5 = a3 ^ s1\n 60100: s1 = a3 <u s1\n 60103: s1 = a4 if a5 == 0\n 60106: s1 = s1 + a0\n 60109: a0 = s1 <u a0\n 60112: a0 = a0 + a2\n 60115: a2 = a0 << 0x3f\n 60118: a4 = s1 >> 0x1\n 60121: a4 = a4 | a2\n 60124: u64 [sp + 0x30] = a4\n 60127: a2 = a0 >> 0x1\n 60130: u64 [sp + 0x40] = a2\n 60133: s1 = s1 << 0x3f\n 60136: a0 = a3 >> 0x1\n 60139: s1 = s1 | a0\n 60142: a3 = a3 << 0x3f\n 60145: a1 = a1 >> 0x1\n 60148: a1 = a1 | a3\n 60151: u64 [sp + 0x48] = a1\n 60154: a0 = u64 [sp + 0x50]\n 60157: jump [t0]\n      : @2209 (gas: 18)\n 60159: a1 = a0 <u a1\n 60162: a3 = u64 [s1 + 0x50]\n 60165: a2 = a3 + a1\n 60168: a3 = a2 <u a3\n 60171: a3 = a1 if a1 == 0\n 60174: a1 = u64 [s1 + 0x40]\n 60177: a3 = a3 + a1\n 60180: a1 = a3 <u a1\n 60183: a4 = u64 [s1 + 0x48]\n 60186: a1 = a1 + a4\n 60189: a4 = a0 | a3\n 60192: a1 = a1 | a2\n 60195: a4 = a4 | a1\n 60198: a4 = a4 >> 0x20\n 60201: a1 = a1 | a3\n 60204: a1 = a1 << 0x20\n 60207: a1 = a1 | a4\n 60210: jump [t0]\n      : @2210 (gas: 18)\n 60212: a1 = a0 <u a1\n 60215: a3 = u64 [s1 + 0x70]\n 60218: a2 = a3 + a1\n 60221: a3 = a2 <u a3\n 60224: a3 = a1 if a1 == 0\n 60227: a1 = u64 [s1 + 0x60]\n 60230: a3 = a3 + a1\n 60233: a1 = a3 <u a1\n 60236: a4 = u64 [s1 + 0x68]\n 60239: a1 = a1 + a4\n 60242: a4 = a0 | a3\n 60245: a1 = a1 | a2\n 60248: a4 = a4 | a1\n 60251: a4 = a4 >> 0x20\n 60254: a1 = a1 | a3\n 60257: a1 = a1 << 0x20\n 60260: a1 = a1 | a4\n 60263: jump [t0]\n      : @2211 (gas: 9)\n 60265: a1 = a1 + a4\n 60268: a4 = a0 | a3\n 60271: a1 = a1 | a2\n 60274: a4 = a4 | a1\n 60277: a4 = a4 >> 0x20\n 60280: a1 = a1 | a3\n 60283: a1 = a1 << 0x20\n 60286: a1 = a1 | a4\n 60289: jump [t0]\n      : @2212 (gas: 40)\n 60291: sp = sp + 0xfffffffffffffc00\n 60295: a4 = sp + 0x300\n 60299: u64 [a4 + 0xf8] = ra\n 60303: u64 [a4 + 0xf0] = s0\n 60307: u64 [a4 + 0xe8] = s1\n 60311: s0 = sp + 0x400\n 60315: sp = sp & 0xffffffffffffffe0\n 60318: s1 = sp\n 60320: u64 [s1 + 0x70] = a0\n 60323: a0 = u64 [a3 + 0x18]\n 60326: u64 [s1 + 0xb8] = a0\n 60330: a0 = u64 [a3 + 0x10]\n 60333: u64 [s1 + 0xb0] = a0\n 60337: a0 = u64 [a3 + 0x8]\n 60340: u64 [s1 + 0xa8] = a0\n 60344: a0 = u64 [a3]\n 60346: u64 [s1 + 0xa0] = a0\n 60350: a0 = u64 [a2 + 0x18]\n 60353: u64 [s1 + 0x58] = a0\n 60356: a0 = u64 [a2 + 0x10]\n 60359: u64 [s1 + 0x60] = a0\n 60362: a0 = u64 [a2 + 0x8]\n 60365: u64 [s1 + 0x68] = a0\n 60368: a0 = u64 [a2]\n 60370: u64 [s1 + 0x78] = a0\n 60373: a4 = u64 [a1 + 0x18]\n 60376: a3 = u64 [a1 + 0x10]\n 60379: a2 = u64 [a1 + 0x8]\n 60382: a0 = u64 [a1]\n 60384: u64 [s1 + 0x80] = a4\n 60388: u64 [s1 + 0x3d8] = a4\n 60392: u64 [s1 + 0x88] = a3\n 60396: u64 [s1 + 0x3d0] = a3\n 60400: u64 [s1 + 0x90] = a2\n 60404: u64 [s1 + 0x3c8] = a2\n 60408: u64 [s1 + 0x98] = a0\n 60412: u64 [s1 + 0x3c0] = a0\n 60416: a0 = s1 + 0x3a0\n 60420: a1 = s1 + 0x3c0\n 60424: jump [t0]\n      : @2213 (gas: 9)\n 60426: a0 = u64 [a3 + 0x18]\n 60429: a1 = u64 [a3 + 0x10]\n 60432: a2 = u64 [a3 + 0x8]\n 60435: a3 = u64 [a3]\n 60437: a0 = reverse a0\n 60439: a1 = reverse a1\n 60441: a2 = reverse a2\n 60443: a3 = reverse a3\n 60445: jump [t0]\n      : @2214 (gas: 27)\n 60447: a1 = u64 [s1 + 0x28]\n 60450: a0 = a1 + 0x20\n 60453: a1 = a0 <u a1\n 60456: a3 = u64 [s1 + 0x20]\n 60459: a2 = a3 + a1\n 60462: a3 = a2 <u a3\n 60465: a3 = a1 if a1 == 0\n 60468: a1 = u64 [s1 + 0x18]\n 60471: a3 = a3 + a1\n 60474: a1 = a3 <u a1\n 60477: a4 = u64 [s1 + 0x30]\n 60480: a4 = a4 + a1\n 60483: a1 = u64 [s1 + 0xb8]\n 60487: u64 [s1 + 0x258] = a1\n 60491: a1 = u64 [s1 + 0xb0]\n 60495: u64 [s1 + 0x250] = a1\n 60499: a1 = u64 [s1 + 0xa8]\n 60503: u64 [s1 + 0x248] = a1\n 60507: a1 = u64 [s1 + 0xa0]\n 60511: u64 [s1 + 0x240] = a1\n 60515: u64 [s1 + 0x268] = a2\n 60519: u64 [s1 + 0x260] = a0\n 60523: u64 [s1 + 0x270] = a3\n 60527: a0 = s1 + 0x260\n 60531: a1 = s1 + 0x240\n 60535: u64 [s1 + 0x278] = a4\n 60539: jump [t0]\n      : @2215 (gas: 33)\n 60541: a4 = u64 [sp + 0x30]\n 60544: a0 = a0 + a4\n 60547: a4 = a0 <u a4\n 60550: a5 = u64 [sp + 0x40]\n 60553: a2 = a2 + a5\n 60556: a2 = a2 + a4\n 60559: a4 = u64 [sp + 0x48]\n 60562: a1 = a1 + a4\n 60565: a4 = a1 <u a4\n 60568: a3 = a3 + a4\n 60571: a3 = a3 + s1\n 60574: a5 = a3 ^ s1\n 60577: s1 = a3 <u s1\n 60580: s1 = a4 if a5 == 0\n 60583: s1 = s1 + a0\n 60586: a0 = s1 <u a0\n 60589: a0 = a0 + a2\n 60592: a2 = a0 << 0x3f\n 60595: a4 = s1 >> 0x1\n 60598: a4 = a4 | a2\n 60601: u64 [sp + 0x30] = a4\n 60604: a2 = a0 >> 0x1\n 60607: u64 [sp + 0x40] = a2\n 60610: s1 = s1 << 0x3f\n 60613: a0 = a3 >> 0x1\n 60616: s1 = s1 | a0\n 60619: a3 = a3 << 0x3f\n 60622: a1 = a1 >> 0x1\n 60625: a1 = a1 | a3\n 60628: u64 [sp + 0x48] = a1\n 60631: a0 = u64 [sp + 0x50]\n 60634: a3 = sp + 0x200\n 60638: jump [t0]\n      : @2216 (gas: 29)\n 60640: a4 = u64 [s1 + 0xb8]\n 60644: a2 = a4 <u 0x80\n 60648: a3 = u64 [s1 + 0x70]\n 60651: a1 = a3 if a2 != 0\n 60654: a5 = u64 [s1 + 0x78]\n 60657: a3 = u64 [s1 + 0x88]\n 60661: a3 = a3 | a5\n 60664: a3 = a0 if a2 == 0\n 60667: a1 = 0xffffffffffffffff if a4 == 0\n 60670: a3 = 0xffffffffffffffff if a4 == 0\n 60673: a4 = u64 [s1 + 0x80]\n 60677: a4 = 0 if a2 == 0\n 60679: a5 = 0 if a2 == 0\n 60681: a0 = u64 [s1 + 0x90]\n 60685: a0 = a0 & ~a3\n 60688: a2 = u64 [s1 + 0x98]\n 60692: a1 = a2 & ~a1\n 60695: a2 = u64 [s1 + 0xa8]\n 60699: a2 = a2 & ~a5\n 60702: a3 = u64 [s1 + 0xb0]\n 60706: a3 = a3 & ~a4\n 60709: a4 = s1 + 0x200\n 60713: u64 [a4 + 0xb8] = a3\n 60717: u64 [a4 + 0xb0] = a2\n 60721: u64 [a4 + 0xa8] = a1\n 60725: u64 [a4 + 0xa0] = a0\n 60729: a1 = s1 + 0x2a0\n 60733: a0 = u64 [s1 + 0xa0]\n 60737: jump [t0]\n      : @2217 (gas: 28)\n 60739: a0 = u64 [s1 + 0x2e0]\n 60743: a0 = a0 << 0x10\n 60746: a4 = a0 >> 0x10\n 60749: a0 = u64 [s1 + 0x38]\n 60752: u64 [s1 + 0xf8] = a0\n 60756: a0 = u64 [s1 + 0x40]\n 60759: u64 [s1 + 0xf0] = a0\n 60763: a0 = u64 [s1 + 0x48]\n 60766: u64 [s1 + 0xe8] = a0\n 60770: a0 = u64 [s1 + 0x50]\n 60773: u64 [s1 + 0xe0] = a0\n 60777: u64 [s1 + 280] = 0\n 60781: u64 [s1 + 272] = 0\n 60785: u64 [s1 + 264] = 0\n 60789: a0 = u64 [s1 + 0x60]\n 60792: u64 [s1 + 0x138] = a0\n 60796: a0 = u64 [s1 + 0x68]\n 60799: u64 [s1 + 0x130] = a0\n 60803: a0 = u64 [s1 + 0x70]\n 60806: u64 [s1 + 0x128] = a0\n 60810: a0 = u64 [s1 + 0x78]\n 60813: u64 [s1 + 0x120] = a0\n 60817: a0 = s1 + 0x140\n 60821: a1 = s1 + 0x120\n 60825: a2 = s1 + 0x100\n 60829: a3 = s1 + 0xe0\n 60833: u64 [s1 + 0x100] = a4\n 60837: jump [t0]\n      : @2218 (gas: 23)\n 60839: a0 = u64 [s1 + 0x1c0]\n 60843: a1 = u64 [s1 + 0x1c8]\n 60847: a2 = u64 [s1 + 0x1d0]\n 60851: a3 = u64 [s1 + 0x1d8]\n 60855: a4 = u64 [s1 + 0x8]\n 60858: u64 [s1 + 0x158] = a4\n 60862: a4 = u64 [s1 + 0x10]\n 60865: u64 [s1 + 0x150] = a4\n 60869: a4 = u64 [s1 + 0x18]\n 60872: u64 [s1 + 0x148] = a4\n 60876: a4 = u64 [s1 + 0x28]\n 60879: u64 [s1 + 0x140] = a4\n 60883: u64 [s1 + 0x178] = a3\n 60887: u64 [s1 + 0x170] = a2\n 60891: u64 [s1 + 0x168] = a1\n 60895: u64 [s1 + 0x160] = a0\n 60899: u64 [s1 + 408] = 0\n 60903: u64 [s1 + 400] = 0\n 60907: u64 [s1 + 392] = 0\n 60911: a0 = s1 + 0x180\n 60915: a1 = s1 + 0x160\n 60919: a2 = s1 + 0x140\n 60923: jump [t0]\n      : @2219 (gas: 24)\n 60925: a1 = u64 [s1 + 0xb8]\n 60929: a0 = a1 + 0x20\n 60932: a1 = a0 <u a1\n 60935: a2 = t2 + a1\n 60938: a3 = a2 <u t2\n 60941: a3 = a1 if a1 == 0\n 60944: a3 = a3 + t1\n 60947: a1 = a3 <u t1\n 60950: a4 = u64 [s1 + 0xb0]\n 60954: a4 = a4 + a1\n 60957: u64 [s1 + 0x160] = a5\n 60961: u64 [s1 + 0x140] = a0\n 60965: a0 = u64 [s1 + 0x28]\n 60968: u64 [s1 + 0x168] = a0\n 60972: a0 = u64 [s1 + 0x20]\n 60975: u64 [s1 + 0x170] = a0\n 60979: u64 [s1 + 0x148] = a2\n 60983: a0 = u64 [s1 + 0x18]\n 60986: u64 [s1 + 0x178] = a0\n 60990: u64 [s1 + 0x150] = a3\n 60994: a0 = s1 + 0x160\n 60998: a1 = s1 + 0x140\n 61002: u64 [s1 + 0x158] = a4\n 61006: jump [t0]\n      : @2220 (gas: 8)\n 61008: a0 = a0 | a5\n 61011: a3 = a1 | t2\n 61014: a3 = a3 | a0\n 61017: a0 = a0 | t2\n 61020: a3 = a3 >> 0x20\n 61023: a0 = a0 << 0x20\n 61026: a0 = a0 | a3\n 61029: jump [t0]\n      : @2221 (gas: 31)\n 61031: sp = sp + 0xfffffffffffffce0\n 61035: a3 = sp + 0x300\n 61039: u64 [a3 + 0x18] = ra\n 61042: u64 [a3 + 0x10] = s0\n 61045: u64 [a3 + 0x8] = s1\n 61048: s0 = sp + 0x320\n 61052: sp = sp & 0xffffffffffffffe0\n 61055: s1 = sp\n 61057: u64 [s1 + 0x58] = a0\n 61060: a0 = u64 [a2 + 0x18]\n 61063: u64 [s1 + 0x50] = a0\n 61066: a0 = u64 [a2 + 0x10]\n 61069: u64 [s1 + 0x48] = a0\n 61072: a0 = u64 [a2 + 0x8]\n 61075: u64 [s1 + 0x40] = a0\n 61078: a0 = u64 [a2]\n 61080: u64 [s1 + 0x38] = a0\n 61083: a4 = u64 [a1 + 0x18]\n 61086: a3 = u64 [a1 + 0x10]\n 61089: a2 = u64 [a1 + 0x8]\n 61092: a0 = u64 [a1]\n 61094: u64 [s1 + 0x60] = a4\n 61097: u64 [s1 + 0x278] = a4\n 61101: u64 [s1 + 0x68] = a3\n 61104: u64 [s1 + 0x270] = a3\n 61108: u64 [s1 + 0x70] = a2\n 61111: u64 [s1 + 0x268] = a2\n 61115: u64 [s1 + 0x78] = a0\n 61118: u64 [s1 + 0x260] = a0\n 61122: i32 a0 = s1 + 0x280\n 61126: jump [t0]\n      : @2222 (gas: 23)\n 61128: a4 = u64 [s1 + 0x2c0]\n 61132: u64 [s1 + 0x28] = a4\n 61135: a3 = u64 [s1 + 0x2c8]\n 61139: u64 [s1 + 0x20] = a3\n 61142: a2 = u64 [s1 + 0x2d0]\n 61146: u64 [s1 + 0x18] = a2\n 61149: a1 = u64 [s1 + 0x2d8]\n 61153: u64 [s1 + 0x30] = a1\n 61156: a0 = u64 [s1 + 0x58]\n 61159: u64 [s1 + 0x298] = a0\n 61163: a0 = u64 [s1 + 0x60]\n 61166: u64 [s1 + 0x290] = a0\n 61170: a0 = u64 [s1 + 0x68]\n 61173: u64 [s1 + 0x288] = a0\n 61177: a0 = u64 [s1 + 0x78]\n 61180: u64 [s1 + 0x280] = a0\n 61184: u64 [s1 + 0x2b8] = a1\n 61188: u64 [s1 + 0x2b0] = a2\n 61192: u64 [s1 + 0x2a8] = a3\n 61196: a0 = s1 + 0x2a0\n 61200: a1 = s1 + 0x280\n 61204: u64 [s1 + 0x2a0] = a4\n 61208: jump [t0]\n      : @2223 (gas: 23)\n 61210: a4 = u64 [s1 + 0x180]\n 61214: u64 [s1 + 0x48] = a4\n 61217: a3 = u64 [s1 + 0x188]\n 61221: u64 [s1 + 0x40] = a3\n 61224: a2 = u64 [s1 + 0x190]\n 61228: u64 [s1 + 0x38] = a2\n 61231: a1 = u64 [s1 + 0x198]\n 61235: u64 [s1 + 0x50] = a1\n 61238: a0 = u64 [s1 + 0x58]\n 61241: u64 [s1 + 0x158] = a0\n 61245: a0 = u64 [s1 + 0x60]\n 61248: u64 [s1 + 0x150] = a0\n 61252: a0 = u64 [s1 + 0x68]\n 61255: u64 [s1 + 0x148] = a0\n 61259: a0 = u64 [s1 + 0x78]\n 61262: u64 [s1 + 0x140] = a0\n 61266: u64 [s1 + 0x178] = a1\n 61270: u64 [s1 + 0x170] = a2\n 61274: u64 [s1 + 0x168] = a3\n 61278: a0 = s1 + 0x160\n 61282: a1 = s1 + 0x140\n 61286: u64 [s1 + 0x160] = a4\n 61290: jump [t0]\n      : @2224 (gas: 9)\n 61292: a0 = u64 [a3 + 0x18]\n 61295: a1 = u64 [a3 + 0x10]\n 61298: a2 = u64 [a3 + 0x8]\n 61301: a3 = u64 [a3]\n 61303: a4 = reverse a0\n 61305: a0 = reverse a1\n 61307: a1 = reverse a2\n 61309: a2 = reverse a3\n 61311: jump [t0]\n      : @2225 (gas: 28)\n 61313: a1 = u64 [s1 + 0x48]\n 61316: a0 = a1 + 0x20\n 61319: a1 = a0 <u a1\n 61322: a3 = u64 [s1 + 0x40]\n 61325: a2 = a3 + a1\n 61328: a3 = a2 <u a3\n 61331: a3 = a1 if a1 == 0\n 61334: a1 = u64 [s1 + 0x38]\n 61337: a3 = a3 + a1\n 61340: a1 = a3 <u a1\n 61343: a4 = u64 [s1 + 0x50]\n 61346: a4 = a4 + a1\n 61349: a1 = u64 [s1 + 0xb8]\n 61353: a5 = s1 + 0x100\n 61357: u64 [a5 + 0x18] = a1\n 61360: a1 = u64 [s1 + 0xb0]\n 61364: u64 [a5 + 0x10] = a1\n 61367: a1 = u64 [s1 + 0xa8]\n 61371: u64 [a5 + 0x8] = a1\n 61374: a1 = u64 [s1 + 0xa0]\n 61378: u64 [a5] = a1\n 61380: u64 [a5 + 0x28] = a2\n 61383: u64 [a5 + 0x20] = a0\n 61386: u64 [a5 + 0x30] = a3\n 61389: a0 = s1 + 0x120\n 61393: a1 = s1 + 0x100\n 61397: u64 [a5 + 0x38] = a4\n 61400: jump [t0]\n      : @2226 (gas: 20)\n 61402: a0 = u64 [s1 + 0x380]\n 61406: a1 = u64 [s1 + 0x388]\n 61410: a2 = u64 [s1 + 0x390]\n 61414: a3 = u64 [s1 + 0x398]\n 61418: u64 [s1 + 0x318] = a3\n 61422: u64 [s1 + 0x310] = a2\n 61426: u64 [s1 + 0x308] = a1\n 61430: u64 [s1 + 0x300] = a0\n 61434: a0 = u64 [s1 + 0x80]\n 61438: u64 [s1 + 0x338] = a0\n 61442: a0 = u64 [s1 + 0x88]\n 61446: u64 [s1 + 0x330] = a0\n 61450: a0 = u64 [s1 + 0x90]\n 61454: u64 [s1 + 0x328] = a0\n 61458: a0 = s1 + 0x340\n 61462: a1 = s1 + 0x320\n 61466: a2 = s1 + 0x300\n 61470: a3 = u64 [s1 + 0x98]\n 61474: u64 [s1 + 0x320] = a3\n 61478: jump [t0]\n      : @2227 (gas: 16)\n 61480: a0 = u64 [s1 + 0xf8]\n 61484: u64 [s1 + 0xb0] = a0\n 61488: a0 = u64 [s1 + 0xf0]\n 61492: u64 [s1 + 0xa8] = a0\n 61496: a0 = u64 [s1 + 0xe8]\n 61500: u64 [s1 + 0x98] = a0\n 61504: a0 = u64 [s1 + 0xe0]\n 61508: u64 [s1 + 0x90] = a0\n 61512: a0 = u64 [s1 + 0x28]\n 61515: a0 = a0 << 0x3b\n 61518: a1 = a0 >> 0x38\n 61521: u64 [s1 + 0xb8] = a1\n 61525: a2 = 0x80 - a1\n 61529: a0 = 0xffffffffffffffff\n 61532: a1 = 0xffffffffffffffff\n 61535: jump [t0]\n      : @2228 (gas: 14)\n 61537: a0 = u64 [sp + 0x18]\n 61540: a1 = u64 [sp + 0x10]\n 61543: a2 = u64 [sp + 0x8]\n 61546: a3 = u64 [sp]\n 61548: u64 [s1 + 0x18] = a0\n 61551: u64 [s1 + 0x10] = a1\n 61554: u64 [s1 + 0x8] = a2\n 61557: u64 [s1] = a3\n 61559: sp = s0 + 0xffffffffffffffc0\n 61562: ra = u64 [sp + 0x38]\n 61565: s0 = u64 [sp + 0x30]\n 61568: s1 = u64 [sp + 0x28]\n 61571: sp = sp + 0x40\n 61574: jump [t0]\n      : @2229 (gas: 6)\n 61576: sp = s0 + 0xffffffffffffffa0\n 61579: ra = u64 [sp + 0x58]\n 61582: s0 = u64 [sp + 0x50]\n 61585: s1 = u64 [sp + 0x48]\n 61588: sp = sp + 0x60\n 61591: jump [t0]\n      : @2230 (gas: 23)\n 61593: u64 [s1 + 184] = 0\n 61597: t2 = 0\n 61599: t1 = 0\n 61601: u64 [s1 + 176] = 0\n 61605: a5 = u64 [s1 + 0xa8]\n 61609: a0 = u64 [a5 + 0x18]\n 61612: a1 = u64 [s1 + 0x30]\n 61615: a2 = a1 + 0x20\n 61618: u64 [s1 + 0x50] = a2\n 61621: a1 = a2 <u a1\n 61624: a2 = u64 [s1 + 0x28]\n 61627: a3 = a2 + a1\n 61630: u64 [s1 + 0x48] = a3\n 61633: a4 = a3 <u a2\n 61636: a4 = a1 if a1 == 0\n 61639: a1 = u64 [a5 + 0x10]\n 61642: a2 = u64 [a5 + 0x8]\n 61645: a3 = u64 [a5]\n 61647: a0 = reverse a0\n 61649: a1 = reverse a1\n 61651: ra = reverse a2\n 61653: a2 = reverse a3\n 61655: jump [t0]\n      : @2231 (gas: 14)\n 61657: a0 = u64 [a2 + 0x8]\n 61660: a1 = i32 [a2 + 0x10]\n 61663: a2 = u64 [a2]\n 61665: a0 = reverse a0\n 61667: a3 = a0 << 0x20\n 61670: a1 = reverse a1\n 61672: a1 = a1 >> 0x20\n 61675: a3 = a3 | a1\n 61678: a0 = a0 >> 0x20\n 61681: a1 = reverse a2\n 61683: a2 = a1 << 0x20\n 61686: a0 = a0 | a2\n 61689: a1 = a1 >> 0x20\n 61692: jump [t0]\n      : @2232 (gas: 13)\n 61694: sp = sp + 0xffffffffffffffb0\n 61697: u64 [sp + 0x48] = ra\n 61700: u64 [sp + 0x40] = s0\n 61703: s0 = sp + 0x50\n 61706: sp = sp & 0xfffffffffffffff0\n 61709: u64 [sp + 48] = 0\n 61712: u64 [sp + 40] = 0\n 61715: u64 [sp + 32] = 0\n 61718: a0 = 0x4e487b7100000000\n 61728: a1 = sp + 0x20\n 61731: u64 [sp + 0x38] = a0\n 61734: a0 = 0\n 61736: jump [t0]\n      : @2233 (gas: 25)\n 61738: a0 = s1 + 0x100\n 61742: a2 = u64 [a0 + 0x38]\n 61745: u64 [s1 + 0xb8] = a2\n 61749: a1 = u64 [a0 + 0x30]\n 61752: u64 [s1 + 0xb0] = a1\n 61756: a3 = u64 [a0 + 0x28]\n 61759: u64 [s1 + 0xa8] = a3\n 61763: a4 = u64 [a0 + 0x20]\n 61766: u64 [s1 + 0xa0] = a4\n 61770: a0 = u64 [s1 + 0x18]\n 61773: u64 [s1 + 0xd8] = a0\n 61777: a0 = u64 [s1 + 0x20]\n 61780: u64 [s1 + 0xd0] = a0\n 61784: a0 = u64 [s1 + 0x28]\n 61787: u64 [s1 + 0xc8] = a0\n 61791: a0 = u64 [s1 + 0x30]\n 61794: u64 [s1 + 0xc0] = a0\n 61798: u64 [s1 + 0xf8] = a2\n 61802: u64 [s1 + 0xf0] = a1\n 61806: u64 [s1 + 0xe8] = a3\n 61810: a0 = s1 + 0x100\n 61814: a1 = s1 + 0xe0\n 61818: a2 = s1 + 0xc0\n 61822: u64 [s1 + 0xe0] = a4\n 61826: jump [t0]\n      : @2234 (gas: 10)\n 61828: a0 = a4 << 0x10\n 61831: a5 = a1 >> 0x30\n 61834: a0 = a0 | a5\n 61837: a1 = a1 << 0x10\n 61840: a5 = a3 >> 0x30\n 61843: a1 = a1 | a5\n 61846: a3 = a3 << 0x10\n 61849: a2 = a2 | a3\n 61852: a4 = a4 >> 0x30\n 61855: jump [t0]\n      : @2235 (gas: 24)\n 61857: sp = sp + 0xfffffffffffffce0\n 61861: a2 = sp + 0x300\n 61865: u64 [a2 + 0x18] = ra\n 61868: u64 [a2 + 0x10] = s0\n 61871: u64 [a2 + 0x8] = s1\n 61874: s0 = sp + 0x320\n 61878: sp = sp & 0xffffffffffffffe0\n 61881: s1 = sp\n 61883: a3 = u64 [a1 + 0x10]\n 61886: a2 = u64 [a1 + 0x18]\n 61889: a4 = u64 [a1 + 0x8]\n 61892: a1 = u64 [a1]\n 61894: u64 [s1 + 0x50] = a2\n 61897: u64 [s1 + 0x40] = a4\n 61900: a4 = a4 | a2\n 61903: a2 = a1 | a3\n 61906: a2 = a2 | a4\n 61909: a2 = a2 >> 0x20\n 61912: u64 [s1 + 0x48] = a3\n 61915: a3 = a3 | a4\n 61918: a3 = a3 << 0x20\n 61921: a2 = a2 | a3\n 61924: u64 [s1 + 0x20] = a0\n 61927: jump [t0]\n      : @2236 (gas: 8)\n 61929: u64 [s1 + 208] = 0\n 61933: u64 [s1 + 200] = 0\n 61937: u64 [s1 + 192] = 0\n 61941: a0 = 0x6dfcc65000000000\n 61951: a1 = s1 + 0xc0\n 61955: u64 [s1 + 0xd8] = a0\n 61959: a0 = 0\n 61961: jump [t0]\n      : @2237 (gas: 9)\n 61963: a4 = a3 + 0x160\n 61967: a3 = a4 <u a3\n 61970: a5 = a2 + a3\n 61973: a2 = a5 <u a2\n 61976: a2 = a3 if a3 == 0\n 61979: a2 = a2 + a1\n 61982: a1 = a2 <u a1\n 61985: a3 = a0 + a1\n 61988: jump [t0]\n      : @2238 (gas: 16)\n 61990: a1 = a1 + t1\n 61993: a3 = a0 | a2\n 61996: a3 = a3 <u 0x1\n 61999: a5 = a4 <u a3\n 62002: a1 = a1 - a5\n 62005: a4 = a4 - a3\n 62008: a3 = a0 <u 0x1\n 62011: a2 = a2 - a3\n 62014: a0 = a0 + 0xffffffffffffffff\n 62017: u64 [s1 + 0x2c0] = a0\n 62021: u64 [s1 + 0x2c8] = a2\n 62025: u64 [s1 + 0x2d0] = a4\n 62029: u64 [s1 + 0x2d8] = a1\n 62033: a0 = s1 + 0x200\n 62037: a1 = s1 + 0x2c0\n 62041: jump [t0]\n      : @2239 (gas: 15)\n 62043: u64 [s1 + 0x1c0] = a2\n 62047: a2 = u64 [s1 + 0x40]\n 62050: u64 [s1 + 0x188] = a2\n 62054: u64 [s1 + 0x1a8] = a1\n 62058: a1 = u64 [s1 + 0x48]\n 62061: u64 [s1 + 0x190] = a1\n 62065: u64 [s1 + 0x1b0] = a0\n 62069: a0 = u64 [s1 + 0x50]\n 62072: u64 [s1 + 0x198] = a0\n 62076: a0 = s1 + 0x1e0\n 62080: a1 = s1 + 0x1c0\n 62084: a2 = s1 + 0x1a0\n 62088: a3 = s1 + 0x180\n 62092: u64 [s1 + 0x1b8] = a4\n 62096: jump [t0]\n      : @2240 (gas: 8)\n 62098: a2 = a1 | a5\n 62101: a0 = a0 | a3\n 62104: a2 = a2 | a0\n 62107: a2 = a2 >> 0x20\n 62110: a0 = a0 | a5\n 62113: a0 = a0 << 0x20\n 62116: a0 = a0 | a2\n 62119: jump [t0]\n      : @2241 (gas: 20)\n 62121: a3 = u64 [s1 + 0x10]\n 62124: a0 = u64 [a3 + 0x18]\n 62127: a1 = u64 [a3 + 0x10]\n 62130: a2 = u64 [a3 + 0x8]\n 62133: a3 = u64 [a3]\n 62135: a0 = reverse a0\n 62137: a1 = reverse a1\n 62139: a2 = reverse a2\n 62141: a3 = reverse a3\n 62143: a4 = u64 [s1 + 0x18]\n 62146: u64 [a4 + 0x18] = a3\n 62149: u64 [a4 + 0x10] = a2\n 62152: u64 [a4 + 0x8] = a1\n 62155: u64 [a4] = a0\n 62157: sp = s0 + 0xffffffffffffff80\n 62160: ra = u64 [sp + 0x78]\n 62163: s0 = u64 [sp + 0x70]\n 62166: s1 = u64 [sp + 0x68]\n 62169: sp = sp + 0x80\n 62173: jump [t0]\n      : @2242 (gas: 17)\n 62175: a0 = u64 [a2 + 0x8]\n 62178: a1 = i32 [a2 + 0x10]\n 62181: a2 = u64 [a2]\n 62183: a0 = reverse a0\n 62185: a3 = a0 << 0x20\n 62188: a1 = reverse a1\n 62190: a1 = a1 >> 0x20\n 62193: a3 = a3 | a1\n 62196: a0 = a0 >> 0x20\n 62199: a1 = reverse a2\n 62201: a2 = a1 << 0x20\n 62204: a0 = a0 | a2\n 62207: a1 = a1 >> 0x20\n 62210: u64 [s1 + 440] = 0\n 62214: u64 [s1 + 0x1b0] = a1\n 62218: u64 [s1 + 0x1a8] = a0\n 62222: jump [t0]\n      : @2243 (gas: 8)\n 62224: a0 = a0 | a2\n 62227: a2 = s1 | a1\n 62230: a2 = a2 | a0\n 62233: a2 = a2 >> 0x20\n 62236: a0 = a0 | a1\n 62239: a0 = a0 << 0x20\n 62242: a0 = a0 | a2\n 62245: jump [t0]\n      : @2244 (gas: 8)\n 62247: a0 = a0 | a2\n 62250: a2 = a3 | a1\n 62253: a2 = a2 | a0\n 62256: a2 = a2 >> 0x20\n 62259: a0 = a0 | a1\n 62262: a0 = a0 << 0x20\n 62265: a0 = a0 | a2\n 62268: jump [t0]\n      : @2245 (gas: 15)\n 62270: t2 = u64 [s1 + 0xb8]\n 62274: t1 = u64 [s1 + 0xa0]\n 62278: ra = u64 [s1 + 0xa8]\n 62282: a1 = u64 [s1 + 0x50]\n 62285: a0 = a1 + t2\n 62288: a1 = a0 <u a1\n 62291: a4 = u64 [s1 + 0x48]\n 62294: a2 = a4 + t1\n 62297: a2 = a2 + a1\n 62300: a5 = a2 ^ a4\n 62303: a4 = a2 <u a4\n 62306: a4 = a1 if a5 == 0\n 62309: a5 = u64 [s1 + 0x40]\n 62312: a1 = a5 + ra\n 62315: jump [t0]\n      : @2246 (gas: 17)\n 62317: a3 = u64 [s1 + 0x18]\n 62320: a0 = u64 [a3 + 0x18]\n 62323: a1 = u64 [a3 + 0x10]\n 62326: a2 = u64 [a3 + 0x8]\n 62329: a3 = u64 [a3]\n 62331: a0 = reverse a0\n 62333: a1 = reverse a1\n 62335: a2 = reverse a2\n 62337: a3 = reverse a3\n 62339: a4 = s1 + 0x100\n 62343: u64 [a4 + 0x18] = a3\n 62346: u64 [a4 + 0x10] = a2\n 62349: u64 [a4 + 0x8] = a1\n 62352: u64 [a4] = a0\n 62354: a0 = s1 + 0x60\n 62357: a1 = s1 + 0x100\n 62361: jump [t0]\n      : @2247 (gas: 19)\n 62363: u64 [sp + 0x310] = t1\n 62367: u64 [sp + 0x308] = t2\n 62371: u64 [sp + 0x300] = s1\n 62375: u64 [sp + 0x338] = a4\n 62379: a4 = sp + 0x300\n 62383: u64 [a4 + 0x30] = a0\n 62386: u64 [a4 + 0x28] = ra\n 62389: a0 = u64 [sp + 0x30]\n 62392: u64 [a4 + 0x20] = a0\n 62395: u64 [a4 + 0x58] = a3\n 62398: u64 [a4 + 0x50] = a2\n 62401: u64 [a4 + 0x48] = a5\n 62404: a0 = sp + 0x360\n 62408: a1 = sp + 0x340\n 62412: a2 = sp + 0x320\n 62416: a3 = sp + 0x300\n 62420: s1 = u64 [sp + 0x98]\n 62424: u64 [a4 + 0x40] = s1\n 62427: jump [t0]\n      : @2248 (gas: 10)\n 62429: a1 = a1 + t1\n 62432: a3 = a0 | a2\n 62435: a3 = a3 <u 0x1\n 62438: a5 = a4 <u a3\n 62441: a1 = a1 - a5\n 62444: a4 = a4 - a3\n 62447: a3 = a0 <u 0x1\n 62450: a2 = a2 - a3\n 62453: a0 = a0 + 0xffffffffffffffff\n 62456: jump [t0]\n      : @2249 (gas: 10)\n 62458: a3 = u64 [s1 + 0x38]\n 62461: a0 = u64 [a3 + 0x18]\n 62464: a1 = u64 [a3 + 0x10]\n 62467: a2 = u64 [a3 + 0x8]\n 62470: a3 = u64 [a3]\n 62472: a0 = reverse a0\n 62474: a1 = reverse a1\n 62476: a2 = reverse a2\n 62478: a3 = reverse a3\n 62480: jump [t0]\n      : @2250 (gas: 20)\n 62482: a2 = sp + 0x400\n 62486: a0 = u64 [a2 + 0x80]\n 62490: u64 [sp + 0x98] = a0\n 62494: a0 = u64 [a2 + 0x88]\n 62498: u64 [sp + 0x50] = a0\n 62501: a0 = u64 [a2 + 0x90]\n 62505: u64 [sp + 0x48] = a0\n 62508: a0 = u64 [a2 + 0x98]\n 62512: u64 [sp + 0x40] = a0\n 62515: a0 = u64 [sp + 0xd0]\n 62519: u64 [a2 + 0x38] = a0\n 62522: a0 = u64 [sp + 0xd8]\n 62526: u64 [a2 + 0x30] = a0\n 62529: a0 = u64 [sp + 0xc8]\n 62533: u64 [a2 + 0x28] = a0\n 62536: a0 = sp + 0x440\n 62540: a1 = sp + 0x420\n 62544: s1 = u64 [sp + 0xa8]\n 62548: u64 [a2 + 0x20] = s1\n 62551: jump [t0]\n      : @2251 (gas: 9)\n 62553: sp = sp + 0xffffffffffffffc0\n 62556: u64 [sp + 0x38] = ra\n 62559: u64 [sp + 0x30] = s0\n 62562: u64 [sp + 0x28] = s1\n 62565: s0 = sp + 0x40\n 62568: sp = sp & 0xffffffffffffffe0\n 62571: s1 = a0\n 62573: i32 a0 = sp + 0\n 62575: jump [t0]\n      : @2252 (gas: 20)\n 62577: a0 = u64 [s1 + 0x70]\n 62580: a1 = u64 [s1 + 0xa0]\n 62584: u64 [a0 + 0x20] = a1\n 62587: u64 [a0] = a5\n 62589: a1 = u64 [s1 + 0xa8]\n 62593: u64 [a0 + 0x28] = a1\n 62596: u64 [a0 + 0x8] = a3\n 62599: a1 = u64 [s1 + 0xb0]\n 62603: u64 [a0 + 0x30] = a1\n 62606: u64 [a0 + 0x10] = a2\n 62609: a1 = u64 [s1 + 0xb8]\n 62613: u64 [a0 + 0x38] = a1\n 62616: u64 [a0 + 0x18] = a4\n 62619: sp = s0 + 0xfffffffffffffc00\n 62623: a0 = sp + 0x300\n 62627: ra = u64 [a0 + 0xf8]\n 62631: s0 = u64 [a0 + 0xf0]\n 62635: s1 = u64 [a0 + 0xe8]\n 62639: sp = sp + 0x400\n 62643: jump [t0]\n      : @2253 (gas: 20)\n 62645: a0 = u64 [s1 + 0x30]\n 62648: a3 = s1 + 0x200\n 62652: u64 [a3 + 0x18] = a0\n 62655: a0 = u64 [s1 + 0x18]\n 62658: u64 [a3 + 0x10] = a0\n 62661: a0 = u64 [s1 + 0x20]\n 62664: u64 [a3 + 0x8] = a0\n 62667: a0 = u64 [s1 + 0x28]\n 62670: u64 [a3] = a0\n 62672: a0 = u64 [s1 + 0x80]\n 62676: u64 [a3 + 0x38] = a0\n 62679: a0 = u64 [s1 + 0x88]\n 62683: u64 [a3 + 0x30] = a0\n 62686: a0 = u64 [s1 + 0x90]\n 62690: u64 [a3 + 0x28] = a0\n 62693: a0 = s1 + 0x220\n 62697: a1 = s1 + 0x200\n 62701: a2 = u64 [s1 + 0x98]\n 62705: u64 [a3 + 0x20] = a2\n 62708: jump [t0]\n      : @2254 (gas: 20)\n 62710: a0 = u64 [s1 + 0xa0]\n 62714: a3 = s1 + 0x100\n 62718: u64 [a3 + 0xc0] = a0\n 62722: a0 = u64 [s1 + 0x18]\n 62725: u64 [a3 + 0xe0] = a0\n 62729: a0 = u64 [s1 + 0xa8]\n 62733: u64 [a3 + 0xc8] = a0\n 62737: a0 = u64 [s1 + 0x20]\n 62740: u64 [a3 + 0xe8] = a0\n 62744: a0 = u64 [s1 + 0xb0]\n 62748: u64 [a3 + 0xd0] = a0\n 62752: a0 = u64 [s1 + 0x28]\n 62755: u64 [a3 + 0xf0] = a0\n 62759: a0 = u64 [s1 + 0xb8]\n 62763: u64 [a3 + 0xd8] = a0\n 62767: a0 = s1 + 0x1e0\n 62771: a1 = s1 + 0x1c0\n 62775: a2 = u64 [s1 + 0x30]\n 62778: u64 [a3 + 0xf8] = a2\n 62782: jump [t0]\n      : @2255 (gas: 14)\n 62784: sp = sp + 0xfffffffffffffd00\n 62788: a0 = sp + 0x200\n 62792: u64 [a0 + 0xf8] = ra\n 62796: u64 [a0 + 0xf0] = s0\n 62800: u64 [a0 + 0xe8] = s1\n 62804: s0 = sp + 0x300\n 62808: sp = sp & 0xffffffffffffffe0\n 62811: s1 = sp\n 62813: u64 [s1 + 696] = 0\n 62817: u64 [s1 + 688] = 0\n 62821: u64 [s1 + 680] = 0\n 62825: u64 [s1 + 672] = 0\n 62829: i32 a0 = s1 + 0x2a0\n 62833: jump [t0]\n      : @2256 (gas: 20)\n 62835: a1 = sp + 0x300\n 62839: a0 = u64 [a1 + 0xf8]\n 62843: u64 [sp + 0x48] = a0\n 62846: a0 = u64 [a1 + 0xf0]\n 62850: u64 [sp + 0x40] = a0\n 62853: a0 = u64 [a1 + 0xe8]\n 62857: u64 [sp + 0x38] = a0\n 62860: a0 = u64 [a1 + 0xe0]\n 62864: u64 [sp + 0x98] = a0\n 62868: a1 = sp + 0x400\n 62872: a0 = u64 [a1 + 0x18]\n 62875: u64 [sp + 0x30] = a0\n 62878: a0 = u64 [a1 + 0x10]\n 62881: u64 [sp + 0x28] = a0\n 62884: a0 = u64 [a1 + 0x8]\n 62887: u64 [sp + 0x20] = a0\n 62890: s1 = u64 [a1]\n 62892: a0 = sp + 0x380\n 62896: a1 = 0x40\n 62899: jump [t0]\n      : @2257 (gas: 18)\n 62901: sp = sp + 0xffffffffffffff80\n 62904: u64 [sp + 0x78] = ra\n 62907: u64 [sp + 0x70] = s0\n 62910: u64 [sp + 0x68] = s1\n 62913: s0 = sp + 0x80\n 62917: sp = sp & 0xffffffffffffffe0\n 62920: s1 = sp\n 62922: a2 = u64 [a1]\n 62924: a3 = u64 [a1 + 0x8]\n 62927: a1 = u32 [a1 + 0x10]\n 62930: u64 [s1 + 0x18] = a0\n 62933: u64 [s1 + 88] = 0\n 62936: u64 [s1 + 0x50] = a1\n 62939: u64 [s1 + 0x48] = a3\n 62942: a1 = s1 + 0x40\n 62945: u64 [s1 + 0x40] = a2\n 62948: a0 = 0\n 62950: jump [t0]\n      : @2258 (gas: 17)\n 62952: sp = sp + 0xfffffffffffffde0\n 62956: a2 = sp + 0x200\n 62960: u64 [a2 + 0x18] = ra\n 62963: u64 [a2 + 0x10] = s0\n 62966: u64 [a2 + 0x8] = s1\n 62969: s0 = sp + 0x220\n 62973: sp = sp & 0xfffffffffffffff0\n 62976: a5 = u64 [a1 + 0x18]\n 62979: a4 = u64 [a1 + 0x8]\n 62982: a3 = u64 [a1]\n 62984: s1 = u64 [a1 + 0x10]\n 62987: a1 = a4 | a5\n 62990: a2 = a3 ^ 0xff\n 62994: a2 = a2 | s1\n 62997: a1 = a1 | a2\n 63000: u64 [sp + 0x38] = a0\n 63003: jump [t0]\n      : @2259 (gas: 12)\n 63005: sp = sp + 0xffffffffffffffa0\n 63008: u64 [sp + 0x58] = ra\n 63011: u64 [sp + 0x50] = s0\n 63014: u64 [sp + 0x48] = s1\n 63017: s0 = sp + 0x60\n 63020: sp = sp & 0xffffffffffffffe0\n 63023: s1 = a0\n 63025: a0 = u64 [a1 + 0x18]\n 63028: a2 = u64 [a1 + 0x10]\n 63031: a3 = u64 [a1 + 0x8]\n 63034: a1 = u64 [a1]\n 63036: jump [t0]\n      : @2260 (gas: 5)\n 63038: a0 = sp + 0xffffffffffffffe0\n 63041: a2 = a0 & 0xffffffffffffffe0\n 63044: u64 [s1 + 0x10] = a2\n 63047: sp = a2\n 63049: jump [t0]\n      : @2261 (gas: 11)\n 63051: a2 = u64 [s1 + 0x1e0]\n 63055: a0 = u64 [s1 + 0x1e8]\n 63059: a1 = u64 [s1 + 0x1f0]\n 63063: a3 = u64 [s1 + 0x1f8]\n 63067: u64 [s1 + 0x1b8] = a3\n 63071: u64 [s1 + 0x1b0] = a1\n 63075: u64 [s1 + 0x1a8] = a0\n 63079: a0 = s1 + 0x1c0\n 63083: a1 = s1 + 0x1a0\n 63087: u64 [s1 + 0x1a0] = a2\n 63091: jump [t0]\n      : @2262 (gas: 19)\n 63093: a0 = u64 [s1 + 0x50]\n 63096: u64 [s1 + 0xd8] = a0\n 63100: a0 = u64 [s1 + 0x38]\n 63103: u64 [s1 + 0xd0] = a0\n 63107: a0 = u64 [s1 + 0x40]\n 63110: u64 [s1 + 0xc8] = a0\n 63114: a0 = u64 [s1 + 0x48]\n 63117: u64 [s1 + 0xc0] = a0\n 63121: a0 = u64 [s1 + 0x80]\n 63125: u64 [s1 + 0xf8] = a0\n 63129: a0 = u64 [s1 + 0x88]\n 63133: u64 [s1 + 0xf0] = a0\n 63137: a0 = u64 [s1 + 0x90]\n 63141: u64 [s1 + 0xe8] = a0\n 63145: a0 = s1 + 0xe0\n 63149: a1 = s1 + 0xc0\n 63153: a2 = u64 [s1 + 0x98]\n 63157: u64 [s1 + 0xe0] = a2\n 63161: jump [t0]\n      : @2263 (gas: 7)\n 63163: sp = s0 + 0xfffffffffffffce0\n 63167: a0 = sp + 0x300\n 63171: ra = u64 [a0 + 0x18]\n 63174: s0 = u64 [a0 + 0x10]\n 63177: s1 = u64 [a0 + 0x8]\n 63180: sp = sp + 0x320\n 63184: jump [t0]\n      : @2264 (gas: 20)\n 63186: a0 = u64 [sp + 0xd0]\n 63190: a4 = sp + 0x300\n 63194: u64 [a4 + 0xb8] = a0\n 63198: a0 = u64 [sp + 0xd8]\n 63202: u64 [a4 + 0xb0] = a0\n 63206: a0 = u64 [sp + 0xc8]\n 63210: u64 [a4 + 0xa8] = a0\n 63214: u64 [a4 + 0xa0] = s1\n 63218: a0 = u64 [sp + 0x40]\n 63221: u64 [a4 + 0xd8] = a0\n 63225: a0 = u64 [sp + 0x48]\n 63228: u64 [a4 + 0xd0] = a0\n 63232: a0 = u64 [sp + 0x50]\n 63235: u64 [a4 + 0xc8] = a0\n 63239: a0 = sp + 0x3e0\n 63243: a1 = sp + 0x3c0\n 63247: a2 = sp + 0x3a0\n 63251: a3 = u64 [sp + 0x98]\n 63255: u64 [a4 + 0xc0] = a3\n 63259: jump [t0]\n      : @2265 (gas: 19)\n 63261: a1 = sp + 0x200\n 63265: a0 = u64 [a1 + 0x18]\n 63268: u64 [sp + 0xd0] = a0\n 63272: a0 = u64 [a1 + 0x10]\n 63275: u64 [sp + 0xc8] = a0\n 63279: a0 = u64 [a1 + 0x8]\n 63282: u64 [sp + 0xd8] = a0\n 63286: a0 = u64 [a1]\n 63288: u64 [sp + 0xb8] = a0\n 63292: a0 = u64 [a1 + 0x38]\n 63295: u64 [sp + 0xc0] = a0\n 63299: a0 = u64 [a1 + 0x30]\n 63302: u64 [sp + 0xb0] = a0\n 63306: a0 = u64 [a1 + 0x28]\n 63309: u64 [sp + 0xa0] = a0\n 63313: s1 = u64 [a1 + 0x20]\n 63316: a0 = sp + 0x1a0\n 63320: a1 = 0x40\n 63323: jump [t0]\n      : @2266 (gas: 20)\n 63325: a2 = sp + 0x200\n 63329: a0 = u64 [a2 + 0xa0]\n 63333: u64 [sp + 0xc0] = a0\n 63337: a0 = u64 [a2 + 0xa8]\n 63341: u64 [sp + 0xb8] = a0\n 63345: a0 = u64 [a2 + 0xb0]\n 63349: u64 [sp + 0xb0] = a0\n 63353: a0 = u64 [a2 + 0xb8]\n 63357: u64 [sp + 0xa0] = a0\n 63361: a0 = u64 [sp + 0xd0]\n 63365: u64 [a2 + 0x58] = a0\n 63368: a0 = u64 [sp + 0xd8]\n 63372: u64 [a2 + 0x50] = a0\n 63375: a0 = u64 [sp + 0xc8]\n 63379: u64 [a2 + 0x48] = a0\n 63382: a0 = sp + 0x260\n 63386: a1 = sp + 0x240\n 63390: s1 = u64 [sp + 0xa8]\n 63394: u64 [a2 + 0x40] = s1\n 63397: jump [t0]\n      : @2267 (gas: 15)\n 63399: a0 = u64 [s1 + 0x8]\n 63402: a1 = i32 [s1 + 0x10]\n 63405: a2 = u64 [s1]\n 63407: a0 = reverse a0\n 63409: a3 = a0 << 0x20\n 63412: a1 = reverse a1\n 63414: a1 = a1 >> 0x20\n 63417: a3 = a3 | a1\n 63420: a0 = a0 >> 0x20\n 63423: a1 = reverse a2\n 63425: a2 = a1 << 0x20\n 63428: a0 = a0 | a2\n 63431: a1 = a1 >> 0x20\n 63434: a2 = u64 [sp]\n 63436: jump [t0]\n      : @2268 (gas: 9)\n 63438: a0 = a0 | a1\n 63441: a1 = a0 << 0x10\n 63444: a1 = a1 | a2\n 63447: a0 = a0 | a3\n 63450: a0 = a0 >> 0x30\n 63453: a0 = a0 | a1\n 63456: a3 = a3 << 0x10\n 63459: a0 = a0 | a3\n 63462: jump [t0]\n      : @2269 (gas: 15)\n 63464: a3 = u64 [sp + 0x398]\n 63468: u64 [sp + 0x18] = a3\n 63471: a2 = u64 [sp + 0x390]\n 63475: u64 [sp + 0x50] = a2\n 63478: a5 = u64 [sp + 0x388]\n 63482: u64 [sp + 0x10] = a5\n 63485: a0 = 0xffffffffffffffff\n 63488: s1 = s1 & a0\n 63491: a1 = u64 [sp + 0x20]\n 63494: t2 = a1 & a0\n 63497: a1 = u64 [sp + 0x28]\n 63500: t1 = a1 & a0\n 63503: a1 = u64 [sp + 0x90]\n 63507: a4 = u64 [sp + 0x30]\n 63510: jump [t0]\n      : @2270 (gas: 12)\n 63512: a0 = u64 [s1 + 0x298]\n 63516: u64 [s1 + 0x18] = a0\n 63519: a0 = u64 [s1 + 0x290]\n 63523: u64 [s1 + 0x20] = a0\n 63526: a0 = u64 [s1 + 0x288]\n 63530: u64 [s1 + 0x28] = a0\n 63533: a0 = u64 [s1 + 0x280]\n 63537: u64 [s1 + 0x30] = a0\n 63540: u64 [s1 + 728] = 0\n 63544: u64 [s1 + 720] = 0\n 63548: u64 [s1 + 712] = 0\n 63552: jump [t0]\n      : @2271 (gas: 19)\n 63554: a0 = u64 [sp + 0xd0]\n 63558: u64 [sp + 0x1d8] = a0\n 63562: a0 = u64 [sp + 0xd8]\n 63566: u64 [sp + 0x1d0] = a0\n 63570: a0 = u64 [sp + 0xc8]\n 63574: u64 [sp + 0x1c8] = a0\n 63578: u64 [sp + 0x1c0] = s1\n 63582: a0 = u64 [sp + 0xa0]\n 63586: u64 [sp + 0x1f8] = a0\n 63590: a0 = u64 [sp + 0xb0]\n 63594: u64 [sp + 0x1f0] = a0\n 63598: a0 = u64 [sp + 0xb8]\n 63602: u64 [sp + 0x1e8] = a0\n 63606: a0 = sp + 0x200\n 63610: a1 = sp + 0x1e0\n 63614: a2 = sp + 0x1c0\n 63618: a3 = u64 [sp + 0xc0]\n 63622: u64 [sp + 0x1e0] = a3\n 63626: jump [t0]\n      : @2272 (gas: 16)\n 63628: a4 = s1 + 0x200\n 63632: a0 = u64 [a4 + 0x78]\n 63635: a1 = u64 [a4 + 0x70]\n 63638: a2 = u64 [a4 + 0x68]\n 63641: a3 = u64 [a4 + 0x60]\n 63644: u64 [s1 + 0xb0] = a0\n 63648: u64 [a4 + 0x38] = a0\n 63651: u64 [s1 + 0xa8] = a1\n 63655: u64 [a4 + 0x30] = a1\n 63658: u64 [s1 + 0xa0] = a2\n 63662: u64 [a4 + 0x28] = a2\n 63665: a0 = s1 + 0x240\n 63669: a1 = s1 + 0x220\n 63673: u64 [s1 + 0xb8] = a3\n 63677: u64 [a4 + 0x20] = a3\n 63680: jump [t0]\n      : @2273 (gas: 14)\n 63682: a1 = u64 [a3 + 0x8]\n 63685: a2 = i32 [a3 + 0x10]\n 63688: a3 = u64 [a3]\n 63690: a1 = reverse a1\n 63692: a4 = a1 << 0x20\n 63695: a2 = reverse a2\n 63697: a2 = a2 >> 0x20\n 63700: a2 = a2 | a4\n 63703: a1 = a1 >> 0x20\n 63706: a3 = reverse a3\n 63708: a4 = a3 << 0x20\n 63711: a1 = a1 | a4\n 63714: a3 = a3 >> 0x20\n 63717: jump [t0]\n      : @2274 (gas: 19)\n 63719: a0 = u64 [sp + 0x1f8]\n 63723: a1 = u64 [sp + 0x1f0]\n 63727: u64 [sp + 0x50] = a1\n 63730: a2 = u64 [sp + 0x1e8]\n 63734: u64 [sp + 0x40] = a2\n 63737: a3 = u64 [sp + 0x1e0]\n 63741: u64 [sp + 0x58] = a3\n 63744: u64 [sp + 440] = 0\n 63748: u64 [sp + 432] = 0\n 63752: u64 [sp + 424] = 0\n 63756: u64 [sp + 0x1a0] = s1\n 63760: s1 = a0\n 63762: u64 [sp + 0x1d8] = a0\n 63766: u64 [sp + 0x1d0] = a1\n 63770: u64 [sp + 0x1c8] = a2\n 63774: a0 = sp + 0x1c0\n 63778: a1 = sp + 0x1a0\n 63782: u64 [sp + 0x1c0] = a3\n 63786: jump [t0]\n      : @2275 (gas: 12)\n 63788: sp = sp + 0xfffffffffffffb40\n 63792: a3 = sp + 0x400\n 63796: u64 [a3 + 0xb8] = ra\n 63800: u64 [a3 + 0xb0] = s0\n 63804: u64 [a3 + 0xa8] = s1\n 63808: s0 = sp + 0x4c0\n 63812: sp = sp & 0xfffffffffffffff0\n 63815: t1 = u64 [a1 + 0x8]\n 63818: t2 = u64 [a1]\n 63820: a4 = u64 [a0]\n 63822: a5 = u64 [a0 + 0x8]\n 63825: jump [t0]\n      : @2276 (gas: 16)\n 63827: a1 = s1 + 0x300\n 63831: a2 = u64 [a1 + 0x50]\n 63834: a0 = u64 [a1 + 0x58]\n 63837: a4 = u64 [a1 + 0x40]\n 63840: a3 = u64 [a1 + 0x48]\n 63843: a1 = u64 [s1 + 0x50]\n 63846: u64 [s1 + 0x28] = a2\n 63849: u64 [a1 + 0x10] = a2\n 63852: u64 [s1 + 0x30] = a0\n 63855: u64 [a1 + 0x18] = a0\n 63858: u64 [s1 + 0x18] = a4\n 63861: u64 [a1] = a4\n 63863: u64 [s1 + 0x20] = a3\n 63866: u64 [a1 + 0x8] = a3\n 63869: a0 = s1 + 0x2e0\n 63873: jump [t0]\n      : @2277 (gas: 15)\n 63875: a0 = u64 [sp + 0x38]\n 63878: a1 = u64 [sp + 0x58]\n 63881: u64 [a0] = a1\n 63883: a1 = u64 [sp + 0x40]\n 63886: u64 [a0 + 0x8] = a1\n 63889: u64 [a0 + 0x10] = s1\n 63892: a1 = u64 [sp + 0x48]\n 63895: u64 [a0 + 0x18] = a1\n 63898: sp = s0 + 0xfffffffffffffde0\n 63902: a0 = sp + 0x200\n 63906: ra = u64 [a0 + 0x18]\n 63909: s0 = u64 [a0 + 0x10]\n 63912: s1 = u64 [a0 + 0x8]\n 63915: sp = sp + 0x220\n 63919: jump [t0]\n      : @2278 (gas: 16)\n 63921: u64 [s1 + 0x18] = a5\n 63924: u64 [s1 + 0x20] = a4\n 63927: u64 [s1 + 0x28] = a3\n 63930: u64 [s1 + 0x30] = a2\n 63933: a0 = u64 [s1 + 0x78]\n 63936: a2 = s1 + 0x200\n 63940: u64 [a2 + 0x20] = a0\n 63943: a0 = u64 [s1 + 0x70]\n 63946: u64 [a2 + 0x28] = a0\n 63949: a0 = u64 [s1 + 0x68]\n 63952: u64 [a2 + 0x30] = a0\n 63955: a1 = s1 + 0x220\n 63959: a0 = u64 [s1 + 0x60]\n 63962: u64 [a2 + 0x38] = a0\n 63965: a0 = 0\n 63967: jump [t0]\n      : @2279 (gas: 11)\n 63969: a4 = sp + 0xffffffffffffffe0\n 63972: a4 = a4 & 0xffffffffffffffe0\n 63975: u64 [s1 + 0x50] = a4\n 63978: sp = a4\n 63980: u64 [s1 + 0x378] = a3\n 63984: u64 [s1 + 0x370] = a1\n 63988: u64 [s1 + 0x368] = a0\n 63992: a0 = s1 + 0x380\n 63996: a1 = s1 + 0x360\n 64000: u64 [s1 + 0x360] = a2\n 64004: jump [t0]\n      : @2280 (gas: 4)\n 64006: i32 a1 = a0 + 0\n 64008: a2 = 0x20\n 64011: a0 = 0\n 64013: jump [t0]\n      : @2281 (gas: 15)\n 64015: a5 = u64 [s1 + 0x30]\n 64018: t2 = 0\n 64020: t1 = 0\n 64022: u64 [s1 + 176] = 0\n 64026: a0 = u64 [s1 + 0x68]\n 64029: a1 = u64 [s1 + 0x60]\n 64032: a0 = a0 | a1\n 64035: a1 = u64 [s1 + 0x78]\n 64038: a2 = u64 [s1 + 0x70]\n 64041: a1 = a1 | a2\n 64044: a0 = a0 | a1\n 64047: a0 = a0 >u 0\n 64049: a0 = a0 << 0x5\n 64052: u64 [s1 + 0xb8] = a0\n 64056: jump [t0]\n      : @2282 (gas: 5)\n 64058: a0 = sp + 0xffffffffffffffe0\n 64061: a2 = a0 & 0xffffffffffffffe0\n 64064: u64 [s1 + 0x18] = a2\n 64067: sp = a2\n 64069: jump [t0]\n      : @2283 (gas: 8)\n 64071: a2 = 0\n 64073: u64 [s1 + 184] = 0\n 64077: u64 [s1 + 176] = 0\n 64081: u64 [s1 + 160] = 0x30\n 64086: a0 = 0x4\n 64089: a1 = s1 + 0xa0\n 64093: u64 [s1 + 168] = 0\n 64097: jump [t0]\n      : @2284 (gas: 11)\n 64099: a0 = u64 [sp]\n 64101: u64 [sp + 0x20] = a0\n 64104: a0 = u64 [sp + 0x8]\n 64107: u64 [sp + 0x28] = a0\n 64110: a0 = u64 [sp + 0x10]\n 64113: u64 [sp + 0x30] = a0\n 64116: a1 = sp + 0x20\n 64119: a0 = u64 [sp + 0x18]\n 64122: u64 [sp + 0x38] = a0\n 64125: a0 = s1\n 64127: jump [t0]\n      : @2285 (gas: 10)\n 64129: u64 [s1 + 0x78] = a0\n 64132: u64 [s1 + 0x80] = a1\n 64136: a0 = u64 [s1 + 0x70]\n 64139: a0 = a0 | a1\n 64142: u64 [s1 + 0x70] = a0\n 64145: a0 = u64 [s1 + 0xb8]\n 64149: a2 = a0 + 0xffffffffffffff80\n 64152: a0 = 0xffffffffffffffff\n 64155: a1 = 0xffffffffffffffff\n 64158: jump [t0]\n      : @2286 (gas: 4)\n 64160: u64 [s1 + 728] = 0\n 64164: u64 [s1 + 720] = 0\n 64168: u64 [s1 + 712] = 0\n 64172: jump [t0]\n      : @2287 (gas: 15)\n 64174: a5 = s1 + 0x200\n 64178: a2 = u64 [a5 + 0x58]\n 64181: a3 = u64 [a5 + 0x50]\n 64184: a1 = u64 [a5 + 0x48]\n 64187: a4 = u64 [a5 + 0x40]\n 64190: u64 [s1 + 0x60] = a4\n 64193: u64 [a5] = a4\n 64195: u64 [s1 + 0x70] = a1\n 64198: u64 [a5 + 0x8] = a1\n 64201: u64 [s1 + 0x68] = a3\n 64204: u64 [a5 + 0x10] = a3\n 64207: a1 = s1 + 0x200\n 64211: u64 [s1 + 0x78] = a2\n 64214: u64 [a5 + 0x18] = a2\n 64217: jump [t0]\n      : @2288 (gas: 11)\n 64219: a0 = u64 [s1 + 0x38]\n 64222: u64 [s1 + 0x200] = a0\n 64226: a0 = u64 [s1 + 0x40]\n 64229: u64 [s1 + 0x208] = a0\n 64233: a0 = u64 [s1 + 0x48]\n 64236: u64 [s1 + 0x210] = a0\n 64240: a0 = s1 + 0x220\n 64244: a1 = s1 + 0x200\n 64248: a2 = u64 [s1 + 0x50]\n 64251: u64 [s1 + 0x218] = a2\n 64255: jump [t0]\n      : @2289 (gas: 5)\n 64257: u64 [s1 + 0x100] = a0\n 64261: a0 = 0x20\n 64264: a1 = s1 + 0x100\n 64268: u64 [s1 + 264] = 0\n 64272: jump [t0]\n      : @2290 (gas: 12)\n 64274: a0 = u64 [sp + 0xe8]\n 64278: a1 = u64 [sp + 0xf8]\n 64282: u64 [sp + 0x30] = a1\n 64285: t2 = u64 [sp + 0xe0]\n 64289: a3 = u64 [sp + 0xf0]\n 64293: a4 = a0 ^ s1\n 64296: a5 = a0 <u s1\n 64299: t1 = s1\n 64301: ra = u64 [sp + 0x58]\n 64304: a1 = t2 <u ra\n 64307: a5 = a1 if a4 == 0\n 64310: jump [t0]\n      : @2291 (gas: 13)\n 64312: sp = sp + 0xfffffffffffffec0\n 64316: u64 [sp + 0x138] = ra\n 64320: u64 [sp + 0x130] = s0\n 64324: u64 [sp + 0x128] = s1\n 64328: s0 = sp + 0x140\n 64332: sp = sp & 0xffffffffffffffe0\n 64335: s1 = sp\n 64337: u64 [s1 + 248] = 0\n 64341: u64 [s1 + 240] = 0\n 64345: u64 [s1 + 232] = 0\n 64349: u64 [s1 + 224] = 0\n 64353: i32 a0 = s1 + 0xe0\n 64357: jump [t0]\n      : @2292 (gas: 8)\n 64359: u64 [s1 + 432] = 0\n 64363: u64 [s1 + 424] = 0\n 64367: u64 [s1 + 416] = 0\n 64371: a0 = 0x2520601d00000000\n 64381: a1 = s1 + 0x1a0\n 64385: u64 [s1 + 0x1b8] = a0\n 64389: a0 = 0\n 64391: jump [t0]\n      : @2293 (gas: 16)\n 64393: a4 = u64 [a3]\n 64395: u64 [sp + 0x18] = a4\n 64398: a4 = u64 [a3 + 0x8]\n 64401: u64 [sp + 0x20] = a4\n 64404: a4 = u64 [a3 + 0x10]\n 64407: u64 [sp + 0x28] = a4\n 64410: a3 = u64 [a3 + 0x18]\n 64413: u64 [sp + 0x30] = a3\n 64416: s1 = u64 [a2]\n 64418: a3 = u64 [a2 + 0x8]\n 64421: u64 [sp] = a3\n 64423: a3 = u64 [a2 + 0x10]\n 64426: u64 [sp + 0x8] = a3\n 64429: a2 = u64 [a2 + 0x18]\n 64432: u64 [sp + 0x10] = a2\n 64435: jump [t0]\n      : @2294 (gas: 12)\n 64437: a1 = a3 & 0xffffffffffffff00\n 64441: i32 a0 = a4 + 0x20\n 64444: a3 = u64 [s1 + 0xa0]\n 64448: a2 = s1 + 0x100\n 64452: u64 [a2 + 0x88] = a3\n 64456: u64 [a2 + 0x80] = a1\n 64460: a1 = u64 [s1 + 0xa8]\n 64464: u64 [a2 + 0x90] = a1\n 64468: a1 = s1 + 0x180\n 64472: a3 = u64 [s1 + 0xb0]\n 64476: u64 [a2 + 0x98] = a3\n 64480: jump [t0]\n      : @2295 (gas: 10)\n 64482: a0 = s1 + 0x200\n 64486: a5 = u64 [a0 + 0x58]\n 64489: a4 = u64 [a0 + 0x50]\n 64492: a2 = u64 [a0 + 0x40]\n 64495: a3 = u64 [a0 + 0x48]\n 64498: a0 = a4 | a5\n 64501: a1 = a2 <u 0x20\n 64504: a1 = 0 if a3 != 0\n 64506: a1 = 0 if a0 != 0\n 64508: jump [t0]\n      : @2296 (gas: 10)\n 64510: a0 = s1 + 0x200\n 64514: a4 = u64 [a0 + 0xd8]\n 64518: a5 = u64 [a0 + 0xd0]\n 64522: a3 = u64 [a0 + 0xc0]\n 64526: a2 = u64 [a0 + 0xc8]\n 64530: a0 = a5 | a4\n 64533: a1 = a3 <u 0x6\n 64536: a1 = 0 if a2 != 0\n 64538: a1 = 0 if a0 != 0\n 64540: jump [t0]\n      : @2297 (gas: 10)\n 64542: a0 = u64 [s1 + 0x1e0]\n 64546: u64 [s1 + 0x50] = a0\n 64549: a0 = u64 [s1 + 0x1e8]\n 64553: u64 [s1 + 0x48] = a0\n 64556: a0 = u64 [s1 + 0x1f0]\n 64560: u64 [s1 + 0x40] = a0\n 64563: a0 = u64 [s1 + 0x1f8]\n 64567: u64 [s1 + 0x38] = a0\n 64570: i32 a0 = s1 + 0x2e0\n 64574: jump [t0]\n      : @2298 (gas: 15)\n 64576: a0 = u64 [sp + 0x118]\n 64580: u64 [sp + 0x48] = a0\n 64583: a2 = u64 [sp + 0x110]\n 64587: u64 [sp + 0x50] = a2\n 64590: s1 = u64 [sp + 0x108]\n 64594: u64 [sp + 0x40] = s1\n 64597: a1 = u64 [sp + 0x100]\n 64601: u64 [sp + 0x58] = a1\n 64604: u64 [sp + 0xb8] = a0\n 64608: u64 [sp + 0xb0] = a2\n 64612: u64 [sp + 0xa8] = s1\n 64616: u64 [sp + 0xa0] = a1\n 64620: u64 [sp + 216] = 0\n 64624: u64 [sp + 208] = 0\n 64628: jump [t0]\n      : @2299 (gas: 11)\n 64630: u64 [s1 + 0x88] = a3\n 64634: u64 [a5] = a3\n 64636: u64 [a5 + 0x10] = a0\n 64639: a3 = t2\n 64641: u64 [a5 + 0x18] = t2\n 64644: u64 [s1 + 0x68] = a0\n 64647: t1 = u64 [s1 + 0x60]\n 64650: t2 = u64 [s1 + 0x90]\n 64654: u64 [s1 + 0xb8] = ra\n 64658: a5 = a1\n 64660: jump [t0]\n      : @2300 (gas: 11)\n 64662: a3 = u64 [s1 + 0x18]\n 64665: a0 = u64 [a3 + 0x18]\n 64668: a1 = u64 [a3 + 0x10]\n 64671: a2 = u64 [a3 + 0x8]\n 64674: a3 = u64 [a3]\n 64676: a4 = reverse a0\n 64678: a0 = reverse a1\n 64680: a1 = reverse a2\n 64682: a2 = reverse a3\n 64684: a3 = u64 [s1 + 0x20]\n 64687: jump [t0]\n      : @2301 (gas: 15)\n 64689: a0 = u64 [sp + 0x198]\n 64693: a1 = u64 [sp + 0x190]\n 64697: a2 = u64 [sp + 0x188]\n 64701: a3 = u64 [sp + 0x180]\n 64705: u64 [sp + 0x18] = a0\n 64708: u64 [sp + 0x158] = a0\n 64712: u64 [sp + 0x10] = a1\n 64715: u64 [sp + 0x150] = a1\n 64719: u64 [sp + 0x8] = a2\n 64722: u64 [sp + 0x148] = a2\n 64726: a0 = sp + 0x160\n 64730: a1 = sp + 0x140\n 64734: u64 [sp] = a3\n 64736: u64 [sp + 0x140] = a3\n 64740: jump [t0]\n      : @2302 (gas: 10)\n 64742: a0 = u64 [s1 + 0x20]\n 64745: a1 = u64 [s1 + 0x18]\n 64748: a0 = a0 | a1\n 64751: a1 = 0xffffffe0\n 64761: a4 = u64 [s1 + 0x30]\n 64764: a1 = a4 <u a1\n 64767: a2 = u64 [s1 + 0x28]\n 64770: a1 = 0 if a2 != 0\n 64772: a1 = 0 if a0 != 0\n 64774: jump [t0]\n      : @2303 (gas: 7)\n 64776: a0 = sp + 0xffffffffffffffe0\n 64779: a0 = a0 & 0xffffffffffffffe0\n 64782: u64 [s1 + 0xa0] = a0\n 64786: sp = a0\n 64788: u64 [s1 + 280] = 0\n 64792: u64 [s1 + 272] = 0\n 64796: jump [t0]\n      : @2304 (gas: 12)\n 64798: a3 = s1 + 0x100\n 64802: a2 = u64 [a3 + 0xd8]\n 64806: a1 = u64 [a3 + 0xd0]\n 64810: a5 = u64 [a3 + 0xc8]\n 64814: a4 = u64 [a3 + 0xc0]\n 64818: u64 [a3 + 0xa0] = a4\n 64822: u64 [a3 + 0xa8] = a5\n 64826: u64 [a3 + 0xb0] = a1\n 64830: a1 = s1 + 0x1a0\n 64834: u64 [a3 + 0xb8] = a2\n 64838: u64 [s1 + 0xb8] = t2\n 64842: jump [t0]\n      : @2305 (gas: 10)\n 64844: a0 = u64 [sp + 0x10]\n 64847: a1 = u64 [sp + 0x18]\n 64850: a2 = 0x100000000\n 64860: a2 = a2 ^ a0\n 64863: a2 = a2 | a1\n 64866: a3 = a0 >> 0x20\n 64869: a3 = a3 <u 0x1\n 64872: a3 = 0 if a1 != 0\n 64874: a3 = 0 if a2 == 0\n 64876: jump [t0]\n      : @2306 (gas: 8)\n 64878: u64 [s1 + 0x220] = a3\n 64882: u64 [s1 + 0x258] = a2\n 64886: u64 [s1 + 0x250] = a1\n 64890: u64 [s1 + 0x248] = a0\n 64894: a0 = s1 + 0x260\n 64898: a1 = s1 + 0x240\n 64902: a2 = s1 + 0x220\n 64906: jump [t0]\n      : @2307 (gas: 6)\n 64908: sp = s0 + 0xffffffffffffff80\n 64911: ra = u64 [sp + 0x78]\n 64914: s0 = u64 [sp + 0x70]\n 64917: s1 = u64 [sp + 0x68]\n 64920: sp = sp + 0x80\n 64924: jump [t0]\n      : @2308 (gas: 12)\n 64926: a4 = s1 + 0x200\n 64930: a2 = u64 [a4 + 0xa0]\n 64934: a0 = u64 [a4 + 0xa8]\n 64938: a1 = u64 [a4 + 0xb0]\n 64942: a3 = u64 [a4 + 0xb8]\n 64946: u64 [s1 + 0x98] = a3\n 64950: u64 [s1 + 0x90] = a1\n 64954: u64 [s1 + 0x88] = a0\n 64958: a0 = 0x24\n 64961: a1 = s1 + 0x80\n 64965: u64 [s1 + 0x80] = a2\n 64969: jump [t0]\n      : @2309 (gas: 6)\n 64971: sp = s0 + 0xffffffffffffff60\n 64975: ra = u64 [sp + 0x98]\n 64979: s0 = u64 [sp + 0x90]\n 64983: s1 = u64 [sp + 0x88]\n 64987: sp = sp + 0xa0\n 64991: jump [t0]\n      : @2310 (gas: 11)\n 64993: a1 = u64 [s1 + 0x28]\n 64996: a0 = a0 & a1\n 64999: u64 [s1 + 0x40] = a0\n 65002: a0 = sp + 0xffffffffffffffe0\n 65005: a0 = a0 & 0xffffffffffffffe0\n 65008: u64 [s1 + 0x38] = a0\n 65011: sp = a0\n 65013: i32 a2 = a0 + 0\n 65015: a1 = 0x40\n 65018: a0 = u64 [s1 + 0x30]\n 65021: jump [t0]\n      : @2311 (gas: 13)\n 65023: a2 = u64 [a2 + 0x8]\n 65026: u64 [sp + 0x20] = a2\n 65029: a2 = u64 [a1]\n 65031: u64 [sp + 0x40] = a2\n 65034: a2 = u64 [a1 + 0x8]\n 65037: u64 [sp + 0x48] = a2\n 65040: a2 = u64 [a1 + 0x10]\n 65043: u64 [sp + 0x50] = a2\n 65046: a1 = u64 [a1 + 0x18]\n 65049: u64 [sp + 0x58] = a1\n 65052: s1 = a0\n 65054: i32 a0 = sp + 0x180\n 65058: jump [t0]\n      : @2312 (gas: 9)\n 65060: a0 = u64 [sp + 0x48]\n 65063: a1 = u64 [sp + 0x50]\n 65066: a0 = a0 | a1\n 65069: a1 = 0xffffffe0\n 65079: a1 = s1 <u a1\n 65082: a2 = u64 [sp + 0x40]\n 65085: a1 = 0 if a2 != 0\n 65087: a1 = 0 if a0 != 0\n 65089: jump [t0]\n      : @2313 (gas: 6)\n 65091: a1 = a1 | a0\n 65094: a1 = a1 >> 0x20\n 65097: a0 = a0 | a3\n 65100: a0 = a0 << 0x20\n 65103: a0 = a0 | a1\n 65106: jump [t0]\n      : @2314 (gas: 8)\n 65108: t1 = u64 [s1 + 0x50]\n 65111: a1 = t1 + 0x1f\n 65114: a0 = a1 <u t1\n 65117: a5 = u64 [s1 + 0x58]\n 65120: a3 = a5 + a0\n 65123: a2 = a3 <u a5\n 65126: a2 = a0 if a0 == 0\n 65129: jump [t0]\n      : @2315 (gas: 14)\n 65131: a0 = u64 [sp + 0x10]\n 65134: u64 [sp + 0x90] = a0\n 65138: a0 = u64 [sp + 0x50]\n 65141: u64 [sp + 0xb0] = a0\n 65145: u64 [sp + 0x78] = a3\n 65148: a0 = u64 [sp + 0x18]\n 65151: u64 [sp + 0x98] = a0\n 65155: a0 = sp + 0xc0\n 65159: a1 = sp + 0xa0\n 65163: a2 = sp + 0x80\n 65167: a3 = sp + 0x60\n 65170: a4 = u64 [sp + 0x58]\n 65173: u64 [sp + 0xb8] = a4\n 65177: jump [t0]\n      : @2316 (gas: 12)\n 65179: a0 = u64 [s1 + 0xd8]\n 65183: a1 = u64 [s1 + 0xd0]\n 65187: a2 = u64 [s1 + 0xc8]\n 65191: a3 = u64 [s1 + 0xc0]\n 65195: a4 = s1 + 0x200\n 65199: u64 [a4 + 0x98] = a0\n 65203: u64 [a4 + 0x90] = a1\n 65207: u64 [a4 + 0x88] = a2\n 65211: u64 [a4 + 0x80] = a3\n 65215: a1 = s1 + 0x280\n 65219: a0 = u64 [s1 + 0xa0]\n 65223: jump [t0]\n      : @2317 (gas: 10)\n 65225: a3 = u64 [s1 + 0x28]\n 65228: a0 = u64 [a3 + 0x18]\n 65231: a1 = u64 [a3 + 0x10]\n 65234: a2 = u64 [a3 + 0x8]\n 65237: a3 = u64 [a3]\n 65239: a0 = reverse a0\n 65241: a1 = reverse a1\n 65243: a2 = reverse a2\n 65245: a3 = reverse a3\n 65247: jump [t0]\n      : @2318 (gas: 13)\n 65249: ra = u64 [sp + 0x98]\n 65253: a1 = s1\n 65255: s1 = u64 [sp + 0xb8]\n 65259: a0 = u64 [sp + 0xb0]\n 65263: a2 = a0\n 65265: a0 = a0 | ra\n 65268: a1 = a1 | s1\n 65271: a1 = a1 | a0\n 65274: a1 = a1 >> 0x20\n 65277: a0 = a0 | s1\n 65280: a0 = a0 << 0x20\n 65283: a0 = a0 | a1\n 65286: jump [t0]\n      : @2319 (gas: 7)\n 65288: u64 [s1 + 0x120] = a3\n 65292: u64 [s1 + 0x128] = a1\n 65296: u64 [s1 + 0x130] = a0\n 65300: a0 = s1 + 0x140\n 65304: a1 = s1 + 0x120\n 65308: u64 [s1 + 0x138] = a2\n 65312: jump [t0]\n      : @2320 (gas: 10)\n 65314: a0 = u64 [s1 + 0xc0]\n 65318: a1 = u64 [s1 + 0xc8]\n 65322: a2 = u32 [s1 + 0xd0]\n 65326: u64 [s1 + 184] = 0\n 65330: u64 [s1 + 0xb0] = a2\n 65334: u64 [s1 + 0xa8] = a1\n 65338: a1 = s1 + 0xa0\n 65342: u64 [s1 + 0xa0] = a0\n 65346: a0 = 0\n 65348: jump [t0]\n      : @2321 (gas: 7)\n 65350: u64 [s1 + 0x280] = a3\n 65354: u64 [s1 + 0x288] = a2\n 65358: u64 [s1 + 0x290] = a5\n 65362: a0 = s1 + 0x2a0\n 65366: a1 = s1 + 0x280\n 65370: u64 [s1 + 0x298] = a4\n 65374: jump [t0]\n      : @2322 (gas: 11)\n 65376: a4 = a4 + a1\n 65379: a1 = a4 <u a1\n 65382: a1 = a1 + a5\n 65385: a1 = a1 | a2\n 65388: a2 = a0 | a4\n 65391: a2 = a2 | a1\n 65394: a1 = a1 | a4\n 65397: a2 = a2 >> 0x20\n 65400: a1 = a1 << 0x20\n 65403: a1 = a1 | a2\n 65406: jump [t0]\n      : @2323 (gas: 9)\n 65408: u64 [sp + 112] = 0\n 65411: u64 [sp + 104] = 0\n 65414: u64 [sp + 96] = 0\n 65417: a0 = 0x6dfcc65000000000\n 65427: a1 = sp + 0x60\n 65430: u64 [sp + 0x78] = a0\n 65433: a0 = 0\n 65435: u64 [sp + 0x18] = a3\n 65438: jump [t0]\n      : @2324 (gas: 6)\n 65440: a2 = a2 + a4\n 65443: a2 = a2 + a1\n 65446: a3 = a2 ^ a4\n 65449: a4 = a2 <u a4\n 65452: a4 = a1 if a3 == 0\n 65455: jump [t0]\n      : @2325 (gas: 12)\n 65457: a0 = u64 [s1]\n 65459: u64 [s1 + 0x20] = a0\n 65462: a0 = u64 [s1 + 0x8]\n 65465: u64 [s1 + 0x28] = a0\n 65468: a0 = u64 [s1 + 0x10]\n 65471: u64 [s1 + 0x30] = a0\n 65474: a1 = s1 + 0x20\n 65477: a0 = u64 [s1 + 0x18]\n 65480: u64 [s1 + 0x38] = a0\n 65483: a0 = a3\n 65485: u64 [s1 + 0x18] = a3\n 65488: jump [t0]\n      : @2326 (gas: 5)\n 65490: a0 = u64 [0x200f8]\n 65495: a2 = u64 [0x20100]\n 65500: a3 = u64 [0x20108]\n 65505: a4 = u64 [0x20110]\n 65510: jump [t0]\n      : @2327 (gas: 5)\n 65512: a0 = u64 [0x20040]\n 65517: a2 = u64 [0x20048]\n 65522: a3 = u64 [0x20050]\n 65527: a4 = u64 [0x20058]\n 65532: jump [t0]\n      : @2328 (gas: 12)\n 65534: a2 = u64 [a0 + 0x10]\n 65537: a3 = u64 [a0 + 0x18]\n 65540: a4 = u64 [a0 + 0x8]\n 65543: a0 = u64 [a0]\n 65545: a3 = a3 | a4\n 65548: a4 = a0 | a2\n 65551: a4 = a4 | a3\n 65554: a4 = a4 >> 0x20\n 65557: a2 = a2 | a3\n 65560: a2 = a2 << 0x20\n 65563: a2 = a2 | a4\n 65566: jump [t0]\n      : @2329 (gas: 10)\n 65568: sp = sp + 0xffffffffffffffc0\n 65571: u64 [sp + 0x38] = ra\n 65574: u64 [sp + 0x30] = s0\n 65577: u64 [sp + 0x28] = s1\n 65580: s0 = sp + 0x40\n 65583: sp = sp & 0xffffffffffffffe0\n 65586: s1 = a0\n 65588: i32 a0 = sp + 0\n 65590: a1 = 0x24\n 65593: jump [t0]\n      : @2330 (gas: 12)\n 65595: a2 = u64 [sp]\n 65597: a3 = u64 [sp + 0x8]\n 65600: u64 [s1] = a2\n 65602: u64 [s1 + 0x8] = a3\n 65605: u64 [s1 + 0x10] = a0\n 65608: u64 [s1 + 0x18] = a1\n 65611: sp = s0 + 0xffffffffffffffc0\n 65614: ra = u64 [sp + 0x38]\n 65617: s0 = u64 [sp + 0x30]\n 65620: s1 = u64 [sp + 0x28]\n 65623: sp = sp + 0x40\n 65626: jump [t0]\n      : @2331 (gas: 8)\n 65628: sp = sp + 0xffffffffffffff40\n 65632: u64 [sp + 0xb8] = ra\n 65636: u64 [sp + 0xb0] = s0\n 65640: u64 [sp + 0xa8] = s1\n 65644: s0 = sp + 0xc0\n 65648: sp = sp & 0xffffffffffffffe0\n 65651: s1 = sp\n 65653: jump [t0]\n      : @2332 (gas: 12)\n 65655: a0 = u64 [s1 + 0x30]\n 65658: a1 = u64 [s1 + 0x18]\n 65661: a2 = u64 [s1 + 0x28]\n 65664: a2 = a2 | a1\n 65667: a3 = u64 [s1 + 0x20]\n 65670: a1 = a0 | a3\n 65673: a1 = a1 | a2\n 65676: a1 = a1 >> 0x20\n 65679: a2 = a2 | a3\n 65682: a2 = a2 << 0x20\n 65685: a1 = a1 | a2\n 65688: jump [t0]\n      : @2333 (gas: 8)\n 65690: a0 = a0 | a2\n 65693: a2 = a1 | a3\n 65696: a2 = a2 | a0\n 65699: a2 = a2 >> 0x20\n 65702: a0 = a0 | a3\n 65705: a0 = a0 << 0x20\n 65708: a0 = a0 | a2\n 65711: jump [t0]\n      : @2334 (gas: 5)\n 65713: u64 [s1 + 0x100] = a0\n 65717: a0 = s1 + 0x120\n 65721: a1 = s1 + 0x100\n 65725: u64 [s1 + 264] = 0\n 65729: jump [t0]\n      : @2335 (gas: 9)\n 65731: a0 = s1 + 0x200\n 65735: a3 = u64 [a0 + 0x58]\n 65738: a2 = u64 [a0 + 0x50]\n 65741: a4 = u64 [a0 + 0x48]\n 65744: a5 = u64 [a0 + 0x40]\n 65747: a0 = a4 | a3\n 65750: a1 = a5 | a2\n 65753: a0 = a0 | a1\n 65756: jump [t0]\n      : @2336 (gas: 9)\n 65758: a4 = s1 + 0x300\n 65762: a3 = u64 [a4 + 0xb8]\n 65766: a1 = u64 [a4 + 0xb0]\n 65770: a0 = u64 [a4 + 0xa8]\n 65774: a2 = u64 [a4 + 0xa0]\n 65778: a4 = a0 | a3\n 65781: a5 = a2 | a1\n 65784: a4 = a4 | a5\n 65787: jump [t0]\n      : @2337 (gas: 9)\n 65789: a4 = sp + 0x300\n 65793: a0 = u64 [a4 + 0x68]\n 65796: a1 = u64 [a4 + 0x78]\n 65799: u64 [sp + 0x48] = a1\n 65802: t2 = u64 [a4 + 0x60]\n 65805: a3 = u64 [a4 + 0x70]\n 65808: a4 = a0 ^ a2\n 65811: a5 = a0 <u a2\n 65814: jump [t0]\n      : @2338 (gas: 8)\n 65816: a0 = u64 [a2 + 0x8]\n 65819: a1 = u64 [a2]\n 65821: a2 = i32 [a2 + 0x10]\n 65824: a0 = reverse a0\n 65826: a3 = a0 >> 0x20\n 65829: a1 = reverse a1\n 65831: a4 = a1 << 0x20\n 65834: jump [t0]\n      : @2339 (gas: 7)\n 65836: a3 = u64 [s1 + 0x38]\n 65839: u64 [s1 + 0x180] = a3\n 65843: u64 [s1 + 0x1a0] = a2\n 65847: u64 [s1 + 472] = 0\n 65851: u64 [s1 + 464] = 0\n 65855: u64 [s1 + 456] = 0\n 65859: jump [t0]\n      : @2340 (gas: 9)\n 65861: a4 = s1 + 0x100\n 65865: a2 = u64 [a4 + 0xf8]\n 65869: a0 = u64 [a4 + 0xf0]\n 65873: a1 = u64 [a4 + 0xe8]\n 65877: a3 = u64 [a4 + 0xe0]\n 65881: a4 = a1 | a2\n 65884: a5 = a3 | a0\n 65887: a4 = a4 | a5\n 65890: jump [t0]\n      : @2341 (gas: 12)\n 65892: u64 [sp + 0x48] = s1\n 65895: a0 = u64 [sp + 0x40]\n 65898: a0 = a0 | s1\n 65901: a2 = u64 [sp + 0x50]\n 65904: a1 = u64 [sp + 0x58]\n 65907: a1 = a1 | a2\n 65910: a1 = a1 | a0\n 65913: a1 = a1 >> 0x20\n 65916: a0 = a0 | a2\n 65919: a0 = a0 << 0x20\n 65922: a0 = a0 | a1\n 65925: jump [t0]\n      : @2342 (gas: 8)\n 65927: a1 = sp + 0xffffffffffffffe0\n 65930: a2 = a1 & 0xffffffffffffffe0\n 65933: u64 [s1 + 0x130] = a2\n 65937: sp = a2\n 65939: i32 a0 = a0 + 0\n 65941: a1 = i32 [s1 + 0x138]\n 65945: i32 a2 = a2 + 0\n 65947: jump [t0]\n      : @2343 (gas: 9)\n 65949: sp = sp + 0xfffffffffffffc40\n 65953: a0 = sp + 0x300\n 65957: u64 [a0 + 0xb8] = ra\n 65961: u64 [a0 + 0xb0] = s0\n 65965: u64 [a0 + 0xa8] = s1\n 65969: s0 = sp + 0x3c0\n 65973: sp = sp & 0xffffffffffffffe0\n 65976: s1 = sp\n 65978: jump [t0]\n      : @2344 (gas: 11)\n 65980: a4 = s1 + 0x200\n 65984: a0 = u64 [a4 + 0x30]\n 65987: a1 = u64 [a4 + 0x38]\n 65990: a2 = u64 [a4 + 0x20]\n 65993: a3 = u64 [a4 + 0x28]\n 65996: a4 = u64 [s1 + 0x20]\n 65999: u64 [a4 + 0x10] = a0\n 66002: u64 [a4 + 0x18] = a1\n 66005: u64 [a4] = a2\n 66007: u64 [a4 + 0x8] = a3\n 66010: jump [t0]\n      : @2345 (gas: 9)\n 66012: a5 = s1 + 0x200\n 66016: u64 [a5 + 0xc0] = a4\n 66020: u64 [a5 + 0xe0] = a3\n 66024: u64 [a5 + 0xe8] = a2\n 66028: u64 [a5 + 0xf0] = a1\n 66032: u64 [a5 + 0xf8] = a0\n 66036: a0 = s1 + 0x2c0\n 66040: a1 = s1 + 0x2e0\n 66044: jump [t0]\n      : @2346 (gas: 8)\n 66046: u64 [sp + 304] = 0\n 66050: u64 [sp + 296] = 0\n 66054: u64 [sp + 288] = 0\n 66058: a0 = 0xb3512b0c00000000\n 66068: a1 = sp + 0x120\n 66072: u64 [sp + 0x138] = a0\n 66076: a0 = 0\n 66078: jump [t0]\n      : @2347 (gas: 4)\n 66080: u64 [s1 + 176] = 0\n 66084: u64 [s1 + 168] = 0\n 66088: u64 [s1 + 160] = 0\n 66092: jump [t0]\n      : @2348 (gas: 8)\n 66094: a0 = u64 [a4 + 0x30]\n 66097: a1 = u64 [a4 + 0x38]\n 66100: a2 = u64 [a4 + 0x28]\n 66103: a3 = u64 [a4 + 0x20]\n 66106: a1 = a1 | a2\n 66109: a0 = a0 | a3\n 66112: a0 = a0 | a1\n 66115: jump [t0]\n      : @2349 (gas: 4)\n 66117: a0 = a0 | a1\n 66120: a1 = 0xffffffe0\n 66130: a1 = s1 <u a1\n 66133: jump [t0]\n      : @2350 (gas: 6)\n 66135: sp = s0 + 0xffffffffffffff40\n 66139: ra = u64 [sp + 0xb8]\n 66143: s0 = u64 [sp + 0xb0]\n 66147: s1 = u64 [sp + 0xa8]\n 66151: sp = sp + 0xc0\n 66155: jump [t0]\n      : @2351 (gas: 8)\n 66157: u64 [a5 + 0x10] = t2\n 66160: a3 = a0\n 66162: u64 [a5 + 0x18] = a0\n 66165: u64 [s1 + 0x80] = t2\n 66169: u64 [s1 + 0xb8] = t1\n 66173: t2 = a1\n 66175: t1 = a4\n 66177: jump [t0]\n      : @2352 (gas: 9)\n 66179: a2 = a1 | a5\n 66182: a0 = a0 | a3\n 66185: a2 = a2 | a0\n 66188: a2 = a2 >> 0x20\n 66191: a0 = a0 | a5\n 66194: a0 = a0 << 0x20\n 66197: a0 = a0 | a2\n 66200: u64 [s1 + 0x60] = ra\n 66203: jump [t0]\n      : @2353 (gas: 6)\n 66205: a1 = a1 | a4\n 66208: a3 = 0xffffffe0\n 66218: a3 = a0 <u a3\n 66221: a3 = 0 if a2 != 0\n 66223: a3 = 0 if a1 != 0\n 66225: jump [t0]\n      : @2354 (gas: 9)\n 66227: a2 = sp + 0x200\n 66231: u64 [a2 + 0x80] = t2\n 66235: a0 = u64 [sp + 0xa0]\n 66239: u64 [a2 + 0x90] = a0\n 66243: u64 [a2 + 0x98] = a3\n 66247: a0 = sp + 0x2a0\n 66251: a1 = sp + 0x280\n 66255: u64 [a2 + 0x88] = t1\n 66259: jump [t0]\n      : @2355 (gas: 8)\n 66261: a0 = a0 + a4\n 66264: a2 = a2 + a1\n 66267: a5 = a2 <u a1\n 66270: a0 = a0 + a5\n 66273: t2 = u64 [s1 + 0x8]\n 66276: t2 = t2 + a2\n 66279: a2 = t2 <u a2\n 66282: jump [t0]\n      : @2356 (gas: 5)\n 66284: a0 = sp + 0xffffffffffffffe0\n 66287: a2 = a0 & 0xffffffffffffffe0\n 66290: u64 [s1 + 0x28] = a2\n 66293: sp = a2\n 66295: jump [t0]\n      : @2357 (gas: 6)\n 66297: a0 = a4 >u 0\n 66299: a1 = a3 <u 0x20\n 66302: a1 = a1 ^ 0x1\n 66305: a1 = a0 if a4 != 0\n 66308: a0 = a5 >u 0\n 66310: jump [t0]\n      : @2358 (gas: 4)\n 66312: u64 [s1 + 920] = 0\n 66316: u64 [s1 + 912] = 0\n 66320: u64 [s1 + 904] = 0\n 66324: jump [t0]\n      : @2359 (gas: 4)\n 66326: u64 [s1 + 504] = 0\n 66330: u64 [s1 + 496] = 0\n 66334: u64 [s1 + 488] = 0\n 66338: jump [t0]\n      : @2360 (gas: 7)\n 66340: a0 = u64 [sp + 0x10]\n 66343: u64 [sp + 0x28] = a0\n 66346: a0 = 0x24\n 66349: a1 = sp + 0x20\n 66352: a2 = u64 [sp + 0x18]\n 66355: u64 [sp + 0x20] = a2\n 66358: jump [t0]\n      : @2361 (gas: 7)\n 66360: a3 = a3 | a5\n 66363: a3 = a1 if a2 == 0\n 66366: a1 = 0xffffffffffffffff\n 66369: a0 = a1 if a4 == 0\n 66372: a3 = a1 if a4 == 0\n 66375: a5 = 0 if a2 == 0\n 66377: jump [t0]\n      : @2362 (gas: 8)\n 66379: a0 = u64 [a4 + 0xb0]\n 66383: a1 = u64 [a4 + 0xb8]\n 66387: a2 = u64 [a4 + 0xa8]\n 66391: a3 = u64 [a4 + 0xa0]\n 66395: a1 = a1 | a2\n 66398: a0 = a0 | a3\n 66401: a0 = a0 | a1\n 66404: jump [t0]\n      : @2363 (gas: 6)\n 66406: a0 = s1 + 0x1e0\n 66410: a1 = s1 + 0x1c0\n 66414: a2 = s1 + 0x1a0\n 66418: a3 = s1 + 0x180\n 66422: a4 = s1 + 0x160\n 66426: jump [t0]\n      : @2364 (gas: 7)\n 66428: sp = s0 + 0xfffffffffffffb40\n 66432: a0 = sp + 0x400\n 66436: ra = u64 [a0 + 0xb8]\n 66440: s0 = u64 [a0 + 0xb0]\n 66444: s1 = u64 [a0 + 0xa8]\n 66448: sp = sp + 0x4c0\n 66452: jump [t0]\n      : @2365 (gas: 11)\n 66454: a0 = u64 [sp + 0x58]\n 66457: u64 [sp + 0x118] = a0\n 66461: a0 = u64 [sp + 0x50]\n 66464: u64 [sp + 0x110] = a0\n 66468: a0 = u64 [sp + 0x48]\n 66471: u64 [sp + 0x108] = a0\n 66475: a0 = sp + 0x120\n 66479: a1 = sp + 0x100\n 66483: a2 = u64 [sp + 0x40]\n 66486: u64 [sp + 0x100] = a2\n 66490: jump [t0]\n      : @2366 (gas: 8)\n 66492: a0 = a0 + t1\n 66495: a2 = a3 <u a2\n 66498: a0 = a0 + a2\n 66501: a1 = a1 + a3\n 66504: a2 = a1 <u a3\n 66507: a0 = a0 + a2\n 66510: a2 = s1 + 0x300\n 66514: jump [t0]\n      : @2367 (gas: 7)\n 66516: sp = sp + 0xffffffffffffff80\n 66519: u64 [sp + 0x78] = ra\n 66522: u64 [sp + 0x70] = s0\n 66525: u64 [sp + 0x68] = s1\n 66528: s0 = sp + 0x80\n 66532: sp = sp & 0xfffffffffffffff0\n 66535: jump [t0]\n      : @2368 (gas: 4)\n 66537: u64 [s1 + 760] = 0\n 66541: u64 [s1 + 752] = 0\n 66545: u64 [s1 + 744] = 0\n 66549: jump [t0]\n      : @2369 (gas: 11)\n 66551: a0 = u64 [sp + 0x20]\n 66554: u64 [sp + 0x158] = a0\n 66558: a0 = u64 [sp + 0x18]\n 66561: u64 [sp + 0x150] = a0\n 66565: a0 = u64 [sp + 0x28]\n 66568: u64 [sp + 0x148] = a0\n 66572: a1 = sp + 0x140\n 66576: a0 = u64 [sp + 0x30]\n 66579: u64 [sp + 0x140] = a0\n 66583: a0 = u64 [sp + 0x8]\n 66586: jump [t0]\n      : @2370 (gas: 4)\n 66588: u64 [s1 + 280] = 0\n 66592: u64 [s1 + 272] = 0\n 66596: u64 [s1 + 264] = 0\n 66600: jump [t0]\n      : @2371 (gas: 6)\n 66602: sp = sp + 0xffffffffffffffd0\n 66605: u64 [sp + 0x28] = ra\n 66608: u64 [sp + 0x20] = s0\n 66611: s0 = sp + 0x30\n 66614: sp = sp & 0xfffffffffffffff0\n 66617: jump [t0]\n      : @2372 (gas: 7)\n 66619: sp = sp + 0xffffffffffffff60\n 66623: u64 [sp + 0x98] = ra\n 66627: u64 [sp + 0x90] = s0\n 66631: u64 [sp + 0x88] = s1\n 66635: s0 = sp + 0xa0\n 66639: sp = sp & 0xfffffffffffffff0\n 66642: jump [t0]\n      : @2373 (gas: 7)\n 66644: sp = sp + 0xffffffffffffff60\n 66648: u64 [sp + 0x98] = ra\n 66652: u64 [sp + 0x90] = s0\n 66656: u64 [sp + 0x88] = s1\n 66660: s0 = sp + 0xa0\n 66664: sp = sp & 0xffffffffffffffe0\n 66667: jump [t0]\n      : @2374 (gas: 2)\n 66669: a3 = a2 & 0x40\n 66672: jump @2378 if a3 != 0\n      : @2375 (gas: 1)\n 66675: jump @2377 if a2 == 0\n      : @2376 (gas: 6)\n 66678: i32 a3 = 0x40 - a2\n 66681: a3 = a1 << a3\n 66684: a1 = a1 >> a2\n 66687: a0 = a0 >> a2\n 66690: a0 = a0 | a3\n 66693: ret\n      : @2377 (gas: 1)\n 66695: ret\n      : @2378 (gas: 4)\n 66697: a0 = a2 + 0xffffffffffffffc0\n 66700: a0 = a1 >> a0\n 66703: a1 = 0\n 66705: ret\n      : @2379 (gas: 2)\n 66707: a3 = a2 & 0x40\n 66710: jump @2383 if a3 != 0\n      : @2380 (gas: 1)\n 66713: jump @2382 if a2 == 0\n      : @2381 (gas: 6)\n 66716: i32 a3 = 0x40 - a2\n 66719: a3 = a0 >> a3\n 66722: a0 = a0 << a2\n 66725: a1 = a1 << a2\n 66728: a1 = a1 | a3\n 66731: ret\n      : @2382 (gas: 1)\n 66733: ret\n      : @2383 (gas: 4)\n 66735: a1 = a2 + 0xffffffffffffffc0\n 66738: a1 = a0 << a1\n 66741: a0 = 0\n 66743: ret\n","bytecode":{"object":"50564d0000a332010000000000010700c16002c0008003814c9bc8e21bad52f2ddaa8d37fc68b0c26916a1c463f1a72b95efb323f54d5af5283dfeb89bc6c3738b79cc59f74ccc2e51cafa0f9b177b9f230f40392b525da7a9595bf0d2cdbac2de8bff3d529bda34de2fc818e8385e2ee424a7874377ae0bdb5b7decebe5e15b8cf3841e7d42714fd11e29b2f7c01403dd25b9c3c7c80a205b6f6c623d65646f6d7265626d756e6b6365643d6d6f726626d503fd7b052983e4cf392e1347b5495e4c9d7bad20189cfddf5ad125146907539bc8e21bad52f2ddaa8d37fc68b0c26916a1c463f1a72b95efb323f54d5af528927ed9e6a2e834315d48a51e01547e9a4e4dbaf0d56d197d7f25fce3e80358f9595bf0d2cdbac2de8bff3d529bda34de2fc818e8385e2ee424a7874377ae0bdb3dfeb89bc6c3738b79cc59f74ccc2e51cafa0f9b177b9f230f40392b525da7a91d50a457736e575da1201b68462fe9dfe00000000481421400000000070000001300000017000000250000003300000041000000470000004f0000005c0000006e00000079000000880000008b00000098000000a8000000b8000000c3000000d5000000e000000061646472657373626c6f636b5f6e756d62657263616c6c63616c6c5f646174615f636f707963616c6c5f646174615f6c6f616463616c6c5f646174615f73697a6563616c6c6572636861696e5f69646465706f7369745f6576656e746765745f696d6d757461626c655f646174616765745f73746f72616765686173685f6b656363616b5f3235366e6f777265665f74696d655f6c65667472657475726e5f646174615f636f707972657475726e5f646174615f73697a657365616c5f72657475726e7365745f696d6d757461626c655f646174617365745f73746f7261676576616c75655f7472616e73666572726564051302c02aea0463616c6cc033ea066465706c6f7906c1df2f854402c1b904da002202f0024703b203e60337046d047504fc04040503062d066a0692069c06ce06d906f5067607a107c7070308300859087c08b908e10807094009e609f209080a740a890ac30af00a1d0b4a0b7b0bac0bdc0be70bfc0bb50cbb0cf20cfd0c080d2d0d320d670d6d0d720d770d8c0d970d9c0da10dd70ddc0de10d060e120e1e0e380e3f0e450e5c0e870e8e0ef10e0b0fce0feb0ff20f00103c10591005113911a711c211f011ea12f81205134d136d13a713c2137d14d514031552156515961561167316a5169d172518331876188f18b6181f19d819f4191b1a391aa51acb1afd1a261b561b881bb91b191c201c321c3d1c5b1c8a1ce41ceb1cfd1c081d261d5d1d671d951db51dc01dd21ddd1deb1d211e481eb91edc1ef31e171f461f661f9f1fda1ffa1f332035208920a920c320ca209821432276227822d622f62210231723e5239024c32419256a259725fe250e262e2638263e26fc260d273b272728a228b028b728be28d628dd28e4284b29052a1e2a412a5c2ab32ac12ae52a6b2bfc2b302c372c482caf2c162d232d7d2d962df02d092e502e572e6f2e3b2f622f882fa52f063053307a30813092309930d630dd30e330ea30fd300d3117311d31d831e631ed31f3318b3297329d32a432f73205330c3313332b3332333933403346337b3385338b33aa33b933c033d133d83315341c34223429343c344c3456345c34173525352c353235ca35d635dc35e335363644364b3652366a36713678367f368536ba36c436ca36e936f83623374d377637fe370b38353842386c3877388538b238c238d038de38f8383c39783985399c39ab39503a7a3a883abf3a273b5c3b793b173c733cc53cd23c253da63db63dc43dda3d2f3e543e693e703eab3ebd3ec33ed83e5e3fc53ff53ffb3f12403640b240cf40d240dd40f5401d4162419041e041074222423d427942a442d542dc4201434c4375437c438c43aa43d343f343fa431c44564474449d44ab44b244d5444445624568456f457545ac45d745de450e46174623463d464d4653467746b946d146f9463f475f477247c247e94704486048e5483f4959497749a549d049d749de49f949104a174a224a284a484a5b4aab4ab64ace4ae54aef4af54afc4a0a4b114b1d4b5d4b664b6c4b734b794b8b4b924b984bc34bca4bd14bec4b034c0a4c154c1b4c3b4c4e4c9e4ca94cc14cd84ce24ce84cef4cfd4c044d104d504d594d5f4d664d6c4d7e4d854d8b4db64dbd4d7b4e824e8e4e954ea14ea84eae4eb54ee74eed4e034f0e4f744fa34fc34fcf4fd64fe24fe94ff54ffc4f0250ac50b3500451215150515751a25127524752b652b852c252dd52ec52f652165325536153ac53b3531f547c54a35470558f55c555f555405663566a5675567c5687568d5694569a56a156ac560b5717572a5731573d574457505757575d577d57845790579757a357aa57b057c357cc57d257f657235944595d598159e959465ab95ac75ad45aea5a125b305b1e5c725ca75cb95cc45cdf5ce65cfe5c055d0b5d125d1d5d235d345d3f5d455d4c5d565d675da35d315e385e4f5e5a5e605ec75ede5ee45ef15ef85efe5e1b5f765f9d5fb35fba5fcb5fd25fdc5ff85fff5f0d6014601e603a6041604a604c605860cc60e960ec603461a561ea61f46110622e62666270628f629f62cc62d9625b63746369647664c264c964e36400654365606592659965ab65b765be65c5653b665e66716697669e66a466af66b666c466cb661b674a677667c067de67fc670668496868687268b368ea688d699769f469556a626aa06abd6a136b556b696b736b846bad6bd76bff6b0e6c606c736ca46caf6cb66cbd6ce16c296d8c6daa6df76d006e486e5a6e616e716e7d6eca6e3d6f476f4e6f6b6f716fbf6f4e709770ae700e713571767199710872787285728c729372d472df7233737673b173f9733e744b748f749c74ed744575e87518762c7633766e7675767b769976b976d276d876e276007770777c7783778a770c7837783d786a78b178d978eb78f178307936795c799d79b379f5790e7a327a797a857a8b7a927af87a277b4e7b607b857b8b7b917b9c7ba27baf7bb57bf07bf77bfd7b1b7c397c527c587c627c857c977cbd7cc47cca7cd67cdc7ce37c217d2c7d4b7d8b7db07de77d167e5d7ea27eb57ed47ee97e427f9e7f08809780e2806181cd8114829382a48235830a845a844d85608566858b859585e68509860f8618862a867686cb86d886de86f686fc863487cc87f7870d88638881889488d488f6885a89bc89c989cf89d689688a758a878aac8ab28ab98ac58acb8ad88ade8aef8af98a158b1b8b328b388b3e8b448b4e8b558b658b6f8b768b7c8b858b978bd28b5f8c658c7b8c858c8c8cf28c078d0d8d1b8d218d278d438d9d8dc58dd48df38d358e5e8e7d8e9b8eb78ec08ed98e018f138f388f3e8f458f528f588f5f8fc58f19901f90769083909590c990d590db90e890ee90fa90fc90089147917691a5910f923a92b192359360939593c093f3931f94519480949194d294e194f794099546957395d3953c96b096d9962d973b975597c697a0985b99a499f099149a569a679a6e9a8c9aa59aab9aeb9a219b4a9b5c9b9e9bab9bb19bb89b239c6d9ca19c099d379d7e9de09dea9d169e359e8a9edf9e0b9f429f539fa09fb09f1fa02da082a09aa0eea01ca12aa19aa1d5a131a28ea204a3fca316a47da446a58da5a6a5aca5b3a5cca5eaa5fea500a607a621a63fa653a655a691a6b6a6eda6f6a60aa70ca72fa748a766a782a78ba7aca7cca7f6a72ba86aa876a89ca897a9c8a98daad9aa14ab41abaaabb8ab1bac34ac91ac04ad74adb6add4ad18ae1eae30ae7eaea7aed2ae00af25af98affeaf52b07cb0a3b0c7b00eb114b12fb167b1d9b1f8b147b250b272b2adb2ccb225b32eb36ab3a3b375b4a3b40eb57db5cfb5fdb54cb66db6c1b621b74eb75fb766b7a8b7b1b7d3b726b893b8bab8e4b804b99cb9bbb9d9b9f2b9f8b938ba66ba9ebab7badabaf5ba13bb44bb4abb7ebb86bb93bbadbbbcbbc3bbe7bb4dbd5cbd72bd96bdd5bd13be27be3dbe7cbe90c0afc0d3c042c156c171c1acc1fcc111c231c2c3c4d9c40ec524c558c56ec5a9c5bfc5fac510c64bc661c699c6cec872c9b8c915ca1bcad8cadecae9caefca22cb28cb2fcb35cb66cb6dcb82cb8ccbf1cb1fcc3ecc49cc4fcc5acc60cc66cc6ccc73cc1ecd24cd74cd90cdbecdc4cdc7cdd9cddfcdfacd00ce59ce87ce8dce94ce9acebfcec5cee2ce0bcf11cf18cf28cf31cf38cf61cf67cf79cf7fcf9acfa0cff9cf27d02dd034d03ad05fd065d082d0abd0b1d0b8d0c8d0d1d0d8d0fbd01ed15ad163d196d1f7d116d29bd2a2d2aed2dcd2e3d2efd221d32cd339d367d370d37dd38ad3a5d3ead327d434d446d456d462d5c2d51bd662d6aed6cbd604d794d711d873d8a6d8b4d8e2d8e9d801d925d981d9c3d9fcd935da80dac7daeeda32db5cdb87dbf3db58dc05dd20dd3fdd63dd88dd95dd9bdda6ddacddb2dd39de44de9cdecaded7dedddee8deeedef4de78df83dfdbdf4fe06ee018e170e1fce141e247e25ae208e37ae3a8e3cfe3eee30fe42ee434e45ae495e4a6e4ade4d5e4e2e4e8e40ee582e5a4e50de670e6c5e640e75ee795e7c6e715e838e85fe87de8a7e8ade8b7e8bde8c7e8cee8d4e8dbe8e1e8ebe849e954e966e96ce977e97de988e98ee994e9b2e9b8e9c3e9c9e9d4e9dae9e0e9f2e9fae901ea33ea3dea43ea81ea9eeaaa876e978a2098aa20977b2098bb20c89b0bc9ba0a979b019abbaeab20ae873751094ec87909647a017c8b95880195ac0178ab64caab9cf42836510934c87909647a017c8b95880195ac0178ab64caab9cf4281c51091a839aff01c8a80b7cbb9599ffc8a70c78cb83aaff5209f032009511e87b10107b15087b163306480102390548010251051c3307800103837783680a090139074801022003480102ac57108210108215088216951118320000390848010251081f0b330780010383770a1128120b9511f07b10087b15648964753308206497501002df047c78017c797c7a027c7b03978808d4980897aa1097bb18d4ba0ad4a8087c79057c7a047c7b067c7c07979908d4a90997bb1097cc18d4cb0bd4b909979920d489027c79097c7a087c7b0a7c7c0b979908d4a90997bb1097cc18d4cb0bd4b9097c7a0d7c7b0c7c7c0e7c780f97aa08d4ba0a97cc10978818d4c808d4a808978820d498037c78117c7a107c7b127c7c13978808d4a80897bb1097cc18d4cb0bd4b8087c7a157c7b147c7c167c791797aa08d4ba0a97cc10979918d4c909d4a909979920d4890a7c78197c79187c7b1a7c7c1b978808d4980897bb1097cc18d4cb0bd4b8087c791d7c7b1c7c7c1e7c771f979908d4b90997cc10977718d4c707d49707977720d487076f776fa86f396f2a7b5a187b59107b58087b57821008821595111032009511d87b10207b15187b161082897b19088289087b1982851082861833082050100497036f686f59821a6faa821b086fbb787b18787a10787908787898bc38787c1f98bc30787c1e98bc28787c1d98bc20787c1c98bc18787c1b98bc10787c1a98bb08787b1998ab38787b1798ab30787b1698ab28787b1598ab20787b1498ab18787b1398ab10787b1298aa08787a11989a38787a0f989a30787a0e989a28787a0d989a20787a0c989a18787a0b989a10787a0a98990878790998893878790798893078790698892878790598892078790498891878790398891078790298880878780182102082151882161095112832006f776f996faa6f887b18187b1a107b19087b17491138491130491128491120481140208318831a20831b403309ff33070a0a821738821830821928821a206f776f886f996faa7b6a187b69107b68087b6750120847ed0032009511a07b10587b15509515608411e08272827a08827b108277188283828908828c108288186f746fbb6faa6f276f826fcc6f996f387b17187b1a107b1b087b147b18387b19307b1c287b12208318831a203309ff330b2033070a129551a0821058821550951160320082ab7b1b3882ab087b1b3082ab107b1b2882aa187b1a20829a7b1a18829a087b1a10829a107b1a088299187b19648650100cd30182186f888219086f99821a106faa821b186fbb7b1b587b1a507b19487b18408218206f888219286f99821a306faa821b386fbb7b1b787b1a707b19687b18608379836a8317403308020a0850120e9af9003200951120ff7b10d8007b15d0007b16c8009515e0008411e082bc7b1c4082bc087b1c4882bc107b1c5082bb187b1b5850121022f7007b183850101244016f687b187882186f887b18708218086f887b18688218106f887b18608218186f887b1898008218206f887b1890008218286f887b1888008218306f887b1880008218406f887b18b8008218486f887b18b0008218506f887b18a8008218586f887b18a0008379811a388317603308030a08955120ff8210d8008215d0008216c8009511e00032007b1858501016b5006f687b18980082186f887b1890008218086f887b1888008218106f887b1880008218186f887b18b8008218206f887b18b0008218286f887b18a8008218306f887b18a0008218386f887b18d8008218406f887b18d0008218486f887b18c8008218506f887b18c0008218606f887b18f8008218686f887b18f0008218706f887b18e8008218786f887b18e0008379811a58831780003308040a089551e0fe8210180182151001821608019511200132008b7910520931c8780883881f8488e05638000001253309500102390a500102ae8a093d085001020133086001028377c887073200009511f07b10087b158475010a05013d074c01025105075010182e33001a9511a07b10587b15509515608411e049111849111049018000330740641849110833005628d4fb951120fb951700047b70d8007b75d0007b76c8009515e0048411e0951900044929980049299000492980006001330740951880044929880050101c99fb951700044927b8004927b0004927a8004927a0008317a00433001e0a13951b000433022028bdfc00951b0004501220b5fc005207700339064c010297672098782095190004491978491970491968951760047b1898007b986033002233028e002860fd00330760016468501024e0fe8377646833090a030154269f003a039517400433086001501026d4f995170004827258827850827948d4280a889b0194ab510b2203821b980095b76001821a4004d8b70b64b694b695a36001d8a30ac8a90cd89c09daaa09c88909d88908c8820a951800034928f8007b1798007b87e0007b1b90007b8be800951b00047bb37b86f0007bbc087bb91095172004951800049519e0037bba18501028ea08951800048287387b17708287307b17788287287b1780008287207b1788009517c0033308800150102a28f9951a000382a7d80082a8d00082a9c800d4780a889b0194ab510b8302821ac00350122c4aea0049217803821798007b176003821790007b1768037b1b8003951b00037bb6707bbc88007bb990009517a00395188003951960037bba980050102e5d08951800038287b8007b17508287b0007b17588287a8007b17608287a0007b1768951740033308a00150103099f8951800038287587b17308287507b17388287487b17408287407b1748951720033308c00150103270f8951a000382a73882a83082a928d4780a889b0194ab510bde01821a200350123495e9004921d802821798007b17c002821790007b17c8027b1be002951b00027bb6d0007bbce8007bb9f000951700039518e0029519c0027bbaf800501036a707951800038287187b17108287107b17188287087b172082877b17289517a0023308e001501038e8f7951a000282a7b80082a8b00082a9a800d4780a889b0194ab510b6301821aa00250123a0ae90049215802821798007b174002821790007b1748027b1b6002951b00027bb6507bbc687bb9709517800295186002951940027bba7850103c200795160002826780008268880082699000826a98007b1ab8017b19b0017b18a8017b17a0018217107b17d8018217187b17d0018217207b17c8018217287b17c0018217307b17f8018217387b17f0018217407b17e8018217487b17e0018217507b67188217587b67108217607b67088217687b678217707b67388217787b6730821780007b672895172002951800029519e001951ac001951ba001821c88007b6c2050103ee10995178001330840501040d7f6821798018218900182198801821680015012420ee900510763003308600102838833070133090a1028513308600102838833070133090a1028413308600102838833070133090a1028313308600102838833070133090a1028213308600102838833070133090a1028113308600102838833070133090a10016467330850104445fb8377330833090a03951760013308800050104640f682177801330b8001037b1b98008218700182196801821a60013e079801033e089001033e098801033e0a800103951740013308a00050104806f6821758018218500182194801821a4001821b98007bb7387bb8307bb9287bba20951720013308c00050104ad9f5821738018218300182192801821a2001821b98007bb7587bb8507bb9487bba40951700013308e00050104cacf5821718018218100182190801821a0001821b98007bb7787bb8707bb9687bba609517e0003308000150104e7ff58217f8008218f0008219e800821ae000821b98007bb798007bb890007bb988007bba80009517c000330820015010504ef58217d8008218d0008219c800821ac000821b98007bb7b8007bb8b0007bb9a8007bbaa0009517a000330840015010521df58217b8008218b0008219a800821aa000821b98007bb7d8007bb8d0007bb9c8007bbac00028dff464673308501054ddf98378330733090a102887fe39074c0102531704320283172033083300580a040181173c51476e19b084980133088c9e538eaa8705025147f4addd91cb013308419bd895aa876d013308b04eb29aaa878c005147bb9c05a93a01514720a5cdc3860051473eed62dd64013308d87e12f1aa87bd00330803defd06aa879d003308b3a75e09aa8782015147dd0d1618ca003308dd72b823aa879501514767e53c31fd003308a8b1463aaa8754015147e9d7f54b150133081ede7c58aa876851475ca9195cd500514745ffcf6f920052473182a070cf0050105ae26d50105c1f810033005e9511a0fa951700057b70587b75507b7648951560058411e064164926f8044926f0044926e8044926e0048367e0040a13281c8400330060330242042847e800330062330290052834ee003300649511e0fc951700037b70187b75107b7608951520038411e06416330270072877ed005010669858330068951140fe7b10b8017b15b0017b16a8019515c0018411e0641649267801492670014926680149266001836760010a1328156b50106af8810050106c1d6a50106e9c5e330800bece7eab87a1003300703302e80528b0ed0033007233028a0628ade7005010744c6f501076f764330078951120fe7b10d8017b15d0017b16c8019515e0018411e0641649269801492690014926880149268001836780010a1328e18b0050107ae65e50107cfa7b33007e9511a0fc951700037b70587b75507b7648951560038411e064163302a40428e7f500330080003302f004288ff30033008200330240062883f300330860010283883307013309330084000a103302860028cae20050228600c6e20050208800bff3491118491110490141330704641849110850208a00a8f3390850010256183f0b200350010240013308600102838833070133092433008c000a1033028e0028a7f50050228e00a3f5008278827918827a08827b10958c1fd88c08c88a07d8a70ada880ac8ab08d8b80ac8a90984cae0d4980b88aca0fe947c94bc510c4095ab6001d8ab0ac8a70cd87c07daaa07c88707d88708c889097b1b7b1c087b171033074064187b19185020900013f39551d08210288215209511303200330092003302860028f7e1009511b07b10487b15407b16389515508411f064728289827408828c088273959a1fd89a00c80c0984aae07b1308c8a303d8a30bc8490ac8ba0ad39a06d89a07da6b07822b18d8c90c828610822210828818da000cc86c0cd86c06c82c09c89707d8c90cd89709c8b808c86808c8c808c8980c8ec88e79dbc809d4c7088ea6db8906520653821808d88308d34a09d84a06da9806d82708d3bc09d8bc0bda980bd32708d49808da860b520b2c7b13107b1a187b17203307409518107b1c285020940036f29551b0821048821540821638951150320033009600330286002817e1005022980050f400647695176033084050209a00caf08219607b198217687b17188218707b1810821a787b1a08491138491130491128491120407b1a587b18507b17489517409518207b194050209c00d5fe8217087b67188217107b67108217187b670882177b6750229e0079ed003200951190fe7b1068017b1560017b165801951570018411f08284829b088280088296954a1fd84a02c8200c7b1620d86a03d3bc0a7b1b28d8bc0bdaa30b828610d80c0ada220a829c18828218829310c86a0ad86a08c82808d3c8097b1c10d9c808d83a0cda9c08d33a0ad4a909db980b510bdd027b17087b1318d464077b10387b1230d42008d487079877207b1650d46808978820d487075207a802951730017b144864485020a000c5ef8217480182184001821938017b1780007b1878d487077b19880088980194785108770282163001951710013308405020a20091ef82122801821c20017b1c68821418017b1460821310017b137095671f7b1640d8670882198800c898088488018477e0957920d87907c8780ad88a0bda770b4921e8007b19d00064267b1208017b1c00017b14f8007b13f0007b1ad8009517f0009518d0007b1be0005020a4006afd7b1658821860d468078218706489821a68d4a8085022a60088ec005207d8018216407b16b000821788007b17b8008217787b17c0009518b000821780007b17c80064975020a80014f0821748c8670ad87a0982103882178800c80707c89707d3070bd80708dab908821350821978c8390995ac20d8ac02c8270b821a20d8ca0c821470821a28d3ab06d8ba0adb6a0cd8390a82133082168000c83606c86a0ac89808d89809c8a909d87b07da2207c88707d88708c89808821a10d3a809d88a08821b18d87b0ada9a08d3b707d49707db780c520c3501821768821858d478081407e0ffffff00000000d87409821a6094a9948951090001821850d43808821648d876079407948782198000821a78821b88005107e100821840d4a807d49b0cd4c707987720d4ac0c97cc20d4c7075207c5008347208369207b195064865020aa00d0f27b174882175064685020ac00c2f2647882174864695020ae0001ed821870c86807d8870882166082198800c86909c88909d3690ad8690bdaa80b821c68821878c8c808c88b0bd88b02d8c808821c8000821a58c8ac0cc8c808c828085022b00057ef00510a4d8377204921a8004921a0004921980095189000492190005020b20097ee8217088218587b78188218687b78107b76088218707b78955190fe821068018215600182165801951170013200003300b40033028600285bdd0033086001022808330860010201838833070133093300b6000a1001951140fa951c00057bc0b8007bc5b0007bc6a8009515c0058411e06416827310827418827c0882727b6cc8007b64b800d44c07d4320cd47c0c98cc207b63c000d43707977720d4c7075207300a82b7187b675882b7107b675082b7087b676082b77b676882a7187b677882a7107b677082a7087b67800082a77b6788008297187b67108297107b67188297087b672082977b67288287187b67488287107b67408287087b673882877b6730956780047b62d00064285020b8004dec956a000482a8980082a7900082a988007b6798007b689000d478087b69a0008897017b683801948751079709826780047b67a8004926b8044926b0044926a8044926a00403956760049568a0043300ba00330206284ce100826960048267680482687004826a78047b6a38047b6830047b67280495674004956820047b6920045020bc004b09956c000482c94082c74882c85082ca58826b90007b6bf803826b98007b6bf003826ba0007b6be803826ba8007b6be0037bca187bc8107bc708956700049568e0037bc93300be0033022c01280eeb00826c9800826aa800826ba0005022c0009bed00826390008e39da370982673801da78095109e60184aae07b6ab0009517e08477e07b67200164719567a0035020c200870933004926380149263001330249262801956b000382bab00082b7b80082b8a00082b9a8007b6af000826c20017bca1064737bc7187b6818017bc864c7649c7b79083309330b330420017b6c10018267b0007b6b0001d87b07857b017b62f800942b01826728017b690801d49707947b018268d000c84808826ac800c80a0a8269c00082673801c879098267b800826c3001c8c707644c520ba801d8c80bc8ba0a7b6cd800d30a027b60e000d80a0cda2b0cc89c0cd89c02826b3801d8b909c89707c827075022c40038dc007b63e8005207d607956740015020c60057ea826758018268500182694801826a4001956b00047bb7d8007bb8d0007bb9c8007bbac0009568c004826720015020c800aaec8262180195220188270182631001c87303d432078877018268f000c88707d887088264e800c884048268d8009589207b691001d8890a8268e000c8a8097b69e800d8890bdaaa0b82683801c8b800d8800b82683001c8b8087b68300182680001958b20d88b0c8269f800c8c908d89809dacc09826a0801c8a909d8a90c826a2801c8ca0a7b6a2801643c826a20017ba3087b6218017ba27ba71064437ba4187b67f000826410018267e8007b603801647064822887fed4ca07d43b08d487078262d000510717028267c0008268b800d487071408e0ffffff00000000d882088269c800949894785108af068328209567c0035020ca002de9956800038287d800956900017b97308287d0007b97288287c8007b97188287c0007b9720826aa800826ba000826998008263900028c101640464c08262a800826bb000d32b0b826c9800d4cb03826ca000826b9000d4bc0cd4c30b510b2c01d8080bc8ba0ad34a02d84a0cda2b0cc89c0cd89c02826b3801d8b909c89707c827075022cc0074da0052071606956780035020ce0097e895680003828798007b673001828790007b672801828788007b671801828780007b6710018267a80097773b9878387b6838019a8980003307ff3308ff5020d00024ec007b6708017b68f0003307ff3308ff826938015020d200e5eb007b67f8007b6800018267f000d487077b67f000826738019579803307ff3308ff5020d400beeb00826b380188b98000826af000db9a08826cf800826a0801d4ca0ada970a93b8ff93baff826b0001939b939c82671001e0a70782691801e0890882692801e0c909826a3001e0ba0a956b00047bbaf8007bb9f0007bb8e8007bb7e0009568e004826720015020d60030ea8262a800018269980098973f82689000978801d48707826aa00098a83f979901d4980898293f97aa01d4a909972a0195aa01492618054926100549260805956c0005490c037bca207bc9287bc8307bc73895670005956820053300e00028cde964c9492620014926180149262801492630010198b73f979801d487077b67100198973f973801d487077b67080198a73f97b801d487077b67000197a7017b67f80097a8037b6838018d8980003307ff3308ff5020d800c2ea007b67d8007b68f0008267a8008a79033307ff3308ff5020da0080ea007b67e8007b68e0008268d800d487077b67d800826738018379803307ff3308ff5020dc0059ea00826b380188b98000826ad800db9a07826ce000826af0005022de0006e900826be800939b82681801e0a80882692001e0790782692801e0b909826a3001e0ca0a826bf800d4b707956c000182cbd4b80882cb08d4ba0a82cb10d4b909956c0005491c40037bc9707bca787bc8687bc76049265805492650054926480595674005956860055020e000aae88267307b6760038267387b6768038267407b677003956760038268487b6878035020e200000a8267787b6738038267707b673003826780007b6728039567400395682003826988007b6920033300e4003302ae0128a8d600956b000382b94082b74882b85082ba587bba187bb8107bb70833072001956800037bb95020e600dee68267587b67d8028267507b67d0028267607b67c8029567e0029568c0028269687b69c0023300e8003302f001284fd600956b000282b9e00082b7e80082b8f00082baf8007bbab8007bb8b0007bb7a800330740019568a0027bb9a0005020ea007ce682688800826a70d4a807826978826b8000d4b909d49707987720d4a909979920d4970752079002956780025020ec0011e5826b8800826778826870d487071408e0ffffff00000000d88b08826980009498947851086002956a000282a7980082ac900082a8800082a98800d4c80ad49707d47a0a98aa20d4c707977720d4a7075207330283b7207b6838015020ee00a1e95022f0006ee5003300f2000a0b826a30013302f400283ed300826a30015022f40036d300956a00027ba9787ba8707ba7683307e000956860027bab605020f600a9e5826868826a50d4a807826960826b58d4b909d49707987720d4a909979920d497075207bf01956740025020f80040e4826b68826750826858d487071408e0ffffff00000000d88b088269609498947851089101956a000282a75882ac5082a84082a948d4c80ad49707d47a0a98aa20d4c707977720d4a7075207680183b7207b6838015020fa00d6e85022fc00a3e4003300fe000a0b826a3001330200012873d200826a3001502200016bd2007b6938027b6830027b67280233070001956820027b6b200250200201dee4836780050a07956b000582b9800082b7880082b8900082ba9800956b00027bba187bb8107bb7083307a000956800027bb950200401a7e49567e0015020060197198269e0018267e8018268f001826af8017b6ad8017b68d0017b67c801330780009568c0017b69c001502008016fe433076001037b67380183777b67300133000a010a8269380133020c01282ed5008269380150220c0126d5003307c0009568a0017b6aa00150200e0132e482673001330010010a0601956b000182b93850221201f5d2008269107bb9788269187bb9708269207bb9688269287bb960492698017bb890007bb7880095678001956860017bba800050201401ca0c955140fa951700058270b8008275b0008276a8009511c005320000330016013302860028bad2009511a07b10587b15507b16489515608411f0828910828c08828b82881897923f98ca01d42a02978a3f989901d49a0a97cc3f98b901d49c0c98830184bb019ab888b60184c97fd2a804d2280adbbc09d2380b88982094a8d4b40c94c8ab86177b797b7a087b74107b7b1850221801d6d1003200491130491128491120140700000000717b484e9518207b1738330750201a0128e3491118491110490122330704641849110850201c0111e3390850010256183f0b200350010240013308600102838833070133092433001e010a10019511a07b10587b15507b16489515608411e064167b671849163849163049162895682049162003330750202001bee2390850010256181f143308203d085001023302220128e3d60050222201dfd6003307600102837783993308200a0b826a1082a71882a81082a90882aa6f776f886f996faa826b187bba187bb9107bb8087bb750222401f0d00032009511a07b10587b15507b16489515608411e064168289828a08828b108288187b67187b68387b6b307b6a289568207b69203307502026012ae2390850010256181f143308203d0850010233022801284fd600502228014bd6003307600102837783993308200a0b826a1082a71882a81082a90882aa6f776f886f996faa826b187bba187bb9107bb8087bb750222a015cd0003200827218827b10827a827c08d42b0788a92094c99479520925027b6a307b6c387b6b487b62208287187b67408287107b67188287087b675882877b675049167849167049166895686049166003330750202e017be1390850010256181f143308203d0850010233023001284ee200502230014ae200330760010283778399330820330032010a0b330234012895dd005022340191dd00826218c829097b691097993b98ab05d4b90997aa3b988805d4a80788382094c8826b2882b31882bc10826a40d4a20b94b86f306fca94899487c807077b6758d80707c87a0cc8c9097b6950d3a90cd8a909dac7097b690882673095741fd87409826738c8970bd87b0cda990c826348c8c30397393b98b705d4970797bb3b984905d4b909c809097b6938d80909c89a0bc87b0bd3ab077b6b30d8ab0ada790a826910d82907826b40c8b707989905977b3bd4b909826b2882b282bb08987705948994876fb86f2b5022360144e100c89702826748d87307826920c89707983905977c3bd4c909826058987705c8b707826b50c88909d88908c88707c89a0a7b6a28d89a08c887077b67209517e0847ce064c17b6c1801826738d87007826930d39b08d89b09da8709826728d87403826a20d3a208d8a20ada830ad37407d48707da790a7bc07bcb087bc4107bc218510a57492698004926900049268800492680009568800064c77b60587b6b507b62487b6440502038010ce1826c18826248826b50826058950001880701c87b0bd4b007887701826840c88707d88708c8820264742874ff50223a01e8df003200828218828310828c828b08d4230888ca2094ba948a520a2f027b6c307b6b387b63487b62208298187b68408298107b68188298087b685882987b6850827918827810827a0882777b67607b6a687b68709568607b6978330750203e012edf390850010256181f143308203d08500102330240012801e00050224001fddf00330760010283778399330820330042010a0b330244012848db005022440144db00826218c829097b691097993b98ab05d4b90997aa3b988805d4a80788382094c8826b2882b31882bc10826a40d4a20b94b86f306fca94899487c807077b6758d80707c87a0cc8c9097b6950d3a90cd8a909dac7097b690882673095741fd87409826738c8970bd87b0cda990c826348c8c30397393b98b705d4970797bb3b984905d4b909c809097b6938d80909c89a0bc87b0bd3ab077b6b30d8ab0ada790a826910d82907826b40c8b707989905977b3bd4b909826b2882b282bb08987705948994876fb86f2b50224601f7de00c89702826748d87307826920c89707983905977c3bd4c909826058987705c8b707826b50c88909d88908c88707c89a0a7b6a28d89a08c887077b67209517e0847ce064c17b6c1801826738d87007826930d39b08d89b09da8709826728d87403826a20d3a208d8a20ada830ad37407d48707da790a7bc07bcb087bc4107bc218510a57492698004926900049268800492680009568800064c77b60587b6b507b62487b644050204801bfde826c18826248826b50826058950001880701c87b0bd4b007887701826840c88707d88708c8820264742874ff50224a019bdd0032009511c0fc951800037b80387b85307b8628951540038411e06416827a10827b1882790882787b69487b6b38d4b907d4a809d479099899207b6a40d4a707977720d497075207d005956720027b685050204c01b1db956a000282a83882a73082a9287b67187b6810d478087b69208897017b68b800948751079e05826720027b67284926580249265002492648024926400204956700029568400233004e0133020628b7d000956b000282b982b70882b81082ba187b6ad8017b68d0017b67c8019567e0019568c0017b69c00150205001b7f8956c000182c7e00082c8e80082c9f00082caf800826b107bcb78826b187bcb70826b207bcb68826b287bcb607bca98007bc990007bc888007bc780004926b8014926b0014926a8019567a0019568800195696001330a047bcaa0003300520133023c012862da00826c18826a28826b2050225401f2dc008262108e29da27098267b800da78095109cc0184aae07b6a3050225601e1d6003307045022580180da0050205a0169f933004926b8004926b00033024926a800956b000182ba3082b73882b82082b9287b6a70826ca0007bca1064737bc7187b6898007bc864c7649c7b79083309330b330420017b6c90008267307b6b8000d87b07857b017b6278942b018267a8007b698800d49707947b01826850c84808826a48c80a0a8269408267b800c87909826738826cb000c8c707644c520b8d01d8c80bc8ba0a7b6c58d30a027b6060d80a0cda2b0cc89c0cd89c02826bb800d8b909c89707c8270750225c019dcb007b63685207d9039567c00050205e01bdd98267d8008268d0008269c800826ac000956b00027bb7787bb8707bb9687bba60956860028267a0005020600114dc8262980095220188270182639000c87303d43207887701826870c88707d88708826468c884048268589589207b699000d8890a826860c8a8097b6968d8890bdaaa0b8268b800c8b800d8800b8268b000c8b8087b68b00082688000958b20d88b0c826978c8c908d89809dacc09826a8800c8a909d8a90c826aa800c8ca0a7b6aa800643c826aa0007ba3087b6298007ba27ba71064437ba4187b6770826490008267687b60b80064706482289cfed4ca07d42b08d487075107bb01826740826838d487071408e0ffffff00000000826950d88908826a4894a894785108c2028398209567400150206201a3d8956800018287587b67b0008287507b67a8008287487b6798008287407b67a000826a28826b20826918826210286d01640464c0826228826b30d32b0b826c18d4cb03826c20826b10d4bc0cd4c30b510bda00d8080bc8ba0ad34a02d84a0cda2b0cc89c0cd89c02826bb800d8b909c89707c8270750226401f7c900520736029567e000502066011ad85022680178c70050206a01dcdb007b6788007b68703307ff3308ff8269b80050206c019edb0050226e01abd1005020700190db00826bb80088b98000826a70db9a08826c78826a8800d4ca0ada970a93b8ff93baff826b8000939b939c82679000e0a70782699800e089088269a800e0c909826ab000e0ba0a956b00027bba98007bb990007bb888007bb78000956880028267a0005020720104da8262280182691898973f826810978801d48707826a2098a83f979901d4980898293f97aa01d4a909972a0195aa014926b8024926b0024926a802956c0002492ca000047bcac0007bc9c8007bc8d0007bc7d8009567a0029568c00233007e01289fd964c94926a000492698004926a8004926b0000198b73f979801d487077b67900098973f972801d487077b67880098a73f97b801d487077b67800097a7017b677897a8037b68b8008d8980003307ff3308ff5020740195da007b67587b68708267288a79033307ff3308ff5020760156da007b67687b6860826858d487077b67588267b8008379803307ff3308ff5020780133da00826bb80088b98000826a58db9a07826c60826a7050227a01e3d800826b68939b82689800e0a8088269a000e079078269a800e0b909826ab000e0ca0a826b78d4b707826b8000d4b808826b8800d4ba0a826b9000d4b9094926e00204956b00037bb9107bba187bb8087bb750227c013dd9009567e0029568000350207e018ed89551c0fc95170003827038827530827628951140033200003300800133028600281dc600951140fc951900037b90b8007b95b0007b96a8009515c0038411e06416827910827a08827b7b6940979920989c207b6a787b6b70d4ab097b6c60d4c909510940048289187b6998008289107b6990008289087b69880082887b6880008277187b6738492638034926300349262803492620030295670003956820033300820133020628b6ca008264180395680003828710828b828c089518e08488e06481826a8800c8ca0a82628000c8b202d8b20bc8ba0ad3ca03d8ca09da3b09826b9000c87b0bc89b0cd8bc0382609800c84000d87b0bc80b0bc83b00d87c03d3040bd84004dab304d3c707d4b707da79047b8c107b8a087b827b8018520479034926580349265003492648034926400302956740035020840153d79517e08477e07b676864714926f802826760956900027b97f0008267787b97e8009568e0028267707b97e000330750208601d4d55022880170ce003307209568c0024926c00250208a01bcd53309500102390750010256173f0b200350010240017b69209517e08479e07b695864913307600102837783993308407b67180a0b826a5882a71882a81082a90882aa6f776f8b6f996faa8268687b8a187b89107b8b087b879567a00233008c013302062872c9008267a8028268a0028262b802826ab002826b8800c87b0b826c8000c88c0cd88c08c88b0bd37b09d87b07da980782689000c8a80882699800c89202d8a809c82909c88707d88708c89808956900037b9c607b9b687b97707b98789568600382676850208e0139d69567800233084050209001a7d3956c000282c998007b695882c890007b685082ca88007b6a4882cb80007b6b68826798007bc738826790007bc730826788007bc728826780007bc7207bc9587bc8507bca489567600295684002956920027bcb4050209201bf12826948826758d49707826a50826868d4a80850229401b4d0005207bf0164a0956b000282b76882b8787b68308263600282ba70d3970bd8970c826268d82308dab80cc90a0bc9cb04d8cb0b7b6b28d80a0a826c58826b30c9cb0cc9ac0c826a28c9ac0cc99707c98707c923085022960167c000826c7882627052075f014926d8017b62c0015022980114d5004926e0017b6cc8013a070000023a090800023a0a1000023a0b180002956c00027bc7187bc9107bca087bcb95690002956ae001956bc0018267607b67d00182676850209a01efd550229c01b8d40049268003029567a0019568800333009e0133020628b2c700826ab8018269b001330bffff00d3ba07e1970798a8108e88937852083c0182678000956a00017ba7608267707ba78000826788007ba7688267787ba78800826790007ba7708267407ba79000826798007ba77895678001956860018269387ba998003300a0019511a0fa951900057b90587b95507b9648951560058411e064168279107b69488279087b695082777b67588289828708828a108288187b68607b6838047b6a687b6a30047b67707b67280495674004956820047b69787b69200433009a023302e4022804d500955140fc951700038270b8008275b0008276a8009511c0033200003300a20133028e0228a0c1004926d0004926c8004926c000140700000000052f44ec9568c0007b67d80033075020a4017cd24926b8004926b0004926a8003307049568a0004926a0005020a6015fd2390850010256183f0b20035001024001330860010283883307013309240a10018267a8017b6790008267a0017b679800492650014926480149264001140700000000265db11c956840017b67580133077b6988007b6a80007b6b785020a801fed18267787b67f8004926f000ff4926e800ff4926e000ff82678000956b00017bb718826788007bb710826790007bb70895672001956800019569e000826a98007bba3300aa01330280022885d300826720817756175f0b826820480860013307013309448268183300ac010a103302ae01282bc1005022ae0127c10052092b03956740027b68385020b00138d05022b20150cb005208f7017b6c087b6b107b692888a80194787b6a185108ff0249267802492670024926680249266002059567e001956860023300b401330206284bc5005022b60175c5005020b8016bed5022ba01c4bc00330a057b6a80013300bc0133023c012863cf008267288477e07b67305022be0102cc003307055022c001a1cf005020c2018aee33044926b8004926b000330b330c33024926a80095670001827a30826338018278208279287b6a688267a0007b7a10643a7b73187b6888007b787b6980007b79083303200164a08267307b6b78d87b07857b017b6c7094cb018267a800d47207947b01826838c83808826a40c84a0a8269488267b800c87909826750826cb000c8c7077b6498007b639000520bff007b6258d8380bc8ba0ad34a02d84a0cda2b0cc89c0cd89c02826bb800d8b909c89707c827075022c401b2d0005207d4019567c0005020c601e4ce5022c801b5cc005020ca015cd18262880095220188270182638000c87303d43207887701826868c88707d88708826460c88404826890009589207b6960d8890a82689800c8a8097b699000d8890bdaaa0b8268b800c8b800d8800b8268b000c8b8087b68b000826878958b20d88b0c826970c8c908d89809dacc09826a58c8a909d8a90c826aa800c8ca0a7b6aa800643a7b6a8000826ca0007bca08642a5022cc01f2c900649228d5fe5022ce014bc8005020d00164075022d2011fcf0028ff00826228826b30d32b0b826410d44b0b826318826008d4030cd4cb0b510b9100826b9000d8b80bc8ba0a826c9800d3ca02d8ca0cda2b0cc89c0cd89c02826bb800d8b909c89707c827075022d401a2bf005207b5009567e0005020d601c5cd5022d80123bd005020da0187d1007b6788007b68703307ff3308ff8269b8005020dc0149d1005022de0156c7005020e0013bd1005022e201a7b9005020e40109d08262288263188264108260080198473f970801d4870798383f974901d4980898293f973a01d4a909972a0195aa015022e6012cc700330b055022e8015ece005020ea01c4cf8268204918184918104918084908ff003302ec01281cc3005022ec0118c3003200003300ee01330286002849bd005022f001e8bd0052092b03956740027b68385020f201f9cc5022f40111c8005208f7017b6c087b6b107b692888a80194787b6a185108ff0249267802492670024926680249266002069567e001956860023300f601330206280cc2005022f80136c2005020fa012cea5022fc0185b900330a067b6a80013300fe0133023c012824cc008267288477e07b673050220002c3c8003307065022020262cc00502004024beb33044926b8004926b000330b330c33024926a80095670001827a30826338018278208279287b6a688267a0007b7a10643a7b73187b6888007b787b6980007b79083303200164a08267307b6b78d87b07857b017b6c7094cb018267a800d47207947b01826838c83808826a40c84a0a8269488267b800c87909826750826cb000c8c7077b6498007b639000520bff007b6258d8380bc8ba0ad34a02d84a0cda2b0cc89c0cd89c02826bb800d8b909c89707c827075022060273cd005207d4019567c00050200802a5cb50220a0276c90050200c021dce8262880095220188270182638000c87303d43207887701826868c88707d88708826460c88404826890009589207b6960d8890a82689800c8a8097b699000d8890bdaaa0b8268b800c8b800d8800b8268b000c8b8087b68b000826878958b20d88b0c826970c8c908d89809dacc09826a58c8a909d8a90c826aa800c8ca0a7b6aa800643a7b6a8000826ca0007bca08642a50220e02b3c600649228d5fe502210020cc50050201202250450221402e0cb0028ff00826228826b30d32b0b826410d44b0b826318826008d4030cd4cb0b510b9100826b9000d8b80bc8ba0a826c9800d3ca02d8ca0cda2b0cc89c0cd89c02826bb800d8b909c89707c827075022160263bc005207b5009567e0005020180286ca50221a02e4b90050201c0248ce007b6788007b68703307ff3308ff8269b80050201e020ace005022200217c40050202202fccd005022240268b60050202602cacc8262288263188264108260080198473f970801d4870798383f974901d4980898293f973a01d4a909972a0195aa0150222802edc300330b0650222a021fcb0050202c0285cc8268204918184918104918084908ff0033022e0228ddbf0050222e02d9bf003200003300300233028600280aba009511c0fd951800027b80387b85307b8628951540028411e064167b67189567e0013308e00050203202a7c98267f8017b67588267f0017b67508267e8017b67488267e0017b67409567c00133080001502034027dc98267d8017b67388267d0017b67308267c8017b67288267c0017b67209567a0013308405020360254c9956800018287a000828ab8008289a800828cb000957b207b6778d87b07c879087b6970d89809da7709c8c9097b6c60d8c9077b6a68c8a707d49b0ad48707d47a0a98aa20d49707977720d4a707520737023a07200002956a00017ba798003a072800023a083000023a093800027ba790007ba88800956880017ba980007b6b1064b75020380206ca82687895874050223a0230b3005208ef01826840956a00017ba8608268487ba8688268507ba870956860018269587ba97850203c02cfc982687895876050223e02f9b2005208b801826820956a00017ba8408268287ba8488268307ba850956840018269387ba9585020400298c983670002330042020a07018268789587800050224402b6b20052087501956c000282c982c80882ca1082cb18956c00017bcb387bca307bc828956820017bc9205020460252c933076001037b67588377330048020a018268789587a00050224a026bb20052082a01826a5850224c02ebbf0049261801956b00017bba107bb808956800017bb950204e020cc9826778826a60d4a707826870826968d49808d48707987720d4a808978820d487075207e1004926f8004926f0004926e8009568e0004926e000a00082677850205002c8c84926b8004926b0004926a8004926a000c0008267687b67d8008267607b67d0008267707b67c8009567c0009568a0008269787b69c0005020520299d5956780008268785020540245c782679800826a900082698800826880005022560205c70052075e8267107b6878502058020fcc9518e08489e07b69706491837781687883990a0b826a7082a71882a81082a90882aa6f776f886f996faa826b187bba187bb9107bb8087bb79551c0fd9517000282703882753082762895114002320000951130fe7b10c8017b15c0017b16b8019515d0018411f0828a10828b1882890882867b1988007b1b78d4b908d4a609d489099899207b1a8000d4a808978820d498087b17685208050495179001646850205a027ac68217a8018218a00182199001821a9801d4870788982094a8947851089d0195177001646850205c0250c68217800082187850225e02c4c70082198800949894785108b503821788017b1770821780017b1778821778017b178000821770017b17880083682095175001502060020bc6821a70821678821c800082128800821768017b17608210600182145801821350018ec7882820858801dbc7088e678ea9daa709d4a607da78095209db00d46207d4ac08d487077b17489727037b178d7900013307ff3308ff7b13587b14507b10305020620273c9007b17287b180882169a6b00017b1b2088ba80007b1a18648993a97b1940647993a97b19388db980003307ff3308ff5020640218c9007b1710821708d487077b17088d6980003307ff3308ff5020660221c900821450821358821a70821678821c800082128800821018821908db0908821928821b10d4b909da0709821b2093b8ff93b9ff821748937993788210389370821b40937bd2b404d20303821760d28707821030d29000821b682809821b6882176001d4a707d46008d4c409d4230a7bba7bb9087bb8107bb718955130fe8210c8018215c0018216b8019511d00132007b16509517300133084050206802b3c48217480182194001821a3801821830017b17607b1a68d4a7077b1870d49808d478089888207b1958d49707977720d487075207fd01492120014921180149211001140700000000a9275a30951810017b17280182177050206a0291c5821760821858d47809140600000000010000001407fcffffff00000000821870d8780782186894877b194894975107a50182177083770449210801492100014921f000209518f0004921f80050206c023fc59517d00082185050206e02f8c39567dc821870d8780782186894878218489487510760018219e800821ae000821bd8008218d0008216708367247b18407b18b0007b1b287b1bb8007b1a307b1ac0009518b0007b19387b19c80050207002dfc41408bcffffff00000000d88608821968949882194894985108090182188000821978d498081407e0ffffff00000000821950d8790782198800949794875107e300821740821930d49707821838821a28d4a808d48707987720d49808978820d487075207be008217708377448218508388207b18880082164064685020720214c87b1780008217880064685020740204c864788217800064695020760242c2821770c86707d86708821968821b2850227802cdc100821858821c30c8c808c88b0bd88b0ad8c808821c60821638c86c0cc8c808c8a808d4b8081406bcffffff00000000d8670a949a948a510a368377444921a8004921a00049219800951890004921900050207a02d5c382174095771f1408e0ffffff01000000d28707ac670400837644821770646850207c0266c78378330701646933007e020a1033028002286fc500502280026bc500829a7b1a18829a087b1a10829a107b1a088299187b198289828a08828b1082881864767b18587b1b507b1a483307049518407b19405020820259c382177b17388217087b1730502284026ec4005020860241c34916184916104916083307447b6750228802bbbe003200951150ff7b10a8007b15a0007b1698009515b0008411f0828c10828b1882860882827b1b407b1638d4b608d4c20bd48b0b98bb207b1c48d4c808978820d4b8087b17305208d700642682a7187b172882a7107b172082a7087b171882a77b1710829718829810829a0882997b19707b1a787b1880009518707b178800642750208a02a6c2821948821a40d4a9071408e0ffffff00000000d88608821b3894b894785108799567407b1708d86707c87b087b18d8b808da7708c898087b1838d89807c8a7077b17488367208218107b18508218187b18588218207b18609518508219287b196850208c023fc28217308218387b781082187b78088218087b788218487b7818955150ff8210a8008215a000821698009511b0003200005020900209c2491118491110490111330704641849110850209202f2c1390850010256183f0b2003500102400133086001028388330701330924330094020a1001828b10828218828c088283d42c08d4b30ad48a0a98aa20d4b808978820d4a80852087b9511a07b10587b15507b16489515608411f06476829418829010829a0882999537207b1718d83707c87c087b1810d8c80cda770cc8bc0c7b1cd8bc07c827077b17087b19207b1a287b10309518207b143864375020960252c182177b67108217107b67088217187b678217087b671850229802c0af003200008367600433009c020a0101956b000482b77882b8687e69660482ba7050229e02e0b600520766044926b8044926b0044926a8044926a0040a956700049568a0043300a0023302062804b50095670004827a18827910827b08827cd4ab07d49c08d487075107ef007b6c287b6b307b6a387b69404926f8034926f0034926e8039568e0034926e0030a33075020a202a2c0390850010256181f0b200350010220019517e08479e07b692064913307600102837783993308203300a4020a0b01826a2082a782a80882a91882aa106f726f886f976fa9826b30c8b909826a28c8a707d8a70ac8a909d3b90cd8b90bdaca0b826c40c8c808c88b0bd88b03826a38c8a202d8c808c828085022a60204b200956a00047ba7c0007ba9c8007babd0007ba8d8009567c0039568c0043300a802330206281ab40095670003827bd8008278d0007e69c603827ac8005022aa0269af00280933093308330b01826a787b6a40037b6960035022ac02d2c00049268003018269707b6948037b6868038268687b6850037b6770038267607b6758039567a0039568800395696003956a40037b6b78035020ae028315956800038287a0007b67408287a8007b67388287b0007b67308287b8007b67288367e0043300b0020a01018267e004977710987b10826728956c00027bc7b8008267307bc7b0008267387bc7a8008267407bc7a0005022b202d2b7005022b40214c100492ce0000a956700039568e0029569c002956aa0027bcbc0003300b6023302ec032886a800826748977720987920826758826850d487077b6940d4970752075c8267787b6760028267707b6768028267687b67700295678002956860028269607b6978023300b8023302e40228f3c000826760956a00027ba7188267687ba7108267707ba70895672002956800028269787ba95020ba0208035022bc02a1bf009568e0014926e00133075020be0278be4926d8014926d0014926c8013307209568c0014926c001085020c0025abe3308500102390750010256173f0b200350010240011407ffffffff000000007b67485022c20220bf003307600102837783997b68383308407b67303300c4020a0b3302c60228daba005022c602d6ba00956b00057bba187bb9107bb8087bb79567a001956800053300c8023302062805b2008267b0017b67288267a8017b67208267a0017b6718492698018267407b6790018267507b678801956880018267587b67800133075020ca02aebd4926780149267001492660010833072095686001492668015020cc0290bd826838818756173f08480840018267188477ff7b67588267208477ff7b67508267485022ce024bb9003300d0020a0b3302d2022853af005022d2024faf00956b00057bba387bb9307bb8287bb72095674001956820053300d402330206284cb100956b000182b74082b84882b9508477ff8488ff826a48d2a909826a607b6af800826a687b6af000826a707b6ae800826a787b6ae000492618017bb9107bb8087bb7492638018267407bb7308267507bb72895672001956800019569e000826a587bba203300d6023302840328ecb3009551a0fa951700058270588275508276489511600532005022d8028eac005020da029cbc5022dc02dfb4005020de028fbc836780040a01956b000482b9800082b7880082b8900082ba98007b6a98007b6890007b678800330724956880007b6980005020e00258bc390850010256185f0b20035001026001330860010283883307013309443300e2020a103302e4022868be005022e40264be00828b08828618828c10828a8568000001d4c80898691088990193895109177b7a7b7b087b7c107b76185022e602c4b70032005022e80270b9007b1b107b1c085020ea02e1bb491158491150491140d0003307049518404911485020ec02c7bb7b16388217087b17305022ee02debc005020f002b1bb390850010256185f0b20035001026001330860010283883307013309443300f2020a1001951100fd951900027b90f8007b95f0007b96e800951500038411e064168289187b69508289107b69488289087b694082887b68387b6758836740023300f4020a0101956b000282b75882b8487e69460282ba505022f60204b10052076702492698024926900249268802492680020a95672002956880023300f8023302062828af0095670002827a38827930827b28827c20d4ab07d49c08d487075107f4007b6c187b6b207b6a287b693049261802492610024926080295680002492600020a33075020fa02c5ba390850010256181f143308203d085001023302fc0228eaae005022fc02e6ae003307600102837783993308203300fe020a0b01826a1082a782a80882a91882aa106f726f886f976fa9826b20c8b909826a18c8a707d8a70ac8a909d3b90cd8b90bdaca0b826c30c8c808c88b0bd88b03826a28c8a202d8c808c828085022000322ac00956a00027ba7a0007ba9a8007babb0007ba8b8009567e0019568a002330002033302062838ae0095670001827bf8008278f0007e69e601827ae8005022040387a900280933093308330b01826a387b6a60017b6980014926b8014926b0014926a8014926a001028269407b6968017b6888018268487b6870017b6790018267507b6778019567c0019568a00195698001956a60017b6b9801502006039c0f8267c0017b67508267c8017b67488267d0017b67408267d8017b67388367c0020a018267c002977710987b108267387b67d8008267407b67d0008267487b67c8008267507b67c0004926f8004926f0004926e800492618014926100149260801492600010a95672001956800019569e000956ac0007b6be000330008033302ec0328a2a20082622801826320018264380195690001829a30829b50829c588297408298488269587b9b307b9c387b97207b98287b9a107b94187b937b9208955100fd951700028270f8008275f0008276e80095110003320050220a03e8b80014070000000050c6fc6d9568a0007b67b800330750200c03abb849269800492690004926800030330704956880004926880050200e038db8836760020a01956b000282b96082b76882b87082ba787b6a787b68707b67683307249568607b6960502010035fb8390850010256185f0b2003500102600133086001028388330701330944330012030a1033021403289ba4005022140397a400330016030a0101956b000282b7980082b888007e69860282ba900050221803dcad0052076601956740029568600233001a033302062811ac0050221c03b3b6005107b90050221e0396af0050202003dcb7390850010256181f143308203d08500102330222032801ac0050222203fdab00330760010283778399330820330024030a0b01826a1082a782a80882a91882aa106f726f886f976fa9826b20c8b909826a18c8a707d8a70ac8a909d3b90cd8b90bdaca0b826c30c8c808c88b0bd88b03826a28c8a202d8c808c828085022260382a70033002803330206286bab0095670002827b188278107e690602827a0850222a03bda600281033093308330b33022c032852b60050222c034eb60033090250222e0373a70050203003070d5022320329b100330034030a0133023603283da2005022360339a200330038033302ec03286aa00082624801826340018264580195690001829a50829b70829c788297608298688269587b9b307b9c387b97207b98287b9a107b94187b937b920850223a0365ab00320050223c038aa60050203e0398b650224003dbae00502042038bb68367a002330044030a01330246032817b2005022460313b200502048036cb6390850010256185f0b200350010260013308600102838833070133094433004a030a1033024c0328a8a20050224c03a4a20033004e030a0101956b000282b7980082b888007e69860282ba900050225003e9ab0052076601956740029568600233005203330206281eaa0050225403c0b4005107b90050225603a3ad0050205803e9b5390850010256181f143308203d0850010233025a03280eaa0050225a030aaa0033076001028377839933082033005c030a0b01826a1082a782a80882a91882aa106f726f886f976fa9826b20c8b909826a18c8a707d8a70ac8a909d3b90cd8b90bdaca0b826c30c8c808c88b0bd88b03826a28c8a202d8c808c8280850225e038fa500330060033302062878a90095670002827b188278107e690602827a0850226203caa400281033093308330b33026403285fb400502264035bb4003309015022660380a50050206803140b50226a0336af0033006c030a0133026e03284aa00050226e0346a000330070033302ec0328779e0082624801826340018264580195690001829a50829b70829c788297608298688269587b9b307b9c387b97207b98287b9a107b94187b937b92085022720372a90032005022740397a40050207603a5b450227803e8ac0050207a0398b48367a00233007c030a0133027e032824b00050227e0320b0005020800379b4390850010256185f0b2003500102600133086001028388330701330944330082030a1033028403287aab005022840376ab00827210828a107b1bb800d34b0b7b1cb000d33c0cd4cb0b7b1aa00097ac2098c020972c2098cc207b1cc000d30c0cd4cb0b510b6203829a18829c10829b8296087b1ba8007b1cd800d4cb097b1ad0007b16c800d4a60bd4b90951093a03828a1849219000ffff008218c000821bb800d4b808821cb000d4c8087b19587b19607b19687b19707b1088007b1380007b1478510865017b1a08827718951900047b9b607b92707b977895178004951860047b9c68330086033302b807283ea7005022880397a50033008a033302e40228b1b50050228c0344a80033008e033302140328ca9f0050229003d2a600502092031cb2502294033aa900d28b02821b9800d27b0b7b1b30821b80037b1b9800821b38d27b00821b40d2b707821b48d28b0b7b12180350229603bba40050209803f3ef821018821910d40907821a50d4a60850229a0347af005207560250229c03f6b10082129800d82408dab80c821350c93a0bc9cb06d8cb0bd83a0a821c48c90c0cc9ac0cc9bc0cc99707c98707c92408d4c707d46809d47909d46707989920977720d4970752070802951c0002492cd8008217b8007bc7c0008217b0007bc7c80050229e037bb0007bc7f8007bc9f0007bcae8007bcbe0009519e002951ac0028217c0007bc7d000821798003300a00333020a28b5b4008210880082138000821478821a0801d40407d43707510798015022a203f7b2003300a4033302b80728eaa5005022a6038ea7003300a8033302e402285db4005022aa0360a8003300ac0333024c0328769e005022ae0328a7005020b003c8b08212b8017b1298008466ff7b16a8008218a0008484ff8218b0008483ff8216b8008466ff8218d8008480ff8219b0017b19b8008218a8017b18b000821aa0017b1ad800821cc80084ccff821b90008217c000d2b707821ad000d2ba0a7b1738017b1330017b1428018217a8007b1720017b1a58017b1c50017b1048017b1640017b1278017b1970017b186801951780019518600195194001951a20018216d8007b1660015020b20334ee5022b40335ae005207a60082178801821898017b18d00082138001821a9001d3970bd8970c8212d800d82308dab80cc96a0bc9cb04d8cb0bd86a0a821cd000c90c0cc9ac0cc9bc0cc99707c98707c923085022b603539d005207554921f8008217787b17e000821780007b17e8005022b803ceae007b1718017b1910017b1a08017b1b000195190001951ae000821788007b17f0008217d8003300ba0333020a2808b3005022bc032cb200320000828910828318828a08828cd43a02d49c08d42808510828d4ac08888801d8890bc9b30bc9890988c801c98a0a95ccff7b7c7b7a087b79107b7b1832003300be0333028e0228609f008289087e8a06828b10828818979c10d4ca0a97bc10989930d4c909978c1098bb30d4cb0b9888307b78187b7b107b79087b7a32009511807b10787b15707b1668951580008411e06416829a187b6a38829a107b6a28829a087b6a1882997b69208289828a08828b108288187b67307b68587b6b507b6a489568407b694033075020c003ddaf390850010256181f143308203d085001023302c2032802a4005022c203fea3003307600102837783993308200a0b826a1082a782a80882a91882aa106f726f886f996faa826b18c8ab0b826c20c89c0cd89c09c89b0bd3ab07d8ab0ada790a826728c88707c87a0ad87a03826938c89202d88707c82707c837078268307b8c7b8b087b8a107b87185022c403ddaa0032005209335022c8036fb10082889788109888104911184911107b1864184911085020ca0327af9551d08210288215209511303200005209385022ce033bb100828918828a10828b0882886e997b187b1b087b1a1064187b19185020d003eeae9551d08210288215209511303200008289187b19188289107b191082860882887b1808827818827910827a0882777b18587b19507b1a487b17409517209518403300d40333020628c0a200821720821c0898c810976930d49808986610821a1097a930d4690998aa10821b1897bb30d4ba0a97cb30977710987710d4b7077b1a787b19707b18687b17609517409518605020d603a3af5022d8031faa003200951160fe7b1098017b1590017b1688019515a0018411e064168289187b69408289107b69388289087b694882887b6850827a1882791082780882777b6a207b6a58017b69287b6950017b68307b6848017b67587b67400195672001956840013300da033302062802a20095670001827c38827b30827a28d4cb0788a801947851082302826720019518e08488e064817b679577018879017b6a08c8a909d4970a88aa01c8ba0a7b6b18d8ba0b7b6c10c8cb0b7b89087b877b8a107b8b18956740015020dc03d3ae826720956900017b97188267287b97108267307b9708956800018267587b9733075020de0361ad9517e08477e07b67586471390850010256181f0b200350010220019517e08479e07b693064913307600102837783993308200a0b01826930829718829810829208829a6f776f88826b08c88b0b8263c87303d87307c87b0bd38b09d88b08da97086fa7826a10c8a7076f29826a18c89a0ac88a0cd89a08d8ac09c88707c89702826850826a38d4a804826948826740d47909d49407987720d4a909979920d49707826958643a7b6a307b9a7b6b287b9b087b6c207b9c10642a7b6a187b9a185207f4009567e0005020e0035aab8267e0009777109877107b67109567c0008268583300e2033302062892a0007e67c6009777308268d8008269d000826ac800826b10d4b707956b00017bb8787bb9707bba687bb760956860018267585020e4038aad826950826738826840d487071408e0ffffff00000000d88908826a4894a894785108718398209567a0005020e603d5aa8267a0008268a8008269b0007e6ab8007b6a787b69707b68687b67608267187b6798008267207b6790008267287b678800956780009568608269307b6980003300e8033302d2032818ae00955160fe8210980182159001821688019511a0013200003300ea0333028600289f9a005022ec032095003300ee0333020628ac9f005022f00369aa00510b9e005022f20361a3005020f403d3fa5022f6034d99005020f80342fb5022fa03b9a2003300fc0333020628759f008263e0021409ffffffffffff0000d29302826478d29409ac29020195670002827af8008278f000827ce80097a710988b30d4b7077b675097881098c730d487077b674897cc10983730d4c7077b673898aa307b6a40ab926c5022fe03f29d00330000043302d2032841ad002899009567800133000204330298002815ad0050220404f09700330006043302c60328c5a8005022080444980033000a043302cc0328b2a80050220c04259f0050200e045efc330c330a3309330b33021e0428089d009567c002330010043302980028c2ac00502212044b9700330014043302c6032872a800502216048f9400330018043302cc03285fa80050221a04129d0050201c040bfc826950826a48826b40826c3850221e04b59c00320050222004a2a3005020220432aa390850010256181f0b2003500102200133086001028388330701330904330024040a1001951170ff7b1088007b1580007b1678951590008411f082ab187b1b2882ab107b1b2082a308828c1882860882a4829218829a10d4c6068280828810829b08829c850901d48909d4690952094d7e16286e22c84c0cd84c0864c4c8b30cc88c0cd33c09d83c0bda980b821820c8a803c8b300d8300ad8830bc82609c8b909c8a906856a000001d4a00a986b1088bb0193ab520b71288e007b13087b14107b1218821220850902d49808d468085208820064c4821310d83c0664bc821b08d3bc08d8bc097b16da8609c92a08c99800d89806d82a027e19287e1818c99808c92808c968068568000001d48008986910889901938951092fc9bc0c8218c98c0cc93404017b747b7c087b70107b7618955170ff82108800821580008216789511900032003300260433028e0228df9700491160491158491150140700000000717b484e9518507b1768330750202804c0a84911484911404911305133070495183049113850202a04a7a8390850010256183f0b200350010240013308600102838833070133092433002c040a1001951110ff7b10e8007b15e0007b16d8009515f0008411f0828c10828b18828a0882887b1a287b1b18d4ab0bd4c80ad4ba0a98aa207b1c20d4cb0b97bb20d4ba0a520ae2017b17088297187b17688296108297087b176082977b17589517b0007b181050202e04e1a6821758d46709821868821a60d4a808d489099899207b1650d46808978820d49808520899018219c800821ac000821bb8008218b0007b18307b1890007b1b387b1b98007b1a407b1aa000951890007b19487b19a800647650203004bea7821768821850d478081407e0ffffff00000000d87609821a6094a9948951094001821820821918d49808821910d87907821a2894a7948751072601646c821630821a40d4a607821848821b38d4b808d48707987720d4a808978820d487075207ff0083c7208398207b182864685020320401ab7b1720821728646850203404f3aa647882172064695020360432a5821758c86707d86708821960821b3850223804bda400821850821a40c8a808d8a80a821c68821648c86c0cc8ca0ac88b0bd88b08c8a80850223a0492a700510a9100837720492188004921800049117895187049117050203c04d4a682163095661f1407e0ffffff01000000d26707821858c88707d88708821a60c88a09d8a90ada880a821850c88a0ad88a08821b68c8b808957b20d87b07c8790cd89c09da7709c8a909d8a907c887078218087b8b7b8c087b89107b8718955110ff8210e8008215e0008216d8009511f000320000951120ff7b10d8007b15d0007b16c8009515e0008411f0828b10828a18828c0882867b1a287b1c20d4ac08d4b60ad48a0a98aa207b1b30d4b808978820d4a8087b17385208bf008297187b178297107b17088297087b171082977b17184921b8004921b0004921a8009518a0004921a00020646750203e04e6a5956720d86708821a20c88a09d8a90ada880a821830c88a0ad88a08821b28c88b0b7b19487b174082177b17788217087b17708217107b17688217187b17607b1a50951780009518609519407b1b585020400415fd821790008218980082198000821a8800821b387bb7107bb8187bb97bba08955120ff8210d8008215d0008216c8009511e000320000330044040a13956b0002330246042896a600956b0002502246048ea6005207b60239074c0102541703b4029567800233084050204804eba350224a04399b004926c00203956760029568c00233004c043302062823990050224e048e9b005020500443c1502252046ca3005208670250225404989d0050205604e1a4826ab80084a70152072550225804b99f005108450250225a047d9e0050205c04bfa450225e04ca9c00288b0150226004c7a5009568e0014926e001033307502062049da49517e08477e07b67586471390850010256181f0b200350010220019517e08479e07b69a80064913307600102837783993308200a0b50226404fd9200826258649a642c7bc9187b6080007b201064807bc80864797bc7826720c87b0b7b6b40d87b07826818c887077b6738017b6a88007b6090007b6998008267608268b800d87807826970d39408d89409da8709826b68d8b307826a788268b000d3a80cd8a80adac70ad3b307d4c707da790a510ab8009567c00164287b63a8007b64a0003300660433020628f09700502268040d9500d8c802826cb000826a38c8ac0cc82c0c50226a0418a10052082a0150226c04cb9e0050206e04a4a382629800952201882701826a9000c87a0ad4a20788770182688000c87804d8840882678800c887078268b800958320d88309826ba000c89b08d8b80bda990b8269a800c89b0bd89b09826cb000c89c0c7b6cb00064a0826c587bca0864297bc250227004ada30064c2280aff826c3033027204282a8f0050227204268f00502074042db09567200133084050207604d9a15022780439920050207a04acfc826ba8008269a0008267b800d4b707826ab000d4a90850227c042f9f0052075e64a2956c000182c70882c8187b6898008263000182ca10d3b704d8b70cd89300da400cc92a08c9c804d8c8087b689000d82a0a826cb80082689800c9c80cc9ac0c82689000c98c0cc9b707c90707c9930850227e04e18e0051071b0033086001022808330860010201838833070133090a100164977b68b800502080041da683788169b8003307330082040a103302840428aa940050228404a69400330804330086040a043302880428859d0050228804819d00510a0c50228a0466a000320033086001028388330701330933008c040a1033028e04282ca00050228e0428a000330090040a043302920428439d00502292043f9d00510a0c5022940424a0003200330860010283883307013309330096040a103302980428ea9f0050229804e69f000a0450229a041e900032003308440a0450229e041090003200828a10828218828c08828bd42c08d4ab09d48909989920d4a808978820d498085208719511a07b10587b15507b16489515608411f0647695b7207b1718d8b707c87c087b1810d8c808da7708c8a8087b18d8a807c827077b17084911384911304911200195182049112864b75020a00438a18217107b67088217187b6782177b67108217087b67185022a204a68f003200004926e0028367e0020a1301956b000282b7f00082b8f80082b9e80082bae000d49808d4a707d4870752078c0339074c0102330843ae7887039567c0023300a6043302840428299300956800028287d8007b67488287d0007b67688287c8007b67608287c0007b67589517e08477e07b67706471836700033308240a04956b000382ba1882b91082b80882b77b6a20826b707bba187b69287bb9107b68307bb8087b67387bb733076001037b677883777b67503300a8040a06018269788097108298829908d48707d4970751070c03826768977720987820826760826958d497077b6818d4870751074b038267503300aa040a068269783302ac0428f38e008269785022ac04ec8e004926b8027b68b0027b67a8029568a0027b6aa00233075020ae04f49f4926980249269002492680020133072095688002492688025020b004d69f390850010256183f0b200350010240019517e08479e07b694064913307600102837783993308403300b2040a0b826a403302b404280a8d00826a405022b404038d00826a487b6a3802826a687b6a3002826a607b6a2802826a585022b604e69a007b6b40023300b8043302c20728b9a100826778028268700282696802826a6002956b00037bb7387bb8307bb9287bba20956720038268705020ba0483a0956700023308405020bc04f19d956800028287187b67688287107b67488287087b674082877b67708267500a068267788178107b685082787b68108277087b6778826720956b00017bb7b8008267287bb7b0008267307bb7a8008267387bb7a0008267687bb7d8008267487bb7d0008267407bb7c8009567e0019568c0019569a001826a707bbac0005020be04e1dc826b40826768d4b707826a48826870d4a8085022c004d69a0052072b0164a4956900018297e8008298f8007b68388263e001829af000d3b700d8b70c826270d82308da080cc94a09c9c900d8c9097b6930d84a0a826c68826938c9c90cc9ac0c826930c99c0cc9b707c98707c92308d4c707d4080ad47a0ad4070798aa20977720d4a7075207c0008267786f77987920826a106faa97ab20d4b909977720826b506fbb98bb20d47b0b98a72049265801826a587b6a4001492678017b6b6001826a607b6a48017b6968013a096000023a0a6800023a0b7000023a0c7800027b6998017b6a90017b6b88017b6c80018269187b69500195698001956a6001956b40017b6770018267705020c204d69f956720013308405020c404549c956b000182ba3882b83082b92882b720d49a0ad48709d4a909989920d4a808978820d498085108f7000033086001022808330860010201838833070133093300c6040a103302c80428629d005022c8045e9d0014070000000005df02e69568a0007b67b80033075020ca04219d49269800492690004926880033070495688000492680005020cc04049d390850010256183f1120035001024033086001022868330860010228614926f0004926e8004926e000140700000000620d28949568e0007b67f80033075020ce04c19c4926d8004926d0004926c8003307049568c0004926c0005020d004a49c390850010256183f112003500102403308600102280833086001020183883307013309243300d2040a103302d404288e9e005022d4048a9e009568000149260001017b67785020d604599c3308208267785020d80403a05022da044f94003300dc040a1001951120ff7b10d8007b15d0007b16c8009515e0008411e049219800492190004921880049218000831780000a1301821790008218980082198800821a8000d49808d4a707d4870752076939074c0102541703684921b8004921b0004921a8004921a000029517609518a0003300de0433020628e68f008217787b17188217707b17108217687b17088217607b179517403308405020e0046c9a8217588218508219488216405022e204a68c005107260033086001022808330860010201838833070133093300e4040a103302e60428d093005022e604cc93005020e804609b33082064675020ea040b9f5022ec045793003300ee040a103302f00428dd9a005022f004d99a0049267803492670034926680349266003836760030a1301956b000382b77082b87882b96882ba60d49808d4a707d4870752071d0439074c0102330863ae781804956740033300f2043302840428428d00826758037b6760826750037b679800826748037b679000826740037b678800956720033300f40433028e0428da9800826738037b6750826730037b6748826728037b6740826720037b6738956700033300f60433029c0428e78c00956800038287187b6780008287107b67788287087b676882877b6770826798009777209877204926f8027b67f002826790007b67e8029568e002826788007b67e00233075020f804449a4926d8024926d0024926c002013307209568c0024926c8025020fa04269a33076001037b675883777b67103300fc040a068269583302fe04282099008269585022fe04199900330c500102d4ba0a7b6a309777206f99390a500102989920d497077b67289888207b6820561a3f152003500102407b6c083302000528ff91007b6c0850220005f891003307600102837783993308407b67330002050a0b826a183302040528088700826a185022040501870049267802826a207b6a7002826a307b6a6802826a287b6a60027b6998027b6890027b6788029567a00295688002956960027b6b8002330006053302c20728a59b008267b8028268b0028269a802826aa002956b00037bb798007bb890007bb988007bba800095674002956880033300080533020628378d0095670002827b58827c50827a48827940d2ba07d2c908d287075117fff1008264707b6930d84902826068d30a097b6a28d80a08da9208826978d89c0782638000d33b0a7b6b20d83b0bdaa70b7b6c18d39c0cd4ca0adaa80b520bed01826a18c99a0a826920c9390bc97b0bd88a09c99b0b7b6b20c98a0a7b6a18826728c90708c928077b6728826730c947077b673082671033000a050a0682695833020c052850870082695850220c05498700826918956b00017bb9f0008269287bb9e8008269307bb9e00049261802826960956c00027bc938826998007bc930826990007bc928826988007bc9207bc8108268207bb8f8007bc70895672002956800029569e0017bca50200e05164f826770956b00017bb78267387bb720826788007bb7408267687bb7088267407bb728826790007bb7488267787bb7108267487bb730826798007bb750826780007bb7188267507bb738956740019568200195690001826a607bba58502010057b3e9567e0003308405020120568968268f8007b6898008267f0007b6790008269e8007b698800826ae0007b6a80007b68b8007b67b0007b69a8009567c0009568a0007b6aa00050201405c0f5826b88008269800082679800d4b707826a9000d4a908502216058d930052075a64a28267c8008268d8007b68788263c000826ad000d3b704d8b70cd89300da400cc92a08c9c804d8c8087b6870d82a0a826c9800826878c9c80cc9ac0c826870c98c0cc9b707c90707c99308502218054483005107e0000033086001022808330860010201838833070133090a10014926d0014926c8014926c001140700000000b2418ffb9568c0017b67d801330750201a05af9682671033001c050a0682695833021e05287a870082695850221e057387003307049568a0017b6aa0015020200580968267207b6798018267187b6790018267287b678801330724956880018269307b69800150202205579682678000956a00017ba7788267787ba7708267687ba768330744956860018269707ba960502024052d96826708817756177f0c826808480880000133070133096482680a100164977b68980050202605bb998378816998003307330028050a10019511807b10787b15707b1668951580008411e04911584911504911484911408317400a1301821750821858821948821a40d49808d4a707d4870752072f39074c01025417032e95172033084050202a056a9482173882183082192882162050222c05a4860051071b0033086001022808330860010201838833070133090a10014911184911104911086418490112646750202e0560953308206467502030050b9950223205578d00330034050a1001951100fc951700037b70f8007b75f0007b76e800951500048411e06416502236052e960049268003836780030a1301956b000382b7900082b8980082b9880082ba8000d49808d4a707d487075207280539074c0102330843ae78230595676003330038053302840428348700826760037b6778826768037b6770806770037b67688367a0033308240a048267b8037b6798008267b0037b6790008267a8037b6788008267a0037b678000492658038267687b6750038267707b674803956840038267787b674003330750203a05789449263803492630034926200309330720956820034926280350203c055a949517e08477e07b677864713309500102390750010256173f0b200350010240017b69489517e08479e07b697064913307600102837783993308407b674033003e050a0b826a703302400528167e826a7050224005107e7b6a50826b787bba187b69587bb9107b68607bb8087b67687bb7826798007b67f802826790007b67f002826788007b67e802956700039568e002826980007b69e00250204205e3409567c0028268783300440533020628c7870050224605a48d007b69787b6a7052086350224805dc90007b6b307b6c2850204a055c528260a8028269b8028262a002826bb002826878d30807d8080c826870d82803da730c826828d8b804826730d3970ad89707daa407d3b808d4a808da8c075107f90133004c0533028e0228388200330a3309330449163801826868826260826358826050018267707b6760017b6a8001826a80007b6aa0017b68c001826a787b6a68017b698801826988007b69a8017b62c8017b6c70017b649001826890007b68b0017b63d0017b6b78018267387b679801826798007b67b80150224e053094007b60d80150205005d05750225205fe9100520b164926800049268800492698004926900028290150225405a48f0050205605efe1956900018297587b6790008297507b6788008297487b67788297407b6780009517e08477e07b67980064718267507b97188267587b97108267607b9708956800018267687b973307502058054592826948819756171f08480920019517e08477e07b6770647183793308208267400a0b826a7082a782a80882a91882aa106f726f886f996faa826b78c8ab0b826c8000c89c0cd89c09c89b0bd3ab07d8ab0ada790a82678800c88707c87a0ad87a0382699000c89202d88707c82707c83707826898007b8c7b8b087b8a107b87189567e00033005a0533020628d385008267f8008268f0007e69e600826ae800977b10988c30d4cb0b7b6b980097881098ab30d4b8087b68880097aa10d4a9097b6980009877307b679000019567c00033084050205c0533908267d8008268d0008269c800826ac00050225e0580820051079a0100826728c9b707c9c7087b6818d8c707826830c99808c94808c978087b6820826778c90707c937077b6710826770c927077b6708826768956900027b97608267607b97688267587b9770956860028267507b9778330750206005f690826948819756171f08480920019517e08477e07b673864718379330820826740330062050a0b01826938829718829810829208829a6f776f88826b10c88b0b826c08c87c0cd87c07c87b0bd38b09d88b08da97086fa36f29826a18c89a0a826720502264054d92007b9cc0007b9bc8007b98d0007b97d800956740029568c0033300660533020628888400826740029777109877108268980082699000d4980882698000d879078269880094979487510721330a330933044916388267087b67708267107b6778826c18826b2028f9fc8267087b6700028267107b6708028267187b67100295672002956800028269207b69180250206805c53e956800028287387b673882643002828928828a20826868826260826358826050826b30826c2828b3fc33086001022808330860010201838833070133090a1001826780007b67a000826788007b67a800826798007b67b0009568a000826790007b67b80064a77b6a980050206a058c8f3308208267980050206c05359350226e05818700330070050a1001951160fd951700027b7098007b7590007b7688009515a0028411e09517000249173849173049172849172083172002330072050a13951b000233027405285e8f00951b000250227405568f005207cc0239074c0102541703ca02831740020a01951b000282b9407b192082b8487b182882b7507b173882ba587b1a307b1af8017b17f0017b18e801951700029518e0017b19e0013300760533028408280c9100831760020a01951a000282a9607b190882a8687b181082a7707b171882a6787b16b8017b17b0017b18a8019517c0019518a0017b19a001330078053302840828c99000821730d36707821828821910d39808d48707821838821918d39808821920821a08d3a909d49808d48707520722029517600133084050207a05198d821778017b1730821970017b1938821868017b18288216600149213801492130014921280149212001407b1758017b1950017b18480195174001951820017b16400150207c05189b821938821730821828d487077b1620d49608d47808988820d49707977720d487075207900149211801492110014921080195180001492100011d821620646750207e05c68d82173882183050228005018e0082162894689478510858018217208377203a088000023a098800023a0a9000027b18f8007b19f0007b1ae8001409000000746c7561669518e0007b19e00050208205758d9517c000330840502084052e8c821bd800821cd000821ac8008217c000d4ba09d4c708d49808988820d4c909979920d498085208e9004921b8004921b0004921a8009518a0004921a000207b17187b1a0864b67b1b7b1c1050208605178d821718957720821818d88708821a08c88a09d8a90ada880a821810c88a0ad88a08c8860b7b19487b17408217307b17788217387b17708217287b17688217207b17607b1a50951780009518609519407b1b585020880542e4821788008213980082198000821a9000821608d3670bd8670c6462821618d86906dab60c821810c98a0bd88a0a8218c98308c9a808d8cb0ac9a808c9cb0bc92707c9670a821718c97906821718d48a0ad4b608d4a808d4ba0a98882097aa20d4a8085108690033086001022808330860010201838833070133090a10014921900149218801492180011407000000004071f06f951880017b179801330750208a051c8c390850010256181f0b20035001022001330860010283883307013309040a10646833008c0528a78f646850208c05a28f83788369330733008e050a103302900528108500502290050c85000a13018267f0008268f8008269e800826ae000d49808d4a707d487075207d60039074c0102330823ae78d1009567c000330092053302840428ee7d50229405b4880050209605898b492698004926900049268000083307209568800049268800502098056b8b390850010256183f143308403d0850010233029a05288c830050229a0588830033076001028377839933084033009c050a0b33029e05289e7c50229e059b7c3300a005330206283e7f8267707b67088267687b67108267607b67189567403308405020a205ca89826a58826850826948826740d49a0ad48709d4a909989920d4a808978820d4980851081b0033086001022808330860010201838833070133090a10011408ffffffff00000000826908d289098268108488ff826b1884baff4916387b6a207b68289568207b69307b67185020a405948a3308208267185020a6053e8e5022a8058a82003300aa050a1001951140ff7b10b8007b15b0007b16a8009515c0008411e049219800492190004921880049218000831780000a1301821790008218980082198800821a8000d49808d4a707d487075107133308600102838833070133090a10281c39074c0102330823ac78123308600102838833070133090a10019517603300ac053302840428507c8217607b17188217687b17108217707b17088217787b17330660010383673300ae050a063302b00528737f5022b005707f7b19388219087b19308219107b19288219187b19204911587b18507b17489517409518207b1a405020b205053933086001028388330733090a102887956b000182b77082b87882b96882ba60d49808d4a707d487075207260139074c0102330823ae782101956740013300b4053302840428ab7b826740018268480180695001492638017b6930017b682801956820017b67200133075020b6052b8949261801492610013307095022b8051d82005020ba0513893309500102390750010256173f0b200350010240017b69309517e08479e07b693864913307600102837783993308407b67283300bc050a0b3302be0528cd7a5022be05ca7a956b00017bba98007bb990007bb888007bb780009567e000956880013300c00533020628c47c8267f8008269f000826ae8008268e0007b67387b6a10d4a7077b6820d49808d478089888207b6918d49707977720d487075207429567c0003308405020c2052d878267d8008268d0008269c800826ac0005022c4057a7951079b000033086001022808330860010201838833070133090a100149269000492688004926800014070000000050c6fc6d956880007b67980033075020c6050f88491678491670491660203307049568604916685020c805f6878267387b67588267187b67508267107b67483307249568408269207b69405020ca05d287826730817756175f0b826830480860013307013309448268280a10018267207b67a0008267107b67a8008267187b67b0009568a0008267387b67b80064a77b6a385020cc058b873308208267385020ce05358b5022d005817f3300d2050a1001951100ff7b10f8007b15f0007b16e800951500018411e04921d8004921d0004921c8004921c0008317c0000a13018217d0008218d8008219c800821ac000d49808d4a707d4870752078b0039074c0102330823ae7886009517a0003300d405330284042864798219a0008217a8008218b000821ab8007b1a787b18707b1768951780009518607b19603300d6053302ce0728398500821798007b1718821790007b1710821788007b1708821780007b179517403308405020d8057c858217588218508219488216405022da05b6775107250033086001022808330860010201838833070133093300dc050a103302de0528e17e5022de05de7e5020e005738633082064675020e2051e8a5022e4056a7e3300e6050a103302e805288c7f5022e805897f0a13018267f0008268f8008269e800826ae000d49808d4a707d487075207ca0039074c0102330823ae78c5009567c0003300ea0533028404286c785022ec053283005020ee0507864926980049269000492680000733072095688000492688005020f005e985390850010256183f133308403d085001023302f205280a7e5022f205077e3307600102837783993308403300f4050a0b3302f605281e775022f6051b773300f80533020628be798267787b67188267707b67108267687b67088267607b679567403308405020fa054584826758826850826948826a405022fc0596765107260033086001022808330860010201838833070133093300fe050a103302000628f8820050220006f48200502002063a8533082082671850200406e48850220606307d330008060a1001951180fb951700047b70787b75707b7668951580048411e0951700044917384917304917284917208317200433000a060a13951b000433020c0628118500951b000450220c060985005207fa0733074c01027b17d80039074c0102330803ae78ec0750200e062b8333068001033a092002033a072802033a083002033a0a380203951b00037bbaf8007bb8f0007bb7e800951700049518e0037bb9e0003300100633021609286078951800048287187b1790008287107b1798008287087b17b00082877b17d00050201206c6828269c0008267c8008268d000826ad800951b00037bbab8007bb8b0007bb7a8009517c0039518a0037bb9a0003300140633023e09280478951800038287d8007b17708287d0007b17788287c8007b1780008287c0007b1788009517800333084050201606b482951b000382b6980082b890007b18c80082ba88007b1ac00082b980007b19b800491b58491b50491b48491b40207bb6787bb8707bba6895176003951840037bb96050201806b4908219c8008217c0007b16a800d467078216b800d49608d47808988820d49707977720d487075207a3069517000349173849173049172895182003491720646750201a0662838219c0008217c8008218a80050221c069783009498947851086c0664678218d80081869577207b17a000330850201e06e6868377330864690a039517000333084050202006e18195180003828618828b10828a088287d46a09d4b708d49808988820d4b909979920d4980852081806951c0002492cf000492ce800492ce0001409000000000000000f9518e0027bc9f8007b17307b1a287b1b2050202206c282821a20821830d46a0b646c140600000000010000001407e0ffffff00000000d87807821928949794b75107ba05838720951900024929d8004929d0004929c000e0009518c0024929c8007b16d80064a67b1b687b1c185020240666828217309577e000821830d88708821928c88909821a28d8a90ada880ac86a0ad86a08821b18c88b0b951c00027bc9687bc760821790007bc79800821798007bc790008217b0007bc788008217d0007bc780007bca709517a00295188002951960027bcb78502026067fd98219288218308217d8009577c0d878079497821a6894a751070605821aa0028216a802821cb8027b1cd000821bb0027b1bd800d88a0764a27b1ab000d39608d89609da8709821a20c9ab08d8ab0a821b18c9bc0bc9ab0bd8980ac9ab0bc99808821928c99609c97909821730c9720a821730837740951c00027bca407bc9487bc850951840027bcb58502028066d818217d0007b17f8018217d8007b17f0017b16e8018217b0007b17e001821770951b00027bb7188217787bb710821780007bb70895172002951800029519e001821a88007bba50202a06a5d8951800028287387b17d0008287307b17d8008287287b1798008287207b179000831740040a0701140600000000010000001407a0ffffff00000000821830d87807821828948782186894875107f80395170004827940827848827a50827b588217308377607b1bd8017b1ad0017b18c8019518c0017b19c00150202c06a38033076001037b17b00083770a01956780821830d87807821828948782186894875107a4038219b00082970881981082996f77977a206f88988820d48a0a9877206f98978920d47909988820821730837780004921b8017b18b0017b19a8019518a0017b1aa00150202e063780821a6882183014060000000001000000140760ffffff00000000d87807821928949794a7510734038387a000492198014921900149218801951880014921800150203006f17fff821b28821a30956740ffd87a0794b782186894875107fd0282189000d8a8036482821c9800d3bc08d8bc0964c4da83098216208218d800c9680764acd8680a64b6821b188218d000c9b80bc9ab0bd8970ac9ab0bc99708c96409c93909c9c20a83c7c0007b1a60017b1968017b187001951860017b1b780150203206727fff951740018216b800646850203406277eff821ad80082179000d4a7098218d000821b9800d4b808d48909989920d4a808978820d4980852085c028218a000d868098218c000c8980a7b1ab800d88a08da9908821a5801821b5001821c4801821640018219c800c898087b18b000d898098218a800c898087b18c0007b16407b1620017b1c487b1c28017b1b507b1b3001951820017b1a587b1a380150203606d07eff8214900033094921c800330c330b1407e0ffffff000000007b173882169800019540208217407b198800d87902821948821ac800d39a07d89a09da7209821750d87c02821a58d3ab037b1b8000d8ab0ada320a7b1c78d3c707d437077b10a800d8400bda790ac8b6007b169800d86006dabb068219d800c89606d896078212d000c8720c510a18016493821ab0008218a000d4a8078219b800821bc000d4b909d49707987720d4a909979920d49707520741017b1c607b16687b10709517000164867b1490007b13d8007b12d00050203806c17cff8217d8008218d000d4870782183882199000d8890882199800949894785108fe00821718018218100182190801821a00017b1ae0007b19e8007b18f0009518e0007b17f8008217a80050203a06ab7dff956720d86708821ab800c88a02d8a20ada880a8218b000c88a0ad88a088219c000c889097b19c00082198800959901889801821bc800c88b0b7b1bc800d4b908888801821b78c88b0cd8bc0b82188000c88b0b8214a8008216708218687b18d8008218607b18d0007b17a0007b12b8007b1ab0002887fe82173064c38214a800d87402821b28d3b008d8b009da8209821a20c9a608d8a60a821c18c9c303d8980cc8ca0ac9a30ac99808c9b009c92909c97406d4a909d4860ad49a0ad4980898aa20978820d4a8085108230033086001022808330860010201838833070133090a10646833003c06287280646850203c066d8083788369330733003e060a103302400628407c502240063d7c4926380349263003492628034926200383672003330042060a13956b00033302440628a67c956b0003502244069f7c5207e40339074c0102541723e203836740033308040a04826758038268500382694803826a40037b67787b67f8027b68707b68f0027b69687b69e802956700039568e0027b6a607b6ae002502046064529492678034926700349266803492660030a9567c002956860033300480633020628177050224a06f57552086750224c0634797b6b587b6c507b69487b6a4050204e06af3a8260a8028269b8028262a002826bb002826848d30807d8080c826840d82803da730c826850d8b804826758d3970ad89707daa407d3b808d4a808da8c075107ab013300500633028e02288b6a3308330733033302017b6a60017b688001826a607b6aa0014926c0010a4926d8014926d0014926c8017b6968017b6788018269687b69a8017b6c70017b6390018268707b68b0017b6b78017b62980150225206a17c826c787b6cb801502054063f40502256066d7a520b1249166049166849167049167828fc0050225806187850205a0664ca956900018297587b67788297507b67708297487b67608297407b67684926180149261001492608019568000149090a330750205c06d17aff390850010256181f0b200350010220019517e08479e07b695864913307600102837783993308200a0b826a5882a782a80882a91882aa106f726f886f996faa826b60c8ab0b826c68c89c0cd89c09c89b0bd3ab07d8ab0ada790a826770c88707c87a0ad87a03826978c89202d88707c82707c837097b6cc0007b6bc8007b6ad0009567e0009568c0007b69d80033005e063302240828546e8267f8007b67788267f0007b67708267e8007b67688267e0007b6760019567a00033084050206006d478ff8267b8008268b0008269a800826aa00050226206206b5107830100826750c9b707c9c7087b6830d8c707826858c99808c94808c978087b6838826748c90707c937077b6728826740c927077b672049267802492670024926680295686002492660020a330750206406a279ff390850010256181f133308203d085001023302660628c27150226606bf71330760010283778399330820330068060a0b01826918829718829810829208829a6f776f88826b28c88b0b826c20c87c0cd87c07c87b0bd38b09d88b08da97086fa36f29826a30c89a0a82673850226a06ee7a7b9c80007b9b88007b9890007b979800956740029568800333006c06330206282a6d82674002977710987710826878826970d49808826960d879078269689497948751071a3308330733033302826a20826928826c30826b382852fd8267207b6700028267287b6708028267307b67100295672002956800028269387b69180250206e06732782623802826330028267280282682002826b58826c50826948826a402809fd33086001022808330860010201838833070133090a10018267607b6780008267687b6788008267707b679000956880008267787b67980064a77b6a78502070064978ff33082082677850207206f27bff502274063d70330076060a1001951100ff7b10f8007b15f0007b16e800951500018411e04921b8004921b0004921a8004921a0008317a0000a13018217b0008218b8008219a800821aa000d49808d4a707d4870752076e39074c01025417036d8317c0000a018217d8008218d0008219c800821ac0007b17187b17787b18107b18707b19087b1968951780009518607b1a7b1a60330078063302840828d67995174033084050207a065676ff82175882185082194882164050227c068f6851072500330860010228083308600102018388330701330933007e060a103302800628ba6f50228006b76f502082064c77ff330820646750208406f67aff50228606416f330088060a1033028a06286b6a50228a06686a33008c060a13956b000233028e06285f78956b000250228e0658785207a80239074c0102541703a6029567800233084050209006b675ff50229206036d4926c00204956760029568c0023300940633020628ee6a502296065a6d50209806109350229a06397552085c0250229c06666f50209e06b076ff826ab80084a7015207235022a006877151083b025022a2064c705020a4068f76ff5022a606996e2885015022a80697779568e0014926e0010433075020aa066e76ff9517e08477e07b67586471390850010256181f0b200350010220019517e08479e07b69a80064913307600102837783993308200a0b5022ac06cd64826258649a642c7bc9187b6080007b201064807bc80864797bc7826720c87b0b7b6b40d87b07826818c887077b6738017b6a88007b6090007b6998008267608268b800d87807826970d39408d89409da8709826b68d8b307826a788268b000d3a80cd8a80adac70ad3b307d4c707da790a510ab4009567c00164287b63a8007b64a0003300ae0633020628c1695022b006df66d8c802826cb000826a38c8ac0cc82c0c5022b206eb72520825015022b4069f705020b6067975ff82629800952201882701826a9000c87a0ad4a20788770182688000c87804d8840882678800c887078268b800958320d88309826ba000c89b08d8b80bda990b8269a800c89b0bd89b09826cb000c89c0c7b6cb00064a0826c587bca0864297bc25022b806817564c2280eff826c303302ba0628ff605022ba06fc605020bc060482956720013308405020be06b073ff5022c0060f645020c20683ce826ba8008269a0008267b800d4b707826ab000d4a9085022c406067152075d64a2956c000182c70882c8187b6898008263000182ca10d3b704d8b70cd89300da400cc92a08c9c804d8c8087b689000d82a0a826cb80082689800c9c80cc9ac0c82689000c98c0cc9b707c90707c993085022c606b96051071b0033086001022808330860010201838833070133090a100164977b68b8005020c806f677ff83788169b80033073300ca060a10019511c0fe7b1038017b1530017b162801951540018411e064165022cc062f7649260001836700010a1301956b000182b71082b81882b90882bad49808d4a707d487075207010139074c0102330823ae78fc009567e0003300ce06330284042827668267e0008268e8008069f0004926d8007b69d0007b68c8009568c0007b67c00033075020d006a773ff4926b8004926b0004926a000093307209568a0004926a8005020d2068873ff390850010256183f133308403d085001023302d40628a86b5022d406a56b3307600102837783993308403300d6060a0b826a183302d80628b860826a185022d806b2607b69787b68707b6768956780009568607b6b605020da065526826798007b6718826790007b6710826788007b6708826780007b679567403308405020dc06ca71ff826758826850826948826a405022de061a645107250033086001022808330860010201838833070133093300e0060a103302e206287c705022e20679705020e406c072ff3308208267185020e6066976ff5022e806b46a3300ea060a10019511a0fe7b1058017b1550017b164801951560018411e049211801492110014921080149210001831700010a1301821710018218180182190801821a0001d49808d4a707d487075207f30039074c0102330843ae78ee009517e0003300ec06330284042897648217e0007b17388217e8007b17308217f0007b17288217f8007b1720831720013308240a04821720017b1718821728017b1710821730017b1708821738017b17330660010383673300ee060a063302f0062891675022f0068e677b1998008219087b1990008219107b1988008219187b1980008219207b19b8008219287b19b0008219307b19a8008219387b19a0004921d8007b18d0007b17c8009517c0009518a000951980007b1ac0005020f2065a189517603308405020f4064870ff8217788218708219688216605022f606816251071b0033086001022808330860010201838833070133090a10014911584911504911489518404911400164675020f8063c71ff33082064675020fa06e674ff5022fc0631693300fe060a1033020007287463502200077163330884000a04502202076d5f32003308a4000a04502206075f5f3200956b000482b7f00082b8f80082b9e80082bae000d49808d4a707d487075207330539074c01023308c300ae7836059567c00433000807330284042815638267d8047b67a0008267d0047b67c8008267c8047b67d0008267c0047b67d8009567a00433000a073302980428ad6e8267b8047b67a8008267b0047b67b0008267a8047b67b8008267a0047b67c0009567800433000c0733029c0428b7629568000482879800956900017b9718828790007b9708828788007b97828780007b9710836700053308640a0401956b000582b91882b71082b882ba087b6790007b698800d497077b689800888800017b6a800094a8947851087e049567600433000e0733020007284d62826778047b6760826770047b6768826768047b6770826760047b6778956740043300100733020407282262956800048287587b67408287507b67488287487b67508287407b6758836720050a0c019568000582873882622005828930828a2882681801d3870bd8780882670801d8970cdbb80c82680001d38a03d8a80a82681001d82808db3a08d39707d4b707db7c085208ea0395672004330840502012071a6eff826220048263380482642804826c3004952b20d82b07c87408d84809da7709c8c909d8c907c83707d49b0ad48707d47a0a98aa20d49707977720d4a70752076b033a07980002956a00047ba7183a07a000023a08a800023a09b000027ba7107ba808956800047ba97b6b3864b77b62f8007b64f0007b63e8007b6ce00050201407d06eff826be000826af0008268f800958740d88708c88a09d8a90ada880ac8ba0ad8ba08826be800502216070f585208f9028268c8009788209888204926f8038269d800956a00037ba9e0007ba8f0009568e0038269d0007ba9e80050201807706eff826be000826af0008268f800958760d88708c88a09d8a90ada880ac8ba0ad8ba08826be80050221a07af57520899028268c000956a00037ba8c0008268b8007ba8c8008268b0007ba8d0009568c0038269a8007ba9d80050201c07126eff826be000826af0008268f80095878000d88708c88a09d8a90ada880ac8ba0ad8ba08826be80050221e07505752083a02956a000182a810956b00037bb8a00082a87bb8a80082a8087bb8b0009568a00382a9187bb9b80050202007b46dff826ce000826be800826af0008267f800d4c709d4ba08d48909989920d4c808978820d498085208e301502222078e6e9568800349268003800050202407746dff49265803492650034926480349264003a0008267e8007b6778038267e0007b6770038267f0007b67680395676003956840038269f8007b69600350202607407aff956720038268f80050202807ea6bff956b000382b73882ba3082b92882b82050222a07a96b520762018267387b68180150202c07b270ff9518e08489e07b691001649183778168180183990a0b826810018287187b67308287107b67388287087b67e00082877b67e8009567000350202e07bb3b956800038287187b6710018287107b6708018287087b67f80082877b67f0009567e00233084050203007586bff95680002828bf800828cf000828ae8008287e000d4ba09d4c708d49808988820d4c909979920d498085208bd004926d0024926c8024926c002140900000000000001199568c0027b69d8027b6718017b6a00017b6b287b6c2050203207326cff826a000182681801826728826920d47909140b00000000010000001407feffffff00000000d8780794a7949751075a8387028268f000956a00027ba8a0008268f8007ba8a800826808017ba8b0009568a0027b690801826910017ba9b8007b6b100150203407c96bff95690001829c188297109577ded87c078298948782980894875207a400003308600102838833070133090a1028213308600102838833070133090a1028113308600102838833070133090a10014926500149264801492640011407000000000eaf8346956840017b675801330750203607556bff956a000182a7187ba73882a7087ba73082a77ba7283307049568200182a9107ba920502038072c6bff390850010256183f0b20035001024001330860010283883307013309240a10018267306f798267386f788267e0006f7a8267e8006f7b83c7227b6b98027b6a90027b688802956880027b69800250203a07d86aff3308428267180150203c07806eff9518e08488e07b68180164818377838933084233003e070a0b01826a180182a71882a81082a90882aa6f7c6f876f986fa9826a407b6af801826a487b6af001826a507b6ae801826a587b6ae001826a607b6a1802826a687b6a1002826a707b6a0802826a787b6a0002826a88007b6a3802826a90007b6a3002826a80007b6a2802826a980050224007ae65956a0002956be0017b6c400233004207951180fe7b1078017b1570017b166801951580018411f0828c7b1c38828c087b1c30828c107b1c288288187b182082987b18188298087b18108298107b180882991882a382a40882a01082aa1882bc82b80882b21082bb1864767b1b98007b1290007b1888007b1c80007b1ab8007b10b0007b14a8007b13a0007b19d8008217087b17d0008217107b17c8008217187b17c0008217207b17f8008217287b17f0008217307b17e800951700019518e0009519c000951aa000951b8000821c387b1ce0003300500828093c956700028279607b6918018278687b681001827a707b6a0801827b787b6b00018267a8007b67b8018267b0007b67b0018267b8007b67a8018267c0007b67a0017b6bd8017b6ad0017b68c8019567c0019568a0017b69c00133004407951160fe7b1098017b1590017b1688019515a0018411e064168289187b69688289107b69788289087b696082887b68708279827808807710492638017b67287b6730017b68307b682801956820017b69387b69200133073300540828a768ff8267a000956a00017ba7788267c8007ba7708267d0007ba7688267d8007ba76082a77ba7980082a7087ba7900082a7107ba78800956780019568600182a9187ba9800050204607cb1733086001028388330733090a1028d8fc956b000182b7900082b8980082b9880082ba8000d49808d4a707d4870752078f0139074c0102330843ae788a01956760013300480733028404286c5a826760017b6718826768017b6710806770017b67089567400133004a0733028e04280f66826758017b6720826750017b6728826748017b6730826740017b6738492638018267087b6730018267107b672801956820018267187b672001330750204c07af67ff492618014926100133070150224e07a060502050079767ff390850010256183f133308403d085001023302520728b75f50225207b45f330760010283778399330840330054070a0b3302560728f46150225607f1617b6ab800826a287b6ab000826a307b6aa800826a387b6aa0007b69d8007b68d0007b67c8009567e0009568c0009569a0007b6bc000330058073302c207286c698267f8008268f0008269e800826ae000956b00017bb7b8007bb8b0007bb9a8007bbaa000956780009568a00133005a0733020628ff5a826798007b6738826790007b6730826788007b6728826780007b672095676033084050205c078165ff826778826870826968826a6050225e07d15751071b0033086001022808330860010201838833070133090a10018267207b67408267287b67488267307b67509568408267387b675864a77b6a38502060076766ff33082082673850206207106aff502264075b5e330066070a1001951110ff7b10e8007b15e0007b16d8009515f0008411f0829c10829618829a08829b7b1a307b1620d46a09d4cb0ad49a0a98aa207b1c28d4c909979920d4a90952093e017b17088287187b17488286108287087b173882877b17409517b0007b1b1864b850206807a864ff821740d46709821848821a38d4a808d489099899207b1610d46808978820d498085208f2008218b0009788109889104921a8004921a00049219800951890007b19900050206a079865ff821728821820d487071408e0ffffff000000008219187b1828d88908821a3094a894785108a60083982095177050206c072a64ff821b48821610d4b607821940821828d88908821c3894c8947851087c8217880082138000821478821a706e729597407b1730d89707c87c087b1828d8c80cda770cc86c0cd86c0764c6c8b7077b17488397207b1a507b14587b13609518507b126850206e07fc64ff8217087b76108218287b78088218307b788218487b7818955110ff8210e8008215e0008216d8009511f0003200004926c0028367c0020a1301956b000282b7d00082b8d80082b9c80082bac000d49808d4a707d487075207930339074c0102330843ae788e039567a002330072073302840428de568267b0027b67288267a8027b67308267a0027b67508367e0023308240a0401956b000282baf80082b9f00082b7e80082b8e0007b67487b6a38d4a7077b6858d49808d478089888207b6940d49707977720d4870752072e039567800250207407f4099567600250207607ea09826728977720987720492658027b6750028267307b674802956840028267507b674002330750207807ef63ff49263802492630024926200209330720956820024926280250207a07d063ff390850010256183f0b200350010240019517e08479e07b695064913307600102837783993308400a0b826a5082a71882a81082a90882aa6f777b67306f877b67286f977b67206fa77b67189567000250207c074a099517e08477e07b675064718267387b6798018267407b6790018267487b6788018267587b6780018267187b67b8018267207b67b0018267287b67a8019567c0019568a00195698001826a307b6aa00150207e07ae3c8267d0018268d8018269c001826ac801826b507bb7107bb8187bb97bba089567600133084050208007c061ff956b000182b7787b673882b8707b684082ba687b6a4882b9607b69587bb7587bb8507bba48956740017bb940330082073302a80728eb64956720018268503300840733020628cd56826738826848d48707826940826858d49808d47808988820d49707977720d4870752077d01956900018297387b67508297208298307b68208298287b68287b6730977710987710502286078264956800017b97826758502088075562ff826740826838d487071408e0ffffff00000000826958d889088269489498947851082101826c2098c730826b5097b810d48709826a2898a73097c810d4780882673098773097aa10d47a0a98bb308267588377207b6ae0007b6bf8007b68e8009568e0007b69f00050208a07e661ff9567c00033084050208c079e60ff8269d8007b69508268d0007b6830826ac8007b6a28826bc0007b6b208267387b67788267407b67708267487b67688267587b67607b6998007b6890007b6a88009567a000956880009569607b6b800050208e073cfb826b28826920826750d4b707826a30d4a90850229007af5d52075764a28267a8008268b8007b68588263a000826ab000d3b704d8b70cd89300da400cc92a08c9c804d8c8087b6848d82a0a826c50826858c9c80cc9ac0c826848c98c0cc9b707c90707c9930850229207684d510722003308600102280f33086001022808330860010201838833070133090a100164977b6858502094079f64ff83788169583307330096070a1001951120fe7b10d8017b15d0017b16c8019515e0018411e064167b67108297107b67980082977b6780008297187b6790008297087b678800828718828910828a0882887b67707b67b8017b69687b69b0017b6a607b6aa8017b68387b68a001956780019568a00133009807330206288654956b000182b7980082b8900082b9880082ba80007b67307bb7587b68287bb8507b69207bb94895676001956840017b6a787bba4050209a077a7cff826780008268900082698800d48909826a9800d4a708d49808988820d4a909979920d4980852084b03956c000182cb7882c97082c86882ca607b6a407bca207b68507bc8287b69487bc930956820017b6b587bcb3850209c07d45fff826a7884a7015207a5008267900082689800d487071408e0ffffff00000000826b8000d88b0882698800949894785108e60284a800ff83b720826a207b6aa8007b68a0008268287b68b0009568a000826a307b6ab80050209e07775fff330033033302826748826840d48707826858826950d49808d4870782688000958a20d88a0882698800c8890bd89b09da880982689800c8980cd88c0882699000c898087b68388e77977405281b02826738956900017b978267607b97088267687b9710956800018267707b971833075020a007015fff9517e08477e07b67306471390850010256181f0b200350010220019517e08479e07b697864913307600102837783993308200a0b330c330033033302826780009578207b6828d8780782688800c878097b6920d88908da770882679800c878087b6818d8780782689000c887077b6738826a7882a71882a81082a90882aa6f776f8b6f946fa9826830649a7b891864497b69607b89107b6b707b8b0864797b87017b6a687b6978826740d87c07826950d3900ad89009daa709826b48d8b307826a5864c4d3a20cd8a20adac70ad3b307d4c707da790a510a10019567e0007b6298007b6390007b6088007b6480003300a20733020628245282682882678000c88707d88708826b20826988005022a407905b826a1882689000c8a808d8a802826c38826a9800c8ac0cc82c0ac88b0bd88b08c8a808d49808d4b709d48909d4b808989920978820d498085208f7008269f8008268f000826ae800826be0007b6bc0007b6ac8007b68d0009568c0007b69d8005020a607885dff826c7895cc0188c701826a70c87a0ad4ac07887701826860c87803d88308826768c8870782688000958420d8840982688800c89800d8800bda990b82689000c88b0bd88b0982629800c892027b6a708268307b8a0864c97b8c643c7b8c10647a7b87187b6c60644c64b328befe826a28826b20826c1801c84a07d8a708c80b09c88909d3b90ad8b90bdaa80bc83c08c88b0bd88b0ad8c808826c38c82c0cc8c808c8a808826a107ba77ba9087bab107ba818955120fe8210d8018215d0018216c8019511e001320000827818827910827a827708d4890b88acc0947c94bc510c4095ab40d8ab0ac8a70cd87c07daaa07c89707d89709c889097b1b7b1c087b171033074064187b19185020aa07785cff9551d082102882152095113032003300ac0733028600285b4b5022ae070f505020b007525cff491638491630491628330720c876084916205020b207395cff390850010256183f133308403d085001023302b407285d505022b4075a503307600102837783993308400a0b5022b607b14c32005020ba07fe5bff49163849163049162009330720c876084916285020bc07e45bff390850010256183f133308403d085001023302be072808505022be0705503307600102837783993308400a0b5022c0075c4c32006416828a7b6a30828a087b6a28828a107b6a208288187b6818829a8298088099107b67384916787b69707b68689568607b6a6033075020c407745bff8267187b67588267207b67508267287b67483307209568408269307b69405020c6074f5bff390850010256183f0b200350010240019517e08479e07b693064913307600102837783993308403300c8070a0b826a303302ca07282045826a305022ca071a45826b387bba187bb9107bb8087bb75022cc07c75632008289828a088088107b67184916787b68707b6a689568607b696033075020d007d65aff4916584916504916483307209568404916405020d207bd5aff390850010256183f133308403d085001023302d40728e14e5022d407de4e3307600102837783993308403300d6070a0b826a103302d807288b44826a105022d80785447b6a98007b6990007b6888007b678000956720956880003300da0733020628744e826730826838826920826a28826b187bb7107bb8187bb97bba085022dc07915a3200951130ff7b10c8007b15c0007b16b8009515d0008411f07b1708951790003308405020de07d558ff8217a8007b17188216a000821998007b1928821890007b18207b1788007b1680007b19789517707b18703300e0073302a80728025c821718821828d48707821820d46808d478089888207b1610d46707977720d4870752077d49116849116049115895185049115082162064675020e2079b59ff8217108218185022e407d5598219289498947851084c8216208367204911484911404911389518304911305020e6076959ff8217088218187b78188218107b78108218287b78087b76955130ff8210c8008215c0008216b8009511d000320000951160fb951a00047ba098007ba590007ba688009515a0048411e06416827a10827c0882747b6a900097aa2098ab207b6c9800d4c40ad4ba0a510a8c047b6b38828310828a08828c140bffffffff000000007b6a6884a2ff7b6c7084ccff7b6360d2b30a7b6a307b6c20d4ca0a7b6228d42a0a510ab404829a187b6ab000829a107b6aa000829a087b6aa80082997b69b8008288187b68508279187b64c003826798007b67c803826790007b67d0039567e0039568c0037b69587b69d8037b6480003300e8073302ae0728214c8267f8038268f0038269e803826ae003956b00047bb7187bb8107bb9087bba9567a003956800043300ea0733020628584c826bb0008264a0008263a800956a000382a7b8008262b00382a9a80082a8a000d3b70a7b6748d8b70bd84207daa70bd339007b6978d839097b688800826cb800d8c808da08097b6240d3420cd4ca0adaa90b520b3d04826a40c94a0a826b48826cb000c9cb0bc97b0bd89a07c97b0b7b6b48c99a0a7b6a40826778c93707c987077b6778826788008268b800c987077b678800826780007b676003826798007b676803826790007b67700395678003956860038269587b6978033300ec073302ae07282b4b826798038268900382698803826a80037b6738047b6830047b6928047b6a20048267407b6750048267787b674804826788007b6740048267487b67580495672004956840045020ee077758ff9517e08477e07b67880064718267507b6738038267607b6730038267687b67280395674003956820038269707b6920033300f0073302ae0728a44a82675003826b580382694003826a4803826888007b87107b8b187b897b8a08956700033300f20733020628df4a95690003829708829882621803829a10826ba800c87b0b826cb800c88c0cd88c08c88b0bd37b09d87b07da98078268a000c8a8088269b000c89202d8a809c82909c88707d88708c89808956900047b9c607b9b687b97707b987895686004826788005020f407a657ff9567e0023308405020f6071355ff956c000282c9f8007b697882c8f0007b684882cae8007b6a4082cbe0007b6b88008267b0007bc798008267a0007bc790008267a8007bc788008267b8007bc780007bc9b8007bc8b0007bcaa8009567c0029568a002956980027bcba0005020f8072194826940826778d49707826a4882688800d4a8085022fa07155252075a0164a0956b000282b7c80082b8d8007b68188263c00282bad000d3970bd8970c82628800d82308dab80cc90a0bc9cb04d8cb0b7b6b10d80a0a826c78826b18c9cb0cc9ac0c826a10c9ac0cc99707c98707c923085022fc07c5415207fd00492638028267207b67200249265802826780007b6740028267287b672802826798007b6748023a07b800023a09c000023a0ac800023a0bd000027b6778027b6970027b6a68027b6b60028267307b67300295696002956a4002956b20028267387b675002826788005020fe073c57ff8267b000956800017b87d8008267a0007b87d0008267a8007b87c8008267b8007b87c0008267507b87f8008267607b87f0008267687b87e8008267707b87e000826758956b00027bb718826790007bb710826798007bb708956700029568e0019569c001826a80007bba502000080234955160fb951700048270980082759000827688009511a0043200004926f0004926e8004926e0001407000000001efdc6969568e0007b67f8003307502002084f54ff4926d8004926d0004926c8003307049568c0004926c000502004083154ff390850010256183f11200350010240330860010228643308600102285d492630014926280149262001140700000000052f44ec956820017b673801330750200608ed53ff502208080456330704956800014926000150200a08d553ff390850010256183f112003500102403308600102280833086001020183883307013309240a10014926b0014926a8014926a0011407000000008cd350e49568a0017b67b801330750200c088753ff492698018267387b679001826798007b67880133070495688001826980007b69800150200e085e53ff8267487b6778018267407b6770018267787b67680133072495686001826988007b696001502010083353ff8267b000956a00017ba7588267a0007ba7508267a8007ba748330744956840018269b8007ba940502012080553ff390850010256187f0c200350010280000133086001028388330701330964330014080a1001951180fe7b1078017b1570017b166801951580018411e082897b19588289087b19508289107b19488288187b18407b1728831740010a01821758017b1730821850017b183882164801821940017b19207b1718017b1810017b16080195172001951800017b190001330016083302840828a654821b40821c30d3bc07821950d396087b1618d86909821620821a58d86a0adb890ad8cb08821b48821c38d8cb09db7809d3bc08d48707db790a510a5a8217587b17608217507b17688217487b1770951780009518608216407b167833001808330284082840548217287b76188218487b78108218507b78088218587b78955180fe8210780182157001821668019511800132004921f0004921e8004921e0001407000000001ef8d3ec9518e0007b17f800330750201a08b351ff8217407b17d8008217487b17d0008217507b17c8003307049518c0008219587b19c00050201c088951ff8217307b17b8008217387b17b0008217187b17a8003307249518a0007b16a00050201e086251ff390850010256185f0b2003500102600133086001028388330701330944330020080a10018289828218828a08828c10959b0188b901c8a909d49b0a88aa01c8ca0ad8ca0cc82c0cd4c902d4ab08d428085108107b7b7b79087b7a107b7c1832003300220833028e0228f33f502224080f457b17387b19307b1a287b182064179518203300260833020628f1448217108218088219187e1a06977b10988c30d4cb0b978810d4a808979a10987730d4a7079899307b69187b67107b687b6b0850222808273f3200951140fd951900027b90b8007b95b0007b96a8009515c0028411e064168289187b69108289107b69588289087b696082887b68688278187b68088279108278827a087b69979720987720492658027b6a707b6a48027b68787b684002956840027b67507b675002330750202a082c50ff49263802492630024926280233072095682002492620020850202c080d50ff3308500102390750010256173f0b200350010240011407ffffffff000000007b67309517e08479e07b694064913307600102837783997b68483308407b672033002e080a0b826a403302300828c639826a4050223008c0397b6a78027b6970027b6868027b67600295670002956860023300320833020628ae43956800028287107b67388287087b674082877b67184926f8018267507b67f0018267707b67e8019568e0018267787b67e001330750203408584fff4926d8014926d0014926c001083307209568c0014926c80150203608394fff8268489517e08477e07b67286471818756173f08480840018267188477ff7b67488267408477ff7b6740826738826830d287077b67389517e08477e07b671864718379330840826720330038080a0b826a1833023a0828e838826a1850223a08e238826b287bba187bb9107bb8087bb78267688477ff7b67208267608477ff7b6718826758826830d287077b67309567a00164b833003c0833020628b6428067b4019777208268b801826930d49707826918956a00027ba988008269207ba980007ba898007ba790009568800282672850203e08ad4fff492638018267307b6730018267187b6728018267207b672001492658018267387b6750018267407b6748018267487b674001492678018267507b6770018267707b6768013a07d800023a08e000023a09e80002826a787b6a60017b6798017b6890017b6988013a07f0000295698001956a6001956b4001956c20017b67800133073308330040089511e0fe7b1018017b1510017b160801951520018411e082c67b166082c6087b166882c6107b167082cc187b1c7882bc7b1c3882bc087b1c4082bc107b1c4882bb187b1b503302142817478267087b67f80082677b67f0008267707b67e800956700019568e0008269787b69e000330042083302ce0728bc4b956b000182b782b80882b91082ba187b6a98007b6990007b6888007b6780008267107b67b8008267587b67b0008267607b67a8008267687b67a0008267387b67d0008267407b67c8008267487b67c0009567c0009568a000956980004926d800330044083302dc08282144955140fd951700028270b8008275b0008276a8009511c00232009511e0fe7b1018017b1510017b160801951520018411e064167b6758828718828910828a0882887b67507b67d8007b69487b69d0007b6a407b6ac8007b68387b68c0009567a0009568c0003300460833020628a340826ab8008269b000826ba800826ca000d4ab07d49c08d48707510700017b6c187b6b207b6a287b69308267387b6780008267407b6788008267487b679000956880008267507b679800330750204808364cff390850010256181f0b200350010220019517e08479e07b6950649133076001028377839933082033004a080a0b01826a5082a782a80882a91882aa106f726f886f976fa9826b20c8b909826a18c8a707d8a70ac8a909d3b90cd8b90bdaca0b826c30c8c808c88b0bd88b03826a28c8a202d8c808c8280850224c08973d7b67e0007b69e8007b6bf0007b68f8009567609568e00033004e0833020628b33f826a788268707e6966826b6897a710988c30d4c70797881098bc30d4c80897bb10d4b90998aa30280933093308330a01826b587bb97bb8087bb7107bba189551e0fe821018018215100182160801951120013200821700017b1738821708017b1730821710017b1728821718017b1720821220018213280182183001821a3801821b4001821c480182195001821758017b17587b19507b1c487b1b407b1a787b18707b13689517609518407b1260502052080a228217207b67188217287b67108217307b67088217387b67955180fe821078018215700182166801951180013200492618014926100133070750225608a843502058089f4aff3309500102390750010256173f0b200350010240017b69209517e08479e07b695864913307600102837783993308407b671833005a080a0b826a5833025c08286534826a5850225c085f347b6a58017b6950017b6848017b6740019567e0009568400133005e08330206284d3e8267e0007b6758826bf8007b6b488269e8007b6950826af0007b6a40957701887801c89808d48709889901c8a909d8a90ac8ba0a956b00017bb7607bb8687bb9707bba789567400195686001502060082a4bff826768826848d38707826860826950d39808d48707826878826940d39808826970826a58d3a909d49808d48707520719955160fe8210980182159001821688019511a00132004926d0004926c8004926c000140700000000c0882d759568c0007b67d8003307502062087249ff4926b8008267287b67b0008267307b67a8003307049568a0008269387b69a000502064084b49ff8267487b6798008267407b6790008267507b678800330724956880008269587b698000502066082149ff826720817756175f0b82682048086001330701330944826818330068080a1001951140fe7b10b8017b15b0017b16a8019515c0018411e06416828a187b6a2082801082840882888273088072108277829b18829c10829a0882997b6b7801956b00017bbc707bba68d4270ad43a0a7bb960510a2701140affffffff000000007b6430844bff7b68388489ff7b6028d2a00ad4a909d4b90951095901492658017b6740017b634801956840017b625001330750206a086948ff49263801492630014926200101330720956820014926280150206c084a48ff390850010256183f133308403d0850010233026e08286a4050226e086740330760010283778399330840330070080a0b3302720828a74250227208a4427b6ad800826a287b6ad000826a307b6ac800826a387b6ac0007b69f8007b68f0007b67e800956700019568e0009569c0007b6be000330074083302c207281f4a956b000182b71882b81082b90882ba7bb798007bb890007bb988007bba8000956780019568600150207608ea48ff955140fe8210b8018215b0018216a8019511c001320049167049166849166014070000000005df02e69568607b67783307502078086747ff49165849165049164833070495684049164050207a084e47ff390850010256183f11200350010240330860010228643308600102285d50227c084c47140700000000620d28949568a0007b67b800330750207e081047ff492698004926900049268800330704956880004926800050208008f246ff390850010256183f11200350010240330860010228083308600102018388330701330924330082080a103302840828fa4850228408f748828610828b18828c08828ad4bc08d46a09d48909989930d46808978810d498085208167b7a7b7c087b76107b7b1850228608534232005022880800447b1b087b1c1050208a087246ff4911584911504911403033070495184049114850208c085846ff8217087b17387b163050228e086e47502090084246ff390850010256185f0b2003500102600133086001028388330701330944330092080a1001828918828810330a4917184917107b79087b7832009511f0fe7b1008017b1500017b16f800951510018411f0829310829c188296088299d4c60bd4390ad4ba0a7b177b1aa800510a3c0482871882801082820882847b1460683895884068cbdac80b7b1930689895894068687b1638da6908958980007b1c407b1348d4c30adaa90bd8890994a96808958840687cda780c6848958840682ada280a95a88000d47006da680cd8a8089468d38903d88906d8cb0ada3a06c989098864019544ffc9a90a9a63c9cb088e398e4bda490b7b18a000888900018599018eacdbac09db6b09821660d4060bd4720cd4cb0b8218a800888c0188bb01d4cb0bd4b9097b176864789498640b949b7b1258642c949c949652094d038217a0008579ff00d43902d44a09d492098217510939038219a0009598017b18a8007b1050888701c8a7077b178000d48707887701c837077b1770d83707c847077b1778330294089a96ff009a698000017b16288217608218585020960817477b1798007b18900082175082186864695020980827477b17880082179000d487077b1790008218a0009a897f821760821658646850209a080347821928889a80007b1aa000821b9000dbab08821b68da9b087b18900082189800821b8800d4b808daa708821750da97087b189800821760646850209c08c446821c70821978821a8000d49a0a8219a800d4c909d4a909821aa00093a87b18880093a77b17a000510902028216a80095698082175082186850209e0860467b17287b181882176082185864695020a0084c467b17107b18209a6980008217508218685020a2085c46821920d49808886980007b1920821a18da9a08821a58db680a7b1a58821810d48707821828da9807821860db67087b186082175082186864695020a408f7458212583304821920939893977b1768821a3088a701821938c979077b1720d49a07887701821948c9790b7b1b18d87907821940c979097b191095aaff7b1a0882106001491128980b3f972a016426d4ba02970b018210900098093fd4b9097b1960821720d32703d8270b821708644cd89704db3b0497880182176898793fd498087b185898693f977701d497039707018218980098893fd4970797890182188800988b3fd4b909978b018216a00098603fd40b0b976601d46c0c7b1ca00086bb7b1b880086987b18980086777b179000821918c93907d84707d83909821b10821a58c9ab0bc99b0bc97b0b99bb3f821730d27b087b1850821c38d2bc0cd3c207d8c206821460d88400da7006821948d2b909c99308c968077b1768d86807d89309821640d2b606c96a08c99808c97808c9c20ac90a02821750c97400821ca80082168000d46c07887701821a70d87a09c97a0788ca01c9a606821a78c99a0a95ccff7b1680007b1a78d4a6097b1ca800d47c0ad4a90984b4017b17705209c7fe2808330449112801821a980098a73f82189000978801d48707821c880098c83f97aa01d4a8088219a000989a3f97cc01979601d46406821928d49a0ad4ac0cd4890bd47908821728058217017b767b7c087b7b107b78189551f0fe82100801821500018216f8009511100132004921e0004921d8004921d000140700000000717b484e9518d0007b17e80033075020a6087541ff4921c8004921c0004921b000123307049518b0004921b8005020a8085641ff390850010256183f0b20035001024001330860010283883307013309243300aa080a10019511d0fc951900037b90287b95207b9618951530038411f0828a18828c108282828b088ea88ec6dba8068eb8882902859901dbb809d4ac08db86095109e105938633080193687b18408568017b1830976607856980007b173864c764a87b12687b1b607b1c587b1a505020ac0857437b17287b184882176882186064695020ae081d437b1820821828d487077b17289569808217588218505020b0080243886a80007b1a186479821728dba709821768da67097b1928821748821920d49707dba708821760da67087b184882175882185064695020b208c7426476821718937693788e878e6adb870ad48607648b7b18188218488e89db7a09979705821830cf78087b1830821840cf78077b17209799067b194085997f98673f97b801d478089767015020b4089d427b17107b18088217288218488219405020b6086242821910d497077b1728821708d487077b171064678218188219405020b8084242821310d48309821228d4720ad49a0a98aa20d47909979920989920d4a9098e99979b04821a20cfba0a7b1a40821a30cfba0a7b1a48979905d09304859aff977c01cfac0ad4a400d0970785963f978c01cf6c0cd47c0cd0920b973a01cf6a0ad4ba0ad09806d4ca08d46009d49808988810d46409d49707977730d487078e78978703821948cf79097b1948821940cf7904978704d07c0885793f976b01cf9b0bd4b803d07a0a970b01cf9b0bd4ab0b7b1b30d07009857aff97cc01cfac0ad4a902d076088e2788ba000185aa01db270a8e3c8e87da8c07d4830cdaca07977a0285acff984b01d0cb097b1940821948cfa90ccfa400977a03d0a30485ab3f978601cfb607d47404821730d0a706972901cfb909d496067b1630d0a20985abff973301cfb30bd4b903d0a80b8e38886910859901db38098e488eb6dab806d4b408da890697690185983f64c298cc01d08c0ccf9007d4c7077b1748980701859cffd0c707821a40cf9a0cd47c0ccf920298a701d0870097660285673f97ba01cf7a0ad06408d4a808973a01cf7a07821930d0690ad4a707856aff974401cfa40ad06309d4a909d06b0a8e9b887704857701db9b078e898eabdaa90bd4a808da870bcfb00785b83f98c901d0890ad47a0a85b7ff821648986901d07907cfbc09d47909cfb607982c01d08c08d4870ccfb20897c701c8c70b330603d66807c8b707d8b70bd66c0cc8cb0b97ac01c8ca0a979c01c89c0cd66909c8bc0cd8bc0bc8a909c8b909978a01c8a808979a3f98cb01d4ba0a7b1a3097cc3f987601d4c60697773f988801d478087b18489899017b1940821768951b00027bb7d0008217607bb7d8008217587bb7e0008217507bb7e8007bb8b0007bb6b8007bb9c8009517f0029518d0029519b0027bbac0005020ba083ff7821700038218f00282190803821af8025022bc08aa277ba788008217587ba780008217607ba7788217687ba7707ba8507ba6587ba9689517900295187002951950027bab605020be08f4f68217a002821890028219a802821a98025022c0085f277ba7288217587ba7208217607ba7188217687ba7107b18f0017b16f8017ba90895173002951810029519f0017bab5020c208aaf6951b000282b74082b83082b94882ba385022c40838257b17c8018217587b17c0018217607b17b8018217687b17b0017b1890017b1698017b19a8019517d0019518b001951990017b1ba0015020c60859f68217e0018218d0018219e801821ad8015022c808e7247b1768018217587b1760018217607b1758018217687b1750017b1830017b1638017b1948019517700195185001951930017b1b40015020ca0808f6821780018218700182198801821a78015022cc0896247b1708018217587b1700018217607b17f8008217687b17f0007b18d0007b16d8007b19e800951710019518f0009519d0007b1be0005020ce08b7f5821720018218100182192801821a18015022d00845247b17a8008217587b17a0008217607b1798008217687b1790007b18707b16787b1988009517b000951890009519707b1b80005020d20869f58217c8008212b0008219c000821ab800821840d3780bd887076483821830d8890cdbb70cd398076489d4b704d3a60bd86a0a821748d87208dbba08db4c08c98702d88707c9760b9467c9790cd87907c9730a821738017b727b7b087b7c107b7a189551d0fc951700038270288275208276189511300332009511a0fe7b1058017b1550017b164801951560018411e064167b671882b21882b01082b40882bb82a7187b677882a7107b67900082a7087b677082ac82978289187b69608289107b69588289087b695082887b68481408ffffffffffff00007b68409777109877107b67380164b9644a642b826290007b6c68017b60b800649364c9d83c04826870d3a80cd8a8077b6c9800dac4077b67b000826478d802077b67a8006490d3b407d8b409826ca800da7c09826cb800d3c2027b67a8007b62a000d47207826cb000da7c09510906027b6b30d24b077b6788007b6a28d2a8087b68b000d203047b6480007b6320d30309826c980098c7018262a000972b3fd4b70798990197cc3fd4c909c89404d8940a826bb000c87b0bc8ab09d3790bd87907daba078268b800826a9000d2a800982a018268a800978b3fd4ba0a988301c80a0bd8ab0882628800c8230ac8a808c87b0cd8bc07c8780b8268b000d398077b69a800d8890a7b64b00082688000d88409db7a09d80c07d3b2087b6b9800d82b0ada870a7b6ca000d3c007d48707db7a0952096901826748956900017b97208267507b97288267587b9730956820018267607b973833075020d4083739ff9517e08477e07b6788006471390850010256181f0b200350010220019517e08479e07b69800064913307600102837783993308200a0b82698000829718829810829208829a6f776f88826ba800c88b0b8263b000c87303d87307c87b0bd38b09d88b08da97086fa76f29826aa000c89a0a826c9800c8c707d89a09c89707c88a0cd8ac09c89707826888007b837b8b087b8c107b8718956700013300d60833020628ae2c826b98008260a000826aa8008269b00082670001826840d2870782629000826838826c68ac78f5fd7b69c0007b6ac8007b60d0009567e0009568c0007b6bd8005020d80815e78267f8007b67788267f0007b6790008267e8007b6770826ce0008262308260b800826428826b20289efd8267187b737b7a088268b8007b78107b7b189551a0fe8210580182155001821648019511600132003300da0833028e0228ec265022dc08172f827210828a107b1bb800d34b0b7b1cb000d33c0cd4cb0b7b1aa00097ac2098c020972c2098cc207b1cc000d30c0cd4cb0b510b7203829a18829c10829b8296087b1ba8007b1cd800d4cb097b1ad0007b16c800d4a60bd4b90951094a03828a1849219000ffff008218c000821bb800d4b808821cb000d4c8087b19587b19607b19687b19707b1088007b1380007b1478510883017b1a08827718951900047b9b607b92707b977895178004951860047b9c683300de083302b80728e02a5022e0083a293300e2083302e4022855395022e408e92b3300e608951140fe7b10b8017b15b0017b16a8019515c0018411e07e9a187b1a30829a107b1a28829a7b1a383302d80928e0325022e808512a5020ea089c35ff5022ec08b92cd28b02821b9800d27b0b7b1b30821b80037b1b9800821b38d27b00821b40d2b707821b48d28b0b7b1218035022ee083b285020f0087473ff821018821910d40907821a50d4a6085022f208c732520744025022f408773582129800d82408dab80c821350c93a0bc9cb06d8cb0bd83a0a821c48c90c0cc9ac0cc9bc0cc99707c98707c92408d4c707d46809d47909d46707989920977720d497075207f701951c0002492cd8008217b8007bc7c0008217b0007bc7c8005022f608e7337bc7f8007bc9f0007bcae8007bcbe0009519e002951ac0028217c0007bc7d000821798003300f80833020a2838388210880082138000821478821a0801d40407d4370751078a015022fa087b363300fc083302b807286f295022fe08142b330000093302e40228e43750220209e82b502004093c1250220609b72a502008095834ff8212b8017b1298008466ff7b16a8008218a0008484ff8218b0008483ff8216b8008466ff8218d8008480ff8219b0017b19b8008218a8017b18b000821aa0017b1ad800821cc80084ccff821b90008217c000d2b707821ad000d2ba0a7b1738017b1330017b1428018217a8007b1720017b1a58017b1c50017b1048017b1640017b1278017b1970017b186801951780019518600195194001951a20018216d8007b16600150200a09c371ff50220c09c3315207a20082178801821898017b18d00082138001821a9001d3970bd8970c8212d800d82308dab80cc96a0bc9cb04d8cb0bd86a0a821cd000c90c0cc9ac0cc9bc0cc99707c98707c9230850220e09e2205207524921f8008217787b17e000821780007b17e8005022100948327b1718017b1910017b1a08017b1b000195190001951ae000821788007b17f0008217d8003300120933020a28993650221409be35320000520895009517000133084050201809f232ff50221a09672e4921c000059517e0009518c0009519a0004921c80050201c0936d350221e09182d821250c92a0bd82a0a821948821630c99606c9a606d8cb0ac9a6067b1630c9cb0bc93707c98707c904087b18607b19980064267b1290007b1388007b1080007b17687b1b70951780009518608219307b197850202009b940ff28c9007b16187b1c207b1b287b1a3084a7ff0033061f7b1710ac76b9009517e001330840330640502022094432ff50222409602a502026097e40ff50222809d03252079000492198014921900149218801951880014921800120821658646750202a094633ff50222c09652f51086539074c01027b178216588367207b170833082050202e09d936ff837733082082190a03492178014921700149216801951860018217107b176001646750203009fa32ff50223209ec3450203409ed32ff8216503302360928642a50223609612a32000050223809d33250203a09cd32ff3908500102ac860a200350010220013308600102838833070133090433003c090a1033023e09288a2650223e0987265208950095170001330840502040095231ff50224209c72c4921c000069517e0009518c0009519a0004921c8005020440996d150224609782b821250c92a0bd82a0a821948821630c99606c9a606d8cb0ac9a6067b1630c9cb0bc93707c98707c904087b18607b19980064267b1290007b1388007b1080007b17687b1b70951780009518608219307b197850204809193fff28c9007b16187b1c207b1b287b1a3084a7ff0033061f7b1710ac76b9009517e00133084033064050204a09a430ff50224c09c02850204e09de3eff50225009303152079000492198014921900149218801951880014921800120821658646750205209a631ff50225409c52d51086539074c01027b178216588367207b1708330820502056093935ff837733082082190a03492178014921700149216801951860018217107b1760016467502058095a31ff50225a094c3350205c094d31ff82165033025e0928c42850225e09c128320000502260093331502062092d31ff3908500102ac860a2003500102200133086001028388330701330904330064090a1001951100fe7b10f8017b15f0017b16e801951500028411e064167b672850206609592fff33078001033a08c801037b68583a08c001037b68507b67383807d001037b674833076001037b673083777b6720330068090a82693033026a0928c12f82693050226a09bb2fd4ba0a9777206f99989920d49707988820826948d39808826950d39707d48707826858d3a808d4870752077c50206c09e12eff8267388278207b68588278307b68508278287b68488277387b67408367a0010a0701956b000182b7b80082b8a80082b9a00082bab000826b40d3b707826b48d3b808d48707826850d3a808826a58d3a909d49808d4870752071b50206e09802eff826a3882a71882a81082a90882aa287c029567800133084050207009b52eff9568000182878000828a980082898800828c9000957b207b6758d87b07c879087b6950d89809da7709c8c9097b6c40d8c9077b6a48c8a707d49b0ad48707d47a0a98aa20d49707977720d4a707520742023a07180102956a00017ba7783a072001023a082801023a093001027ba7707ba868956860017ba9607b6b1864b7502072096a2fff50207409d52dff8268589587405022760957185208f701826b3882b96082b86882ba7082bb78956c00017bcb587bca507bc848956840017bc94050207809292fff50207a09942dff82685895876050227c0916185208b601826b3882b9800082b8880082ba900082bb9800956c00017bcb387bca307bc828956820017bc92050207e09e42eff8367c001330080090a07018268589587800050228209cc1752086c01956c000182c9c00082c8c80082cad00082cbd8007bcb187bca107bc808956800017bc9502084099e2eff826720330086090a018268589587a00050228809881752082801826a3050228a093e254926f8007b6af0007b68e8009568e0007b69e00050208c09602eff826758826a40d4a707826850826948d49808d48707987720d4a808978820d487075207df004926d8004926d0004926c8009568c0004926c000a00082675850208e091b2eff49269800492690004926880049268000c0008267487b67b8008267407b67b0008267507b67a8009567a000956880008269587b69a00050209009eb3aff95676082685850209209972cff826778826a70826968826860502294095a2c52075f8267187b6858502096096531ff9518e08489e07b69506491837781685883990a0b826a5082a782a80882a91082aa186f776f886f996faa01826b287bba7bb9087bb8107bb718955100fe8210f8018215f0018216e801951100023200009511e0fd951c00027bc0187bc5107bc608951520028411e082b31082b282b0083a0c3801023a0640010282b418d3c00bd8c00c7b129000d86206dbbc06140bffffffffffffff7fd3b40cd8b402883bffdbc20be13c0cdac60b520b153306330833023309330c03821a900028b8027b10207b14287b13307b171882a7187b175082a7107b174882a7087b174082a77b173882977b17588287187b1780008287107b17788287087b176882877b17609517800133084050209809692bff821998018216900182178801821880017b1788007b1970d497077b189800d46808d47808988820d46707977720d48707520706038217607b1760018217687b1768018217787b17700195186001821780007b1778018217980050209a09432cff821970d46909140700000000010000007b17781407e0ffffff0000000082189800d878078218880094877b19800094975107a6027c18588216980083672049215801492150017b184001951840014921480150209c09ea2bff8217789577c0d8760782188800948782188000948751076802821698008367408218387b1820018218407b1828018218487b183001951820018219507b19380150209e09a32bff1407a0ffffff00000000d876078218880094878218800094878218900051071902821798008377607b1800018218207b1808018218307b181001951800018219287b1918015020a009572bff4921f8004921f0004921e8009518e0004921e00033075020a2093a2bff0a0d3306600103210368010321036001032003700103000000014921b8014921b0014921a8014921a00133088000821798005020a409b72eff390a5001026478561a1f0b200350010220014821c001204921f8014921f0014921e8014921e00197662098662014070000000018000000d467079519a001979920989920951ae00197aa20d49a0a9788209888203309600102140b0000000080000000d48b0b9799209899209518c001978820d4980c3308ff3309ff0a0201520780009517a00033085020a6093729ff33093300330333048218b0008216a800821ba0008212b800978c2098cc20d46b0ad4ca0a93a293a893a693ab88ac01330a821718017b7a407b7c207b7b7b70484917287b76087b73504917307b78107b74584917387b72189551e0fd951700028270188275108276089511200232009517c0003308405020a809ba28ff8217d8007b1798008217d0007b1790008217c8007b1788008216c0000a0f018218980082198800d498087b169800821a9000d4a609d48909989920d4a808978820d49808520843647698772052073b83677b1790008217980064685020aa09482dff7a16000283778318000233090a0e018117000282189000ac870e0a0f016476987720510704008217980064685020ac09152dff837883693307013300ae090a1001827818827910827a8277088e8b8e9cdb8b0c8e7b88aa0485aa01db7b0ad49808db8c0a520a0532005022b00922185020b2091c29ff49111849111049012133070464184911085020b4090429ff390850010256183f0b20035001024001330860010283883307013309243300b6090a1001951170fe7b1088017b1580017b167801951590018411f08289187b19088289107b19108289087b191882887b182082787b1848827a087b1a388279107b19408276187b1668017b1960017b1a5801951750017b1850015020b80939ff7b1630821838d46808821940821748d497077b1828d487075107af008217487b1730018217387b1738018216407b164001951730018218307b1848015020ba09f7fe821748857701d46707821828d4870751078c008217487b1710018217387b1718018216407b162001951710018218307b1828015020bc09befe821748857702d46707821828d48707510795008217487b17f0008217387b17f8008216407b1600019517f0008218307b1808015020be0985fe821748857703d46707821828d487075107c700955170fe821088018215800182167801951190013200491160491158491150140700000000dfee45f69518507b176833075020c0098527ff390850010256181f0b20035001022001330860010283883307013309040a10014921a0004921980049219000140700000000f798e6fc951890007b17a80033075020c2093e27ff8217087b1788008217107b1780008217187b17783307049518708219207b19705020c4091727ff390850010256183f11200350010240330860010228763308600102286f4921e0004921d8004921d0001407000000000cce8bd79518d0007b17e80033075020c609d326ff8217087b17c8008217107b17c0008217187b17b8003307049518b0008219207b19b0005020c809a926ff390850010256183f112003500102403308600102280833086001020183883307013309243300ca090a10019511e0fe7b1018017b1510017b160801951520018411e064167b673882977b67488297087b67408297107b67508297187b6758828718828910828a0882887b67307b67f8007b69287b69f0007b6a207b6ae8007b68187b68e0009567c0009568e0003300cc09330206282d1a8267d8008262c0008269d000826ac800826858d3870bd87808826750d8970cdbb80c826840d38a03d8a80a826848d82808db3a08d39707d4b707db7c085108cf008267187b67608267207b67688267287b67709568608267307b677833075020ce09ad25ff390850010256181f0b200350010220019517e08479e07b693064913307600102837783993308200a0b826a3082a782a80882a91882aa106f726f886f996faa826b40c8ab0b826348c89303d89309c89b0bd3ab07d8ab0ada790a826750c88707c87a0ad87a09826c58c8c202d88707c82707c8970782683833094918384918304918284918207b837b8b087b8a107b87189551e0fe8210180182151001821608019511200132005022d0092125140700000000717b484e9568a0007b67b80033075020d209e524ff4926980049269000492680003233070495688000492688005020d409c624ff390850010256183f0b20035001024001330860010283883307013309243300d6090a1001828910828a18828b088288d4ba0ad49808d4a8088e8833094917184917104917087b7832003300da090a013302dc09281f1f5022dc091c1f3300de09330284082898265022e009f0255020e2097cd7821820821928018212380182102001821c3001d38907d8890a821b38d8b00bda7b0a821428c94c07c9a703d8a707d84c0a821c30c9c20cc9ac0ac97a0a85a7000001d4730798ac1088cc01937c510c9200c98907c9b707821838c980087b186082187b1880008218407b18a0007b17688217087b1788008217487b17a8007b13705022e40938203300e6093302480a28420d8212c8008213c0008219d800821ad000821bf000821cf8008217e0008218e8007b6b307b6c387b67207b68287b6a107b69187b637b6208955140fe8210b8018215b0018216a8019511c00132003300e80933028e02286512951140fe7b10b8017b15b0017b16a8019515c0018411e07e9a187b1a38829a107b1a30829a7b1a285022ea093b1f3300ec090a013302ee0928dd1d5022ee09da1d3300f009330284082856255022f209ae245020f4093ad6821928018217200182123801821b3001821c20c89c0c821328c87303d87307c87c0cd39c0ad89c09daa709821730c8b707c87909d8790a821838c88202d8b707c82707c87a0a85a7000001d4970798ab1088bb01937b510b86007b136082177b1780008217407b17a0007b1c688217087b1788008217487b17a8007b19705022f609f91e3300f8093302480a28030c8212c8008213c0008219d800821ad000821bf000821cf8008217e0008218e8007b6b307b6c387b67207b68287b6a107b69187b637b6208955140fe8210b8018215b0018216a8019511c00132003300fa0933028e02282611951160fe7b1098017b1590017b1688019515a0018411e07e89187b19308289107b192882897b19388288087b18206476831760010a01821778018218700182196801821a60017b17187b1738017b18107b1830017b19087b19280195174001951820017b1a7b1a20013300fc093302840828ef234921f8004921f0004921e800951700019518e0004921e0000a5020fe09c0d4821920821a08018212180182100001821c1001d39a07d89a08821b38d8b00bda7b08821428c94c07c98703d88707d84c08821c30c9c20cc98c08c978088587000001d47307988c1088cc01937c510caa00c99a07c9b707821938c990097b194082197b1960492198004921900049218800492180000a7b17488217087b17687b13508217107b17707b18589517a00095188000951960951a40821b187b1b783300000a3302480a286e0a8212a8008213a0008219b800821ab000821bd000821cd8008217c0008218c8007b6b307b6c387b67207b68287b6a107b69187b637b6208955160fe8210980182159001821688019511a00132003300020a33028e0228910f9511e0fb951a00047ba0187ba5107ba608951520048411e06416829a187b6a60829a107b6a68829a087b6a7082997b6978828210807310827a827b08828908828cd43a07d4b707520764017b69487b6c507b62587b6b287b6a307b63388267787b6760038267707b6768038267687b67700395678003956860038269607b6978033300040a3302e4022842228367a0030a018267b8038268b0038269a803826aa0037b67407b6738037b68207b6830037b69187b69280395674003956820037b6a107b6a20033300060a3302840828fd215022080aa821956700039568e0024926e0020a50200a0ad4d28269080382670003826a1003826b70c89b0b826278c87202d8720cc8cb07d3970bd89709dabc0982681803826c68c8ac0cc8c909d8ac0ad8c90c826b60c88b0bc8ba0ac8ca0a85abffff00e19b0b98ac108ecc93bc520cea027b624002826810956c00027bc860492698024926900249268802492c80000a7bc7488267187bc7687bc9508267207bc7707bca589567a0029568800295696002956a4002826b407bcb7833000c0a3302480a287e08826338826a30826b28826258826c50826948011408ffffffff000000008499ff84c7ff7b6858d282087b67507b6840d487077b6948d49707520772826778956c00027bc78267707bc7088267687bc71095672002956800028269607bc9187b63387b6a307b6b2833000e0a3302e40228c420826760956a00017ba7b8008267687ba7b0008267707ba7a8009567c0019568a0018269787ba9a0005020100a39fc826b28826a3082633801492698017b6a80017b6b8801956880017b63900133075020120a361eff4926780149267001492668013307209568600149266001085020140a171eff3308500102390750010256173f112003500102403302160a28e61e5022160ae31e3307600102837783997b68383308407b67303300180a0a0b33021a0a289e1a50221a0a9b1a956b00037bbad8007bb9d0007bb8c8007bb7c000956740019568c00333001c0a33020628c611826750017b6728826748017b6720826740017b6718492638018267407b6730018267487b672801956820018267507b672001330750201e0a701dff49261801492610013307085022200a61165020220a581dff826838818756173f08480840018267188477ff7b67508267208477ff7b67488267585022240a12193300260a0a0b3302280a281b0f5022280a180f956b00037bbaf8007bb9f0007bb8e8007bb7e0009567e0009568e00333002a0a3302062812118267e0008268e8008269f0008477ff8488ff826a58d2a909826a607b6a9800826a687b6a9000826a707b6a8800826a787b6a80004926b8007b69b0007b68a8007b67a0004926d8008267407b67d0008267487b67c8009567c0009568a00095698000826a507b6ac00033002c0a3302dc0828ad139551e0fb9517000482701882751082760895112004320033002e0a33028e02285d0b951180fd951900027b90787b95707b9668951580028411e064168289187b69608289107b69588289087b696882887b6870827a1882791082780882777b6a38956b00027bba187b69407bb9107b68487bb8087b67507bb79567e001956800023300300a33020628131095670001827bf800827af0008279e800d4ba078898019478510808028267e0017b6730957701887801c898087b6928d48709889901c8a9097b6a20d8a90ac8ba0a956c00027bc7207bc8287bc9307bca3895670002956820027b6b185020320ae01cff9517e08477e07b677864718267187b6778018267207b6770018267287b6768018267307b6760018267387b6798018267407b6790018267487b6788019567a0019568800195696001826a507b6a80015020340ac8f48262d0018263c0018264d801956900018297c800829cb000829ab800829ba0008298a8008269787b9c107b9a187b9bd44704d42307d447077b9808520738017b6a387b68407b6c487b6b50826870826a58d4a807826968826b60d4b909d49707987720d4a909979920d497075207fb00956700015020360a8b19ff826700019777109877107b67309567e0008268783300380a33020628c20e7e67e6009777308268f8008269f000826ae800826b30d4b707956b00027bb8587bb9507bba487bb7409568400282677850203a0abb1bff826970826758826860d487071408e0ffffff00000000d88908826a6894a894785108778398209567c00050203c0a0519ff8267c0008268c8008269d0007e6ad8007b6a98007b6990007b6888007b6780008267387b67b8008267487b67b0008267407b67a8009567a000956880008269507b69a00033003e0a3302d20328421c955180fd95170002827078827570827668951180023200003300400a3302860028c908492650014926480149264001140700000000717b484e956840017b67580133075020420aa619ff49263801492630014926280133070495682001492620015020440a8819ff390850010256183f0b20035001024001330860010283883307013309243300460a0a103302480a28df025022480adc0233004a0a33020628690d50224c0a2718510b9a0050224e0a20115020500a9368ff5022520a0c075020540a0269ff5022560a78103300580a33020628350d8263e0021409ffffffffffff0000d29302826478d29409ac29f20095670002827af8008278f000827ce80097a710988b30d4b7077b675097881098c730d487077b674897cc10983730d4c7077b673898aa307b6a40ab926350225a0ab30b33005c0a3302d20328031b288c009567800133005e0a3302980028d81a5022600ab4053300620a3302c603288a165022640a0a063300660a3302cc032879165022680aed0c50206a0a16fc330c330a3309330b33027a0a28d10a9567c00233006c0a33029800288c1a50226e0a16053300700a3302c603283e165022720a5c023300740a3302cc03282d165022760ae10a5020780acafb826950826a48826b40826c3850227a0a850a320050227c0a731150207e0a0418ff390850010256181f0b20035001022001330860010283883307013309040a1033073300800a28c31bff33075020800abd1bff3307015020820ab31bff5022840a97198282828308828410828818829a829b08829c1082991864767b19187b1c107b1b087b1a7b18387b14307b132895174095182064197b12205020860a5c67ff821750821858821940821a487b67107b68187b697b6a085022880af4123200821b30c8b707d8b70b821c40c8c909c8b909821b48c8b808d8b80bc8ba0ac86a0ad36a0cd86a06dacb06c87606d87607c8970797793f986b01d49b0b7b1b309879017b194097663f98a701d4760697aa3f988801d4a8087b18488217503202d88708826a50c88a09d8a90ada880a826840c88a0ad88a08826b48c8b808d4a70bd49808d48b0b98bb20d4a808978820d4b8083202d88708826a70c88a09d8a90ada880a826860c88a0ad88a08826b68c8b808d4a70bd49808d48b0b98bb20d4a808978820d4b8083202c8b808d4a70bd49808d48b0b98bb20d4a808978820d4b8083202951100fc951b00037bb0f8007bb5f0007bb6e800951500048411e064167b677082a7187b67b80082a7107b67b00082a7087b67a80082a77b67a0008297187b67588297107b67608297087b676882977b6778828b18828a1082890882877b6b80007b6bd8037b6a88007b6ad0037b6990007b69c8037b6798007b67c0039567a0039568c003320282a71882a81082a90882aa6f776f886f996faa3202826828958720d88708826a20c88a09d8a90ada880a826818c88a0ad88a08826b30c88b0b8268b8007b6858028268b0007b6850028268a8007b6848028268a0007b6840027b6968027b6760027b6a700295676002956840027b6b78023202821b30c8b707d8b70b821c40c8c909c8b909821b48c8b808d8b80bc8ba0ac86a0ad36a0cd86a06dacb06c87606d87607c8970797793f986b01d49b0b7b1b309879017b194097663f98a701d4760697aa3f988801d4a8087b1848821750951a00023202826bb80088b98000826a70db9a08826c78826a8800d4ca0ada970a93b8ff93baff826b8000939b939c82679000e0a70782699800e089088269a800e0c909826ab000e0ba0a956b00027bbab8007bb9b0007bb8a8007bb7a0009568a0028267a00032028267e002977710987b108267387b67f8008267407b67f0008267487b67e8008267507b67e0004926180149261001492608018267607b6738018267687b6730018267707b6728018267787b672001956740019568200195690001956ae0007b6b000132028267c0018268c8018269d001826ad801826b087b6b5801826b107b6b5001826b187b6b4801826b287b6b40017b6a78017b6970017b6868017b67600149269801492690014926880195678001956860019569400132028268b800958720d88708c88409d8490ada880ac83a0ad83a08826bb000c88b0b7b6c60017b6740018267287b6768018267207b6770017b6948018267187b6778017b6a500195676001956840017b6b58013202d4c707d4480ad47a0ad4470798aa20977720d4a70732029511e0fc951a00037ba0187ba5107ba608951520038411e064167b67588297187b67508297107b67488297087b674082977b6738828b18828a1082890882877b6b607b6b78027b6a687b6a70027b69707b6968027b67787b676002836780023202826bc0027b6b28826ac8027b6a208269d0027b69188268d8027b68308267587b6798028267607b6790028267687b6788028267787b6780027b68b8027b69b0027b6aa8029567a002956880027b6ba0023202826b80017b6b48826a88017b6a40826990017b6938826898017b68508267587b6758018267607b6750018267687b6748018267787b6740017b6878017b6970017b6a680195676001956840017b6b6001320282a71882a81082a90882aa6f7b6f876f986fa93202826848958720d88708826a40c88a09d8a90ada880a826838c88a0ad88a08826b50c88b0b8268b800956c00017bc8188268b0007bc8108268a8007bc8088268a0007bc87bc9287bc7207bca3095672001956800017bcb383202826780038268880382699003826a98037b6a18037b6910037b6808037b670003826780007b673803826788007b673003826790007b672803956740039568200395690003826a98007b6a200332028267f8007b67b0008267f0007b67a8008267e8007b6798008267e0007b67900082672897773b9878387b68b8009a8980003307ff3308ff3202821718821810821908821a7b67187b68107b69087b6a9551c082103882153082162895114032029551a082105882155082164895116032024926b800330433034926b000826ca80082c7188268309589207b6950d88908826928c8890a7b6a48d89a0bda880b82c81082c90882ca6f776f886f906fa9320282970881981082996f77977a206f88988820d48a0a9877206f98978920d4970798882032029511b07b10487b15409515508411f0491130491128491120140700000000717b484e9518207b173833073202956700018279387b69b8008278307b68b000827a287b6aa800827b207b6ba0008267187b67d8008267207b67d0008267287b67c8008267307b67c0007b69f8007b68f0007b6ae800956700019568e0009569c0007b6be000320297b710988c30d4c70797881098ac30d4c80897aa10d4a90998bb3032029511e0fc951900037b90187b95107b9608951520038411e06416828a10828918828b0882887b69507b6b40d49b0bd4a809d4b9099899207b6a48d4ba0a97aa20d4a9097b672032024926d0004926c8004926c00014070000000050c6fc6d9568c0007b67d8003307320295ab6001d8ab0ac8a90cd89c09daaa09c88909d88908c8870a3202c83808d4970a88aa01d8ab0cc9c808c9ab0b887a01c9a9099577ff7b67c0027b69c8027b6bd0027b68d802956700029568c00232027b69c0018269407b6988017b68a8018268487b6890017b67b0018267507b6798019567e0019568c0019569a001956a80017b6bb8013202d4c809d4a707d47909989920d4c707977720d497073202826a1082a71882a81082a90882aa6f776f886f996faa826b187bba187bb9107bb8087bb795518082107882157082166895118000320282970881981082996f77977a206f88988820d48a0a9877206f98978920d497079888204926b8017b68b0017b67a8013202d49707d48609d47909989920d48707977720d497073202d49707d48a09d47909989920d48707977720d4970732028264b8008263a0008260a800826850c84807d88708826b48c83b09c88909d3b90cd8b90bdac80b826c40c80c083202826a1882a71882a81082a90882aa6f776f886f996faa956b00017bba187bb9107bb8087bb79567609568000132027b1310037b1408037b1600037b1b3803951b00037bb7307bb0288217307bb7207bba587bb9507bbc48951760039518400395192003951a0003821698007bb6403202c83808d4970a88aa01d8ab0cc9c808c9ab0b887a01c9a9099577ff3202826a3882a71882a81082a90882aa6f776f886f996faa320295190004829780007b179800829788007b1750829790007b1748829798007b17408217d0007b97388217d8007b97308217c8007b972895174004951820048216a8007b962032029511c07b10387b15307b16289515408411e06476831732028267708268a0007b78207b7c8268a8007b78287b7a088268b0007b78307b79108268b8007b78387b7b18955100fc951700038270f8008275f0008276e800951100043202826730956a00027ba7188267187ba7108267207ba7088267287ba7826780007ba738826788007ba730826790007ba7289567200295680002826998007ba92032028267a000956a00017ba7c0008267187ba7e0008267a8007ba7c8008267207ba7e8008267b0007ba7d0008267287ba7f0008267b8007ba7d8009567e0019568c0018269307ba9f8003202951100fd951700027b70f8007b75f0007b76e800951500038411e064164926b8024926b0024926a8024926a0028367a0023202951800038287f8007b17488287f0007b17408287e8007b17388287e0007b179800951800048287187b17308287107b17288287087b172082869517800333084032029511807b10787b15707b1668951580008411e064168289828a088088107b67184916587b68507b6a489568407b6940330732029511e0fd951900027b90187b95107b9608951520028411f0828c18828b08828a828610d4cb0885a9ff00d46909d498087b173832029511a07b10587b15507b16489515608411e06476828718828910828a08828832029517e08479e07b6910649132028269e0018267e8018268f001826af8017b6ab8017b68b0017b67a8019567c0019568a0017b69a00132028267507b67d8008267387b67d0008267407b67c8008267487b67c000826780007b67f800826788007b67f000826790007b67e8009567e0009568c000826998007b69e00032029551e0fc951700038270188275108276089511200332028217d000951b00037bb7b8008217d8007bb7b0008217c8007bb7a8007bb6a0008217407bb7d8008217487bb7d0008217507bb7c8009517e0039518c0039519a003821a98007bbac0003202951800028287187b17d0008287107b17c8008287087b17d80082877b17b8008287387b17c0008287307b17b0008287287b17a0008286209517a0013308403202951900028297a0007b17c0008297a8007b17b8008297b0007b17b0008297b8007b17a0008217d0007b97588217d8007b97508217c8007b974895176002951840028216a8007b9640320282670881681082696f77977a206f88988820d48a0a9877206f98978920d4970798882082193202d48707977810d49808d4a707987730d4870797aa10d4a7073202821a98037b1a18821990037b1950821c88037b1c103307ffd27606821820d27804821828d2780382189000821b303202826798027b6718826790027b6720826788027b6728826780027b67304926d8024926d0024926c80232028217d0007b17d8018217d8007b17d0018217c8007b17c8017b16c0018217a0007b17f8018217b0007b17f0018217b8007b17e801951700029518e0019519c001821ac0007b1ae0013202956b000282b77882b87082b96882ba607b67b0007bb7387b68a8007bb8307b69a0007bb92895674002956820027b6ab8007bba20320282a80881a91082aa6f88978b206f99989920d4b9099888206faa97ab20d4b80898aa2032028217f8018218f0017b18508219e8017b1940821ae0017b1a584921b8014921b0014921a8017b16a00164767b17d8017b18d0017b19c8019517c0019518a0017b1ac0013202951140fb951a00047ba0b8007ba5b0007ba6a8009515c0048411f08283088284827b827c08320295680003828950828758828b40828a488268507b69287b89107b67307b87187b6b187b8b7b6a207b8a089567e00232028217388218587b788218407b78087b76108218487b78189551e0fd951700028270188275108276089511200232027b6c187b6b207b6a287b6930826778956900027b97208267707b97288267687b9730956820028267607b973833073202951be084bbe07b6b5064b17b6a78037b6870037b67680395678003956860037b6960033202837833092033073202826c30330433034926b000826768826860d48707826878826970d49808d487078e779777057b67b80032029517e08479e07b69186491320233094926b8004926b0004926a000303307049568a0004926a800320282177b17208217087b17288217107b17309518208217187b1738646732027b67787b688000826770d487077b67708267b8009579803307ff3308ff32024926d8024926d0024926c8023202956c000282c95882ca5082c84882cb407b6b607bcb7b68707bc8087b6a687bca10956800027b69787bc91832028267387b6700028267407b6708028267487b67100295672002956800028269507b69180232027b670001330720956800014926080132028217e8008218f8007b18308214e000821af000d3670bd8670c6463821058d80408dab80c32029511c0fe7b1038017b1530017b162801951540018411e064164926f8004926f0004926e8004926e0008367e00032024926b0014926a8014926a0011407000000001d6020259568a0017b67b8013307320282ab7b1b1882ab087b1b2082ab107b1b2882aa187b1a308296829a087b1a829a107b1a088299187b1910320284a800ff83b720826aa000956900017b9a88007b9880008268a8007b98900095688001826ab0007b9a9800320295670002827c58827b50827940827a48d4cb0788982094a89478320295670002827bd800827cd000827ac0008279c800d4bc0788a8069498947832028267e0017b67508267e8017b67488267f0017b67408267f8017b67388367e0023202821718017b1748821910017b1950821608017b1640821800017b18587b17b8007b19b0007b16a8007b18a0004921d8004921d00032027b6a88007bca7bc710644a7bc4187b6768826360826490007b60b800648c3202826a1882a71882a81082a90882aa6f7b6f876f986fa9826a203202821798018218900182198801821a80017b17187b1758017b18107b1850017b19087b19480195176001951840017b1a7b1a40013202826720826818d487071408e0ffffff00000000826b30d88b088269289498947832029517e08477e07b67a000647149261801492610013202956a000182a9d80082a8d00082acc80082abc0007baba0007baca8007ba8b0009568a0017ba9b8007b64b800320282171082181814090000000001000000d37909d48909987a2088aa01948a939a32027b6a20027b6958027b6850027b6748029567600295684002956920023202955180821078821570821668951180003202956b000282b9a00082b7a80082b8b00082bab8007b6a98007b6890007b678800330724956880007b6980003202955160ff8210980082159000821688009511a0003202826828d287077b67409517e08477e07b67386471837933084082673032028299087b192082897b19408289087b19488289107b19508288187b18586476831780013202821748821850d487071408e0ffffff00000000d88608821940949894783202d47808988820d4a707977720d48707320282635095381fd83807826c58c87c0ad8ca09da770932028217107b1790008217507b17b0007b1a788217187b1798009517c0009518a00095198000951a60821b587b1bb80032028267d8008268d0008269c800826ac000956b00027bb798007bb890007bb988007bba8000956880028267a0003202826a2882a71882a81082a90882aa6f776f886f996faa32028210980064688216b8008217b0006479d40707d46808d47808988820d46707977720d4870732027b6a20017b6828017b67300195674001956820017b69380132028267c0008268c8008069d0004926b8007b69b0007b68a8009568a0007b67a000330732027b6a80027b6988027b6c90029567a002956880027b6b98023202c88b0bd88b08c8c808d49808d4b709d48909d4b808989920978820d49808320249117049116849116014070000000050c6fc6d9518607b177833077b1a183202c8b909c88909d3b90ad8b90bdaa80b320282677b67208267087b67288267107b67309568208267187b673864a77b6a1832023a07f800023a090001023a0a0801023a0b10010232023a074000023a094800023a0a5000023a0b5800023202827910827a18827b088277d4ba0ad4970bd4ab0b98bb20d4a909979920d4b90932029511c07b10387b15307b16289515408411e06476831733082432028219821a087b697b6a087b67107b68189551c08210388215308216289511403202951140ff7b10b8007b15b0007b16a8009515c0008411e064163202826730826818826928d48909826a20d4a708d49808988820d4a909979920d498083202d49707d4a809d47909989920d4a707977720d4970732027b670001956720019568000149260801320295670002827a58827950827b48827c40d4ab07d49c08d487073202956b000382bab80082b8b00082b7a80082b9a000d4a70bd4890cd4cb0b3202951b000382b76882b8787b184882b46082ba70d3970bd8970c320282970882988199106f77987a206f88978b203202826a387b6a80017b69a0014926d8014926d0014926c8013202956b000182b9f80082b7f00082b8e80082bae000d4980bd47a0cd4cb0b32027b1648821740d46707821950821858d49808d47808988820d49707977720d4870732029518e08489e07b693001649183778168380183993202951140fc951700037b70b8007b75b0007b76a8009515c0038411e064163202956b000282b73082b83882b92082ba28826b207bb7107bb8187bb97bba083202956c00027bcbc0007bcae0007bc9e8007bc8f0007bc7f8009567c0029568e00232024921300149212801492120011407000000000c2b51b3951820017b173801330732024926b0004926a8004926a000320282b73082b83882b92882ba20d49808d4a707d487073202d487071408e0ffffff00000000d886083202955140ff8210b8008215b0008216a8009511c00032027bc410647a7bc7187b6480007b63b800648464b33202d4c809d4a707d47909989920d4c707977720d497077b60603202d4b808140ae0ffffff00000000d8a70a949a948a3202951900027b9480008217a0007b9790007b9a98009517a002951880027b9388003202c8b707c88909d8890cc8c707826408c89404d8940932029517e08479e07b6928649132028eb788a820858801dbb7088ec7320249269803492690034926880332024926f8014926f0014926e80132028217107b17283307249518208219187b19203202d4ca0ada980a3308ffdab807dab80a939c320282b7b00082b8b80082b9a80082baa000d49808d4a707d4870732029567e0019568c0019569a001956a8001956b60013202955140fb951700048270b8008275b0008276a8009511c00432028217587b1718018217507b1710018217487b17080195172001951800018219407b1900013202c83707d89a09c89707c8a808d8a809c897079569000332029511807b10787b15707b1668951580008411f032024926f8024926f0024926e80232028217207b1758018217187b1750018217287b174801951840018217307b174001821708320249261801492610014926080132029511d07b10287b15209515308411f03202951160ff7b1098007b1590007b1688009515a0008411f03202951160ff7b1098007b1590007b1688009515a0008411e03202849a40520a195109148d9a40cfa80ad09808d09707d4a707320032009597c0d0780733083200849a40520a195109148d9a40d0a70acf9707cf9808d4a808320032009598c0cf87083307320049922425494b2a252da9944c4949490a21a11a4292d210a1925429a42449922449922449922449922449922449922449922449922449922449922449aa9294529294942454a524254992244992244992244992244992244992244992244955494a9228492549559282922425294955559292a42495249524494a92a442a5949224a59492a4928222222225499220a154525252a4489122458a14294a524444945054a4489122458a142952a4489122458a14255244449424094248184a93d29048922489942422222211112422444444a448441021892411494414aa06112192244544a4224992444444449144444224492211112222922282888888484444448848241289089124491211224952441011111111111111224992121122229222828888884812110911111111914824128944229124494a92484444444224444404194a154a154a154a154a154aad5015112244448410424488888824890811119124112122229224224444444444448888888888881011111111a9509510529a802002820822202020882082080822208880200101012148449248111151242211894812292224222252444494208420129188101211112922228a1012912452444444442845118120494a1022184aa288404992244992a844922429490992a4884892a49292244992244992244992a49292244992244992244192a48808940429499224912449902449058a88889494244992244992244992449224499244a4202222891411092212892489244992882222222282242909442222111105491249922449922449124992244992244922490049459254242249922492142405a5204922499224492449208988882049921411118d8850588a464444a424452449248924494a92248a24494a922425a22022222291282222224444222222222222882489888888481251444444204a24124914411145444444a44495ca8848221149241291881449249224920422228888888888882092481249241289441249242289249144a24894121151491211910012158920221289442222521189442491244922492022888888888848229240441281884844924044242249a222914824222222821889249224492222922411912222268924912412894802119124101189481288884404a24824128944499288248988882091484422482422222222229224494441229188484444444444444404912492248908224900898a88884892249108025144442092442448922449121124490049452449922489441088222202111111411411119124a2208288888888882044112322021111443412489224898888082222221a1149922425499224494992a49492044a12405290242508110c25d124494a92444188848840a89424552549819224a92449921484488808844a4952559214282949459224495292240a4224440442258a08244992242549aa4a9224499224499224499224499224494aaa024992244992244992944992244992a42489888892244892244992944049492a9224499292a424494188848840a8441181244992a424495549922449922449922449922449922449495520499224499224499232499224499294241111519204499224499212282249a424254992241109224992248a48448488484449222222828888489224898888888848444492404a2492400241114524492225aa54462249229224492491224992249124908820222292242288249224499248922492484492249144a248949248549244920092542482482412892449254992249224492409440481402489402010912492242a12894422222222c82449922449222242444444a4888849224924892411492049924092249204229224902291482489442221921488082292442322222222252549924422912892880811918848498a449224912492244992242522224490a44844221205814404214430490a959424552549118988884824491289244922492241248848241289442291241191204992401449224992244992244902494404224208219214118904811011898890a4222289482292884424222249a4242925492412118988888888684444440011051191882044309434222222028828224122841091482422a28848914c12450422120422494a44448888442008242222492081a0882a22912452a24896244924499248221191244912490211412088249224492249249248229124499244a28814288120902449924424912489248188201088241108040241924c92244912482048928808342202110902912425222244442210041211912490405044159148122951244b92249224492491884892248924818820104412499224912412492491489224492251440a9440104892244922924892449240441008449208040281204926499224092410244944041a111149222522884422918820128944224144442449922449922489101142888848411288449224922009442249124910d14420a224912412841427029140441205499224492222224810114122918848049120222290244852a924a92a498a48128d8888242992249124110511114945144402511189444424822422121125a924912429922481a448a45289249024910492242249922449a59424494a2649492222a24482888824499224111101442448124000494a914484882012244929222292442211892080a41491049044459224499248924841444151902409244992244900a92422228224806452508a2202254952494a92242849204892024544449294244992244a92a424298944419200924a9294244992244992204949494444344892128408869268929224499224294949922425499214942425814634924820222244442292942492242222148408262954a2294955922449922449021111111189888808544d44202422118988880822128944221a492212894420102222222292244992482422121191489244a4201051101189108410c100120895248a084492222211894422918844414448449022932449208a084492444422922449229148445224494424111191240a0481208a88888848441022184aa28840924292529240812448429220492008110c25d188888894244949442389042222424424224992449244448482100911815089a6245549922449922409444444442422222250351111111291884444440491482412459248241211111121222222222222499224494a4444448100220a224222822892244992204430944411816844440422221281080421122202a1124d49aa922449922449128844249140554420812010450422222222499224494aa0401008228a08042182a1248a0844232222101191084420089110110895684a52952449922449924024228904aa22020904812822101111114992244952020582401051442008110c25514420894412491249242522114924109148924424924812918808444420220241209144244912812049128840244992244992244922222222101111111191884826118888404404222210442422914824222222129148444444444444444444108888884822499248922490484404222222222212812629499224494a52442449922449925492444a92a4942449928210091181502925a94a9224499224495292400994249520499a40922a29419234495292942449249224499224499224491028222252922425498944221111894892149154922449929444904892442a485288609242a54952252549525292244992244992529294440491241289484424912491204902482a89202222491289442411111111d18808442210812010042211012489888824499224491288884444042222101181a02a22222210118188080449122810840886926844249224494a525292a4a424499224494852922449a2a42425499224214949c9924444a288481240529044922044309444232222494a92244922499212099224499244444422918844419200928a24492a4a92244912490a92825290240924499224094422920449004992244992244992942422221a11114952922449924849522222424192244992a42449924812444424291111d12822221021448240888844200844208824108120904084822485082651a8144825522a49928c8844922449244912514424028924810804914492482291449248225152819288401009024144241248914424499244229248924086c2528ba0288a08248a0824502845118128229040a11445040a9402252949922449929224494a92445290a492041ad1888848122111111191482492a44891a4244992424a34294924499244a24424101111051121114188609242254a440289442281888888884892481009224992929294241189442291484444224892241045442292244992244992244992484949529248442422841022221211110922412449922489a1b0144504028828888844042182502822028828888844042182505812450422244882403422221211118d884892101111129148922425419204321496a288409082401411888888469224899088888844444444444422914844442492a4441211111105112111414889129140485248924490880442a528110944229188888888888888888888884844922409499224492449924492244992244912252281442412914824124922115190288924492449229124229220124444444444444404119148204524224992249124491288a1b0d4880820a220512212484490482412892022499248821489492d82a268924492244d92240991044912c850586a92529082403422222205221a11114922242222229148a4888888884824225110111211242984082649a192289104499224454444444404914804920492202222499224499244445499241311118988888888884444208240222212082291481249942449a4821499a4925292aa24922489249124519288444444924812492446828888404c92244992244922491249418a4c52493449aa24499254924044444424228948242a55922449229188480491449224494261a91111111151048920108d88884824494411118108218a24499288888888882249924444444444922449922411092291484444888888089224499244444448411248451242888800228248101191244922222224952049922449922449924492202222494992942449922449920c85a546440011052182a1a42205551411684444920889884820880889084224440442258a049124499204499224493214961a4092244992044910884644442222a2111149124a1592506a229224490a459120499224491284aa22499244484444222222220a22120842886092142a89224144444444121191244992249120222288a1b0d4880820a22089244192244912a448266922918844099220884644442222a21111492224222211114922898848241225419204190a4b51240852104491a01111492224222281202224220891100942258a0491244992922049820c85a52822102441108d481289248928222210214222082184101111111189442251041111111111119188442222224144444444924812912022124992442489144444a0a22851501509224949922422220288481224298000928a444410112541224992244924111111118988044924a5888888489124499224499224924482888888482489444414442291484403082049292249928888084274929422924a494a9288888820092080a42222222290444a112992924829912449121111118828109188244922128924222212894422918844208a0a2031892492244924492249249144a2884424491249a28808442491a88888888888082491249248441289244924924844445224499224499224499264282c55a4a08a224144444411892042881411914824221241448488488204491244442449922449928848d588448888884444222248044192244110499224111129102298a4502925a94a92244992244922222222128944222381888820264992244992242222140891100942259a24559224492a49101111114924499254aa92248944222211444424494261a989442212259004826844442422221a11912421a288882449222522492049820c85a5281204522088224114910822844820081191044110412092208240902042812485082651a814a41229952449464422499224922489282292209124882010492489241249248924122515944482201208828848244891442449924422924892204361a945a0281a111129886824294984444424222222a24044484420444224089528910449220922914894049224c850588a2241200904d18888484444342222498444442412894422452291281445824824128944221111111141124892204361a94912055220882241141405454444920811119188888888884844444444442422128922914652221211151191482412898844922449341249249144124992880422229224499224498448082189524444202292244904114944444444202292244904111111111111888848922482884414894804222292244904110422228888888888084404224982480492a8a8489244114124128922128888882449121111404444128848124000a924222222222222104952298652855285522322808802912425910442044349538aa2444444201148a24a34925495482412894422111111114144444444a424495292242529491111111191482412894444442422914824121111111111111111111129499252128944248a88482412291289884410aa12111149222422229148242212894422914844a240448240888448102a51248844221111111111898888888888482291482409244990a1b0d424499294401208a21111912425499224912449891448922449129144444420490049529104922449252229499224254992049224251111d18846444492088988482412893422229224499244041124894844a24044484420443049a15292544a2911242991482412894444248288882425128824499224918844224992244912912449920451024902485291244992244912111181482012894492244922222211244912a488442449922449922441864261a925508a4644444aa2482492944824121191444444922411492022124992442449922491049288480091a8882422118940952449228924914452922849222990a410c124854a55912492249244922455a5942435499224494992444444449248124122492449922449444444444420499224492289249144925429a924992449922449529288886852924a922449494a20498a481048922410222112844a4181249204422444825029a892244949922405922449924088609242254a24419214549224498124490221122241a8448924888848449224494a504444249140242291882411499224499224490a24412a4992249024498a8888464444a4a4482289240590244992241289449124222222121191888848524424111111114992241149924492489224491291888888884844242222222291884844049228914844242212111149894822452291244924922489248908440211894422222222222222222248924810454422924892244992240922121191880821848888444424221011111111894422914824121151101111d1880820a24044242210220885222280880241220221825058d2880820a24024221211814422918808442412494402210243493422225292244914894424222222224992244992244992244924894892242922228a8800220a2412894422904824121108110c25d1922449922449498a48902425922449922449528222222252922425492989442212052222110221443080242954922891041111119144929448242251202224229024159924499224a9244a2441929424499244914422494422221288442211894422128910422222424444544444444a9224254992245124221211899244442412894422918888884844444411119192a44422918888242222492449229188448110c124854a3425a94a92244992244910119188244992244952352589888822914824222222224992240992244911115144824008114c9242255122092222222289442291244992489288409224499224494444141101441488442291082412894422902299241a111129494a4a524492240248922489888828101112110891100942258a04914824222222222291a4888888404444942480a4409224811041281404105120221211081184c292281224294992a42441411248224920491008110c25d1a42415111149529222929452524a22495229a544929224494a25222549124992aa541191a48844924892241131491091144424224941222249442449a42089441245119124489282249220892449922449529052499224499224c924259124494a922449124922492449144591244992244992244992244992241149922449249124511989249244922449aa2589888822228088021121118110c150128d4812494aa524499492245249122449419224092225499224495250aa929292244992244990240992242909922449929224499224499224499224494992244992244992a4482a4992244992244992244952924a929424499224499224499224494a52499224499224499224499224499224499224491291482422222222888808229124492222414444902449221211059124412412898888880822228248241211111111444404914824222222228888082291482411910822229294242549922425c99244248922222225494922a924494a0049b28a8c4a92482451128944241249249148229124492249129144922492249148449244124922912489a4401285082651a81449aa48244952914892244a12914444441249444444049188482492a4441211114524482291449244124989484412094424922411892492442422414482888888244989048120914424491241204912441049922449922449928888880822222222229288641241448288044110884844229148444444242291888888888888888888401011119144922491244990484404111111111149d0880482101111044992244992248a882492049224914424812010444444488120a12409948a884814080289040d0221c150124582880482101111044992244992248a882492049224914424812010444444488120a12409948a884814080289040d0221c150128d888894400809494848898924484a9224499240922449a2111191244992248124299140444424499224499224891009212491140824412449224924104882484444248904229a08222222924481c48920124444442049922449444404094444904824221281249024419240924aa5245553928888684492484a0849220920499254259224499294924892120944444412499244229188880824012480481445221111114812451149241291080490288a88442211894044441428841020222222108a60888848024824912421802491248d2850151191245529939224491291248a04222222a2118948922425451488a246a425a340259a944a4992140492a4044204434934222292244929499288880892244922914844224892442291884490248944221189204912111151920092022182a1a4111140448144224992408820148a8800220a24128944221022088525d188884829499224299148242222898848922449922491244992022182490a955292aa244992244992242549492222a2208088021121118110c150124d52924a525124884810242222499224499290a44892148924120922121111119124498988882212111149921244912022411011912449922449928424458a4412890411898888884892a4444444118988882449498a2222128944441191888808412222922449922409498a24498988902449229224221111111149929488882822114922254952929292489224914844242212454424128988444482881044449224492249922421a9884422222449928888242249920c2049922449942411499288242291884804494644448188488440081144825049a2481011111191442291482422512022412045264992208a04111111114944244922914844444422111189884424892212912452922425498924498a8824222229224992244924494402494a24128944221111892022222222929424912449922449220291241249242292489248204902482a8940444444442291884844242249342211114044818848442044309444912092208240100822890092444444922449922409229288481091202241501589880411092212044912140442044349451448202849494a5292a404922429414992244992244992244992a4244992244992942449922449929224498a8888484924124592242549111111111125a9aa24499224898888888888882849922449922449922449924411492249a2229148242222228a2491482422229148242222a28888442291888888888828922449242291884444444992a4882491922449495222914844914824924824121111114522914822914844444494a4aa922449922422914894242245444444444444444444111111114922929294a424494992a22292244992a4aa924a494a5292244900494522914824128944444444942449922292444a5292244992222280888a2449529224492222228a44242211111125499292a4aa242949a2a452929244444992a424495244244992242949aa8a24258a88882449121111294992242549554544241289442211919224a912299248228988882891244991482422524424221211898888441111112922228a48241211499214294922952449521149224949242949929254928a888888882891482422222222228a48124544444424128988882812894491482412292222222222914844a4a45292925492244991482449924891482412114544444444444444441449128944222225959294a4884422111145444414111191548a244992a4244a4a924424899224912489a49214111151a9542449921225a92242222a4992a412492249115124494a92484a24121189221145242229491111912222a2880820a24a9224a524291211111111459224554444245524128944914824121111519492445492549522221289444451920092544914514444444444940490245544444494245144444444228a88889224a9a4a4244952942480a44a929424494a24928888248a888888888892a4aaa2889224491111114544444454444444499224494902484a49924a922429851042218450929224494992542a254992141111a92449922425499222228a2449524444242992244929a59488882822229294244992a4242a2a222222154992a4141111115144041051115192242901a488882825a24a92242901a48a88888828499294a44a5211514494244949928a8848524444141111512291884894244994249122a244221189141125498a8888141111294992a4924a9224a9a40000"},"methodIdentifiers":{"CLOCK_MODE()":"4bf5d7e9","allowance(address,address)":"dd62ed3e","approve(address,uint256)":"095ea7b3","balanceOf(address)":"70a08231","checkpoints(address,uint32)":"f1127ed8","clock()":"91ddadf4","decimals()":"313ce567","delegate(address)":"5c19a95c","delegateBySig(address,uint256,uint256,uint8,bytes32,bytes32)":"c3cda520","delegates(address)":"587cde1e","eip712Domain()":"84b0196e","getPastTotalSupply(uint256)":"8e539e8c","getPastVotes(address,uint256)":"3a46b1a8","getVotes(address)":"9ab24eb0","name()":"06fdde03","nonces(address)":"7ecebe00","numCheckpoints(address)":"6fcfff45","symbol()":"95d89b41","totalSupply()":"18160ddd","transfer(address,uint256)":"a9059cbb","transferFrom(address,address,uint256)":"23b872dd"}},"hash":"e2c332c1b27255db93adc0e6e30e509967d9cb4bbb915762f4ff120b335fbc49","factoryDependencies":{}}}}